{
  "contractName": "ColdStorageContract",
  "abi": [
    {
      "constant": true,
      "inputs": [
        {
          "name": "",
          "type": "uint256"
        }
      ],
      "name": "unverifiedColdStorages",
      "outputs": [
        {
          "name": "",
          "type": "address"
        }
      ],
      "payable": false,
      "stateMutability": "view",
      "type": "function"
    },
    {
      "constant": true,
      "inputs": [],
      "name": "rc",
      "outputs": [
        {
          "name": "",
          "type": "address"
        }
      ],
      "payable": false,
      "stateMutability": "view",
      "type": "function"
    },
    {
      "constant": true,
      "inputs": [
        {
          "name": "",
          "type": "address"
        }
      ],
      "name": "coldStorages",
      "outputs": [
        {
          "name": "ownerName",
          "type": "string"
        },
        {
          "name": "latitude",
          "type": "int256"
        },
        {
          "name": "longitude",
          "type": "int256"
        },
        {
          "name": "capacity",
          "type": "uint256"
        },
        {
          "name": "price",
          "type": "uint256"
        },
        {
          "name": "isEligible",
          "type": "bool"
        }
      ],
      "payable": false,
      "stateMutability": "view",
      "type": "function"
    },
    {
      "constant": true,
      "inputs": [
        {
          "name": "",
          "type": "uint256"
        }
      ],
      "name": "coldStorageAddresses",
      "outputs": [
        {
          "name": "",
          "type": "address"
        }
      ],
      "payable": false,
      "stateMutability": "view",
      "type": "function"
    },
    {
      "inputs": [
        {
          "name": "_address",
          "type": "address"
        }
      ],
      "payable": false,
      "stateMutability": "nonpayable",
      "type": "constructor"
    },
    {
      "constant": false,
      "inputs": [
        {
          "name": "_ownerName",
          "type": "string"
        },
        {
          "name": "_latitude",
          "type": "int256"
        },
        {
          "name": "_longitude",
          "type": "int256"
        },
        {
          "name": "_capacity",
          "type": "uint256"
        },
        {
          "name": "_price",
          "type": "uint256"
        }
      ],
      "name": "addColdStorage",
      "outputs": [],
      "payable": false,
      "stateMutability": "nonpayable",
      "type": "function"
    },
    {
      "constant": true,
      "inputs": [],
      "name": "getColdStorages",
      "outputs": [
        {
          "name": "",
          "type": "address[]"
        }
      ],
      "payable": false,
      "stateMutability": "view",
      "type": "function"
    },
    {
      "constant": true,
      "inputs": [
        {
          "name": "_address",
          "type": "address"
        }
      ],
      "name": "getRequests",
      "outputs": [
        {
          "name": "",
          "type": "address[]"
        }
      ],
      "payable": false,
      "stateMutability": "view",
      "type": "function"
    },
    {
      "constant": true,
      "inputs": [
        {
          "name": "_address",
          "type": "address"
        }
      ],
      "name": "getAllCSrequestedByAddress",
      "outputs": [
        {
          "name": "",
          "type": "address[]"
        }
      ],
      "payable": false,
      "stateMutability": "view",
      "type": "function"
    },
    {
      "constant": true,
      "inputs": [
        {
          "name": "_address",
          "type": "address"
        }
      ],
      "name": "getAllCSapprovedForAddress",
      "outputs": [
        {
          "name": "",
          "type": "address[]"
        }
      ],
      "payable": false,
      "stateMutability": "view",
      "type": "function"
    },
    {
      "constant": true,
      "inputs": [
        {
          "name": "_address",
          "type": "address"
        }
      ],
      "name": "getColdStorage",
      "outputs": [
        {
          "name": "_ownerName",
          "type": "string"
        },
        {
          "name": "_latitude",
          "type": "int256"
        },
        {
          "name": "_longitude",
          "type": "int256"
        },
        {
          "name": "_capacity",
          "type": "uint256"
        },
        {
          "name": "_price",
          "type": "uint256"
        }
      ],
      "payable": false,
      "stateMutability": "view",
      "type": "function"
    },
    {
      "constant": true,
      "inputs": [
        {
          "name": "_address",
          "type": "address"
        }
      ],
      "name": "getLocation",
      "outputs": [
        {
          "name": "",
          "type": "int256"
        },
        {
          "name": "",
          "type": "int256"
        }
      ],
      "payable": false,
      "stateMutability": "view",
      "type": "function"
    },
    {
      "constant": true,
      "inputs": [
        {
          "name": "_address",
          "type": "address"
        }
      ],
      "name": "getColdStoragePrice",
      "outputs": [
        {
          "name": "_price",
          "type": "uint256"
        }
      ],
      "payable": false,
      "stateMutability": "view",
      "type": "function"
    },
    {
      "constant": true,
      "inputs": [],
      "name": "countColdStorages",
      "outputs": [
        {
          "name": "",
          "type": "uint256"
        }
      ],
      "payable": false,
      "stateMutability": "view",
      "type": "function"
    },
    {
      "constant": false,
      "inputs": [
        {
          "name": "_address",
          "type": "address"
        }
      ],
      "name": "requestColdStorage",
      "outputs": [],
      "payable": false,
      "stateMutability": "nonpayable",
      "type": "function"
    },
    {
      "constant": false,
      "inputs": [
        {
          "name": "_address",
          "type": "address"
        },
        {
          "name": "_addressColdStorage",
          "type": "address"
        }
      ],
      "name": "removeRequest",
      "outputs": [],
      "payable": false,
      "stateMutability": "nonpayable",
      "type": "function"
    },
    {
      "constant": false,
      "inputs": [
        {
          "name": "_address",
          "type": "address"
        },
        {
          "name": "_addressColdStorage",
          "type": "address"
        }
      ],
      "name": "removeApprovedRequest",
      "outputs": [],
      "payable": false,
      "stateMutability": "nonpayable",
      "type": "function"
    },
    {
      "constant": false,
      "inputs": [
        {
          "name": "_addressColdStorage",
          "type": "address"
        },
        {
          "name": "_address",
          "type": "address"
        }
      ],
      "name": "approveColdStorage",
      "outputs": [],
      "payable": false,
      "stateMutability": "nonpayable",
      "type": "function"
    },
    {
      "constant": true,
      "inputs": [
        {
          "name": "_address",
          "type": "address"
        }
      ],
      "name": "getApprovedRequests",
      "outputs": [
        {
          "name": "",
          "type": "address[]"
        }
      ],
      "payable": false,
      "stateMutability": "view",
      "type": "function"
    },
    {
      "constant": false,
      "inputs": [
        {
          "name": "_address",
          "type": "address"
        }
      ],
      "name": "rentColdStorage",
      "outputs": [],
      "payable": false,
      "stateMutability": "nonpayable",
      "type": "function"
    },
    {
      "constant": true,
      "inputs": [
        {
          "name": "_address",
          "type": "address"
        }
      ],
      "name": "getRentedStorages",
      "outputs": [
        {
          "name": "",
          "type": "address[]"
        }
      ],
      "payable": false,
      "stateMutability": "view",
      "type": "function"
    },
    {
      "constant": true,
      "inputs": [
        {
          "name": "_address",
          "type": "address"
        }
      ],
      "name": "getTenants",
      "outputs": [
        {
          "name": "",
          "type": "address[]"
        }
      ],
      "payable": false,
      "stateMutability": "view",
      "type": "function"
    },
    {
      "constant": true,
      "inputs": [],
      "name": "getUnverifiedColdStorages",
      "outputs": [
        {
          "name": "",
          "type": "address[]"
        }
      ],
      "payable": false,
      "stateMutability": "view",
      "type": "function"
    },
    {
      "constant": false,
      "inputs": [
        {
          "name": "_address",
          "type": "address"
        }
      ],
      "name": "setEligible",
      "outputs": [],
      "payable": false,
      "stateMutability": "nonpayable",
      "type": "function"
    }
  ],
  "bytecode": "0x60806040523480156200001157600080fd5b5060405160208062002ebf833981018060405262000033919081019062000090565b806000806101000a81548173ffffffffffffffffffffffffffffffffffffffff021916908373ffffffffffffffffffffffffffffffffffffffff16021790555050620000dc565b6000620000888251620000bc565b905092915050565b600060208284031215620000a357600080fd5b6000620000b3848285016200007a565b91505092915050565b600073ffffffffffffffffffffffffffffffffffffffff82169050919050565b612dd380620000ec6000396000f300608060405260043610610132576000357c0100000000000000000000000000000000000000000000000000000000900463ffffffff16806212827614610137578063051e25ac146101625780630b411f441461019f57806311619c94146101dc57806312f7733214610207578063517aea2a146102325780635839cb351461026f578063782cbf5f146102985780637d3845cc146102c1578063804e44f3146102fe5780639409248b1461033b57806398c18f2f14610364578063a0a38e1f146103a6578063ba778bf9146103e3578063c3a3190514610420578063d094035414610449578063d9e0dc591461048a578063de7ff325146104c8578063e22dbe8814610505578063e476f9f514610542578063f904cf041461056b578063fe8806f514610594578063fef7fa6a146105bd575b600080fd5b34801561014357600080fd5b5061014c6105e8565b6040516101599190612ac9565b60405180910390f35b34801561016e57600080fd5b50610189600480360361018491908101906128c4565b610676565b6040516101969190612a85565b60405180910390f35b3480156101ab57600080fd5b506101c660048036036101c191908101906127d0565b6106b4565b6040516101d39190612ac9565b60405180910390f35b3480156101e857600080fd5b506101f161092f565b6040516101fe9190612c11565b60405180910390f35b34801561021357600080fd5b5061021c61093c565b6040516102299190612aeb565b60405180910390f35b34801561023e57600080fd5b50610259600480360361025491908101906127d0565b610961565b6040516102669190612ac9565b60405180910390f35b34801561027b57600080fd5b50610296600480360361029191908101906127f9565b610a6b565b005b3480156102a457600080fd5b506102bf60048036036102ba91908101906127d0565b610cb2565b005b3480156102cd57600080fd5b506102e860048036036102e391908101906127d0565b610df9565b6040516102f59190612ac9565b60405180910390f35b34801561030a57600080fd5b50610325600480360361032091908101906127d0565b610f03565b6040516103329190612ac9565b60405180910390f35b34801561034757600080fd5b50610362600480360361035d9190810190612835565b61100d565b005b34801561037057600080fd5b5061038b600480360361038691908101906127d0565b61117e565b60405161039d96959493929190612b89565b60405180910390f35b3480156103b257600080fd5b506103cd60048036036103c891908101906128c4565b61125f565b6040516103da9190612a85565b60405180910390f35b3480156103ef57600080fd5b5061040a600480360361040591908101906127d0565b61129d565b6040516104179190612c11565b60405180910390f35b34801561042c57600080fd5b50610447600480360361044291908101906127d0565b6112e9565b005b34801561045557600080fd5b50610470600480360361046b91908101906127d0565b61139c565b604051610481959493929190612b2f565b60405180910390f35b34801561049657600080fd5b506104b160048036036104ac91908101906127d0565b6115a1565b6040516104bf929190612b06565b60405180910390f35b3480156104d457600080fd5b506104ef60048036036104ea91908101906127d0565b611633565b6040516104fc9190612ac9565b60405180910390f35b34801561051157600080fd5b5061052c600480360361052791908101906127d0565b6118ae565b6040516105399190612ac9565b60405180910390f35b34801561054e57600080fd5b50610569600480360361056491908101906127f9565b611b29565b005b34801561057757600080fd5b50610592600480360361058d91908101906127d0565b611c17565b005b3480156105a057600080fd5b506105bb60048036036105b691908101906127f9565b612128565b005b3480156105c957600080fd5b506105d261236f565b6040516105df9190612ac9565b60405180910390f35b6060600280548060200260200160405190810160405280929190818152602001828054801561066c57602002820191906000526020600020905b8160009054906101000a900473ffffffffffffffffffffffffffffffffffffffff1673ffffffffffffffffffffffffffffffffffffffff1681526020019060010190808311610622575b5050505050905090565b60038181548110151561068557fe5b906000526020600020016000915054906101000a900473ffffffffffffffffffffffffffffffffffffffff1681565b60608060008060006002805490506040519080825280602002602001820160405280156106f05781602001602082028038833980820191505090505b50935060009250600091505b60028054905082101561092357600090505b6001600060028481548110151561072157fe5b9060005260206000200160009054906101000a900473ffffffffffffffffffffffffffffffffffffffff1673ffffffffffffffffffffffffffffffffffffffff1673ffffffffffffffffffffffffffffffffffffffff16815260200190815260200160002060070180549050811015610916578573ffffffffffffffffffffffffffffffffffffffff16600160006002858154811015156107be57fe5b9060005260206000200160009054906101000a900473ffffffffffffffffffffffffffffffffffffffff1673ffffffffffffffffffffffffffffffffffffffff1673ffffffffffffffffffffffffffffffffffffffff1681526020019081526020016000206007018281548110151561083357fe5b9060005260206000200160009054906101000a900473ffffffffffffffffffffffffffffffffffffffff1673ffffffffffffffffffffffffffffffffffffffff1614156109095760028281548110151561088957fe5b9060005260206000200160009054906101000a900473ffffffffffffffffffffffffffffffffffffffff1684848060010195508151811015156108c857fe5b9060200190602002019073ffffffffffffffffffffffffffffffffffffffff16908173ffffffffffffffffffffffffffffffffffffffff1681525050610916565b808060010191505061070e565b81806001019250506106fc565b83945050505050919050565b6000600280549050905090565b6000809054906101000a900473ffffffffffffffffffffffffffffffffffffffff1681565b60608173ffffffffffffffffffffffffffffffffffffffff163373ffffffffffffffffffffffffffffffffffffffff1614151561099d57600080fd5b600160008373ffffffffffffffffffffffffffffffffffffffff1673ffffffffffffffffffffffffffffffffffffffff168152602001908152602001600020600701805480602002602001604051908101604052809291908181526020018280548015610a5f57602002820191906000526020600020905b8160009054906101000a900473ffffffffffffffffffffffffffffffffffffffff1673ffffffffffffffffffffffffffffffffffffffff1681526020019060010190808311610a15575b50505050509050919050565b600080600080600160008673ffffffffffffffffffffffffffffffffffffffff1673ffffffffffffffffffffffffffffffffffffffff16815260200190815260200160002060070193506000925060009150600090505b8380549050811015610b53578573ffffffffffffffffffffffffffffffffffffffff168482815481101515610af357fe5b9060005260206000200160009054906101000a900473ffffffffffffffffffffffffffffffffffffffff1673ffffffffffffffffffffffffffffffffffffffff161415610b465760019250809150610b53565b8080600101915050610ac2565b8215610ca4578190505b6001848054905003811015610c0b578360018201815481101515610b7d57fe5b9060005260206000200160009054906101000a900473ffffffffffffffffffffffffffffffffffffffff168482815481101515610bb657fe5b9060005260206000200160006101000a81548173ffffffffffffffffffffffffffffffffffffffff021916908373ffffffffffffffffffffffffffffffffffffffff1602179055508080600101915050610b5d565b836001858054905003815481101515610c2057fe5b9060005260206000200160006101000a81549073ffffffffffffffffffffffffffffffffffffffff021916905583600160008773ffffffffffffffffffffffffffffffffffffffff1673ffffffffffffffffffffffffffffffffffffffff168152602001908152602001600020600701908054610c9e9291906125c4565b50610ca9565b610caa565b5b505050505050565b8073ffffffffffffffffffffffffffffffffffffffff163373ffffffffffffffffffffffffffffffffffffffff1614151515610ced57600080fd5b600160008273ffffffffffffffffffffffffffffffffffffffff1673ffffffffffffffffffffffffffffffffffffffff168152602001908152602001600020600401543373ffffffffffffffffffffffffffffffffffffffff1631101515610df657600160008273ffffffffffffffffffffffffffffffffffffffff1673ffffffffffffffffffffffffffffffffffffffff1681526020019081526020016000206006013390806001815401808255809150509060018203906000526020600020016000909192909190916101000a81548173ffffffffffffffffffffffffffffffffffffffff021916908373ffffffffffffffffffffffffffffffffffffffff160217905550505b50565b60608173ffffffffffffffffffffffffffffffffffffffff163373ffffffffffffffffffffffffffffffffffffffff16141515610e3557600080fd5b600160008373ffffffffffffffffffffffffffffffffffffffff1673ffffffffffffffffffffffffffffffffffffffff168152602001908152602001600020600801805480602002602001604051908101604052809291908181526020018280548015610ef757602002820191906000526020600020905b8160009054906101000a900473ffffffffffffffffffffffffffffffffffffffff1673ffffffffffffffffffffffffffffffffffffffff1681526020019060010190808311610ead575b50505050509050919050565b60608173ffffffffffffffffffffffffffffffffffffffff163373ffffffffffffffffffffffffffffffffffffffff16141515610f3f57600080fd5b600160008373ffffffffffffffffffffffffffffffffffffffff1673ffffffffffffffffffffffffffffffffffffffff16815260200190815260200160002060060180548060200260200160405190810160405280929190818152602001828054801561100157602002820191906000526020600020905b8160009054906101000a900473ffffffffffffffffffffffffffffffffffffffff1673ffffffffffffffffffffffffffffffffffffffff1681526020019060010190808311610fb7575b50505050509050919050565b6000600160003273ffffffffffffffffffffffffffffffffffffffff1673ffffffffffffffffffffffffffffffffffffffff168152602001908152602001600020905085816000019080519060200190611068929190612616565b5084816001018190555083816002018190555082816003018190555081816004018190555060008160050160006101000a81548160ff02191690831515021790555060023290806001815401808255809150509060018203906000526020600020016000909192909190916101000a81548173ffffffffffffffffffffffffffffffffffffffff021916908373ffffffffffffffffffffffffffffffffffffffff1602179055505060033290806001815401808255809150509060018203906000526020600020016000909192909190916101000a81548173ffffffffffffffffffffffffffffffffffffffff021916908373ffffffffffffffffffffffffffffffffffffffff16021790555050505050505050565b6001602052806000526040600020600091509050806000018054600181600116156101000203166002900480601f01602080910402602001604051908101604052809291908181526020018280546001816001161561010002031660029004801561122a5780601f106111ff5761010080835404028352916020019161122a565b820191906000526020600020905b81548152906001019060200180831161120d57829003601f168201915b5050505050908060010154908060020154908060030154908060040154908060050160009054906101000a900460ff16905086565b60028181548110151561126e57fe5b906000526020600020016000915054906101000a900473ffffffffffffffffffffffffffffffffffffffff1681565b6000600160008373ffffffffffffffffffffffffffffffffffffffff1673ffffffffffffffffffffffffffffffffffffffff168152602001908152602001600020600401549050919050565b600160008273ffffffffffffffffffffffffffffffffffffffff1673ffffffffffffffffffffffffffffffffffffffff1681526020019081526020016000206008013390806001815401808255809150509060018203906000526020600020016000909192909190916101000a81548173ffffffffffffffffffffffffffffffffffffffff021916908373ffffffffffffffffffffffffffffffffffffffff160217905550506113993382610a6b565b50565b6060600080600080600160008773ffffffffffffffffffffffffffffffffffffffff1673ffffffffffffffffffffffffffffffffffffffff168152602001908152602001600020600001600160008873ffffffffffffffffffffffffffffffffffffffff1673ffffffffffffffffffffffffffffffffffffffff16815260200190815260200160002060010154600160008973ffffffffffffffffffffffffffffffffffffffff1673ffffffffffffffffffffffffffffffffffffffff16815260200190815260200160002060020154600160008a73ffffffffffffffffffffffffffffffffffffffff1673ffffffffffffffffffffffffffffffffffffffff16815260200190815260200160002060030154600160008b73ffffffffffffffffffffffffffffffffffffffff1673ffffffffffffffffffffffffffffffffffffffff16815260200190815260200160002060040154848054600181600116156101000203166002900480601f0160208091040260200160405190810160405280929190818152602001828054600181600116156101000203166002900480156115875780601f1061155c57610100808354040283529160200191611587565b820191906000526020600020905b81548152906001019060200180831161156a57829003601f168201915b505050505094509450945094509450945091939590929450565b600080600160008473ffffffffffffffffffffffffffffffffffffffff1673ffffffffffffffffffffffffffffffffffffffff16815260200190815260200160002060010154600160008573ffffffffffffffffffffffffffffffffffffffff1673ffffffffffffffffffffffffffffffffffffffff1681526020019081526020016000206002015491509150915091565b606080600080600060028054905060405190808252806020026020018201604052801561166f5781602001602082028038833980820191505090505b50935060009250600091505b6002805490508210156118a257600090505b600160006002848154811015156116a057fe5b9060005260206000200160009054906101000a900473ffffffffffffffffffffffffffffffffffffffff1673ffffffffffffffffffffffffffffffffffffffff1673ffffffffffffffffffffffffffffffffffffffff16815260200190815260200160002060060180549050811015611895578573ffffffffffffffffffffffffffffffffffffffff166001600060028581548110151561173d57fe5b9060005260206000200160009054906101000a900473ffffffffffffffffffffffffffffffffffffffff1673ffffffffffffffffffffffffffffffffffffffff1673ffffffffffffffffffffffffffffffffffffffff168152602001908152602001600020600601828154811015156117b257fe5b9060005260206000200160009054906101000a900473ffffffffffffffffffffffffffffffffffffffff1673ffffffffffffffffffffffffffffffffffffffff1614156118885760028281548110151561180857fe5b9060005260206000200160009054906101000a900473ffffffffffffffffffffffffffffffffffffffff16848480600101955081518110151561184757fe5b9060200190602002019073ffffffffffffffffffffffffffffffffffffffff16908173ffffffffffffffffffffffffffffffffffffffff1681525050611895565b808060010191505061168d565b818060010192505061167b565b83945050505050919050565b60608060008060006002805490506040519080825280602002602001820160405280156118ea5781602001602082028038833980820191505090505b50935060009250600091505b600280549050821015611b1d57600090505b6001600060028481548110151561191b57fe5b9060005260206000200160009054906101000a900473ffffffffffffffffffffffffffffffffffffffff1673ffffffffffffffffffffffffffffffffffffffff1673ffffffffffffffffffffffffffffffffffffffff16815260200190815260200160002060080180549050811015611b10578573ffffffffffffffffffffffffffffffffffffffff16600160006002858154811015156119b857fe5b9060005260206000200160009054906101000a900473ffffffffffffffffffffffffffffffffffffffff1673ffffffffffffffffffffffffffffffffffffffff1673ffffffffffffffffffffffffffffffffffffffff16815260200190815260200160002060080182815481101515611a2d57fe5b9060005260206000200160009054906101000a900473ffffffffffffffffffffffffffffffffffffffff1673ffffffffffffffffffffffffffffffffffffffff161415611b0357600282815481101515611a8357fe5b9060005260206000200160009054906101000a900473ffffffffffffffffffffffffffffffffffffffff168484806001019550815181101515611ac257fe5b9060200190602002019073ffffffffffffffffffffffffffffffffffffffff16908173ffffffffffffffffffffffffffffffffffffffff1681525050611b10565b8080600101915050611908565b81806001019250506118f6565b83945050505050919050565b8173ffffffffffffffffffffffffffffffffffffffff163373ffffffffffffffffffffffffffffffffffffffff16141515611b6357600080fd5b600160008373ffffffffffffffffffffffffffffffffffffffff1673ffffffffffffffffffffffffffffffffffffffff1681526020019081526020016000206007018190806001815401808255809150509060018203906000526020600020016000909192909190916101000a81548173ffffffffffffffffffffffffffffffffffffffff021916908373ffffffffffffffffffffffffffffffffffffffff16021790555050611c138183612128565b5050565b60008060009054906101000a900473ffffffffffffffffffffffffffffffffffffffff1673ffffffffffffffffffffffffffffffffffffffff166346fb5b9c6040518163ffffffff167c0100000000000000000000000000000000000000000000000000000000028152600401602060405180830381600087803b158015611c9e57600080fd5b505af1158015611cb2573d6000803e3d6000fd5b505050506040513d601f19601f82011682018060405250611cd691908101906128ed565b6000809054906101000a900473ffffffffffffffffffffffffffffffffffffffff1673ffffffffffffffffffffffffffffffffffffffff166344276733326040518263ffffffff167c0100000000000000000000000000000000000000000000000000000000028152600401611d4c9190612a85565b602060405180830381600087803b158015611d6657600080fd5b505af1158015611d7a573d6000803e3d6000fd5b505050506040513d601f19601f82011682018060405250611d9e91908101906128ed565b141515611de0576040517f08c379a0000000000000000000000000000000000000000000000000000000008152600401611dd790612bf1565b60405180910390fd5b600090505b600380549050811015612124578173ffffffffffffffffffffffffffffffffffffffff16600382815481101515611e1857fe5b9060005260206000200160009054906101000a900473ffffffffffffffffffffffffffffffffffffffff1673ffffffffffffffffffffffffffffffffffffffff161415612117576003600160038054905003815481101515611e7657fe5b9060005260206000200160009054906101000a900473ffffffffffffffffffffffffffffffffffffffff16600382815481101515611eb057fe5b9060005260206000200160006101000a81548173ffffffffffffffffffffffffffffffffffffffff021916908373ffffffffffffffffffffffffffffffffffffffff1602179055506003600160038054905003815481101515611f0f57fe5b9060005260206000200160006101000a81549073ffffffffffffffffffffffffffffffffffffffff021916905560018060008473ffffffffffffffffffffffffffffffffffffffff1673ffffffffffffffffffffffffffffffffffffffff16815260200190815260200160002060050160006101000a81548160ff0219169083151502179055506003805480919060019003611fab9190612696565b506000809054906101000a900473ffffffffffffffffffffffffffffffffffffffff1673ffffffffffffffffffffffffffffffffffffffff16637fde1c8a836000809054906101000a900473ffffffffffffffffffffffffffffffffffffffff1673ffffffffffffffffffffffffffffffffffffffff1663bf4fd3696040518163ffffffff167c0100000000000000000000000000000000000000000000000000000000028152600401602060405180830381600087803b15801561206f57600080fd5b505af1158015612083573d6000803e3d6000fd5b505050506040513d601f19601f820116820180604052506120a791908101906128ed565b6040518363ffffffff167c01000000000000000000000000000000000000000000000000000000000281526004016120e0929190612aa0565b600060405180830381600087803b1580156120fa57600080fd5b505af115801561210e573d6000803e3d6000fd5b50505050612124565b8080600101915050611de5565b5050565b600080600080600160008673ffffffffffffffffffffffffffffffffffffffff1673ffffffffffffffffffffffffffffffffffffffff16815260200190815260200160002060060193506000925060009150600090505b8380549050811015612210578573ffffffffffffffffffffffffffffffffffffffff1684828154811015156121b057fe5b9060005260206000200160009054906101000a900473ffffffffffffffffffffffffffffffffffffffff1673ffffffffffffffffffffffffffffffffffffffff1614156122035760019250809150612210565b808060010191505061217f565b8215612361578190505b60018480549050038110156122c857836001820181548110151561223a57fe5b9060005260206000200160009054906101000a900473ffffffffffffffffffffffffffffffffffffffff16848281548110151561227357fe5b9060005260206000200160006101000a81548173ffffffffffffffffffffffffffffffffffffffff021916908373ffffffffffffffffffffffffffffffffffffffff160217905550808060010191505061221a565b8360018580549050038154811015156122dd57fe5b9060005260206000200160006101000a81549073ffffffffffffffffffffffffffffffffffffffff021916905583600160008773ffffffffffffffffffffffffffffffffffffffff1673ffffffffffffffffffffffffffffffffffffffff16815260200190815260200160002060060190805461235b9291906125c4565b50612366565b612367565b5b505050505050565b60606000809054906101000a900473ffffffffffffffffffffffffffffffffffffffff1673ffffffffffffffffffffffffffffffffffffffff166346fb5b9c6040518163ffffffff167c0100000000000000000000000000000000000000000000000000000000028152600401602060405180830381600087803b1580156123f657600080fd5b505af115801561240a573d6000803e3d6000fd5b505050506040513d601f19601f8201168201806040525061242e91908101906128ed565b6000809054906101000a900473ffffffffffffffffffffffffffffffffffffffff1673ffffffffffffffffffffffffffffffffffffffff166344276733326040518263ffffffff167c01000000000000000000000000000000000000000000000000000000000281526004016124a49190612a85565b602060405180830381600087803b1580156124be57600080fd5b505af11580156124d2573d6000803e3d6000fd5b505050506040513d601f19601f820116820180604052506124f691908101906128ed565b141515612538576040517f08c379a000000000000000000000000000000000000000000000000000000000815260040161252f90612bf1565b60405180910390fd5b60038054806020026020016040519081016040528092919081815260200182805480156125ba57602002820191906000526020600020905b8160009054906101000a900473ffffffffffffffffffffffffffffffffffffffff1673ffffffffffffffffffffffffffffffffffffffff1681526020019060010190808311612570575b5050505050905090565b8280548282559060005260206000209081019282156126055760005260206000209182015b828111156126045782548255916001019190600101906125e9565b5b50905061261291906126c2565b5090565b828054600181600116156101000203166002900490600052602060002090601f016020900481019282601f1061265757805160ff1916838001178555612685565b82800160010185558215612685579182015b82811115612684578251825591602001919060010190612669565b5b5090506126929190612705565b5090565b8154818355818111156126bd578183600052602060002091820191016126bc9190612705565b5b505050565b61270291905b808211156126fe57600081816101000a81549073ffffffffffffffffffffffffffffffffffffffff0219169055506001016126c8565b5090565b90565b61272791905b8082111561272357600081600090555060010161270b565b5090565b90565b60006127368235612d00565b905092915050565b600061274a8235612d20565b905092915050565b600082601f830112151561276557600080fd5b813561277861277382612c59565b612c2c565b9150808252602083016020830185838301111561279457600080fd5b61279f838284612d46565b50505092915050565b60006127b48235612d2a565b905092915050565b60006127c88251612d2a565b905092915050565b6000602082840312156127e257600080fd5b60006127f08482850161272a565b91505092915050565b6000806040838503121561280c57600080fd5b600061281a8582860161272a565b925050602061282b8582860161272a565b9150509250929050565b600080600080600060a0868803121561284d57600080fd5b600086013567ffffffffffffffff81111561286757600080fd5b61287388828901612752565b95505060206128848882890161273e565b94505060406128958882890161273e565b93505060606128a6888289016127a8565b92505060806128b7888289016127a8565b9150509295509295909350565b6000602082840312156128d657600080fd5b60006128e4848285016127a8565b91505092915050565b6000602082840312156128ff57600080fd5b600061290d848285016127bc565b91505092915050565b61291f81612cc0565b82525050565b600061293082612c92565b80845260208401935061294283612c85565b60005b8281101561297457612958868351612916565b61296182612cb3565b9150602086019550600181019050612945565b50849250505092915050565b61298981612ce0565b82525050565b61299881612d34565b82525050565b6129a781612cec565b82525050565b60006129b882612ca8565b8084526129cc816020860160208601612d55565b6129d581612d88565b602085010191505092915050565b60006129ee82612c9d565b808452612a02816020860160208601612d55565b612a0b81612d88565b602085010191505092915050565b6000602482527f4f6e6c7920676f7665726e6d656e74206f6666696369616c732063616e20616360208301527f63657373000000000000000000000000000000000000000000000000000000006040830152606082019050919050565b612a7f81612cf6565b82525050565b6000602082019050612a9a6000830184612916565b92915050565b6000604082019050612ab56000830185612916565b612ac26020830184612a76565b9392505050565b60006020820190508181036000830152612ae38184612925565b905092915050565b6000602082019050612b00600083018461298f565b92915050565b6000604082019050612b1b600083018561299e565b612b28602083018461299e565b9392505050565b600060a0820190508181036000830152612b4981886129ad565b9050612b58602083018761299e565b612b65604083018661299e565b612b726060830185612a76565b612b7f6080830184612a76565b9695505050505050565b600060c0820190508181036000830152612ba381896129e3565b9050612bb2602083018861299e565b612bbf604083018761299e565b612bcc6060830186612a76565b612bd96080830185612a76565b612be660a0830184612980565b979650505050505050565b60006020820190508181036000830152612c0a81612a19565b9050919050565b6000602082019050612c266000830184612a76565b92915050565b6000604051905081810181811067ffffffffffffffff82111715612c4f57600080fd5b8060405250919050565b600067ffffffffffffffff821115612c7057600080fd5b601f19601f8301169050602081019050919050565b6000602082019050919050565b600081519050919050565b600081519050919050565b600081519050919050565b6000602082019050919050565b600073ffffffffffffffffffffffffffffffffffffffff82169050919050565b60008115159050919050565b6000819050919050565b6000819050919050565b600073ffffffffffffffffffffffffffffffffffffffff82169050919050565b6000819050919050565b6000819050919050565b6000612d3f82612cc0565b9050919050565b82818337600083830152505050565b60005b83811015612d73578082015181840152602081019050612d58565b83811115612d82576000848401525b50505050565b6000601f19601f83011690509190505600a265627a7a7230582028356663e8fbdb71af78982f0d1027456012c7a75834ed29445d9abfea1d7c0f6c6578706572696d656e74616cf50037",
  "source": "// SPDX-License-Identifier: GPL-3.0\r\npragma solidity ^0.4.22;\r\npragma experimental ABIEncoderV2;\r\n\r\nimport \"./Roles.sol\";\r\n\r\ncontract ColdStorageContract {\r\n    Roles public rc;\r\n    \r\n    constructor(address _address) public {\r\n        rc = Roles(_address);\r\n    }\r\n    \r\n    struct ColdStorage {\r\n        string ownerName;\r\n        int256 latitude;\r\n        int256 longitude;\r\n        uint256 capacity;\r\n        uint256 price;\r\n        bool isEligible;\r\n        address[] requests;\r\n        address[] approvedRequests;\r\n        address[] tenants;\r\n    }\r\n\r\n    mapping(address => ColdStorage) public coldStorages;\r\n    address[] public coldStorageAddresses;\r\n    address[] public unverifiedColdStorages;\r\n\r\n     modifier onlyGovernmentOfficial() {\r\n        require(rc.getRole(tx.origin) == rc.governmentID(), \"Only government officials can access\");\r\n        _;\r\n    }\r\n\r\n    function addColdStorage(\r\n        string memory _ownerName,\r\n        int256 _latitude,\r\n        int256 _longitude,\r\n        uint256 _capacity,\r\n        uint256 _price\r\n    ) public {\r\n        ColdStorage storage coldStorage = coldStorages[tx.origin];\r\n        coldStorage.ownerName = _ownerName;\r\n        coldStorage.latitude = _latitude;\r\n        coldStorage.longitude = _longitude;\r\n        coldStorage.capacity = _capacity;\r\n        coldStorage.price = _price;\r\n        coldStorage.isEligible = false;\r\n        \r\n        coldStorageAddresses.push(tx.origin);\r\n        unverifiedColdStorages.push(tx.origin);\r\n    }\r\n\r\n    function getColdStorages() public view returns (address[] memory) {\r\n        return coldStorageAddresses;\r\n    }\r\n\r\n    function getRequests(address _address) public view returns (address[] memory) {\r\n        require(msg.sender == _address);\r\n\r\n        return coldStorages[_address].requests;\r\n    }\r\n\r\n    function getAllCSrequestedByAddress(address _address)\r\n        public\r\n        view\r\n        returns (address[] memory)\r\n    {\r\n        address[] memory CSIDs = new address[](coldStorageAddresses.length);\r\n        uint256 pointer = 0;\r\n        \r\n        //loop to traverse through cold storages\r\n        for (uint256 i = 0; i < coldStorageAddresses.length; i++) {\r\n            for (uint256 j = 0; j < coldStorages[coldStorageAddresses[i]].requests.length;j++) {\r\n                if (coldStorages[coldStorageAddresses[i]].requests[j] == _address) {\r\n                    CSIDs[pointer++] = coldStorageAddresses[i];\r\n                    break;\r\n                }\r\n            }\r\n        }\r\n        return CSIDs;\r\n    }\r\n\r\n    function getAllCSapprovedForAddress(address _address)\r\n        public\r\n        view\r\n        returns (address[] memory)\r\n    {\r\n        address[] memory CSIDs = new address[](coldStorageAddresses.length);\r\n        uint256 pointer = 0;\r\n        \r\n        //loop to traverse through cold storages\r\n        for (uint256 i = 0; i < coldStorageAddresses.length; i++) {\r\n            for (uint256 j = 0; j < coldStorages[coldStorageAddresses[i]].approvedRequests.length; j++) {\r\n                if (coldStorages[coldStorageAddresses[i]].approvedRequests[j] == _address) {\r\n                    CSIDs[pointer++] = coldStorageAddresses[i];\r\n                    break;\r\n                }\r\n            }\r\n        }\r\n        return CSIDs;\r\n    }\r\n\r\n    function getColdStorage(address _address)\r\n        public\r\n        view\r\n        returns (\r\n            string memory _ownerName,\r\n            int256 _latitude,\r\n            int256 _longitude,\r\n            uint256 _capacity,\r\n            uint256 _price\r\n        )\r\n    {\r\n        return (\r\n            coldStorages[_address].ownerName,\r\n            coldStorages[_address].latitude,\r\n            coldStorages[_address].longitude,\r\n            coldStorages[_address].capacity,\r\n            coldStorages[_address].price\r\n        );\r\n    }\r\n    \r\n    function getLocation(address _address) external view returns(int256, int256) {\r\n        return (coldStorages[_address].latitude, coldStorages[_address].longitude);\r\n    }\r\n    \r\n    function getColdStoragePrice(address _address) public view returns (uint256 _price) {\r\n        return coldStorages[_address].price;\r\n    }\r\n\r\n    function countColdStorages() public view returns (uint256) {\r\n        return coldStorageAddresses.length;\r\n    }\r\n\r\n    function requestColdStorage(address _address) public {\r\n        //owner can't buy their own storage\r\n        require(msg.sender != _address);\r\n\r\n        if (address(msg.sender).balance >= coldStorages[_address].price) {\r\n            coldStorages[_address].requests.push(address(msg.sender));\r\n        }\r\n    }\r\n\r\n    function removeRequest(address _address, address _addressColdStorage) public {\r\n        address[] storage reqs = coldStorages[_addressColdStorage].requests;\r\n\r\n        bool isPresent = false;\r\n        uint256 reqIndex = 0;\r\n        uint256 i;\r\n        \r\n        for (i = 0; i < reqs.length; i++) {\r\n            if (reqs[i] == _address) {\r\n                isPresent = true;\r\n                reqIndex = i;\r\n                break;\r\n            }\r\n        }\r\n\r\n        if (isPresent) {\r\n            for (i = reqIndex; i < reqs.length - 1; i++) {\r\n                reqs[i] = reqs[i + 1];\r\n            }\r\n\r\n            delete reqs[reqs.length - 1];\r\n            coldStorages[_addressColdStorage].requests = reqs;\r\n        } else \r\n        return;\r\n    }\r\n\r\n    function removeApprovedRequest(address _address, address _addressColdStorage) public {\r\n        address[] storage appReqs = coldStorages[_addressColdStorage].approvedRequests;\r\n\r\n        bool isPresent = false;\r\n        uint256 reqIndex = 0;\r\n        uint256 i;\r\n\r\n        for (i = 0; i < appReqs.length; i++) {\r\n            if (appReqs[i] == _address) {\r\n                isPresent = true;\r\n                reqIndex = i;\r\n                break;\r\n            }\r\n        }\r\n\r\n        if (isPresent) {\r\n            for (i = reqIndex; i < appReqs.length - 1; i++) {\r\n                appReqs[i] = appReqs[i + 1];\r\n            }\r\n\r\n            delete appReqs[appReqs.length - 1];\r\n            coldStorages[_addressColdStorage].approvedRequests = appReqs;\r\n        } else \r\n        return;\r\n    }\r\n\r\n    function approveColdStorage(address _addressColdStorage, address _address) public {\r\n        require(msg.sender == _addressColdStorage);\r\n\r\n        coldStorages[_addressColdStorage].approvedRequests.push(_address);\r\n        removeRequest(_address, _addressColdStorage);\r\n    }\r\n\r\n    function getApprovedRequests(address _address)\r\n        public\r\n        view\r\n        returns (address[] memory)\r\n    {\r\n        require(msg.sender == _address);\r\n\r\n        return coldStorages[_address].approvedRequests;\r\n    }\r\n\r\n    function rentColdStorage(address _address) public {\r\n        coldStorages[_address].tenants.push(msg.sender);\r\n        removeApprovedRequest(msg.sender, _address);\r\n    }\r\n\r\n    function getRentedStorages(address _address)\r\n        public\r\n        view\r\n        returns (address[] memory)\r\n    {\r\n        address[] memory rentedIDs = new address[](coldStorageAddresses.length);\r\n        uint256 pointer = 0;\r\n        \r\n        for (uint256 i = 0; i < coldStorageAddresses.length; i++) {\r\n            for (uint256 j = 0; j < coldStorages[coldStorageAddresses[i]].tenants.length; j++) {\r\n                if (coldStorages[coldStorageAddresses[i]].tenants[j] == _address) {\r\n                    rentedIDs[pointer++] = coldStorageAddresses[i];\r\n                    break;\r\n                }\r\n            }\r\n        }\r\n        return rentedIDs;\r\n    }\r\n\r\n    function getTenants(address _address) public view returns (address[] memory) {\r\n        require(msg.sender == _address);\r\n        return coldStorages[_address].tenants;\r\n    }\r\n\r\n    /*//function to add new item to cold storage\r\n    function addItem(\r\n        address _address,\r\n        string memory _itemName,\r\n        uint256 _quantity\r\n    ) public {\r\n        coldStorages[_address].items[_itemName] = _quantity;\r\n        coldStorages[_address].itemNames.push(_itemName);\r\n    }\r\n\r\n    //function to view items\r\n    function getItemNames(uint256 _id) public view returns (string[] memory) {\r\n        return coldStorages[_id].itemNames;\r\n    }\r\n\r\n    function getItemQuantites(uint256 _id, string memory _itemName)\r\n        public\r\n        view\r\n        returns (uint256)\r\n    {\r\n        return coldStorages[_id].items[_itemName];\r\n    }\r\n\r\n    //function to get quantities of items*/\r\n    \r\n    function getUnverifiedColdStorages() public onlyGovernmentOfficial view returns (address[] memory) {\r\n        return unverifiedColdStorages;\r\n    }\r\n    \r\n    function setEligible(address _address) public onlyGovernmentOfficial {\r\n        for (uint256 i = 0 ; i < unverifiedColdStorages.length ; i++) {\r\n            if (unverifiedColdStorages[i] == _address) {\r\n                unverifiedColdStorages[i] = unverifiedColdStorages[unverifiedColdStorages.length-1];\r\n                delete unverifiedColdStorages[unverifiedColdStorages.length-1];\r\n                coldStorages[_address].isEligible = true;\r\n                unverifiedColdStorages.length--;\r\n                rc.addRole(_address, rc.coldStorageRoleID());\r\n                break;\r\n            }\r\n        }\r\n    }\r\n}\r\n",
  "sourcePath": "D:\\7thSemester\\CS491\\smart_agriculture_react\\contracts\\ColdStorageContract.sol",
  "compiler": {
    "name": "solc",
    "version": "0.4.26+commit.4563c3fc.Emscripten.clang"
  },
  "schemaVersion": "3.4.3",
  "updatedAt": "2021-12-09T07:05:57.102Z",
  "networkType": "ethereum",
  "devdoc": {
    "methods": {}
  },
  "userdoc": {
    "methods": {}
  }
}