{
  "contractName": "ColdStorageContract",
  "abi": [
    {
      "constant": true,
      "inputs": [
        {
          "name": "",
          "type": "uint256"
        }
      ],
      "name": "unverifiedColdStorages",
      "outputs": [
        {
          "name": "",
          "type": "address"
        }
      ],
      "payable": false,
      "stateMutability": "view",
      "type": "function"
    },
    {
      "constant": true,
      "inputs": [],
      "name": "rc",
      "outputs": [
        {
          "name": "",
          "type": "address"
        }
      ],
      "payable": false,
      "stateMutability": "view",
      "type": "function"
    },
    {
      "constant": true,
      "inputs": [
        {
          "name": "",
          "type": "address"
        }
      ],
      "name": "coldStorages",
      "outputs": [
        {
          "name": "ownerName",
          "type": "string"
        },
        {
          "name": "latitude",
          "type": "int256"
        },
        {
          "name": "longitude",
          "type": "int256"
        },
        {
          "name": "capacity",
          "type": "uint256"
        },
        {
          "name": "price",
          "type": "uint256"
        },
        {
          "name": "isEligible",
          "type": "bool"
        }
      ],
      "payable": false,
      "stateMutability": "view",
      "type": "function"
    },
    {
      "constant": true,
      "inputs": [
        {
          "name": "",
          "type": "uint256"
        }
      ],
      "name": "coldStorageAddresses",
      "outputs": [
        {
          "name": "",
          "type": "address"
        }
      ],
      "payable": false,
      "stateMutability": "view",
      "type": "function"
    },
    {
      "inputs": [
        {
          "name": "_address",
          "type": "address"
        }
      ],
      "payable": false,
      "stateMutability": "nonpayable",
      "type": "constructor"
    },
    {
      "constant": false,
      "inputs": [
        {
          "name": "_ownerName",
          "type": "string"
        },
        {
          "name": "_latitude",
          "type": "int256"
        },
        {
          "name": "_longitude",
          "type": "int256"
        },
        {
          "name": "_capacity",
          "type": "uint256"
        },
        {
          "name": "_price",
          "type": "uint256"
        }
      ],
      "name": "addColdStorage",
      "outputs": [],
      "payable": false,
      "stateMutability": "nonpayable",
      "type": "function"
    },
    {
      "constant": true,
      "inputs": [],
      "name": "getColdStorages",
      "outputs": [
        {
          "name": "",
          "type": "address[]"
        }
      ],
      "payable": false,
      "stateMutability": "view",
      "type": "function"
    },
    {
      "constant": true,
      "inputs": [
        {
          "name": "_address",
          "type": "address"
        }
      ],
      "name": "getRequests",
      "outputs": [
        {
          "name": "",
          "type": "address[]"
        }
      ],
      "payable": false,
      "stateMutability": "view",
      "type": "function"
    },
    {
      "constant": true,
      "inputs": [
        {
          "name": "_address",
          "type": "address"
        }
      ],
      "name": "getAllCSrequestedByAddress",
      "outputs": [
        {
          "name": "",
          "type": "address[]"
        }
      ],
      "payable": false,
      "stateMutability": "view",
      "type": "function"
    },
    {
      "constant": true,
      "inputs": [
        {
          "name": "_address",
          "type": "address"
        }
      ],
      "name": "getAllCSapprovedForAddress",
      "outputs": [
        {
          "name": "",
          "type": "address[]"
        }
      ],
      "payable": false,
      "stateMutability": "view",
      "type": "function"
    },
    {
      "constant": true,
      "inputs": [
        {
          "name": "_address",
          "type": "address"
        }
      ],
      "name": "getColdStorage",
      "outputs": [
        {
          "name": "_ownerName",
          "type": "string"
        },
        {
          "name": "_latitude",
          "type": "int256"
        },
        {
          "name": "_longitude",
          "type": "int256"
        },
        {
          "name": "_capacity",
          "type": "uint256"
        },
        {
          "name": "_price",
          "type": "uint256"
        }
      ],
      "payable": false,
      "stateMutability": "view",
      "type": "function"
    },
    {
      "constant": true,
      "inputs": [
        {
          "name": "_address",
          "type": "address"
        }
      ],
      "name": "getLocation",
      "outputs": [
        {
          "name": "",
          "type": "int256"
        },
        {
          "name": "",
          "type": "int256"
        }
      ],
      "payable": false,
      "stateMutability": "view",
      "type": "function"
    },
    {
      "constant": true,
      "inputs": [
        {
          "name": "_address",
          "type": "address"
        }
      ],
      "name": "getColdStoragePrice",
      "outputs": [
        {
          "name": "_price",
          "type": "uint256"
        }
      ],
      "payable": false,
      "stateMutability": "view",
      "type": "function"
    },
    {
      "constant": true,
      "inputs": [],
      "name": "countColdStorages",
      "outputs": [
        {
          "name": "",
          "type": "uint256"
        }
      ],
      "payable": false,
      "stateMutability": "view",
      "type": "function"
    },
    {
      "constant": false,
      "inputs": [
        {
          "name": "_address",
          "type": "address"
        }
      ],
      "name": "requestColdStorage",
      "outputs": [],
      "payable": false,
      "stateMutability": "nonpayable",
      "type": "function"
    },
    {
      "constant": false,
      "inputs": [
        {
          "name": "_address",
          "type": "address"
        },
        {
          "name": "_addressColdStorage",
          "type": "address"
        }
      ],
      "name": "removeRequest",
      "outputs": [],
      "payable": false,
      "stateMutability": "nonpayable",
      "type": "function"
    },
    {
      "constant": false,
      "inputs": [
        {
          "name": "_address",
          "type": "address"
        },
        {
          "name": "_addressColdStorage",
          "type": "address"
        }
      ],
      "name": "removeApprovedRequest",
      "outputs": [],
      "payable": false,
      "stateMutability": "nonpayable",
      "type": "function"
    },
    {
      "constant": false,
      "inputs": [
        {
          "name": "_addressColdStorage",
          "type": "address"
        },
        {
          "name": "_address",
          "type": "address"
        }
      ],
      "name": "approveColdStorage",
      "outputs": [],
      "payable": false,
      "stateMutability": "nonpayable",
      "type": "function"
    },
    {
      "constant": true,
      "inputs": [
        {
          "name": "_address",
          "type": "address"
        }
      ],
      "name": "getApprovedRequests",
      "outputs": [
        {
          "name": "",
          "type": "address[]"
        }
      ],
      "payable": false,
      "stateMutability": "view",
      "type": "function"
    },
    {
      "constant": false,
      "inputs": [
        {
          "name": "_address",
          "type": "address"
        }
      ],
      "name": "rentColdStorage",
      "outputs": [],
      "payable": false,
      "stateMutability": "nonpayable",
      "type": "function"
    },
    {
      "constant": true,
      "inputs": [
        {
          "name": "_address",
          "type": "address"
        }
      ],
      "name": "getRentedStorages",
      "outputs": [
        {
          "name": "",
          "type": "address[]"
        }
      ],
      "payable": false,
      "stateMutability": "view",
      "type": "function"
    },
    {
      "constant": true,
      "inputs": [
        {
          "name": "_address",
          "type": "address"
        }
      ],
      "name": "getTenants",
      "outputs": [
        {
          "name": "",
          "type": "address[]"
        }
      ],
      "payable": false,
      "stateMutability": "view",
      "type": "function"
    },
    {
      "constant": true,
      "inputs": [],
      "name": "getUnverifiedColdStorages",
      "outputs": [
        {
          "name": "",
          "type": "address[]"
        }
      ],
      "payable": false,
      "stateMutability": "view",
      "type": "function"
    },
    {
      "constant": true,
      "inputs": [],
      "name": "getNumUnverifiedColdStorages",
      "outputs": [
        {
          "name": "",
          "type": "uint256"
        }
      ],
      "payable": false,
      "stateMutability": "view",
      "type": "function"
    },
    {
      "constant": true,
      "inputs": [
        {
          "name": "pos",
          "type": "uint256"
        }
      ],
      "name": "getUnverifiedColdStorage",
      "outputs": [
        {
          "name": "",
          "type": "address"
        }
      ],
      "payable": false,
      "stateMutability": "view",
      "type": "function"
    },
    {
      "constant": false,
      "inputs": [
        {
          "name": "_address",
          "type": "address"
        }
      ],
      "name": "setEligible",
      "outputs": [],
      "payable": false,
      "stateMutability": "nonpayable",
      "type": "function"
    }
  ],
  "bytecode": "0x60806040523480156200001157600080fd5b506040516020806200331b833981018060405262000033919081019062000090565b806000806101000a81548173ffffffffffffffffffffffffffffffffffffffff021916908373ffffffffffffffffffffffffffffffffffffffff16021790555050620000dc565b6000620000888251620000bc565b905092915050565b600060208284031215620000a357600080fd5b6000620000b3848285016200007a565b91505092915050565b600073ffffffffffffffffffffffffffffffffffffffff82169050919050565b61322f80620000ec6000396000f300608060405260043610610148576000357c0100000000000000000000000000000000000000000000000000000000900463ffffffff1680621282761461014d578063051e25ac146101785780630b411f44146101b557806311619c94146101f257806312f773321461021d5780631bf1589814610248578063517aea2a14610273578063550966a6146102b05780635839cb35146102ed578063782cbf5f146103165780637d3845cc1461033f578063804e44f31461037c5780639409248b146103b957806398c18f2f146103e2578063a0a38e1f14610424578063ba778bf914610461578063c3a319051461049e578063d0940354146104c7578063d9e0dc5914610508578063de7ff32514610546578063e22dbe8814610583578063e476f9f5146105c0578063f904cf04146105e9578063fe8806f514610612578063fef7fa6a1461063b575b600080fd5b34801561015957600080fd5b50610162610666565b60405161016f9190612f25565b60405180910390f35b34801561018457600080fd5b5061019f600480360361019a9190810190612d20565b6106f4565b6040516101ac9190612ee1565b60405180910390f35b3480156101c157600080fd5b506101dc60048036036101d79190810190612c2c565b610732565b6040516101e99190612f25565b60405180910390f35b3480156101fe57600080fd5b506102076109ad565b604051610214919061306d565b60405180910390f35b34801561022957600080fd5b506102326109ba565b60405161023f9190612f47565b60405180910390f35b34801561025457600080fd5b5061025d6109df565b60405161026a919061306d565b60405180910390f35b34801561027f57600080fd5b5061029a60048036036102959190810190612c2c565b610bb3565b6040516102a79190612f25565b60405180910390f35b3480156102bc57600080fd5b506102d760048036036102d29190810190612d20565b610cbd565b6040516102e49190612ee1565b60405180910390f35b3480156102f957600080fd5b50610314600480360361030f9190810190612c55565b610ec7565b005b34801561032257600080fd5b5061033d60048036036103389190810190612c2c565b61110e565b005b34801561034b57600080fd5b5061036660048036036103619190810190612c2c565b611255565b6040516103739190612f25565b60405180910390f35b34801561038857600080fd5b506103a3600480360361039e9190810190612c2c565b61135f565b6040516103b09190612f25565b60405180910390f35b3480156103c557600080fd5b506103e060048036036103db9190810190612c91565b611469565b005b3480156103ee57600080fd5b5061040960048036036104049190810190612c2c565b611574565b60405161041b96959493929190612fe5565b60405180910390f35b34801561043057600080fd5b5061044b60048036036104469190810190612d20565b611655565b6040516104589190612ee1565b60405180910390f35b34801561046d57600080fd5b5061048860048036036104839190810190612c2c565b611693565b604051610495919061306d565b60405180910390f35b3480156104aa57600080fd5b506104c560048036036104c09190810190612c2c565b6116df565b005b3480156104d357600080fd5b506104ee60048036036104e99190810190612c2c565b611792565b6040516104ff959493929190612f8b565b60405180910390f35b34801561051457600080fd5b5061052f600480360361052a9190810190612c2c565b611997565b60405161053d929190612f62565b60405180910390f35b34801561055257600080fd5b5061056d60048036036105689190810190612c2c565b611a29565b60405161057a9190612f25565b60405180910390f35b34801561058f57600080fd5b506105aa60048036036105a59190810190612c2c565b611ca4565b6040516105b79190612f25565b60405180910390f35b3480156105cc57600080fd5b506105e760048036036105e29190810190612c55565b611f1f565b005b3480156105f557600080fd5b50610610600480360361060b9190810190612c2c565b61200d565b005b34801561061e57600080fd5b5061063960048036036106349190810190612c55565b612584565b005b34801561064757600080fd5b506106506127cb565b60405161065d9190612f25565b60405180910390f35b606060028054806020026020016040519081016040528092919081815260200182805480156106ea57602002820191906000526020600020905b8160009054906101000a900473ffffffffffffffffffffffffffffffffffffffff1673ffffffffffffffffffffffffffffffffffffffff16815260200190600101908083116106a0575b5050505050905090565b60038181548110151561070357fe5b906000526020600020016000915054906101000a900473ffffffffffffffffffffffffffffffffffffffff1681565b606080600080600060028054905060405190808252806020026020018201604052801561076e5781602001602082028038833980820191505090505b50935060009250600091505b6002805490508210156109a157600090505b6001600060028481548110151561079f57fe5b9060005260206000200160009054906101000a900473ffffffffffffffffffffffffffffffffffffffff1673ffffffffffffffffffffffffffffffffffffffff1673ffffffffffffffffffffffffffffffffffffffff16815260200190815260200160002060070180549050811015610994578573ffffffffffffffffffffffffffffffffffffffff166001600060028581548110151561083c57fe5b9060005260206000200160009054906101000a900473ffffffffffffffffffffffffffffffffffffffff1673ffffffffffffffffffffffffffffffffffffffff1673ffffffffffffffffffffffffffffffffffffffff168152602001908152602001600020600701828154811015156108b157fe5b9060005260206000200160009054906101000a900473ffffffffffffffffffffffffffffffffffffffff1673ffffffffffffffffffffffffffffffffffffffff1614156109875760028281548110151561090757fe5b9060005260206000200160009054906101000a900473ffffffffffffffffffffffffffffffffffffffff16848480600101955081518110151561094657fe5b9060200190602002019073ffffffffffffffffffffffffffffffffffffffff16908173ffffffffffffffffffffffffffffffffffffffff1681525050610994565b808060010191505061078c565b818060010192505061077a565b83945050505050919050565b6000600280549050905090565b6000809054906101000a900473ffffffffffffffffffffffffffffffffffffffff1681565b60008060009054906101000a900473ffffffffffffffffffffffffffffffffffffffff1673ffffffffffffffffffffffffffffffffffffffff166346fb5b9c6040518163ffffffff167c0100000000000000000000000000000000000000000000000000000000028152600401602060405180830381600087803b158015610a6657600080fd5b505af1158015610a7a573d6000803e3d6000fd5b505050506040513d601f19601f82011682018060405250610a9e9190810190612d49565b6000809054906101000a900473ffffffffffffffffffffffffffffffffffffffff1673ffffffffffffffffffffffffffffffffffffffff166344276733326040518263ffffffff167c0100000000000000000000000000000000000000000000000000000000028152600401610b149190612ee1565b602060405180830381600087803b158015610b2e57600080fd5b505af1158015610b42573d6000803e3d6000fd5b505050506040513d601f19601f82011682018060405250610b669190810190612d49565b141515610ba8576040517f08c379a0000000000000000000000000000000000000000000000000000000008152600401610b9f9061304d565b60405180910390fd5b600380549050905090565b60608173ffffffffffffffffffffffffffffffffffffffff163373ffffffffffffffffffffffffffffffffffffffff16141515610bef57600080fd5b600160008373ffffffffffffffffffffffffffffffffffffffff1673ffffffffffffffffffffffffffffffffffffffff168152602001908152602001600020600701805480602002602001604051908101604052809291908181526020018280548015610cb157602002820191906000526020600020905b8160009054906101000a900473ffffffffffffffffffffffffffffffffffffffff1673ffffffffffffffffffffffffffffffffffffffff1681526020019060010190808311610c67575b50505050509050919050565b60008060009054906101000a900473ffffffffffffffffffffffffffffffffffffffff1673ffffffffffffffffffffffffffffffffffffffff166346fb5b9c6040518163ffffffff167c0100000000000000000000000000000000000000000000000000000000028152600401602060405180830381600087803b158015610d4457600080fd5b505af1158015610d58573d6000803e3d6000fd5b505050506040513d601f19601f82011682018060405250610d7c9190810190612d49565b6000809054906101000a900473ffffffffffffffffffffffffffffffffffffffff1673ffffffffffffffffffffffffffffffffffffffff166344276733326040518263ffffffff167c0100000000000000000000000000000000000000000000000000000000028152600401610df29190612ee1565b602060405180830381600087803b158015610e0c57600080fd5b505af1158015610e20573d6000803e3d6000fd5b505050506040513d601f19601f82011682018060405250610e449190810190612d49565b141515610e86576040517f08c379a0000000000000000000000000000000000000000000000000000000008152600401610e7d9061304d565b60405180910390fd5b600382815481101515610e9557fe5b9060005260206000200160009054906101000a900473ffffffffffffffffffffffffffffffffffffffff169050919050565b600080600080600160008673ffffffffffffffffffffffffffffffffffffffff1673ffffffffffffffffffffffffffffffffffffffff16815260200190815260200160002060070193506000925060009150600090505b8380549050811015610faf578573ffffffffffffffffffffffffffffffffffffffff168482815481101515610f4f57fe5b9060005260206000200160009054906101000a900473ffffffffffffffffffffffffffffffffffffffff1673ffffffffffffffffffffffffffffffffffffffff161415610fa25760019250809150610faf565b8080600101915050610f1e565b8215611100578190505b6001848054905003811015611067578360018201815481101515610fd957fe5b9060005260206000200160009054906101000a900473ffffffffffffffffffffffffffffffffffffffff16848281548110151561101257fe5b9060005260206000200160006101000a81548173ffffffffffffffffffffffffffffffffffffffff021916908373ffffffffffffffffffffffffffffffffffffffff1602179055508080600101915050610fb9565b83600185805490500381548110151561107c57fe5b9060005260206000200160006101000a81549073ffffffffffffffffffffffffffffffffffffffff021916905583600160008773ffffffffffffffffffffffffffffffffffffffff1673ffffffffffffffffffffffffffffffffffffffff1681526020019081526020016000206007019080546110fa929190612a20565b50611105565b611106565b5b505050505050565b8073ffffffffffffffffffffffffffffffffffffffff163373ffffffffffffffffffffffffffffffffffffffff161415151561114957600080fd5b600160008273ffffffffffffffffffffffffffffffffffffffff1673ffffffffffffffffffffffffffffffffffffffff168152602001908152602001600020600401543373ffffffffffffffffffffffffffffffffffffffff163110151561125257600160008273ffffffffffffffffffffffffffffffffffffffff1673ffffffffffffffffffffffffffffffffffffffff1681526020019081526020016000206006013390806001815401808255809150509060018203906000526020600020016000909192909190916101000a81548173ffffffffffffffffffffffffffffffffffffffff021916908373ffffffffffffffffffffffffffffffffffffffff160217905550505b50565b60608173ffffffffffffffffffffffffffffffffffffffff163373ffffffffffffffffffffffffffffffffffffffff1614151561129157600080fd5b600160008373ffffffffffffffffffffffffffffffffffffffff1673ffffffffffffffffffffffffffffffffffffffff16815260200190815260200160002060080180548060200260200160405190810160405280929190818152602001828054801561135357602002820191906000526020600020905b8160009054906101000a900473ffffffffffffffffffffffffffffffffffffffff1673ffffffffffffffffffffffffffffffffffffffff1681526020019060010190808311611309575b50505050509050919050565b60608173ffffffffffffffffffffffffffffffffffffffff163373ffffffffffffffffffffffffffffffffffffffff1614151561139b57600080fd5b600160008373ffffffffffffffffffffffffffffffffffffffff1673ffffffffffffffffffffffffffffffffffffffff16815260200190815260200160002060060180548060200260200160405190810160405280929190818152602001828054801561145d57602002820191906000526020600020905b8160009054906101000a900473ffffffffffffffffffffffffffffffffffffffff1673ffffffffffffffffffffffffffffffffffffffff1681526020019060010190808311611413575b50505050509050919050565b6000600160003273ffffffffffffffffffffffffffffffffffffffff1673ffffffffffffffffffffffffffffffffffffffff1681526020019081526020016000209050858160000190805190602001906114c4929190612a72565b5084816001018190555083816002018190555082816003018190555081816004018190555060008160050160006101000a81548160ff02191690831515021790555060033290806001815401808255809150509060018203906000526020600020016000909192909190916101000a81548173ffffffffffffffffffffffffffffffffffffffff021916908373ffffffffffffffffffffffffffffffffffffffff16021790555050505050505050565b6001602052806000526040600020600091509050806000018054600181600116156101000203166002900480601f0160208091040260200160405190810160405280929190818152602001828054600181600116156101000203166002900480156116205780601f106115f557610100808354040283529160200191611620565b820191906000526020600020905b81548152906001019060200180831161160357829003601f168201915b5050505050908060010154908060020154908060030154908060040154908060050160009054906101000a900460ff16905086565b60028181548110151561166457fe5b906000526020600020016000915054906101000a900473ffffffffffffffffffffffffffffffffffffffff1681565b6000600160008373ffffffffffffffffffffffffffffffffffffffff1673ffffffffffffffffffffffffffffffffffffffff168152602001908152602001600020600401549050919050565b600160008273ffffffffffffffffffffffffffffffffffffffff1673ffffffffffffffffffffffffffffffffffffffff1681526020019081526020016000206008013390806001815401808255809150509060018203906000526020600020016000909192909190916101000a81548173ffffffffffffffffffffffffffffffffffffffff021916908373ffffffffffffffffffffffffffffffffffffffff1602179055505061178f3382610ec7565b50565b6060600080600080600160008773ffffffffffffffffffffffffffffffffffffffff1673ffffffffffffffffffffffffffffffffffffffff168152602001908152602001600020600001600160008873ffffffffffffffffffffffffffffffffffffffff1673ffffffffffffffffffffffffffffffffffffffff16815260200190815260200160002060010154600160008973ffffffffffffffffffffffffffffffffffffffff1673ffffffffffffffffffffffffffffffffffffffff16815260200190815260200160002060020154600160008a73ffffffffffffffffffffffffffffffffffffffff1673ffffffffffffffffffffffffffffffffffffffff16815260200190815260200160002060030154600160008b73ffffffffffffffffffffffffffffffffffffffff1673ffffffffffffffffffffffffffffffffffffffff16815260200190815260200160002060040154848054600181600116156101000203166002900480601f01602080910402602001604051908101604052809291908181526020018280546001816001161561010002031660029004801561197d5780601f106119525761010080835404028352916020019161197d565b820191906000526020600020905b81548152906001019060200180831161196057829003601f168201915b505050505094509450945094509450945091939590929450565b600080600160008473ffffffffffffffffffffffffffffffffffffffff1673ffffffffffffffffffffffffffffffffffffffff16815260200190815260200160002060010154600160008573ffffffffffffffffffffffffffffffffffffffff1673ffffffffffffffffffffffffffffffffffffffff1681526020019081526020016000206002015491509150915091565b6060806000806000600280549050604051908082528060200260200182016040528015611a655781602001602082028038833980820191505090505b50935060009250600091505b600280549050821015611c9857600090505b60016000600284815481101515611a9657fe5b9060005260206000200160009054906101000a900473ffffffffffffffffffffffffffffffffffffffff1673ffffffffffffffffffffffffffffffffffffffff1673ffffffffffffffffffffffffffffffffffffffff16815260200190815260200160002060060180549050811015611c8b578573ffffffffffffffffffffffffffffffffffffffff1660016000600285815481101515611b3357fe5b9060005260206000200160009054906101000a900473ffffffffffffffffffffffffffffffffffffffff1673ffffffffffffffffffffffffffffffffffffffff1673ffffffffffffffffffffffffffffffffffffffff16815260200190815260200160002060060182815481101515611ba857fe5b9060005260206000200160009054906101000a900473ffffffffffffffffffffffffffffffffffffffff1673ffffffffffffffffffffffffffffffffffffffff161415611c7e57600282815481101515611bfe57fe5b9060005260206000200160009054906101000a900473ffffffffffffffffffffffffffffffffffffffff168484806001019550815181101515611c3d57fe5b9060200190602002019073ffffffffffffffffffffffffffffffffffffffff16908173ffffffffffffffffffffffffffffffffffffffff1681525050611c8b565b8080600101915050611a83565b8180600101925050611a71565b83945050505050919050565b6060806000806000600280549050604051908082528060200260200182016040528015611ce05781602001602082028038833980820191505090505b50935060009250600091505b600280549050821015611f1357600090505b60016000600284815481101515611d1157fe5b9060005260206000200160009054906101000a900473ffffffffffffffffffffffffffffffffffffffff1673ffffffffffffffffffffffffffffffffffffffff1673ffffffffffffffffffffffffffffffffffffffff16815260200190815260200160002060080180549050811015611f06578573ffffffffffffffffffffffffffffffffffffffff1660016000600285815481101515611dae57fe5b9060005260206000200160009054906101000a900473ffffffffffffffffffffffffffffffffffffffff1673ffffffffffffffffffffffffffffffffffffffff1673ffffffffffffffffffffffffffffffffffffffff16815260200190815260200160002060080182815481101515611e2357fe5b9060005260206000200160009054906101000a900473ffffffffffffffffffffffffffffffffffffffff1673ffffffffffffffffffffffffffffffffffffffff161415611ef957600282815481101515611e7957fe5b9060005260206000200160009054906101000a900473ffffffffffffffffffffffffffffffffffffffff168484806001019550815181101515611eb857fe5b9060200190602002019073ffffffffffffffffffffffffffffffffffffffff16908173ffffffffffffffffffffffffffffffffffffffff1681525050611f06565b8080600101915050611cfe565b8180600101925050611cec565b83945050505050919050565b8173ffffffffffffffffffffffffffffffffffffffff163373ffffffffffffffffffffffffffffffffffffffff16141515611f5957600080fd5b600160008373ffffffffffffffffffffffffffffffffffffffff1673ffffffffffffffffffffffffffffffffffffffff1681526020019081526020016000206007018190806001815401808255809150509060018203906000526020600020016000909192909190916101000a81548173ffffffffffffffffffffffffffffffffffffffff021916908373ffffffffffffffffffffffffffffffffffffffff160217905550506120098183612584565b5050565b60008060009054906101000a900473ffffffffffffffffffffffffffffffffffffffff1673ffffffffffffffffffffffffffffffffffffffff166346fb5b9c6040518163ffffffff167c0100000000000000000000000000000000000000000000000000000000028152600401602060405180830381600087803b15801561209457600080fd5b505af11580156120a8573d6000803e3d6000fd5b505050506040513d601f19601f820116820180604052506120cc9190810190612d49565b6000809054906101000a900473ffffffffffffffffffffffffffffffffffffffff1673ffffffffffffffffffffffffffffffffffffffff166344276733326040518263ffffffff167c01000000000000000000000000000000000000000000000000000000000281526004016121429190612ee1565b602060405180830381600087803b15801561215c57600080fd5b505af1158015612170573d6000803e3d6000fd5b505050506040513d601f19601f820116820180604052506121949190810190612d49565b1415156121d6576040517f08c379a00000000000000000000000000000000000000000000000000000000081526004016121cd9061304d565b60405180910390fd5b600090505b600380549050811015612580578173ffffffffffffffffffffffffffffffffffffffff1660038281548110151561220e57fe5b9060005260206000200160009054906101000a900473ffffffffffffffffffffffffffffffffffffffff1673ffffffffffffffffffffffffffffffffffffffff16141561257357600360016003805490500381548110151561226c57fe5b9060005260206000200160009054906101000a900473ffffffffffffffffffffffffffffffffffffffff166003828154811015156122a657fe5b9060005260206000200160006101000a81548173ffffffffffffffffffffffffffffffffffffffff021916908373ffffffffffffffffffffffffffffffffffffffff160217905550600360016003805490500381548110151561230557fe5b9060005260206000200160006101000a81549073ffffffffffffffffffffffffffffffffffffffff021916905560018060008473ffffffffffffffffffffffffffffffffffffffff1673ffffffffffffffffffffffffffffffffffffffff16815260200190815260200160002060050160006101000a81548160ff02191690831515021790555060038054809190600190036123a19190612af2565b5060028290806001815401808255809150509060018203906000526020600020016000909192909190916101000a81548173ffffffffffffffffffffffffffffffffffffffff021916908373ffffffffffffffffffffffffffffffffffffffff160217905550506000809054906101000a900473ffffffffffffffffffffffffffffffffffffffff1673ffffffffffffffffffffffffffffffffffffffff16637fde1c8a836000809054906101000a900473ffffffffffffffffffffffffffffffffffffffff1673ffffffffffffffffffffffffffffffffffffffff1663bf4fd3696040518163ffffffff167c0100000000000000000000000000000000000000000000000000000000028152600401602060405180830381600087803b1580156124cb57600080fd5b505af11580156124df573d6000803e3d6000fd5b505050506040513d601f19601f820116820180604052506125039190810190612d49565b6040518363ffffffff167c010000000000000000000000000000000000000000000000000000000002815260040161253c929190612efc565b600060405180830381600087803b15801561255657600080fd5b505af115801561256a573d6000803e3d6000fd5b50505050612580565b80806001019150506121db565b5050565b600080600080600160008673ffffffffffffffffffffffffffffffffffffffff1673ffffffffffffffffffffffffffffffffffffffff16815260200190815260200160002060060193506000925060009150600090505b838054905081101561266c578573ffffffffffffffffffffffffffffffffffffffff16848281548110151561260c57fe5b9060005260206000200160009054906101000a900473ffffffffffffffffffffffffffffffffffffffff1673ffffffffffffffffffffffffffffffffffffffff16141561265f576001925080915061266c565b80806001019150506125db565b82156127bd578190505b600184805490500381101561272457836001820181548110151561269657fe5b9060005260206000200160009054906101000a900473ffffffffffffffffffffffffffffffffffffffff1684828154811015156126cf57fe5b9060005260206000200160006101000a81548173ffffffffffffffffffffffffffffffffffffffff021916908373ffffffffffffffffffffffffffffffffffffffff1602179055508080600101915050612676565b83600185805490500381548110151561273957fe5b9060005260206000200160006101000a81549073ffffffffffffffffffffffffffffffffffffffff021916905583600160008773ffffffffffffffffffffffffffffffffffffffff1673ffffffffffffffffffffffffffffffffffffffff1681526020019081526020016000206006019080546127b7929190612a20565b506127c2565b6127c3565b5b505050505050565b60606000809054906101000a900473ffffffffffffffffffffffffffffffffffffffff1673ffffffffffffffffffffffffffffffffffffffff166346fb5b9c6040518163ffffffff167c0100000000000000000000000000000000000000000000000000000000028152600401602060405180830381600087803b15801561285257600080fd5b505af1158015612866573d6000803e3d6000fd5b505050506040513d601f19601f8201168201806040525061288a9190810190612d49565b6000809054906101000a900473ffffffffffffffffffffffffffffffffffffffff1673ffffffffffffffffffffffffffffffffffffffff166344276733326040518263ffffffff167c01000000000000000000000000000000000000000000000000000000000281526004016129009190612ee1565b602060405180830381600087803b15801561291a57600080fd5b505af115801561292e573d6000803e3d6000fd5b505050506040513d601f19601f820116820180604052506129529190810190612d49565b141515612994576040517f08c379a000000000000000000000000000000000000000000000000000000000815260040161298b9061304d565b60405180910390fd5b6003805480602002602001604051908101604052809291908181526020018280548015612a1657602002820191906000526020600020905b8160009054906101000a900473ffffffffffffffffffffffffffffffffffffffff1673ffffffffffffffffffffffffffffffffffffffff16815260200190600101908083116129cc575b5050505050905090565b828054828255906000526020600020908101928215612a615760005260206000209182015b82811115612a60578254825591600101919060010190612a45565b5b509050612a6e9190612b1e565b5090565b828054600181600116156101000203166002900490600052602060002090601f016020900481019282601f10612ab357805160ff1916838001178555612ae1565b82800160010185558215612ae1579182015b82811115612ae0578251825591602001919060010190612ac5565b5b509050612aee9190612b61565b5090565b815481835581811115612b1957818360005260206000209182019101612b189190612b61565b5b505050565b612b5e91905b80821115612b5a57600081816101000a81549073ffffffffffffffffffffffffffffffffffffffff021916905550600101612b24565b5090565b90565b612b8391905b80821115612b7f576000816000905550600101612b67565b5090565b90565b6000612b92823561315c565b905092915050565b6000612ba6823561317c565b905092915050565b600082601f8301121515612bc157600080fd5b8135612bd4612bcf826130b5565b613088565b91508082526020830160208301858383011115612bf057600080fd5b612bfb8382846131a2565b50505092915050565b6000612c108235613186565b905092915050565b6000612c248251613186565b905092915050565b600060208284031215612c3e57600080fd5b6000612c4c84828501612b86565b91505092915050565b60008060408385031215612c6857600080fd5b6000612c7685828601612b86565b9250506020612c8785828601612b86565b9150509250929050565b600080600080600060a08688031215612ca957600080fd5b600086013567ffffffffffffffff811115612cc357600080fd5b612ccf88828901612bae565b9550506020612ce088828901612b9a565b9450506040612cf188828901612b9a565b9350506060612d0288828901612c04565b9250506080612d1388828901612c04565b9150509295509295909350565b600060208284031215612d3257600080fd5b6000612d4084828501612c04565b91505092915050565b600060208284031215612d5b57600080fd5b6000612d6984828501612c18565b91505092915050565b612d7b8161311c565b82525050565b6000612d8c826130ee565b808452602084019350612d9e836130e1565b60005b82811015612dd057612db4868351612d72565b612dbd8261310f565b9150602086019550600181019050612da1565b50849250505092915050565b612de58161313c565b82525050565b612df481613190565b82525050565b612e0381613148565b82525050565b6000612e1482613104565b808452612e288160208601602086016131b1565b612e31816131e4565b602085010191505092915050565b6000612e4a826130f9565b808452612e5e8160208601602086016131b1565b612e67816131e4565b602085010191505092915050565b6000602482527f4f6e6c7920676f7665726e6d656e74206f6666696369616c732063616e20616360208301527f63657373000000000000000000000000000000000000000000000000000000006040830152606082019050919050565b612edb81613152565b82525050565b6000602082019050612ef66000830184612d72565b92915050565b6000604082019050612f116000830185612d72565b612f1e6020830184612ed2565b9392505050565b60006020820190508181036000830152612f3f8184612d81565b905092915050565b6000602082019050612f5c6000830184612deb565b92915050565b6000604082019050612f776000830185612dfa565b612f846020830184612dfa565b9392505050565b600060a0820190508181036000830152612fa58188612e09565b9050612fb46020830187612dfa565b612fc16040830186612dfa565b612fce6060830185612ed2565b612fdb6080830184612ed2565b9695505050505050565b600060c0820190508181036000830152612fff8189612e3f565b905061300e6020830188612dfa565b61301b6040830187612dfa565b6130286060830186612ed2565b6130356080830185612ed2565b61304260a0830184612ddc565b979650505050505050565b6000602082019050818103600083015261306681612e75565b9050919050565b60006020820190506130826000830184612ed2565b92915050565b6000604051905081810181811067ffffffffffffffff821117156130ab57600080fd5b8060405250919050565b600067ffffffffffffffff8211156130cc57600080fd5b601f19601f8301169050602081019050919050565b6000602082019050919050565b600081519050919050565b600081519050919050565b600081519050919050565b6000602082019050919050565b600073ffffffffffffffffffffffffffffffffffffffff82169050919050565b60008115159050919050565b6000819050919050565b6000819050919050565b600073ffffffffffffffffffffffffffffffffffffffff82169050919050565b6000819050919050565b6000819050919050565b600061319b8261311c565b9050919050565b82818337600083830152505050565b60005b838110156131cf5780820151818401526020810190506131b4565b838111156131de576000848401525b50505050565b6000601f19601f83011690509190505600a265627a7a72305820b966f2b7f4b411efc2884f3f8d9a7ad04800657a50c8a35aebc6767fcf5080b56c6578706572696d656e74616cf50037",
  "source": "// SPDX-License-Identifier: GPL-3.0\r\npragma solidity ^0.4.22;\r\npragma experimental ABIEncoderV2;\r\n\r\nimport \"./Roles.sol\";\r\n\r\ncontract ColdStorageContract {\r\n    Roles public rc;\r\n    \r\n    constructor(address _address) public {\r\n        rc = Roles(_address);\r\n    }\r\n    \r\n    struct ColdStorage {\r\n        string ownerName;\r\n        int256 latitude;\r\n        int256 longitude;\r\n        uint256 capacity;\r\n        uint256 price;\r\n        bool isEligible;\r\n        address[] requests;\r\n        address[] approvedRequests;\r\n        address[] tenants;\r\n    }\r\n\r\n    mapping(address => ColdStorage) public coldStorages;\r\n    address[] public coldStorageAddresses;\r\n    address[] public unverifiedColdStorages;\r\n\r\n     modifier onlyGovernmentOfficial() {\r\n        require(rc.getRole(tx.origin) == rc.governmentID(), \"Only government officials can access\");\r\n        _;\r\n    }\r\n\r\n    function addColdStorage(\r\n        string memory _ownerName,\r\n        int256 _latitude,\r\n        int256 _longitude,\r\n        uint256 _capacity,\r\n        uint256 _price\r\n    ) public {\r\n        ColdStorage storage coldStorage = coldStorages[tx.origin];\r\n        coldStorage.ownerName = _ownerName;\r\n        coldStorage.latitude = _latitude;\r\n        coldStorage.longitude = _longitude;\r\n        coldStorage.capacity = _capacity;\r\n        coldStorage.price = _price;\r\n        coldStorage.isEligible = false;\r\n        \r\n        unverifiedColdStorages.push(tx.origin);\r\n    }\r\n\r\n    function getColdStorages() public view returns (address[] memory) {\r\n        return coldStorageAddresses;\r\n    }\r\n\r\n    function getRequests(address _address) public view returns (address[] memory) {\r\n        require(msg.sender == _address);\r\n\r\n        return coldStorages[_address].requests;\r\n    }\r\n\r\n    function getAllCSrequestedByAddress(address _address)\r\n        public\r\n        view\r\n        returns (address[] memory)\r\n    {\r\n        address[] memory CSIDs = new address[](coldStorageAddresses.length);\r\n        uint256 pointer = 0;\r\n        \r\n        //loop to traverse through cold storages\r\n        for (uint256 i = 0; i < coldStorageAddresses.length; i++) {\r\n            for (uint256 j = 0; j < coldStorages[coldStorageAddresses[i]].requests.length;j++) {\r\n                if (coldStorages[coldStorageAddresses[i]].requests[j] == _address) {\r\n                    CSIDs[pointer++] = coldStorageAddresses[i];\r\n                    break;\r\n                }\r\n            }\r\n        }\r\n        return CSIDs;\r\n    }\r\n\r\n    function getAllCSapprovedForAddress(address _address)\r\n        public\r\n        view\r\n        returns (address[] memory)\r\n    {\r\n        address[] memory CSIDs = new address[](coldStorageAddresses.length);\r\n        uint256 pointer = 0;\r\n        \r\n        //loop to traverse through cold storages\r\n        for (uint256 i = 0; i < coldStorageAddresses.length; i++) {\r\n            for (uint256 j = 0; j < coldStorages[coldStorageAddresses[i]].approvedRequests.length; j++) {\r\n                if (coldStorages[coldStorageAddresses[i]].approvedRequests[j] == _address) {\r\n                    CSIDs[pointer++] = coldStorageAddresses[i];\r\n                    break;\r\n                }\r\n            }\r\n        }\r\n        return CSIDs;\r\n    }\r\n\r\n    function getColdStorage(address _address)\r\n        public\r\n        view\r\n        returns (\r\n            string memory _ownerName,\r\n            int256 _latitude,\r\n            int256 _longitude,\r\n            uint256 _capacity,\r\n            uint256 _price\r\n        )\r\n    {\r\n        return (\r\n            coldStorages[_address].ownerName,\r\n            coldStorages[_address].latitude,\r\n            coldStorages[_address].longitude,\r\n            coldStorages[_address].capacity,\r\n            coldStorages[_address].price\r\n        );\r\n    }\r\n    \r\n    function getLocation(address _address) external view returns(int256, int256) {\r\n        return (coldStorages[_address].latitude, coldStorages[_address].longitude);\r\n    }\r\n    \r\n    function getColdStoragePrice(address _address) public view returns (uint256 _price) {\r\n        return coldStorages[_address].price;\r\n    }\r\n\r\n    function countColdStorages() public view returns (uint256) {\r\n        return coldStorageAddresses.length;\r\n    }\r\n\r\n    function requestColdStorage(address _address) public {\r\n        //owner can't buy their own storage\r\n        require(msg.sender != _address);\r\n\r\n        if (address(msg.sender).balance >= coldStorages[_address].price) {\r\n            coldStorages[_address].requests.push(address(msg.sender));\r\n        }\r\n    }\r\n\r\n    function removeRequest(address _address, address _addressColdStorage) public {\r\n        address[] storage reqs = coldStorages[_addressColdStorage].requests;\r\n\r\n        bool isPresent = false;\r\n        uint256 reqIndex = 0;\r\n        uint256 i;\r\n        \r\n        for (i = 0; i < reqs.length; i++) {\r\n            if (reqs[i] == _address) {\r\n                isPresent = true;\r\n                reqIndex = i;\r\n                break;\r\n            }\r\n        }\r\n\r\n        if (isPresent) {\r\n            for (i = reqIndex; i < reqs.length - 1; i++) {\r\n                reqs[i] = reqs[i + 1];\r\n            }\r\n\r\n            delete reqs[reqs.length - 1];\r\n            coldStorages[_addressColdStorage].requests = reqs;\r\n        } else \r\n        return;\r\n    }\r\n\r\n    function removeApprovedRequest(address _address, address _addressColdStorage) public {\r\n        address[] storage appReqs = coldStorages[_addressColdStorage].approvedRequests;\r\n\r\n        bool isPresent = false;\r\n        uint256 reqIndex = 0;\r\n        uint256 i;\r\n\r\n        for (i = 0; i < appReqs.length; i++) {\r\n            if (appReqs[i] == _address) {\r\n                isPresent = true;\r\n                reqIndex = i;\r\n                break;\r\n            }\r\n        }\r\n\r\n        if (isPresent) {\r\n            for (i = reqIndex; i < appReqs.length - 1; i++) {\r\n                appReqs[i] = appReqs[i + 1];\r\n            }\r\n\r\n            delete appReqs[appReqs.length - 1];\r\n            coldStorages[_addressColdStorage].approvedRequests = appReqs;\r\n        } else \r\n        return;\r\n    }\r\n\r\n    function approveColdStorage(address _addressColdStorage, address _address) public {\r\n        require(msg.sender == _addressColdStorage);\r\n\r\n        coldStorages[_addressColdStorage].approvedRequests.push(_address);\r\n        removeRequest(_address, _addressColdStorage);\r\n    }\r\n\r\n    function getApprovedRequests(address _address)\r\n        public\r\n        view\r\n        returns (address[] memory)\r\n    {\r\n        require(msg.sender == _address);\r\n\r\n        return coldStorages[_address].approvedRequests;\r\n    }\r\n\r\n    function rentColdStorage(address _address) public {\r\n        coldStorages[_address].tenants.push(msg.sender);\r\n        removeApprovedRequest(msg.sender, _address);\r\n    }\r\n\r\n    function getRentedStorages(address _address)\r\n        public\r\n        view\r\n        returns (address[] memory)\r\n    {\r\n        address[] memory rentedIDs = new address[](coldStorageAddresses.length);\r\n        uint256 pointer = 0;\r\n        \r\n        for (uint256 i = 0; i < coldStorageAddresses.length; i++) {\r\n            for (uint256 j = 0; j < coldStorages[coldStorageAddresses[i]].tenants.length; j++) {\r\n                if (coldStorages[coldStorageAddresses[i]].tenants[j] == _address) {\r\n                    rentedIDs[pointer++] = coldStorageAddresses[i];\r\n                    break;\r\n                }\r\n            }\r\n        }\r\n        return rentedIDs;\r\n    }\r\n\r\n    function getTenants(address _address) public view returns (address[] memory) {\r\n        require(msg.sender == _address);\r\n        return coldStorages[_address].tenants;\r\n    }\r\n\r\n    /*//function to add new item to cold storage\r\n    function addItem(\r\n        address _address,\r\n        string memory _itemName,\r\n        uint256 _quantity\r\n    ) public {\r\n        coldStorages[_address].items[_itemName] = _quantity;\r\n        coldStorages[_address].itemNames.push(_itemName);\r\n    }\r\n\r\n    //function to view items\r\n    function getItemNames(uint256 _id) public view returns (string[] memory) {\r\n        return coldStorages[_id].itemNames;\r\n    }\r\n\r\n    function getItemQuantites(uint256 _id, string memory _itemName)\r\n        public\r\n        view\r\n        returns (uint256)\r\n    {\r\n        return coldStorages[_id].items[_itemName];\r\n    }\r\n\r\n    //function to get quantities of items*/\r\n    \r\n    function getUnverifiedColdStorages() public onlyGovernmentOfficial view returns (address[] memory) {\r\n        return unverifiedColdStorages;\r\n    }\r\n\r\n    function getNumUnverifiedColdStorages() public onlyGovernmentOfficial view returns (uint256) {\r\n        return unverifiedColdStorages.length;\r\n    }\r\n\r\n    function getUnverifiedColdStorage(uint256 pos) public onlyGovernmentOfficial view returns (address) {\r\n        return unverifiedColdStorages[pos];\r\n    }\r\n    \r\n    function setEligible(address _address) public onlyGovernmentOfficial {\r\n        for (uint256 i = 0 ; i < unverifiedColdStorages.length ; i++) {\r\n            if (unverifiedColdStorages[i] == _address) {\r\n                unverifiedColdStorages[i] = unverifiedColdStorages[unverifiedColdStorages.length-1];\r\n                delete unverifiedColdStorages[unverifiedColdStorages.length-1];\r\n                coldStorages[_address].isEligible = true;\r\n                unverifiedColdStorages.length--;\r\n                coldStorageAddresses.push(_address);\r\n                rc.addRole(_address, rc.coldStorageRoleID());\r\n                break;\r\n            }\r\n        }\r\n    }\r\n}\r\n",
  "sourcePath": "D:\\7thSemester\\CS491\\smart_agriculture_react\\contracts\\ColdStorageContract.sol",
  "compiler": {
    "name": "solc",
    "version": "0.4.26+commit.4563c3fc.Emscripten.clang"
  },
  "schemaVersion": "3.4.3",
  "updatedAt": "2021-12-11T16:06:07.930Z",
  "networkType": "ethereum",
  "devdoc": {
    "methods": {}
  },
  "userdoc": {
    "methods": {}
  }
}