{
  "contractName": "ColdStorageContract",
  "abi": [
    {
      "constant": true,
      "inputs": [
        {
          "name": "",
          "type": "uint256"
        }
      ],
      "name": "unverifiedColdStorages",
      "outputs": [
        {
          "name": "",
          "type": "address"
        }
      ],
      "payable": false,
      "stateMutability": "view",
      "type": "function"
    },
    {
      "constant": true,
      "inputs": [],
      "name": "rc",
      "outputs": [
        {
          "name": "",
          "type": "address"
        }
      ],
      "payable": false,
      "stateMutability": "view",
      "type": "function"
    },
    {
      "constant": true,
      "inputs": [
        {
          "name": "",
          "type": "address"
        }
      ],
      "name": "coldStorages",
      "outputs": [
        {
          "name": "ownerName",
          "type": "string"
        },
        {
          "name": "latitude",
          "type": "int256"
        },
        {
          "name": "longitude",
          "type": "int256"
        },
        {
          "name": "capacity",
          "type": "uint256"
        },
        {
          "name": "price",
          "type": "uint256"
        },
        {
          "name": "isEligible",
          "type": "bool"
        }
      ],
      "payable": false,
      "stateMutability": "view",
      "type": "function"
    },
    {
      "constant": true,
      "inputs": [
        {
          "name": "",
          "type": "uint256"
        }
      ],
      "name": "coldStorageAddresses",
      "outputs": [
        {
          "name": "",
          "type": "address"
        }
      ],
      "payable": false,
      "stateMutability": "view",
      "type": "function"
    },
    {
      "inputs": [
        {
          "name": "_address",
          "type": "address"
        }
      ],
      "payable": false,
      "stateMutability": "nonpayable",
      "type": "constructor"
    },
    {
      "constant": false,
      "inputs": [
        {
          "name": "_ownerName",
          "type": "string"
        },
        {
          "name": "_latitude",
          "type": "int256"
        },
        {
          "name": "_longitude",
          "type": "int256"
        },
        {
          "name": "_capacity",
          "type": "uint256"
        },
        {
          "name": "_price",
          "type": "uint256"
        }
      ],
      "name": "addColdStorage",
      "outputs": [],
      "payable": false,
      "stateMutability": "nonpayable",
      "type": "function"
    },
    {
      "constant": true,
      "inputs": [],
      "name": "getColdStorages",
      "outputs": [
        {
          "name": "",
          "type": "address[]"
        }
      ],
      "payable": false,
      "stateMutability": "view",
      "type": "function"
    },
    {
      "constant": true,
      "inputs": [
        {
          "name": "_address",
          "type": "address"
        }
      ],
      "name": "getRequests",
      "outputs": [
        {
          "name": "",
          "type": "address[]"
        }
      ],
      "payable": false,
      "stateMutability": "view",
      "type": "function"
    },
    {
      "constant": true,
      "inputs": [
        {
          "name": "_address",
          "type": "address"
        }
      ],
      "name": "getAllCSrequestedByAddress",
      "outputs": [
        {
          "name": "",
          "type": "address[]"
        }
      ],
      "payable": false,
      "stateMutability": "view",
      "type": "function"
    },
    {
      "constant": true,
      "inputs": [
        {
          "name": "_address",
          "type": "address"
        }
      ],
      "name": "getAllCSapprovedForAddress",
      "outputs": [
        {
          "name": "",
          "type": "address[]"
        }
      ],
      "payable": false,
      "stateMutability": "view",
      "type": "function"
    },
    {
      "constant": true,
      "inputs": [
        {
          "name": "_address",
          "type": "address"
        }
      ],
      "name": "getColdStorage",
      "outputs": [
        {
          "name": "_ownerName",
          "type": "string"
        },
        {
          "name": "_latitude",
          "type": "int256"
        },
        {
          "name": "_longitude",
          "type": "int256"
        },
        {
          "name": "_capacity",
          "type": "uint256"
        },
        {
          "name": "_price",
          "type": "uint256"
        }
      ],
      "payable": false,
      "stateMutability": "view",
      "type": "function"
    },
    {
      "constant": true,
      "inputs": [
        {
          "name": "_address",
          "type": "address"
        }
      ],
      "name": "getLocation",
      "outputs": [
        {
          "name": "",
          "type": "int256"
        },
        {
          "name": "",
          "type": "int256"
        }
      ],
      "payable": false,
      "stateMutability": "view",
      "type": "function"
    },
    {
      "constant": true,
      "inputs": [
        {
          "name": "_address",
          "type": "address"
        }
      ],
      "name": "getColdStoragePrice",
      "outputs": [
        {
          "name": "_price",
          "type": "uint256"
        }
      ],
      "payable": false,
      "stateMutability": "view",
      "type": "function"
    },
    {
      "constant": true,
      "inputs": [],
      "name": "countColdStorages",
      "outputs": [
        {
          "name": "",
          "type": "uint256"
        }
      ],
      "payable": false,
      "stateMutability": "view",
      "type": "function"
    },
    {
      "constant": true,
      "inputs": [
        {
          "name": "pos",
          "type": "uint256"
        }
      ],
      "name": "getNumColdStorage",
      "outputs": [
        {
          "name": "",
          "type": "address"
        }
      ],
      "payable": false,
      "stateMutability": "view",
      "type": "function"
    },
    {
      "constant": false,
      "inputs": [
        {
          "name": "_address",
          "type": "address"
        }
      ],
      "name": "requestColdStorage",
      "outputs": [],
      "payable": false,
      "stateMutability": "nonpayable",
      "type": "function"
    },
    {
      "constant": false,
      "inputs": [
        {
          "name": "_address",
          "type": "address"
        },
        {
          "name": "_addressColdStorage",
          "type": "address"
        }
      ],
      "name": "removeRequest",
      "outputs": [],
      "payable": false,
      "stateMutability": "nonpayable",
      "type": "function"
    },
    {
      "constant": false,
      "inputs": [
        {
          "name": "_address",
          "type": "address"
        },
        {
          "name": "_addressColdStorage",
          "type": "address"
        }
      ],
      "name": "removeApprovedRequest",
      "outputs": [],
      "payable": false,
      "stateMutability": "nonpayable",
      "type": "function"
    },
    {
      "constant": false,
      "inputs": [
        {
          "name": "_addressColdStorage",
          "type": "address"
        },
        {
          "name": "_address",
          "type": "address"
        }
      ],
      "name": "approveColdStorage",
      "outputs": [],
      "payable": false,
      "stateMutability": "nonpayable",
      "type": "function"
    },
    {
      "constant": true,
      "inputs": [
        {
          "name": "_address",
          "type": "address"
        }
      ],
      "name": "getApprovedRequests",
      "outputs": [
        {
          "name": "",
          "type": "address[]"
        }
      ],
      "payable": false,
      "stateMutability": "view",
      "type": "function"
    },
    {
      "constant": false,
      "inputs": [
        {
          "name": "_address",
          "type": "address"
        }
      ],
      "name": "rentColdStorage",
      "outputs": [],
      "payable": false,
      "stateMutability": "nonpayable",
      "type": "function"
    },
    {
      "constant": true,
      "inputs": [
        {
          "name": "_address",
          "type": "address"
        }
      ],
      "name": "getRentedStorages",
      "outputs": [
        {
          "name": "",
          "type": "address[]"
        }
      ],
      "payable": false,
      "stateMutability": "view",
      "type": "function"
    },
    {
      "constant": true,
      "inputs": [
        {
          "name": "_address",
          "type": "address"
        }
      ],
      "name": "getTenants",
      "outputs": [
        {
          "name": "",
          "type": "address[]"
        }
      ],
      "payable": false,
      "stateMutability": "view",
      "type": "function"
    },
    {
      "constant": true,
      "inputs": [],
      "name": "getUnverifiedColdStorages",
      "outputs": [
        {
          "name": "",
          "type": "address[]"
        }
      ],
      "payable": false,
      "stateMutability": "view",
      "type": "function"
    },
    {
      "constant": true,
      "inputs": [],
      "name": "getNumUnverifiedColdStorages",
      "outputs": [
        {
          "name": "",
          "type": "uint256"
        }
      ],
      "payable": false,
      "stateMutability": "view",
      "type": "function"
    },
    {
      "constant": true,
      "inputs": [
        {
          "name": "pos",
          "type": "uint256"
        }
      ],
      "name": "getUnverifiedColdStorage",
      "outputs": [
        {
          "name": "",
          "type": "address"
        }
      ],
      "payable": false,
      "stateMutability": "view",
      "type": "function"
    },
    {
      "constant": false,
      "inputs": [
        {
          "name": "_address",
          "type": "address"
        }
      ],
      "name": "setEligible",
      "outputs": [],
      "payable": false,
      "stateMutability": "nonpayable",
      "type": "function"
    }
  ],
  "bytecode": "0x60806040523480156200001157600080fd5b506040516020806200365a833981018060405262000033919081019062000090565b806000806101000a81548173ffffffffffffffffffffffffffffffffffffffff021916908373ffffffffffffffffffffffffffffffffffffffff16021790555050620000dc565b6000620000888251620000bc565b905092915050565b600060208284031215620000a357600080fd5b6000620000b3848285016200007a565b91505092915050565b600073ffffffffffffffffffffffffffffffffffffffff82169050919050565b61356e80620000ec6000396000f300608060405260043610610153576000357c0100000000000000000000000000000000000000000000000000000000900463ffffffff16806212827614610158578063051e25ac146101835780630b411f44146101c057806311619c94146101fd57806312f77332146102285780631bf1589814610253578063408e94531461027e578063517aea2a146102bb578063550966a6146102f85780635839cb3514610335578063782cbf5f1461035e5780637d3845cc14610387578063804e44f3146103c45780639409248b1461040157806398c18f2f1461042a578063a0a38e1f1461046c578063ba778bf9146104a9578063c3a31905146104e6578063d09403541461050f578063d9e0dc5914610550578063de7ff3251461058e578063e22dbe88146105cb578063e476f9f514610608578063f904cf0414610631578063fe8806f51461065a578063fef7fa6a14610683575b600080fd5b34801561016457600080fd5b5061016d6106ae565b60405161017a9190613244565b60405180910390f35b34801561018f57600080fd5b506101aa60048036036101a59190810190613008565b61073c565b6040516101b79190613200565b60405180910390f35b3480156101cc57600080fd5b506101e760048036036101e29190810190612f14565b61077a565b6040516101f49190613244565b60405180910390f35b34801561020957600080fd5b506102126109f5565b60405161021f91906133ac565b60405180910390f35b34801561023457600080fd5b5061023d610a02565b60405161024a9190613266565b60405180910390f35b34801561025f57600080fd5b50610268610a27565b60405161027591906133ac565b60405180910390f35b34801561028a57600080fd5b506102a560048036036102a09190810190613008565b610bfb565b6040516102b29190613200565b60405180910390f35b3480156102c757600080fd5b506102e260048036036102dd9190810190612f14565b610c3e565b6040516102ef9190613244565b60405180910390f35b34801561030457600080fd5b5061031f600480360361031a9190810190613008565b610d48565b60405161032c9190613200565b60405180910390f35b34801561034157600080fd5b5061035c60048036036103579190810190612f3d565b610f52565b005b34801561036a57600080fd5b5061038560048036036103809190810190612f14565b611199565b005b34801561039357600080fd5b506103ae60048036036103a99190810190612f14565b6112e0565b6040516103bb9190613244565b60405180910390f35b3480156103d057600080fd5b506103eb60048036036103e69190810190612f14565b6113ea565b6040516103f89190613244565b60405180910390f35b34801561040d57600080fd5b5061042860048036036104239190810190612f79565b6114f4565b005b34801561043657600080fd5b50610451600480360361044c9190810190612f14565b6115ff565b60405161046396959493929190613304565b60405180910390f35b34801561047857600080fd5b50610493600480360361048e9190810190613008565b6116e0565b6040516104a09190613200565b60405180910390f35b3480156104b557600080fd5b506104d060048036036104cb9190810190612f14565b61171e565b6040516104dd91906133ac565b60405180910390f35b3480156104f257600080fd5b5061050d60048036036105089190810190612f14565b61176a565b005b34801561051b57600080fd5b5061053660048036036105319190810190612f14565b61181d565b6040516105479594939291906132aa565b60405180910390f35b34801561055c57600080fd5b5061057760048036036105729190810190612f14565b611c7f565b604051610585929190613281565b60405180910390f35b34801561059a57600080fd5b506105b560048036036105b09190810190612f14565b611d11565b6040516105c29190613244565b60405180910390f35b3480156105d757600080fd5b506105f260048036036105ed9190810190612f14565b611f8c565b6040516105ff9190613244565b60405180910390f35b34801561061457600080fd5b5061062f600480360361062a9190810190612f3d565b612207565b005b34801561063d57600080fd5b5061065860048036036106539190810190612f14565b6122f5565b005b34801561066657600080fd5b50610681600480360361067c9190810190612f3d565b61286c565b005b34801561068f57600080fd5b50610698612ab3565b6040516106a59190613244565b60405180910390f35b6060600280548060200260200160405190810160405280929190818152602001828054801561073257602002820191906000526020600020905b8160009054906101000a900473ffffffffffffffffffffffffffffffffffffffff1673ffffffffffffffffffffffffffffffffffffffff16815260200190600101908083116106e8575b5050505050905090565b60038181548110151561074b57fe5b906000526020600020016000915054906101000a900473ffffffffffffffffffffffffffffffffffffffff1681565b60608060008060006002805490506040519080825280602002602001820160405280156107b65781602001602082028038833980820191505090505b50935060009250600091505b6002805490508210156109e957600090505b600160006002848154811015156107e757fe5b9060005260206000200160009054906101000a900473ffffffffffffffffffffffffffffffffffffffff1673ffffffffffffffffffffffffffffffffffffffff1673ffffffffffffffffffffffffffffffffffffffff168152602001908152602001600020600701805490508110156109dc578573ffffffffffffffffffffffffffffffffffffffff166001600060028581548110151561088457fe5b9060005260206000200160009054906101000a900473ffffffffffffffffffffffffffffffffffffffff1673ffffffffffffffffffffffffffffffffffffffff1673ffffffffffffffffffffffffffffffffffffffff168152602001908152602001600020600701828154811015156108f957fe5b9060005260206000200160009054906101000a900473ffffffffffffffffffffffffffffffffffffffff1673ffffffffffffffffffffffffffffffffffffffff1614156109cf5760028281548110151561094f57fe5b9060005260206000200160009054906101000a900473ffffffffffffffffffffffffffffffffffffffff16848480600101955081518110151561098e57fe5b9060200190602002019073ffffffffffffffffffffffffffffffffffffffff16908173ffffffffffffffffffffffffffffffffffffffff16815250506109dc565b80806001019150506107d4565b81806001019250506107c2565b83945050505050919050565b6000600280549050905090565b6000809054906101000a900473ffffffffffffffffffffffffffffffffffffffff1681565b60008060009054906101000a900473ffffffffffffffffffffffffffffffffffffffff1673ffffffffffffffffffffffffffffffffffffffff166346fb5b9c6040518163ffffffff167c0100000000000000000000000000000000000000000000000000000000028152600401602060405180830381600087803b158015610aae57600080fd5b505af1158015610ac2573d6000803e3d6000fd5b505050506040513d601f19601f82011682018060405250610ae69190810190613031565b6000809054906101000a900473ffffffffffffffffffffffffffffffffffffffff1673ffffffffffffffffffffffffffffffffffffffff166344276733326040518263ffffffff167c0100000000000000000000000000000000000000000000000000000000028152600401610b5c9190613200565b602060405180830381600087803b158015610b7657600080fd5b505af1158015610b8a573d6000803e3d6000fd5b505050506040513d601f19601f82011682018060405250610bae9190810190613031565b141515610bf0576040517f08c379a0000000000000000000000000000000000000000000000000000000008152600401610be79061338c565b60405180910390fd5b600380549050905090565b6000600282815481101515610c0c57fe5b9060005260206000200160009054906101000a900473ffffffffffffffffffffffffffffffffffffffff169050919050565b60608173ffffffffffffffffffffffffffffffffffffffff163373ffffffffffffffffffffffffffffffffffffffff16141515610c7a57600080fd5b600160008373ffffffffffffffffffffffffffffffffffffffff1673ffffffffffffffffffffffffffffffffffffffff168152602001908152602001600020600701805480602002602001604051908101604052809291908181526020018280548015610d3c57602002820191906000526020600020905b8160009054906101000a900473ffffffffffffffffffffffffffffffffffffffff1673ffffffffffffffffffffffffffffffffffffffff1681526020019060010190808311610cf2575b50505050509050919050565b60008060009054906101000a900473ffffffffffffffffffffffffffffffffffffffff1673ffffffffffffffffffffffffffffffffffffffff166346fb5b9c6040518163ffffffff167c0100000000000000000000000000000000000000000000000000000000028152600401602060405180830381600087803b158015610dcf57600080fd5b505af1158015610de3573d6000803e3d6000fd5b505050506040513d601f19601f82011682018060405250610e079190810190613031565b6000809054906101000a900473ffffffffffffffffffffffffffffffffffffffff1673ffffffffffffffffffffffffffffffffffffffff166344276733326040518263ffffffff167c0100000000000000000000000000000000000000000000000000000000028152600401610e7d9190613200565b602060405180830381600087803b158015610e9757600080fd5b505af1158015610eab573d6000803e3d6000fd5b505050506040513d601f19601f82011682018060405250610ecf9190810190613031565b141515610f11576040517f08c379a0000000000000000000000000000000000000000000000000000000008152600401610f089061338c565b60405180910390fd5b600382815481101515610f2057fe5b9060005260206000200160009054906101000a900473ffffffffffffffffffffffffffffffffffffffff169050919050565b600080600080600160008673ffffffffffffffffffffffffffffffffffffffff1673ffffffffffffffffffffffffffffffffffffffff16815260200190815260200160002060070193506000925060009150600090505b838054905081101561103a578573ffffffffffffffffffffffffffffffffffffffff168482815481101515610fda57fe5b9060005260206000200160009054906101000a900473ffffffffffffffffffffffffffffffffffffffff1673ffffffffffffffffffffffffffffffffffffffff16141561102d576001925080915061103a565b8080600101915050610fa9565b821561118b578190505b60018480549050038110156110f257836001820181548110151561106457fe5b9060005260206000200160009054906101000a900473ffffffffffffffffffffffffffffffffffffffff16848281548110151561109d57fe5b9060005260206000200160006101000a81548173ffffffffffffffffffffffffffffffffffffffff021916908373ffffffffffffffffffffffffffffffffffffffff1602179055508080600101915050611044565b83600185805490500381548110151561110757fe5b9060005260206000200160006101000a81549073ffffffffffffffffffffffffffffffffffffffff021916905583600160008773ffffffffffffffffffffffffffffffffffffffff1673ffffffffffffffffffffffffffffffffffffffff168152602001908152602001600020600701908054611185929190612d08565b50611190565b611191565b5b505050505050565b8073ffffffffffffffffffffffffffffffffffffffff163373ffffffffffffffffffffffffffffffffffffffff16141515156111d457600080fd5b600160008273ffffffffffffffffffffffffffffffffffffffff1673ffffffffffffffffffffffffffffffffffffffff168152602001908152602001600020600401543373ffffffffffffffffffffffffffffffffffffffff16311015156112dd57600160008273ffffffffffffffffffffffffffffffffffffffff1673ffffffffffffffffffffffffffffffffffffffff1681526020019081526020016000206006013390806001815401808255809150509060018203906000526020600020016000909192909190916101000a81548173ffffffffffffffffffffffffffffffffffffffff021916908373ffffffffffffffffffffffffffffffffffffffff160217905550505b50565b60608173ffffffffffffffffffffffffffffffffffffffff163373ffffffffffffffffffffffffffffffffffffffff1614151561131c57600080fd5b600160008373ffffffffffffffffffffffffffffffffffffffff1673ffffffffffffffffffffffffffffffffffffffff1681526020019081526020016000206008018054806020026020016040519081016040528092919081815260200182805480156113de57602002820191906000526020600020905b8160009054906101000a900473ffffffffffffffffffffffffffffffffffffffff1673ffffffffffffffffffffffffffffffffffffffff1681526020019060010190808311611394575b50505050509050919050565b60608173ffffffffffffffffffffffffffffffffffffffff163373ffffffffffffffffffffffffffffffffffffffff1614151561142657600080fd5b600160008373ffffffffffffffffffffffffffffffffffffffff1673ffffffffffffffffffffffffffffffffffffffff1681526020019081526020016000206006018054806020026020016040519081016040528092919081815260200182805480156114e857602002820191906000526020600020905b8160009054906101000a900473ffffffffffffffffffffffffffffffffffffffff1673ffffffffffffffffffffffffffffffffffffffff168152602001906001019080831161149e575b50505050509050919050565b6000600160003273ffffffffffffffffffffffffffffffffffffffff1673ffffffffffffffffffffffffffffffffffffffff16815260200190815260200160002090508581600001908051906020019061154f929190612d5a565b5084816001018190555083816002018190555082816003018190555081816004018190555060008160050160006101000a81548160ff02191690831515021790555060033290806001815401808255809150509060018203906000526020600020016000909192909190916101000a81548173ffffffffffffffffffffffffffffffffffffffff021916908373ffffffffffffffffffffffffffffffffffffffff16021790555050505050505050565b6001602052806000526040600020600091509050806000018054600181600116156101000203166002900480601f0160208091040260200160405190810160405280929190818152602001828054600181600116156101000203166002900480156116ab5780601f10611680576101008083540402835291602001916116ab565b820191906000526020600020905b81548152906001019060200180831161168e57829003601f168201915b5050505050908060010154908060020154908060030154908060040154908060050160009054906101000a900460ff16905086565b6002818154811015156116ef57fe5b906000526020600020016000915054906101000a900473ffffffffffffffffffffffffffffffffffffffff1681565b6000600160008373ffffffffffffffffffffffffffffffffffffffff1673ffffffffffffffffffffffffffffffffffffffff168152602001908152602001600020600401549050919050565b600160008273ffffffffffffffffffffffffffffffffffffffff1673ffffffffffffffffffffffffffffffffffffffff1681526020019081526020016000206008013390806001815401808255809150509060018203906000526020600020016000909192909190916101000a81548173ffffffffffffffffffffffffffffffffffffffff021916908373ffffffffffffffffffffffffffffffffffffffff1602179055505061181a3382610f52565b50565b60606000806000808560011515600160008373ffffffffffffffffffffffffffffffffffffffff1673ffffffffffffffffffffffffffffffffffffffff16815260200190815260200160002060050160009054906101000a900460ff16151514806118b357503273ffffffffffffffffffffffffffffffffffffffff168173ffffffffffffffffffffffffffffffffffffffff16145b80611a4057506000809054906101000a900473ffffffffffffffffffffffffffffffffffffffff1673ffffffffffffffffffffffffffffffffffffffff166346fb5b9c6040518163ffffffff167c0100000000000000000000000000000000000000000000000000000000028152600401602060405180830381600087803b15801561193e57600080fd5b505af1158015611952573d6000803e3d6000fd5b505050506040513d601f19601f820116820180604052506119769190810190613031565b6000809054906101000a900473ffffffffffffffffffffffffffffffffffffffff1673ffffffffffffffffffffffffffffffffffffffff166344276733326040518263ffffffff167c01000000000000000000000000000000000000000000000000000000000281526004016119ec9190613200565b602060405180830381600087803b158015611a0657600080fd5b505af1158015611a1a573d6000803e3d6000fd5b505050506040513d601f19601f82011682018060405250611a3e9190810190613031565b145b1515611a81576040517f08c379a0000000000000000000000000000000000000000000000000000000008152600401611a789061336c565b60405180910390fd5b600160008873ffffffffffffffffffffffffffffffffffffffff1673ffffffffffffffffffffffffffffffffffffffff168152602001908152602001600020600001600160008973ffffffffffffffffffffffffffffffffffffffff1673ffffffffffffffffffffffffffffffffffffffff16815260200190815260200160002060010154600160008a73ffffffffffffffffffffffffffffffffffffffff1673ffffffffffffffffffffffffffffffffffffffff16815260200190815260200160002060020154600160008b73ffffffffffffffffffffffffffffffffffffffff1673ffffffffffffffffffffffffffffffffffffffff16815260200190815260200160002060030154600160008c73ffffffffffffffffffffffffffffffffffffffff1673ffffffffffffffffffffffffffffffffffffffff16815260200190815260200160002060040154848054600181600116156101000203166002900480601f016020809104026020016040519081016040528092919081815260200182805460018160011615610100020316600290048015611c645780601f10611c3957610100808354040283529160200191611c64565b820191906000526020600020905b815481529060010190602001808311611c4757829003601f168201915b50505050509450955095509550955095505091939590929450565b600080600160008473ffffffffffffffffffffffffffffffffffffffff1673ffffffffffffffffffffffffffffffffffffffff16815260200190815260200160002060010154600160008573ffffffffffffffffffffffffffffffffffffffff1673ffffffffffffffffffffffffffffffffffffffff1681526020019081526020016000206002015491509150915091565b6060806000806000600280549050604051908082528060200260200182016040528015611d4d5781602001602082028038833980820191505090505b50935060009250600091505b600280549050821015611f8057600090505b60016000600284815481101515611d7e57fe5b9060005260206000200160009054906101000a900473ffffffffffffffffffffffffffffffffffffffff1673ffffffffffffffffffffffffffffffffffffffff1673ffffffffffffffffffffffffffffffffffffffff16815260200190815260200160002060060180549050811015611f73578573ffffffffffffffffffffffffffffffffffffffff1660016000600285815481101515611e1b57fe5b9060005260206000200160009054906101000a900473ffffffffffffffffffffffffffffffffffffffff1673ffffffffffffffffffffffffffffffffffffffff1673ffffffffffffffffffffffffffffffffffffffff16815260200190815260200160002060060182815481101515611e9057fe5b9060005260206000200160009054906101000a900473ffffffffffffffffffffffffffffffffffffffff1673ffffffffffffffffffffffffffffffffffffffff161415611f6657600282815481101515611ee657fe5b9060005260206000200160009054906101000a900473ffffffffffffffffffffffffffffffffffffffff168484806001019550815181101515611f2557fe5b9060200190602002019073ffffffffffffffffffffffffffffffffffffffff16908173ffffffffffffffffffffffffffffffffffffffff1681525050611f73565b8080600101915050611d6b565b8180600101925050611d59565b83945050505050919050565b6060806000806000600280549050604051908082528060200260200182016040528015611fc85781602001602082028038833980820191505090505b50935060009250600091505b6002805490508210156121fb57600090505b60016000600284815481101515611ff957fe5b9060005260206000200160009054906101000a900473ffffffffffffffffffffffffffffffffffffffff1673ffffffffffffffffffffffffffffffffffffffff1673ffffffffffffffffffffffffffffffffffffffff168152602001908152602001600020600801805490508110156121ee578573ffffffffffffffffffffffffffffffffffffffff166001600060028581548110151561209657fe5b9060005260206000200160009054906101000a900473ffffffffffffffffffffffffffffffffffffffff1673ffffffffffffffffffffffffffffffffffffffff1673ffffffffffffffffffffffffffffffffffffffff1681526020019081526020016000206008018281548110151561210b57fe5b9060005260206000200160009054906101000a900473ffffffffffffffffffffffffffffffffffffffff1673ffffffffffffffffffffffffffffffffffffffff1614156121e15760028281548110151561216157fe5b9060005260206000200160009054906101000a900473ffffffffffffffffffffffffffffffffffffffff1684848060010195508151811015156121a057fe5b9060200190602002019073ffffffffffffffffffffffffffffffffffffffff16908173ffffffffffffffffffffffffffffffffffffffff16815250506121ee565b8080600101915050611fe6565b8180600101925050611fd4565b83945050505050919050565b8173ffffffffffffffffffffffffffffffffffffffff163373ffffffffffffffffffffffffffffffffffffffff1614151561224157600080fd5b600160008373ffffffffffffffffffffffffffffffffffffffff1673ffffffffffffffffffffffffffffffffffffffff1681526020019081526020016000206007018190806001815401808255809150509060018203906000526020600020016000909192909190916101000a81548173ffffffffffffffffffffffffffffffffffffffff021916908373ffffffffffffffffffffffffffffffffffffffff160217905550506122f1818361286c565b5050565b60008060009054906101000a900473ffffffffffffffffffffffffffffffffffffffff1673ffffffffffffffffffffffffffffffffffffffff166346fb5b9c6040518163ffffffff167c0100000000000000000000000000000000000000000000000000000000028152600401602060405180830381600087803b15801561237c57600080fd5b505af1158015612390573d6000803e3d6000fd5b505050506040513d601f19601f820116820180604052506123b49190810190613031565b6000809054906101000a900473ffffffffffffffffffffffffffffffffffffffff1673ffffffffffffffffffffffffffffffffffffffff166344276733326040518263ffffffff167c010000000000000000000000000000000000000000000000000000000002815260040161242a9190613200565b602060405180830381600087803b15801561244457600080fd5b505af1158015612458573d6000803e3d6000fd5b505050506040513d601f19601f8201168201806040525061247c9190810190613031565b1415156124be576040517f08c379a00000000000000000000000000000000000000000000000000000000081526004016124b59061338c565b60405180910390fd5b600090505b600380549050811015612868578173ffffffffffffffffffffffffffffffffffffffff166003828154811015156124f657fe5b9060005260206000200160009054906101000a900473ffffffffffffffffffffffffffffffffffffffff1673ffffffffffffffffffffffffffffffffffffffff16141561285b57600360016003805490500381548110151561255457fe5b9060005260206000200160009054906101000a900473ffffffffffffffffffffffffffffffffffffffff1660038281548110151561258e57fe5b9060005260206000200160006101000a81548173ffffffffffffffffffffffffffffffffffffffff021916908373ffffffffffffffffffffffffffffffffffffffff16021790555060036001600380549050038154811015156125ed57fe5b9060005260206000200160006101000a81549073ffffffffffffffffffffffffffffffffffffffff021916905560018060008473ffffffffffffffffffffffffffffffffffffffff1673ffffffffffffffffffffffffffffffffffffffff16815260200190815260200160002060050160006101000a81548160ff02191690831515021790555060038054809190600190036126899190612dda565b5060028290806001815401808255809150509060018203906000526020600020016000909192909190916101000a81548173ffffffffffffffffffffffffffffffffffffffff021916908373ffffffffffffffffffffffffffffffffffffffff160217905550506000809054906101000a900473ffffffffffffffffffffffffffffffffffffffff1673ffffffffffffffffffffffffffffffffffffffff16637fde1c8a836000809054906101000a900473ffffffffffffffffffffffffffffffffffffffff1673ffffffffffffffffffffffffffffffffffffffff1663bf4fd3696040518163ffffffff167c0100000000000000000000000000000000000000000000000000000000028152600401602060405180830381600087803b1580156127b357600080fd5b505af11580156127c7573d6000803e3d6000fd5b505050506040513d601f19601f820116820180604052506127eb9190810190613031565b6040518363ffffffff167c010000000000000000000000000000000000000000000000000000000002815260040161282492919061321b565b600060405180830381600087803b15801561283e57600080fd5b505af1158015612852573d6000803e3d6000fd5b50505050612868565b80806001019150506124c3565b5050565b600080600080600160008673ffffffffffffffffffffffffffffffffffffffff1673ffffffffffffffffffffffffffffffffffffffff16815260200190815260200160002060060193506000925060009150600090505b8380549050811015612954578573ffffffffffffffffffffffffffffffffffffffff1684828154811015156128f457fe5b9060005260206000200160009054906101000a900473ffffffffffffffffffffffffffffffffffffffff1673ffffffffffffffffffffffffffffffffffffffff1614156129475760019250809150612954565b80806001019150506128c3565b8215612aa5578190505b6001848054905003811015612a0c57836001820181548110151561297e57fe5b9060005260206000200160009054906101000a900473ffffffffffffffffffffffffffffffffffffffff1684828154811015156129b757fe5b9060005260206000200160006101000a81548173ffffffffffffffffffffffffffffffffffffffff021916908373ffffffffffffffffffffffffffffffffffffffff160217905550808060010191505061295e565b836001858054905003815481101515612a2157fe5b9060005260206000200160006101000a81549073ffffffffffffffffffffffffffffffffffffffff021916905583600160008773ffffffffffffffffffffffffffffffffffffffff1673ffffffffffffffffffffffffffffffffffffffff168152602001908152602001600020600601908054612a9f929190612d08565b50612aaa565b612aab565b5b505050505050565b60606000809054906101000a900473ffffffffffffffffffffffffffffffffffffffff1673ffffffffffffffffffffffffffffffffffffffff166346fb5b9c6040518163ffffffff167c0100000000000000000000000000000000000000000000000000000000028152600401602060405180830381600087803b158015612b3a57600080fd5b505af1158015612b4e573d6000803e3d6000fd5b505050506040513d601f19601f82011682018060405250612b729190810190613031565b6000809054906101000a900473ffffffffffffffffffffffffffffffffffffffff1673ffffffffffffffffffffffffffffffffffffffff166344276733326040518263ffffffff167c0100000000000000000000000000000000000000000000000000000000028152600401612be89190613200565b602060405180830381600087803b158015612c0257600080fd5b505af1158015612c16573d6000803e3d6000fd5b505050506040513d601f19601f82011682018060405250612c3a9190810190613031565b141515612c7c576040517f08c379a0000000000000000000000000000000000000000000000000000000008152600401612c739061338c565b60405180910390fd5b6003805480602002602001604051908101604052809291908181526020018280548015612cfe57602002820191906000526020600020905b8160009054906101000a900473ffffffffffffffffffffffffffffffffffffffff1673ffffffffffffffffffffffffffffffffffffffff1681526020019060010190808311612cb4575b5050505050905090565b828054828255906000526020600020908101928215612d495760005260206000209182015b82811115612d48578254825591600101919060010190612d2d565b5b509050612d569190612e06565b5090565b828054600181600116156101000203166002900490600052602060002090601f016020900481019282601f10612d9b57805160ff1916838001178555612dc9565b82800160010185558215612dc9579182015b82811115612dc8578251825591602001919060010190612dad565b5b509050612dd69190612e49565b5090565b815481835581811115612e0157818360005260206000209182019101612e009190612e49565b5b505050565b612e4691905b80821115612e4257600081816101000a81549073ffffffffffffffffffffffffffffffffffffffff021916905550600101612e0c565b5090565b90565b612e6b91905b80821115612e67576000816000905550600101612e4f565b5090565b90565b6000612e7a823561349b565b905092915050565b6000612e8e82356134bb565b905092915050565b600082601f8301121515612ea957600080fd5b8135612ebc612eb7826133f4565b6133c7565b91508082526020830160208301858383011115612ed857600080fd5b612ee38382846134e1565b50505092915050565b6000612ef882356134c5565b905092915050565b6000612f0c82516134c5565b905092915050565b600060208284031215612f2657600080fd5b6000612f3484828501612e6e565b91505092915050565b60008060408385031215612f5057600080fd5b6000612f5e85828601612e6e565b9250506020612f6f85828601612e6e565b9150509250929050565b600080600080600060a08688031215612f9157600080fd5b600086013567ffffffffffffffff811115612fab57600080fd5b612fb788828901612e96565b9550506020612fc888828901612e82565b9450506040612fd988828901612e82565b9350506060612fea88828901612eec565b9250506080612ffb88828901612eec565b9150509295509295909350565b60006020828403121561301a57600080fd5b600061302884828501612eec565b91505092915050565b60006020828403121561304357600080fd5b600061305184828501612f00565b91505092915050565b6130638161345b565b82525050565b60006130748261342d565b80845260208401935061308683613420565b60005b828110156130b85761309c86835161305a565b6130a58261344e565b9150602086019550600181019050613089565b50849250505092915050565b6130cd8161347b565b82525050565b6130dc816134cf565b82525050565b6130eb81613487565b82525050565b60006130fc82613443565b8084526131108160208601602086016134f0565b61311981613523565b602085010191505092915050565b600061313282613438565b8084526131468160208601602086016134f0565b61314f81613523565b602085010191505092915050565b6000601282527f556e617574686f7269736564206163746f7200000000000000000000000000006020830152604082019050919050565b6000602482527f4f6e6c7920676f7665726e6d656e74206f6666696369616c732063616e20616360208301527f63657373000000000000000000000000000000000000000000000000000000006040830152606082019050919050565b6131fa81613491565b82525050565b6000602082019050613215600083018461305a565b92915050565b6000604082019050613230600083018561305a565b61323d60208301846131f1565b9392505050565b6000602082019050818103600083015261325e8184613069565b905092915050565b600060208201905061327b60008301846130d3565b92915050565b600060408201905061329660008301856130e2565b6132a360208301846130e2565b9392505050565b600060a08201905081810360008301526132c481886130f1565b90506132d360208301876130e2565b6132e060408301866130e2565b6132ed60608301856131f1565b6132fa60808301846131f1565b9695505050505050565b600060c082019050818103600083015261331e8189613127565b905061332d60208301886130e2565b61333a60408301876130e2565b61334760608301866131f1565b61335460808301856131f1565b61336160a08301846130c4565b979650505050505050565b600060208201905081810360008301526133858161315d565b9050919050565b600060208201905081810360008301526133a581613194565b9050919050565b60006020820190506133c160008301846131f1565b92915050565b6000604051905081810181811067ffffffffffffffff821117156133ea57600080fd5b8060405250919050565b600067ffffffffffffffff82111561340b57600080fd5b601f19601f8301169050602081019050919050565b6000602082019050919050565b600081519050919050565b600081519050919050565b600081519050919050565b6000602082019050919050565b600073ffffffffffffffffffffffffffffffffffffffff82169050919050565b60008115159050919050565b6000819050919050565b6000819050919050565b600073ffffffffffffffffffffffffffffffffffffffff82169050919050565b6000819050919050565b6000819050919050565b60006134da8261345b565b9050919050565b82818337600083830152505050565b60005b8381101561350e5780820151818401526020810190506134f3565b8381111561351d576000848401525b50505050565b6000601f19601f83011690509190505600a265627a7a72305820ef8656a4c3fb4930dce75db6f46d7fc78de11e400c3ca5c926504983ac3f4e606c6578706572696d656e74616cf50037",
  "source": "// SPDX-License-Identifier: GPL-3.0\r\npragma solidity ^0.4.22;\r\npragma experimental ABIEncoderV2;\r\n\r\nimport \"./Roles.sol\";\r\n\r\ncontract ColdStorageContract {\r\n    Roles public rc;\r\n    \r\n    constructor(address _address) public {\r\n        rc = Roles(_address);\r\n    }\r\n    \r\n    struct ColdStorage {\r\n        string ownerName;\r\n        int256 latitude;\r\n        int256 longitude;\r\n        uint256 capacity;\r\n        uint256 price;\r\n        bool isEligible;\r\n        address[] requests;\r\n        address[] approvedRequests;\r\n        address[] tenants;\r\n    }\r\n\r\n    mapping(address => ColdStorage) public coldStorages;\r\n    address[] public coldStorageAddresses;\r\n    address[] public unverifiedColdStorages;\r\n\r\n     modifier onlyGovernmentOfficial() {\r\n        require(rc.getRole(tx.origin) == rc.governmentID(), \"Only government officials can access\");\r\n        _;\r\n    }\r\n\r\n    modifier onlyAuthorisedActors(address _address) {\r\n        require(coldStorages[_address].isEligible == true || _address == tx.origin || rc.getRole(tx.origin) == rc.governmentID(), \"Unauthorised actor\");\r\n        _;\r\n    }\r\n\r\n    function addColdStorage(\r\n        string memory _ownerName,\r\n        int256 _latitude,\r\n        int256 _longitude,\r\n        uint256 _capacity,\r\n        uint256 _price\r\n    ) public {\r\n        ColdStorage storage coldStorage = coldStorages[tx.origin];\r\n        coldStorage.ownerName = _ownerName;\r\n        coldStorage.latitude = _latitude;\r\n        coldStorage.longitude = _longitude;\r\n        coldStorage.capacity = _capacity;\r\n        coldStorage.price = _price;\r\n        coldStorage.isEligible = false;\r\n        \r\n        unverifiedColdStorages.push(tx.origin);\r\n    }\r\n\r\n    function getColdStorages() public view returns (address[] memory) {\r\n        return coldStorageAddresses;\r\n    }\r\n\r\n    function getRequests(address _address) public view returns (address[] memory) {\r\n        require(msg.sender == _address);\r\n\r\n        return coldStorages[_address].requests;\r\n    }\r\n\r\n    function getAllCSrequestedByAddress(address _address)\r\n        public\r\n        view\r\n        returns (address[] memory)\r\n    {\r\n        address[] memory CSIDs = new address[](coldStorageAddresses.length);\r\n        uint256 pointer = 0;\r\n        \r\n        //loop to traverse through cold storages\r\n        for (uint256 i = 0; i < coldStorageAddresses.length; i++) {\r\n            for (uint256 j = 0; j < coldStorages[coldStorageAddresses[i]].requests.length;j++) {\r\n                if (coldStorages[coldStorageAddresses[i]].requests[j] == _address) {\r\n                    CSIDs[pointer++] = coldStorageAddresses[i];\r\n                    break;\r\n                }\r\n            }\r\n        }\r\n        return CSIDs;\r\n    }\r\n\r\n    function getAllCSapprovedForAddress(address _address)\r\n        public\r\n        view\r\n        returns (address[] memory)\r\n    {\r\n        address[] memory CSIDs = new address[](coldStorageAddresses.length);\r\n        uint256 pointer = 0;\r\n        \r\n        //loop to traverse through cold storages\r\n        for (uint256 i = 0; i < coldStorageAddresses.length; i++) {\r\n            for (uint256 j = 0; j < coldStorages[coldStorageAddresses[i]].approvedRequests.length; j++) {\r\n                if (coldStorages[coldStorageAddresses[i]].approvedRequests[j] == _address) {\r\n                    CSIDs[pointer++] = coldStorageAddresses[i];\r\n                    break;\r\n                }\r\n            }\r\n        }\r\n        return CSIDs;\r\n    }\r\n\r\n    function getColdStorage(address _address)\r\n        public onlyAuthorisedActors(_address)\r\n        view\r\n        returns (\r\n            string memory _ownerName,\r\n            int256 _latitude,\r\n            int256 _longitude,\r\n            uint256 _capacity,\r\n            uint256 _price\r\n        )\r\n    {\r\n        return (\r\n            coldStorages[_address].ownerName,\r\n            coldStorages[_address].latitude,\r\n            coldStorages[_address].longitude,\r\n            coldStorages[_address].capacity,\r\n            coldStorages[_address].price\r\n        );\r\n    }\r\n    \r\n    function getLocation(address _address) external view returns(int256, int256) {\r\n        return (coldStorages[_address].latitude, coldStorages[_address].longitude);\r\n    }\r\n    \r\n    function getColdStoragePrice(address _address) public view returns (uint256 _price) {\r\n        return coldStorages[_address].price;\r\n    }\r\n\r\n    function countColdStorages() public view returns (uint256) {\r\n        return coldStorageAddresses.length;\r\n    }\r\n\r\n    function getNumColdStorage(uint256 pos) public view returns(address) {\r\n        return coldStorageAddresses[pos];\r\n    }\r\n\r\n    function requestColdStorage(address _address) public {\r\n        //owner can't buy their own storage\r\n        require(msg.sender != _address);\r\n\r\n        if (address(msg.sender).balance >= coldStorages[_address].price) {\r\n            coldStorages[_address].requests.push(address(msg.sender));\r\n        }\r\n    }\r\n\r\n    function removeRequest(address _address, address _addressColdStorage) public {\r\n        address[] storage reqs = coldStorages[_addressColdStorage].requests;\r\n\r\n        bool isPresent = false;\r\n        uint256 reqIndex = 0;\r\n        uint256 i;\r\n        \r\n        for (i = 0; i < reqs.length; i++) {\r\n            if (reqs[i] == _address) {\r\n                isPresent = true;\r\n                reqIndex = i;\r\n                break;\r\n            }\r\n        }\r\n\r\n        if (isPresent) {\r\n            for (i = reqIndex; i < reqs.length - 1; i++) {\r\n                reqs[i] = reqs[i + 1];\r\n            }\r\n\r\n            delete reqs[reqs.length - 1];\r\n            coldStorages[_addressColdStorage].requests = reqs;\r\n        } else \r\n        return;\r\n    }\r\n\r\n    function removeApprovedRequest(address _address, address _addressColdStorage) public {\r\n        address[] storage appReqs = coldStorages[_addressColdStorage].approvedRequests;\r\n\r\n        bool isPresent = false;\r\n        uint256 reqIndex = 0;\r\n        uint256 i;\r\n\r\n        for (i = 0; i < appReqs.length; i++) {\r\n            if (appReqs[i] == _address) {\r\n                isPresent = true;\r\n                reqIndex = i;\r\n                break;\r\n            }\r\n        }\r\n\r\n        if (isPresent) {\r\n            for (i = reqIndex; i < appReqs.length - 1; i++) {\r\n                appReqs[i] = appReqs[i + 1];\r\n            }\r\n\r\n            delete appReqs[appReqs.length - 1];\r\n            coldStorages[_addressColdStorage].approvedRequests = appReqs;\r\n        } else \r\n        return;\r\n    }\r\n\r\n    function approveColdStorage(address _addressColdStorage, address _address) public {\r\n        require(msg.sender == _addressColdStorage);\r\n\r\n        coldStorages[_addressColdStorage].approvedRequests.push(_address);\r\n        removeRequest(_address, _addressColdStorage);\r\n    }\r\n\r\n    function getApprovedRequests(address _address)\r\n        public\r\n        view\r\n        returns (address[] memory)\r\n    {\r\n        require(msg.sender == _address);\r\n\r\n        return coldStorages[_address].approvedRequests;\r\n    }\r\n\r\n    function rentColdStorage(address _address) public {\r\n        coldStorages[_address].tenants.push(msg.sender);\r\n        removeApprovedRequest(msg.sender, _address);\r\n    }\r\n\r\n    function getRentedStorages(address _address)\r\n        public\r\n        view\r\n        returns (address[] memory)\r\n    {\r\n        address[] memory rentedIDs = new address[](coldStorageAddresses.length);\r\n        uint256 pointer = 0;\r\n        \r\n        for (uint256 i = 0; i < coldStorageAddresses.length; i++) {\r\n            for (uint256 j = 0; j < coldStorages[coldStorageAddresses[i]].tenants.length; j++) {\r\n                if (coldStorages[coldStorageAddresses[i]].tenants[j] == _address) {\r\n                    rentedIDs[pointer++] = coldStorageAddresses[i];\r\n                    break;\r\n                }\r\n            }\r\n        }\r\n        return rentedIDs;\r\n    }\r\n\r\n    function getTenants(address _address) public view returns (address[] memory) {\r\n        require(msg.sender == _address);\r\n        return coldStorages[_address].tenants;\r\n    }\r\n\r\n    /*//function to add new item to cold storage\r\n    function addItem(\r\n        address _address,\r\n        string memory _itemName,\r\n        uint256 _quantity\r\n    ) public {\r\n        coldStorages[_address].items[_itemName] = _quantity;\r\n        coldStorages[_address].itemNames.push(_itemName);\r\n    }\r\n\r\n    //function to view items\r\n    function getItemNames(uint256 _id) public view returns (string[] memory) {\r\n        return coldStorages[_id].itemNames;\r\n    }\r\n\r\n    function getItemQuantites(uint256 _id, string memory _itemName)\r\n        public\r\n        view\r\n        returns (uint256)\r\n    {\r\n        return coldStorages[_id].items[_itemName];\r\n    }\r\n\r\n    //function to get quantities of items*/\r\n    \r\n    function getUnverifiedColdStorages() public onlyGovernmentOfficial view returns (address[] memory) {\r\n        return unverifiedColdStorages;\r\n    }\r\n\r\n    function getNumUnverifiedColdStorages() public onlyGovernmentOfficial view returns (uint256) {\r\n        return unverifiedColdStorages.length;\r\n    }\r\n\r\n    function getUnverifiedColdStorage(uint256 pos) public onlyGovernmentOfficial view returns (address) {\r\n        return unverifiedColdStorages[pos];\r\n    }\r\n    \r\n    function setEligible(address _address) public onlyGovernmentOfficial {\r\n        for (uint256 i = 0 ; i < unverifiedColdStorages.length ; i++) {\r\n            if (unverifiedColdStorages[i] == _address) {\r\n                unverifiedColdStorages[i] = unverifiedColdStorages[unverifiedColdStorages.length-1];\r\n                delete unverifiedColdStorages[unverifiedColdStorages.length-1];\r\n                coldStorages[_address].isEligible = true;\r\n                unverifiedColdStorages.length--;\r\n                coldStorageAddresses.push(_address);\r\n                rc.addRole(_address, rc.coldStorageRoleID());\r\n                break;\r\n            }\r\n        }\r\n    }\r\n}\r\n",
  "sourcePath": "D:\\7thSemester\\CS491\\smart_agriculture_react\\contracts\\ColdStorageContract.sol",
  "compiler": {
    "name": "solc",
    "version": "0.4.26+commit.4563c3fc.Emscripten.clang"
  },
  "schemaVersion": "3.4.3",
  "updatedAt": "2021-12-15T14:40:53.356Z",
  "networkType": "ethereum",
  "devdoc": {
    "methods": {}
  },
  "userdoc": {
    "methods": {}
  }
}