{
  "contractName": "ColdStorageContract",
  "abi": [
    {
      "constant": true,
      "inputs": [
        {
          "name": "",
          "type": "uint256"
        }
      ],
      "name": "unverifiedColdStorages",
      "outputs": [
        {
          "name": "",
          "type": "address"
        }
      ],
      "payable": false,
      "stateMutability": "view",
      "type": "function"
    },
    {
      "constant": true,
      "inputs": [],
      "name": "rc",
      "outputs": [
        {
          "name": "",
          "type": "address"
        }
      ],
      "payable": false,
      "stateMutability": "view",
      "type": "function"
    },
    {
      "constant": true,
      "inputs": [
        {
          "name": "",
          "type": "address"
        }
      ],
      "name": "coldStorages",
      "outputs": [
        {
          "name": "ownerName",
          "type": "string"
        },
        {
          "name": "latitude",
          "type": "int256"
        },
        {
          "name": "longitude",
          "type": "int256"
        },
        {
          "name": "capacity",
          "type": "uint256"
        },
        {
          "name": "price",
          "type": "uint256"
        },
        {
          "name": "isEligible",
          "type": "bool"
        }
      ],
      "payable": false,
      "stateMutability": "view",
      "type": "function"
    },
    {
      "constant": true,
      "inputs": [
        {
          "name": "",
          "type": "uint256"
        }
      ],
      "name": "coldStorageAddresses",
      "outputs": [
        {
          "name": "",
          "type": "address"
        }
      ],
      "payable": false,
      "stateMutability": "view",
      "type": "function"
    },
    {
      "inputs": [
        {
          "name": "_address",
          "type": "address"
        }
      ],
      "payable": false,
      "stateMutability": "nonpayable",
      "type": "constructor"
    },
    {
      "constant": false,
      "inputs": [
        {
          "name": "_ownerName",
          "type": "string"
        },
        {
          "name": "_latitude",
          "type": "int256"
        },
        {
          "name": "_longitude",
          "type": "int256"
        },
        {
          "name": "_capacity",
          "type": "uint256"
        },
        {
          "name": "_price",
          "type": "uint256"
        }
      ],
      "name": "addColdStorage",
      "outputs": [],
      "payable": false,
      "stateMutability": "nonpayable",
      "type": "function"
    },
    {
      "constant": true,
      "inputs": [],
      "name": "getColdStorages",
      "outputs": [
        {
          "name": "",
          "type": "address[]"
        }
      ],
      "payable": false,
      "stateMutability": "view",
      "type": "function"
    },
    {
      "constant": true,
      "inputs": [
        {
          "name": "_address",
          "type": "address"
        }
      ],
      "name": "getRequests",
      "outputs": [
        {
          "name": "",
          "type": "address[]"
        }
      ],
      "payable": false,
      "stateMutability": "view",
      "type": "function"
    },
    {
      "constant": true,
      "inputs": [
        {
          "name": "_address",
          "type": "address"
        }
      ],
      "name": "getAllCSrequestedByAddress",
      "outputs": [
        {
          "name": "",
          "type": "address[]"
        }
      ],
      "payable": false,
      "stateMutability": "view",
      "type": "function"
    },
    {
      "constant": true,
      "inputs": [
        {
          "name": "_address",
          "type": "address"
        }
      ],
      "name": "getAllCSapprovedForAddress",
      "outputs": [
        {
          "name": "",
          "type": "address[]"
        }
      ],
      "payable": false,
      "stateMutability": "view",
      "type": "function"
    },
    {
      "constant": true,
      "inputs": [
        {
          "name": "_address",
          "type": "address"
        }
      ],
      "name": "getColdStorage",
      "outputs": [
        {
          "name": "_ownerName",
          "type": "string"
        },
        {
          "name": "_latitude",
          "type": "int256"
        },
        {
          "name": "_longitude",
          "type": "int256"
        },
        {
          "name": "_capacity",
          "type": "uint256"
        },
        {
          "name": "_price",
          "type": "uint256"
        }
      ],
      "payable": false,
      "stateMutability": "view",
      "type": "function"
    },
    {
      "constant": true,
      "inputs": [
        {
          "name": "_address",
          "type": "address"
        }
      ],
      "name": "getLocation",
      "outputs": [
        {
          "name": "",
          "type": "int256"
        },
        {
          "name": "",
          "type": "int256"
        }
      ],
      "payable": false,
      "stateMutability": "view",
      "type": "function"
    },
    {
      "constant": true,
      "inputs": [
        {
          "name": "_address",
          "type": "address"
        }
      ],
      "name": "getColdStoragePrice",
      "outputs": [
        {
          "name": "_price",
          "type": "uint256"
        }
      ],
      "payable": false,
      "stateMutability": "view",
      "type": "function"
    },
    {
      "constant": true,
      "inputs": [],
      "name": "countColdStorages",
      "outputs": [
        {
          "name": "",
          "type": "uint256"
        }
      ],
      "payable": false,
      "stateMutability": "view",
      "type": "function"
    },
    {
      "constant": false,
      "inputs": [
        {
          "name": "_address",
          "type": "address"
        }
      ],
      "name": "requestColdStorage",
      "outputs": [],
      "payable": false,
      "stateMutability": "nonpayable",
      "type": "function"
    },
    {
      "constant": false,
      "inputs": [
        {
          "name": "_address",
          "type": "address"
        },
        {
          "name": "_addressColdStorage",
          "type": "address"
        }
      ],
      "name": "removeRequest",
      "outputs": [],
      "payable": false,
      "stateMutability": "nonpayable",
      "type": "function"
    },
    {
      "constant": false,
      "inputs": [
        {
          "name": "_address",
          "type": "address"
        },
        {
          "name": "_addressColdStorage",
          "type": "address"
        }
      ],
      "name": "removeApprovedRequest",
      "outputs": [],
      "payable": false,
      "stateMutability": "nonpayable",
      "type": "function"
    },
    {
      "constant": false,
      "inputs": [
        {
          "name": "_addressColdStorage",
          "type": "address"
        },
        {
          "name": "_address",
          "type": "address"
        }
      ],
      "name": "approveColdStorage",
      "outputs": [],
      "payable": false,
      "stateMutability": "nonpayable",
      "type": "function"
    },
    {
      "constant": true,
      "inputs": [
        {
          "name": "_address",
          "type": "address"
        }
      ],
      "name": "getApprovedRequests",
      "outputs": [
        {
          "name": "",
          "type": "address[]"
        }
      ],
      "payable": false,
      "stateMutability": "view",
      "type": "function"
    },
    {
      "constant": false,
      "inputs": [
        {
          "name": "_address",
          "type": "address"
        }
      ],
      "name": "rentColdStorage",
      "outputs": [],
      "payable": false,
      "stateMutability": "nonpayable",
      "type": "function"
    },
    {
      "constant": true,
      "inputs": [
        {
          "name": "_address",
          "type": "address"
        }
      ],
      "name": "getRentedStorages",
      "outputs": [
        {
          "name": "",
          "type": "address[]"
        }
      ],
      "payable": false,
      "stateMutability": "view",
      "type": "function"
    },
    {
      "constant": true,
      "inputs": [
        {
          "name": "_address",
          "type": "address"
        }
      ],
      "name": "getTenants",
      "outputs": [
        {
          "name": "",
          "type": "address[]"
        }
      ],
      "payable": false,
      "stateMutability": "view",
      "type": "function"
    },
    {
      "constant": true,
      "inputs": [],
      "name": "getUnverifiedColdStorages",
      "outputs": [
        {
          "name": "",
          "type": "address[]"
        }
      ],
      "payable": false,
      "stateMutability": "view",
      "type": "function"
    },
    {
      "constant": true,
      "inputs": [],
      "name": "getNumUnverifiedColdStorages",
      "outputs": [
        {
          "name": "",
          "type": "uint256"
        }
      ],
      "payable": false,
      "stateMutability": "view",
      "type": "function"
    },
    {
      "constant": true,
      "inputs": [
        {
          "name": "pos",
          "type": "uint256"
        }
      ],
      "name": "getUnverifiedColdStorage",
      "outputs": [
        {
          "name": "",
          "type": "address"
        }
      ],
      "payable": false,
      "stateMutability": "view",
      "type": "function"
    },
    {
      "constant": false,
      "inputs": [
        {
          "name": "_address",
          "type": "address"
        }
      ],
      "name": "setEligible",
      "outputs": [],
      "payable": false,
      "stateMutability": "nonpayable",
      "type": "function"
    }
  ],
  "bytecode": "0x60806040523480156200001157600080fd5b50604051602080620035cf833981018060405262000033919081019062000090565b806000806101000a81548173ffffffffffffffffffffffffffffffffffffffff021916908373ffffffffffffffffffffffffffffffffffffffff16021790555050620000dc565b6000620000888251620000bc565b905092915050565b600060208284031215620000a357600080fd5b6000620000b3848285016200007a565b91505092915050565b600073ffffffffffffffffffffffffffffffffffffffff82169050919050565b6134e380620000ec6000396000f300608060405260043610610148576000357c0100000000000000000000000000000000000000000000000000000000900463ffffffff1680621282761461014d578063051e25ac146101785780630b411f44146101b557806311619c94146101f257806312f773321461021d5780631bf1589814610248578063517aea2a14610273578063550966a6146102b05780635839cb35146102ed578063782cbf5f146103165780637d3845cc1461033f578063804e44f31461037c5780639409248b146103b957806398c18f2f146103e2578063a0a38e1f14610424578063ba778bf914610461578063c3a319051461049e578063d0940354146104c7578063d9e0dc5914610508578063de7ff32514610546578063e22dbe8814610583578063e476f9f5146105c0578063f904cf04146105e9578063fe8806f514610612578063fef7fa6a1461063b575b600080fd5b34801561015957600080fd5b50610162610666565b60405161016f91906131b9565b60405180910390f35b34801561018457600080fd5b5061019f600480360361019a9190810190612f7d565b6106f4565b6040516101ac9190613175565b60405180910390f35b3480156101c157600080fd5b506101dc60048036036101d79190810190612e89565b610732565b6040516101e991906131b9565b60405180910390f35b3480156101fe57600080fd5b506102076109ad565b6040516102149190613321565b60405180910390f35b34801561022957600080fd5b506102326109ba565b60405161023f91906131db565b60405180910390f35b34801561025457600080fd5b5061025d6109df565b60405161026a9190613321565b60405180910390f35b34801561027f57600080fd5b5061029a60048036036102959190810190612e89565b610bb3565b6040516102a791906131b9565b60405180910390f35b3480156102bc57600080fd5b506102d760048036036102d29190810190612f7d565b610cbd565b6040516102e49190613175565b60405180910390f35b3480156102f957600080fd5b50610314600480360361030f9190810190612eb2565b610ec7565b005b34801561032257600080fd5b5061033d60048036036103389190810190612e89565b61110e565b005b34801561034b57600080fd5b5061036660048036036103619190810190612e89565b611255565b60405161037391906131b9565b60405180910390f35b34801561038857600080fd5b506103a3600480360361039e9190810190612e89565b61135f565b6040516103b091906131b9565b60405180910390f35b3480156103c557600080fd5b506103e060048036036103db9190810190612eee565b611469565b005b3480156103ee57600080fd5b5061040960048036036104049190810190612e89565b611574565b60405161041b96959493929190613279565b60405180910390f35b34801561043057600080fd5b5061044b60048036036104469190810190612f7d565b611655565b6040516104589190613175565b60405180910390f35b34801561046d57600080fd5b5061048860048036036104839190810190612e89565b611693565b6040516104959190613321565b60405180910390f35b3480156104aa57600080fd5b506104c560048036036104c09190810190612e89565b6116df565b005b3480156104d357600080fd5b506104ee60048036036104e99190810190612e89565b611792565b6040516104ff95949392919061321f565b60405180910390f35b34801561051457600080fd5b5061052f600480360361052a9190810190612e89565b611bf4565b60405161053d9291906131f6565b60405180910390f35b34801561055257600080fd5b5061056d60048036036105689190810190612e89565b611c86565b60405161057a91906131b9565b60405180910390f35b34801561058f57600080fd5b506105aa60048036036105a59190810190612e89565b611f01565b6040516105b791906131b9565b60405180910390f35b3480156105cc57600080fd5b506105e760048036036105e29190810190612eb2565b61217c565b005b3480156105f557600080fd5b50610610600480360361060b9190810190612e89565b61226a565b005b34801561061e57600080fd5b5061063960048036036106349190810190612eb2565b6127e1565b005b34801561064757600080fd5b50610650612a28565b60405161065d91906131b9565b60405180910390f35b606060028054806020026020016040519081016040528092919081815260200182805480156106ea57602002820191906000526020600020905b8160009054906101000a900473ffffffffffffffffffffffffffffffffffffffff1673ffffffffffffffffffffffffffffffffffffffff16815260200190600101908083116106a0575b5050505050905090565b60038181548110151561070357fe5b906000526020600020016000915054906101000a900473ffffffffffffffffffffffffffffffffffffffff1681565b606080600080600060028054905060405190808252806020026020018201604052801561076e5781602001602082028038833980820191505090505b50935060009250600091505b6002805490508210156109a157600090505b6001600060028481548110151561079f57fe5b9060005260206000200160009054906101000a900473ffffffffffffffffffffffffffffffffffffffff1673ffffffffffffffffffffffffffffffffffffffff1673ffffffffffffffffffffffffffffffffffffffff16815260200190815260200160002060070180549050811015610994578573ffffffffffffffffffffffffffffffffffffffff166001600060028581548110151561083c57fe5b9060005260206000200160009054906101000a900473ffffffffffffffffffffffffffffffffffffffff1673ffffffffffffffffffffffffffffffffffffffff1673ffffffffffffffffffffffffffffffffffffffff168152602001908152602001600020600701828154811015156108b157fe5b9060005260206000200160009054906101000a900473ffffffffffffffffffffffffffffffffffffffff1673ffffffffffffffffffffffffffffffffffffffff1614156109875760028281548110151561090757fe5b9060005260206000200160009054906101000a900473ffffffffffffffffffffffffffffffffffffffff16848480600101955081518110151561094657fe5b9060200190602002019073ffffffffffffffffffffffffffffffffffffffff16908173ffffffffffffffffffffffffffffffffffffffff1681525050610994565b808060010191505061078c565b818060010192505061077a565b83945050505050919050565b6000600280549050905090565b6000809054906101000a900473ffffffffffffffffffffffffffffffffffffffff1681565b60008060009054906101000a900473ffffffffffffffffffffffffffffffffffffffff1673ffffffffffffffffffffffffffffffffffffffff166346fb5b9c6040518163ffffffff167c0100000000000000000000000000000000000000000000000000000000028152600401602060405180830381600087803b158015610a6657600080fd5b505af1158015610a7a573d6000803e3d6000fd5b505050506040513d601f19601f82011682018060405250610a9e9190810190612fa6565b6000809054906101000a900473ffffffffffffffffffffffffffffffffffffffff1673ffffffffffffffffffffffffffffffffffffffff166344276733326040518263ffffffff167c0100000000000000000000000000000000000000000000000000000000028152600401610b149190613175565b602060405180830381600087803b158015610b2e57600080fd5b505af1158015610b42573d6000803e3d6000fd5b505050506040513d601f19601f82011682018060405250610b669190810190612fa6565b141515610ba8576040517f08c379a0000000000000000000000000000000000000000000000000000000008152600401610b9f90613301565b60405180910390fd5b600380549050905090565b60608173ffffffffffffffffffffffffffffffffffffffff163373ffffffffffffffffffffffffffffffffffffffff16141515610bef57600080fd5b600160008373ffffffffffffffffffffffffffffffffffffffff1673ffffffffffffffffffffffffffffffffffffffff168152602001908152602001600020600701805480602002602001604051908101604052809291908181526020018280548015610cb157602002820191906000526020600020905b8160009054906101000a900473ffffffffffffffffffffffffffffffffffffffff1673ffffffffffffffffffffffffffffffffffffffff1681526020019060010190808311610c67575b50505050509050919050565b60008060009054906101000a900473ffffffffffffffffffffffffffffffffffffffff1673ffffffffffffffffffffffffffffffffffffffff166346fb5b9c6040518163ffffffff167c0100000000000000000000000000000000000000000000000000000000028152600401602060405180830381600087803b158015610d4457600080fd5b505af1158015610d58573d6000803e3d6000fd5b505050506040513d601f19601f82011682018060405250610d7c9190810190612fa6565b6000809054906101000a900473ffffffffffffffffffffffffffffffffffffffff1673ffffffffffffffffffffffffffffffffffffffff166344276733326040518263ffffffff167c0100000000000000000000000000000000000000000000000000000000028152600401610df29190613175565b602060405180830381600087803b158015610e0c57600080fd5b505af1158015610e20573d6000803e3d6000fd5b505050506040513d601f19601f82011682018060405250610e449190810190612fa6565b141515610e86576040517f08c379a0000000000000000000000000000000000000000000000000000000008152600401610e7d90613301565b60405180910390fd5b600382815481101515610e9557fe5b9060005260206000200160009054906101000a900473ffffffffffffffffffffffffffffffffffffffff169050919050565b600080600080600160008673ffffffffffffffffffffffffffffffffffffffff1673ffffffffffffffffffffffffffffffffffffffff16815260200190815260200160002060070193506000925060009150600090505b8380549050811015610faf578573ffffffffffffffffffffffffffffffffffffffff168482815481101515610f4f57fe5b9060005260206000200160009054906101000a900473ffffffffffffffffffffffffffffffffffffffff1673ffffffffffffffffffffffffffffffffffffffff161415610fa25760019250809150610faf565b8080600101915050610f1e565b8215611100578190505b6001848054905003811015611067578360018201815481101515610fd957fe5b9060005260206000200160009054906101000a900473ffffffffffffffffffffffffffffffffffffffff16848281548110151561101257fe5b9060005260206000200160006101000a81548173ffffffffffffffffffffffffffffffffffffffff021916908373ffffffffffffffffffffffffffffffffffffffff1602179055508080600101915050610fb9565b83600185805490500381548110151561107c57fe5b9060005260206000200160006101000a81549073ffffffffffffffffffffffffffffffffffffffff021916905583600160008773ffffffffffffffffffffffffffffffffffffffff1673ffffffffffffffffffffffffffffffffffffffff1681526020019081526020016000206007019080546110fa929190612c7d565b50611105565b611106565b5b505050505050565b8073ffffffffffffffffffffffffffffffffffffffff163373ffffffffffffffffffffffffffffffffffffffff161415151561114957600080fd5b600160008273ffffffffffffffffffffffffffffffffffffffff1673ffffffffffffffffffffffffffffffffffffffff168152602001908152602001600020600401543373ffffffffffffffffffffffffffffffffffffffff163110151561125257600160008273ffffffffffffffffffffffffffffffffffffffff1673ffffffffffffffffffffffffffffffffffffffff1681526020019081526020016000206006013390806001815401808255809150509060018203906000526020600020016000909192909190916101000a81548173ffffffffffffffffffffffffffffffffffffffff021916908373ffffffffffffffffffffffffffffffffffffffff160217905550505b50565b60608173ffffffffffffffffffffffffffffffffffffffff163373ffffffffffffffffffffffffffffffffffffffff1614151561129157600080fd5b600160008373ffffffffffffffffffffffffffffffffffffffff1673ffffffffffffffffffffffffffffffffffffffff16815260200190815260200160002060080180548060200260200160405190810160405280929190818152602001828054801561135357602002820191906000526020600020905b8160009054906101000a900473ffffffffffffffffffffffffffffffffffffffff1673ffffffffffffffffffffffffffffffffffffffff1681526020019060010190808311611309575b50505050509050919050565b60608173ffffffffffffffffffffffffffffffffffffffff163373ffffffffffffffffffffffffffffffffffffffff1614151561139b57600080fd5b600160008373ffffffffffffffffffffffffffffffffffffffff1673ffffffffffffffffffffffffffffffffffffffff16815260200190815260200160002060060180548060200260200160405190810160405280929190818152602001828054801561145d57602002820191906000526020600020905b8160009054906101000a900473ffffffffffffffffffffffffffffffffffffffff1673ffffffffffffffffffffffffffffffffffffffff1681526020019060010190808311611413575b50505050509050919050565b6000600160003273ffffffffffffffffffffffffffffffffffffffff1673ffffffffffffffffffffffffffffffffffffffff1681526020019081526020016000209050858160000190805190602001906114c4929190612ccf565b5084816001018190555083816002018190555082816003018190555081816004018190555060008160050160006101000a81548160ff02191690831515021790555060033290806001815401808255809150509060018203906000526020600020016000909192909190916101000a81548173ffffffffffffffffffffffffffffffffffffffff021916908373ffffffffffffffffffffffffffffffffffffffff16021790555050505050505050565b6001602052806000526040600020600091509050806000018054600181600116156101000203166002900480601f0160208091040260200160405190810160405280929190818152602001828054600181600116156101000203166002900480156116205780601f106115f557610100808354040283529160200191611620565b820191906000526020600020905b81548152906001019060200180831161160357829003601f168201915b5050505050908060010154908060020154908060030154908060040154908060050160009054906101000a900460ff16905086565b60028181548110151561166457fe5b906000526020600020016000915054906101000a900473ffffffffffffffffffffffffffffffffffffffff1681565b6000600160008373ffffffffffffffffffffffffffffffffffffffff1673ffffffffffffffffffffffffffffffffffffffff168152602001908152602001600020600401549050919050565b600160008273ffffffffffffffffffffffffffffffffffffffff1673ffffffffffffffffffffffffffffffffffffffff1681526020019081526020016000206008013390806001815401808255809150509060018203906000526020600020016000909192909190916101000a81548173ffffffffffffffffffffffffffffffffffffffff021916908373ffffffffffffffffffffffffffffffffffffffff1602179055505061178f3382610ec7565b50565b60606000806000808560011515600160008373ffffffffffffffffffffffffffffffffffffffff1673ffffffffffffffffffffffffffffffffffffffff16815260200190815260200160002060050160009054906101000a900460ff161515148061182857503273ffffffffffffffffffffffffffffffffffffffff168173ffffffffffffffffffffffffffffffffffffffff16145b806119b557506000809054906101000a900473ffffffffffffffffffffffffffffffffffffffff1673ffffffffffffffffffffffffffffffffffffffff166346fb5b9c6040518163ffffffff167c0100000000000000000000000000000000000000000000000000000000028152600401602060405180830381600087803b1580156118b357600080fd5b505af11580156118c7573d6000803e3d6000fd5b505050506040513d601f19601f820116820180604052506118eb9190810190612fa6565b6000809054906101000a900473ffffffffffffffffffffffffffffffffffffffff1673ffffffffffffffffffffffffffffffffffffffff166344276733326040518263ffffffff167c01000000000000000000000000000000000000000000000000000000000281526004016119619190613175565b602060405180830381600087803b15801561197b57600080fd5b505af115801561198f573d6000803e3d6000fd5b505050506040513d601f19601f820116820180604052506119b39190810190612fa6565b145b15156119f6576040517f08c379a00000000000000000000000000000000000000000000000000000000081526004016119ed906132e1565b60405180910390fd5b600160008873ffffffffffffffffffffffffffffffffffffffff1673ffffffffffffffffffffffffffffffffffffffff168152602001908152602001600020600001600160008973ffffffffffffffffffffffffffffffffffffffff1673ffffffffffffffffffffffffffffffffffffffff16815260200190815260200160002060010154600160008a73ffffffffffffffffffffffffffffffffffffffff1673ffffffffffffffffffffffffffffffffffffffff16815260200190815260200160002060020154600160008b73ffffffffffffffffffffffffffffffffffffffff1673ffffffffffffffffffffffffffffffffffffffff16815260200190815260200160002060030154600160008c73ffffffffffffffffffffffffffffffffffffffff1673ffffffffffffffffffffffffffffffffffffffff16815260200190815260200160002060040154848054600181600116156101000203166002900480601f016020809104026020016040519081016040528092919081815260200182805460018160011615610100020316600290048015611bd95780601f10611bae57610100808354040283529160200191611bd9565b820191906000526020600020905b815481529060010190602001808311611bbc57829003601f168201915b50505050509450955095509550955095505091939590929450565b600080600160008473ffffffffffffffffffffffffffffffffffffffff1673ffffffffffffffffffffffffffffffffffffffff16815260200190815260200160002060010154600160008573ffffffffffffffffffffffffffffffffffffffff1673ffffffffffffffffffffffffffffffffffffffff1681526020019081526020016000206002015491509150915091565b6060806000806000600280549050604051908082528060200260200182016040528015611cc25781602001602082028038833980820191505090505b50935060009250600091505b600280549050821015611ef557600090505b60016000600284815481101515611cf357fe5b9060005260206000200160009054906101000a900473ffffffffffffffffffffffffffffffffffffffff1673ffffffffffffffffffffffffffffffffffffffff1673ffffffffffffffffffffffffffffffffffffffff16815260200190815260200160002060060180549050811015611ee8578573ffffffffffffffffffffffffffffffffffffffff1660016000600285815481101515611d9057fe5b9060005260206000200160009054906101000a900473ffffffffffffffffffffffffffffffffffffffff1673ffffffffffffffffffffffffffffffffffffffff1673ffffffffffffffffffffffffffffffffffffffff16815260200190815260200160002060060182815481101515611e0557fe5b9060005260206000200160009054906101000a900473ffffffffffffffffffffffffffffffffffffffff1673ffffffffffffffffffffffffffffffffffffffff161415611edb57600282815481101515611e5b57fe5b9060005260206000200160009054906101000a900473ffffffffffffffffffffffffffffffffffffffff168484806001019550815181101515611e9a57fe5b9060200190602002019073ffffffffffffffffffffffffffffffffffffffff16908173ffffffffffffffffffffffffffffffffffffffff1681525050611ee8565b8080600101915050611ce0565b8180600101925050611cce565b83945050505050919050565b6060806000806000600280549050604051908082528060200260200182016040528015611f3d5781602001602082028038833980820191505090505b50935060009250600091505b60028054905082101561217057600090505b60016000600284815481101515611f6e57fe5b9060005260206000200160009054906101000a900473ffffffffffffffffffffffffffffffffffffffff1673ffffffffffffffffffffffffffffffffffffffff1673ffffffffffffffffffffffffffffffffffffffff16815260200190815260200160002060080180549050811015612163578573ffffffffffffffffffffffffffffffffffffffff166001600060028581548110151561200b57fe5b9060005260206000200160009054906101000a900473ffffffffffffffffffffffffffffffffffffffff1673ffffffffffffffffffffffffffffffffffffffff1673ffffffffffffffffffffffffffffffffffffffff1681526020019081526020016000206008018281548110151561208057fe5b9060005260206000200160009054906101000a900473ffffffffffffffffffffffffffffffffffffffff1673ffffffffffffffffffffffffffffffffffffffff161415612156576002828154811015156120d657fe5b9060005260206000200160009054906101000a900473ffffffffffffffffffffffffffffffffffffffff16848480600101955081518110151561211557fe5b9060200190602002019073ffffffffffffffffffffffffffffffffffffffff16908173ffffffffffffffffffffffffffffffffffffffff1681525050612163565b8080600101915050611f5b565b8180600101925050611f49565b83945050505050919050565b8173ffffffffffffffffffffffffffffffffffffffff163373ffffffffffffffffffffffffffffffffffffffff161415156121b657600080fd5b600160008373ffffffffffffffffffffffffffffffffffffffff1673ffffffffffffffffffffffffffffffffffffffff1681526020019081526020016000206007018190806001815401808255809150509060018203906000526020600020016000909192909190916101000a81548173ffffffffffffffffffffffffffffffffffffffff021916908373ffffffffffffffffffffffffffffffffffffffff1602179055505061226681836127e1565b5050565b60008060009054906101000a900473ffffffffffffffffffffffffffffffffffffffff1673ffffffffffffffffffffffffffffffffffffffff166346fb5b9c6040518163ffffffff167c0100000000000000000000000000000000000000000000000000000000028152600401602060405180830381600087803b1580156122f157600080fd5b505af1158015612305573d6000803e3d6000fd5b505050506040513d601f19601f820116820180604052506123299190810190612fa6565b6000809054906101000a900473ffffffffffffffffffffffffffffffffffffffff1673ffffffffffffffffffffffffffffffffffffffff166344276733326040518263ffffffff167c010000000000000000000000000000000000000000000000000000000002815260040161239f9190613175565b602060405180830381600087803b1580156123b957600080fd5b505af11580156123cd573d6000803e3d6000fd5b505050506040513d601f19601f820116820180604052506123f19190810190612fa6565b141515612433576040517f08c379a000000000000000000000000000000000000000000000000000000000815260040161242a90613301565b60405180910390fd5b600090505b6003805490508110156127dd578173ffffffffffffffffffffffffffffffffffffffff1660038281548110151561246b57fe5b9060005260206000200160009054906101000a900473ffffffffffffffffffffffffffffffffffffffff1673ffffffffffffffffffffffffffffffffffffffff1614156127d05760036001600380549050038154811015156124c957fe5b9060005260206000200160009054906101000a900473ffffffffffffffffffffffffffffffffffffffff1660038281548110151561250357fe5b9060005260206000200160006101000a81548173ffffffffffffffffffffffffffffffffffffffff021916908373ffffffffffffffffffffffffffffffffffffffff160217905550600360016003805490500381548110151561256257fe5b9060005260206000200160006101000a81549073ffffffffffffffffffffffffffffffffffffffff021916905560018060008473ffffffffffffffffffffffffffffffffffffffff1673ffffffffffffffffffffffffffffffffffffffff16815260200190815260200160002060050160006101000a81548160ff02191690831515021790555060038054809190600190036125fe9190612d4f565b5060028290806001815401808255809150509060018203906000526020600020016000909192909190916101000a81548173ffffffffffffffffffffffffffffffffffffffff021916908373ffffffffffffffffffffffffffffffffffffffff160217905550506000809054906101000a900473ffffffffffffffffffffffffffffffffffffffff1673ffffffffffffffffffffffffffffffffffffffff16637fde1c8a836000809054906101000a900473ffffffffffffffffffffffffffffffffffffffff1673ffffffffffffffffffffffffffffffffffffffff1663bf4fd3696040518163ffffffff167c0100000000000000000000000000000000000000000000000000000000028152600401602060405180830381600087803b15801561272857600080fd5b505af115801561273c573d6000803e3d6000fd5b505050506040513d601f19601f820116820180604052506127609190810190612fa6565b6040518363ffffffff167c0100000000000000000000000000000000000000000000000000000000028152600401612799929190613190565b600060405180830381600087803b1580156127b357600080fd5b505af11580156127c7573d6000803e3d6000fd5b505050506127dd565b8080600101915050612438565b5050565b600080600080600160008673ffffffffffffffffffffffffffffffffffffffff1673ffffffffffffffffffffffffffffffffffffffff16815260200190815260200160002060060193506000925060009150600090505b83805490508110156128c9578573ffffffffffffffffffffffffffffffffffffffff16848281548110151561286957fe5b9060005260206000200160009054906101000a900473ffffffffffffffffffffffffffffffffffffffff1673ffffffffffffffffffffffffffffffffffffffff1614156128bc57600192508091506128c9565b8080600101915050612838565b8215612a1a578190505b60018480549050038110156129815783600182018154811015156128f357fe5b9060005260206000200160009054906101000a900473ffffffffffffffffffffffffffffffffffffffff16848281548110151561292c57fe5b9060005260206000200160006101000a81548173ffffffffffffffffffffffffffffffffffffffff021916908373ffffffffffffffffffffffffffffffffffffffff16021790555080806001019150506128d3565b83600185805490500381548110151561299657fe5b9060005260206000200160006101000a81549073ffffffffffffffffffffffffffffffffffffffff021916905583600160008773ffffffffffffffffffffffffffffffffffffffff1673ffffffffffffffffffffffffffffffffffffffff168152602001908152602001600020600601908054612a14929190612c7d565b50612a1f565b612a20565b5b505050505050565b60606000809054906101000a900473ffffffffffffffffffffffffffffffffffffffff1673ffffffffffffffffffffffffffffffffffffffff166346fb5b9c6040518163ffffffff167c0100000000000000000000000000000000000000000000000000000000028152600401602060405180830381600087803b158015612aaf57600080fd5b505af1158015612ac3573d6000803e3d6000fd5b505050506040513d601f19601f82011682018060405250612ae79190810190612fa6565b6000809054906101000a900473ffffffffffffffffffffffffffffffffffffffff1673ffffffffffffffffffffffffffffffffffffffff166344276733326040518263ffffffff167c0100000000000000000000000000000000000000000000000000000000028152600401612b5d9190613175565b602060405180830381600087803b158015612b7757600080fd5b505af1158015612b8b573d6000803e3d6000fd5b505050506040513d601f19601f82011682018060405250612baf9190810190612fa6565b141515612bf1576040517f08c379a0000000000000000000000000000000000000000000000000000000008152600401612be890613301565b60405180910390fd5b6003805480602002602001604051908101604052809291908181526020018280548015612c7357602002820191906000526020600020905b8160009054906101000a900473ffffffffffffffffffffffffffffffffffffffff1673ffffffffffffffffffffffffffffffffffffffff1681526020019060010190808311612c29575b5050505050905090565b828054828255906000526020600020908101928215612cbe5760005260206000209182015b82811115612cbd578254825591600101919060010190612ca2565b5b509050612ccb9190612d7b565b5090565b828054600181600116156101000203166002900490600052602060002090601f016020900481019282601f10612d1057805160ff1916838001178555612d3e565b82800160010185558215612d3e579182015b82811115612d3d578251825591602001919060010190612d22565b5b509050612d4b9190612dbe565b5090565b815481835581811115612d7657818360005260206000209182019101612d759190612dbe565b5b505050565b612dbb91905b80821115612db757600081816101000a81549073ffffffffffffffffffffffffffffffffffffffff021916905550600101612d81565b5090565b90565b612de091905b80821115612ddc576000816000905550600101612dc4565b5090565b90565b6000612def8235613410565b905092915050565b6000612e038235613430565b905092915050565b600082601f8301121515612e1e57600080fd5b8135612e31612e2c82613369565b61333c565b91508082526020830160208301858383011115612e4d57600080fd5b612e58838284613456565b50505092915050565b6000612e6d823561343a565b905092915050565b6000612e81825161343a565b905092915050565b600060208284031215612e9b57600080fd5b6000612ea984828501612de3565b91505092915050565b60008060408385031215612ec557600080fd5b6000612ed385828601612de3565b9250506020612ee485828601612de3565b9150509250929050565b600080600080600060a08688031215612f0657600080fd5b600086013567ffffffffffffffff811115612f2057600080fd5b612f2c88828901612e0b565b9550506020612f3d88828901612df7565b9450506040612f4e88828901612df7565b9350506060612f5f88828901612e61565b9250506080612f7088828901612e61565b9150509295509295909350565b600060208284031215612f8f57600080fd5b6000612f9d84828501612e61565b91505092915050565b600060208284031215612fb857600080fd5b6000612fc684828501612e75565b91505092915050565b612fd8816133d0565b82525050565b6000612fe9826133a2565b808452602084019350612ffb83613395565b60005b8281101561302d57613011868351612fcf565b61301a826133c3565b9150602086019550600181019050612ffe565b50849250505092915050565b613042816133f0565b82525050565b61305181613444565b82525050565b613060816133fc565b82525050565b6000613071826133b8565b808452613085816020860160208601613465565b61308e81613498565b602085010191505092915050565b60006130a7826133ad565b8084526130bb816020860160208601613465565b6130c481613498565b602085010191505092915050565b6000601282527f556e617574686f7269736564206163746f7200000000000000000000000000006020830152604082019050919050565b6000602482527f4f6e6c7920676f7665726e6d656e74206f6666696369616c732063616e20616360208301527f63657373000000000000000000000000000000000000000000000000000000006040830152606082019050919050565b61316f81613406565b82525050565b600060208201905061318a6000830184612fcf565b92915050565b60006040820190506131a56000830185612fcf565b6131b26020830184613166565b9392505050565b600060208201905081810360008301526131d38184612fde565b905092915050565b60006020820190506131f06000830184613048565b92915050565b600060408201905061320b6000830185613057565b6132186020830184613057565b9392505050565b600060a08201905081810360008301526132398188613066565b90506132486020830187613057565b6132556040830186613057565b6132626060830185613166565b61326f6080830184613166565b9695505050505050565b600060c0820190508181036000830152613293818961309c565b90506132a26020830188613057565b6132af6040830187613057565b6132bc6060830186613166565b6132c96080830185613166565b6132d660a0830184613039565b979650505050505050565b600060208201905081810360008301526132fa816130d2565b9050919050565b6000602082019050818103600083015261331a81613109565b9050919050565b60006020820190506133366000830184613166565b92915050565b6000604051905081810181811067ffffffffffffffff8211171561335f57600080fd5b8060405250919050565b600067ffffffffffffffff82111561338057600080fd5b601f19601f8301169050602081019050919050565b6000602082019050919050565b600081519050919050565b600081519050919050565b600081519050919050565b6000602082019050919050565b600073ffffffffffffffffffffffffffffffffffffffff82169050919050565b60008115159050919050565b6000819050919050565b6000819050919050565b600073ffffffffffffffffffffffffffffffffffffffff82169050919050565b6000819050919050565b6000819050919050565b600061344f826133d0565b9050919050565b82818337600083830152505050565b60005b83811015613483578082015181840152602081019050613468565b83811115613492576000848401525b50505050565b6000601f19601f83011690509190505600a265627a7a723058200395e9370b63064f3475c5f59ffc8853f873ccde6e9970d1afba73b2f849849c6c6578706572696d656e74616cf50037",
  "source": "// SPDX-License-Identifier: GPL-3.0\r\npragma solidity ^0.4.22;\r\npragma experimental ABIEncoderV2;\r\n\r\nimport \"./Roles.sol\";\r\n\r\ncontract ColdStorageContract {\r\n    Roles public rc;\r\n    \r\n    constructor(address _address) public {\r\n        rc = Roles(_address);\r\n    }\r\n    \r\n    struct ColdStorage {\r\n        string ownerName;\r\n        int256 latitude;\r\n        int256 longitude;\r\n        uint256 capacity;\r\n        uint256 price;\r\n        bool isEligible;\r\n        address[] requests;\r\n        address[] approvedRequests;\r\n        address[] tenants;\r\n    }\r\n\r\n    mapping(address => ColdStorage) public coldStorages;\r\n    address[] public coldStorageAddresses;\r\n    address[] public unverifiedColdStorages;\r\n\r\n     modifier onlyGovernmentOfficial() {\r\n        require(rc.getRole(tx.origin) == rc.governmentID(), \"Only government officials can access\");\r\n        _;\r\n    }\r\n\r\n    modifier onlyAuthorisedActors(address _address) {\r\n        require(coldStorages[_address].isEligible == true || _address == tx.origin || rc.getRole(tx.origin) == rc.governmentID(), \"Unauthorised actor\");\r\n        _;\r\n    }\r\n\r\n    function addColdStorage(\r\n        string memory _ownerName,\r\n        int256 _latitude,\r\n        int256 _longitude,\r\n        uint256 _capacity,\r\n        uint256 _price\r\n    ) public {\r\n        ColdStorage storage coldStorage = coldStorages[tx.origin];\r\n        coldStorage.ownerName = _ownerName;\r\n        coldStorage.latitude = _latitude;\r\n        coldStorage.longitude = _longitude;\r\n        coldStorage.capacity = _capacity;\r\n        coldStorage.price = _price;\r\n        coldStorage.isEligible = false;\r\n        \r\n        unverifiedColdStorages.push(tx.origin);\r\n    }\r\n\r\n    function getColdStorages() public view returns (address[] memory) {\r\n        return coldStorageAddresses;\r\n    }\r\n\r\n    function getRequests(address _address) public view returns (address[] memory) {\r\n        require(msg.sender == _address);\r\n\r\n        return coldStorages[_address].requests;\r\n    }\r\n\r\n    function getAllCSrequestedByAddress(address _address)\r\n        public\r\n        view\r\n        returns (address[] memory)\r\n    {\r\n        address[] memory CSIDs = new address[](coldStorageAddresses.length);\r\n        uint256 pointer = 0;\r\n        \r\n        //loop to traverse through cold storages\r\n        for (uint256 i = 0; i < coldStorageAddresses.length; i++) {\r\n            for (uint256 j = 0; j < coldStorages[coldStorageAddresses[i]].requests.length;j++) {\r\n                if (coldStorages[coldStorageAddresses[i]].requests[j] == _address) {\r\n                    CSIDs[pointer++] = coldStorageAddresses[i];\r\n                    break;\r\n                }\r\n            }\r\n        }\r\n        return CSIDs;\r\n    }\r\n\r\n    function getAllCSapprovedForAddress(address _address)\r\n        public\r\n        view\r\n        returns (address[] memory)\r\n    {\r\n        address[] memory CSIDs = new address[](coldStorageAddresses.length);\r\n        uint256 pointer = 0;\r\n        \r\n        //loop to traverse through cold storages\r\n        for (uint256 i = 0; i < coldStorageAddresses.length; i++) {\r\n            for (uint256 j = 0; j < coldStorages[coldStorageAddresses[i]].approvedRequests.length; j++) {\r\n                if (coldStorages[coldStorageAddresses[i]].approvedRequests[j] == _address) {\r\n                    CSIDs[pointer++] = coldStorageAddresses[i];\r\n                    break;\r\n                }\r\n            }\r\n        }\r\n        return CSIDs;\r\n    }\r\n\r\n    function getColdStorage(address _address)\r\n        public onlyAuthorisedActors(_address)\r\n        view\r\n        returns (\r\n            string memory _ownerName,\r\n            int256 _latitude,\r\n            int256 _longitude,\r\n            uint256 _capacity,\r\n            uint256 _price\r\n        )\r\n    {\r\n        return (\r\n            coldStorages[_address].ownerName,\r\n            coldStorages[_address].latitude,\r\n            coldStorages[_address].longitude,\r\n            coldStorages[_address].capacity,\r\n            coldStorages[_address].price\r\n        );\r\n    }\r\n    \r\n    function getLocation(address _address) external view returns(int256, int256) {\r\n        return (coldStorages[_address].latitude, coldStorages[_address].longitude);\r\n    }\r\n    \r\n    function getColdStoragePrice(address _address) public view returns (uint256 _price) {\r\n        return coldStorages[_address].price;\r\n    }\r\n\r\n    function countColdStorages() public view returns (uint256) {\r\n        return coldStorageAddresses.length;\r\n    }\r\n\r\n    function requestColdStorage(address _address) public {\r\n        //owner can't buy their own storage\r\n        require(msg.sender != _address);\r\n\r\n        if (address(msg.sender).balance >= coldStorages[_address].price) {\r\n            coldStorages[_address].requests.push(address(msg.sender));\r\n        }\r\n    }\r\n\r\n    function removeRequest(address _address, address _addressColdStorage) public {\r\n        address[] storage reqs = coldStorages[_addressColdStorage].requests;\r\n\r\n        bool isPresent = false;\r\n        uint256 reqIndex = 0;\r\n        uint256 i;\r\n        \r\n        for (i = 0; i < reqs.length; i++) {\r\n            if (reqs[i] == _address) {\r\n                isPresent = true;\r\n                reqIndex = i;\r\n                break;\r\n            }\r\n        }\r\n\r\n        if (isPresent) {\r\n            for (i = reqIndex; i < reqs.length - 1; i++) {\r\n                reqs[i] = reqs[i + 1];\r\n            }\r\n\r\n            delete reqs[reqs.length - 1];\r\n            coldStorages[_addressColdStorage].requests = reqs;\r\n        } else \r\n        return;\r\n    }\r\n\r\n    function removeApprovedRequest(address _address, address _addressColdStorage) public {\r\n        address[] storage appReqs = coldStorages[_addressColdStorage].approvedRequests;\r\n\r\n        bool isPresent = false;\r\n        uint256 reqIndex = 0;\r\n        uint256 i;\r\n\r\n        for (i = 0; i < appReqs.length; i++) {\r\n            if (appReqs[i] == _address) {\r\n                isPresent = true;\r\n                reqIndex = i;\r\n                break;\r\n            }\r\n        }\r\n\r\n        if (isPresent) {\r\n            for (i = reqIndex; i < appReqs.length - 1; i++) {\r\n                appReqs[i] = appReqs[i + 1];\r\n            }\r\n\r\n            delete appReqs[appReqs.length - 1];\r\n            coldStorages[_addressColdStorage].approvedRequests = appReqs;\r\n        } else \r\n        return;\r\n    }\r\n\r\n    function approveColdStorage(address _addressColdStorage, address _address) public {\r\n        require(msg.sender == _addressColdStorage);\r\n\r\n        coldStorages[_addressColdStorage].approvedRequests.push(_address);\r\n        removeRequest(_address, _addressColdStorage);\r\n    }\r\n\r\n    function getApprovedRequests(address _address)\r\n        public\r\n        view\r\n        returns (address[] memory)\r\n    {\r\n        require(msg.sender == _address);\r\n\r\n        return coldStorages[_address].approvedRequests;\r\n    }\r\n\r\n    function rentColdStorage(address _address) public {\r\n        coldStorages[_address].tenants.push(msg.sender);\r\n        removeApprovedRequest(msg.sender, _address);\r\n    }\r\n\r\n    function getRentedStorages(address _address)\r\n        public\r\n        view\r\n        returns (address[] memory)\r\n    {\r\n        address[] memory rentedIDs = new address[](coldStorageAddresses.length);\r\n        uint256 pointer = 0;\r\n        \r\n        for (uint256 i = 0; i < coldStorageAddresses.length; i++) {\r\n            for (uint256 j = 0; j < coldStorages[coldStorageAddresses[i]].tenants.length; j++) {\r\n                if (coldStorages[coldStorageAddresses[i]].tenants[j] == _address) {\r\n                    rentedIDs[pointer++] = coldStorageAddresses[i];\r\n                    break;\r\n                }\r\n            }\r\n        }\r\n        return rentedIDs;\r\n    }\r\n\r\n    function getTenants(address _address) public view returns (address[] memory) {\r\n        require(msg.sender == _address);\r\n        return coldStorages[_address].tenants;\r\n    }\r\n\r\n    /*//function to add new item to cold storage\r\n    function addItem(\r\n        address _address,\r\n        string memory _itemName,\r\n        uint256 _quantity\r\n    ) public {\r\n        coldStorages[_address].items[_itemName] = _quantity;\r\n        coldStorages[_address].itemNames.push(_itemName);\r\n    }\r\n\r\n    //function to view items\r\n    function getItemNames(uint256 _id) public view returns (string[] memory) {\r\n        return coldStorages[_id].itemNames;\r\n    }\r\n\r\n    function getItemQuantites(uint256 _id, string memory _itemName)\r\n        public\r\n        view\r\n        returns (uint256)\r\n    {\r\n        return coldStorages[_id].items[_itemName];\r\n    }\r\n\r\n    //function to get quantities of items*/\r\n    \r\n    function getUnverifiedColdStorages() public onlyGovernmentOfficial view returns (address[] memory) {\r\n        return unverifiedColdStorages;\r\n    }\r\n\r\n    function getNumUnverifiedColdStorages() public onlyGovernmentOfficial view returns (uint256) {\r\n        return unverifiedColdStorages.length;\r\n    }\r\n\r\n    function getUnverifiedColdStorage(uint256 pos) public onlyGovernmentOfficial view returns (address) {\r\n        return unverifiedColdStorages[pos];\r\n    }\r\n    \r\n    function setEligible(address _address) public onlyGovernmentOfficial {\r\n        for (uint256 i = 0 ; i < unverifiedColdStorages.length ; i++) {\r\n            if (unverifiedColdStorages[i] == _address) {\r\n                unverifiedColdStorages[i] = unverifiedColdStorages[unverifiedColdStorages.length-1];\r\n                delete unverifiedColdStorages[unverifiedColdStorages.length-1];\r\n                coldStorages[_address].isEligible = true;\r\n                unverifiedColdStorages.length--;\r\n                coldStorageAddresses.push(_address);\r\n                rc.addRole(_address, rc.coldStorageRoleID());\r\n                break;\r\n            }\r\n        }\r\n    }\r\n}\r\n",
  "sourcePath": "D:\\7thSemester\\CS491\\smart_agriculture_react\\contracts\\ColdStorageContract.sol",
  "compiler": {
    "name": "solc",
    "version": "0.4.26+commit.4563c3fc.Emscripten.clang"
  },
  "schemaVersion": "3.4.3",
  "updatedAt": "2021-12-12T19:16:58.984Z",
  "networkType": "ethereum",
  "devdoc": {
    "methods": {}
  },
  "userdoc": {
    "methods": {}
  }
}