{
  "contractName": "ColdStorageContract",
  "abi": [
    {
      "constant": true,
      "inputs": [
        {
          "name": "",
          "type": "uint256"
        }
      ],
      "name": "unverifiedColdStorages",
      "outputs": [
        {
          "name": "",
          "type": "address"
        }
      ],
      "payable": false,
      "stateMutability": "view",
      "type": "function"
    },
    {
      "constant": true,
      "inputs": [],
      "name": "rc",
      "outputs": [
        {
          "name": "",
          "type": "address"
        }
      ],
      "payable": false,
      "stateMutability": "view",
      "type": "function"
    },
    {
      "constant": true,
      "inputs": [
        {
          "name": "",
          "type": "address"
        }
      ],
      "name": "coldStorages",
      "outputs": [
        {
          "name": "ownerName",
          "type": "string"
        },
        {
          "name": "latitude",
          "type": "int256"
        },
        {
          "name": "longitude",
          "type": "int256"
        },
        {
          "name": "capacity",
          "type": "uint256"
        },
        {
          "name": "price",
          "type": "uint256"
        },
        {
          "name": "hash",
          "type": "string"
        },
        {
          "name": "isEligible",
          "type": "bool"
        }
      ],
      "payable": false,
      "stateMutability": "view",
      "type": "function"
    },
    {
      "constant": true,
      "inputs": [
        {
          "name": "",
          "type": "uint256"
        }
      ],
      "name": "coldStorageAddresses",
      "outputs": [
        {
          "name": "",
          "type": "address"
        }
      ],
      "payable": false,
      "stateMutability": "view",
      "type": "function"
    },
    {
      "inputs": [
        {
          "name": "_address",
          "type": "address"
        }
      ],
      "payable": false,
      "stateMutability": "nonpayable",
      "type": "constructor"
    },
    {
      "constant": false,
      "inputs": [
        {
          "name": "_ownerName",
          "type": "string"
        },
        {
          "name": "_latitude",
          "type": "int256"
        },
        {
          "name": "_longitude",
          "type": "int256"
        },
        {
          "name": "_capacity",
          "type": "uint256"
        },
        {
          "name": "_price",
          "type": "uint256"
        },
        {
          "name": "_hash",
          "type": "string"
        }
      ],
      "name": "addColdStorage",
      "outputs": [],
      "payable": false,
      "stateMutability": "nonpayable",
      "type": "function"
    },
    {
      "constant": true,
      "inputs": [],
      "name": "getColdStorages",
      "outputs": [
        {
          "name": "",
          "type": "address[]"
        }
      ],
      "payable": false,
      "stateMutability": "view",
      "type": "function"
    },
    {
      "constant": true,
      "inputs": [
        {
          "name": "_address",
          "type": "address"
        }
      ],
      "name": "getRequests",
      "outputs": [
        {
          "name": "",
          "type": "address[]"
        }
      ],
      "payable": false,
      "stateMutability": "view",
      "type": "function"
    },
    {
      "constant": true,
      "inputs": [
        {
          "name": "_address",
          "type": "address"
        }
      ],
      "name": "getAllCSrequestedByAddress",
      "outputs": [
        {
          "name": "",
          "type": "address[]"
        }
      ],
      "payable": false,
      "stateMutability": "view",
      "type": "function"
    },
    {
      "constant": true,
      "inputs": [
        {
          "name": "_address",
          "type": "address"
        }
      ],
      "name": "getAllCSapprovedForAddress",
      "outputs": [
        {
          "name": "",
          "type": "address[]"
        }
      ],
      "payable": false,
      "stateMutability": "view",
      "type": "function"
    },
    {
      "constant": true,
      "inputs": [
        {
          "name": "_address",
          "type": "address"
        }
      ],
      "name": "getColdStorage",
      "outputs": [
        {
          "name": "_ownerName",
          "type": "string"
        },
        {
          "name": "_latitude",
          "type": "int256"
        },
        {
          "name": "_longitude",
          "type": "int256"
        },
        {
          "name": "_capacity",
          "type": "uint256"
        },
        {
          "name": "_price",
          "type": "uint256"
        }
      ],
      "payable": false,
      "stateMutability": "view",
      "type": "function"
    },
    {
      "constant": true,
      "inputs": [
        {
          "name": "_address",
          "type": "address"
        }
      ],
      "name": "getHash",
      "outputs": [
        {
          "name": "",
          "type": "string"
        }
      ],
      "payable": false,
      "stateMutability": "view",
      "type": "function"
    },
    {
      "constant": true,
      "inputs": [
        {
          "name": "_address",
          "type": "address"
        }
      ],
      "name": "getLocation",
      "outputs": [
        {
          "name": "",
          "type": "int256"
        },
        {
          "name": "",
          "type": "int256"
        }
      ],
      "payable": false,
      "stateMutability": "view",
      "type": "function"
    },
    {
      "constant": true,
      "inputs": [
        {
          "name": "_address",
          "type": "address"
        }
      ],
      "name": "getColdStoragePrice",
      "outputs": [
        {
          "name": "_price",
          "type": "uint256"
        }
      ],
      "payable": false,
      "stateMutability": "view",
      "type": "function"
    },
    {
      "constant": true,
      "inputs": [],
      "name": "countColdStorages",
      "outputs": [
        {
          "name": "",
          "type": "uint256"
        }
      ],
      "payable": false,
      "stateMutability": "view",
      "type": "function"
    },
    {
      "constant": true,
      "inputs": [
        {
          "name": "pos",
          "type": "uint256"
        }
      ],
      "name": "getNumColdStorage",
      "outputs": [
        {
          "name": "",
          "type": "address"
        }
      ],
      "payable": false,
      "stateMutability": "view",
      "type": "function"
    },
    {
      "constant": false,
      "inputs": [
        {
          "name": "_address",
          "type": "address"
        }
      ],
      "name": "requestColdStorage",
      "outputs": [],
      "payable": false,
      "stateMutability": "nonpayable",
      "type": "function"
    },
    {
      "constant": false,
      "inputs": [
        {
          "name": "_address",
          "type": "address"
        },
        {
          "name": "_addressColdStorage",
          "type": "address"
        }
      ],
      "name": "removeRequest",
      "outputs": [],
      "payable": false,
      "stateMutability": "nonpayable",
      "type": "function"
    },
    {
      "constant": false,
      "inputs": [
        {
          "name": "_address",
          "type": "address"
        },
        {
          "name": "_addressColdStorage",
          "type": "address"
        }
      ],
      "name": "removeApprovedRequest",
      "outputs": [],
      "payable": false,
      "stateMutability": "nonpayable",
      "type": "function"
    },
    {
      "constant": false,
      "inputs": [
        {
          "name": "_addressColdStorage",
          "type": "address"
        },
        {
          "name": "_address",
          "type": "address"
        }
      ],
      "name": "approveColdStorage",
      "outputs": [],
      "payable": false,
      "stateMutability": "nonpayable",
      "type": "function"
    },
    {
      "constant": true,
      "inputs": [
        {
          "name": "_address",
          "type": "address"
        }
      ],
      "name": "getApprovedRequests",
      "outputs": [
        {
          "name": "",
          "type": "address[]"
        }
      ],
      "payable": false,
      "stateMutability": "view",
      "type": "function"
    },
    {
      "constant": false,
      "inputs": [
        {
          "name": "_address",
          "type": "address"
        }
      ],
      "name": "rentColdStorage",
      "outputs": [],
      "payable": false,
      "stateMutability": "nonpayable",
      "type": "function"
    },
    {
      "constant": true,
      "inputs": [
        {
          "name": "_address",
          "type": "address"
        }
      ],
      "name": "getRentedStorages",
      "outputs": [
        {
          "name": "",
          "type": "address[]"
        }
      ],
      "payable": false,
      "stateMutability": "view",
      "type": "function"
    },
    {
      "constant": true,
      "inputs": [
        {
          "name": "_address",
          "type": "address"
        }
      ],
      "name": "getTenants",
      "outputs": [
        {
          "name": "",
          "type": "address[]"
        }
      ],
      "payable": false,
      "stateMutability": "view",
      "type": "function"
    },
    {
      "constant": true,
      "inputs": [],
      "name": "getUnverifiedColdStorages",
      "outputs": [
        {
          "name": "",
          "type": "address[]"
        }
      ],
      "payable": false,
      "stateMutability": "view",
      "type": "function"
    },
    {
      "constant": true,
      "inputs": [],
      "name": "getNumUnverifiedColdStorages",
      "outputs": [
        {
          "name": "",
          "type": "uint256"
        }
      ],
      "payable": false,
      "stateMutability": "view",
      "type": "function"
    },
    {
      "constant": true,
      "inputs": [
        {
          "name": "pos",
          "type": "uint256"
        }
      ],
      "name": "getUnverifiedColdStorage",
      "outputs": [
        {
          "name": "",
          "type": "address"
        }
      ],
      "payable": false,
      "stateMutability": "view",
      "type": "function"
    },
    {
      "constant": false,
      "inputs": [
        {
          "name": "_address",
          "type": "address"
        }
      ],
      "name": "setEligible",
      "outputs": [],
      "payable": false,
      "stateMutability": "nonpayable",
      "type": "function"
    }
  ],
  "bytecode": "0x60806040523480156200001157600080fd5b5060405160208062003a67833981018060405262000033919081019062000090565b806000806101000a81548173ffffffffffffffffffffffffffffffffffffffff021916908373ffffffffffffffffffffffffffffffffffffffff16021790555050620000dc565b6000620000888251620000bc565b905092915050565b600060208284031215620000a357600080fd5b6000620000b3848285016200007a565b91505092915050565b600073ffffffffffffffffffffffffffffffffffffffff82169050919050565b61397b80620000ec6000396000f30060806040526004361061015e576000357c0100000000000000000000000000000000000000000000000000000000900463ffffffff16806212827614610163578063051e25ac1461018e5780630b411f44146101cb57806311619c941461020857806312f773321461023357806315cd0aa31461025e5780631bf15898146102875780631da0b8fc146102b2578063408e9453146102ef578063517aea2a1461032c578063550966a6146103695780635839cb35146103a6578063782cbf5f146103cf5780637d3845cc146103f8578063804e44f31461043557806398c18f2f14610472578063a0a38e1f146104b5578063ba778bf9146104f2578063c3a319051461052f578063d094035414610558578063d9e0dc5914610599578063de7ff325146105d7578063e22dbe8814610614578063e476f9f514610651578063f904cf041461067a578063fe8806f5146106a3578063fef7fa6a146106cc575b600080fd5b34801561016f57600080fd5b506101786106f7565b604051610185919061361a565b60405180910390f35b34801561019a57600080fd5b506101b560048036036101b091908101906133de565b610785565b6040516101c291906135d6565b60405180910390f35b3480156101d757600080fd5b506101f260048036036101ed91908101906132c0565b6107c3565b6040516101ff919061361a565b60405180910390f35b34801561021457600080fd5b5061021d610a3e565b60405161022a91906137b9565b60405180910390f35b34801561023f57600080fd5b50610248610a4b565b604051610255919061363c565b60405180910390f35b34801561026a57600080fd5b5061028560048036036102809190810190613325565b610a70565b005b34801561029357600080fd5b5061029c610b95565b6040516102a991906137b9565b60405180910390f35b3480156102be57600080fd5b506102d960048036036102d491908101906132c0565b610d69565b6040516102e69190613680565b60405180910390f35b3480156102fb57600080fd5b50610316600480360361031191908101906133de565b611014565b60405161032391906135d6565b60405180910390f35b34801561033857600080fd5b50610353600480360361034e91908101906132c0565b611057565b604051610360919061361a565b60405180910390f35b34801561037557600080fd5b50610390600480360361038b91908101906133de565b611161565b60405161039d91906135d6565b60405180910390f35b3480156103b257600080fd5b506103cd60048036036103c891908101906132e9565b61136b565b005b3480156103db57600080fd5b506103f660048036036103f191908101906132c0565b6115b2565b005b34801561040457600080fd5b5061041f600480360361041a91908101906132c0565b6116f9565b60405161042c919061361a565b60405180910390f35b34801561044157600080fd5b5061045c600480360361045791908101906132c0565b611803565b604051610469919061361a565b60405180910390f35b34801561047e57600080fd5b50610499600480360361049491908101906132c0565b61190d565b6040516104ac97969594939291906136fc565b60405180910390f35b3480156104c157600080fd5b506104dc60048036036104d791908101906133de565b611a8c565b6040516104e991906135d6565b60405180910390f35b3480156104fe57600080fd5b50610519600480360361051491908101906132c0565b611aca565b60405161052691906137b9565b60405180910390f35b34801561053b57600080fd5b50610556600480360361055191908101906132c0565b611b16565b005b34801561056457600080fd5b5061057f600480360361057a91908101906132c0565b611bc9565b6040516105909594939291906136a2565b60405180910390f35b3480156105a557600080fd5b506105c060048036036105bb91908101906132c0565b61202b565b6040516105ce929190613657565b60405180910390f35b3480156105e357600080fd5b506105fe60048036036105f991908101906132c0565b6120bd565b60405161060b919061361a565b60405180910390f35b34801561062057600080fd5b5061063b600480360361063691908101906132c0565b612338565b604051610648919061361a565b60405180910390f35b34801561065d57600080fd5b50610678600480360361067391908101906132e9565b6125b3565b005b34801561068657600080fd5b506106a1600480360361069c91908101906132c0565b6126a1565b005b3480156106af57600080fd5b506106ca60048036036106c591908101906132e9565b612c18565b005b3480156106d857600080fd5b506106e1612e5f565b6040516106ee919061361a565b60405180910390f35b6060600280548060200260200160405190810160405280929190818152602001828054801561077b57602002820191906000526020600020905b8160009054906101000a900473ffffffffffffffffffffffffffffffffffffffff1673ffffffffffffffffffffffffffffffffffffffff1681526020019060010190808311610731575b5050505050905090565b60038181548110151561079457fe5b906000526020600020016000915054906101000a900473ffffffffffffffffffffffffffffffffffffffff1681565b60608060008060006002805490506040519080825280602002602001820160405280156107ff5781602001602082028038833980820191505090505b50935060009250600091505b600280549050821015610a3257600090505b6001600060028481548110151561083057fe5b9060005260206000200160009054906101000a900473ffffffffffffffffffffffffffffffffffffffff1673ffffffffffffffffffffffffffffffffffffffff1673ffffffffffffffffffffffffffffffffffffffff16815260200190815260200160002060080180549050811015610a25578573ffffffffffffffffffffffffffffffffffffffff16600160006002858154811015156108cd57fe5b9060005260206000200160009054906101000a900473ffffffffffffffffffffffffffffffffffffffff1673ffffffffffffffffffffffffffffffffffffffff1673ffffffffffffffffffffffffffffffffffffffff1681526020019081526020016000206008018281548110151561094257fe5b9060005260206000200160009054906101000a900473ffffffffffffffffffffffffffffffffffffffff1673ffffffffffffffffffffffffffffffffffffffff161415610a185760028281548110151561099857fe5b9060005260206000200160009054906101000a900473ffffffffffffffffffffffffffffffffffffffff1684848060010195508151811015156109d757fe5b9060200190602002019073ffffffffffffffffffffffffffffffffffffffff16908173ffffffffffffffffffffffffffffffffffffffff1681525050610a25565b808060010191505061081d565b818060010192505061080b565b83945050505050919050565b6000600280549050905090565b6000809054906101000a900473ffffffffffffffffffffffffffffffffffffffff1681565b6000600160003273ffffffffffffffffffffffffffffffffffffffff1673ffffffffffffffffffffffffffffffffffffffff168152602001908152602001600020905086816000019080519060200190610acb9291906130b4565b5085816001018190555084816002018190555083816003018190555082816004018190555081816005019080519060200190610b089291906130b4565b5060008160060160006101000a81548160ff02191690831515021790555060033290806001815401808255809150509060018203906000526020600020016000909192909190916101000a81548173ffffffffffffffffffffffffffffffffffffffff021916908373ffffffffffffffffffffffffffffffffffffffff1602179055505050505050505050565b60008060009054906101000a900473ffffffffffffffffffffffffffffffffffffffff1673ffffffffffffffffffffffffffffffffffffffff166346fb5b9c6040518163ffffffff167c0100000000000000000000000000000000000000000000000000000000028152600401602060405180830381600087803b158015610c1c57600080fd5b505af1158015610c30573d6000803e3d6000fd5b505050506040513d601f19601f82011682018060405250610c549190810190613407565b6000809054906101000a900473ffffffffffffffffffffffffffffffffffffffff1673ffffffffffffffffffffffffffffffffffffffff166344276733326040518263ffffffff167c0100000000000000000000000000000000000000000000000000000000028152600401610cca91906135d6565b602060405180830381600087803b158015610ce457600080fd5b505af1158015610cf8573d6000803e3d6000fd5b505050506040513d601f19601f82011682018060405250610d1c9190810190613407565b141515610d5e576040517f08c379a0000000000000000000000000000000000000000000000000000000008152600401610d5590613799565b60405180910390fd5b600380549050905090565b60606000809054906101000a900473ffffffffffffffffffffffffffffffffffffffff1673ffffffffffffffffffffffffffffffffffffffff166346fb5b9c6040518163ffffffff167c0100000000000000000000000000000000000000000000000000000000028152600401602060405180830381600087803b158015610df057600080fd5b505af1158015610e04573d6000803e3d6000fd5b505050506040513d601f19601f82011682018060405250610e289190810190613407565b6000809054906101000a900473ffffffffffffffffffffffffffffffffffffffff1673ffffffffffffffffffffffffffffffffffffffff166344276733326040518263ffffffff167c0100000000000000000000000000000000000000000000000000000000028152600401610e9e91906135d6565b602060405180830381600087803b158015610eb857600080fd5b505af1158015610ecc573d6000803e3d6000fd5b505050506040513d601f19601f82011682018060405250610ef09190810190613407565b141515610f32576040517f08c379a0000000000000000000000000000000000000000000000000000000008152600401610f2990613799565b60405180910390fd5b600160008373ffffffffffffffffffffffffffffffffffffffff1673ffffffffffffffffffffffffffffffffffffffff1681526020019081526020016000206005018054600181600116156101000203166002900480601f0160208091040260200160405190810160405280929190818152602001828054600181600116156101000203166002900480156110085780601f10610fdd57610100808354040283529160200191611008565b820191906000526020600020905b815481529060010190602001808311610feb57829003601f168201915b50505050509050919050565b600060028281548110151561102557fe5b9060005260206000200160009054906101000a900473ffffffffffffffffffffffffffffffffffffffff169050919050565b60608173ffffffffffffffffffffffffffffffffffffffff163373ffffffffffffffffffffffffffffffffffffffff1614151561109357600080fd5b600160008373ffffffffffffffffffffffffffffffffffffffff1673ffffffffffffffffffffffffffffffffffffffff16815260200190815260200160002060080180548060200260200160405190810160405280929190818152602001828054801561115557602002820191906000526020600020905b8160009054906101000a900473ffffffffffffffffffffffffffffffffffffffff1673ffffffffffffffffffffffffffffffffffffffff168152602001906001019080831161110b575b50505050509050919050565b60008060009054906101000a900473ffffffffffffffffffffffffffffffffffffffff1673ffffffffffffffffffffffffffffffffffffffff166346fb5b9c6040518163ffffffff167c0100000000000000000000000000000000000000000000000000000000028152600401602060405180830381600087803b1580156111e857600080fd5b505af11580156111fc573d6000803e3d6000fd5b505050506040513d601f19601f820116820180604052506112209190810190613407565b6000809054906101000a900473ffffffffffffffffffffffffffffffffffffffff1673ffffffffffffffffffffffffffffffffffffffff166344276733326040518263ffffffff167c010000000000000000000000000000000000000000000000000000000002815260040161129691906135d6565b602060405180830381600087803b1580156112b057600080fd5b505af11580156112c4573d6000803e3d6000fd5b505050506040513d601f19601f820116820180604052506112e89190810190613407565b14151561132a576040517f08c379a000000000000000000000000000000000000000000000000000000000815260040161132190613799565b60405180910390fd5b60038281548110151561133957fe5b9060005260206000200160009054906101000a900473ffffffffffffffffffffffffffffffffffffffff169050919050565b600080600080600160008673ffffffffffffffffffffffffffffffffffffffff1673ffffffffffffffffffffffffffffffffffffffff16815260200190815260200160002060080193506000925060009150600090505b8380549050811015611453578573ffffffffffffffffffffffffffffffffffffffff1684828154811015156113f357fe5b9060005260206000200160009054906101000a900473ffffffffffffffffffffffffffffffffffffffff1673ffffffffffffffffffffffffffffffffffffffff1614156114465760019250809150611453565b80806001019150506113c2565b82156115a4578190505b600184805490500381101561150b57836001820181548110151561147d57fe5b9060005260206000200160009054906101000a900473ffffffffffffffffffffffffffffffffffffffff1684828154811015156114b657fe5b9060005260206000200160006101000a81548173ffffffffffffffffffffffffffffffffffffffff021916908373ffffffffffffffffffffffffffffffffffffffff160217905550808060010191505061145d565b83600185805490500381548110151561152057fe5b9060005260206000200160006101000a81549073ffffffffffffffffffffffffffffffffffffffff021916905583600160008773ffffffffffffffffffffffffffffffffffffffff1673ffffffffffffffffffffffffffffffffffffffff16815260200190815260200160002060080190805461159e929190613134565b506115a9565b6115aa565b5b505050505050565b8073ffffffffffffffffffffffffffffffffffffffff163373ffffffffffffffffffffffffffffffffffffffff16141515156115ed57600080fd5b600160008273ffffffffffffffffffffffffffffffffffffffff1673ffffffffffffffffffffffffffffffffffffffff168152602001908152602001600020600401543373ffffffffffffffffffffffffffffffffffffffff16311015156116f657600160008273ffffffffffffffffffffffffffffffffffffffff1673ffffffffffffffffffffffffffffffffffffffff1681526020019081526020016000206007013390806001815401808255809150509060018203906000526020600020016000909192909190916101000a81548173ffffffffffffffffffffffffffffffffffffffff021916908373ffffffffffffffffffffffffffffffffffffffff160217905550505b50565b60608173ffffffffffffffffffffffffffffffffffffffff163373ffffffffffffffffffffffffffffffffffffffff1614151561173557600080fd5b600160008373ffffffffffffffffffffffffffffffffffffffff1673ffffffffffffffffffffffffffffffffffffffff1681526020019081526020016000206009018054806020026020016040519081016040528092919081815260200182805480156117f757602002820191906000526020600020905b8160009054906101000a900473ffffffffffffffffffffffffffffffffffffffff1673ffffffffffffffffffffffffffffffffffffffff16815260200190600101908083116117ad575b50505050509050919050565b60608173ffffffffffffffffffffffffffffffffffffffff163373ffffffffffffffffffffffffffffffffffffffff1614151561183f57600080fd5b600160008373ffffffffffffffffffffffffffffffffffffffff1673ffffffffffffffffffffffffffffffffffffffff16815260200190815260200160002060070180548060200260200160405190810160405280929190818152602001828054801561190157602002820191906000526020600020905b8160009054906101000a900473ffffffffffffffffffffffffffffffffffffffff1673ffffffffffffffffffffffffffffffffffffffff16815260200190600101908083116118b7575b50505050509050919050565b6001602052806000526040600020600091509050806000018054600181600116156101000203166002900480601f0160208091040260200160405190810160405280929190818152602001828054600181600116156101000203166002900480156119b95780601f1061198e576101008083540402835291602001916119b9565b820191906000526020600020905b81548152906001019060200180831161199c57829003601f168201915b505050505090806001015490806002015490806003015490806004015490806005018054600181600116156101000203166002900480601f016020809104026020016040519081016040528092919081815260200182805460018160011615610100020316600290048015611a6f5780601f10611a4457610100808354040283529160200191611a6f565b820191906000526020600020905b815481529060010190602001808311611a5257829003601f168201915b5050505050908060060160009054906101000a900460ff16905087565b600281815481101515611a9b57fe5b906000526020600020016000915054906101000a900473ffffffffffffffffffffffffffffffffffffffff1681565b6000600160008373ffffffffffffffffffffffffffffffffffffffff1673ffffffffffffffffffffffffffffffffffffffff168152602001908152602001600020600401549050919050565b600160008273ffffffffffffffffffffffffffffffffffffffff1673ffffffffffffffffffffffffffffffffffffffff1681526020019081526020016000206009013390806001815401808255809150509060018203906000526020600020016000909192909190916101000a81548173ffffffffffffffffffffffffffffffffffffffff021916908373ffffffffffffffffffffffffffffffffffffffff16021790555050611bc6338261136b565b50565b60606000806000808560011515600160008373ffffffffffffffffffffffffffffffffffffffff1673ffffffffffffffffffffffffffffffffffffffff16815260200190815260200160002060060160009054906101000a900460ff1615151480611c5f57503273ffffffffffffffffffffffffffffffffffffffff168173ffffffffffffffffffffffffffffffffffffffff16145b80611dec57506000809054906101000a900473ffffffffffffffffffffffffffffffffffffffff1673ffffffffffffffffffffffffffffffffffffffff166346fb5b9c6040518163ffffffff167c0100000000000000000000000000000000000000000000000000000000028152600401602060405180830381600087803b158015611cea57600080fd5b505af1158015611cfe573d6000803e3d6000fd5b505050506040513d601f19601f82011682018060405250611d229190810190613407565b6000809054906101000a900473ffffffffffffffffffffffffffffffffffffffff1673ffffffffffffffffffffffffffffffffffffffff166344276733326040518263ffffffff167c0100000000000000000000000000000000000000000000000000000000028152600401611d9891906135d6565b602060405180830381600087803b158015611db257600080fd5b505af1158015611dc6573d6000803e3d6000fd5b505050506040513d601f19601f82011682018060405250611dea9190810190613407565b145b1515611e2d576040517f08c379a0000000000000000000000000000000000000000000000000000000008152600401611e2490613779565b60405180910390fd5b600160008873ffffffffffffffffffffffffffffffffffffffff1673ffffffffffffffffffffffffffffffffffffffff168152602001908152602001600020600001600160008973ffffffffffffffffffffffffffffffffffffffff1673ffffffffffffffffffffffffffffffffffffffff16815260200190815260200160002060010154600160008a73ffffffffffffffffffffffffffffffffffffffff1673ffffffffffffffffffffffffffffffffffffffff16815260200190815260200160002060020154600160008b73ffffffffffffffffffffffffffffffffffffffff1673ffffffffffffffffffffffffffffffffffffffff16815260200190815260200160002060030154600160008c73ffffffffffffffffffffffffffffffffffffffff1673ffffffffffffffffffffffffffffffffffffffff16815260200190815260200160002060040154848054600181600116156101000203166002900480601f0160208091040260200160405190810160405280929190818152602001828054600181600116156101000203166002900480156120105780601f10611fe557610100808354040283529160200191612010565b820191906000526020600020905b815481529060010190602001808311611ff357829003601f168201915b50505050509450955095509550955095505091939590929450565b600080600160008473ffffffffffffffffffffffffffffffffffffffff1673ffffffffffffffffffffffffffffffffffffffff16815260200190815260200160002060010154600160008573ffffffffffffffffffffffffffffffffffffffff1673ffffffffffffffffffffffffffffffffffffffff1681526020019081526020016000206002015491509150915091565b60608060008060006002805490506040519080825280602002602001820160405280156120f95781602001602082028038833980820191505090505b50935060009250600091505b60028054905082101561232c57600090505b6001600060028481548110151561212a57fe5b9060005260206000200160009054906101000a900473ffffffffffffffffffffffffffffffffffffffff1673ffffffffffffffffffffffffffffffffffffffff1673ffffffffffffffffffffffffffffffffffffffff1681526020019081526020016000206007018054905081101561231f578573ffffffffffffffffffffffffffffffffffffffff16600160006002858154811015156121c757fe5b9060005260206000200160009054906101000a900473ffffffffffffffffffffffffffffffffffffffff1673ffffffffffffffffffffffffffffffffffffffff1673ffffffffffffffffffffffffffffffffffffffff1681526020019081526020016000206007018281548110151561223c57fe5b9060005260206000200160009054906101000a900473ffffffffffffffffffffffffffffffffffffffff1673ffffffffffffffffffffffffffffffffffffffff1614156123125760028281548110151561229257fe5b9060005260206000200160009054906101000a900473ffffffffffffffffffffffffffffffffffffffff1684848060010195508151811015156122d157fe5b9060200190602002019073ffffffffffffffffffffffffffffffffffffffff16908173ffffffffffffffffffffffffffffffffffffffff168152505061231f565b8080600101915050612117565b8180600101925050612105565b83945050505050919050565b60608060008060006002805490506040519080825280602002602001820160405280156123745781602001602082028038833980820191505090505b50935060009250600091505b6002805490508210156125a757600090505b600160006002848154811015156123a557fe5b9060005260206000200160009054906101000a900473ffffffffffffffffffffffffffffffffffffffff1673ffffffffffffffffffffffffffffffffffffffff1673ffffffffffffffffffffffffffffffffffffffff1681526020019081526020016000206009018054905081101561259a578573ffffffffffffffffffffffffffffffffffffffff166001600060028581548110151561244257fe5b9060005260206000200160009054906101000a900473ffffffffffffffffffffffffffffffffffffffff1673ffffffffffffffffffffffffffffffffffffffff1673ffffffffffffffffffffffffffffffffffffffff168152602001908152602001600020600901828154811015156124b757fe5b9060005260206000200160009054906101000a900473ffffffffffffffffffffffffffffffffffffffff1673ffffffffffffffffffffffffffffffffffffffff16141561258d5760028281548110151561250d57fe5b9060005260206000200160009054906101000a900473ffffffffffffffffffffffffffffffffffffffff16848480600101955081518110151561254c57fe5b9060200190602002019073ffffffffffffffffffffffffffffffffffffffff16908173ffffffffffffffffffffffffffffffffffffffff168152505061259a565b8080600101915050612392565b8180600101925050612380565b83945050505050919050565b8173ffffffffffffffffffffffffffffffffffffffff163373ffffffffffffffffffffffffffffffffffffffff161415156125ed57600080fd5b600160008373ffffffffffffffffffffffffffffffffffffffff1673ffffffffffffffffffffffffffffffffffffffff1681526020019081526020016000206008018190806001815401808255809150509060018203906000526020600020016000909192909190916101000a81548173ffffffffffffffffffffffffffffffffffffffff021916908373ffffffffffffffffffffffffffffffffffffffff1602179055505061269d8183612c18565b5050565b60008060009054906101000a900473ffffffffffffffffffffffffffffffffffffffff1673ffffffffffffffffffffffffffffffffffffffff166346fb5b9c6040518163ffffffff167c0100000000000000000000000000000000000000000000000000000000028152600401602060405180830381600087803b15801561272857600080fd5b505af115801561273c573d6000803e3d6000fd5b505050506040513d601f19601f820116820180604052506127609190810190613407565b6000809054906101000a900473ffffffffffffffffffffffffffffffffffffffff1673ffffffffffffffffffffffffffffffffffffffff166344276733326040518263ffffffff167c01000000000000000000000000000000000000000000000000000000000281526004016127d691906135d6565b602060405180830381600087803b1580156127f057600080fd5b505af1158015612804573d6000803e3d6000fd5b505050506040513d601f19601f820116820180604052506128289190810190613407565b14151561286a576040517f08c379a000000000000000000000000000000000000000000000000000000000815260040161286190613799565b60405180910390fd5b600090505b600380549050811015612c14578173ffffffffffffffffffffffffffffffffffffffff166003828154811015156128a257fe5b9060005260206000200160009054906101000a900473ffffffffffffffffffffffffffffffffffffffff1673ffffffffffffffffffffffffffffffffffffffff161415612c0757600360016003805490500381548110151561290057fe5b9060005260206000200160009054906101000a900473ffffffffffffffffffffffffffffffffffffffff1660038281548110151561293a57fe5b9060005260206000200160006101000a81548173ffffffffffffffffffffffffffffffffffffffff021916908373ffffffffffffffffffffffffffffffffffffffff160217905550600360016003805490500381548110151561299957fe5b9060005260206000200160006101000a81549073ffffffffffffffffffffffffffffffffffffffff021916905560018060008473ffffffffffffffffffffffffffffffffffffffff1673ffffffffffffffffffffffffffffffffffffffff16815260200190815260200160002060060160006101000a81548160ff0219169083151502179055506003805480919060019003612a359190613186565b5060028290806001815401808255809150509060018203906000526020600020016000909192909190916101000a81548173ffffffffffffffffffffffffffffffffffffffff021916908373ffffffffffffffffffffffffffffffffffffffff160217905550506000809054906101000a900473ffffffffffffffffffffffffffffffffffffffff1673ffffffffffffffffffffffffffffffffffffffff16637fde1c8a836000809054906101000a900473ffffffffffffffffffffffffffffffffffffffff1673ffffffffffffffffffffffffffffffffffffffff1663bf4fd3696040518163ffffffff167c0100000000000000000000000000000000000000000000000000000000028152600401602060405180830381600087803b158015612b5f57600080fd5b505af1158015612b73573d6000803e3d6000fd5b505050506040513d601f19601f82011682018060405250612b979190810190613407565b6040518363ffffffff167c0100000000000000000000000000000000000000000000000000000000028152600401612bd09291906135f1565b600060405180830381600087803b158015612bea57600080fd5b505af1158015612bfe573d6000803e3d6000fd5b50505050612c14565b808060010191505061286f565b5050565b600080600080600160008673ffffffffffffffffffffffffffffffffffffffff1673ffffffffffffffffffffffffffffffffffffffff16815260200190815260200160002060070193506000925060009150600090505b8380549050811015612d00578573ffffffffffffffffffffffffffffffffffffffff168482815481101515612ca057fe5b9060005260206000200160009054906101000a900473ffffffffffffffffffffffffffffffffffffffff1673ffffffffffffffffffffffffffffffffffffffff161415612cf35760019250809150612d00565b8080600101915050612c6f565b8215612e51578190505b6001848054905003811015612db8578360018201815481101515612d2a57fe5b9060005260206000200160009054906101000a900473ffffffffffffffffffffffffffffffffffffffff168482815481101515612d6357fe5b9060005260206000200160006101000a81548173ffffffffffffffffffffffffffffffffffffffff021916908373ffffffffffffffffffffffffffffffffffffffff1602179055508080600101915050612d0a565b836001858054905003815481101515612dcd57fe5b9060005260206000200160006101000a81549073ffffffffffffffffffffffffffffffffffffffff021916905583600160008773ffffffffffffffffffffffffffffffffffffffff1673ffffffffffffffffffffffffffffffffffffffff168152602001908152602001600020600701908054612e4b929190613134565b50612e56565b612e57565b5b505050505050565b60606000809054906101000a900473ffffffffffffffffffffffffffffffffffffffff1673ffffffffffffffffffffffffffffffffffffffff166346fb5b9c6040518163ffffffff167c0100000000000000000000000000000000000000000000000000000000028152600401602060405180830381600087803b158015612ee657600080fd5b505af1158015612efa573d6000803e3d6000fd5b505050506040513d601f19601f82011682018060405250612f1e9190810190613407565b6000809054906101000a900473ffffffffffffffffffffffffffffffffffffffff1673ffffffffffffffffffffffffffffffffffffffff166344276733326040518263ffffffff167c0100000000000000000000000000000000000000000000000000000000028152600401612f9491906135d6565b602060405180830381600087803b158015612fae57600080fd5b505af1158015612fc2573d6000803e3d6000fd5b505050506040513d601f19601f82011682018060405250612fe69190810190613407565b141515613028576040517f08c379a000000000000000000000000000000000000000000000000000000000815260040161301f90613799565b60405180910390fd5b60038054806020026020016040519081016040528092919081815260200182805480156130aa57602002820191906000526020600020905b8160009054906101000a900473ffffffffffffffffffffffffffffffffffffffff1673ffffffffffffffffffffffffffffffffffffffff1681526020019060010190808311613060575b5050505050905090565b828054600181600116156101000203166002900490600052602060002090601f016020900481019282601f106130f557805160ff1916838001178555613123565b82800160010185558215613123579182015b82811115613122578251825591602001919060010190613107565b5b50905061313091906131b2565b5090565b8280548282559060005260206000209081019282156131755760005260206000209182015b82811115613174578254825591600101919060010190613159565b5b50905061318291906131d7565b5090565b8154818355818111156131ad578183600052602060002091820191016131ac91906131b2565b5b505050565b6131d491905b808211156131d05760008160009055506001016131b8565b5090565b90565b61321791905b8082111561321357600081816101000a81549073ffffffffffffffffffffffffffffffffffffffff0219169055506001016131dd565b5090565b90565b600061322682356138a8565b905092915050565b600061323a82356138c8565b905092915050565b600082601f830112151561325557600080fd5b813561326861326382613801565b6137d4565b9150808252602083016020830185838301111561328457600080fd5b61328f8382846138ee565b50505092915050565b60006132a482356138d2565b905092915050565b60006132b882516138d2565b905092915050565b6000602082840312156132d257600080fd5b60006132e08482850161321a565b91505092915050565b600080604083850312156132fc57600080fd5b600061330a8582860161321a565b925050602061331b8582860161321a565b9150509250929050565b60008060008060008060c0878903121561333e57600080fd5b600087013567ffffffffffffffff81111561335857600080fd5b61336489828a01613242565b965050602061337589828a0161322e565b955050604061338689828a0161322e565b945050606061339789828a01613298565b93505060806133a889828a01613298565b92505060a087013567ffffffffffffffff8111156133c557600080fd5b6133d189828a01613242565b9150509295509295509295565b6000602082840312156133f057600080fd5b60006133fe84828501613298565b91505092915050565b60006020828403121561341957600080fd5b6000613427848285016132ac565b91505092915050565b61343981613868565b82525050565b600061344a8261383a565b80845260208401935061345c8361382d565b60005b8281101561348e57613472868351613430565b61347b8261385b565b915060208601955060018101905061345f565b50849250505092915050565b6134a381613888565b82525050565b6134b2816138dc565b82525050565b6134c181613894565b82525050565b60006134d282613850565b8084526134e68160208601602086016138fd565b6134ef81613930565b602085010191505092915050565b600061350882613845565b80845261351c8160208601602086016138fd565b61352581613930565b602085010191505092915050565b6000601282527f556e617574686f7269736564206163746f7200000000000000000000000000006020830152604082019050919050565b6000602482527f4f6e6c7920676f7665726e6d656e74206f6666696369616c732063616e20616360208301527f63657373000000000000000000000000000000000000000000000000000000006040830152606082019050919050565b6135d08161389e565b82525050565b60006020820190506135eb6000830184613430565b92915050565b60006040820190506136066000830185613430565b61361360208301846135c7565b9392505050565b60006020820190508181036000830152613634818461343f565b905092915050565b600060208201905061365160008301846134a9565b92915050565b600060408201905061366c60008301856134b8565b61367960208301846134b8565b9392505050565b6000602082019050818103600083015261369a81846134c7565b905092915050565b600060a08201905081810360008301526136bc81886134c7565b90506136cb60208301876134b8565b6136d860408301866134b8565b6136e560608301856135c7565b6136f260808301846135c7565b9695505050505050565b600060e0820190508181036000830152613716818a6134fd565b905061372560208301896134b8565b61373260408301886134b8565b61373f60608301876135c7565b61374c60808301866135c7565b81810360a083015261375e81856134fd565b905061376d60c083018461349a565b98975050505050505050565b6000602082019050818103600083015261379281613533565b9050919050565b600060208201905081810360008301526137b28161356a565b9050919050565b60006020820190506137ce60008301846135c7565b92915050565b6000604051905081810181811067ffffffffffffffff821117156137f757600080fd5b8060405250919050565b600067ffffffffffffffff82111561381857600080fd5b601f19601f8301169050602081019050919050565b6000602082019050919050565b600081519050919050565b600081519050919050565b600081519050919050565b6000602082019050919050565b600073ffffffffffffffffffffffffffffffffffffffff82169050919050565b60008115159050919050565b6000819050919050565b6000819050919050565b600073ffffffffffffffffffffffffffffffffffffffff82169050919050565b6000819050919050565b6000819050919050565b60006138e782613868565b9050919050565b82818337600083830152505050565b60005b8381101561391b578082015181840152602081019050613900565b8381111561392a576000848401525b50505050565b6000601f19601f83011690509190505600a265627a7a72305820573456653234ccbb0861db8c09887d7fb6c80ff73da9e981c20cc26779a5a0696c6578706572696d656e74616cf50037",
  "source": "// SPDX-License-Identifier: GPL-3.0\r\npragma solidity ^0.4.22;\r\npragma experimental ABIEncoderV2;\r\n\r\nimport \"./Roles.sol\";\r\n\r\ncontract ColdStorageContract {\r\n    Roles public rc;\r\n    \r\n    constructor(address _address) public {\r\n        rc = Roles(_address);\r\n    }\r\n    \r\n    struct ColdStorage {\r\n        string ownerName;\r\n        int256 latitude;\r\n        int256 longitude;\r\n        uint256 capacity;\r\n        uint256 price;\r\n        string hash;\r\n        bool isEligible;\r\n        address[] requests;\r\n        address[] approvedRequests;\r\n        address[] tenants;\r\n    }\r\n\r\n    mapping(address => ColdStorage) public coldStorages;\r\n    address[] public coldStorageAddresses;\r\n    address[] public unverifiedColdStorages;\r\n\r\n     modifier onlyGovernmentOfficial() {\r\n        require(rc.getRole(tx.origin) == rc.governmentID(), \"Only government officials can access\");\r\n        _;\r\n    }\r\n\r\n    modifier onlyAuthorisedActors(address _address) {\r\n        require(coldStorages[_address].isEligible == true || _address == tx.origin || rc.getRole(tx.origin) == rc.governmentID(), \"Unauthorised actor\");\r\n        _;\r\n    }\r\n\r\n    function addColdStorage(\r\n        string memory _ownerName,\r\n        int256 _latitude,\r\n        int256 _longitude,\r\n        uint256 _capacity,\r\n        uint256 _price,\r\n        string _hash\r\n    ) public {\r\n        ColdStorage storage coldStorage = coldStorages[tx.origin];\r\n        coldStorage.ownerName = _ownerName;\r\n        coldStorage.latitude = _latitude;\r\n        coldStorage.longitude = _longitude;\r\n        coldStorage.capacity = _capacity;\r\n        coldStorage.price = _price;\r\n        coldStorage.hash = _hash;\r\n        coldStorage.isEligible = false;\r\n        \r\n        unverifiedColdStorages.push(tx.origin);\r\n    }\r\n\r\n    function getColdStorages() public view returns (address[] memory) {\r\n        return coldStorageAddresses;\r\n    }\r\n\r\n    function getRequests(address _address) public view returns (address[] memory) {\r\n        require(msg.sender == _address);\r\n\r\n        return coldStorages[_address].requests;\r\n    }\r\n\r\n    function getAllCSrequestedByAddress(address _address)\r\n        public\r\n        view\r\n        returns (address[] memory)\r\n    {\r\n        address[] memory CSIDs = new address[](coldStorageAddresses.length);\r\n        uint256 pointer = 0;\r\n        \r\n        //loop to traverse through cold storages\r\n        for (uint256 i = 0; i < coldStorageAddresses.length; i++) {\r\n            for (uint256 j = 0; j < coldStorages[coldStorageAddresses[i]].requests.length;j++) {\r\n                if (coldStorages[coldStorageAddresses[i]].requests[j] == _address) {\r\n                    CSIDs[pointer++] = coldStorageAddresses[i];\r\n                    break;\r\n                }\r\n            }\r\n        }\r\n        return CSIDs;\r\n    }\r\n\r\n    function getAllCSapprovedForAddress(address _address)\r\n        public\r\n        view\r\n        returns (address[] memory)\r\n    {\r\n        address[] memory CSIDs = new address[](coldStorageAddresses.length);\r\n        uint256 pointer = 0;\r\n        \r\n        //loop to traverse through cold storages\r\n        for (uint256 i = 0; i < coldStorageAddresses.length; i++) {\r\n            for (uint256 j = 0; j < coldStorages[coldStorageAddresses[i]].approvedRequests.length; j++) {\r\n                if (coldStorages[coldStorageAddresses[i]].approvedRequests[j] == _address) {\r\n                    CSIDs[pointer++] = coldStorageAddresses[i];\r\n                    break;\r\n                }\r\n            }\r\n        }\r\n        return CSIDs;\r\n    }\r\n\r\n    function getColdStorage(address _address)\r\n        public onlyAuthorisedActors(_address)\r\n        view\r\n        returns (\r\n            string memory _ownerName,\r\n            int256 _latitude,\r\n            int256 _longitude,\r\n            uint256 _capacity,\r\n            uint256 _price\r\n        )\r\n    {\r\n        return (\r\n            coldStorages[_address].ownerName,\r\n            coldStorages[_address].latitude,\r\n            coldStorages[_address].longitude,\r\n            coldStorages[_address].capacity,\r\n            coldStorages[_address].price\r\n        );\r\n    }\r\n\r\n    function getHash(address _address) public view onlyGovernmentOfficial returns(string) {\r\n        return coldStorages[_address].hash;\r\n    }\r\n    \r\n    function getLocation(address _address) external view returns(int256, int256) {\r\n        return (coldStorages[_address].latitude, coldStorages[_address].longitude);\r\n    }\r\n    \r\n    function getColdStoragePrice(address _address) public view returns (uint256 _price) {\r\n        return coldStorages[_address].price;\r\n    }\r\n\r\n    function countColdStorages() public view returns (uint256) {\r\n        return coldStorageAddresses.length;\r\n    }\r\n\r\n    function getNumColdStorage(uint256 pos) public view returns(address) {\r\n        return coldStorageAddresses[pos];\r\n    }\r\n\r\n    function requestColdStorage(address _address) public {\r\n        //owner can't buy their own storage\r\n        require(msg.sender != _address);\r\n\r\n        if (address(msg.sender).balance >= coldStorages[_address].price) {\r\n            coldStorages[_address].requests.push(address(msg.sender));\r\n        }\r\n    }\r\n\r\n    function removeRequest(address _address, address _addressColdStorage) public {\r\n        address[] storage reqs = coldStorages[_addressColdStorage].requests;\r\n\r\n        bool isPresent = false;\r\n        uint256 reqIndex = 0;\r\n        uint256 i;\r\n        \r\n        for (i = 0; i < reqs.length; i++) {\r\n            if (reqs[i] == _address) {\r\n                isPresent = true;\r\n                reqIndex = i;\r\n                break;\r\n            }\r\n        }\r\n\r\n        if (isPresent) {\r\n            for (i = reqIndex; i < reqs.length - 1; i++) {\r\n                reqs[i] = reqs[i + 1];\r\n            }\r\n\r\n            delete reqs[reqs.length - 1];\r\n            coldStorages[_addressColdStorage].requests = reqs;\r\n        } else \r\n        return;\r\n    }\r\n\r\n    function removeApprovedRequest(address _address, address _addressColdStorage) public {\r\n        address[] storage appReqs = coldStorages[_addressColdStorage].approvedRequests;\r\n\r\n        bool isPresent = false;\r\n        uint256 reqIndex = 0;\r\n        uint256 i;\r\n\r\n        for (i = 0; i < appReqs.length; i++) {\r\n            if (appReqs[i] == _address) {\r\n                isPresent = true;\r\n                reqIndex = i;\r\n                break;\r\n            }\r\n        }\r\n\r\n        if (isPresent) {\r\n            for (i = reqIndex; i < appReqs.length - 1; i++) {\r\n                appReqs[i] = appReqs[i + 1];\r\n            }\r\n\r\n            delete appReqs[appReqs.length - 1];\r\n            coldStorages[_addressColdStorage].approvedRequests = appReqs;\r\n        } else \r\n        return;\r\n    }\r\n\r\n    function approveColdStorage(address _addressColdStorage, address _address) public {\r\n        require(msg.sender == _addressColdStorage);\r\n\r\n        coldStorages[_addressColdStorage].approvedRequests.push(_address);\r\n        removeRequest(_address, _addressColdStorage);\r\n    }\r\n\r\n    function getApprovedRequests(address _address)\r\n        public\r\n        view\r\n        returns (address[] memory)\r\n    {\r\n        require(msg.sender == _address);\r\n\r\n        return coldStorages[_address].approvedRequests;\r\n    }\r\n\r\n    function rentColdStorage(address _address) public {\r\n        coldStorages[_address].tenants.push(msg.sender);\r\n        removeApprovedRequest(msg.sender, _address);\r\n    }\r\n\r\n    function getRentedStorages(address _address)\r\n        public\r\n        view\r\n        returns (address[] memory)\r\n    {\r\n        address[] memory rentedIDs = new address[](coldStorageAddresses.length);\r\n        uint256 pointer = 0;\r\n        \r\n        for (uint256 i = 0; i < coldStorageAddresses.length; i++) {\r\n            for (uint256 j = 0; j < coldStorages[coldStorageAddresses[i]].tenants.length; j++) {\r\n                if (coldStorages[coldStorageAddresses[i]].tenants[j] == _address) {\r\n                    rentedIDs[pointer++] = coldStorageAddresses[i];\r\n                    break;\r\n                }\r\n            }\r\n        }\r\n        return rentedIDs;\r\n    }\r\n\r\n    function getTenants(address _address) public view returns (address[] memory) {\r\n        require(msg.sender == _address);\r\n        return coldStorages[_address].tenants;\r\n    }\r\n\r\n    /*//function to add new item to cold storage\r\n    function addItem(\r\n        address _address,\r\n        string memory _itemName,\r\n        uint256 _quantity\r\n    ) public {\r\n        coldStorages[_address].items[_itemName] = _quantity;\r\n        coldStorages[_address].itemNames.push(_itemName);\r\n    }\r\n\r\n    //function to view items\r\n    function getItemNames(uint256 _id) public view returns (string[] memory) {\r\n        return coldStorages[_id].itemNames;\r\n    }\r\n\r\n    function getItemQuantites(uint256 _id, string memory _itemName)\r\n        public\r\n        view\r\n        returns (uint256)\r\n    {\r\n        return coldStorages[_id].items[_itemName];\r\n    }\r\n\r\n    //function to get quantities of items*/\r\n    \r\n    function getUnverifiedColdStorages() public onlyGovernmentOfficial view returns (address[] memory) {\r\n        return unverifiedColdStorages;\r\n    }\r\n\r\n    function getNumUnverifiedColdStorages() public onlyGovernmentOfficial view returns (uint256) {\r\n        return unverifiedColdStorages.length;\r\n    }\r\n\r\n    function getUnverifiedColdStorage(uint256 pos) public onlyGovernmentOfficial view returns (address) {\r\n        return unverifiedColdStorages[pos];\r\n    }\r\n    \r\n    function setEligible(address _address) public onlyGovernmentOfficial {\r\n        for (uint256 i = 0 ; i < unverifiedColdStorages.length ; i++) {\r\n            if (unverifiedColdStorages[i] == _address) {\r\n                unverifiedColdStorages[i] = unverifiedColdStorages[unverifiedColdStorages.length-1];\r\n                delete unverifiedColdStorages[unverifiedColdStorages.length-1];\r\n                coldStorages[_address].isEligible = true;\r\n                unverifiedColdStorages.length--;\r\n                coldStorageAddresses.push(_address);\r\n                rc.addRole(_address, rc.coldStorageRoleID());\r\n                break;\r\n            }\r\n        }\r\n    }\r\n}\r\n",
  "sourcePath": "D:\\7thSemester\\CS491\\smart_agriculture_react\\contracts\\ColdStorageContract.sol",
  "compiler": {
    "name": "solc",
    "version": "0.4.26+commit.4563c3fc.Emscripten.clang"
  },
  "schemaVersion": "3.4.3",
  "updatedAt": "2021-12-23T06:19:56.248Z",
  "networkType": "ethereum",
  "devdoc": {
    "methods": {}
  },
  "userdoc": {
    "methods": {}
  }
}