{
  "contractName": "ColdStorageContract",
  "abi": [
    {
      "constant": true,
      "inputs": [
        {
          "name": "",
          "type": "uint256"
        }
      ],
      "name": "unverifiedColdStorages",
      "outputs": [
        {
          "name": "",
          "type": "address"
        }
      ],
      "payable": false,
      "stateMutability": "view",
      "type": "function"
    },
    {
      "constant": true,
      "inputs": [],
      "name": "rc",
      "outputs": [
        {
          "name": "",
          "type": "address"
        }
      ],
      "payable": false,
      "stateMutability": "view",
      "type": "function"
    },
    {
      "constant": true,
      "inputs": [
        {
          "name": "",
          "type": "address"
        }
      ],
      "name": "coldStorages",
      "outputs": [
        {
          "name": "ownerName",
          "type": "string"
        },
        {
          "name": "latitude",
          "type": "int256"
        },
        {
          "name": "longitude",
          "type": "int256"
        },
        {
          "name": "capacity",
          "type": "uint256"
        },
        {
          "name": "price",
          "type": "uint256"
        },
        {
          "name": "hash",
          "type": "string"
        },
        {
          "name": "isEligible",
          "type": "bool"
        }
      ],
      "payable": false,
      "stateMutability": "view",
      "type": "function"
    },
    {
      "constant": true,
      "inputs": [
        {
          "name": "",
          "type": "uint256"
        }
      ],
      "name": "coldStorageAddresses",
      "outputs": [
        {
          "name": "",
          "type": "address"
        }
      ],
      "payable": false,
      "stateMutability": "view",
      "type": "function"
    },
    {
      "inputs": [
        {
          "name": "_address",
          "type": "address"
        }
      ],
      "payable": false,
      "stateMutability": "nonpayable",
      "type": "constructor"
    },
    {
      "constant": false,
      "inputs": [
        {
          "name": "_ownerName",
          "type": "string"
        },
        {
          "name": "_latitude",
          "type": "int256"
        },
        {
          "name": "_longitude",
          "type": "int256"
        },
        {
          "name": "_capacity",
          "type": "uint256"
        },
        {
          "name": "_price",
          "type": "uint256"
        },
        {
          "name": "_hash",
          "type": "string"
        }
      ],
      "name": "addColdStorage",
      "outputs": [],
      "payable": false,
      "stateMutability": "nonpayable",
      "type": "function"
    },
    {
      "constant": true,
      "inputs": [],
      "name": "getColdStorages",
      "outputs": [
        {
          "name": "",
          "type": "address[]"
        }
      ],
      "payable": false,
      "stateMutability": "view",
      "type": "function"
    },
    {
      "constant": true,
      "inputs": [
        {
          "name": "_address",
          "type": "address"
        }
      ],
      "name": "getRequests",
      "outputs": [
        {
          "name": "",
          "type": "address[]"
        }
      ],
      "payable": false,
      "stateMutability": "view",
      "type": "function"
    },
    {
      "constant": true,
      "inputs": [
        {
          "name": "_address",
          "type": "address"
        }
      ],
      "name": "getAllCSrequestedByAddress",
      "outputs": [
        {
          "name": "",
          "type": "address[]"
        }
      ],
      "payable": false,
      "stateMutability": "view",
      "type": "function"
    },
    {
      "constant": true,
      "inputs": [
        {
          "name": "_address",
          "type": "address"
        }
      ],
      "name": "getAllCSapprovedForAddress",
      "outputs": [
        {
          "name": "",
          "type": "address[]"
        }
      ],
      "payable": false,
      "stateMutability": "view",
      "type": "function"
    },
    {
      "constant": true,
      "inputs": [
        {
          "name": "_address",
          "type": "address"
        }
      ],
      "name": "getColdStorage",
      "outputs": [
        {
          "name": "_ownerName",
          "type": "string"
        },
        {
          "name": "_latitude",
          "type": "int256"
        },
        {
          "name": "_longitude",
          "type": "int256"
        },
        {
          "name": "_capacity",
          "type": "uint256"
        },
        {
          "name": "_price",
          "type": "uint256"
        }
      ],
      "payable": false,
      "stateMutability": "view",
      "type": "function"
    },
    {
      "constant": true,
      "inputs": [
        {
          "name": "_address",
          "type": "address"
        }
      ],
      "name": "getHash",
      "outputs": [
        {
          "name": "",
          "type": "string"
        }
      ],
      "payable": false,
      "stateMutability": "view",
      "type": "function"
    },
    {
      "constant": true,
      "inputs": [
        {
          "name": "_address",
          "type": "address"
        }
      ],
      "name": "getLocation",
      "outputs": [
        {
          "name": "",
          "type": "int256"
        },
        {
          "name": "",
          "type": "int256"
        }
      ],
      "payable": false,
      "stateMutability": "view",
      "type": "function"
    },
    {
      "constant": true,
      "inputs": [
        {
          "name": "_address",
          "type": "address"
        }
      ],
      "name": "getColdStoragePrice",
      "outputs": [
        {
          "name": "_price",
          "type": "uint256"
        }
      ],
      "payable": false,
      "stateMutability": "view",
      "type": "function"
    },
    {
      "constant": true,
      "inputs": [],
      "name": "countColdStorages",
      "outputs": [
        {
          "name": "",
          "type": "uint256"
        }
      ],
      "payable": false,
      "stateMutability": "view",
      "type": "function"
    },
    {
      "constant": true,
      "inputs": [
        {
          "name": "pos",
          "type": "uint256"
        }
      ],
      "name": "getNumColdStorage",
      "outputs": [
        {
          "name": "",
          "type": "address"
        }
      ],
      "payable": false,
      "stateMutability": "view",
      "type": "function"
    },
    {
      "constant": false,
      "inputs": [
        {
          "name": "_address",
          "type": "address"
        }
      ],
      "name": "requestColdStorage",
      "outputs": [],
      "payable": false,
      "stateMutability": "nonpayable",
      "type": "function"
    },
    {
      "constant": false,
      "inputs": [
        {
          "name": "_address",
          "type": "address"
        },
        {
          "name": "_addressColdStorage",
          "type": "address"
        }
      ],
      "name": "removeRequest",
      "outputs": [],
      "payable": false,
      "stateMutability": "nonpayable",
      "type": "function"
    },
    {
      "constant": false,
      "inputs": [
        {
          "name": "_address",
          "type": "address"
        },
        {
          "name": "_addressColdStorage",
          "type": "address"
        }
      ],
      "name": "removeApprovedRequest",
      "outputs": [],
      "payable": false,
      "stateMutability": "nonpayable",
      "type": "function"
    },
    {
      "constant": false,
      "inputs": [
        {
          "name": "_addressColdStorage",
          "type": "address"
        },
        {
          "name": "_address",
          "type": "address"
        }
      ],
      "name": "approveColdStorage",
      "outputs": [],
      "payable": false,
      "stateMutability": "nonpayable",
      "type": "function"
    },
    {
      "constant": true,
      "inputs": [
        {
          "name": "_address",
          "type": "address"
        }
      ],
      "name": "getApprovedRequests",
      "outputs": [
        {
          "name": "",
          "type": "address[]"
        }
      ],
      "payable": false,
      "stateMutability": "view",
      "type": "function"
    },
    {
      "constant": false,
      "inputs": [
        {
          "name": "_address",
          "type": "address"
        }
      ],
      "name": "rentColdStorage",
      "outputs": [],
      "payable": false,
      "stateMutability": "nonpayable",
      "type": "function"
    },
    {
      "constant": true,
      "inputs": [
        {
          "name": "_address",
          "type": "address"
        }
      ],
      "name": "getRentedStorages",
      "outputs": [
        {
          "name": "",
          "type": "address[]"
        }
      ],
      "payable": false,
      "stateMutability": "view",
      "type": "function"
    },
    {
      "constant": true,
      "inputs": [
        {
          "name": "_address",
          "type": "address"
        }
      ],
      "name": "getTenants",
      "outputs": [
        {
          "name": "",
          "type": "address[]"
        }
      ],
      "payable": false,
      "stateMutability": "view",
      "type": "function"
    },
    {
      "constant": true,
      "inputs": [],
      "name": "getUnverifiedColdStorages",
      "outputs": [
        {
          "name": "",
          "type": "address[]"
        }
      ],
      "payable": false,
      "stateMutability": "view",
      "type": "function"
    },
    {
      "constant": true,
      "inputs": [],
      "name": "getNumUnverifiedColdStorages",
      "outputs": [
        {
          "name": "",
          "type": "uint256"
        }
      ],
      "payable": false,
      "stateMutability": "view",
      "type": "function"
    },
    {
      "constant": true,
      "inputs": [
        {
          "name": "pos",
          "type": "uint256"
        }
      ],
      "name": "getUnverifiedColdStorage",
      "outputs": [
        {
          "name": "",
          "type": "address"
        }
      ],
      "payable": false,
      "stateMutability": "view",
      "type": "function"
    },
    {
      "constant": false,
      "inputs": [
        {
          "name": "_address",
          "type": "address"
        }
      ],
      "name": "setEligible",
      "outputs": [],
      "payable": false,
      "stateMutability": "nonpayable",
      "type": "function"
    }
  ],
  "bytecode": "0x60806040523480156200001157600080fd5b5060405160208062003d1b833981018060405262000033919081019062000090565b806000806101000a81548173ffffffffffffffffffffffffffffffffffffffff021916908373ffffffffffffffffffffffffffffffffffffffff16021790555050620000dc565b6000620000888251620000bc565b905092915050565b600060208284031215620000a357600080fd5b6000620000b3848285016200007a565b91505092915050565b600073ffffffffffffffffffffffffffffffffffffffff82169050919050565b613c2f80620000ec6000396000f30060806040526004361061015e576000357c0100000000000000000000000000000000000000000000000000000000900463ffffffff16806212827614610163578063051e25ac1461018e5780630b411f44146101cb57806311619c941461020857806312f773321461023357806315cd0aa31461025e5780631bf15898146102875780631da0b8fc146102b2578063408e9453146102ef578063517aea2a1461032c578063550966a6146103695780635839cb35146103a6578063782cbf5f146103cf5780637d3845cc146103f8578063804e44f31461043557806398c18f2f14610472578063a0a38e1f146104b5578063ba778bf9146104f2578063c3a319051461052f578063d094035414610558578063d9e0dc5914610599578063de7ff325146105d7578063e22dbe8814610614578063e476f9f514610651578063f904cf041461067a578063fe8806f5146106a3578063fef7fa6a146106cc575b600080fd5b34801561016f57600080fd5b506101786106f7565b60405161018591906138ce565b60405180910390f35b34801561019a57600080fd5b506101b560048036036101b09190810190613692565b610785565b6040516101c2919061388a565b60405180910390f35b3480156101d757600080fd5b506101f260048036036101ed9190810190613574565b6107c3565b6040516101ff91906138ce565b60405180910390f35b34801561021457600080fd5b5061021d610a3e565b60405161022a9190613a6d565b60405180910390f35b34801561023f57600080fd5b50610248610a4b565b60405161025591906138f0565b60405180910390f35b34801561026a57600080fd5b50610285600480360361028091908101906135d9565b610a70565b005b34801561029357600080fd5b5061029c610b95565b6040516102a99190613a6d565b60405180910390f35b3480156102be57600080fd5b506102d960048036036102d49190810190613574565b610d69565b6040516102e69190613934565b60405180910390f35b3480156102fb57600080fd5b5061031660048036036103119190810190613692565b611014565b604051610323919061388a565b60405180910390f35b34801561033857600080fd5b50610353600480360361034e9190810190613574565b611057565b60405161036091906138ce565b60405180910390f35b34801561037557600080fd5b50610390600480360361038b9190810190613692565b611161565b60405161039d919061388a565b60405180910390f35b3480156103b257600080fd5b506103cd60048036036103c8919081019061359d565b61136b565b005b3480156103db57600080fd5b506103f660048036036103f19190810190613574565b6115b2565b005b34801561040457600080fd5b5061041f600480360361041a9190810190613574565b6116f9565b60405161042c91906138ce565b60405180910390f35b34801561044157600080fd5b5061045c60048036036104579190810190613574565b611803565b60405161046991906138ce565b60405180910390f35b34801561047e57600080fd5b5061049960048036036104949190810190613574565b61190d565b6040516104ac97969594939291906139b0565b60405180910390f35b3480156104c157600080fd5b506104dc60048036036104d79190810190613692565b611a8c565b6040516104e9919061388a565b60405180910390f35b3480156104fe57600080fd5b5061051960048036036105149190810190613574565b611aca565b6040516105269190613a6d565b60405180910390f35b34801561053b57600080fd5b5061055660048036036105519190810190613574565b611b16565b005b34801561056457600080fd5b5061057f600480360361057a9190810190613574565b611bc9565b604051610590959493929190613956565b60405180910390f35b3480156105a557600080fd5b506105c060048036036105bb9190810190613574565b61212e565b6040516105ce92919061390b565b60405180910390f35b3480156105e357600080fd5b506105fe60048036036105f99190810190613574565b6121c0565b60405161060b91906138ce565b60405180910390f35b34801561062057600080fd5b5061063b60048036036106369190810190613574565b61243b565b60405161064891906138ce565b60405180910390f35b34801561065d57600080fd5b506106786004803603610673919081019061359d565b6126b6565b005b34801561068657600080fd5b506106a1600480360361069c9190810190613574565b6127a4565b005b3480156106af57600080fd5b506106ca60048036036106c5919081019061359d565b612d1b565b005b3480156106d857600080fd5b506106e1612f62565b6040516106ee91906138ce565b60405180910390f35b6060600280548060200260200160405190810160405280929190818152602001828054801561077b57602002820191906000526020600020905b8160009054906101000a900473ffffffffffffffffffffffffffffffffffffffff1673ffffffffffffffffffffffffffffffffffffffff1681526020019060010190808311610731575b5050505050905090565b60038181548110151561079457fe5b906000526020600020016000915054906101000a900473ffffffffffffffffffffffffffffffffffffffff1681565b60608060008060006002805490506040519080825280602002602001820160405280156107ff5781602001602082028038833980820191505090505b50935060009250600091505b600280549050821015610a3257600090505b6001600060028481548110151561083057fe5b9060005260206000200160009054906101000a900473ffffffffffffffffffffffffffffffffffffffff1673ffffffffffffffffffffffffffffffffffffffff1673ffffffffffffffffffffffffffffffffffffffff16815260200190815260200160002060080180549050811015610a25578573ffffffffffffffffffffffffffffffffffffffff16600160006002858154811015156108cd57fe5b9060005260206000200160009054906101000a900473ffffffffffffffffffffffffffffffffffffffff1673ffffffffffffffffffffffffffffffffffffffff1673ffffffffffffffffffffffffffffffffffffffff1681526020019081526020016000206008018281548110151561094257fe5b9060005260206000200160009054906101000a900473ffffffffffffffffffffffffffffffffffffffff1673ffffffffffffffffffffffffffffffffffffffff161415610a185760028281548110151561099857fe5b9060005260206000200160009054906101000a900473ffffffffffffffffffffffffffffffffffffffff1684848060010195508151811015156109d757fe5b9060200190602002019073ffffffffffffffffffffffffffffffffffffffff16908173ffffffffffffffffffffffffffffffffffffffff1681525050610a25565b808060010191505061081d565b818060010192505061080b565b83945050505050919050565b6000600280549050905090565b6000809054906101000a900473ffffffffffffffffffffffffffffffffffffffff1681565b6000600160003273ffffffffffffffffffffffffffffffffffffffff1673ffffffffffffffffffffffffffffffffffffffff168152602001908152602001600020905086816000019080519060200190610acb929190613368565b5085816001018190555084816002018190555083816003018190555082816004018190555081816005019080519060200190610b08929190613368565b5060008160060160006101000a81548160ff02191690831515021790555060033290806001815401808255809150509060018203906000526020600020016000909192909190916101000a81548173ffffffffffffffffffffffffffffffffffffffff021916908373ffffffffffffffffffffffffffffffffffffffff1602179055505050505050505050565b60008060009054906101000a900473ffffffffffffffffffffffffffffffffffffffff1673ffffffffffffffffffffffffffffffffffffffff166346fb5b9c6040518163ffffffff167c0100000000000000000000000000000000000000000000000000000000028152600401602060405180830381600087803b158015610c1c57600080fd5b505af1158015610c30573d6000803e3d6000fd5b505050506040513d601f19601f82011682018060405250610c5491908101906136bb565b6000809054906101000a900473ffffffffffffffffffffffffffffffffffffffff1673ffffffffffffffffffffffffffffffffffffffff166344276733326040518263ffffffff167c0100000000000000000000000000000000000000000000000000000000028152600401610cca919061388a565b602060405180830381600087803b158015610ce457600080fd5b505af1158015610cf8573d6000803e3d6000fd5b505050506040513d601f19601f82011682018060405250610d1c91908101906136bb565b141515610d5e576040517f08c379a0000000000000000000000000000000000000000000000000000000008152600401610d5590613a4d565b60405180910390fd5b600380549050905090565b60606000809054906101000a900473ffffffffffffffffffffffffffffffffffffffff1673ffffffffffffffffffffffffffffffffffffffff166346fb5b9c6040518163ffffffff167c0100000000000000000000000000000000000000000000000000000000028152600401602060405180830381600087803b158015610df057600080fd5b505af1158015610e04573d6000803e3d6000fd5b505050506040513d601f19601f82011682018060405250610e2891908101906136bb565b6000809054906101000a900473ffffffffffffffffffffffffffffffffffffffff1673ffffffffffffffffffffffffffffffffffffffff166344276733326040518263ffffffff167c0100000000000000000000000000000000000000000000000000000000028152600401610e9e919061388a565b602060405180830381600087803b158015610eb857600080fd5b505af1158015610ecc573d6000803e3d6000fd5b505050506040513d601f19601f82011682018060405250610ef091908101906136bb565b141515610f32576040517f08c379a0000000000000000000000000000000000000000000000000000000008152600401610f2990613a4d565b60405180910390fd5b600160008373ffffffffffffffffffffffffffffffffffffffff1673ffffffffffffffffffffffffffffffffffffffff1681526020019081526020016000206005018054600181600116156101000203166002900480601f0160208091040260200160405190810160405280929190818152602001828054600181600116156101000203166002900480156110085780601f10610fdd57610100808354040283529160200191611008565b820191906000526020600020905b815481529060010190602001808311610feb57829003601f168201915b50505050509050919050565b600060028281548110151561102557fe5b9060005260206000200160009054906101000a900473ffffffffffffffffffffffffffffffffffffffff169050919050565b60608173ffffffffffffffffffffffffffffffffffffffff163373ffffffffffffffffffffffffffffffffffffffff1614151561109357600080fd5b600160008373ffffffffffffffffffffffffffffffffffffffff1673ffffffffffffffffffffffffffffffffffffffff16815260200190815260200160002060080180548060200260200160405190810160405280929190818152602001828054801561115557602002820191906000526020600020905b8160009054906101000a900473ffffffffffffffffffffffffffffffffffffffff1673ffffffffffffffffffffffffffffffffffffffff168152602001906001019080831161110b575b50505050509050919050565b60008060009054906101000a900473ffffffffffffffffffffffffffffffffffffffff1673ffffffffffffffffffffffffffffffffffffffff166346fb5b9c6040518163ffffffff167c0100000000000000000000000000000000000000000000000000000000028152600401602060405180830381600087803b1580156111e857600080fd5b505af11580156111fc573d6000803e3d6000fd5b505050506040513d601f19601f8201168201806040525061122091908101906136bb565b6000809054906101000a900473ffffffffffffffffffffffffffffffffffffffff1673ffffffffffffffffffffffffffffffffffffffff166344276733326040518263ffffffff167c0100000000000000000000000000000000000000000000000000000000028152600401611296919061388a565b602060405180830381600087803b1580156112b057600080fd5b505af11580156112c4573d6000803e3d6000fd5b505050506040513d601f19601f820116820180604052506112e891908101906136bb565b14151561132a576040517f08c379a000000000000000000000000000000000000000000000000000000000815260040161132190613a4d565b60405180910390fd5b60038281548110151561133957fe5b9060005260206000200160009054906101000a900473ffffffffffffffffffffffffffffffffffffffff169050919050565b600080600080600160008673ffffffffffffffffffffffffffffffffffffffff1673ffffffffffffffffffffffffffffffffffffffff16815260200190815260200160002060080193506000925060009150600090505b8380549050811015611453578573ffffffffffffffffffffffffffffffffffffffff1684828154811015156113f357fe5b9060005260206000200160009054906101000a900473ffffffffffffffffffffffffffffffffffffffff1673ffffffffffffffffffffffffffffffffffffffff1614156114465760019250809150611453565b80806001019150506113c2565b82156115a4578190505b600184805490500381101561150b57836001820181548110151561147d57fe5b9060005260206000200160009054906101000a900473ffffffffffffffffffffffffffffffffffffffff1684828154811015156114b657fe5b9060005260206000200160006101000a81548173ffffffffffffffffffffffffffffffffffffffff021916908373ffffffffffffffffffffffffffffffffffffffff160217905550808060010191505061145d565b83600185805490500381548110151561152057fe5b9060005260206000200160006101000a81549073ffffffffffffffffffffffffffffffffffffffff021916905583600160008773ffffffffffffffffffffffffffffffffffffffff1673ffffffffffffffffffffffffffffffffffffffff16815260200190815260200160002060080190805461159e9291906133e8565b506115a9565b6115aa565b5b505050505050565b8073ffffffffffffffffffffffffffffffffffffffff163373ffffffffffffffffffffffffffffffffffffffff16141515156115ed57600080fd5b600160008273ffffffffffffffffffffffffffffffffffffffff1673ffffffffffffffffffffffffffffffffffffffff168152602001908152602001600020600401543373ffffffffffffffffffffffffffffffffffffffff16311015156116f657600160008273ffffffffffffffffffffffffffffffffffffffff1673ffffffffffffffffffffffffffffffffffffffff1681526020019081526020016000206007013390806001815401808255809150509060018203906000526020600020016000909192909190916101000a81548173ffffffffffffffffffffffffffffffffffffffff021916908373ffffffffffffffffffffffffffffffffffffffff160217905550505b50565b60608173ffffffffffffffffffffffffffffffffffffffff163373ffffffffffffffffffffffffffffffffffffffff1614151561173557600080fd5b600160008373ffffffffffffffffffffffffffffffffffffffff1673ffffffffffffffffffffffffffffffffffffffff1681526020019081526020016000206009018054806020026020016040519081016040528092919081815260200182805480156117f757602002820191906000526020600020905b8160009054906101000a900473ffffffffffffffffffffffffffffffffffffffff1673ffffffffffffffffffffffffffffffffffffffff16815260200190600101908083116117ad575b50505050509050919050565b60608173ffffffffffffffffffffffffffffffffffffffff163373ffffffffffffffffffffffffffffffffffffffff1614151561183f57600080fd5b600160008373ffffffffffffffffffffffffffffffffffffffff1673ffffffffffffffffffffffffffffffffffffffff16815260200190815260200160002060070180548060200260200160405190810160405280929190818152602001828054801561190157602002820191906000526020600020905b8160009054906101000a900473ffffffffffffffffffffffffffffffffffffffff1673ffffffffffffffffffffffffffffffffffffffff16815260200190600101908083116118b7575b50505050509050919050565b6001602052806000526040600020600091509050806000018054600181600116156101000203166002900480601f0160208091040260200160405190810160405280929190818152602001828054600181600116156101000203166002900480156119b95780601f1061198e576101008083540402835291602001916119b9565b820191906000526020600020905b81548152906001019060200180831161199c57829003601f168201915b505050505090806001015490806002015490806003015490806004015490806005018054600181600116156101000203166002900480601f016020809104026020016040519081016040528092919081815260200182805460018160011615610100020316600290048015611a6f5780601f10611a4457610100808354040283529160200191611a6f565b820191906000526020600020905b815481529060010190602001808311611a5257829003601f168201915b5050505050908060060160009054906101000a900460ff16905087565b600281815481101515611a9b57fe5b906000526020600020016000915054906101000a900473ffffffffffffffffffffffffffffffffffffffff1681565b6000600160008373ffffffffffffffffffffffffffffffffffffffff1673ffffffffffffffffffffffffffffffffffffffff168152602001908152602001600020600401549050919050565b600160008273ffffffffffffffffffffffffffffffffffffffff1673ffffffffffffffffffffffffffffffffffffffff1681526020019081526020016000206009013390806001815401808255809150509060018203906000526020600020016000909192909190916101000a81548173ffffffffffffffffffffffffffffffffffffffff021916908373ffffffffffffffffffffffffffffffffffffffff16021790555050611bc6338261136b565b50565b60606000806000808560011515600160008373ffffffffffffffffffffffffffffffffffffffff1673ffffffffffffffffffffffffffffffffffffffff16815260200190815260200160002060060160009054906101000a900460ff1615151480611eef575060001515611d27600160008473ffffffffffffffffffffffffffffffffffffffff1673ffffffffffffffffffffffffffffffffffffffff1681526020019081526020016000206005018054600181600116156101000203166002900480601f016020809104026020016040519081016040528092919081815260200182805460018160011615610100020316600290048015611d0c5780601f10611ce157610100808354040283529160200191611d0c565b820191906000526020600020905b815481529060010190602001808311611cef57829003601f168201915b505050505060206040519081016040528060008152506131b7565b1515148015611eee57503273ffffffffffffffffffffffffffffffffffffffff168173ffffffffffffffffffffffffffffffffffffffff161480611eed57506000809054906101000a900473ffffffffffffffffffffffffffffffffffffffff1673ffffffffffffffffffffffffffffffffffffffff166346fb5b9c6040518163ffffffff167c0100000000000000000000000000000000000000000000000000000000028152600401602060405180830381600087803b158015611deb57600080fd5b505af1158015611dff573d6000803e3d6000fd5b505050506040513d601f19601f82011682018060405250611e2391908101906136bb565b6000809054906101000a900473ffffffffffffffffffffffffffffffffffffffff1673ffffffffffffffffffffffffffffffffffffffff166344276733326040518263ffffffff167c0100000000000000000000000000000000000000000000000000000000028152600401611e99919061388a565b602060405180830381600087803b158015611eb357600080fd5b505af1158015611ec7573d6000803e3d6000fd5b505050506040513d601f19601f82011682018060405250611eeb91908101906136bb565b145b5b5b1515611f30576040517f08c379a0000000000000000000000000000000000000000000000000000000008152600401611f2790613a2d565b60405180910390fd5b600160008873ffffffffffffffffffffffffffffffffffffffff1673ffffffffffffffffffffffffffffffffffffffff168152602001908152602001600020600001600160008973ffffffffffffffffffffffffffffffffffffffff1673ffffffffffffffffffffffffffffffffffffffff16815260200190815260200160002060010154600160008a73ffffffffffffffffffffffffffffffffffffffff1673ffffffffffffffffffffffffffffffffffffffff16815260200190815260200160002060020154600160008b73ffffffffffffffffffffffffffffffffffffffff1673ffffffffffffffffffffffffffffffffffffffff16815260200190815260200160002060030154600160008c73ffffffffffffffffffffffffffffffffffffffff1673ffffffffffffffffffffffffffffffffffffffff16815260200190815260200160002060040154848054600181600116156101000203166002900480601f0160208091040260200160405190810160405280929190818152602001828054600181600116156101000203166002900480156121135780601f106120e857610100808354040283529160200191612113565b820191906000526020600020905b8154815290600101906020018083116120f657829003601f168201915b50505050509450955095509550955095505091939590929450565b600080600160008473ffffffffffffffffffffffffffffffffffffffff1673ffffffffffffffffffffffffffffffffffffffff16815260200190815260200160002060010154600160008573ffffffffffffffffffffffffffffffffffffffff1673ffffffffffffffffffffffffffffffffffffffff1681526020019081526020016000206002015491509150915091565b60608060008060006002805490506040519080825280602002602001820160405280156121fc5781602001602082028038833980820191505090505b50935060009250600091505b60028054905082101561242f57600090505b6001600060028481548110151561222d57fe5b9060005260206000200160009054906101000a900473ffffffffffffffffffffffffffffffffffffffff1673ffffffffffffffffffffffffffffffffffffffff1673ffffffffffffffffffffffffffffffffffffffff16815260200190815260200160002060070180549050811015612422578573ffffffffffffffffffffffffffffffffffffffff16600160006002858154811015156122ca57fe5b9060005260206000200160009054906101000a900473ffffffffffffffffffffffffffffffffffffffff1673ffffffffffffffffffffffffffffffffffffffff1673ffffffffffffffffffffffffffffffffffffffff1681526020019081526020016000206007018281548110151561233f57fe5b9060005260206000200160009054906101000a900473ffffffffffffffffffffffffffffffffffffffff1673ffffffffffffffffffffffffffffffffffffffff1614156124155760028281548110151561239557fe5b9060005260206000200160009054906101000a900473ffffffffffffffffffffffffffffffffffffffff1684848060010195508151811015156123d457fe5b9060200190602002019073ffffffffffffffffffffffffffffffffffffffff16908173ffffffffffffffffffffffffffffffffffffffff1681525050612422565b808060010191505061221a565b8180600101925050612208565b83945050505050919050565b60608060008060006002805490506040519080825280602002602001820160405280156124775781602001602082028038833980820191505090505b50935060009250600091505b6002805490508210156126aa57600090505b600160006002848154811015156124a857fe5b9060005260206000200160009054906101000a900473ffffffffffffffffffffffffffffffffffffffff1673ffffffffffffffffffffffffffffffffffffffff1673ffffffffffffffffffffffffffffffffffffffff1681526020019081526020016000206009018054905081101561269d578573ffffffffffffffffffffffffffffffffffffffff166001600060028581548110151561254557fe5b9060005260206000200160009054906101000a900473ffffffffffffffffffffffffffffffffffffffff1673ffffffffffffffffffffffffffffffffffffffff1673ffffffffffffffffffffffffffffffffffffffff168152602001908152602001600020600901828154811015156125ba57fe5b9060005260206000200160009054906101000a900473ffffffffffffffffffffffffffffffffffffffff1673ffffffffffffffffffffffffffffffffffffffff1614156126905760028281548110151561261057fe5b9060005260206000200160009054906101000a900473ffffffffffffffffffffffffffffffffffffffff16848480600101955081518110151561264f57fe5b9060200190602002019073ffffffffffffffffffffffffffffffffffffffff16908173ffffffffffffffffffffffffffffffffffffffff168152505061269d565b8080600101915050612495565b8180600101925050612483565b83945050505050919050565b8173ffffffffffffffffffffffffffffffffffffffff163373ffffffffffffffffffffffffffffffffffffffff161415156126f057600080fd5b600160008373ffffffffffffffffffffffffffffffffffffffff1673ffffffffffffffffffffffffffffffffffffffff1681526020019081526020016000206008018190806001815401808255809150509060018203906000526020600020016000909192909190916101000a81548173ffffffffffffffffffffffffffffffffffffffff021916908373ffffffffffffffffffffffffffffffffffffffff160217905550506127a08183612d1b565b5050565b60008060009054906101000a900473ffffffffffffffffffffffffffffffffffffffff1673ffffffffffffffffffffffffffffffffffffffff166346fb5b9c6040518163ffffffff167c0100000000000000000000000000000000000000000000000000000000028152600401602060405180830381600087803b15801561282b57600080fd5b505af115801561283f573d6000803e3d6000fd5b505050506040513d601f19601f8201168201806040525061286391908101906136bb565b6000809054906101000a900473ffffffffffffffffffffffffffffffffffffffff1673ffffffffffffffffffffffffffffffffffffffff166344276733326040518263ffffffff167c01000000000000000000000000000000000000000000000000000000000281526004016128d9919061388a565b602060405180830381600087803b1580156128f357600080fd5b505af1158015612907573d6000803e3d6000fd5b505050506040513d601f19601f8201168201806040525061292b91908101906136bb565b14151561296d576040517f08c379a000000000000000000000000000000000000000000000000000000000815260040161296490613a4d565b60405180910390fd5b600090505b600380549050811015612d17578173ffffffffffffffffffffffffffffffffffffffff166003828154811015156129a557fe5b9060005260206000200160009054906101000a900473ffffffffffffffffffffffffffffffffffffffff1673ffffffffffffffffffffffffffffffffffffffff161415612d0a576003600160038054905003815481101515612a0357fe5b9060005260206000200160009054906101000a900473ffffffffffffffffffffffffffffffffffffffff16600382815481101515612a3d57fe5b9060005260206000200160006101000a81548173ffffffffffffffffffffffffffffffffffffffff021916908373ffffffffffffffffffffffffffffffffffffffff1602179055506003600160038054905003815481101515612a9c57fe5b9060005260206000200160006101000a81549073ffffffffffffffffffffffffffffffffffffffff021916905560018060008473ffffffffffffffffffffffffffffffffffffffff1673ffffffffffffffffffffffffffffffffffffffff16815260200190815260200160002060060160006101000a81548160ff0219169083151502179055506003805480919060019003612b38919061343a565b5060028290806001815401808255809150509060018203906000526020600020016000909192909190916101000a81548173ffffffffffffffffffffffffffffffffffffffff021916908373ffffffffffffffffffffffffffffffffffffffff160217905550506000809054906101000a900473ffffffffffffffffffffffffffffffffffffffff1673ffffffffffffffffffffffffffffffffffffffff16637fde1c8a836000809054906101000a900473ffffffffffffffffffffffffffffffffffffffff1673ffffffffffffffffffffffffffffffffffffffff1663bf4fd3696040518163ffffffff167c0100000000000000000000000000000000000000000000000000000000028152600401602060405180830381600087803b158015612c6257600080fd5b505af1158015612c76573d6000803e3d6000fd5b505050506040513d601f19601f82011682018060405250612c9a91908101906136bb565b6040518363ffffffff167c0100000000000000000000000000000000000000000000000000000000028152600401612cd39291906138a5565b600060405180830381600087803b158015612ced57600080fd5b505af1158015612d01573d6000803e3d6000fd5b50505050612d17565b8080600101915050612972565b5050565b600080600080600160008673ffffffffffffffffffffffffffffffffffffffff1673ffffffffffffffffffffffffffffffffffffffff16815260200190815260200160002060070193506000925060009150600090505b8380549050811015612e03578573ffffffffffffffffffffffffffffffffffffffff168482815481101515612da357fe5b9060005260206000200160009054906101000a900473ffffffffffffffffffffffffffffffffffffffff1673ffffffffffffffffffffffffffffffffffffffff161415612df65760019250809150612e03565b8080600101915050612d72565b8215612f54578190505b6001848054905003811015612ebb578360018201815481101515612e2d57fe5b9060005260206000200160009054906101000a900473ffffffffffffffffffffffffffffffffffffffff168482815481101515612e6657fe5b9060005260206000200160006101000a81548173ffffffffffffffffffffffffffffffffffffffff021916908373ffffffffffffffffffffffffffffffffffffffff1602179055508080600101915050612e0d565b836001858054905003815481101515612ed057fe5b9060005260206000200160006101000a81549073ffffffffffffffffffffffffffffffffffffffff021916905583600160008773ffffffffffffffffffffffffffffffffffffffff1673ffffffffffffffffffffffffffffffffffffffff168152602001908152602001600020600701908054612f4e9291906133e8565b50612f59565b612f5a565b5b505050505050565b60606000809054906101000a900473ffffffffffffffffffffffffffffffffffffffff1673ffffffffffffffffffffffffffffffffffffffff166346fb5b9c6040518163ffffffff167c0100000000000000000000000000000000000000000000000000000000028152600401602060405180830381600087803b158015612fe957600080fd5b505af1158015612ffd573d6000803e3d6000fd5b505050506040513d601f19601f8201168201806040525061302191908101906136bb565b6000809054906101000a900473ffffffffffffffffffffffffffffffffffffffff1673ffffffffffffffffffffffffffffffffffffffff166344276733326040518263ffffffff167c0100000000000000000000000000000000000000000000000000000000028152600401613097919061388a565b602060405180830381600087803b1580156130b157600080fd5b505af11580156130c5573d6000803e3d6000fd5b505050506040513d601f19601f820116820180604052506130e991908101906136bb565b14151561312b576040517f08c379a000000000000000000000000000000000000000000000000000000000815260040161312290613a4d565b60405180910390fd5b60038054806020026020016040519081016040528092919081815260200182805480156131ad57602002820191906000526020600020905b8160009054906101000a900473ffffffffffffffffffffffffffffffffffffffff1673ffffffffffffffffffffffffffffffffffffffff1681526020019060010190808311613163575b5050505050905090565b6000816040516020018082805190602001908083835b6020831015156131f257805182526020820191506020810190506020830392506131cd565b6001836020036101000a0380198251168184511680821785525050505050509050019150506040516020818303038152906040526040518082805190602001908083835b60208310151561325b5780518252602082019150602081019050602083039250613236565b6001836020036101000a038019825116818451168082178552505050505050905001915050604051809103902060001916836040516020018082805190602001908083835b6020831015156132c557805182526020820191506020810190506020830392506132a0565b6001836020036101000a0380198251168184511680821785525050505050509050019150506040516020818303038152906040526040518082805190602001908083835b60208310151561332e5780518252602082019150602081019050602083039250613309565b6001836020036101000a03801982511681845116808217855250505050505090500191505060405180910390206000191614905092915050565b828054600181600116156101000203166002900490600052602060002090601f016020900481019282601f106133a957805160ff19168380011785556133d7565b828001600101855582156133d7579182015b828111156133d65782518255916020019190600101906133bb565b5b5090506133e49190613466565b5090565b8280548282559060005260206000209081019282156134295760005260206000209182015b8281111561342857825482559160010191906001019061340d565b5b509050613436919061348b565b5090565b815481835581811115613461578183600052602060002091820191016134609190613466565b5b505050565b61348891905b8082111561348457600081600090555060010161346c565b5090565b90565b6134cb91905b808211156134c757600081816101000a81549073ffffffffffffffffffffffffffffffffffffffff021916905550600101613491565b5090565b90565b60006134da8235613b5c565b905092915050565b60006134ee8235613b7c565b905092915050565b600082601f830112151561350957600080fd5b813561351c61351782613ab5565b613a88565b9150808252602083016020830185838301111561353857600080fd5b613543838284613ba2565b50505092915050565b60006135588235613b86565b905092915050565b600061356c8251613b86565b905092915050565b60006020828403121561358657600080fd5b6000613594848285016134ce565b91505092915050565b600080604083850312156135b057600080fd5b60006135be858286016134ce565b92505060206135cf858286016134ce565b9150509250929050565b60008060008060008060c087890312156135f257600080fd5b600087013567ffffffffffffffff81111561360c57600080fd5b61361889828a016134f6565b965050602061362989828a016134e2565b955050604061363a89828a016134e2565b945050606061364b89828a0161354c565b935050608061365c89828a0161354c565b92505060a087013567ffffffffffffffff81111561367957600080fd5b61368589828a016134f6565b9150509295509295509295565b6000602082840312156136a457600080fd5b60006136b28482850161354c565b91505092915050565b6000602082840312156136cd57600080fd5b60006136db84828501613560565b91505092915050565b6136ed81613b1c565b82525050565b60006136fe82613aee565b80845260208401935061371083613ae1565b60005b82811015613742576137268683516136e4565b61372f82613b0f565b9150602086019550600181019050613713565b50849250505092915050565b61375781613b3c565b82525050565b61376681613b90565b82525050565b61377581613b48565b82525050565b600061378682613b04565b80845261379a816020860160208601613bb1565b6137a381613be4565b602085010191505092915050565b60006137bc82613af9565b8084526137d0816020860160208601613bb1565b6137d981613be4565b602085010191505092915050565b6000601282527f556e617574686f7269736564206163746f7200000000000000000000000000006020830152604082019050919050565b6000602482527f4f6e6c7920676f7665726e6d656e74206f6666696369616c732063616e20616360208301527f63657373000000000000000000000000000000000000000000000000000000006040830152606082019050919050565b61388481613b52565b82525050565b600060208201905061389f60008301846136e4565b92915050565b60006040820190506138ba60008301856136e4565b6138c7602083018461387b565b9392505050565b600060208201905081810360008301526138e881846136f3565b905092915050565b6000602082019050613905600083018461375d565b92915050565b6000604082019050613920600083018561376c565b61392d602083018461376c565b9392505050565b6000602082019050818103600083015261394e818461377b565b905092915050565b600060a0820190508181036000830152613970818861377b565b905061397f602083018761376c565b61398c604083018661376c565b613999606083018561387b565b6139a6608083018461387b565b9695505050505050565b600060e08201905081810360008301526139ca818a6137b1565b90506139d9602083018961376c565b6139e6604083018861376c565b6139f3606083018761387b565b613a00608083018661387b565b81810360a0830152613a1281856137b1565b9050613a2160c083018461374e565b98975050505050505050565b60006020820190508181036000830152613a46816137e7565b9050919050565b60006020820190508181036000830152613a668161381e565b9050919050565b6000602082019050613a82600083018461387b565b92915050565b6000604051905081810181811067ffffffffffffffff82111715613aab57600080fd5b8060405250919050565b600067ffffffffffffffff821115613acc57600080fd5b601f19601f8301169050602081019050919050565b6000602082019050919050565b600081519050919050565b600081519050919050565b600081519050919050565b6000602082019050919050565b600073ffffffffffffffffffffffffffffffffffffffff82169050919050565b60008115159050919050565b6000819050919050565b6000819050919050565b600073ffffffffffffffffffffffffffffffffffffffff82169050919050565b6000819050919050565b6000819050919050565b6000613b9b82613b1c565b9050919050565b82818337600083830152505050565b60005b83811015613bcf578082015181840152602081019050613bb4565b83811115613bde576000848401525b50505050565b6000601f19601f83011690509190505600a265627a7a723058204526f516c6009390353d369ca38d5a09cb8e306b623b99aacfab58fbed38a97a6c6578706572696d656e74616cf50037",
  "source": "// SPDX-License-Identifier: GPL-3.0\npragma solidity ^0.4.22;\npragma experimental ABIEncoderV2;\n\nimport \"./Roles.sol\";\nimport \"./HelperMethods.sol\";\n\ncontract ColdStorageContract {\n    Roles public rc;\n    \n    constructor(address _address) public {\n        rc = Roles(_address);\n    }\n    \n    struct ColdStorage {\n        string ownerName;\n        int256 latitude;\n        int256 longitude;\n        uint256 capacity;\n        uint256 price;\n        string hash;\n        bool isEligible;\n        address[] requests;\n        address[] approvedRequests;\n        address[] tenants;\n    }\n\n    mapping(address => ColdStorage) public coldStorages;\n    address[] public coldStorageAddresses;\n    address[] public unverifiedColdStorages;\n\n     modifier onlyGovernmentOfficial() {\n        require(rc.getRole(tx.origin) == rc.governmentID(), \"Only government officials can access\");\n        _;\n    }\n\n    modifier onlyAuthorisedActors(address _address) {\n        require(coldStorages[_address].isEligible == true || (HelperMethods.compareStrings(coldStorages[_address].hash, \"\") == false && (_address == tx.origin || rc.getRole(tx.origin) == rc.governmentID())), \"Unauthorised actor\");\n        _;\n    }\n\n    function addColdStorage(\n        string memory _ownerName,\n        int256 _latitude,\n        int256 _longitude,\n        uint256 _capacity,\n        uint256 _price,\n        string _hash\n    ) public {\n        ColdStorage storage coldStorage = coldStorages[tx.origin];\n        coldStorage.ownerName = _ownerName;\n        coldStorage.latitude = _latitude;\n        coldStorage.longitude = _longitude;\n        coldStorage.capacity = _capacity;\n        coldStorage.price = _price;\n        coldStorage.hash = _hash;\n        coldStorage.isEligible = false;\n        \n        unverifiedColdStorages.push(tx.origin);\n    }\n\n    function getColdStorages() public view returns (address[] memory) {\n        return coldStorageAddresses;\n    }\n\n    function getRequests(address _address) public view returns (address[] memory) {\n        require(msg.sender == _address);\n\n        return coldStorages[_address].requests;\n    }\n\n    function getAllCSrequestedByAddress(address _address)\n        public\n        view\n        returns (address[] memory)\n    {\n        address[] memory CSIDs = new address[](coldStorageAddresses.length);\n        uint256 pointer = 0;\n        \n        //loop to traverse through cold storages\n        for (uint256 i = 0; i < coldStorageAddresses.length; i++) {\n            for (uint256 j = 0; j < coldStorages[coldStorageAddresses[i]].requests.length;j++) {\n                if (coldStorages[coldStorageAddresses[i]].requests[j] == _address) {\n                    CSIDs[pointer++] = coldStorageAddresses[i];\n                    break;\n                }\n            }\n        }\n        return CSIDs;\n    }\n\n    function getAllCSapprovedForAddress(address _address)\n        public\n        view\n        returns (address[] memory)\n    {\n        address[] memory CSIDs = new address[](coldStorageAddresses.length);\n        uint256 pointer = 0;\n        \n        //loop to traverse through cold storages\n        for (uint256 i = 0; i < coldStorageAddresses.length; i++) {\n            for (uint256 j = 0; j < coldStorages[coldStorageAddresses[i]].approvedRequests.length; j++) {\n                if (coldStorages[coldStorageAddresses[i]].approvedRequests[j] == _address) {\n                    CSIDs[pointer++] = coldStorageAddresses[i];\n                    break;\n                }\n            }\n        }\n        return CSIDs;\n    }\n\n    function getColdStorage(address _address)\n        public onlyAuthorisedActors(_address)\n        view\n        returns (\n            string memory _ownerName,\n            int256 _latitude,\n            int256 _longitude,\n            uint256 _capacity,\n            uint256 _price\n        )\n    {\n        return (\n            coldStorages[_address].ownerName,\n            coldStorages[_address].latitude,\n            coldStorages[_address].longitude,\n            coldStorages[_address].capacity,\n            coldStorages[_address].price\n        );\n    }\n\n    function getHash(address _address) public view onlyGovernmentOfficial returns(string) {\n        return coldStorages[_address].hash;\n    }\n    \n    function getLocation(address _address) external view returns(int256, int256) {\n        return (coldStorages[_address].latitude, coldStorages[_address].longitude);\n    }\n    \n    function getColdStoragePrice(address _address) public view returns (uint256 _price) {\n        return coldStorages[_address].price;\n    }\n\n    function countColdStorages() public view returns (uint256) {\n        return coldStorageAddresses.length;\n    }\n\n    function getNumColdStorage(uint256 pos) public view returns(address) {\n        return coldStorageAddresses[pos];\n    }\n\n    function requestColdStorage(address _address) public {\n        //owner can't buy their own storage\n        require(msg.sender != _address);\n\n        if (address(msg.sender).balance >= coldStorages[_address].price) {\n            coldStorages[_address].requests.push(address(msg.sender));\n        }\n    }\n\n    function removeRequest(address _address, address _addressColdStorage) public {\n        address[] storage reqs = coldStorages[_addressColdStorage].requests;\n\n        bool isPresent = false;\n        uint256 reqIndex = 0;\n        uint256 i;\n        \n        for (i = 0; i < reqs.length; i++) {\n            if (reqs[i] == _address) {\n                isPresent = true;\n                reqIndex = i;\n                break;\n            }\n        }\n\n        if (isPresent) {\n            for (i = reqIndex; i < reqs.length - 1; i++) {\n                reqs[i] = reqs[i + 1];\n            }\n\n            delete reqs[reqs.length - 1];\n            coldStorages[_addressColdStorage].requests = reqs;\n        } else \n        return;\n    }\n\n    function removeApprovedRequest(address _address, address _addressColdStorage) public {\n        address[] storage appReqs = coldStorages[_addressColdStorage].approvedRequests;\n\n        bool isPresent = false;\n        uint256 reqIndex = 0;\n        uint256 i;\n\n        for (i = 0; i < appReqs.length; i++) {\n            if (appReqs[i] == _address) {\n                isPresent = true;\n                reqIndex = i;\n                break;\n            }\n        }\n\n        if (isPresent) {\n            for (i = reqIndex; i < appReqs.length - 1; i++) {\n                appReqs[i] = appReqs[i + 1];\n            }\n\n            delete appReqs[appReqs.length - 1];\n            coldStorages[_addressColdStorage].approvedRequests = appReqs;\n        } else \n        return;\n    }\n\n    function approveColdStorage(address _addressColdStorage, address _address) public {\n        require(msg.sender == _addressColdStorage);\n\n        coldStorages[_addressColdStorage].approvedRequests.push(_address);\n        removeRequest(_address, _addressColdStorage);\n    }\n\n    function getApprovedRequests(address _address)\n        public\n        view\n        returns (address[] memory)\n    {\n        require(msg.sender == _address);\n\n        return coldStorages[_address].approvedRequests;\n    }\n\n    function rentColdStorage(address _address) public {\n        coldStorages[_address].tenants.push(msg.sender);\n        removeApprovedRequest(msg.sender, _address);\n    }\n\n    function getRentedStorages(address _address)\n        public\n        view\n        returns (address[] memory)\n    {\n        address[] memory rentedIDs = new address[](coldStorageAddresses.length);\n        uint256 pointer = 0;\n        \n        for (uint256 i = 0; i < coldStorageAddresses.length; i++) {\n            for (uint256 j = 0; j < coldStorages[coldStorageAddresses[i]].tenants.length; j++) {\n                if (coldStorages[coldStorageAddresses[i]].tenants[j] == _address) {\n                    rentedIDs[pointer++] = coldStorageAddresses[i];\n                    break;\n                }\n            }\n        }\n        return rentedIDs;\n    }\n\n    function getTenants(address _address) public view returns (address[] memory) {\n        require(msg.sender == _address);\n        return coldStorages[_address].tenants;\n    }\n\n    /*//function to add new item to cold storage\n    function addItem(\n        address _address,\n        string memory _itemName,\n        uint256 _quantity\n    ) public {\n        coldStorages[_address].items[_itemName] = _quantity;\n        coldStorages[_address].itemNames.push(_itemName);\n    }\n\n    //function to view items\n    function getItemNames(uint256 _id) public view returns (string[] memory) {\n        return coldStorages[_id].itemNames;\n    }\n\n    function getItemQuantites(uint256 _id, string memory _itemName)\n        public\n        view\n        returns (uint256)\n    {\n        return coldStorages[_id].items[_itemName];\n    }\n\n    //function to get quantities of items*/\n    \n    function getUnverifiedColdStorages() public onlyGovernmentOfficial view returns (address[] memory) {\n        return unverifiedColdStorages;\n    }\n\n    function getNumUnverifiedColdStorages() public onlyGovernmentOfficial view returns (uint256) {\n        return unverifiedColdStorages.length;\n    }\n\n    function getUnverifiedColdStorage(uint256 pos) public onlyGovernmentOfficial view returns (address) {\n        return unverifiedColdStorages[pos];\n    }\n    \n    function setEligible(address _address) public onlyGovernmentOfficial {\n        for (uint256 i = 0 ; i < unverifiedColdStorages.length ; i++) {\n            if (unverifiedColdStorages[i] == _address) {\n                unverifiedColdStorages[i] = unverifiedColdStorages[unverifiedColdStorages.length-1];\n                delete unverifiedColdStorages[unverifiedColdStorages.length-1];\n                coldStorages[_address].isEligible = true;\n                unverifiedColdStorages.length--;\n                coldStorageAddresses.push(_address);\n                rc.addRole(_address, rc.coldStorageRoleID());\n                break;\n            }\n        }\n    }\n}\n",
  "sourcePath": "/home/oindrila/Documents/smart_agriculture_react/contracts/ColdStorageContract.sol",
  "compiler": {
    "name": "solc",
    "version": "0.4.26+commit.4563c3fc.Emscripten.clang"
  },
  "schemaVersion": "3.4.5",
  "updatedAt": "2022-02-19T08:04:34.367Z",
  "networkType": "ethereum",
  "devdoc": {
    "methods": {}
  },
  "userdoc": {
    "methods": {}
  }
}