{
  "contractName": "DistanceOptimizer",
  "abi": [
    {
      "inputs": [
        {
          "name": "_rcaddress",
          "type": "address"
        },
        {
          "name": "_fcaddress",
          "type": "address"
        },
        {
          "name": "_dcaddress",
          "type": "address"
        },
        {
          "name": "_rtcaddress",
          "type": "address"
        },
        {
          "name": "_cscaddress",
          "type": "address"
        }
      ],
      "payable": false,
      "stateMutability": "nonpayable",
      "type": "constructor"
    },
    {
      "constant": true,
      "inputs": [
        {
          "name": "lat1",
          "type": "int256"
        },
        {
          "name": "lat2",
          "type": "int256"
        },
        {
          "name": "long1",
          "type": "int256"
        },
        {
          "name": "long2",
          "type": "int256"
        }
      ],
      "name": "findDistance",
      "outputs": [
        {
          "name": "",
          "type": "uint256"
        }
      ],
      "payable": false,
      "stateMutability": "view",
      "type": "function"
    },
    {
      "constant": true,
      "inputs": [],
      "name": "getNearestColdStorage",
      "outputs": [
        {
          "name": "",
          "type": "address"
        }
      ],
      "payable": false,
      "stateMutability": "view",
      "type": "function"
    },
    {
      "constant": true,
      "inputs": [],
      "name": "getNearestFarmer",
      "outputs": [
        {
          "name": "",
          "type": "address"
        }
      ],
      "payable": false,
      "stateMutability": "view",
      "type": "function"
    },
    {
      "constant": true,
      "inputs": [],
      "name": "getNearestDistributor",
      "outputs": [
        {
          "name": "",
          "type": "address"
        }
      ],
      "payable": false,
      "stateMutability": "view",
      "type": "function"
    }
  ],
  "bytecode": "0x60806040526116a060405190810160405280617fff8152602001617fe48152602001617fc78152602001617fac8152602001617f8f8152602001617f738152602001617f428152602001617eef8152602001617e9a8152602001617e478152602001617df38152602001617da08152602001617d228152602001617c988152602001617c0c8152602001617b838152602001617af78152602001617a6781526020016179a581526020016178e68152602001617824815260200161776581526020016176a381526020016175cb81526020016174d481526020016173e381526020016172eb81526020016171fa81526020016171038152602001616fe78152602001616ebe8152602001616d9b8152602001616c728152602001616b4f8152602001616a1b81526020016168ca8152602001616772815260200161662181526020016164c981526020016163788152602001616205815260200161608a8152602001615f068152602001615d8a8152602001615c068152602001615a8281526020016158e08152602001615733815260200161559181526020016153e4815260200161524181526020016150888152602001614ec28152602001614cf28152602001614b2c815260200161495c815260200161479681526020016145ae81526020016143c981526020016141da8152602001613ff58152602001613e058152602001613c1e8152602001613a138152602001613814815260200161360a815260200161340b81526020016132018152602001612ff78152602001612dd78152602001612bc381526020016129a3815260200161278f815260200161256f815260200161234d815260200161211d8152602001611ef98152602001611cc88152602001611aa481526020016118718152602001611642815260200161140681526020016111d78152602001610f9b8152602001610d6c8152602001610b2d81526020016108f981526020016106b7815260200161048381526020016102428152602001600081526020017ffffffffffffffffffffffffffffffffffffffffffffffffffffffffffffffdcc81526020017ffffffffffffffffffffffffffffffffffffffffffffffffffffffffffffffb8b81526020017ffffffffffffffffffffffffffffffffffffffffffffffffffffffffffffff95681526020017ffffffffffffffffffffffffffffffffffffffffffffffffffffffffffffff71581526020017ffffffffffffffffffffffffffffffffffffffffffffffffffffffffffffff4e081526020017ffffffffffffffffffffffffffffffffffffffffffffffffffffffffffffff2a181526020017ffffffffffffffffffffffffffffffffffffffffffffffffffffffffffffff07281526020017fffffffffffffffffffffffffffffffffffffffffffffffffffffffffffffee3781526020017fffffffffffffffffffffffffffffffffffffffffffffffffffffffffffffec0781526020017fffffffffffffffffffffffffffffffffffffffffffffffffffffffffffffe9cc81526020017fffffffffffffffffffffffffffffffffffffffffffffffffffffffffffffe79d81526020017fffffffffffffffffffffffffffffffffffffffffffffffffffffffffffffe56981526020017fffffffffffffffffffffffffffffffffffffffffffffffffffffffffffffe34581526020017fffffffffffffffffffffffffffffffffffffffffffffffffffffffffffffe11581526020017fffffffffffffffffffffffffffffffffffffffffffffffffffffffffffffdef081526020017fffffffffffffffffffffffffffffffffffffffffffffffffffffffffffffdcc081526020017fffffffffffffffffffffffffffffffffffffffffffffffffffffffffffffda9d81526020017fffffffffffffffffffffffffffffffffffffffffffffffffffffffffffffd87d81526020017fffffffffffffffffffffffffffffffffffffffffffffffffffffffffffffd66981526020017fffffffffffffffffffffffffffffffffffffffffffffffffffffffffffffd44981526020017fffffffffffffffffffffffffffffffffffffffffffffffffffffffffffffd23581526020017fffffffffffffffffffffffffffffffffffffffffffffffffffffffffffffd01581526020017fffffffffffffffffffffffffffffffffffffffffffffffffffffffffffffce0c81526020017fffffffffffffffffffffffffffffffffffffffffffffffffffffffffffffcc0181526020017fffffffffffffffffffffffffffffffffffffffffffffffffffffffffffffca0281526020017fffffffffffffffffffffffffffffffffffffffffffffffffffffffffffffc7f881526020017fffffffffffffffffffffffffffffffffffffffffffffffffffffffffffffc5f981526020017fffffffffffffffffffffffffffffffffffffffffffffffffffffffffffffc3ef81526020017fffffffffffffffffffffffffffffffffffffffffffffffffffffffffffffc20681526020017fffffffffffffffffffffffffffffffffffffffffffffffffffffffffffffc01781526020017fffffffffffffffffffffffffffffffffffffffffffffffffffffffffffffbe3281526020017fffffffffffffffffffffffffffffffffffffffffffffffffffffffffffffbc4281526020017fffffffffffffffffffffffffffffffffffffffffffffffffffffffffffffba5e81526020017fffffffffffffffffffffffffffffffffffffffffffffffffffffffffffffb87681526020017fffffffffffffffffffffffffffffffffffffffffffffffffffffffffffffb6af81526020017fffffffffffffffffffffffffffffffffffffffffffffffffffffffffffffb4df81526020017fffffffffffffffffffffffffffffffffffffffffffffffffffffffffffffb31981526020017fffffffffffffffffffffffffffffffffffffffffffffffffffffffffffffb14981526020017fffffffffffffffffffffffffffffffffffffffffffffffffffffffffffffaf8381526020017fffffffffffffffffffffffffffffffffffffffffffffffffffffffffffffadc981526020017fffffffffffffffffffffffffffffffffffffffffffffffffffffffffffffac2681526020017fffffffffffffffffffffffffffffffffffffffffffffffffffffffffffffaa7a81526020017fffffffffffffffffffffffffffffffffffffffffffffffffffffffffffffa8d781526020017fffffffffffffffffffffffffffffffffffffffffffffffffffffffffffffa72b81526020017fffffffffffffffffffffffffffffffffffffffffffffffffffffffffffffa57e81526020017fffffffffffffffffffffffffffffffffffffffffffffffffffffffffffffa40381526020017fffffffffffffffffffffffffffffffffffffffffffffffffffffffffffffa27f81526020017fffffffffffffffffffffffffffffffffffffffffffffffffffffffffffffa10481526020017fffffffffffffffffffffffffffffffffffffffffffffffffffffffffffff9f8081526020017fffffffffffffffffffffffffffffffffffffffffffffffffffffffffffff9e0481526020017fffffffffffffffffffffffffffffffffffffffffffffffffffffffffffff9c9081526020017fffffffffffffffffffffffffffffffffffffffffffffffffffffffffffff9b3f81526020017fffffffffffffffffffffffffffffffffffffffffffffffffffffffffffff99e781526020017fffffffffffffffffffffffffffffffffffffffffffffffffffffffffffff989681526020017fffffffffffffffffffffffffffffffffffffffffffffffffffffffffffff973e81526020017fffffffffffffffffffffffffffffffffffffffffffffffffffffffffffff95ed81526020017fffffffffffffffffffffffffffffffffffffffffffffffffffffffffffff94b881526020017fffffffffffffffffffffffffffffffffffffffffffffffffffffffffffff939581526020017fffffffffffffffffffffffffffffffffffffffffffffffffffffffffffff926c81526020017fffffffffffffffffffffffffffffffffffffffffffffffffffffffffffff914a81526020017fffffffffffffffffffffffffffffffffffffffffffffffffffffffffffff902181526020017fffffffffffffffffffffffffffffffffffffffffffffffffffffffffffff8f0481526020017fffffffffffffffffffffffffffffffffffffffffffffffffffffffffffff8e0d81526020017fffffffffffffffffffffffffffffffffffffffffffffffffffffffffffff8d1b81526020017fffffffffffffffffffffffffffffffffffffffffffffffffffffffffffff8c2481526020017fffffffffffffffffffffffffffffffffffffffffffffffffffffffffffff8b3281526020017fffffffffffffffffffffffffffffffffffffffffffffffffffffffffffff8a3b81526020017fffffffffffffffffffffffffffffffffffffffffffffffffffffffffffff896281526020017fffffffffffffffffffffffffffffffffffffffffffffffffffffffffffff88a081526020017fffffffffffffffffffffffffffffffffffffffffffffffffffffffffffff87e181526020017fffffffffffffffffffffffffffffffffffffffffffffffffffffffffffff871f81526020017fffffffffffffffffffffffffffffffffffffffffffffffffffffffffffff866081526020017fffffffffffffffffffffffffffffffffffffffffffffffffffffffffffff859e81526020017fffffffffffffffffffffffffffffffffffffffffffffffffffffffffffff850e81526020017fffffffffffffffffffffffffffffffffffffffffffffffffffffffffffff848181526020017fffffffffffffffffffffffffffffffffffffffffffffffffffffffffffff83f881526020017fffffffffffffffffffffffffffffffffffffffffffffffffffffffffffff836c81526020017fffffffffffffffffffffffffffffffffffffffffffffffffffffffffffff82e281526020017fffffffffffffffffffffffffffffffffffffffffffffffffffffffffffff826381526020017fffffffffffffffffffffffffffffffffffffffffffffffffffffffffffff821081526020017fffffffffffffffffffffffffffffffffffffffffffffffffffffffffffff81bb81526020017fffffffffffffffffffffffffffffffffffffffffffffffffffffffffffff816881526020017fffffffffffffffffffffffffffffffffffffffffffffffffffffffffffff811481526020017fffffffffffffffffffffffffffffffffffffffffffffffffffffffffffff80c181526020017fffffffffffffffffffffffffffffffffffffffffffffffffffffffffffff808e81526020017fffffffffffffffffffffffffffffffffffffffffffffffffffffffffffff807281526020017fffffffffffffffffffffffffffffffffffffffffffffffffffffffffffff805681526020017fffffffffffffffffffffffffffffffffffffffffffffffffffffffffffff803a81526020017fffffffffffffffffffffffffffffffffffffffffffffffffffffffffffff801e81526020017fffffffffffffffffffffffffffffffffffffffffffffffffffffffffffff800181525060059060b5620010549291906200165e565b50610b6060405190810160405280600061ffff16815260200161023461ffff16815260200161047561ffff1681526020016106aa61ffff1681526020016108eb61ffff168152602001610b2061ffff168152602001610d5f61ffff168152602001610f8e61ffff1681526020016111c961ffff1681526020016113f961ffff16815260200161163461ffff16815260200161186361ffff168152602001611a9761ffff168152602001611cbb61ffff168152602001611eeb61ffff16815260200161211061ffff16815260200161234061ffff16815260200161256361ffff16815260200161278361ffff16815260200161299761ffff168152602001612bb761ffff168152602001612dcb61ffff168152602001612feb61ffff1681526020016131f461ffff1681526020016133ff61ffff1681526020016135fe61ffff16815260200161380861ffff168152602001613a0761ffff168152602001613c1161ffff168152602001613dfa61ffff168152602001613fe961ffff1681526020016141ce61ffff1681526020016143be61ffff1681526020016145a261ffff16815260200161478a61ffff16815260200161495161ffff168152602001614b2161ffff168152602001614ce761ffff168152602001614eb761ffff16815260200161507d61ffff16815260200161523761ffff1681526020016153da61ffff16815260200161558661ffff16815260200161572961ffff1681526020016158d561ffff168152602001615a8261ffff168152602001615bfd61ffff168152602001615d8161ffff168152602001615efc61ffff16815260200161608061ffff1681526020016161fc61ffff16815260200161637061ffff1681526020016164c161ffff16815260200161661961ffff16815260200161676a61ffff1681526020016168c261ffff168152602001616a1361ffff168152602001616b4861ffff168152602001616c6b61ffff168152602001616d9461ffff168152602001616eb661ffff168152602001616fdf61ffff1681526020016170fc61ffff1681526020016171f361ffff1681526020016172e561ffff1681526020016173dc61ffff1681526020016174ce61ffff1681526020016175c561ffff16815260200161769e61ffff16815260200161776061ffff16815260200161781f61ffff1681526020016178e161ffff1681526020016179a061ffff168152602001617a6261ffff168152602001617af261ffff168152602001617b7f61ffff168152602001617c0861ffff168152602001617c9461ffff168152602001617d1e61ffff168152602001617d9d61ffff168152602001617df061ffff168152602001617e4561ffff168152602001617e9861ffff168152602001617eec61ffff168152602001617f3f61ffff168152602001617f7261ffff168152602001617f8e61ffff168152602001617faa61ffff168152602001617fc661ffff168152602001617fe261ffff168152602001617fff61ffff1681525060ba90605b620014b5929190620016a3565b50348015620014c357600080fd5b5060405160a08062002edc8339810180604052810190808051906020019092919080519060200190929190805190602001909291908051906020019092919080519060200190929190505050846000806101000a81548173ffffffffffffffffffffffffffffffffffffffff021916908373ffffffffffffffffffffffffffffffffffffffff16021790555083600160006101000a81548173ffffffffffffffffffffffffffffffffffffffff021916908373ffffffffffffffffffffffffffffffffffffffff16021790555082600260006101000a81548173ffffffffffffffffffffffffffffffffffffffff021916908373ffffffffffffffffffffffffffffffffffffffff16021790555081600360006101000a81548173ffffffffffffffffffffffffffffffffffffffff021916908373ffffffffffffffffffffffffffffffffffffffff16021790555080600460006101000a81548173ffffffffffffffffffffffffffffffffffffffff021916908373ffffffffffffffffffffffffffffffffffffffff1602179055505050505050620017a3565b8260b5810192821562001690579160200282015b828111156200168f57825182559160200191906001019062001672565b5b5090506200169f919062001747565b5090565b82605b600f01601090048101928215620017345791602002820160005b838211156200170257835183826101000a81548161ffff021916908361ffff1602179055509260200192600201602081600101049283019260010302620016c0565b8015620017325782816101000a81549061ffff021916905560020160208160010104928301926001030262001702565b505b5090506200174391906200176f565b5090565b6200176c91905b80821115620017685760008160009055506001016200174e565b5090565b90565b620017a091905b808211156200179c57600081816101000a81549061ffff02191690555060010162001776565b5090565b90565b61172980620017b36000396000f300608060405260043610610062576000357c0100000000000000000000000000000000000000000000000000000000900463ffffffff1680630f69d91f14610067578063441e7d51146100be5780635c9073261461011d578063e962bb1d14610174575b600080fd5b34801561007357600080fd5b5061007c6101cb565b604051808273ffffffffffffffffffffffffffffffffffffffff1673ffffffffffffffffffffffffffffffffffffffff16815260200191505060405180910390f35b3480156100ca57600080fd5b506101076004803603810190808035906020019092919080359060200190929190803590602001909291908035906020019092919050505061081b565b6040518082815260200191505060405180910390f35b34801561012957600080fd5b50610132610973565b604051808273ffffffffffffffffffffffffffffffffffffffff1673ffffffffffffffffffffffffffffffffffffffff16815260200191505060405180910390f35b34801561018057600080fd5b50610189610fc4565b604051808273ffffffffffffffffffffffffffffffffffffffff1673ffffffffffffffffffffffffffffffffffffffff16815260200191505060405180910390f35b600060606000806000806000806000806000809054906101000a900473ffffffffffffffffffffffffffffffffffffffff1673ffffffffffffffffffffffffffffffffffffffff1663b67ac8736040518163ffffffff167c0100000000000000000000000000000000000000000000000000000000028152600401602060405180830381600087803b15801561026057600080fd5b505af1158015610274573d6000803e3d6000fd5b505050506040513d602081101561028a57600080fd5b81019080805190602001909291905050506000809054906101000a900473ffffffffffffffffffffffffffffffffffffffff1673ffffffffffffffffffffffffffffffffffffffff166344276733326040518263ffffffff167c0100000000000000000000000000000000000000000000000000000000028152600401808273ffffffffffffffffffffffffffffffffffffffff1673ffffffffffffffffffffffffffffffffffffffff168152602001915050602060405180830381600087803b15801561035757600080fd5b505af115801561036b573d6000803e3d6000fd5b505050506040513d602081101561038157600080fd5b8101908080519060200190929190505050141515610407576040517f08c379a00000000000000000000000000000000000000000000000000000000081526004018080602001828103825260148152602001807f4f6e6c79206661726d65722063616e2063616c6c00000000000000000000000081525060200191505060405180910390fd5b600460009054906101000a900473ffffffffffffffffffffffffffffffffffffffff1673ffffffffffffffffffffffffffffffffffffffff16621282766040518163ffffffff167c0100000000000000000000000000000000000000000000000000000000028152600401600060405180830381600087803b15801561048c57600080fd5b505af11580156104a0573d6000803e3d6000fd5b505050506040513d6000823e3d601f19601f8201168201806040525060208110156104ca57600080fd5b8101908080516401000000008111156104e257600080fd5b828101905060208101848111156104f857600080fd5b815185602082028301116401000000008211171561051557600080fd5b505092919050505098507fffffffffffffffffffffffffffffffffffffffffffffffffffffffffffffffff97507fffffffffffffffffffffffffffffffffffffffffffffffffffffffffffffffff9650600160009054906101000a900473ffffffffffffffffffffffffffffffffffffffff1673ffffffffffffffffffffffffffffffffffffffff1663d9e0dc59326040518263ffffffff167c0100000000000000000000000000000000000000000000000000000000028152600401808273ffffffffffffffffffffffffffffffffffffffff1673ffffffffffffffffffffffffffffffffffffffff1681526020019150506040805180830381600087803b15801561062157600080fd5b505af1158015610635573d6000803e3d6000fd5b505050506040513d604081101561064b57600080fd5b8101908080519060200190929190805190602001909291905050508096508197505050600093505b88518410156107c657600460009054906101000a900473ffffffffffffffffffffffffffffffffffffffff1673ffffffffffffffffffffffffffffffffffffffff1663d9e0dc598a868151811015156106c857fe5b906020019060200201516040518263ffffffff167c0100000000000000000000000000000000000000000000000000000000028152600401808273ffffffffffffffffffffffffffffffffffffffff1673ffffffffffffffffffffffffffffffffffffffff1681526020019150506040805180830381600087803b15801561074f57600080fd5b505af1158015610763573d6000803e3d6000fd5b505050506040513d604081101561077957600080fd5b81019080805190602001909291908051906020019092919050505080935081945050506107a88684878561081b565b9050878110156107b9578097508396505b8380600101945050610673565b7fffffffffffffffffffffffffffffffffffffffffffffffffffffffffffffffff871461080a5788878151811015156107fb57fe5b9060200190602002015161080d565b60005b995050505050505050505090565b6000806000806000807f7fffffffffffffffffffffffffffffffffffffffffffffffffffffffffffffff9350878712151561089d57633fff0001610860898903611615565b6108698b611615565b6108728d611615565b0202617fff6108808c611644565b6108898e611644565b02020181151561089557fe5b0592506108e6565b633fff00016108ad888a03611615565b6108b68b611615565b6108bf8d611615565b0202617fff6108cd8c611644565b6108d68e611644565b0202018115156108e257fe5b0592505b600091505b60b482131515610951576108fe82611615565b8303905060008112801561091457508381600003125b1561092757806000039350819450610944565b6000811215801561093757508381125b15610943578093508194505b5b81806001019250506108eb565b610276620111c1860281151561096357fe5b0595505050505050949350505050565b600060606000806000806000806000806000809054906101000a900473ffffffffffffffffffffffffffffffffffffffff1673ffffffffffffffffffffffffffffffffffffffff1663f7b8d4846040518163ffffffff167c0100000000000000000000000000000000000000000000000000000000028152600401602060405180830381600087803b158015610a0857600080fd5b505af1158015610a1c573d6000803e3d6000fd5b505050506040513d6020811015610a3257600080fd5b81019080805190602001909291905050506000809054906101000a900473ffffffffffffffffffffffffffffffffffffffff1673ffffffffffffffffffffffffffffffffffffffff166344276733326040518263ffffffff167c0100000000000000000000000000000000000000000000000000000000028152600401808273ffffffffffffffffffffffffffffffffffffffff1673ffffffffffffffffffffffffffffffffffffffff168152602001915050602060405180830381600087803b158015610aff57600080fd5b505af1158015610b13573d6000803e3d6000fd5b505050506040513d6020811015610b2957600080fd5b8101908080519060200190929190505050141515610baf576040517f08c379a00000000000000000000000000000000000000000000000000000000081526004018080602001828103825260168152602001807f4f6e6c792072657461696c65722063616e2063616c6c0000000000000000000081525060200191505060405180910390fd5b600260009054906101000a900473ffffffffffffffffffffffffffffffffffffffff1673ffffffffffffffffffffffffffffffffffffffff166390e879866040518163ffffffff167c0100000000000000000000000000000000000000000000000000000000028152600401600060405180830381600087803b158015610c3557600080fd5b505af1158015610c49573d6000803e3d6000fd5b505050506040513d6000823e3d601f19601f820116820180604052506020811015610c7357600080fd5b810190808051640100000000811115610c8b57600080fd5b82810190506020810184811115610ca157600080fd5b8151856020820283011164010000000082111715610cbe57600080fd5b505092919050505098507fffffffffffffffffffffffffffffffffffffffffffffffffffffffffffffffff97507fffffffffffffffffffffffffffffffffffffffffffffffffffffffffffffffff9650600360009054906101000a900473ffffffffffffffffffffffffffffffffffffffff1673ffffffffffffffffffffffffffffffffffffffff1663d9e0dc59326040518263ffffffff167c0100000000000000000000000000000000000000000000000000000000028152600401808273ffffffffffffffffffffffffffffffffffffffff1673ffffffffffffffffffffffffffffffffffffffff1681526020019150506040805180830381600087803b158015610dca57600080fd5b505af1158015610dde573d6000803e3d6000fd5b505050506040513d6040811015610df457600080fd5b8101908080519060200190929190805190602001909291905050508096508197505050600093505b8851841015610f6f57600260009054906101000a900473ffffffffffffffffffffffffffffffffffffffff1673ffffffffffffffffffffffffffffffffffffffff1663d9e0dc598a86815181101515610e7157fe5b906020019060200201516040518263ffffffff167c0100000000000000000000000000000000000000000000000000000000028152600401808273ffffffffffffffffffffffffffffffffffffffff1673ffffffffffffffffffffffffffffffffffffffff1681526020019150506040805180830381600087803b158015610ef857600080fd5b505af1158015610f0c573d6000803e3d6000fd5b505050506040513d6040811015610f2257600080fd5b8101908080519060200190929190805190602001909291905050508093508194505050610f518684878561081b565b905087811015610f62578097508396505b8380600101945050610e1c565b7fffffffffffffffffffffffffffffffffffffffffffffffffffffffffffffffff8714610fb3578887815181101515610fa457fe5b90602001906020020151610fb6565b60005b995050505050505050505090565b600060606000806000806000806000806000809054906101000a900473ffffffffffffffffffffffffffffffffffffffff1673ffffffffffffffffffffffffffffffffffffffff1663121da33c6040518163ffffffff167c0100000000000000000000000000000000000000000000000000000000028152600401602060405180830381600087803b15801561105957600080fd5b505af115801561106d573d6000803e3d6000fd5b505050506040513d602081101561108357600080fd5b81019080805190602001909291905050506000809054906101000a900473ffffffffffffffffffffffffffffffffffffffff1673ffffffffffffffffffffffffffffffffffffffff166344276733326040518263ffffffff167c0100000000000000000000000000000000000000000000000000000000028152600401808273ffffffffffffffffffffffffffffffffffffffff1673ffffffffffffffffffffffffffffffffffffffff168152602001915050602060405180830381600087803b15801561115057600080fd5b505af1158015611164573d6000803e3d6000fd5b505050506040513d602081101561117a57600080fd5b8101908080519060200190929190505050141515611200576040517f08c379a00000000000000000000000000000000000000000000000000000000081526004018080602001828103825260198152602001807f4f6e6c79206469737472696275746f722063616e2063616c6c0000000000000081525060200191505060405180910390fd5b600160009054906101000a900473ffffffffffffffffffffffffffffffffffffffff1673ffffffffffffffffffffffffffffffffffffffff1663789f8d406040518163ffffffff167c0100000000000000000000000000000000000000000000000000000000028152600401600060405180830381600087803b15801561128657600080fd5b505af115801561129a573d6000803e3d6000fd5b505050506040513d6000823e3d601f19601f8201168201806040525060208110156112c457600080fd5b8101908080516401000000008111156112dc57600080fd5b828101905060208101848111156112f257600080fd5b815185602082028301116401000000008211171561130f57600080fd5b505092919050505098507fffffffffffffffffffffffffffffffffffffffffffffffffffffffffffffffff97507fffffffffffffffffffffffffffffffffffffffffffffffffffffffffffffffff9650600260009054906101000a900473ffffffffffffffffffffffffffffffffffffffff1673ffffffffffffffffffffffffffffffffffffffff1663d9e0dc59326040518263ffffffff167c0100000000000000000000000000000000000000000000000000000000028152600401808273ffffffffffffffffffffffffffffffffffffffff1673ffffffffffffffffffffffffffffffffffffffff1681526020019150506040805180830381600087803b15801561141b57600080fd5b505af115801561142f573d6000803e3d6000fd5b505050506040513d604081101561144557600080fd5b8101908080519060200190929190805190602001909291905050508096508197505050600093505b88518410156115c057600160009054906101000a900473ffffffffffffffffffffffffffffffffffffffff1673ffffffffffffffffffffffffffffffffffffffff1663d9e0dc598a868151811015156114c257fe5b906020019060200201516040518263ffffffff167c0100000000000000000000000000000000000000000000000000000000028152600401808273ffffffffffffffffffffffffffffffffffffffff1673ffffffffffffffffffffffffffffffffffffffff1681526020019150506040805180830381600087803b15801561154957600080fd5b505af115801561155d573d6000803e3d6000fd5b505050506040513d604081101561157357600080fd5b81019080805190602001909291908051906020019092919050505080935081945050506115a28684878561081b565b9050878110156115b3578097508396505b838060010194505061146d565b7fffffffffffffffffffffffffffffffffffffffffffffffffffffffffffffffff87146116045788878151811015156115f557fe5b90602001906020020151611607565b60005b995050505050505050505090565b6000806000831215611628578260000392505b82905060058160b58110151561163a57fe5b0154915050919050565b6000806000809150600084121561166057600191508360000393505b8390506001151582151514156116c65760ba81605b8110151561167f57fe5b601091828204019190066002029054906101000a900461ffff1661ffff167fffffffffffffffffffffffffffffffffffffffffffffffffffffffffffffffff0292506116f6565b60ba81605b811015156116d557fe5b601091828204019190066002029054906101000a900461ffff1661ffff1692505b50509190505600a165627a7a72305820ca294977bacc8476b02e7a9be7dbb812d412143cf205999acd3e2b49a041cfa80029",
  "source": "// SPDX-License-Identifier: GPL-3.0\r\npragma solidity ^0.4.22;\r\n\r\nimport \"./Roles.sol\";\r\nimport \"./FarmerContract.sol\";\r\nimport \"./DistributorContract.sol\";\r\nimport \"./RetailerContract.sol\";\r\nimport \"./ColdStorageContract.sol\";\r\n\r\ncontract DistanceOptimizer {\r\n    Roles rc;\r\n    FarmerContract fc;\r\n    DistributorContract dc;\r\n    RetailerContract rtc;\r\n    ColdStorageContract csc;\r\n    \r\n    constructor(address _rcaddress, address _fcaddress, address _dcaddress, address _rtcaddress, address _cscaddress) public {\r\n        rc = Roles(_rcaddress);\r\n        fc = FarmerContract(_fcaddress);\r\n        dc = DistributorContract(_dcaddress);\r\n        rtc = RetailerContract(_rtcaddress);\r\n        csc = ColdStorageContract(_cscaddress);\r\n    }\r\n    \r\n    modifier onlyFarmer() {\r\n        require(rc.getRole(tx.origin) == rc.farmerRoleID(), \"Only farmer can call\");\r\n        _;\r\n    }\r\n    \r\n    modifier onlyDistributor() {\r\n        require(rc.getRole(tx.origin) == rc.distributorRoleID(), \"Only distributor can call\");\r\n        _;\r\n    }\r\n    \r\n    modifier onlyRetailer() {\r\n        require(rc.getRole(tx.origin) == rc.retailerRoleID(), \"Only retailer can call\");\r\n        _;\r\n    }\r\n    \r\n    int256[181] cosValues = [32767, 32740, 32711, 32684, 32655, 32627, 32578, 32495, 32410, 32327, 32243, 32160, 32034, 31896, 31756, 31619, 31479, 31335, 31141, 30950, 30756, \r\n        30565, 30371, 30155, 29908, 29667, 29419, 29178, 28931, 28647, 28350, 28059, 27762, 27471, 27163, 26826, 26482, 26145, 25801, 25464, 25093, 24714, \r\n        24326, 23946, 23558, 23170, 22752, 22323, 21905, 21476, 21057, 20616, 20162, 19698, 19244, 18780, 18326, 17838, 17353, 16858, 16373, 15877, 15390, \r\n        14867, 14356, 13834, 13323, 12801, 12279, 11735, 11203, 10659, 10127, 9583, 9037, 8477, 7929, 7368, 6820, 6257, 5698, 5126, 4567, 3995, 3436, 2861, \r\n        2297, 1719, 1155, 578, 0, int256(-564), int256(-1141), int256(-1706), int256(-2283), int256(-2848), int256(-3423), int256(-3982), int256(-4553), int256(-5113), int256(-5684), \r\n        int256(-6243), int256(-6807), int256(-7355), int256(-7915), int256(-8464), int256(-9024), int256(-9571), \r\n        int256(-10115), int256(-10647), int256(-11191), int256(-11723), int256(-12267), int256(-12788), int256(-13311), int256(-13822), int256(-14344), int256(-14855), int256(-15377),\r\n        int256(-15866), int256(-16361), int256(-16846), int256(-17342), int256(-17826), int256(-18314), int256(-18769), \r\n        int256(-19233), int256(-19687), int256(-20151), int256(-20605), int256(-21047), int256(-21466), int256(-21894), int256(-22313), int256(-22741), int256(-23170), int256(-23549),\r\n        int256(-23937), int256(-24316), int256(-24704), int256(-25084), int256(-25456), int256(-25793), int256(-26137), \r\n        int256(-26474), int256(-26818), int256(-27155), int256(-27464), int256(-27755), int256(-28052), int256(-28342), int256(-28639), int256(-28924), int256(-29171), int256(-29413),\r\n        int256(-29660), int256(-29902), int256(-30149), int256(-30366), int256(-30560), int256(-30751), int256(-30945), \r\n        int256(-31136), int256(-31330), int256(-31474), int256(-31615), int256(-31752), int256(-31892), int256(-32030), int256(-32157), int256(-32240), int256(-32325), int256(-32408),\r\n        int256(-32492), int256(-32575), int256(-32626), int256(-32654), int256(-32682), int256(-32710), int256(-32738), int256(-32767)];\r\n        \r\n    uint16[91] sinValues = [0,564,1141,1706,2283,2848,3423,3982,4553,5113,5684,6243,6807,7355,7915,8464,9024,9571,10115,10647,11191,11723,12267,12788,13311,13822,14344,14855,\r\n        15377,15866,16361,16846,17342,17826,18314,18769,19233,19687,20151,20605,21047,21466,21894,22313,22741,23170,23549,23937,24316,24704,25084,25456,25793,26137,26474,26818,27155,27464,27755,28052,\r\n        28342,28639,28924,29171,29413,29660,29902,30149,30366,30560,30751,30945,31136,31330,31474,31615,31752,31892,32030,32157,32240,32325,32408,32492,32575,32626,32654,32682,32710,32738,32767];\r\n\r\n    function sinDegrees (int256 _degrees) private view returns (int256) {\r\n        bool neg = false;\r\n        if (_degrees < 0) {\r\n            neg = true;\r\n            _degrees = -_degrees;\r\n        }\r\n        uint256 degrees = uint256(_degrees);\r\n        \r\n        if (neg == true) {\r\n            return -1 * int256(sinValues[degrees]);\r\n        } else {\r\n            return sinValues[degrees];\r\n        }\r\n    }\r\n\r\n    function cosDegrees (int256 _degrees) private view returns (int256) {\r\n        if (_degrees < 0) {\r\n            _degrees = -_degrees;\r\n        }\r\n        uint256 degrees = uint256(_degrees);\r\n        return cosValues[degrees];\r\n    }\r\n    \r\n    function findDistance(int256 lat1, int256 lat2, int256 long1, int256 long2) public view returns (uint256) {\r\n        int256 g;\r\n        int256 diff = 2**255 - 1;\r\n        int256 f;\r\n        \r\n        if (long2 >= long1) {\r\n            f = (sinDegrees(lat1) * sinDegrees(lat2) * 32767 + cosDegrees(lat1) * cosDegrees(lat2) * cosDegrees(long2 - long1)) / (32767 * 32767);\r\n        } else {\r\n            f = (sinDegrees(lat1) * sinDegrees(lat2) * 32767 + cosDegrees(lat1) * cosDegrees(lat2) * cosDegrees(long1 - long2)) / (32767 * 32767);\r\n        }\r\n        \r\n        for(int256 i = 0; i<=180 ; i++) {\r\n            int256 x = f - cosDegrees(i);\r\n            \r\n            if (x<0 && -x<diff) {\r\n                diff = -x;\r\n                g = i;\r\n            } else if (x>=0 && x<diff) {\r\n                diff = x;\r\n                g = i;\r\n            }\r\n        }\r\n        \r\n        return uint256(g*70081/630);\r\n    }\r\n    \r\n    function getNearestColdStorage() public view onlyFarmer returns(address) {\r\n        address[] memory coldStorages = csc.getColdStorages();\r\n        uint256 minDistance = uint256(-1);\r\n        uint256 coldStorage = uint256(-1);\r\n        \r\n        int256 _latitude1;\r\n        int256 _longitude1;\r\n        \r\n        (_latitude1, _longitude1) = fc.getLocation(tx.origin);\r\n        \r\n        for (uint256 i = 0; i < coldStorages.length; i++) {\r\n            int256 _latitude2;\r\n            int256 _longitude2;\r\n            (_latitude2, _longitude2) = csc.getLocation(coldStorages[i]);\r\n            uint256 distance = findDistance(_latitude1, _latitude2, _longitude1, _longitude2);\r\n            if (distance < minDistance) {\r\n                minDistance = distance;\r\n                coldStorage = i;\r\n            }\r\n        }\r\n        \r\n        return (coldStorage == uint256(-1) ? address(0) : coldStorages[coldStorage]); \r\n    }\r\n    \r\n    function getNearestFarmer() public view onlyDistributor returns(address) {\r\n        address[] memory farmers = fc.getFarmers();\r\n        uint256 minDistance = uint256(-1);\r\n        uint256 farmer = uint256(-1);\r\n        \r\n        int256 _latitude1;\r\n        int256 _longitude1;\r\n        \r\n        (_latitude1, _longitude1) = dc.getLocation(tx.origin);\r\n        \r\n        for (uint256 i = 0; i < farmers.length; i++) {\r\n            int256 _latitude2;\r\n            int256 _longitude2;\r\n            (_latitude2, _longitude2) = fc.getLocation(farmers[i]);\r\n            uint256 distance = findDistance(_latitude1, _latitude2, _longitude1, _longitude2);\r\n            if (distance < minDistance) {\r\n                minDistance = distance; \r\n                farmer = i;\r\n            }\r\n        }\r\n        \r\n        return (farmer == uint256(-1) ? address(0) : farmers[farmer]); \r\n    }\r\n    \r\n    function getNearestDistributor() public view onlyRetailer returns(address) {\r\n        address[] memory distributors = dc.getDistributors();\r\n        uint256 minDistance = uint256(-1);\r\n        uint256 distributor = uint256(-1);\r\n        \r\n        int256 _latitude1;\r\n        int256 _longitude1;\r\n        \r\n        (_latitude1, _longitude1) = rtc.getLocation(tx.origin);\r\n        \r\n        for (uint256 i = 0; i < distributors.length; i++) {\r\n            int256 _latitude2;\r\n            int256 _longitude2;\r\n            (_latitude2, _longitude2) = dc.getLocation(distributors[i]);\r\n            uint256 distance = findDistance(_latitude1, _latitude2, _longitude1, _longitude2);\r\n            if (distance < minDistance) {\r\n                minDistance = distance;\r\n                distributor = i;\r\n            }\r\n        }\r\n        \r\n        return (distributor == uint256(-1) ? address(0) : distributors[distributor]); \r\n    }\r\n}\r\n\r\n\r\n\r\n",
  "sourcePath": "D:\\7thSemester\\CS491\\smart_agriculture_react\\contracts\\DistanceOptimizer.sol",
  "compiler": {
    "name": "solc",
    "version": "0.4.26+commit.4563c3fc.Emscripten.clang"
  },
  "schemaVersion": "3.4.3",
  "updatedAt": "2021-12-23T06:19:56.363Z",
  "networkType": "ethereum",
  "devdoc": {
    "methods": {}
  },
  "userdoc": {
    "methods": {}
  }
}