{
  "contractName": "DistributorContract",
  "abi": [
    {
      "constant": true,
      "inputs": [],
      "name": "rc",
      "outputs": [
        {
          "name": "",
          "type": "address"
        }
      ],
      "payable": false,
      "stateMutability": "view",
      "type": "function"
    },
    {
      "constant": true,
      "inputs": [
        {
          "name": "",
          "type": "uint256"
        }
      ],
      "name": "distributorAccounts",
      "outputs": [
        {
          "name": "",
          "type": "address"
        }
      ],
      "payable": false,
      "stateMutability": "view",
      "type": "function"
    },
    {
      "constant": true,
      "inputs": [
        {
          "name": "",
          "type": "address"
        }
      ],
      "name": "distributors",
      "outputs": [
        {
          "name": "name",
          "type": "string"
        },
        {
          "name": "contact",
          "type": "string"
        },
        {
          "name": "latitude",
          "type": "int256"
        },
        {
          "name": "longitude",
          "type": "int256"
        },
        {
          "name": "isEligible",
          "type": "bool"
        }
      ],
      "payable": false,
      "stateMutability": "view",
      "type": "function"
    },
    {
      "constant": true,
      "inputs": [
        {
          "name": "",
          "type": "uint256"
        }
      ],
      "name": "unverifiedDistributorAccounts",
      "outputs": [
        {
          "name": "",
          "type": "address"
        }
      ],
      "payable": false,
      "stateMutability": "view",
      "type": "function"
    },
    {
      "inputs": [
        {
          "name": "_address",
          "type": "address"
        }
      ],
      "payable": false,
      "stateMutability": "nonpayable",
      "type": "constructor"
    },
    {
      "constant": false,
      "inputs": [
        {
          "name": "_name",
          "type": "string"
        },
        {
          "name": "_contact",
          "type": "string"
        },
        {
          "name": "_latitude",
          "type": "int256"
        },
        {
          "name": "_longitude",
          "type": "int256"
        }
      ],
      "name": "addDistributor",
      "outputs": [],
      "payable": false,
      "stateMutability": "nonpayable",
      "type": "function"
    },
    {
      "constant": true,
      "inputs": [],
      "name": "getDistributors",
      "outputs": [
        {
          "name": "",
          "type": "address[]"
        }
      ],
      "payable": false,
      "stateMutability": "view",
      "type": "function"
    },
    {
      "constant": true,
      "inputs": [
        {
          "name": "_address",
          "type": "address"
        }
      ],
      "name": "getDistributor",
      "outputs": [
        {
          "name": "_name",
          "type": "string"
        },
        {
          "name": "_contact",
          "type": "string"
        },
        {
          "name": "_latitude",
          "type": "int256"
        },
        {
          "name": "_longitude",
          "type": "int256"
        },
        {
          "name": "_isEligible",
          "type": "bool"
        }
      ],
      "payable": false,
      "stateMutability": "view",
      "type": "function"
    },
    {
      "constant": true,
      "inputs": [
        {
          "name": "_address",
          "type": "address"
        }
      ],
      "name": "getLocation",
      "outputs": [
        {
          "name": "",
          "type": "int256"
        },
        {
          "name": "",
          "type": "int256"
        }
      ],
      "payable": false,
      "stateMutability": "view",
      "type": "function"
    },
    {
      "constant": true,
      "inputs": [],
      "name": "getUnverifiedDistributorAccounts",
      "outputs": [
        {
          "name": "",
          "type": "address[]"
        }
      ],
      "payable": false,
      "stateMutability": "view",
      "type": "function"
    },
    {
      "constant": false,
      "inputs": [
        {
          "name": "_address",
          "type": "address"
        }
      ],
      "name": "setEligible",
      "outputs": [],
      "payable": false,
      "stateMutability": "nonpayable",
      "type": "function"
    }
  ],
  "bytecode": "0x608060405234801561001057600080fd5b5060405160208061182183398101806040528101908080519060200190929190505050806000806101000a81548173ffffffffffffffffffffffffffffffffffffffff021916908373ffffffffffffffffffffffffffffffffffffffff1602179055505061179e806100836000396000f3006080604052600436106100a4576000357c0100000000000000000000000000000000000000000000000000000000900463ffffffff16806312f77332146100a95780631b49e6511461010057806345cf2e971461016d5780635cc60973146101d957806390e879861461029c578063993df8c614610308578063cc64278414610449578063d9e0dc591461058a578063f2d4b814146105e8578063f904cf0414610655575b600080fd5b3480156100b557600080fd5b506100be610698565b604051808273ffffffffffffffffffffffffffffffffffffffff1673ffffffffffffffffffffffffffffffffffffffff16815260200191505060405180910390f35b34801561010c57600080fd5b5061012b600480360381019080803590602001909291905050506106bd565b604051808273ffffffffffffffffffffffffffffffffffffffff1673ffffffffffffffffffffffffffffffffffffffff16815260200191505060405180910390f35b34801561017957600080fd5b506101826106fb565b6040518080602001828103825283818151815260200191508051906020019060200280838360005b838110156101c55780820151818401526020810190506101aa565b505050509050019250505060405180910390f35b3480156101e557600080fd5b5061029a600480360381019080803590602001908201803590602001908080601f0160208091040260200160405190810160405280939291908181526020018383808284378201915050505050509192919290803590602001908201803590602001908080601f016020809104026020016040519081016040528093929190818152602001838380828437820191505050505050919291929080359060200190929190803590602001909291905050506109db565b005b3480156102a857600080fd5b506102b1610b52565b6040518080602001828103825283818151815260200191508051906020019060200280838360005b838110156102f45780820151818401526020810190506102d9565b505050509050019250505060405180910390f35b34801561031457600080fd5b50610349600480360381019080803573ffffffffffffffffffffffffffffffffffffffff169060200190929190505050610be0565b60405180806020018060200186815260200185815260200184151515158152602001838103835288818151815260200191508051906020019080838360005b838110156103a3578082015181840152602081019050610388565b50505050905090810190601f1680156103d05780820380516001836020036101000a031916815260200191505b50838103825287818151815260200191508051906020019080838360005b838110156104095780820151818401526020810190506103ee565b50505050905090810190601f1680156104365780820380516001836020036101000a031916815260200191505b5097505050505050505060405180910390f35b34801561045557600080fd5b5061048a600480360381019080803573ffffffffffffffffffffffffffffffffffffffff169060200190929190505050610e8d565b60405180806020018060200186815260200185815260200184151515158152602001838103835288818151815260200191508051906020019080838360005b838110156104e45780820151818401526020810190506104c9565b50505050905090810190601f1680156105115780820380516001836020036101000a031916815260200191505b50838103825287818151815260200191508051906020019080838360005b8381101561054a57808201518184015260208101905061052f565b50505050905090810190601f1680156105775780820380516001836020036101000a031916815260200191505b5097505050505050505060405180910390f35b34801561059657600080fd5b506105cb600480360381019080803573ffffffffffffffffffffffffffffffffffffffff169060200190929190505050611000565b604051808381526020018281526020019250505060405180910390f35b3480156105f457600080fd5b5061061360048036038101908080359060200190929190505050611092565b604051808273ffffffffffffffffffffffffffffffffffffffff1673ffffffffffffffffffffffffffffffffffffffff16815260200191505060405180910390f35b34801561066157600080fd5b50610696600480360381019080803573ffffffffffffffffffffffffffffffffffffffff1690602001909291905050506110d0565b005b6000809054906101000a900473ffffffffffffffffffffffffffffffffffffffff1681565b6002818154811015156106cc57fe5b906000526020600020016000915054906101000a900473ffffffffffffffffffffffffffffffffffffffff1681565b60606000809054906101000a900473ffffffffffffffffffffffffffffffffffffffff1673ffffffffffffffffffffffffffffffffffffffff166346fb5b9c6040518163ffffffff167c0100000000000000000000000000000000000000000000000000000000028152600401602060405180830381600087803b15801561078257600080fd5b505af1158015610796573d6000803e3d6000fd5b505050506040513d60208110156107ac57600080fd5b81019080805190602001909291905050506000809054906101000a900473ffffffffffffffffffffffffffffffffffffffff1673ffffffffffffffffffffffffffffffffffffffff166344276733326040518263ffffffff167c0100000000000000000000000000000000000000000000000000000000028152600401808273ffffffffffffffffffffffffffffffffffffffff1673ffffffffffffffffffffffffffffffffffffffff168152602001915050602060405180830381600087803b15801561087957600080fd5b505af115801561088d573d6000803e3d6000fd5b505050506040513d60208110156108a357600080fd5b810190808051906020019092919050505014151561094f576040517f08c379a00000000000000000000000000000000000000000000000000000000081526004018080602001828103825260248152602001807f4f6e6c7920676f7665726e6d656e74206f6666696369616c732063616e20616381526020017f636573730000000000000000000000000000000000000000000000000000000081525060400191505060405180910390fd5b60038054806020026020016040519081016040528092919081815260200182805480156109d157602002820191906000526020600020905b8160009054906101000a900473ffffffffffffffffffffffffffffffffffffffff1673ffffffffffffffffffffffffffffffffffffffff1681526020019060010190808311610987575b5050505050905090565b6000600160003273ffffffffffffffffffffffffffffffffffffffff1673ffffffffffffffffffffffffffffffffffffffff168152602001908152602001600020905084816000019080519060200190610a369291906116a1565b5083816001019080519060200190610a4f9291906116a1565b5082816002018190555081816003018190555060008160040160006101000a81548160ff02191690831515021790555060023290806001815401808255809150509060018203906000526020600020016000909192909190916101000a81548173ffffffffffffffffffffffffffffffffffffffff021916908373ffffffffffffffffffffffffffffffffffffffff1602179055505060033290806001815401808255809150509060018203906000526020600020016000909192909190916101000a81548173ffffffffffffffffffffffffffffffffffffffff021916908373ffffffffffffffffffffffffffffffffffffffff160217905550505050505050565b60606002805480602002602001604051908101604052809291908181526020018280548015610bd657602002820191906000526020600020905b8160009054906101000a900473ffffffffffffffffffffffffffffffffffffffff1673ffffffffffffffffffffffffffffffffffffffff1681526020019060010190808311610b8c575b5050505050905090565b6060806000806000600160008773ffffffffffffffffffffffffffffffffffffffff1673ffffffffffffffffffffffffffffffffffffffff168152602001908152602001600020600001600160008873ffffffffffffffffffffffffffffffffffffffff1673ffffffffffffffffffffffffffffffffffffffff168152602001908152602001600020600101600160008973ffffffffffffffffffffffffffffffffffffffff1673ffffffffffffffffffffffffffffffffffffffff16815260200190815260200160002060020154600160008a73ffffffffffffffffffffffffffffffffffffffff1673ffffffffffffffffffffffffffffffffffffffff16815260200190815260200160002060030154600160008b73ffffffffffffffffffffffffffffffffffffffff1673ffffffffffffffffffffffffffffffffffffffff16815260200190815260200160002060040160009054906101000a900460ff16848054600181600116156101000203166002900480601f016020809104026020016040519081016040528092919081815260200182805460018160011615610100020316600290048015610dd75780601f10610dac57610100808354040283529160200191610dd7565b820191906000526020600020905b815481529060010190602001808311610dba57829003601f168201915b50505050509450838054600181600116156101000203166002900480601f016020809104026020016040519081016040528092919081815260200182805460018160011615610100020316600290048015610e735780601f10610e4857610100808354040283529160200191610e73565b820191906000526020600020905b815481529060010190602001808311610e5657829003601f168201915b505050505093509450945094509450945091939590929450565b6001602052806000526040600020600091509050806000018054600181600116156101000203166002900480601f016020809104026020016040519081016040528092919081815260200182805460018160011615610100020316600290048015610f395780601f10610f0e57610100808354040283529160200191610f39565b820191906000526020600020905b815481529060010190602001808311610f1c57829003601f168201915b505050505090806001018054600181600116156101000203166002900480601f016020809104026020016040519081016040528092919081815260200182805460018160011615610100020316600290048015610fd75780601f10610fac57610100808354040283529160200191610fd7565b820191906000526020600020905b815481529060010190602001808311610fba57829003601f168201915b5050505050908060020154908060030154908060040160009054906101000a900460ff16905085565b600080600160008473ffffffffffffffffffffffffffffffffffffffff1673ffffffffffffffffffffffffffffffffffffffff16815260200190815260200160002060020154600160008573ffffffffffffffffffffffffffffffffffffffff1673ffffffffffffffffffffffffffffffffffffffff1681526020019081526020016000206003015491509150915091565b6003818154811015156110a157fe5b906000526020600020016000915054906101000a900473ffffffffffffffffffffffffffffffffffffffff1681565b60008060009054906101000a900473ffffffffffffffffffffffffffffffffffffffff1673ffffffffffffffffffffffffffffffffffffffff166346fb5b9c6040518163ffffffff167c0100000000000000000000000000000000000000000000000000000000028152600401602060405180830381600087803b15801561115757600080fd5b505af115801561116b573d6000803e3d6000fd5b505050506040513d602081101561118157600080fd5b81019080805190602001909291905050506000809054906101000a900473ffffffffffffffffffffffffffffffffffffffff1673ffffffffffffffffffffffffffffffffffffffff166344276733326040518263ffffffff167c0100000000000000000000000000000000000000000000000000000000028152600401808273ffffffffffffffffffffffffffffffffffffffff1673ffffffffffffffffffffffffffffffffffffffff168152602001915050602060405180830381600087803b15801561124e57600080fd5b505af1158015611262573d6000803e3d6000fd5b505050506040513d602081101561127857600080fd5b8101908080519060200190929190505050141515611324576040517f08c379a00000000000000000000000000000000000000000000000000000000081526004018080602001828103825260248152602001807f4f6e6c7920676f7665726e6d656e74206f6666696369616c732063616e20616381526020017f636573730000000000000000000000000000000000000000000000000000000081525060400191505060405180910390fd5b600090505b60038054905081101561169d578173ffffffffffffffffffffffffffffffffffffffff1660038281548110151561135c57fe5b9060005260206000200160009054906101000a900473ffffffffffffffffffffffffffffffffffffffff1673ffffffffffffffffffffffffffffffffffffffff1614156116905760036001600380549050038154811015156113ba57fe5b9060005260206000200160009054906101000a900473ffffffffffffffffffffffffffffffffffffffff166003828154811015156113f457fe5b9060005260206000200160006101000a81548173ffffffffffffffffffffffffffffffffffffffff021916908373ffffffffffffffffffffffffffffffffffffffff160217905550600360016003805490500381548110151561145357fe5b9060005260206000200160006101000a81549073ffffffffffffffffffffffffffffffffffffffff021916905560038054809190600190036114959190611721565b5060018060008473ffffffffffffffffffffffffffffffffffffffff1673ffffffffffffffffffffffffffffffffffffffff16815260200190815260200160002060040160006101000a81548160ff0219169083151502179055506000809054906101000a900473ffffffffffffffffffffffffffffffffffffffff1673ffffffffffffffffffffffffffffffffffffffff16637fde1c8a836000809054906101000a900473ffffffffffffffffffffffffffffffffffffffff1673ffffffffffffffffffffffffffffffffffffffff1663121da33c6040518163ffffffff167c0100000000000000000000000000000000000000000000000000000000028152600401602060405180830381600087803b1580156115b357600080fd5b505af11580156115c7573d6000803e3d6000fd5b505050506040513d60208110156115dd57600080fd5b81019080805190602001909291905050506040518363ffffffff167c0100000000000000000000000000000000000000000000000000000000028152600401808373ffffffffffffffffffffffffffffffffffffffff1673ffffffffffffffffffffffffffffffffffffffff16815260200182815260200192505050600060405180830381600087803b15801561167357600080fd5b505af1158015611687573d6000803e3d6000fd5b5050505061169d565b8080600101915050611329565b5050565b828054600181600116156101000203166002900490600052602060002090601f016020900481019282601f106116e257805160ff1916838001178555611710565b82800160010185558215611710579182015b8281111561170f5782518255916020019190600101906116f4565b5b50905061171d919061174d565b5090565b81548183558181111561174857818360005260206000209182019101611747919061174d565b5b505050565b61176f91905b8082111561176b576000816000905550600101611753565b5090565b905600a165627a7a72305820cd514fed251dca960248a697eab334f3d690ff1b552b60d025965a9845f6d4fa0029",
  "source": "// SPDX-License-Identifier: GPL-3.0\r\npragma solidity ^0.4.22;\r\nimport \"./Roles.sol\";\r\n\r\ncontract DistributorContract {\r\n    Roles public rc;\r\n\r\n    constructor(address _address) public {\r\n        rc = Roles(_address);\r\n    }\r\n\r\n    struct Distributor {\r\n        string name;\r\n        string contact;\r\n        int256 latitude;\r\n        int256 longitude;\r\n        bool isEligible;\r\n    }\r\n\r\n    mapping(address => Distributor) public distributors;\r\n    address[] public distributorAccounts;\r\n    address[] public unverifiedDistributorAccounts;\r\n    \r\n    modifier onlyGovernmentOfficial() {\r\n        require(rc.getRole(tx.origin) == rc.governmentID(), \"Only government officials can access\");\r\n        _;\r\n    }\r\n\r\n    function addDistributor(\r\n        string memory _name,\r\n        string memory _contact,\r\n        int256 _latitude,\r\n        int256 _longitude\r\n    ) public {\r\n        Distributor storage distributor = distributors[tx.origin];\r\n        distributor.name = _name;\r\n        distributor.contact = _contact;\r\n        distributor.latitude = _latitude;\r\n        distributor.longitude = _longitude;\r\n        distributor.isEligible = false;\r\n        \r\n        distributorAccounts.push(tx.origin);\r\n        unverifiedDistributorAccounts.push(tx.origin);\r\n    }\r\n    \r\n    function getDistributors() public view returns (address[] memory) {\r\n        return distributorAccounts;\r\n    }\r\n\r\n    function getDistributor(address _address)\r\n        public\r\n        view\r\n        returns (\r\n            string memory _name, \r\n            string memory _contact,\r\n            int256 _latitude,\r\n            int256 _longitude,\r\n            bool _isEligible\r\n        )\r\n    {\r\n        return (\r\n            distributors[_address].name, \r\n            distributors[_address].contact,\r\n            distributors[_address].latitude,\r\n            distributors[_address].longitude,\r\n            distributors[_address].isEligible\r\n        );\r\n    }\r\n\r\n    function getLocation(address _address) external view returns(int256, int256) {\r\n        return (distributors[_address].latitude, distributors[_address].longitude);\r\n    }\r\n        \r\n    function getUnverifiedDistributorAccounts() public onlyGovernmentOfficial view returns (address[] memory) {\r\n        return unverifiedDistributorAccounts;\r\n    }\r\n    \r\n    function setEligible(address _address) public onlyGovernmentOfficial {\r\n        for (uint256 i = 0 ; i < unverifiedDistributorAccounts.length ; i++) {\r\n            if (unverifiedDistributorAccounts[i] == _address) {\r\n                unverifiedDistributorAccounts[i] = unverifiedDistributorAccounts[unverifiedDistributorAccounts.length-1];\r\n                delete unverifiedDistributorAccounts[unverifiedDistributorAccounts.length-1];\r\n                unverifiedDistributorAccounts.length--;\r\n                distributors[_address].isEligible = true;\r\n                rc.addRole(_address, rc.distributorRoleID());\r\n                break;\r\n            }\r\n        }\r\n    }\r\n}\r\n",
  "sourcePath": "D:\\7thSemester\\CS491\\smart_agriculture_react\\contracts\\DistributorContract.sol",
  "compiler": {
    "name": "solc",
    "version": "0.4.26+commit.4563c3fc.Emscripten.clang"
  },
  "schemaVersion": "3.4.3",
  "updatedAt": "2021-12-09T07:05:57.087Z",
  "networkType": "ethereum",
  "devdoc": {
    "methods": {}
  },
  "userdoc": {
    "methods": {}
  }
}