{
  "contractName": "DistributorContract",
  "abi": [
    {
      "constant": true,
      "inputs": [],
      "name": "rc",
      "outputs": [
        {
          "name": "",
          "type": "address"
        }
      ],
      "payable": false,
      "stateMutability": "view",
      "type": "function"
    },
    {
      "constant": true,
      "inputs": [
        {
          "name": "",
          "type": "uint256"
        }
      ],
      "name": "distributorAccounts",
      "outputs": [
        {
          "name": "",
          "type": "address"
        }
      ],
      "payable": false,
      "stateMutability": "view",
      "type": "function"
    },
    {
      "constant": true,
      "inputs": [
        {
          "name": "",
          "type": "address"
        }
      ],
      "name": "distributors",
      "outputs": [
        {
          "name": "name",
          "type": "string"
        },
        {
          "name": "contact",
          "type": "string"
        },
        {
          "name": "latitude",
          "type": "int256"
        },
        {
          "name": "longitude",
          "type": "int256"
        },
        {
          "name": "isEligible",
          "type": "bool"
        }
      ],
      "payable": false,
      "stateMutability": "view",
      "type": "function"
    },
    {
      "constant": true,
      "inputs": [
        {
          "name": "",
          "type": "uint256"
        }
      ],
      "name": "unverifiedDistributorAccounts",
      "outputs": [
        {
          "name": "",
          "type": "address"
        }
      ],
      "payable": false,
      "stateMutability": "view",
      "type": "function"
    },
    {
      "inputs": [
        {
          "name": "_address",
          "type": "address"
        }
      ],
      "payable": false,
      "stateMutability": "nonpayable",
      "type": "constructor"
    },
    {
      "constant": false,
      "inputs": [
        {
          "name": "_name",
          "type": "string"
        },
        {
          "name": "_contact",
          "type": "string"
        },
        {
          "name": "_latitude",
          "type": "int256"
        },
        {
          "name": "_longitude",
          "type": "int256"
        }
      ],
      "name": "addDistributor",
      "outputs": [],
      "payable": false,
      "stateMutability": "nonpayable",
      "type": "function"
    },
    {
      "constant": true,
      "inputs": [],
      "name": "getDistributors",
      "outputs": [
        {
          "name": "",
          "type": "address[]"
        }
      ],
      "payable": false,
      "stateMutability": "view",
      "type": "function"
    },
    {
      "constant": true,
      "inputs": [
        {
          "name": "_address",
          "type": "address"
        }
      ],
      "name": "getDistributor",
      "outputs": [
        {
          "name": "_name",
          "type": "string"
        },
        {
          "name": "_contact",
          "type": "string"
        },
        {
          "name": "_latitude",
          "type": "int256"
        },
        {
          "name": "_longitude",
          "type": "int256"
        },
        {
          "name": "_isEligible",
          "type": "bool"
        }
      ],
      "payable": false,
      "stateMutability": "view",
      "type": "function"
    },
    {
      "constant": true,
      "inputs": [
        {
          "name": "_address",
          "type": "address"
        }
      ],
      "name": "getLocation",
      "outputs": [
        {
          "name": "",
          "type": "int256"
        },
        {
          "name": "",
          "type": "int256"
        }
      ],
      "payable": false,
      "stateMutability": "view",
      "type": "function"
    },
    {
      "constant": true,
      "inputs": [],
      "name": "getUnverifiedDistributorAccounts",
      "outputs": [
        {
          "name": "",
          "type": "address[]"
        }
      ],
      "payable": false,
      "stateMutability": "view",
      "type": "function"
    },
    {
      "constant": true,
      "inputs": [],
      "name": "getNumUnverifiedDistributors",
      "outputs": [
        {
          "name": "",
          "type": "uint256"
        }
      ],
      "payable": false,
      "stateMutability": "view",
      "type": "function"
    },
    {
      "constant": true,
      "inputs": [
        {
          "name": "pos",
          "type": "uint256"
        }
      ],
      "name": "getUnverifiedDistributor",
      "outputs": [
        {
          "name": "",
          "type": "address"
        }
      ],
      "payable": false,
      "stateMutability": "view",
      "type": "function"
    },
    {
      "constant": false,
      "inputs": [
        {
          "name": "_address",
          "type": "address"
        }
      ],
      "name": "setEligible",
      "outputs": [],
      "payable": false,
      "stateMutability": "nonpayable",
      "type": "function"
    }
  ],
  "bytecode": "0x608060405234801561001057600080fd5b50604051602080611dc383398101806040528101908080519060200190929190505050806000806101000a81548173ffffffffffffffffffffffffffffffffffffffff021916908373ffffffffffffffffffffffffffffffffffffffff16021790555050611d40806100836000396000f3006080604052600436106100ba576000357c0100000000000000000000000000000000000000000000000000000000900463ffffffff16806312f77332146100bf5780631b49e6511461011657806345cf2e97146101835780635cc60973146101ef57806390e87986146102b257806394feebb31461031e578063993df8c61461038b578063cc642784146104cc578063d9e0dc591461060d578063f2d4b8141461066b578063f7b1c936146106d8578063f904cf0414610703575b600080fd5b3480156100cb57600080fd5b506100d4610746565b604051808273ffffffffffffffffffffffffffffffffffffffff1673ffffffffffffffffffffffffffffffffffffffff16815260200191505060405180910390f35b34801561012257600080fd5b506101416004803603810190808035906020019092919050505061076b565b604051808273ffffffffffffffffffffffffffffffffffffffff1673ffffffffffffffffffffffffffffffffffffffff16815260200191505060405180910390f35b34801561018f57600080fd5b506101986107a9565b6040518080602001828103825283818151815260200191508051906020019060200280838360005b838110156101db5780820151818401526020810190506101c0565b505050509050019250505060405180910390f35b3480156101fb57600080fd5b506102b0600480360381019080803590602001908201803590602001908080601f0160208091040260200160405190810160405280939291908181526020018383808284378201915050505050509192919290803590602001908201803590602001908080601f01602080910402602001604051908101604052809392919081815260200183838082843782019150505050505091929192908035906020019092919080359060200190929190505050610a89565b005b3480156102be57600080fd5b506102c7610b9a565b6040518080602001828103825283818151815260200191508051906020019060200280838360005b8381101561030a5780820151818401526020810190506102ef565b505050509050019250505060405180910390f35b34801561032a57600080fd5b5061034960048036038101908080359060200190929190505050610c28565b604051808273ffffffffffffffffffffffffffffffffffffffff1673ffffffffffffffffffffffffffffffffffffffff16815260200191505060405180910390f35b34801561039757600080fd5b506103cc600480360381019080803573ffffffffffffffffffffffffffffffffffffffff169060200190929190505050610ebd565b60405180806020018060200186815260200185815260200184151515158152602001838103835288818151815260200191508051906020019080838360005b8381101561042657808201518184015260208101905061040b565b50505050905090810190601f1680156104535780820380516001836020036101000a031916815260200191505b50838103825287818151815260200191508051906020019080838360005b8381101561048c578082015181840152602081019050610471565b50505050905090810190601f1680156104b95780820380516001836020036101000a031916815260200191505b5097505050505050505060405180910390f35b3480156104d857600080fd5b5061050d600480360381019080803573ffffffffffffffffffffffffffffffffffffffff16906020019092919050505061116a565b60405180806020018060200186815260200185815260200184151515158152602001838103835288818151815260200191508051906020019080838360005b8381101561056757808201518184015260208101905061054c565b50505050905090810190601f1680156105945780820380516001836020036101000a031916815260200191505b50838103825287818151815260200191508051906020019080838360005b838110156105cd5780820151818401526020810190506105b2565b50505050905090810190601f1680156105fa5780820380516001836020036101000a031916815260200191505b5097505050505050505060405180910390f35b34801561061957600080fd5b5061064e600480360381019080803573ffffffffffffffffffffffffffffffffffffffff1690602001909291905050506112dd565b604051808381526020018281526020019250505060405180910390f35b34801561067757600080fd5b506106966004803603810190808035906020019092919050505061136f565b604051808273ffffffffffffffffffffffffffffffffffffffff1673ffffffffffffffffffffffffffffffffffffffff16815260200191505060405180910390f35b3480156106e457600080fd5b506106ed6113ad565b6040518082815260200191505060405180910390f35b34801561070f57600080fd5b50610744600480360381019080803573ffffffffffffffffffffffffffffffffffffffff16906020019092919050505061160c565b005b6000809054906101000a900473ffffffffffffffffffffffffffffffffffffffff1681565b60028181548110151561077a57fe5b906000526020600020016000915054906101000a900473ffffffffffffffffffffffffffffffffffffffff1681565b60606000809054906101000a900473ffffffffffffffffffffffffffffffffffffffff1673ffffffffffffffffffffffffffffffffffffffff166346fb5b9c6040518163ffffffff167c0100000000000000000000000000000000000000000000000000000000028152600401602060405180830381600087803b15801561083057600080fd5b505af1158015610844573d6000803e3d6000fd5b505050506040513d602081101561085a57600080fd5b81019080805190602001909291905050506000809054906101000a900473ffffffffffffffffffffffffffffffffffffffff1673ffffffffffffffffffffffffffffffffffffffff166344276733326040518263ffffffff167c0100000000000000000000000000000000000000000000000000000000028152600401808273ffffffffffffffffffffffffffffffffffffffff1673ffffffffffffffffffffffffffffffffffffffff168152602001915050602060405180830381600087803b15801561092757600080fd5b505af115801561093b573d6000803e3d6000fd5b505050506040513d602081101561095157600080fd5b81019080805190602001909291905050501415156109fd576040517f08c379a00000000000000000000000000000000000000000000000000000000081526004018080602001828103825260248152602001807f4f6e6c7920676f7665726e6d656e74206f6666696369616c732063616e20616381526020017f636573730000000000000000000000000000000000000000000000000000000081525060400191505060405180910390fd5b6003805480602002602001604051908101604052809291908181526020018280548015610a7f57602002820191906000526020600020905b8160009054906101000a900473ffffffffffffffffffffffffffffffffffffffff1673ffffffffffffffffffffffffffffffffffffffff1681526020019060010190808311610a35575b5050505050905090565b6000600160003273ffffffffffffffffffffffffffffffffffffffff1673ffffffffffffffffffffffffffffffffffffffff168152602001908152602001600020905084816000019080519060200190610ae4929190611c43565b5083816001019080519060200190610afd929190611c43565b5082816002018190555081816003018190555060008160040160006101000a81548160ff02191690831515021790555060033290806001815401808255809150509060018203906000526020600020016000909192909190916101000a81548173ffffffffffffffffffffffffffffffffffffffff021916908373ffffffffffffffffffffffffffffffffffffffff160217905550505050505050565b60606002805480602002602001604051908101604052809291908181526020018280548015610c1e57602002820191906000526020600020905b8160009054906101000a900473ffffffffffffffffffffffffffffffffffffffff1673ffffffffffffffffffffffffffffffffffffffff1681526020019060010190808311610bd4575b5050505050905090565b60008060009054906101000a900473ffffffffffffffffffffffffffffffffffffffff1673ffffffffffffffffffffffffffffffffffffffff166346fb5b9c6040518163ffffffff167c0100000000000000000000000000000000000000000000000000000000028152600401602060405180830381600087803b158015610caf57600080fd5b505af1158015610cc3573d6000803e3d6000fd5b505050506040513d6020811015610cd957600080fd5b81019080805190602001909291905050506000809054906101000a900473ffffffffffffffffffffffffffffffffffffffff1673ffffffffffffffffffffffffffffffffffffffff166344276733326040518263ffffffff167c0100000000000000000000000000000000000000000000000000000000028152600401808273ffffffffffffffffffffffffffffffffffffffff1673ffffffffffffffffffffffffffffffffffffffff168152602001915050602060405180830381600087803b158015610da657600080fd5b505af1158015610dba573d6000803e3d6000fd5b505050506040513d6020811015610dd057600080fd5b8101908080519060200190929190505050141515610e7c576040517f08c379a00000000000000000000000000000000000000000000000000000000081526004018080602001828103825260248152602001807f4f6e6c7920676f7665726e6d656e74206f6666696369616c732063616e20616381526020017f636573730000000000000000000000000000000000000000000000000000000081525060400191505060405180910390fd5b600382815481101515610e8b57fe5b9060005260206000200160009054906101000a900473ffffffffffffffffffffffffffffffffffffffff169050919050565b6060806000806000600160008773ffffffffffffffffffffffffffffffffffffffff1673ffffffffffffffffffffffffffffffffffffffff168152602001908152602001600020600001600160008873ffffffffffffffffffffffffffffffffffffffff1673ffffffffffffffffffffffffffffffffffffffff168152602001908152602001600020600101600160008973ffffffffffffffffffffffffffffffffffffffff1673ffffffffffffffffffffffffffffffffffffffff16815260200190815260200160002060020154600160008a73ffffffffffffffffffffffffffffffffffffffff1673ffffffffffffffffffffffffffffffffffffffff16815260200190815260200160002060030154600160008b73ffffffffffffffffffffffffffffffffffffffff1673ffffffffffffffffffffffffffffffffffffffff16815260200190815260200160002060040160009054906101000a900460ff16848054600181600116156101000203166002900480601f0160208091040260200160405190810160405280929190818152602001828054600181600116156101000203166002900480156110b45780601f10611089576101008083540402835291602001916110b4565b820191906000526020600020905b81548152906001019060200180831161109757829003601f168201915b50505050509450838054600181600116156101000203166002900480601f0160208091040260200160405190810160405280929190818152602001828054600181600116156101000203166002900480156111505780601f1061112557610100808354040283529160200191611150565b820191906000526020600020905b81548152906001019060200180831161113357829003601f168201915b505050505093509450945094509450945091939590929450565b6001602052806000526040600020600091509050806000018054600181600116156101000203166002900480601f0160208091040260200160405190810160405280929190818152602001828054600181600116156101000203166002900480156112165780601f106111eb57610100808354040283529160200191611216565b820191906000526020600020905b8154815290600101906020018083116111f957829003601f168201915b505050505090806001018054600181600116156101000203166002900480601f0160208091040260200160405190810160405280929190818152602001828054600181600116156101000203166002900480156112b45780601f10611289576101008083540402835291602001916112b4565b820191906000526020600020905b81548152906001019060200180831161129757829003601f168201915b5050505050908060020154908060030154908060040160009054906101000a900460ff16905085565b600080600160008473ffffffffffffffffffffffffffffffffffffffff1673ffffffffffffffffffffffffffffffffffffffff16815260200190815260200160002060020154600160008573ffffffffffffffffffffffffffffffffffffffff1673ffffffffffffffffffffffffffffffffffffffff1681526020019081526020016000206003015491509150915091565b60038181548110151561137e57fe5b906000526020600020016000915054906101000a900473ffffffffffffffffffffffffffffffffffffffff1681565b60008060009054906101000a900473ffffffffffffffffffffffffffffffffffffffff1673ffffffffffffffffffffffffffffffffffffffff166346fb5b9c6040518163ffffffff167c0100000000000000000000000000000000000000000000000000000000028152600401602060405180830381600087803b15801561143457600080fd5b505af1158015611448573d6000803e3d6000fd5b505050506040513d602081101561145e57600080fd5b81019080805190602001909291905050506000809054906101000a900473ffffffffffffffffffffffffffffffffffffffff1673ffffffffffffffffffffffffffffffffffffffff166344276733326040518263ffffffff167c0100000000000000000000000000000000000000000000000000000000028152600401808273ffffffffffffffffffffffffffffffffffffffff1673ffffffffffffffffffffffffffffffffffffffff168152602001915050602060405180830381600087803b15801561152b57600080fd5b505af115801561153f573d6000803e3d6000fd5b505050506040513d602081101561155557600080fd5b8101908080519060200190929190505050141515611601576040517f08c379a00000000000000000000000000000000000000000000000000000000081526004018080602001828103825260248152602001807f4f6e6c7920676f7665726e6d656e74206f6666696369616c732063616e20616381526020017f636573730000000000000000000000000000000000000000000000000000000081525060400191505060405180910390fd5b600380549050905090565b60008060009054906101000a900473ffffffffffffffffffffffffffffffffffffffff1673ffffffffffffffffffffffffffffffffffffffff166346fb5b9c6040518163ffffffff167c0100000000000000000000000000000000000000000000000000000000028152600401602060405180830381600087803b15801561169357600080fd5b505af11580156116a7573d6000803e3d6000fd5b505050506040513d60208110156116bd57600080fd5b81019080805190602001909291905050506000809054906101000a900473ffffffffffffffffffffffffffffffffffffffff1673ffffffffffffffffffffffffffffffffffffffff166344276733326040518263ffffffff167c0100000000000000000000000000000000000000000000000000000000028152600401808273ffffffffffffffffffffffffffffffffffffffff1673ffffffffffffffffffffffffffffffffffffffff168152602001915050602060405180830381600087803b15801561178a57600080fd5b505af115801561179e573d6000803e3d6000fd5b505050506040513d60208110156117b457600080fd5b8101908080519060200190929190505050141515611860576040517f08c379a00000000000000000000000000000000000000000000000000000000081526004018080602001828103825260248152602001807f4f6e6c7920676f7665726e6d656e74206f6666696369616c732063616e20616381526020017f636573730000000000000000000000000000000000000000000000000000000081525060400191505060405180910390fd5b600090505b600380549050811015611c3f578173ffffffffffffffffffffffffffffffffffffffff1660038281548110151561189857fe5b9060005260206000200160009054906101000a900473ffffffffffffffffffffffffffffffffffffffff1673ffffffffffffffffffffffffffffffffffffffff161415611c325760036001600380549050038154811015156118f657fe5b9060005260206000200160009054906101000a900473ffffffffffffffffffffffffffffffffffffffff1660038281548110151561193057fe5b9060005260206000200160006101000a81548173ffffffffffffffffffffffffffffffffffffffff021916908373ffffffffffffffffffffffffffffffffffffffff160217905550600360016003805490500381548110151561198f57fe5b9060005260206000200160006101000a81549073ffffffffffffffffffffffffffffffffffffffff021916905560038054809190600190036119d19190611cc3565b5060018060008473ffffffffffffffffffffffffffffffffffffffff1673ffffffffffffffffffffffffffffffffffffffff16815260200190815260200160002060040160006101000a81548160ff02191690831515021790555060028290806001815401808255809150509060018203906000526020600020016000909192909190916101000a81548173ffffffffffffffffffffffffffffffffffffffff021916908373ffffffffffffffffffffffffffffffffffffffff160217905550506000809054906101000a900473ffffffffffffffffffffffffffffffffffffffff1673ffffffffffffffffffffffffffffffffffffffff16637fde1c8a836000809054906101000a900473ffffffffffffffffffffffffffffffffffffffff1673ffffffffffffffffffffffffffffffffffffffff1663121da33c6040518163ffffffff167c0100000000000000000000000000000000000000000000000000000000028152600401602060405180830381600087803b158015611b5557600080fd5b505af1158015611b69573d6000803e3d6000fd5b505050506040513d6020811015611b7f57600080fd5b81019080805190602001909291905050506040518363ffffffff167c0100000000000000000000000000000000000000000000000000000000028152600401808373ffffffffffffffffffffffffffffffffffffffff1673ffffffffffffffffffffffffffffffffffffffff16815260200182815260200192505050600060405180830381600087803b158015611c1557600080fd5b505af1158015611c29573d6000803e3d6000fd5b50505050611c3f565b8080600101915050611865565b5050565b828054600181600116156101000203166002900490600052602060002090601f016020900481019282601f10611c8457805160ff1916838001178555611cb2565b82800160010185558215611cb2579182015b82811115611cb1578251825591602001919060010190611c96565b5b509050611cbf9190611cef565b5090565b815481835581811115611cea57818360005260206000209182019101611ce99190611cef565b5b505050565b611d1191905b80821115611d0d576000816000905550600101611cf5565b5090565b905600a165627a7a723058203a7413339174c0cdde2e4c3bfde61b82de73392d577936d37303d1995dbd87ab0029",
  "source": "// SPDX-License-Identifier: GPL-3.0\r\npragma solidity ^0.4.22;\r\nimport \"./Roles.sol\";\r\n\r\ncontract DistributorContract {\r\n    Roles public rc;\r\n\r\n    constructor(address _address) public {\r\n        rc = Roles(_address);\r\n    }\r\n\r\n    struct Distributor {\r\n        string name;\r\n        string contact;\r\n        int256 latitude;\r\n        int256 longitude;\r\n        bool isEligible;\r\n    }\r\n\r\n    mapping(address => Distributor) public distributors;\r\n    address[] public distributorAccounts;\r\n    address[] public unverifiedDistributorAccounts;\r\n    \r\n    modifier onlyGovernmentOfficial() {\r\n        require(rc.getRole(tx.origin) == rc.governmentID(), \"Only government officials can access\");\r\n        _;\r\n    }\r\n\r\n    function addDistributor(\r\n        string memory _name,\r\n        string memory _contact,\r\n        int256 _latitude,\r\n        int256 _longitude\r\n    ) public {\r\n        Distributor storage distributor = distributors[tx.origin];\r\n        distributor.name = _name;\r\n        distributor.contact = _contact;\r\n        distributor.latitude = _latitude;\r\n        distributor.longitude = _longitude;\r\n        distributor.isEligible = false;\r\n        \r\n        unverifiedDistributorAccounts.push(tx.origin);\r\n    }\r\n    \r\n    function getDistributors() public view returns (address[] memory) {\r\n        return distributorAccounts;\r\n    }\r\n\r\n    function getDistributor(address _address)\r\n        public\r\n        view\r\n        returns (\r\n            string memory _name, \r\n            string memory _contact,\r\n            int256 _latitude,\r\n            int256 _longitude,\r\n            bool _isEligible\r\n        )\r\n    {\r\n        return (\r\n            distributors[_address].name, \r\n            distributors[_address].contact,\r\n            distributors[_address].latitude,\r\n            distributors[_address].longitude,\r\n            distributors[_address].isEligible\r\n        );\r\n    }\r\n\r\n    function getLocation(address _address) external view returns(int256, int256) {\r\n        return (distributors[_address].latitude, distributors[_address].longitude);\r\n    }\r\n        \r\n    function getUnverifiedDistributorAccounts() public onlyGovernmentOfficial view returns (address[] memory) {\r\n        return unverifiedDistributorAccounts;\r\n    }\r\n\r\n    function getNumUnverifiedDistributors() public onlyGovernmentOfficial view returns (uint256) {\r\n        return unverifiedDistributorAccounts.length;\r\n    }\r\n\r\n    function getUnverifiedDistributor(uint256 pos) public onlyGovernmentOfficial view returns (address) {\r\n        return unverifiedDistributorAccounts[pos];\r\n    }\r\n    \r\n    function setEligible(address _address) public onlyGovernmentOfficial {\r\n        for (uint256 i = 0 ; i < unverifiedDistributorAccounts.length ; i++) {\r\n            if (unverifiedDistributorAccounts[i] == _address) {\r\n                unverifiedDistributorAccounts[i] = unverifiedDistributorAccounts[unverifiedDistributorAccounts.length-1];\r\n                delete unverifiedDistributorAccounts[unverifiedDistributorAccounts.length-1];\r\n                unverifiedDistributorAccounts.length--;\r\n                distributors[_address].isEligible = true;\r\n                distributorAccounts.push(_address);\r\n                rc.addRole(_address, rc.distributorRoleID());\r\n                break;\r\n            }\r\n        }\r\n    }\r\n}\r\n",
  "sourcePath": "D:\\7thSemester\\CS491\\smart_agriculture_react\\contracts\\DistributorContract.sol",
  "compiler": {
    "name": "solc",
    "version": "0.4.26+commit.4563c3fc.Emscripten.clang"
  },
  "schemaVersion": "3.4.3",
  "updatedAt": "2021-12-11T16:06:07.899Z",
  "networkType": "ethereum",
  "devdoc": {
    "methods": {}
  },
  "userdoc": {
    "methods": {}
  }
}