{
  "contractName": "FarmerContract",
  "abi": [
    {
      "constant": true,
      "inputs": [],
      "name": "consumerRoleID",
      "outputs": [
        {
          "name": "",
          "type": "uint256"
        }
      ],
      "payable": false,
      "stateMutability": "view",
      "type": "function"
    },
    {
      "constant": true,
      "inputs": [],
      "name": "distributorRoleID",
      "outputs": [
        {
          "name": "",
          "type": "uint256"
        }
      ],
      "payable": false,
      "stateMutability": "view",
      "type": "function"
    },
    {
      "constant": true,
      "inputs": [],
      "name": "rc",
      "outputs": [
        {
          "name": "",
          "type": "address"
        }
      ],
      "payable": false,
      "stateMutability": "view",
      "type": "function"
    },
    {
      "constant": true,
      "inputs": [
        {
          "name": "",
          "type": "address"
        }
      ],
      "name": "farmers",
      "outputs": [
        {
          "name": "name",
          "type": "string"
        },
        {
          "name": "stateOfResidence",
          "type": "string"
        },
        {
          "name": "gender",
          "type": "string"
        },
        {
          "name": "landOwned",
          "type": "uint256"
        },
        {
          "name": "latitude",
          "type": "int256"
        },
        {
          "name": "longitude",
          "type": "int256"
        },
        {
          "name": "eligible",
          "type": "bool"
        }
      ],
      "payable": false,
      "stateMutability": "view",
      "type": "function"
    },
    {
      "constant": true,
      "inputs": [
        {
          "name": "_address",
          "type": "address"
        }
      ],
      "name": "getRole",
      "outputs": [
        {
          "name": "",
          "type": "uint256"
        }
      ],
      "payable": false,
      "stateMutability": "view",
      "type": "function"
    },
    {
      "constant": true,
      "inputs": [],
      "name": "governmentID",
      "outputs": [
        {
          "name": "",
          "type": "uint256"
        }
      ],
      "payable": false,
      "stateMutability": "view",
      "type": "function"
    },
    {
      "constant": false,
      "inputs": [
        {
          "name": "_address",
          "type": "address"
        }
      ],
      "name": "deleteRole",
      "outputs": [],
      "payable": false,
      "stateMutability": "nonpayable",
      "type": "function"
    },
    {
      "constant": true,
      "inputs": [
        {
          "name": "",
          "type": "uint256"
        }
      ],
      "name": "farmerAccounts",
      "outputs": [
        {
          "name": "",
          "type": "address"
        }
      ],
      "payable": false,
      "stateMutability": "view",
      "type": "function"
    },
    {
      "constant": false,
      "inputs": [
        {
          "name": "_address",
          "type": "address"
        },
        {
          "name": "_RoleID",
          "type": "uint256"
        }
      ],
      "name": "addRole",
      "outputs": [],
      "payable": false,
      "stateMutability": "nonpayable",
      "type": "function"
    },
    {
      "constant": true,
      "inputs": [
        {
          "name": "",
          "type": "uint256"
        }
      ],
      "name": "unverifiedFarmerAccounts",
      "outputs": [
        {
          "name": "",
          "type": "address"
        }
      ],
      "payable": false,
      "stateMutability": "view",
      "type": "function"
    },
    {
      "constant": true,
      "inputs": [],
      "name": "farmerRoleID",
      "outputs": [
        {
          "name": "",
          "type": "uint256"
        }
      ],
      "payable": false,
      "stateMutability": "view",
      "type": "function"
    },
    {
      "constant": true,
      "inputs": [],
      "name": "coldStorageRoleID",
      "outputs": [
        {
          "name": "",
          "type": "uint256"
        }
      ],
      "payable": false,
      "stateMutability": "view",
      "type": "function"
    },
    {
      "constant": true,
      "inputs": [],
      "name": "recommendedCrops",
      "outputs": [
        {
          "name": "",
          "type": "string"
        }
      ],
      "payable": false,
      "stateMutability": "view",
      "type": "function"
    },
    {
      "constant": true,
      "inputs": [
        {
          "name": "",
          "type": "address"
        }
      ],
      "name": "role",
      "outputs": [
        {
          "name": "roleID",
          "type": "uint256"
        },
        {
          "name": "roleSet",
          "type": "bool"
        }
      ],
      "payable": false,
      "stateMutability": "view",
      "type": "function"
    },
    {
      "constant": true,
      "inputs": [],
      "name": "retailerRoleID",
      "outputs": [
        {
          "name": "",
          "type": "uint256"
        }
      ],
      "payable": false,
      "stateMutability": "view",
      "type": "function"
    },
    {
      "inputs": [
        {
          "name": "_address",
          "type": "address"
        }
      ],
      "payable": false,
      "stateMutability": "nonpayable",
      "type": "constructor"
    },
    {
      "anonymous": false,
      "inputs": [
        {
          "indexed": false,
          "name": "description",
          "type": "string"
        }
      ],
      "name": "newProvableQuery",
      "type": "event"
    },
    {
      "anonymous": false,
      "inputs": [
        {
          "indexed": false,
          "name": "nextStep",
          "type": "string"
        }
      ],
      "name": "LogConstructorInitiated",
      "type": "event"
    },
    {
      "constant": false,
      "inputs": [
        {
          "name": "_name",
          "type": "string"
        },
        {
          "name": "_stateOfResidence",
          "type": "string"
        },
        {
          "name": "_gender",
          "type": "string"
        },
        {
          "name": "_landOwned",
          "type": "uint256"
        },
        {
          "name": "_latitude",
          "type": "int256"
        },
        {
          "name": "_longitude",
          "type": "int256"
        }
      ],
      "name": "addFarmer",
      "outputs": [],
      "payable": false,
      "stateMutability": "nonpayable",
      "type": "function"
    },
    {
      "constant": true,
      "inputs": [],
      "name": "getFarmers",
      "outputs": [
        {
          "name": "",
          "type": "address[]"
        }
      ],
      "payable": false,
      "stateMutability": "view",
      "type": "function"
    },
    {
      "constant": true,
      "inputs": [
        {
          "name": "_address",
          "type": "address"
        }
      ],
      "name": "getFarmer",
      "outputs": [
        {
          "name": "_name",
          "type": "string"
        },
        {
          "name": "_stateOfResidence",
          "type": "string"
        },
        {
          "name": "_gender",
          "type": "string"
        },
        {
          "name": "_landOwned",
          "type": "uint256"
        },
        {
          "name": "_latitude",
          "type": "int256"
        },
        {
          "name": "_longitude",
          "type": "int256"
        },
        {
          "name": "_eligible",
          "type": "bool"
        }
      ],
      "payable": false,
      "stateMutability": "view",
      "type": "function"
    },
    {
      "constant": true,
      "inputs": [
        {
          "name": "_address",
          "type": "address"
        }
      ],
      "name": "getLocation",
      "outputs": [
        {
          "name": "",
          "type": "int256"
        },
        {
          "name": "",
          "type": "int256"
        }
      ],
      "payable": false,
      "stateMutability": "view",
      "type": "function"
    },
    {
      "constant": true,
      "inputs": [],
      "name": "countFarmers",
      "outputs": [
        {
          "name": "",
          "type": "uint256"
        }
      ],
      "payable": false,
      "stateMutability": "view",
      "type": "function"
    },
    {
      "constant": false,
      "inputs": [
        {
          "name": "_address",
          "type": "address"
        }
      ],
      "name": "setEligible",
      "outputs": [],
      "payable": false,
      "stateMutability": "nonpayable",
      "type": "function"
    },
    {
      "constant": true,
      "inputs": [],
      "name": "getUnverifiedFarmers",
      "outputs": [
        {
          "name": "",
          "type": "address[]"
        }
      ],
      "payable": false,
      "stateMutability": "view",
      "type": "function"
    }
  ],
  "bytecode": "0x608060405234801561001057600080fd5b506040516020806122c18339810180604052810190808051906020019092919050505080600160006101000a81548173ffffffffffffffffffffffffffffffffffffffff021916908373ffffffffffffffffffffffffffffffffffffffff1602179055507f11a3fca63f87bd67d7f9f72b744acc8be2193705e7a734ac3a773d35d259e87b6040518080602001828103825260468152602001807f436f6e7374727563746f722077617320696e697469617465642e2043616c6c2081526020017f2775706461746528292720746f2073656e64207468652050726f7661626c652081526020017f51756572792e000000000000000000000000000000000000000000000000000081525060600191505060405180910390a150612189806101386000396000f300608060405260043610610128576000357c0100000000000000000000000000000000000000000000000000000000900463ffffffff16806303553a2f1461012d578063121da33c1461015857806312f7733214610183578063401b2168146101da578063442767331461038e57806346fb5b9c146103e557806354b025c514610410578063789f8d40146104535780637a71b4d5146104bf5780637fde1c8a1461052c5780639f943c7e14610579578063b67ac873146105e6578063bf4fd36914610611578063c6906ec31461063c578063d1213c53146106cc578063d590f8c9146107df578063d9e0dc5914610841578063e7609c161461089f578063ece3387214610a53578063f7b8d48414610a7e578063f904cf0414610aa9578063ff2d304514610aec575b600080fd5b34801561013957600080fd5b50610142610b58565b6040518082815260200191505060405180910390f35b34801561016457600080fd5b5061016d610b5d565b6040518082815260200191505060405180910390f35b34801561018f57600080fd5b50610198610b62565b604051808273ffffffffffffffffffffffffffffffffffffffff1673ffffffffffffffffffffffffffffffffffffffff16815260200191505060405180910390f35b3480156101e657600080fd5b5061021b600480360381019080803573ffffffffffffffffffffffffffffffffffffffff169060200190929190505050610b88565b604051808060200180602001806020018881526020018781526020018681526020018515151515815260200184810384528b818151815260200191508051906020019080838360005b8381101561027f578082015181840152602081019050610264565b50505050905090810190601f1680156102ac5780820380516001836020036101000a031916815260200191505b5084810383528a818151815260200191508051906020019080838360005b838110156102e55780820151818401526020810190506102ca565b50505050905090810190601f1680156103125780820380516001836020036101000a031916815260200191505b50848103825289818151815260200191508051906020019080838360005b8381101561034b578082015181840152602081019050610330565b50505050905090810190601f1680156103785780820380516001836020036101000a031916815260200191505b509a505050505050505050505060405180910390f35b34801561039a57600080fd5b506103cf600480360381019080803573ffffffffffffffffffffffffffffffffffffffff169060200190929190505050610d9f565b6040518082815260200191505060405180910390f35b3480156103f157600080fd5b506103fa610e4f565b6040518082815260200191505060405180910390f35b34801561041c57600080fd5b50610451600480360381019080803573ffffffffffffffffffffffffffffffffffffffff169060200190929190505050610e54565b005b34801561045f57600080fd5b50610468610ef8565b6040518080602001828103825283818151815260200191508051906020019060200280838360005b838110156104ab578082015181840152602081019050610490565b505050509050019250505060405180910390f35b3480156104cb57600080fd5b506104ea60048036038101908080359060200190929190505050610f86565b604051808273ffffffffffffffffffffffffffffffffffffffff1673ffffffffffffffffffffffffffffffffffffffff16815260200191505060405180910390f35b34801561053857600080fd5b50610577600480360381019080803573ffffffffffffffffffffffffffffffffffffffff16906020019092919080359060200190929190505050610fc4565b005b34801561058557600080fd5b506105a4600480360381019080803590602001909291905050506110a7565b604051808273ffffffffffffffffffffffffffffffffffffffff1673ffffffffffffffffffffffffffffffffffffffff16815260200191505060405180910390f35b3480156105f257600080fd5b506105fb6110e5565b6040518082815260200191505060405180910390f35b34801561061d57600080fd5b506106266110ea565b6040518082815260200191505060405180910390f35b34801561064857600080fd5b506106516110ef565b6040518080602001828103825283818151815260200191508051906020019080838360005b83811015610691578082015181840152602081019050610676565b50505050905090810190601f1680156106be5780820380516001836020036101000a031916815260200191505b509250505060405180910390f35b3480156106d857600080fd5b506107dd600480360381019080803590602001908201803590602001908080601f0160208091040260200160405190810160405280939291908181526020018383808284378201915050505050509192919290803590602001908201803590602001908080601f0160208091040260200160405190810160405280939291908181526020018383808284378201915050505050509192919290803590602001908201803590602001908080601f016020809104026020016040519081016040528093929190818152602001838380828437820191505050505050919291929080359060200190929190803590602001909291908035906020019092919050505061118d565b005b3480156107eb57600080fd5b50610820600480360381019080803573ffffffffffffffffffffffffffffffffffffffff169060200190929190505050611328565b60405180838152602001821515151581526020019250505060405180910390f35b34801561084d57600080fd5b50610882600480360381019080803573ffffffffffffffffffffffffffffffffffffffff169060200190929190505050611359565b604051808381526020018281526020019250505060405180910390f35b3480156108ab57600080fd5b506108e0600480360381019080803573ffffffffffffffffffffffffffffffffffffffff1690602001909291905050506113eb565b604051808060200180602001806020018881526020018781526020018681526020018515151515815260200184810384528b818151815260200191508051906020019080838360005b83811015610944578082015181840152602081019050610929565b50505050905090810190601f1680156109715780820380516001836020036101000a031916815260200191505b5084810383528a818151815260200191508051906020019080838360005b838110156109aa57808201518184015260208101905061098f565b50505050905090810190601f1680156109d75780820380516001836020036101000a031916815260200191505b50848103825289818151815260200191508051906020019080838360005b83811015610a105780820151818401526020810190506109f5565b50505050905090810190601f168015610a3d5780820380516001836020036101000a031916815260200191505b509a505050505050505050505060405180910390f35b348015610a5f57600080fd5b50610a686117c2565b6040518082815260200191505060405180910390f35b348015610a8a57600080fd5b50610a936117cf565b6040518082815260200191505060405180910390f35b348015610ab557600080fd5b50610aea600480360381019080803573ffffffffffffffffffffffffffffffffffffffff1690602001909291905050506117d4565b005b348015610af857600080fd5b50610b01611daa565b6040518080602001828103825283818151815260200191508051906020019060200280838360005b83811015610b44578082015181840152602081019050610b29565b505050509050019250505060405180910390f35b600481565b600281565b600160009054906101000a900473ffffffffffffffffffffffffffffffffffffffff1681565b6003602052806000526040600020600091509050806000018054600181600116156101000203166002900480601f016020809104026020016040519081016040528092919081815260200182805460018160011615610100020316600290048015610c345780601f10610c0957610100808354040283529160200191610c34565b820191906000526020600020905b815481529060010190602001808311610c1757829003601f168201915b505050505090806001018054600181600116156101000203166002900480601f016020809104026020016040519081016040528092919081815260200182805460018160011615610100020316600290048015610cd25780601f10610ca757610100808354040283529160200191610cd2565b820191906000526020600020905b815481529060010190602001808311610cb557829003601f168201915b505050505090806002018054600181600116156101000203166002900480601f016020809104026020016040519081016040528092919081815260200182805460018160011615610100020316600290048015610d705780601f10610d4557610100808354040283529160200191610d70565b820191906000526020600020905b815481529060010190602001808311610d5357829003601f168201915b5050505050908060030154908060040154908060050154908060060160009054906101000a900460ff16905087565b6000600115156000808473ffffffffffffffffffffffffffffffffffffffff1673ffffffffffffffffffffffffffffffffffffffff16815260200190815260200160002060010160009054906101000a900460ff1615151415610e45576000808373ffffffffffffffffffffffffffffffffffffffff1673ffffffffffffffffffffffffffffffffffffffff168152602001908152602001600020600001549050610e4a565b600090505b919050565b600681565b60008060008373ffffffffffffffffffffffffffffffffffffffff1673ffffffffffffffffffffffffffffffffffffffff16815260200190815260200160002060010160006101000a81548160ff02191690831515021790555060008060008373ffffffffffffffffffffffffffffffffffffffff1673ffffffffffffffffffffffffffffffffffffffff1681526020019081526020016000206000018190555050565b60606004805480602002602001604051908101604052809291908181526020018280548015610f7c57602002820191906000526020600020905b8160009054906101000a900473ffffffffffffffffffffffffffffffffffffffff1673ffffffffffffffffffffffffffffffffffffffff1681526020019060010190808311610f32575b5050505050905090565b600481815481101515610f9557fe5b906000526020600020016000915054906101000a900473ffffffffffffffffffffffffffffffffffffffff1681565b600015156000808473ffffffffffffffffffffffffffffffffffffffff1673ffffffffffffffffffffffffffffffffffffffff16815260200190815260200160002060010160009054906101000a900460ff16151514156110a3576040805190810160405280828152602001600115158152506000808473ffffffffffffffffffffffffffffffffffffffff1673ffffffffffffffffffffffffffffffffffffffff1681526020019081526020016000206000820151816000015560208201518160010160006101000a81548160ff0219169083151502179055509050505b5050565b6005818154811015156110b657fe5b906000526020600020016000915054906101000a900473ffffffffffffffffffffffffffffffffffffffff1681565b600181565b600581565b60028054600181600116156101000203166002900480601f0160208091040260200160405190810160405280929190818152602001828054600181600116156101000203166002900480156111855780601f1061115a57610100808354040283529160200191611185565b820191906000526020600020905b81548152906001019060200180831161116857829003601f168201915b505050505081565b6000600360003273ffffffffffffffffffffffffffffffffffffffff1673ffffffffffffffffffffffffffffffffffffffff1681526020019081526020016000209050868160000190805190602001906111e892919061208c565b508581600101908051906020019061120192919061208c565b508481600201908051906020019061121a92919061208c565b5083816003018190555082816004018190555081816005018190555060008160060160006101000a81548160ff02191690831515021790555060043290806001815401808255809150509060018203906000526020600020016000909192909190916101000a81548173ffffffffffffffffffffffffffffffffffffffff021916908373ffffffffffffffffffffffffffffffffffffffff1602179055505060053290806001815401808255809150509060018203906000526020600020016000909192909190916101000a81548173ffffffffffffffffffffffffffffffffffffffff021916908373ffffffffffffffffffffffffffffffffffffffff1602179055505050505050505050565b60006020528060005260406000206000915090508060000154908060010160009054906101000a900460ff16905082565b600080600360008473ffffffffffffffffffffffffffffffffffffffff1673ffffffffffffffffffffffffffffffffffffffff16815260200190815260200160002060040154600360008573ffffffffffffffffffffffffffffffffffffffff1673ffffffffffffffffffffffffffffffffffffffff1681526020019081526020016000206005015491509150915091565b6060806060600080600080600360008973ffffffffffffffffffffffffffffffffffffffff1673ffffffffffffffffffffffffffffffffffffffff168152602001908152602001600020600001600360008a73ffffffffffffffffffffffffffffffffffffffff1673ffffffffffffffffffffffffffffffffffffffff168152602001908152602001600020600101600360008b73ffffffffffffffffffffffffffffffffffffffff1673ffffffffffffffffffffffffffffffffffffffff168152602001908152602001600020600201600360008c73ffffffffffffffffffffffffffffffffffffffff1673ffffffffffffffffffffffffffffffffffffffff16815260200190815260200160002060030154600360008d73ffffffffffffffffffffffffffffffffffffffff1673ffffffffffffffffffffffffffffffffffffffff16815260200190815260200160002060040154600360008e73ffffffffffffffffffffffffffffffffffffffff1673ffffffffffffffffffffffffffffffffffffffff16815260200190815260200160002060050154600360008f73ffffffffffffffffffffffffffffffffffffffff1673ffffffffffffffffffffffffffffffffffffffff16815260200190815260200160002060060160009054906101000a900460ff16868054600181600116156101000203166002900480601f01602080910402602001604051908101604052809291908181526020018280546001816001161561010002031660029004801561166a5780601f1061163f5761010080835404028352916020019161166a565b820191906000526020600020905b81548152906001019060200180831161164d57829003601f168201915b50505050509650858054600181600116156101000203166002900480601f0160208091040260200160405190810160405280929190818152602001828054600181600116156101000203166002900480156117065780601f106116db57610100808354040283529160200191611706565b820191906000526020600020905b8154815290600101906020018083116116e957829003601f168201915b50505050509550848054600181600116156101000203166002900480601f0160208091040260200160405190810160405280929190818152602001828054600181600116156101000203166002900480156117a25780601f10611777576101008083540402835291602001916117a2565b820191906000526020600020905b81548152906001019060200180831161178557829003601f168201915b505050505094509650965096509650965096509650919395979092949650565b6000600480549050905090565b600381565b6000600160009054906101000a900473ffffffffffffffffffffffffffffffffffffffff1673ffffffffffffffffffffffffffffffffffffffff166346fb5b9c6040518163ffffffff167c0100000000000000000000000000000000000000000000000000000000028152600401602060405180830381600087803b15801561185c57600080fd5b505af1158015611870573d6000803e3d6000fd5b505050506040513d602081101561188657600080fd5b8101908080519060200190929190505050600160009054906101000a900473ffffffffffffffffffffffffffffffffffffffff1673ffffffffffffffffffffffffffffffffffffffff166344276733326040518263ffffffff167c0100000000000000000000000000000000000000000000000000000000028152600401808273ffffffffffffffffffffffffffffffffffffffff1673ffffffffffffffffffffffffffffffffffffffff168152602001915050602060405180830381600087803b15801561195457600080fd5b505af1158015611968573d6000803e3d6000fd5b505050506040513d602081101561197e57600080fd5b8101908080519060200190929190505050141515611a2a576040517f08c379a00000000000000000000000000000000000000000000000000000000081526004018080602001828103825260248152602001807f4f6e6c7920676f7665726e6d656e74206f6666696369616c732063616e20616381526020017f636573730000000000000000000000000000000000000000000000000000000081525060400191505060405180910390fd5b600090505b600580549050811015611da6578173ffffffffffffffffffffffffffffffffffffffff16600582815481101515611a6257fe5b9060005260206000200160009054906101000a900473ffffffffffffffffffffffffffffffffffffffff1673ffffffffffffffffffffffffffffffffffffffff161415611d99576005600160058054905003815481101515611ac057fe5b9060005260206000200160009054906101000a900473ffffffffffffffffffffffffffffffffffffffff16600582815481101515611afa57fe5b9060005260206000200160006101000a81548173ffffffffffffffffffffffffffffffffffffffff021916908373ffffffffffffffffffffffffffffffffffffffff1602179055506005600160058054905003815481101515611b5957fe5b9060005260206000200160006101000a81549073ffffffffffffffffffffffffffffffffffffffff02191690556005805480919060019003611b9b919061210c565b506001600360008473ffffffffffffffffffffffffffffffffffffffff1673ffffffffffffffffffffffffffffffffffffffff16815260200190815260200160002060060160006101000a81548160ff021916908315150217905550600160009054906101000a900473ffffffffffffffffffffffffffffffffffffffff1673ffffffffffffffffffffffffffffffffffffffff16637fde1c8a83600160009054906101000a900473ffffffffffffffffffffffffffffffffffffffff1673ffffffffffffffffffffffffffffffffffffffff1663b67ac8736040518163ffffffff167c0100000000000000000000000000000000000000000000000000000000028152600401602060405180830381600087803b158015611cbc57600080fd5b505af1158015611cd0573d6000803e3d6000fd5b505050506040513d6020811015611ce657600080fd5b81019080805190602001909291905050506040518363ffffffff167c0100000000000000000000000000000000000000000000000000000000028152600401808373ffffffffffffffffffffffffffffffffffffffff1673ffffffffffffffffffffffffffffffffffffffff16815260200182815260200192505050600060405180830381600087803b158015611d7c57600080fd5b505af1158015611d90573d6000803e3d6000fd5b50505050611da6565b8080600101915050611a2f565b5050565b6060600160009054906101000a900473ffffffffffffffffffffffffffffffffffffffff1673ffffffffffffffffffffffffffffffffffffffff166346fb5b9c6040518163ffffffff167c0100000000000000000000000000000000000000000000000000000000028152600401602060405180830381600087803b158015611e3257600080fd5b505af1158015611e46573d6000803e3d6000fd5b505050506040513d6020811015611e5c57600080fd5b8101908080519060200190929190505050600160009054906101000a900473ffffffffffffffffffffffffffffffffffffffff1673ffffffffffffffffffffffffffffffffffffffff166344276733326040518263ffffffff167c0100000000000000000000000000000000000000000000000000000000028152600401808273ffffffffffffffffffffffffffffffffffffffff1673ffffffffffffffffffffffffffffffffffffffff168152602001915050602060405180830381600087803b158015611f2a57600080fd5b505af1158015611f3e573d6000803e3d6000fd5b505050506040513d6020811015611f5457600080fd5b8101908080519060200190929190505050141515612000576040517f08c379a00000000000000000000000000000000000000000000000000000000081526004018080602001828103825260248152602001807f4f6e6c7920676f7665726e6d656e74206f6666696369616c732063616e20616381526020017f636573730000000000000000000000000000000000000000000000000000000081525060400191505060405180910390fd5b600580548060200260200160405190810160405280929190818152602001828054801561208257602002820191906000526020600020905b8160009054906101000a900473ffffffffffffffffffffffffffffffffffffffff1673ffffffffffffffffffffffffffffffffffffffff1681526020019060010190808311612038575b5050505050905090565b828054600181600116156101000203166002900490600052602060002090601f016020900481019282601f106120cd57805160ff19168380011785556120fb565b828001600101855582156120fb579182015b828111156120fa5782518255916020019190600101906120df565b5b5090506121089190612138565b5090565b815481835581811115612133578183600052602060002091820191016121329190612138565b5b505050565b61215a91905b8082111561215657600081600090555060010161213e565b5090565b905600a165627a7a723058204e61f82a79cffd3914d16a904f3d3111707806e06472b7c2d34ca761b9d328f70029",
  "source": "// SPDX-License-Identifier: GPL-3.0\r\npragma solidity ^0.4.22;\r\nimport \"./Roles.sol\";\r\n//import \"github.com/provable-things/ethereum-api/provableAPI_0.4.25.sol\";\r\n\r\ncontract FarmerContract is Roles/*, usingProvable*/ {\r\n    Roles public rc;\r\n    string public recommendedCrops;\r\n    event newProvableQuery(string description);\r\n    event LogConstructorInitiated(string nextStep);\r\n    \r\n    constructor(address _address) public {\r\n        rc = Roles(_address);\r\n        emit LogConstructorInitiated(\"Constructor was initiated. Call 'update()' to send the Provable Query.\");\r\n    }\r\n    \r\n    struct Farmer {\r\n        string name;\r\n        string stateOfResidence;\r\n        string gender;\r\n        uint256 landOwned;\r\n        int256 latitude;\r\n        int256 longitude;\r\n        bool eligible;\r\n    }\r\n\r\n    mapping(address => Farmer) public farmers;\r\n    address[] public farmerAccounts;\r\n    address[] public unverifiedFarmerAccounts;\r\n    \r\n    modifier onlyGovernmentOfficial() {\r\n        require(rc.getRole(tx.origin) == rc.governmentID(), \"Only government officials can access\");\r\n        _;\r\n    }\r\n    \r\n    modifier onlyFarmer() {\r\n        require(rc.getRole(tx.origin) == rc.farmerRoleID());\r\n        _;\r\n    }\r\n\r\n    function addFarmer(\r\n        string memory _name,\r\n        string memory _stateOfResidence,\r\n        string memory _gender,\r\n        uint256 _landOwned,\r\n        int256 _latitude,\r\n        int256 _longitude\r\n    ) public {\r\n        Farmer storage farmer = farmers[tx.origin];\r\n        farmer.name = _name;\r\n        farmer.stateOfResidence = _stateOfResidence;\r\n        farmer.gender = _gender;\r\n        farmer.landOwned = _landOwned;\r\n        farmer.latitude = _latitude;\r\n        farmer.longitude = _longitude;\r\n        farmer.eligible = false;\r\n\r\n        farmerAccounts.push(tx.origin);\r\n        unverifiedFarmerAccounts.push(tx.origin);\r\n    }\r\n\r\n    function getFarmers() public view returns (address[] memory) {\r\n        return farmerAccounts;\r\n    }\r\n\r\n    function getFarmer(address _address)\r\n        public\r\n        view\r\n        returns (\r\n            string memory _name,\r\n            string memory _stateOfResidence,\r\n            string memory _gender,\r\n            uint256 _landOwned,\r\n            int256 _latitude,\r\n            int256 _longitude,\r\n            bool _eligible\r\n        )\r\n    {\r\n        return (\r\n            farmers[_address].name,\r\n            farmers[_address].stateOfResidence,\r\n            farmers[_address].gender,\r\n            farmers[_address].landOwned,\r\n            farmers[_address].latitude,\r\n            farmers[_address].longitude,\r\n            farmers[_address].eligible\r\n        );\r\n    }\r\n\r\n    function getLocation(address _address) external view returns(int256, int256) {\r\n        return (farmers[_address].latitude, farmers[_address].longitude);\r\n    }\r\n\r\n    function countFarmers() public view returns (uint256) {\r\n        return farmerAccounts.length;\r\n    }\r\n    \r\n    function setEligible(address _address) public onlyGovernmentOfficial {\r\n        for (uint256 i = 0 ; i < unverifiedFarmerAccounts.length ; i++) {\r\n            if (unverifiedFarmerAccounts[i] == _address) {\r\n                unverifiedFarmerAccounts[i] = unverifiedFarmerAccounts[unverifiedFarmerAccounts.length-1];\r\n                delete unverifiedFarmerAccounts[unverifiedFarmerAccounts.length-1];\r\n                unverifiedFarmerAccounts.length--;\r\n                farmers[_address].eligible = true;\r\n                rc.addRole(_address, rc.farmerRoleID());\r\n                break;\r\n            }\r\n        }\r\n    }\r\n    \r\n    function getUnverifiedFarmers() public onlyGovernmentOfficial view returns (address[] memory) {\r\n        return unverifiedFarmerAccounts;\r\n    }\r\n    \r\n    /*function __callback(bytes32 myid, string result, bytes proof) public {\r\n        if (msg.sender != provable_cbAddress()) revert();\r\n        recommendedCrops = result;\r\n    }\r\n    \r\n    // Only call this function\r\n    function getCropRecommendation() public onlyFarmer {\r\n        emit newProvableQuery(\"Provable query was sent, standing by for the answer..\");\r\n        provable_query(\"URL\", \"json(http://358c-35-189-177-200.ngrok.io/recommend?temperature=25.0&humidity=97.0&ph=6.9&rainfall=200.0).result\");\r\n    }*/\r\n}\r\n",
  "sourcePath": "D:\\7thSemester\\CS491\\smart_agriculture_react\\contracts\\FarmerContract.sol",
  "compiler": {
    "name": "solc",
    "version": "0.4.26+commit.4563c3fc.Emscripten.clang"
  },
  "schemaVersion": "3.4.3",
  "updatedAt": "2021-12-09T07:05:57.080Z",
  "networkType": "ethereum",
  "devdoc": {
    "methods": {}
  },
  "userdoc": {
    "methods": {}
  }
}