{
  "contractName": "FarmerContract",
  "abi": [
    {
      "constant": true,
      "inputs": [],
      "name": "consumerRoleID",
      "outputs": [
        {
          "name": "",
          "type": "uint256"
        }
      ],
      "payable": false,
      "stateMutability": "view",
      "type": "function"
    },
    {
      "constant": true,
      "inputs": [],
      "name": "distributorRoleID",
      "outputs": [
        {
          "name": "",
          "type": "uint256"
        }
      ],
      "payable": false,
      "stateMutability": "view",
      "type": "function"
    },
    {
      "constant": true,
      "inputs": [],
      "name": "rc",
      "outputs": [
        {
          "name": "",
          "type": "address"
        }
      ],
      "payable": false,
      "stateMutability": "view",
      "type": "function"
    },
    {
      "constant": true,
      "inputs": [
        {
          "name": "",
          "type": "address"
        }
      ],
      "name": "farmers",
      "outputs": [
        {
          "name": "name",
          "type": "string"
        },
        {
          "name": "stateOfResidence",
          "type": "string"
        },
        {
          "name": "gender",
          "type": "string"
        },
        {
          "name": "landOwned",
          "type": "uint256"
        },
        {
          "name": "latitude",
          "type": "int256"
        },
        {
          "name": "longitude",
          "type": "int256"
        },
        {
          "name": "eligible",
          "type": "bool"
        }
      ],
      "payable": false,
      "stateMutability": "view",
      "type": "function"
    },
    {
      "constant": true,
      "inputs": [
        {
          "name": "_address",
          "type": "address"
        }
      ],
      "name": "getRole",
      "outputs": [
        {
          "name": "",
          "type": "uint256"
        }
      ],
      "payable": false,
      "stateMutability": "view",
      "type": "function"
    },
    {
      "constant": true,
      "inputs": [],
      "name": "governmentID",
      "outputs": [
        {
          "name": "",
          "type": "uint256"
        }
      ],
      "payable": false,
      "stateMutability": "view",
      "type": "function"
    },
    {
      "constant": false,
      "inputs": [
        {
          "name": "_address",
          "type": "address"
        }
      ],
      "name": "deleteRole",
      "outputs": [],
      "payable": false,
      "stateMutability": "nonpayable",
      "type": "function"
    },
    {
      "constant": true,
      "inputs": [
        {
          "name": "",
          "type": "uint256"
        }
      ],
      "name": "farmerAccounts",
      "outputs": [
        {
          "name": "",
          "type": "address"
        }
      ],
      "payable": false,
      "stateMutability": "view",
      "type": "function"
    },
    {
      "constant": false,
      "inputs": [
        {
          "name": "_address",
          "type": "address"
        },
        {
          "name": "_RoleID",
          "type": "uint256"
        }
      ],
      "name": "addRole",
      "outputs": [],
      "payable": false,
      "stateMutability": "nonpayable",
      "type": "function"
    },
    {
      "constant": true,
      "inputs": [
        {
          "name": "",
          "type": "uint256"
        }
      ],
      "name": "unverifiedFarmerAccounts",
      "outputs": [
        {
          "name": "",
          "type": "address"
        }
      ],
      "payable": false,
      "stateMutability": "view",
      "type": "function"
    },
    {
      "constant": true,
      "inputs": [],
      "name": "farmerRoleID",
      "outputs": [
        {
          "name": "",
          "type": "uint256"
        }
      ],
      "payable": false,
      "stateMutability": "view",
      "type": "function"
    },
    {
      "constant": true,
      "inputs": [],
      "name": "coldStorageRoleID",
      "outputs": [
        {
          "name": "",
          "type": "uint256"
        }
      ],
      "payable": false,
      "stateMutability": "view",
      "type": "function"
    },
    {
      "constant": true,
      "inputs": [],
      "name": "recommendedCrops",
      "outputs": [
        {
          "name": "",
          "type": "string"
        }
      ],
      "payable": false,
      "stateMutability": "view",
      "type": "function"
    },
    {
      "constant": true,
      "inputs": [
        {
          "name": "",
          "type": "address"
        }
      ],
      "name": "role",
      "outputs": [
        {
          "name": "roleID",
          "type": "uint256"
        },
        {
          "name": "roleSet",
          "type": "bool"
        }
      ],
      "payable": false,
      "stateMutability": "view",
      "type": "function"
    },
    {
      "constant": true,
      "inputs": [],
      "name": "retailerRoleID",
      "outputs": [
        {
          "name": "",
          "type": "uint256"
        }
      ],
      "payable": false,
      "stateMutability": "view",
      "type": "function"
    },
    {
      "inputs": [
        {
          "name": "_address",
          "type": "address"
        }
      ],
      "payable": false,
      "stateMutability": "nonpayable",
      "type": "constructor"
    },
    {
      "anonymous": false,
      "inputs": [
        {
          "indexed": false,
          "name": "description",
          "type": "string"
        }
      ],
      "name": "newProvableQuery",
      "type": "event"
    },
    {
      "anonymous": false,
      "inputs": [
        {
          "indexed": false,
          "name": "nextStep",
          "type": "string"
        }
      ],
      "name": "LogConstructorInitiated",
      "type": "event"
    },
    {
      "constant": false,
      "inputs": [
        {
          "name": "_name",
          "type": "string"
        },
        {
          "name": "_stateOfResidence",
          "type": "string"
        },
        {
          "name": "_gender",
          "type": "string"
        },
        {
          "name": "_landOwned",
          "type": "uint256"
        },
        {
          "name": "_latitude",
          "type": "int256"
        },
        {
          "name": "_longitude",
          "type": "int256"
        }
      ],
      "name": "addFarmer",
      "outputs": [],
      "payable": false,
      "stateMutability": "nonpayable",
      "type": "function"
    },
    {
      "constant": true,
      "inputs": [],
      "name": "getFarmers",
      "outputs": [
        {
          "name": "",
          "type": "address[]"
        }
      ],
      "payable": false,
      "stateMutability": "view",
      "type": "function"
    },
    {
      "constant": true,
      "inputs": [
        {
          "name": "_address",
          "type": "address"
        }
      ],
      "name": "getFarmer",
      "outputs": [
        {
          "name": "_name",
          "type": "string"
        },
        {
          "name": "_stateOfResidence",
          "type": "string"
        },
        {
          "name": "_gender",
          "type": "string"
        },
        {
          "name": "_landOwned",
          "type": "uint256"
        },
        {
          "name": "_latitude",
          "type": "int256"
        },
        {
          "name": "_longitude",
          "type": "int256"
        },
        {
          "name": "_eligible",
          "type": "bool"
        }
      ],
      "payable": false,
      "stateMutability": "view",
      "type": "function"
    },
    {
      "constant": true,
      "inputs": [
        {
          "name": "_address",
          "type": "address"
        }
      ],
      "name": "getLocation",
      "outputs": [
        {
          "name": "",
          "type": "int256"
        },
        {
          "name": "",
          "type": "int256"
        }
      ],
      "payable": false,
      "stateMutability": "view",
      "type": "function"
    },
    {
      "constant": true,
      "inputs": [],
      "name": "countFarmers",
      "outputs": [
        {
          "name": "",
          "type": "uint256"
        }
      ],
      "payable": false,
      "stateMutability": "view",
      "type": "function"
    },
    {
      "constant": false,
      "inputs": [
        {
          "name": "_address",
          "type": "address"
        }
      ],
      "name": "setEligible",
      "outputs": [],
      "payable": false,
      "stateMutability": "nonpayable",
      "type": "function"
    },
    {
      "constant": true,
      "inputs": [],
      "name": "getUnverifiedFarmers",
      "outputs": [
        {
          "name": "",
          "type": "address[]"
        }
      ],
      "payable": false,
      "stateMutability": "view",
      "type": "function"
    },
    {
      "constant": true,
      "inputs": [],
      "name": "getNumUnverifiedFarmers",
      "outputs": [
        {
          "name": "",
          "type": "uint256"
        }
      ],
      "payable": false,
      "stateMutability": "view",
      "type": "function"
    },
    {
      "constant": true,
      "inputs": [
        {
          "name": "pos",
          "type": "uint256"
        }
      ],
      "name": "getUnverifiedFarmer",
      "outputs": [
        {
          "name": "",
          "type": "address"
        }
      ],
      "payable": false,
      "stateMutability": "view",
      "type": "function"
    }
  ],
  "bytecode": "0x608060405234801561001057600080fd5b506040516020806128678339810180604052810190808051906020019092919050505080600160006101000a81548173ffffffffffffffffffffffffffffffffffffffff021916908373ffffffffffffffffffffffffffffffffffffffff1602179055507f11a3fca63f87bd67d7f9f72b744acc8be2193705e7a734ac3a773d35d259e87b6040518080602001828103825260468152602001807f436f6e7374727563746f722077617320696e697469617465642e2043616c6c2081526020017f2775706461746528292720746f2073656e64207468652050726f7661626c652081526020017f51756572792e000000000000000000000000000000000000000000000000000081525060600191505060405180910390a15061272f806101386000396000f30060806040526004361061013e576000357c0100000000000000000000000000000000000000000000000000000000900463ffffffff16806303553a2f14610143578063121da33c1461016e57806312f773321461019957806324260a98146101f0578063401b21681461021b57806344276733146103cf57806346fb5b9c146104265780634c2d80721461045157806354b025c5146104be578063789f8d40146105015780637a71b4d51461056d5780637fde1c8a146105da5780639f943c7e14610627578063b67ac87314610694578063bf4fd369146106bf578063c6906ec3146106ea578063d1213c531461077a578063d590f8c91461088d578063d9e0dc59146108ef578063e7609c161461094d578063ece3387214610b01578063f7b8d48414610b2c578063f904cf0414610b57578063ff2d304514610b9a575b600080fd5b34801561014f57600080fd5b50610158610c06565b6040518082815260200191505060405180910390f35b34801561017a57600080fd5b50610183610c0b565b6040518082815260200191505060405180910390f35b3480156101a557600080fd5b506101ae610c10565b604051808273ffffffffffffffffffffffffffffffffffffffff1673ffffffffffffffffffffffffffffffffffffffff16815260200191505060405180910390f35b3480156101fc57600080fd5b50610205610c36565b6040518082815260200191505060405180910390f35b34801561022757600080fd5b5061025c600480360381019080803573ffffffffffffffffffffffffffffffffffffffff169060200190929190505050610e97565b604051808060200180602001806020018881526020018781526020018681526020018515151515815260200184810384528b818151815260200191508051906020019080838360005b838110156102c05780820151818401526020810190506102a5565b50505050905090810190601f1680156102ed5780820380516001836020036101000a031916815260200191505b5084810383528a818151815260200191508051906020019080838360005b8381101561032657808201518184015260208101905061030b565b50505050905090810190601f1680156103535780820380516001836020036101000a031916815260200191505b50848103825289818151815260200191508051906020019080838360005b8381101561038c578082015181840152602081019050610371565b50505050905090810190601f1680156103b95780820380516001836020036101000a031916815260200191505b509a505050505050505050505060405180910390f35b3480156103db57600080fd5b50610410600480360381019080803573ffffffffffffffffffffffffffffffffffffffff1690602001909291905050506110ae565b6040518082815260200191505060405180910390f35b34801561043257600080fd5b5061043b61115e565b6040518082815260200191505060405180910390f35b34801561045d57600080fd5b5061047c60048036038101908080359060200190929190505050611163565b604051808273ffffffffffffffffffffffffffffffffffffffff1673ffffffffffffffffffffffffffffffffffffffff16815260200191505060405180910390f35b3480156104ca57600080fd5b506104ff600480360381019080803573ffffffffffffffffffffffffffffffffffffffff1690602001909291905050506113fa565b005b34801561050d57600080fd5b5061051661149e565b6040518080602001828103825283818151815260200191508051906020019060200280838360005b8381101561055957808201518184015260208101905061053e565b505050509050019250505060405180910390f35b34801561057957600080fd5b506105986004803603810190808035906020019092919050505061152c565b604051808273ffffffffffffffffffffffffffffffffffffffff1673ffffffffffffffffffffffffffffffffffffffff16815260200191505060405180910390f35b3480156105e657600080fd5b50610625600480360381019080803573ffffffffffffffffffffffffffffffffffffffff1690602001909291908035906020019092919050505061156a565b005b34801561063357600080fd5b506106526004803603810190808035906020019092919050505061164d565b604051808273ffffffffffffffffffffffffffffffffffffffff1673ffffffffffffffffffffffffffffffffffffffff16815260200191505060405180910390f35b3480156106a057600080fd5b506106a961168b565b6040518082815260200191505060405180910390f35b3480156106cb57600080fd5b506106d4611690565b6040518082815260200191505060405180910390f35b3480156106f657600080fd5b506106ff611695565b6040518080602001828103825283818151815260200191508051906020019080838360005b8381101561073f578082015181840152602081019050610724565b50505050905090810190601f16801561076c5780820380516001836020036101000a031916815260200191505b509250505060405180910390f35b34801561078657600080fd5b5061088b600480360381019080803590602001908201803590602001908080601f0160208091040260200160405190810160405280939291908181526020018383808284378201915050505050509192919290803590602001908201803590602001908080601f0160208091040260200160405190810160405280939291908181526020018383808284378201915050505050509192919290803590602001908201803590602001908080601f0160208091040260200160405190810160405280939291908181526020018383808284378201915050505050509192919290803590602001909291908035906020019092919080359060200190929190505050611733565b005b34801561089957600080fd5b506108ce600480360381019080803573ffffffffffffffffffffffffffffffffffffffff169060200190929190505050611868565b60405180838152602001821515151581526020019250505060405180910390f35b3480156108fb57600080fd5b50610930600480360381019080803573ffffffffffffffffffffffffffffffffffffffff169060200190929190505050611899565b604051808381526020018281526020019250505060405180910390f35b34801561095957600080fd5b5061098e600480360381019080803573ffffffffffffffffffffffffffffffffffffffff16906020019092919050505061192b565b604051808060200180602001806020018881526020018781526020018681526020018515151515815260200184810384528b818151815260200191508051906020019080838360005b838110156109f25780820151818401526020810190506109d7565b50505050905090810190601f168015610a1f5780820380516001836020036101000a031916815260200191505b5084810383528a818151815260200191508051906020019080838360005b83811015610a58578082015181840152602081019050610a3d565b50505050905090810190601f168015610a855780820380516001836020036101000a031916815260200191505b50848103825289818151815260200191508051906020019080838360005b83811015610abe578082015181840152602081019050610aa3565b50505050905090810190601f168015610aeb5780820380516001836020036101000a031916815260200191505b509a505050505050505050505060405180910390f35b348015610b0d57600080fd5b50610b16611d02565b6040518082815260200191505060405180910390f35b348015610b3857600080fd5b50610b41611d0f565b6040518082815260200191505060405180910390f35b348015610b6357600080fd5b50610b98600480360381019080803573ffffffffffffffffffffffffffffffffffffffff169060200190929190505050611d14565b005b348015610ba657600080fd5b50610baf612350565b6040518080602001828103825283818151815260200191508051906020019060200280838360005b83811015610bf2578082015181840152602081019050610bd7565b505050509050019250505060405180910390f35b600481565b600281565b600160009054906101000a900473ffffffffffffffffffffffffffffffffffffffff1681565b6000600160009054906101000a900473ffffffffffffffffffffffffffffffffffffffff1673ffffffffffffffffffffffffffffffffffffffff166346fb5b9c6040518163ffffffff167c0100000000000000000000000000000000000000000000000000000000028152600401602060405180830381600087803b158015610cbe57600080fd5b505af1158015610cd2573d6000803e3d6000fd5b505050506040513d6020811015610ce857600080fd5b8101908080519060200190929190505050600160009054906101000a900473ffffffffffffffffffffffffffffffffffffffff1673ffffffffffffffffffffffffffffffffffffffff166344276733326040518263ffffffff167c0100000000000000000000000000000000000000000000000000000000028152600401808273ffffffffffffffffffffffffffffffffffffffff1673ffffffffffffffffffffffffffffffffffffffff168152602001915050602060405180830381600087803b158015610db657600080fd5b505af1158015610dca573d6000803e3d6000fd5b505050506040513d6020811015610de057600080fd5b8101908080519060200190929190505050141515610e8c576040517f08c379a00000000000000000000000000000000000000000000000000000000081526004018080602001828103825260248152602001807f4f6e6c7920676f7665726e6d656e74206f6666696369616c732063616e20616381526020017f636573730000000000000000000000000000000000000000000000000000000081525060400191505060405180910390fd5b600580549050905090565b6003602052806000526040600020600091509050806000018054600181600116156101000203166002900480601f016020809104026020016040519081016040528092919081815260200182805460018160011615610100020316600290048015610f435780601f10610f1857610100808354040283529160200191610f43565b820191906000526020600020905b815481529060010190602001808311610f2657829003601f168201915b505050505090806001018054600181600116156101000203166002900480601f016020809104026020016040519081016040528092919081815260200182805460018160011615610100020316600290048015610fe15780601f10610fb657610100808354040283529160200191610fe1565b820191906000526020600020905b815481529060010190602001808311610fc457829003601f168201915b505050505090806002018054600181600116156101000203166002900480601f01602080910402602001604051908101604052809291908181526020018280546001816001161561010002031660029004801561107f5780601f106110545761010080835404028352916020019161107f565b820191906000526020600020905b81548152906001019060200180831161106257829003601f168201915b5050505050908060030154908060040154908060050154908060060160009054906101000a900460ff16905087565b6000600115156000808473ffffffffffffffffffffffffffffffffffffffff1673ffffffffffffffffffffffffffffffffffffffff16815260200190815260200160002060010160009054906101000a900460ff1615151415611154576000808373ffffffffffffffffffffffffffffffffffffffff1673ffffffffffffffffffffffffffffffffffffffff168152602001908152602001600020600001549050611159565b600090505b919050565b600681565b6000600160009054906101000a900473ffffffffffffffffffffffffffffffffffffffff1673ffffffffffffffffffffffffffffffffffffffff166346fb5b9c6040518163ffffffff167c0100000000000000000000000000000000000000000000000000000000028152600401602060405180830381600087803b1580156111eb57600080fd5b505af11580156111ff573d6000803e3d6000fd5b505050506040513d602081101561121557600080fd5b8101908080519060200190929190505050600160009054906101000a900473ffffffffffffffffffffffffffffffffffffffff1673ffffffffffffffffffffffffffffffffffffffff166344276733326040518263ffffffff167c0100000000000000000000000000000000000000000000000000000000028152600401808273ffffffffffffffffffffffffffffffffffffffff1673ffffffffffffffffffffffffffffffffffffffff168152602001915050602060405180830381600087803b1580156112e357600080fd5b505af11580156112f7573d6000803e3d6000fd5b505050506040513d602081101561130d57600080fd5b81019080805190602001909291905050501415156113b9576040517f08c379a00000000000000000000000000000000000000000000000000000000081526004018080602001828103825260248152602001807f4f6e6c7920676f7665726e6d656e74206f6666696369616c732063616e20616381526020017f636573730000000000000000000000000000000000000000000000000000000081525060400191505060405180910390fd5b6005828154811015156113c857fe5b9060005260206000200160009054906101000a900473ffffffffffffffffffffffffffffffffffffffff169050919050565b60008060008373ffffffffffffffffffffffffffffffffffffffff1673ffffffffffffffffffffffffffffffffffffffff16815260200190815260200160002060010160006101000a81548160ff02191690831515021790555060008060008373ffffffffffffffffffffffffffffffffffffffff1673ffffffffffffffffffffffffffffffffffffffff1681526020019081526020016000206000018190555050565b6060600480548060200260200160405190810160405280929190818152602001828054801561152257602002820191906000526020600020905b8160009054906101000a900473ffffffffffffffffffffffffffffffffffffffff1673ffffffffffffffffffffffffffffffffffffffff16815260200190600101908083116114d8575b5050505050905090565b60048181548110151561153b57fe5b906000526020600020016000915054906101000a900473ffffffffffffffffffffffffffffffffffffffff1681565b600015156000808473ffffffffffffffffffffffffffffffffffffffff1673ffffffffffffffffffffffffffffffffffffffff16815260200190815260200160002060010160009054906101000a900460ff1615151415611649576040805190810160405280828152602001600115158152506000808473ffffffffffffffffffffffffffffffffffffffff1673ffffffffffffffffffffffffffffffffffffffff1681526020019081526020016000206000820151816000015560208201518160010160006101000a81548160ff0219169083151502179055509050505b5050565b60058181548110151561165c57fe5b906000526020600020016000915054906101000a900473ffffffffffffffffffffffffffffffffffffffff1681565b600181565b600581565b60028054600181600116156101000203166002900480601f01602080910402602001604051908101604052809291908181526020018280546001816001161561010002031660029004801561172b5780601f106117005761010080835404028352916020019161172b565b820191906000526020600020905b81548152906001019060200180831161170e57829003601f168201915b505050505081565b6000600360003273ffffffffffffffffffffffffffffffffffffffff1673ffffffffffffffffffffffffffffffffffffffff16815260200190815260200160002090508681600001908051906020019061178e929190612632565b50858160010190805190602001906117a7929190612632565b50848160020190805190602001906117c0929190612632565b5083816003018190555082816004018190555081816005018190555060008160060160006101000a81548160ff02191690831515021790555060053290806001815401808255809150509060018203906000526020600020016000909192909190916101000a81548173ffffffffffffffffffffffffffffffffffffffff021916908373ffffffffffffffffffffffffffffffffffffffff1602179055505050505050505050565b60006020528060005260406000206000915090508060000154908060010160009054906101000a900460ff16905082565b600080600360008473ffffffffffffffffffffffffffffffffffffffff1673ffffffffffffffffffffffffffffffffffffffff16815260200190815260200160002060040154600360008573ffffffffffffffffffffffffffffffffffffffff1673ffffffffffffffffffffffffffffffffffffffff1681526020019081526020016000206005015491509150915091565b6060806060600080600080600360008973ffffffffffffffffffffffffffffffffffffffff1673ffffffffffffffffffffffffffffffffffffffff168152602001908152602001600020600001600360008a73ffffffffffffffffffffffffffffffffffffffff1673ffffffffffffffffffffffffffffffffffffffff168152602001908152602001600020600101600360008b73ffffffffffffffffffffffffffffffffffffffff1673ffffffffffffffffffffffffffffffffffffffff168152602001908152602001600020600201600360008c73ffffffffffffffffffffffffffffffffffffffff1673ffffffffffffffffffffffffffffffffffffffff16815260200190815260200160002060030154600360008d73ffffffffffffffffffffffffffffffffffffffff1673ffffffffffffffffffffffffffffffffffffffff16815260200190815260200160002060040154600360008e73ffffffffffffffffffffffffffffffffffffffff1673ffffffffffffffffffffffffffffffffffffffff16815260200190815260200160002060050154600360008f73ffffffffffffffffffffffffffffffffffffffff1673ffffffffffffffffffffffffffffffffffffffff16815260200190815260200160002060060160009054906101000a900460ff16868054600181600116156101000203166002900480601f016020809104026020016040519081016040528092919081815260200182805460018160011615610100020316600290048015611baa5780601f10611b7f57610100808354040283529160200191611baa565b820191906000526020600020905b815481529060010190602001808311611b8d57829003601f168201915b50505050509650858054600181600116156101000203166002900480601f016020809104026020016040519081016040528092919081815260200182805460018160011615610100020316600290048015611c465780601f10611c1b57610100808354040283529160200191611c46565b820191906000526020600020905b815481529060010190602001808311611c2957829003601f168201915b50505050509550848054600181600116156101000203166002900480601f016020809104026020016040519081016040528092919081815260200182805460018160011615610100020316600290048015611ce25780601f10611cb757610100808354040283529160200191611ce2565b820191906000526020600020905b815481529060010190602001808311611cc557829003601f168201915b505050505094509650965096509650965096509650919395979092949650565b6000600480549050905090565b600381565b6000600160009054906101000a900473ffffffffffffffffffffffffffffffffffffffff1673ffffffffffffffffffffffffffffffffffffffff166346fb5b9c6040518163ffffffff167c0100000000000000000000000000000000000000000000000000000000028152600401602060405180830381600087803b158015611d9c57600080fd5b505af1158015611db0573d6000803e3d6000fd5b505050506040513d6020811015611dc657600080fd5b8101908080519060200190929190505050600160009054906101000a900473ffffffffffffffffffffffffffffffffffffffff1673ffffffffffffffffffffffffffffffffffffffff166344276733326040518263ffffffff167c0100000000000000000000000000000000000000000000000000000000028152600401808273ffffffffffffffffffffffffffffffffffffffff1673ffffffffffffffffffffffffffffffffffffffff168152602001915050602060405180830381600087803b158015611e9457600080fd5b505af1158015611ea8573d6000803e3d6000fd5b505050506040513d6020811015611ebe57600080fd5b8101908080519060200190929190505050141515611f6a576040517f08c379a00000000000000000000000000000000000000000000000000000000081526004018080602001828103825260248152602001807f4f6e6c7920676f7665726e6d656e74206f6666696369616c732063616e20616381526020017f636573730000000000000000000000000000000000000000000000000000000081525060400191505060405180910390fd5b600090505b60058054905081101561234c578173ffffffffffffffffffffffffffffffffffffffff16600582815481101515611fa257fe5b9060005260206000200160009054906101000a900473ffffffffffffffffffffffffffffffffffffffff1673ffffffffffffffffffffffffffffffffffffffff16141561233f57600560016005805490500381548110151561200057fe5b9060005260206000200160009054906101000a900473ffffffffffffffffffffffffffffffffffffffff1660058281548110151561203a57fe5b9060005260206000200160006101000a81548173ffffffffffffffffffffffffffffffffffffffff021916908373ffffffffffffffffffffffffffffffffffffffff160217905550600560016005805490500381548110151561209957fe5b9060005260206000200160006101000a81549073ffffffffffffffffffffffffffffffffffffffff021916905560058054809190600190036120db91906126b2565b506001600360008473ffffffffffffffffffffffffffffffffffffffff1673ffffffffffffffffffffffffffffffffffffffff16815260200190815260200160002060060160006101000a81548160ff02191690831515021790555060048290806001815401808255809150509060018203906000526020600020016000909192909190916101000a81548173ffffffffffffffffffffffffffffffffffffffff021916908373ffffffffffffffffffffffffffffffffffffffff16021790555050600160009054906101000a900473ffffffffffffffffffffffffffffffffffffffff1673ffffffffffffffffffffffffffffffffffffffff16637fde1c8a83600160009054906101000a900473ffffffffffffffffffffffffffffffffffffffff1673ffffffffffffffffffffffffffffffffffffffff1663b67ac8736040518163ffffffff167c0100000000000000000000000000000000000000000000000000000000028152600401602060405180830381600087803b15801561226257600080fd5b505af1158015612276573d6000803e3d6000fd5b505050506040513d602081101561228c57600080fd5b81019080805190602001909291905050506040518363ffffffff167c0100000000000000000000000000000000000000000000000000000000028152600401808373ffffffffffffffffffffffffffffffffffffffff1673ffffffffffffffffffffffffffffffffffffffff16815260200182815260200192505050600060405180830381600087803b15801561232257600080fd5b505af1158015612336573d6000803e3d6000fd5b5050505061234c565b8080600101915050611f6f565b5050565b6060600160009054906101000a900473ffffffffffffffffffffffffffffffffffffffff1673ffffffffffffffffffffffffffffffffffffffff166346fb5b9c6040518163ffffffff167c0100000000000000000000000000000000000000000000000000000000028152600401602060405180830381600087803b1580156123d857600080fd5b505af11580156123ec573d6000803e3d6000fd5b505050506040513d602081101561240257600080fd5b8101908080519060200190929190505050600160009054906101000a900473ffffffffffffffffffffffffffffffffffffffff1673ffffffffffffffffffffffffffffffffffffffff166344276733326040518263ffffffff167c0100000000000000000000000000000000000000000000000000000000028152600401808273ffffffffffffffffffffffffffffffffffffffff1673ffffffffffffffffffffffffffffffffffffffff168152602001915050602060405180830381600087803b1580156124d057600080fd5b505af11580156124e4573d6000803e3d6000fd5b505050506040513d60208110156124fa57600080fd5b81019080805190602001909291905050501415156125a6576040517f08c379a00000000000000000000000000000000000000000000000000000000081526004018080602001828103825260248152602001807f4f6e6c7920676f7665726e6d656e74206f6666696369616c732063616e20616381526020017f636573730000000000000000000000000000000000000000000000000000000081525060400191505060405180910390fd5b600580548060200260200160405190810160405280929190818152602001828054801561262857602002820191906000526020600020905b8160009054906101000a900473ffffffffffffffffffffffffffffffffffffffff1673ffffffffffffffffffffffffffffffffffffffff16815260200190600101908083116125de575b5050505050905090565b828054600181600116156101000203166002900490600052602060002090601f016020900481019282601f1061267357805160ff19168380011785556126a1565b828001600101855582156126a1579182015b828111156126a0578251825591602001919060010190612685565b5b5090506126ae91906126de565b5090565b8154818355818111156126d9578183600052602060002091820191016126d891906126de565b5b505050565b61270091905b808211156126fc5760008160009055506001016126e4565b5090565b905600a165627a7a723058209182cc878489ca6eb605f68df6d0276228b6675275ffe43addac01be45310d030029",
  "source": "// SPDX-License-Identifier: GPL-3.0\r\npragma solidity ^0.4.22;\r\nimport \"./Roles.sol\";\r\n//import \"github.com/provable-things/ethereum-api/provableAPI_0.4.25.sol\";\r\n\r\ncontract FarmerContract is Roles/*, usingProvable*/ {\r\n    Roles public rc;\r\n    string public recommendedCrops;\r\n    event newProvableQuery(string description);\r\n    event LogConstructorInitiated(string nextStep);\r\n    \r\n    constructor(address _address) public {\r\n        rc = Roles(_address);\r\n        emit LogConstructorInitiated(\"Constructor was initiated. Call 'update()' to send the Provable Query.\");\r\n    }\r\n    \r\n    struct Farmer {\r\n        string name;\r\n        string stateOfResidence;\r\n        string gender;\r\n        uint256 landOwned;\r\n        int256 latitude;\r\n        int256 longitude;\r\n        bool eligible;\r\n    }\r\n\r\n    mapping(address => Farmer) public farmers;\r\n    address[] public farmerAccounts;\r\n    address[] public unverifiedFarmerAccounts;\r\n    \r\n    modifier onlyGovernmentOfficial() {\r\n        require(rc.getRole(tx.origin) == rc.governmentID(), \"Only government officials can access\");\r\n        _;\r\n    }\r\n    \r\n    modifier onlyFarmer() {\r\n        require(rc.getRole(tx.origin) == rc.farmerRoleID());\r\n        _;\r\n    }\r\n\r\n    function addFarmer(\r\n        string memory _name,\r\n        string memory _stateOfResidence,\r\n        string memory _gender,\r\n        uint256 _landOwned,\r\n        int256 _latitude,\r\n        int256 _longitude\r\n    ) public {\r\n        Farmer storage farmer = farmers[tx.origin];\r\n        farmer.name = _name;\r\n        farmer.stateOfResidence = _stateOfResidence;\r\n        farmer.gender = _gender;\r\n        farmer.landOwned = _landOwned;\r\n        farmer.latitude = _latitude;\r\n        farmer.longitude = _longitude;\r\n        farmer.eligible = false;\r\n\r\n        unverifiedFarmerAccounts.push(tx.origin);\r\n    }\r\n\r\n    function getFarmers() public view returns (address[] memory) {\r\n        return farmerAccounts;\r\n    }\r\n\r\n    function getFarmer(address _address)\r\n        public\r\n        view\r\n        returns (\r\n            string memory _name,\r\n            string memory _stateOfResidence,\r\n            string memory _gender,\r\n            uint256 _landOwned,\r\n            int256 _latitude,\r\n            int256 _longitude,\r\n            bool _eligible\r\n        )\r\n    {\r\n        return (\r\n            farmers[_address].name,\r\n            farmers[_address].stateOfResidence,\r\n            farmers[_address].gender,\r\n            farmers[_address].landOwned,\r\n            farmers[_address].latitude,\r\n            farmers[_address].longitude,\r\n            farmers[_address].eligible\r\n        );\r\n    }\r\n\r\n    function getLocation(address _address) external view returns(int256, int256) {\r\n        return (farmers[_address].latitude, farmers[_address].longitude);\r\n    }\r\n\r\n    function countFarmers() public view returns (uint256) {\r\n        return farmerAccounts.length;\r\n    }\r\n    \r\n    function setEligible(address _address) public onlyGovernmentOfficial {\r\n        for (uint256 i = 0 ; i < unverifiedFarmerAccounts.length ; i++) {\r\n            if (unverifiedFarmerAccounts[i] == _address) {\r\n                unverifiedFarmerAccounts[i] = unverifiedFarmerAccounts[unverifiedFarmerAccounts.length-1];\r\n                delete unverifiedFarmerAccounts[unverifiedFarmerAccounts.length-1];\r\n                unverifiedFarmerAccounts.length--;\r\n                farmers[_address].eligible = true;\r\n                farmerAccounts.push(_address);\r\n                rc.addRole(_address, rc.farmerRoleID());\r\n                break;\r\n            }\r\n        }\r\n    }\r\n    \r\n    function getUnverifiedFarmers() public onlyGovernmentOfficial view returns (address[] memory) {\r\n        return unverifiedFarmerAccounts;\r\n    }\r\n    \r\n    function getNumUnverifiedFarmers() public onlyGovernmentOfficial view returns (uint256) {\r\n        return unverifiedFarmerAccounts.length;\r\n    }\r\n\r\n    function getUnverifiedFarmer(uint256 pos) public onlyGovernmentOfficial view returns (address) {\r\n        return unverifiedFarmerAccounts[pos];\r\n    }\r\n\r\n    /*function __callback(bytes32 myid, string result, bytes proof) public {\r\n        if (msg.sender != provable_cbAddress()) revert();\r\n        recommendedCrops = result;\r\n    }\r\n    \r\n    // Only call this function\r\n    function getCropRecommendation() public onlyFarmer {\r\n        emit newProvableQuery(\"Provable query was sent, standing by for the answer..\");\r\n        provable_query(\"URL\", \"json(http://358c-35-189-177-200.ngrok.io/recommend?temperature=25.0&humidity=97.0&ph=6.9&rainfall=200.0).result\");\r\n    }*/\r\n}\r\n",
  "sourcePath": "D:\\7thSemester\\CS491\\smart_agriculture_react\\contracts\\FarmerContract.sol",
  "compiler": {
    "name": "solc",
    "version": "0.4.26+commit.4563c3fc.Emscripten.clang"
  },
  "schemaVersion": "3.4.3",
  "updatedAt": "2021-12-11T16:06:07.885Z",
  "networkType": "ethereum",
  "devdoc": {
    "methods": {}
  },
  "userdoc": {
    "methods": {}
  }
}