{
  "contractName": "FarmerContract",
  "abi": [
    {
      "constant": true,
      "inputs": [],
      "name": "consumerRoleID",
      "outputs": [
        {
          "name": "",
          "type": "uint256"
        }
      ],
      "payable": false,
      "stateMutability": "view",
      "type": "function"
    },
    {
      "constant": true,
      "inputs": [],
      "name": "distributorRoleID",
      "outputs": [
        {
          "name": "",
          "type": "uint256"
        }
      ],
      "payable": false,
      "stateMutability": "view",
      "type": "function"
    },
    {
      "constant": true,
      "inputs": [],
      "name": "rc",
      "outputs": [
        {
          "name": "",
          "type": "address"
        }
      ],
      "payable": false,
      "stateMutability": "view",
      "type": "function"
    },
    {
      "constant": true,
      "inputs": [
        {
          "name": "",
          "type": "address"
        }
      ],
      "name": "farmers",
      "outputs": [
        {
          "name": "name",
          "type": "string"
        },
        {
          "name": "stateOfResidence",
          "type": "string"
        },
        {
          "name": "gender",
          "type": "string"
        },
        {
          "name": "landOwned",
          "type": "uint256"
        },
        {
          "name": "latitude",
          "type": "int256"
        },
        {
          "name": "longitude",
          "type": "int256"
        },
        {
          "name": "hash",
          "type": "string"
        },
        {
          "name": "isEligible",
          "type": "bool"
        }
      ],
      "payable": false,
      "stateMutability": "view",
      "type": "function"
    },
    {
      "constant": true,
      "inputs": [
        {
          "name": "_address",
          "type": "address"
        }
      ],
      "name": "getRole",
      "outputs": [
        {
          "name": "",
          "type": "uint256"
        }
      ],
      "payable": false,
      "stateMutability": "view",
      "type": "function"
    },
    {
      "constant": true,
      "inputs": [],
      "name": "governmentID",
      "outputs": [
        {
          "name": "",
          "type": "uint256"
        }
      ],
      "payable": false,
      "stateMutability": "view",
      "type": "function"
    },
    {
      "constant": false,
      "inputs": [
        {
          "name": "_address",
          "type": "address"
        }
      ],
      "name": "deleteRole",
      "outputs": [],
      "payable": false,
      "stateMutability": "nonpayable",
      "type": "function"
    },
    {
      "constant": true,
      "inputs": [
        {
          "name": "",
          "type": "uint256"
        }
      ],
      "name": "farmerAccounts",
      "outputs": [
        {
          "name": "",
          "type": "address"
        }
      ],
      "payable": false,
      "stateMutability": "view",
      "type": "function"
    },
    {
      "constant": false,
      "inputs": [
        {
          "name": "_address",
          "type": "address"
        },
        {
          "name": "_RoleID",
          "type": "uint256"
        }
      ],
      "name": "addRole",
      "outputs": [],
      "payable": false,
      "stateMutability": "nonpayable",
      "type": "function"
    },
    {
      "constant": true,
      "inputs": [
        {
          "name": "",
          "type": "uint256"
        }
      ],
      "name": "unverifiedFarmerAccounts",
      "outputs": [
        {
          "name": "",
          "type": "address"
        }
      ],
      "payable": false,
      "stateMutability": "view",
      "type": "function"
    },
    {
      "constant": true,
      "inputs": [],
      "name": "farmerRoleID",
      "outputs": [
        {
          "name": "",
          "type": "uint256"
        }
      ],
      "payable": false,
      "stateMutability": "view",
      "type": "function"
    },
    {
      "constant": true,
      "inputs": [],
      "name": "coldStorageRoleID",
      "outputs": [
        {
          "name": "",
          "type": "uint256"
        }
      ],
      "payable": false,
      "stateMutability": "view",
      "type": "function"
    },
    {
      "constant": true,
      "inputs": [],
      "name": "recommendedCrops",
      "outputs": [
        {
          "name": "",
          "type": "string"
        }
      ],
      "payable": false,
      "stateMutability": "view",
      "type": "function"
    },
    {
      "constant": true,
      "inputs": [
        {
          "name": "",
          "type": "address"
        }
      ],
      "name": "role",
      "outputs": [
        {
          "name": "roleID",
          "type": "uint256"
        },
        {
          "name": "roleSet",
          "type": "bool"
        }
      ],
      "payable": false,
      "stateMutability": "view",
      "type": "function"
    },
    {
      "constant": true,
      "inputs": [],
      "name": "retailerRoleID",
      "outputs": [
        {
          "name": "",
          "type": "uint256"
        }
      ],
      "payable": false,
      "stateMutability": "view",
      "type": "function"
    },
    {
      "inputs": [
        {
          "name": "_address",
          "type": "address"
        }
      ],
      "payable": false,
      "stateMutability": "nonpayable",
      "type": "constructor"
    },
    {
      "anonymous": false,
      "inputs": [
        {
          "indexed": false,
          "name": "description",
          "type": "string"
        }
      ],
      "name": "newProvableQuery",
      "type": "event"
    },
    {
      "anonymous": false,
      "inputs": [
        {
          "indexed": false,
          "name": "nextStep",
          "type": "string"
        }
      ],
      "name": "LogConstructorInitiated",
      "type": "event"
    },
    {
      "constant": false,
      "inputs": [
        {
          "name": "_name",
          "type": "string"
        },
        {
          "name": "_stateOfResidence",
          "type": "string"
        },
        {
          "name": "_gender",
          "type": "string"
        },
        {
          "name": "_landOwned",
          "type": "uint256"
        },
        {
          "name": "_latitude",
          "type": "int256"
        },
        {
          "name": "_longitude",
          "type": "int256"
        },
        {
          "name": "_hash",
          "type": "string"
        }
      ],
      "name": "addFarmer",
      "outputs": [],
      "payable": false,
      "stateMutability": "nonpayable",
      "type": "function"
    },
    {
      "constant": true,
      "inputs": [],
      "name": "getFarmers",
      "outputs": [
        {
          "name": "",
          "type": "address[]"
        }
      ],
      "payable": false,
      "stateMutability": "view",
      "type": "function"
    },
    {
      "constant": true,
      "inputs": [
        {
          "name": "_address",
          "type": "address"
        }
      ],
      "name": "getFarmer",
      "outputs": [
        {
          "name": "_name",
          "type": "string"
        },
        {
          "name": "_stateOfResidence",
          "type": "string"
        },
        {
          "name": "_gender",
          "type": "string"
        },
        {
          "name": "_landOwned",
          "type": "uint256"
        },
        {
          "name": "_latitude",
          "type": "int256"
        },
        {
          "name": "_longitude",
          "type": "int256"
        },
        {
          "name": "_isEligible",
          "type": "bool"
        }
      ],
      "payable": false,
      "stateMutability": "view",
      "type": "function"
    },
    {
      "constant": true,
      "inputs": [
        {
          "name": "_address",
          "type": "address"
        }
      ],
      "name": "getLocation",
      "outputs": [
        {
          "name": "",
          "type": "int256"
        },
        {
          "name": "",
          "type": "int256"
        }
      ],
      "payable": false,
      "stateMutability": "view",
      "type": "function"
    },
    {
      "constant": true,
      "inputs": [],
      "name": "countFarmers",
      "outputs": [
        {
          "name": "",
          "type": "uint256"
        }
      ],
      "payable": false,
      "stateMutability": "view",
      "type": "function"
    },
    {
      "constant": true,
      "inputs": [
        {
          "name": "pos",
          "type": "uint256"
        }
      ],
      "name": "getNumFarmer",
      "outputs": [
        {
          "name": "",
          "type": "address"
        }
      ],
      "payable": false,
      "stateMutability": "view",
      "type": "function"
    },
    {
      "constant": true,
      "inputs": [
        {
          "name": "_address",
          "type": "address"
        }
      ],
      "name": "getHash",
      "outputs": [
        {
          "name": "",
          "type": "string"
        }
      ],
      "payable": false,
      "stateMutability": "view",
      "type": "function"
    },
    {
      "constant": false,
      "inputs": [
        {
          "name": "_address",
          "type": "address"
        }
      ],
      "name": "setEligible",
      "outputs": [],
      "payable": false,
      "stateMutability": "nonpayable",
      "type": "function"
    },
    {
      "constant": true,
      "inputs": [],
      "name": "getUnverifiedFarmers",
      "outputs": [
        {
          "name": "",
          "type": "address[]"
        }
      ],
      "payable": false,
      "stateMutability": "view",
      "type": "function"
    },
    {
      "constant": true,
      "inputs": [],
      "name": "getNumUnverifiedFarmers",
      "outputs": [
        {
          "name": "",
          "type": "uint256"
        }
      ],
      "payable": false,
      "stateMutability": "view",
      "type": "function"
    },
    {
      "constant": true,
      "inputs": [
        {
          "name": "pos",
          "type": "uint256"
        }
      ],
      "name": "getUnverifiedFarmer",
      "outputs": [
        {
          "name": "",
          "type": "address"
        }
      ],
      "payable": false,
      "stateMutability": "view",
      "type": "function"
    }
  ],
  "bytecode": "0x608060405234801561001057600080fd5b5060405160208061314d8339810180604052810190808051906020019092919050505080600160006101000a81548173ffffffffffffffffffffffffffffffffffffffff021916908373ffffffffffffffffffffffffffffffffffffffff1602179055507f11a3fca63f87bd67d7f9f72b744acc8be2193705e7a734ac3a773d35d259e87b6040518080602001828103825260468152602001807f436f6e7374727563746f722077617320696e697469617465642e2043616c6c2081526020017f2775706461746528292720746f2073656e64207468652050726f7661626c652081526020017f51756572792e000000000000000000000000000000000000000000000000000081525060600191505060405180910390a150613015806101386000396000f300608060405260043610610154576000357c0100000000000000000000000000000000000000000000000000000000900463ffffffff16806303553a2f14610159578063121da33c1461018457806312f77332146101af5780631da0b8fc1461020657806324260a98146102c25780633f4b82b6146102ed578063401b216814610446578063442767331461066657806346fb5b9c146106bd5780634c2d8072146106e857806354b025c514610755578063789f8d40146107985780637a71b4d5146108045780637fde1c8a146108715780639f943c7e146108be578063b67ac8731461092b578063bf4fd36914610956578063c6906ec314610981578063d590f8c914610a11578063d9e0dc5914610a73578063e7609c1614610ad1578063ece3387214610c85578063f7b8d48414610cb0578063f904cf0414610cdb578063fb884c5214610d1e578063ff2d304514610d8b575b600080fd5b34801561016557600080fd5b5061016e610df7565b6040518082815260200191505060405180910390f35b34801561019057600080fd5b50610199610dfc565b6040518082815260200191505060405180910390f35b3480156101bb57600080fd5b506101c4610e01565b604051808273ffffffffffffffffffffffffffffffffffffffff1673ffffffffffffffffffffffffffffffffffffffff16815260200191505060405180910390f35b34801561021257600080fd5b50610247600480360381019080803573ffffffffffffffffffffffffffffffffffffffff169060200190929190505050610e27565b6040518080602001828103825283818151815260200191508051906020019080838360005b8381101561028757808201518184015260208101905061026c565b50505050905090810190601f1680156102b45780820380516001836020036101000a031916815260200191505b509250505060405180910390f35b3480156102ce57600080fd5b506102d761115f565b6040518082815260200191505060405180910390f35b3480156102f957600080fd5b50610444600480360381019080803590602001908201803590602001908080601f0160208091040260200160405190810160405280939291908181526020018383808284378201915050505050509192919290803590602001908201803590602001908080601f0160208091040260200160405190810160405280939291908181526020018383808284378201915050505050509192919290803590602001908201803590602001908080601f0160208091040260200160405190810160405280939291908181526020018383808284378201915050505050509192919290803590602001909291908035906020019092919080359060200190929190803590602001908201803590602001908080601f01602080910402602001604051908101604052809392919081815260200183838082843782019150505050505091929192905050506113c0565b005b34801561045257600080fd5b50610487600480360381019080803573ffffffffffffffffffffffffffffffffffffffff16906020019092919050505061150f565b60405180806020018060200180602001898152602001888152602001878152602001806020018615151515815260200185810385528d818151815260200191508051906020019080838360005b838110156104ef5780820151818401526020810190506104d4565b50505050905090810190601f16801561051c5780820380516001836020036101000a031916815260200191505b5085810384528c818151815260200191508051906020019080838360005b8381101561055557808201518184015260208101905061053a565b50505050905090810190601f1680156105825780820380516001836020036101000a031916815260200191505b5085810383528b818151815260200191508051906020019080838360005b838110156105bb5780820151818401526020810190506105a0565b50505050905090810190601f1680156105e85780820380516001836020036101000a031916815260200191505b50858103825287818151815260200191508051906020019080838360005b83811015610621578082015181840152602081019050610606565b50505050905090810190601f16801561064e5780820380516001836020036101000a031916815260200191505b509c5050505050505050505050505060405180910390f35b34801561067257600080fd5b506106a7600480360381019080803573ffffffffffffffffffffffffffffffffffffffff1690602001909291905050506117c4565b6040518082815260200191505060405180910390f35b3480156106c957600080fd5b506106d2611874565b6040518082815260200191505060405180910390f35b3480156106f457600080fd5b5061071360048036038101908080359060200190929190505050611879565b604051808273ffffffffffffffffffffffffffffffffffffffff1673ffffffffffffffffffffffffffffffffffffffff16815260200191505060405180910390f35b34801561076157600080fd5b50610796600480360381019080803573ffffffffffffffffffffffffffffffffffffffff169060200190929190505050611b10565b005b3480156107a457600080fd5b506107ad611bb4565b6040518080602001828103825283818151815260200191508051906020019060200280838360005b838110156107f05780820151818401526020810190506107d5565b505050509050019250505060405180910390f35b34801561081057600080fd5b5061082f60048036038101908080359060200190929190505050611c42565b604051808273ffffffffffffffffffffffffffffffffffffffff1673ffffffffffffffffffffffffffffffffffffffff16815260200191505060405180910390f35b34801561087d57600080fd5b506108bc600480360381019080803573ffffffffffffffffffffffffffffffffffffffff16906020019092919080359060200190929190505050611c80565b005b3480156108ca57600080fd5b506108e960048036038101908080359060200190929190505050611d63565b604051808273ffffffffffffffffffffffffffffffffffffffff1673ffffffffffffffffffffffffffffffffffffffff16815260200191505060405180910390f35b34801561093757600080fd5b50610940611da1565b6040518082815260200191505060405180910390f35b34801561096257600080fd5b5061096b611da6565b6040518082815260200191505060405180910390f35b34801561098d57600080fd5b50610996611dab565b6040518080602001828103825283818151815260200191508051906020019080838360005b838110156109d65780820151818401526020810190506109bb565b50505050905090810190601f168015610a035780820380516001836020036101000a031916815260200191505b509250505060405180910390f35b348015610a1d57600080fd5b50610a52600480360381019080803573ffffffffffffffffffffffffffffffffffffffff169060200190929190505050611e49565b60405180838152602001821515151581526020019250505060405180910390f35b348015610a7f57600080fd5b50610ab4600480360381019080803573ffffffffffffffffffffffffffffffffffffffff169060200190929190505050611e7a565b604051808381526020018281526020019250505060405180910390f35b348015610add57600080fd5b50610b12600480360381019080803573ffffffffffffffffffffffffffffffffffffffff169060200190929190505050611f0c565b604051808060200180602001806020018881526020018781526020018681526020018515151515815260200184810384528b818151815260200191508051906020019080838360005b83811015610b76578082015181840152602081019050610b5b565b50505050905090810190601f168015610ba35780820380516001836020036101000a031916815260200191505b5084810383528a818151815260200191508051906020019080838360005b83811015610bdc578082015181840152602081019050610bc1565b50505050905090810190601f168015610c095780820380516001836020036101000a031916815260200191505b50848103825289818151815260200191508051906020019080838360005b83811015610c42578082015181840152602081019050610c27565b50505050905090810190601f168015610c6f5780820380516001836020036101000a031916815260200191505b509a505050505050505050505060405180910390f35b348015610c9157600080fd5b50610c9a6125a5565b6040518082815260200191505060405180910390f35b348015610cbc57600080fd5b50610cc56125b2565b6040518082815260200191505060405180910390f35b348015610ce757600080fd5b50610d1c600480360381019080803573ffffffffffffffffffffffffffffffffffffffff1690602001909291905050506125b7565b005b348015610d2a57600080fd5b50610d4960048036038101908080359060200190929190505050612bf3565b604051808273ffffffffffffffffffffffffffffffffffffffff1673ffffffffffffffffffffffffffffffffffffffff16815260200191505060405180910390f35b348015610d9757600080fd5b50610da0612c36565b6040518080602001828103825283818151815260200191508051906020019060200280838360005b83811015610de3578082015181840152602081019050610dc8565b505050509050019250505060405180910390f35b600481565b600281565b600160009054906101000a900473ffffffffffffffffffffffffffffffffffffffff1681565b6060600160009054906101000a900473ffffffffffffffffffffffffffffffffffffffff1673ffffffffffffffffffffffffffffffffffffffff166346fb5b9c6040518163ffffffff167c0100000000000000000000000000000000000000000000000000000000028152600401602060405180830381600087803b158015610eaf57600080fd5b505af1158015610ec3573d6000803e3d6000fd5b505050506040513d6020811015610ed957600080fd5b8101908080519060200190929190505050600160009054906101000a900473ffffffffffffffffffffffffffffffffffffffff1673ffffffffffffffffffffffffffffffffffffffff166344276733326040518263ffffffff167c0100000000000000000000000000000000000000000000000000000000028152600401808273ffffffffffffffffffffffffffffffffffffffff1673ffffffffffffffffffffffffffffffffffffffff168152602001915050602060405180830381600087803b158015610fa757600080fd5b505af1158015610fbb573d6000803e3d6000fd5b505050506040513d6020811015610fd157600080fd5b810190808051906020019092919050505014151561107d576040517f08c379a00000000000000000000000000000000000000000000000000000000081526004018080602001828103825260248152602001807f4f6e6c7920676f7665726e6d656e74206f6666696369616c732063616e20616381526020017f636573730000000000000000000000000000000000000000000000000000000081525060400191505060405180910390fd5b600360008373ffffffffffffffffffffffffffffffffffffffff1673ffffffffffffffffffffffffffffffffffffffff1681526020019081526020016000206006018054600181600116156101000203166002900480601f0160208091040260200160405190810160405280929190818152602001828054600181600116156101000203166002900480156111535780601f1061112857610100808354040283529160200191611153565b820191906000526020600020905b81548152906001019060200180831161113657829003601f168201915b50505050509050919050565b6000600160009054906101000a900473ffffffffffffffffffffffffffffffffffffffff1673ffffffffffffffffffffffffffffffffffffffff166346fb5b9c6040518163ffffffff167c0100000000000000000000000000000000000000000000000000000000028152600401602060405180830381600087803b1580156111e757600080fd5b505af11580156111fb573d6000803e3d6000fd5b505050506040513d602081101561121157600080fd5b8101908080519060200190929190505050600160009054906101000a900473ffffffffffffffffffffffffffffffffffffffff1673ffffffffffffffffffffffffffffffffffffffff166344276733326040518263ffffffff167c0100000000000000000000000000000000000000000000000000000000028152600401808273ffffffffffffffffffffffffffffffffffffffff1673ffffffffffffffffffffffffffffffffffffffff168152602001915050602060405180830381600087803b1580156112df57600080fd5b505af11580156112f3573d6000803e3d6000fd5b505050506040513d602081101561130957600080fd5b81019080805190602001909291905050501415156113b5576040517f08c379a00000000000000000000000000000000000000000000000000000000081526004018080602001828103825260248152602001807f4f6e6c7920676f7665726e6d656e74206f6666696369616c732063616e20616381526020017f636573730000000000000000000000000000000000000000000000000000000081525060400191505060405180910390fd5b600580549050905090565b6000600360003273ffffffffffffffffffffffffffffffffffffffff1673ffffffffffffffffffffffffffffffffffffffff16815260200190815260200160002090508781600001908051906020019061141b929190612f18565b5086816001019080519060200190611434929190612f18565b508581600201908051906020019061144d929190612f18565b5084816003018190555083816004018190555082816005018190555081816006019080519060200190611481929190612f18565b5060008160070160006101000a81548160ff02191690831515021790555060053290806001815401808255809150509060018203906000526020600020016000909192909190916101000a81548173ffffffffffffffffffffffffffffffffffffffff021916908373ffffffffffffffffffffffffffffffffffffffff160217905550505050505050505050565b6003602052806000526040600020600091509050806000018054600181600116156101000203166002900480601f0160208091040260200160405190810160405280929190818152602001828054600181600116156101000203166002900480156115bb5780601f10611590576101008083540402835291602001916115bb565b820191906000526020600020905b81548152906001019060200180831161159e57829003601f168201915b505050505090806001018054600181600116156101000203166002900480601f0160208091040260200160405190810160405280929190818152602001828054600181600116156101000203166002900480156116595780601f1061162e57610100808354040283529160200191611659565b820191906000526020600020905b81548152906001019060200180831161163c57829003601f168201915b505050505090806002018054600181600116156101000203166002900480601f0160208091040260200160405190810160405280929190818152602001828054600181600116156101000203166002900480156116f75780601f106116cc576101008083540402835291602001916116f7565b820191906000526020600020905b8154815290600101906020018083116116da57829003601f168201915b505050505090806003015490806004015490806005015490806006018054600181600116156101000203166002900480601f0160208091040260200160405190810160405280929190818152602001828054600181600116156101000203166002900480156117a75780601f1061177c576101008083540402835291602001916117a7565b820191906000526020600020905b81548152906001019060200180831161178a57829003601f168201915b5050505050908060070160009054906101000a900460ff16905088565b6000600115156000808473ffffffffffffffffffffffffffffffffffffffff1673ffffffffffffffffffffffffffffffffffffffff16815260200190815260200160002060010160009054906101000a900460ff161515141561186a576000808373ffffffffffffffffffffffffffffffffffffffff1673ffffffffffffffffffffffffffffffffffffffff16815260200190815260200160002060000154905061186f565b600090505b919050565b600681565b6000600160009054906101000a900473ffffffffffffffffffffffffffffffffffffffff1673ffffffffffffffffffffffffffffffffffffffff166346fb5b9c6040518163ffffffff167c0100000000000000000000000000000000000000000000000000000000028152600401602060405180830381600087803b15801561190157600080fd5b505af1158015611915573d6000803e3d6000fd5b505050506040513d602081101561192b57600080fd5b8101908080519060200190929190505050600160009054906101000a900473ffffffffffffffffffffffffffffffffffffffff1673ffffffffffffffffffffffffffffffffffffffff166344276733326040518263ffffffff167c0100000000000000000000000000000000000000000000000000000000028152600401808273ffffffffffffffffffffffffffffffffffffffff1673ffffffffffffffffffffffffffffffffffffffff168152602001915050602060405180830381600087803b1580156119f957600080fd5b505af1158015611a0d573d6000803e3d6000fd5b505050506040513d6020811015611a2357600080fd5b8101908080519060200190929190505050141515611acf576040517f08c379a00000000000000000000000000000000000000000000000000000000081526004018080602001828103825260248152602001807f4f6e6c7920676f7665726e6d656e74206f6666696369616c732063616e20616381526020017f636573730000000000000000000000000000000000000000000000000000000081525060400191505060405180910390fd5b600582815481101515611ade57fe5b9060005260206000200160009054906101000a900473ffffffffffffffffffffffffffffffffffffffff169050919050565b60008060008373ffffffffffffffffffffffffffffffffffffffff1673ffffffffffffffffffffffffffffffffffffffff16815260200190815260200160002060010160006101000a81548160ff02191690831515021790555060008060008373ffffffffffffffffffffffffffffffffffffffff1673ffffffffffffffffffffffffffffffffffffffff1681526020019081526020016000206000018190555050565b60606004805480602002602001604051908101604052809291908181526020018280548015611c3857602002820191906000526020600020905b8160009054906101000a900473ffffffffffffffffffffffffffffffffffffffff1673ffffffffffffffffffffffffffffffffffffffff1681526020019060010190808311611bee575b5050505050905090565b600481815481101515611c5157fe5b906000526020600020016000915054906101000a900473ffffffffffffffffffffffffffffffffffffffff1681565b600015156000808473ffffffffffffffffffffffffffffffffffffffff1673ffffffffffffffffffffffffffffffffffffffff16815260200190815260200160002060010160009054906101000a900460ff1615151415611d5f576040805190810160405280828152602001600115158152506000808473ffffffffffffffffffffffffffffffffffffffff1673ffffffffffffffffffffffffffffffffffffffff1681526020019081526020016000206000820151816000015560208201518160010160006101000a81548160ff0219169083151502179055509050505b5050565b600581815481101515611d7257fe5b906000526020600020016000915054906101000a900473ffffffffffffffffffffffffffffffffffffffff1681565b600181565b600581565b60028054600181600116156101000203166002900480601f016020809104026020016040519081016040528092919081815260200182805460018160011615610100020316600290048015611e415780601f10611e1657610100808354040283529160200191611e41565b820191906000526020600020905b815481529060010190602001808311611e2457829003601f168201915b505050505081565b60006020528060005260406000206000915090508060000154908060010160009054906101000a900460ff16905082565b600080600360008473ffffffffffffffffffffffffffffffffffffffff1673ffffffffffffffffffffffffffffffffffffffff16815260200190815260200160002060040154600360008573ffffffffffffffffffffffffffffffffffffffff1673ffffffffffffffffffffffffffffffffffffffff1681526020019081526020016000206005015491509150915091565b606080606060008060008060011515600360008a73ffffffffffffffffffffffffffffffffffffffff1673ffffffffffffffffffffffffffffffffffffffff16815260200190815260200160002060070160009054906101000a900460ff1615151480611fa457503273ffffffffffffffffffffffffffffffffffffffff168873ffffffffffffffffffffffffffffffffffffffff16145b806121655750600160009054906101000a900473ffffffffffffffffffffffffffffffffffffffff1673ffffffffffffffffffffffffffffffffffffffff166346fb5b9c6040518163ffffffff167c0100000000000000000000000000000000000000000000000000000000028152600401602060405180830381600087803b15801561203057600080fd5b505af1158015612044573d6000803e3d6000fd5b505050506040513d602081101561205a57600080fd5b8101908080519060200190929190505050600160009054906101000a900473ffffffffffffffffffffffffffffffffffffffff1673ffffffffffffffffffffffffffffffffffffffff166344276733326040518263ffffffff167c0100000000000000000000000000000000000000000000000000000000028152600401808273ffffffffffffffffffffffffffffffffffffffff1673ffffffffffffffffffffffffffffffffffffffff168152602001915050602060405180830381600087803b15801561212857600080fd5b505af115801561213c573d6000803e3d6000fd5b505050506040513d602081101561215257600080fd5b8101908080519060200190929190505050145b15156121d9576040517f08c379a00000000000000000000000000000000000000000000000000000000081526004018080602001828103825260128152602001807f556e617574686f7269736564206163746f72000000000000000000000000000081525060200191505060405180910390fd5b600360008973ffffffffffffffffffffffffffffffffffffffff1673ffffffffffffffffffffffffffffffffffffffff168152602001908152602001600020600001600360008a73ffffffffffffffffffffffffffffffffffffffff1673ffffffffffffffffffffffffffffffffffffffff168152602001908152602001600020600101600360008b73ffffffffffffffffffffffffffffffffffffffff1673ffffffffffffffffffffffffffffffffffffffff168152602001908152602001600020600201600360008c73ffffffffffffffffffffffffffffffffffffffff1673ffffffffffffffffffffffffffffffffffffffff16815260200190815260200160002060030154600360008d73ffffffffffffffffffffffffffffffffffffffff1673ffffffffffffffffffffffffffffffffffffffff16815260200190815260200160002060040154600360008e73ffffffffffffffffffffffffffffffffffffffff1673ffffffffffffffffffffffffffffffffffffffff16815260200190815260200160002060050154600360008f73ffffffffffffffffffffffffffffffffffffffff1673ffffffffffffffffffffffffffffffffffffffff16815260200190815260200160002060070160009054906101000a900460ff16868054600181600116156101000203166002900480601f01602080910402602001604051908101604052809291908181526020018280546001816001161561010002031660029004801561244d5780601f106124225761010080835404028352916020019161244d565b820191906000526020600020905b81548152906001019060200180831161243057829003601f168201915b50505050509650858054600181600116156101000203166002900480601f0160208091040260200160405190810160405280929190818152602001828054600181600116156101000203166002900480156124e95780601f106124be576101008083540402835291602001916124e9565b820191906000526020600020905b8154815290600101906020018083116124cc57829003601f168201915b50505050509550848054600181600116156101000203166002900480601f0160208091040260200160405190810160405280929190818152602001828054600181600116156101000203166002900480156125855780601f1061255a57610100808354040283529160200191612585565b820191906000526020600020905b81548152906001019060200180831161256857829003601f168201915b505050505094509650965096509650965096509650919395979092949650565b6000600480549050905090565b600381565b6000600160009054906101000a900473ffffffffffffffffffffffffffffffffffffffff1673ffffffffffffffffffffffffffffffffffffffff166346fb5b9c6040518163ffffffff167c0100000000000000000000000000000000000000000000000000000000028152600401602060405180830381600087803b15801561263f57600080fd5b505af1158015612653573d6000803e3d6000fd5b505050506040513d602081101561266957600080fd5b8101908080519060200190929190505050600160009054906101000a900473ffffffffffffffffffffffffffffffffffffffff1673ffffffffffffffffffffffffffffffffffffffff166344276733326040518263ffffffff167c0100000000000000000000000000000000000000000000000000000000028152600401808273ffffffffffffffffffffffffffffffffffffffff1673ffffffffffffffffffffffffffffffffffffffff168152602001915050602060405180830381600087803b15801561273757600080fd5b505af115801561274b573d6000803e3d6000fd5b505050506040513d602081101561276157600080fd5b810190808051906020019092919050505014151561280d576040517f08c379a00000000000000000000000000000000000000000000000000000000081526004018080602001828103825260248152602001807f4f6e6c7920676f7665726e6d656e74206f6666696369616c732063616e20616381526020017f636573730000000000000000000000000000000000000000000000000000000081525060400191505060405180910390fd5b600090505b600580549050811015612bef578173ffffffffffffffffffffffffffffffffffffffff1660058281548110151561284557fe5b9060005260206000200160009054906101000a900473ffffffffffffffffffffffffffffffffffffffff1673ffffffffffffffffffffffffffffffffffffffff161415612be25760056001600580549050038154811015156128a357fe5b9060005260206000200160009054906101000a900473ffffffffffffffffffffffffffffffffffffffff166005828154811015156128dd57fe5b9060005260206000200160006101000a81548173ffffffffffffffffffffffffffffffffffffffff021916908373ffffffffffffffffffffffffffffffffffffffff160217905550600560016005805490500381548110151561293c57fe5b9060005260206000200160006101000a81549073ffffffffffffffffffffffffffffffffffffffff0219169055600580548091906001900361297e9190612f98565b506001600360008473ffffffffffffffffffffffffffffffffffffffff1673ffffffffffffffffffffffffffffffffffffffff16815260200190815260200160002060070160006101000a81548160ff02191690831515021790555060048290806001815401808255809150509060018203906000526020600020016000909192909190916101000a81548173ffffffffffffffffffffffffffffffffffffffff021916908373ffffffffffffffffffffffffffffffffffffffff16021790555050600160009054906101000a900473ffffffffffffffffffffffffffffffffffffffff1673ffffffffffffffffffffffffffffffffffffffff16637fde1c8a83600160009054906101000a900473ffffffffffffffffffffffffffffffffffffffff1673ffffffffffffffffffffffffffffffffffffffff1663b67ac8736040518163ffffffff167c0100000000000000000000000000000000000000000000000000000000028152600401602060405180830381600087803b158015612b0557600080fd5b505af1158015612b19573d6000803e3d6000fd5b505050506040513d6020811015612b2f57600080fd5b81019080805190602001909291905050506040518363ffffffff167c0100000000000000000000000000000000000000000000000000000000028152600401808373ffffffffffffffffffffffffffffffffffffffff1673ffffffffffffffffffffffffffffffffffffffff16815260200182815260200192505050600060405180830381600087803b158015612bc557600080fd5b505af1158015612bd9573d6000803e3d6000fd5b50505050612bef565b8080600101915050612812565b5050565b6000600482815481101515612c0457fe5b9060005260206000200160009054906101000a900473ffffffffffffffffffffffffffffffffffffffff169050919050565b6060600160009054906101000a900473ffffffffffffffffffffffffffffffffffffffff1673ffffffffffffffffffffffffffffffffffffffff166346fb5b9c6040518163ffffffff167c0100000000000000000000000000000000000000000000000000000000028152600401602060405180830381600087803b158015612cbe57600080fd5b505af1158015612cd2573d6000803e3d6000fd5b505050506040513d6020811015612ce857600080fd5b8101908080519060200190929190505050600160009054906101000a900473ffffffffffffffffffffffffffffffffffffffff1673ffffffffffffffffffffffffffffffffffffffff166344276733326040518263ffffffff167c0100000000000000000000000000000000000000000000000000000000028152600401808273ffffffffffffffffffffffffffffffffffffffff1673ffffffffffffffffffffffffffffffffffffffff168152602001915050602060405180830381600087803b158015612db657600080fd5b505af1158015612dca573d6000803e3d6000fd5b505050506040513d6020811015612de057600080fd5b8101908080519060200190929190505050141515612e8c576040517f08c379a00000000000000000000000000000000000000000000000000000000081526004018080602001828103825260248152602001807f4f6e6c7920676f7665726e6d656e74206f6666696369616c732063616e20616381526020017f636573730000000000000000000000000000000000000000000000000000000081525060400191505060405180910390fd5b6005805480602002602001604051908101604052809291908181526020018280548015612f0e57602002820191906000526020600020905b8160009054906101000a900473ffffffffffffffffffffffffffffffffffffffff1673ffffffffffffffffffffffffffffffffffffffff1681526020019060010190808311612ec4575b5050505050905090565b828054600181600116156101000203166002900490600052602060002090601f016020900481019282601f10612f5957805160ff1916838001178555612f87565b82800160010185558215612f87579182015b82811115612f86578251825591602001919060010190612f6b565b5b509050612f949190612fc4565b5090565b815481835581811115612fbf57818360005260206000209182019101612fbe9190612fc4565b5b505050565b612fe691905b80821115612fe2576000816000905550600101612fca565b5090565b905600a165627a7a72305820b82c0d856879f1070e3726f7aee4bd91e218f95a86f1ec72720922ef3483a7fa0029",
  "source": "// SPDX-License-Identifier: GPL-3.0\r\npragma solidity ^0.4.22;\r\nimport \"./Roles.sol\";\r\n//import \"github.com/provable-things/ethereum-api/provableAPI_0.4.25.sol\";\r\n\r\ncontract FarmerContract is Roles/*, usingProvable*/ {\r\n    Roles public rc;\r\n    string public recommendedCrops;\r\n    event newProvableQuery(string description);\r\n    event LogConstructorInitiated(string nextStep);\r\n    \r\n    constructor(address _address) public {\r\n        rc = Roles(_address);\r\n        emit LogConstructorInitiated(\"Constructor was initiated. Call 'update()' to send the Provable Query.\");\r\n    }\r\n    \r\n    struct Farmer {\r\n        string name;\r\n        string stateOfResidence;\r\n        string gender;\r\n        uint256 landOwned;\r\n        int256 latitude;\r\n        int256 longitude;\r\n        string hash;\r\n        bool isEligible;\r\n    }\r\n\r\n    mapping(address => Farmer) public farmers;\r\n    address[] public farmerAccounts;\r\n    address[] public unverifiedFarmerAccounts;\r\n    \r\n    modifier onlyGovernmentOfficial() {\r\n        require(rc.getRole(tx.origin) == rc.governmentID(), \"Only government officials can access\");\r\n        _;\r\n    }\r\n    \r\n    modifier onlyFarmer() {\r\n        require(rc.getRole(tx.origin) == rc.farmerRoleID());\r\n        _;\r\n    }\r\n\r\n    function addFarmer(\r\n        string memory _name,\r\n        string memory _stateOfResidence,\r\n        string memory _gender,\r\n        uint256 _landOwned,\r\n        int256 _latitude,\r\n        int256 _longitude,\r\n        string _hash\r\n    ) public {\r\n        Farmer storage farmer = farmers[tx.origin];\r\n        farmer.name = _name;\r\n        farmer.stateOfResidence = _stateOfResidence;\r\n        farmer.gender = _gender;\r\n        farmer.landOwned = _landOwned;\r\n        farmer.latitude = _latitude;\r\n        farmer.longitude = _longitude;\r\n        farmer.hash = _hash;\r\n        farmer.isEligible = false;\r\n\r\n        unverifiedFarmerAccounts.push(tx.origin);\r\n    }\r\n\r\n    function getFarmers() public view returns (address[] memory) {\r\n        return farmerAccounts;\r\n    }\r\n\r\n    function getFarmer(address _address)\r\n        public \r\n        view\r\n        returns (\r\n            string memory _name,\r\n            string memory _stateOfResidence,\r\n            string memory _gender,\r\n            uint256 _landOwned,\r\n            int256 _latitude,\r\n            int256 _longitude,\r\n            bool _isEligible\r\n        )\r\n    {\r\n        require(farmers[_address].isEligible == true || _address == tx.origin || rc.getRole(tx.origin) == rc.governmentID(), \"Unauthorised actor\");\r\n\r\n        return (\r\n            farmers[_address].name,\r\n            farmers[_address].stateOfResidence,\r\n            farmers[_address].gender,\r\n            farmers[_address].landOwned,\r\n            farmers[_address].latitude,\r\n            farmers[_address].longitude,\r\n            farmers[_address].isEligible\r\n        );\r\n    }\r\n\r\n    function getLocation(address _address) external view returns(int256, int256) {\r\n        return (farmers[_address].latitude, farmers[_address].longitude);\r\n    }\r\n\r\n    function countFarmers() public view returns (uint256) {\r\n        return farmerAccounts.length;\r\n    }\r\n\r\n    function getNumFarmer(uint256 pos) public view returns(address) {\r\n        return farmerAccounts[pos];\r\n    }\r\n\r\n    function getHash(address _address) public view onlyGovernmentOfficial returns(string) {\r\n        return farmers[_address].hash;\r\n    }\r\n    \r\n    function setEligible(address _address) public onlyGovernmentOfficial {\r\n        for (uint256 i = 0 ; i < unverifiedFarmerAccounts.length ; i++) {\r\n            if (unverifiedFarmerAccounts[i] == _address) {\r\n                unverifiedFarmerAccounts[i] = unverifiedFarmerAccounts[unverifiedFarmerAccounts.length-1];\r\n                delete unverifiedFarmerAccounts[unverifiedFarmerAccounts.length-1];\r\n                unverifiedFarmerAccounts.length--;\r\n                farmers[_address].isEligible = true;\r\n                farmerAccounts.push(_address);\r\n                rc.addRole(_address, rc.farmerRoleID());\r\n                break;\r\n            }\r\n        }\r\n    }\r\n    \r\n    function getUnverifiedFarmers() public onlyGovernmentOfficial view returns (address[] memory) {\r\n        return unverifiedFarmerAccounts;\r\n    }\r\n    \r\n    function getNumUnverifiedFarmers() public onlyGovernmentOfficial view returns (uint256) {\r\n        return unverifiedFarmerAccounts.length;\r\n    }\r\n\r\n    function getUnverifiedFarmer(uint256 pos) public onlyGovernmentOfficial view returns (address) {\r\n        return unverifiedFarmerAccounts[pos];\r\n    }\r\n\r\n    /*function __callback(bytes32 myid, string result, bytes proof) public {\r\n        if (msg.sender != provable_cbAddress()) revert();\r\n        recommendedCrops = result;\r\n    }\r\n    \r\n    // Only call this function\r\n    function getCropRecommendation() public onlyFarmer {\r\n        emit newProvableQuery(\"Provable query was sent, standing by for the answer..\");\r\n        provable_query(\"URL\", \"json(http://358c-35-189-177-200.ngrok.io/recommend?temperature=25.0&humidity=97.0&ph=6.9&rainfall=200.0).result\");\r\n    }*/\r\n}\r\n",
  "sourcePath": "D:\\7thSemester\\CS491\\smart_agriculture_react\\contracts\\FarmerContract.sol",
  "compiler": {
    "name": "solc",
    "version": "0.4.26+commit.4563c3fc.Emscripten.clang"
  },
  "schemaVersion": "3.4.3",
  "updatedAt": "2022-01-22T14:31:45.723Z",
  "networkType": "ethereum",
  "devdoc": {
    "methods": {}
  },
  "userdoc": {
    "methods": {}
  }
}