{
  "contractName": "GovernmentContract",
  "abi": [
    {
      "constant": true,
      "inputs": [],
      "name": "rc",
      "outputs": [
        {
          "name": "",
          "type": "address"
        }
      ],
      "payable": false,
      "stateMutability": "view",
      "type": "function"
    },
    {
      "constant": true,
      "inputs": [],
      "name": "rtc",
      "outputs": [
        {
          "name": "",
          "type": "address"
        }
      ],
      "payable": false,
      "stateMutability": "view",
      "type": "function"
    },
    {
      "constant": true,
      "inputs": [
        {
          "name": "",
          "type": "uint256"
        }
      ],
      "name": "govtAccounts",
      "outputs": [
        {
          "name": "",
          "type": "address"
        }
      ],
      "payable": false,
      "stateMutability": "view",
      "type": "function"
    },
    {
      "constant": true,
      "inputs": [
        {
          "name": "",
          "type": "address"
        }
      ],
      "name": "govt",
      "outputs": [
        {
          "name": "name",
          "type": "string"
        },
        {
          "name": "govId",
          "type": "string"
        }
      ],
      "payable": false,
      "stateMutability": "view",
      "type": "function"
    },
    {
      "constant": true,
      "inputs": [],
      "name": "fc",
      "outputs": [
        {
          "name": "",
          "type": "address"
        }
      ],
      "payable": false,
      "stateMutability": "view",
      "type": "function"
    },
    {
      "constant": true,
      "inputs": [],
      "name": "csc",
      "outputs": [
        {
          "name": "",
          "type": "address"
        }
      ],
      "payable": false,
      "stateMutability": "view",
      "type": "function"
    },
    {
      "constant": true,
      "inputs": [],
      "name": "dc",
      "outputs": [
        {
          "name": "",
          "type": "address"
        }
      ],
      "payable": false,
      "stateMutability": "view",
      "type": "function"
    },
    {
      "inputs": [
        {
          "name": "_address",
          "type": "address"
        },
        {
          "name": "_fcAddress",
          "type": "address"
        },
        {
          "name": "_dcAddress",
          "type": "address"
        },
        {
          "name": "_rtcAddress",
          "type": "address"
        },
        {
          "name": "_cscAddress",
          "type": "address"
        }
      ],
      "payable": false,
      "stateMutability": "nonpayable",
      "type": "constructor"
    },
    {
      "constant": false,
      "inputs": [
        {
          "name": "_name",
          "type": "string"
        },
        {
          "name": "_govId",
          "type": "string"
        }
      ],
      "name": "addGovtOfficial",
      "outputs": [],
      "payable": false,
      "stateMutability": "nonpayable",
      "type": "function"
    },
    {
      "constant": true,
      "inputs": [
        {
          "name": "_address",
          "type": "address"
        }
      ],
      "name": "getOfficial",
      "outputs": [
        {
          "name": "_name",
          "type": "string"
        },
        {
          "name": "_govId",
          "type": "string"
        }
      ],
      "payable": false,
      "stateMutability": "view",
      "type": "function"
    },
    {
      "constant": false,
      "inputs": [
        {
          "name": "_address",
          "type": "address"
        }
      ],
      "name": "setFarmerAsEligible",
      "outputs": [],
      "payable": false,
      "stateMutability": "nonpayable",
      "type": "function"
    },
    {
      "constant": false,
      "inputs": [
        {
          "name": "_address",
          "type": "address"
        }
      ],
      "name": "setDistributorAsEligible",
      "outputs": [],
      "payable": false,
      "stateMutability": "nonpayable",
      "type": "function"
    },
    {
      "constant": false,
      "inputs": [
        {
          "name": "_address",
          "type": "address"
        }
      ],
      "name": "setRetailerAsEligible",
      "outputs": [],
      "payable": false,
      "stateMutability": "nonpayable",
      "type": "function"
    },
    {
      "constant": false,
      "inputs": [
        {
          "name": "_address",
          "type": "address"
        }
      ],
      "name": "setColdStorageAsEligible",
      "outputs": [],
      "payable": false,
      "stateMutability": "nonpayable",
      "type": "function"
    }
  ],
  "bytecode": "0x608060405234801561001057600080fd5b5060405160a08061136b8339810180604052810190808051906020019092919080519060200190929190805190602001909291908051906020019092919080519060200190929190505050846000806101000a81548173ffffffffffffffffffffffffffffffffffffffff021916908373ffffffffffffffffffffffffffffffffffffffff16021790555083600160006101000a81548173ffffffffffffffffffffffffffffffffffffffff021916908373ffffffffffffffffffffffffffffffffffffffff16021790555082600260006101000a81548173ffffffffffffffffffffffffffffffffffffffff021916908373ffffffffffffffffffffffffffffffffffffffff16021790555081600360006101000a81548173ffffffffffffffffffffffffffffffffffffffff021916908373ffffffffffffffffffffffffffffffffffffffff16021790555080600460006101000a81548173ffffffffffffffffffffffffffffffffffffffff021916908373ffffffffffffffffffffffffffffffffffffffff16021790555050505050506111b8806101b36000396000f3006080604052600436106100c5576000357c0100000000000000000000000000000000000000000000000000000000900463ffffffff16806312f77332146100ca5780632c99ae621461012157806332023d24146101785780634b5cbb59146101e55780635ccba0c2146102285780636f6c8fa01461035057806378a7b86e146103ff57806381f4be5e146104425780638a0151ec14610499578063a024151c146104dc578063d55c3ca31461051f578063d8a531a614610576578063fcf8b6ef146105cd575b600080fd5b3480156100d657600080fd5b506100df6106f5565b604051808273ffffffffffffffffffffffffffffffffffffffff1673ffffffffffffffffffffffffffffffffffffffff16815260200191505060405180910390f35b34801561012d57600080fd5b5061013661071a565b604051808273ffffffffffffffffffffffffffffffffffffffff1673ffffffffffffffffffffffffffffffffffffffff16815260200191505060405180910390f35b34801561018457600080fd5b506101a360048036038101908080359060200190929190505050610740565b604051808273ffffffffffffffffffffffffffffffffffffffff1673ffffffffffffffffffffffffffffffffffffffff16815260200191505060405180910390f35b3480156101f157600080fd5b50610226600480360381019080803573ffffffffffffffffffffffffffffffffffffffff16906020019092919050505061077e565b005b34801561023457600080fd5b50610269600480360381019080803573ffffffffffffffffffffffffffffffffffffffff169060200190929190505050610856565b604051808060200180602001838103835285818151815260200191508051906020019080838360005b838110156102ad578082015181840152602081019050610292565b50505050905090810190601f1680156102da5780820380516001836020036101000a031916815260200191505b50838103825284818151815260200191508051906020019080838360005b838110156103135780820151818401526020810190506102f8565b50505050905090810190601f1680156103405780820380516001836020036101000a031916815260200191505b5094505050505060405180910390f35b34801561035c57600080fd5b506103fd600480360381019080803590602001908201803590602001908080601f0160208091040260200160405190810160405280939291908181526020018383808284378201915050505050509192919290803590602001908201803590602001908080601f01602080910402602001604051908101604052809392919081815260200183838082843782019150505050505091929192905050506109aa565b005b34801561040b57600080fd5b50610440600480360381019080803573ffffffffffffffffffffffffffffffffffffffff169060200190929190505050610c25565b005b34801561044e57600080fd5b50610457610cfd565b604051808273ffffffffffffffffffffffffffffffffffffffff1673ffffffffffffffffffffffffffffffffffffffff16815260200191505060405180910390f35b3480156104a557600080fd5b506104da600480360381019080803573ffffffffffffffffffffffffffffffffffffffff169060200190929190505050610d23565b005b3480156104e857600080fd5b5061051d600480360381019080803573ffffffffffffffffffffffffffffffffffffffff169060200190929190505050610dfb565b005b34801561052b57600080fd5b50610534610ed3565b604051808273ffffffffffffffffffffffffffffffffffffffff1673ffffffffffffffffffffffffffffffffffffffff16815260200191505060405180910390f35b34801561058257600080fd5b5061058b610ef9565b604051808273ffffffffffffffffffffffffffffffffffffffff1673ffffffffffffffffffffffffffffffffffffffff16815260200191505060405180910390f35b3480156105d957600080fd5b5061060e600480360381019080803573ffffffffffffffffffffffffffffffffffffffff169060200190929190505050610f1f565b604051808060200180602001838103835285818151815260200191508051906020019080838360005b83811015610652578082015181840152602081019050610637565b50505050905090810190601f16801561067f5780820380516001836020036101000a031916815260200191505b50838103825284818151815260200191508051906020019080838360005b838110156106b857808201518184015260208101905061069d565b50505050905090810190601f1680156106e55780820380516001836020036101000a031916815260200191505b5094505050505060405180910390f35b6000809054906101000a900473ffffffffffffffffffffffffffffffffffffffff1681565b600360009054906101000a900473ffffffffffffffffffffffffffffffffffffffff1681565b60068181548110151561074f57fe5b906000526020600020016000915054906101000a900473ffffffffffffffffffffffffffffffffffffffff1681565b600460009054906101000a900473ffffffffffffffffffffffffffffffffffffffff1673ffffffffffffffffffffffffffffffffffffffff1663f904cf04826040518263ffffffff167c0100000000000000000000000000000000000000000000000000000000028152600401808273ffffffffffffffffffffffffffffffffffffffff1673ffffffffffffffffffffffffffffffffffffffff168152602001915050600060405180830381600087803b15801561083b57600080fd5b505af115801561084f573d6000803e3d6000fd5b5050505050565b6005602052806000526040600020600091509050806000018054600181600116156101000203166002900480601f0160208091040260200160405190810160405280929190818152602001828054600181600116156101000203166002900480156109025780601f106108d757610100808354040283529160200191610902565b820191906000526020600020905b8154815290600101906020018083116108e557829003601f168201915b505050505090806001018054600181600116156101000203166002900480601f0160208091040260200160405190810160405280929190818152602001828054600181600116156101000203166002900480156109a05780601f10610975576101008083540402835291602001916109a0565b820191906000526020600020905b81548152906001019060200180831161098357829003601f168201915b5050505050905082565b6000600560003273ffffffffffffffffffffffffffffffffffffffff1673ffffffffffffffffffffffffffffffffffffffff168152602001908152602001600020905082816000019080519060200190610a059291906110e7565b5081816001019080519060200190610a1e9291906110e7565b5060063290806001815401808255809150509060018203906000526020600020016000909192909190916101000a81548173ffffffffffffffffffffffffffffffffffffffff021916908373ffffffffffffffffffffffffffffffffffffffff160217905550506000809054906101000a900473ffffffffffffffffffffffffffffffffffffffff1673ffffffffffffffffffffffffffffffffffffffff16637fde1c8a326000809054906101000a900473ffffffffffffffffffffffffffffffffffffffff1673ffffffffffffffffffffffffffffffffffffffff166346fb5b9c6040518163ffffffff167c0100000000000000000000000000000000000000000000000000000000028152600401602060405180830381600087803b158015610b4857600080fd5b505af1158015610b5c573d6000803e3d6000fd5b505050506040513d6020811015610b7257600080fd5b81019080805190602001909291905050506040518363ffffffff167c0100000000000000000000000000000000000000000000000000000000028152600401808373ffffffffffffffffffffffffffffffffffffffff1673ffffffffffffffffffffffffffffffffffffffff16815260200182815260200192505050600060405180830381600087803b158015610c0857600080fd5b505af1158015610c1c573d6000803e3d6000fd5b50505050505050565b600360009054906101000a900473ffffffffffffffffffffffffffffffffffffffff1673ffffffffffffffffffffffffffffffffffffffff1663f904cf04826040518263ffffffff167c0100000000000000000000000000000000000000000000000000000000028152600401808273ffffffffffffffffffffffffffffffffffffffff1673ffffffffffffffffffffffffffffffffffffffff168152602001915050600060405180830381600087803b158015610ce257600080fd5b505af1158015610cf6573d6000803e3d6000fd5b5050505050565b600160009054906101000a900473ffffffffffffffffffffffffffffffffffffffff1681565b600260009054906101000a900473ffffffffffffffffffffffffffffffffffffffff1673ffffffffffffffffffffffffffffffffffffffff1663f904cf04826040518263ffffffff167c0100000000000000000000000000000000000000000000000000000000028152600401808273ffffffffffffffffffffffffffffffffffffffff1673ffffffffffffffffffffffffffffffffffffffff168152602001915050600060405180830381600087803b158015610de057600080fd5b505af1158015610df4573d6000803e3d6000fd5b5050505050565b600160009054906101000a900473ffffffffffffffffffffffffffffffffffffffff1673ffffffffffffffffffffffffffffffffffffffff1663f904cf04826040518263ffffffff167c0100000000000000000000000000000000000000000000000000000000028152600401808273ffffffffffffffffffffffffffffffffffffffff1673ffffffffffffffffffffffffffffffffffffffff168152602001915050600060405180830381600087803b158015610eb857600080fd5b505af1158015610ecc573d6000803e3d6000fd5b5050505050565b600460009054906101000a900473ffffffffffffffffffffffffffffffffffffffff1681565b600260009054906101000a900473ffffffffffffffffffffffffffffffffffffffff1681565b606080600560008473ffffffffffffffffffffffffffffffffffffffff1673ffffffffffffffffffffffffffffffffffffffff168152602001908152602001600020600001600560008573ffffffffffffffffffffffffffffffffffffffff1673ffffffffffffffffffffffffffffffffffffffff168152602001908152602001600020600101818054600181600116156101000203166002900480601f01602080910402602001604051908101604052809291908181526020018280546001816001161561010002031660029004801561103b5780601f106110105761010080835404028352916020019161103b565b820191906000526020600020905b81548152906001019060200180831161101e57829003601f168201915b50505050509150808054600181600116156101000203166002900480601f0160208091040260200160405190810160405280929190818152602001828054600181600116156101000203166002900480156110d75780601f106110ac576101008083540402835291602001916110d7565b820191906000526020600020905b8154815290600101906020018083116110ba57829003601f168201915b5050505050905091509150915091565b828054600181600116156101000203166002900490600052602060002090601f016020900481019282601f1061112857805160ff1916838001178555611156565b82800160010185558215611156579182015b8281111561115557825182559160200191906001019061113a565b5b5090506111639190611167565b5090565b61118991905b8082111561118557600081600090555060010161116d565b5090565b905600a165627a7a7230582018381baf5715c0ca14f1a9c0625acfef0570ab5c2a6bc7fa54163c7c623087270029",
  "source": "// SPDX-License-Identifier: GPL-3.0\r\npragma solidity ^0.4.22;\r\nimport \"./Roles.sol\";\r\nimport \"./FarmerContract.sol\";\r\nimport \"./DistributorContract.sol\";\r\nimport \"./RetailerContract.sol\";\r\nimport \"./ColdStorageContract.sol\";\r\n\r\ncontract GovernmentContract {\r\n    Roles public rc;\r\n    FarmerContract public fc;\r\n    DistributorContract public dc;\r\n    RetailerContract public rtc;\r\n    ColdStorageContract public csc;\r\n    \r\n    constructor(address _address, address _fcAddress, address _dcAddress, address _rtcAddress, address _cscAddress) public {\r\n        rc = Roles(_address);\r\n        fc = FarmerContract(_fcAddress);\r\n        dc = DistributorContract(_dcAddress);\r\n        rtc = RetailerContract(_rtcAddress);\r\n        csc = ColdStorageContract(_cscAddress);\r\n    }\r\n    \r\n    struct GovtOfficial {\r\n        string name;\r\n        string govId;\r\n    }\r\n    \r\n    mapping(address => GovtOfficial) public govt;\r\n    address[] public govtAccounts;\r\n    \r\n    function addGovtOfficial(\r\n        string memory _name,\r\n        string memory _govId\r\n    ) public {\r\n        GovtOfficial storage govtOfficial = govt[tx.origin];\r\n        govtOfficial.name = _name;\r\n        govtOfficial.govId = _govId;\r\n\r\n        govtAccounts.push(tx.origin);\r\n        rc.addRole(tx.origin, rc.governmentID());\r\n    }\r\n\r\n    function getOfficial(address _address)\r\n        public\r\n        view\r\n        returns (string memory _name, string memory _govId)\r\n    {\r\n        return (govt[_address].name, govt[_address].govId);\r\n    }\r\n    \r\n    function setFarmerAsEligible(address _address) public {\r\n        fc.setEligible(_address);\r\n    }\r\n    \r\n    function setDistributorAsEligible(address _address) public {\r\n        dc.setEligible(_address);\r\n    }\r\n    \r\n    function setRetailerAsEligible(address _address) public {\r\n        rtc.setEligible(_address);\r\n    }\r\n    \r\n    function setColdStorageAsEligible(address _address) public {\r\n        csc.setEligible(_address);\r\n    }\r\n    \r\n    /*function setPrice(address _address, uint256 price) public {\r\n        food.setPrice(price);\r\n    }*/\r\n}",
  "sourcePath": "D:\\7thSemester\\CS491\\smart_agriculture_react\\contracts\\GovernmentContract.sol",
  "compiler": {
    "name": "solc",
    "version": "0.4.26+commit.4563c3fc.Emscripten.clang"
  },
  "schemaVersion": "3.4.3",
  "updatedAt": "2021-12-11T16:06:07.957Z",
  "networkType": "ethereum",
  "devdoc": {
    "methods": {}
  },
  "userdoc": {
    "methods": {}
  }
}