{
  "contractName": "PolicyContract",
  "abi": [
    {
      "inputs": [
        {
          "name": "_spaddress",
          "type": "address"
        },
        {
          "name": "_rcaddress",
          "type": "address"
        }
      ],
      "payable": false,
      "stateMutability": "nonpayable",
      "type": "constructor"
    },
    {
      "constant": true,
      "inputs": [
        {
          "name": "id",
          "type": "uint256"
        }
      ],
      "name": "checkEligibility",
      "outputs": [
        {
          "name": "",
          "type": "bool"
        }
      ],
      "payable": false,
      "stateMutability": "view",
      "type": "function"
    },
    {
      "constant": false,
      "inputs": [
        {
          "name": "id",
          "type": "uint256"
        },
        {
          "name": "_farmerAddress",
          "type": "address"
        },
        {
          "name": "currentTime",
          "type": "uint256"
        }
      ],
      "name": "transferFunds",
      "outputs": [],
      "payable": true,
      "stateMutability": "payable",
      "type": "function"
    },
    {
      "constant": true,
      "inputs": [],
      "name": "viewNumPolicy",
      "outputs": [
        {
          "name": "",
          "type": "uint256"
        }
      ],
      "payable": false,
      "stateMutability": "view",
      "type": "function"
    },
    {
      "constant": true,
      "inputs": [
        {
          "name": "index",
          "type": "uint256"
        }
      ],
      "name": "viewPolicyDetails",
      "outputs": [
        {
          "name": "",
          "type": "uint256"
        },
        {
          "name": "",
          "type": "string"
        }
      ],
      "payable": false,
      "stateMutability": "view",
      "type": "function"
    }
  ],
  "bytecode": "0x608060405234801561001057600080fd5b50604051604080610e31833981018060405281019080805190602001909291908051906020019092919050505081600160006101000a81548173ffffffffffffffffffffffffffffffffffffffff021916908373ffffffffffffffffffffffffffffffffffffffff160217905550806000806101000a81548173ffffffffffffffffffffffffffffffffffffffff021916908373ffffffffffffffffffffffffffffffffffffffff1602179055505050610d62806100cf6000396000f300608060405260043610610062576000357c0100000000000000000000000000000000000000000000000000000000900463ffffffff1680631d23e74b1461006757806327fc27e2146100b15780637b39fed6146100dc578063b0d7040514610121575b600080fd5b6100af60048036038101908080359060200190929190803573ffffffffffffffffffffffffffffffffffffffff169060200190929190803590602001909291905050506101ce565b005b3480156100bd57600080fd5b506100c661071a565b6040518082815260200191505060405180910390f35b3480156100e857600080fd5b50610107600480360381019080803590602001909291905050506107e2565b604051808215151515815260200191505060405180910390f35b34801561012d57600080fd5b5061014c60048036038101908080359060200190929190505050610bfd565b6040518083815260200180602001828103825283818151815260200191508051906020019080838360005b83811015610192578082015181840152602081019050610177565b50505050905090810190601f1680156101bf5780820380516001836020036101000a031916815260200191505b50935050505060405180910390f35b60008060009054906101000a900473ffffffffffffffffffffffffffffffffffffffff1673ffffffffffffffffffffffffffffffffffffffff166346fb5b9c6040518163ffffffff167c0100000000000000000000000000000000000000000000000000000000028152600401602060405180830381600087803b15801561025557600080fd5b505af1158015610269573d6000803e3d6000fd5b505050506040513d602081101561027f57600080fd5b81019080805190602001909291905050506000809054906101000a900473ffffffffffffffffffffffffffffffffffffffff1673ffffffffffffffffffffffffffffffffffffffff166344276733326040518263ffffffff167c0100000000000000000000000000000000000000000000000000000000028152600401808273ffffffffffffffffffffffffffffffffffffffff1673ffffffffffffffffffffffffffffffffffffffff168152602001915050602060405180830381600087803b15801561034c57600080fd5b505af1158015610360573d6000803e3d6000fd5b505050506040513d602081101561037657600080fd5b8101908080519060200190929190505050141515610422576040517f08c379a00000000000000000000000000000000000000000000000000000000081526004018080602001828103825260248152602001807f4f6e6c7920676f7665726e6d656e74206f6666696369616c732063616e20616381526020017f636573730000000000000000000000000000000000000000000000000000000081525060400191505060405180910390fd5b600160009054906101000a900473ffffffffffffffffffffffffffffffffffffffff1673ffffffffffffffffffffffffffffffffffffffff1663c34052e0856040518263ffffffff167c010000000000000000000000000000000000000000000000000000000002815260040180828152602001915050602060405180830381600087803b1580156104b357600080fd5b505af11580156104c7573d6000803e3d6000fd5b505050506040513d60208110156104dd57600080fd5b81019080805190602001909291905050509050600073ffffffffffffffffffffffffffffffffffffffff168173ffffffffffffffffffffffffffffffffffffffff16141580156106065750600115158173ffffffffffffffffffffffffffffffffffffffff166366e305fd856040518263ffffffff167c0100000000000000000000000000000000000000000000000000000000028152600401808273ffffffffffffffffffffffffffffffffffffffff1673ffffffffffffffffffffffffffffffffffffffff168152602001915050602060405180830381600087803b1580156105c757600080fd5b505af11580156105db573d6000803e3d6000fd5b505050506040513d60208110156105f157600080fd5b81019080805190602001909291905050501515145b156106cc578073ffffffffffffffffffffffffffffffffffffffff16632ee610a53485856040518463ffffffff167c0100000000000000000000000000000000000000000000000000000000028152600401808373ffffffffffffffffffffffffffffffffffffffff1673ffffffffffffffffffffffffffffffffffffffff168152602001828152602001925050506000604051808303818588803b1580156106ae57600080fd5b505af11580156106c2573d6000803e3d6000fd5b5050505050610714565b3273ffffffffffffffffffffffffffffffffffffffff166108fc349081150290604051600060405180830381858888f19350505050158015610712573d6000803e3d6000fd5b505b50505050565b6000600160009054906101000a900473ffffffffffffffffffffffffffffffffffffffff1673ffffffffffffffffffffffffffffffffffffffff1663eaa096846040518163ffffffff167c0100000000000000000000000000000000000000000000000000000000028152600401602060405180830381600087803b1580156107a257600080fd5b505af11580156107b6573d6000803e3d6000fd5b505050506040513d60208110156107cc57600080fd5b8101908080519060200190929190505050905090565b6000806000809054906101000a900473ffffffffffffffffffffffffffffffffffffffff1673ffffffffffffffffffffffffffffffffffffffff1663b67ac8736040518163ffffffff167c0100000000000000000000000000000000000000000000000000000000028152600401602060405180830381600087803b15801561086a57600080fd5b505af115801561087e573d6000803e3d6000fd5b505050506040513d602081101561089457600080fd5b81019080805190602001909291905050506000809054906101000a900473ffffffffffffffffffffffffffffffffffffffff1673ffffffffffffffffffffffffffffffffffffffff166344276733326040518263ffffffff167c0100000000000000000000000000000000000000000000000000000000028152600401808273ffffffffffffffffffffffffffffffffffffffff1673ffffffffffffffffffffffffffffffffffffffff168152602001915050602060405180830381600087803b15801561096157600080fd5b505af1158015610975573d6000803e3d6000fd5b505050506040513d602081101561098b57600080fd5b8101908080519060200190929190505050141515610a11576040517f08c379a00000000000000000000000000000000000000000000000000000000081526004018080602001828103825260178152602001807f4f6e6c79206661726d6572732063616e2061636365737300000000000000000081525060200191505060405180910390fd5b600160009054906101000a900473ffffffffffffffffffffffffffffffffffffffff1673ffffffffffffffffffffffffffffffffffffffff1663c34052e0846040518263ffffffff167c010000000000000000000000000000000000000000000000000000000002815260040180828152602001915050602060405180830381600087803b158015610aa257600080fd5b505af1158015610ab6573d6000803e3d6000fd5b505050506040513d6020811015610acc57600080fd5b81019080805190602001909291905050509050600073ffffffffffffffffffffffffffffffffffffffff168173ffffffffffffffffffffffffffffffffffffffff16141515610bf2578073ffffffffffffffffffffffffffffffffffffffff166366e305fd326040518263ffffffff167c0100000000000000000000000000000000000000000000000000000000028152600401808273ffffffffffffffffffffffffffffffffffffffff1673ffffffffffffffffffffffffffffffffffffffff168152602001915050602060405180830381600087803b158015610bb057600080fd5b505af1158015610bc4573d6000803e3d6000fd5b505050506040513d6020811015610bda57600080fd5b81019080805190602001909291905050509150610bf7565b600091505b50919050565b60006060600160009054906101000a900473ffffffffffffffffffffffffffffffffffffffff1673ffffffffffffffffffffffffffffffffffffffff166397e68911846040518263ffffffff167c010000000000000000000000000000000000000000000000000000000002815260040180828152602001915050600060405180830381600087803b158015610c9257600080fd5b505af1158015610ca6573d6000803e3d6000fd5b505050506040513d6000823e3d601f19601f820116820180604052506040811015610cd057600080fd5b81019080805190602001909291908051640100000000811115610cf257600080fd5b82810190506020810184811115610d0857600080fd5b8151856001820283011164010000000082111715610d2557600080fd5b5050929190505050915091509150915600a165627a7a72305820e6f0d71da91a3ac02b5a554d625181ef6235354381ceeaa35cde4fdd6a58f42f0029",
  "source": "// SPDX-License-Identifier: GPL-3.0\n\npragma solidity ^0.4.22;\nimport \"./StorePolicy.sol\";\nimport \"./Roles.sol\";\n\ninterface Policy {\n    function isEligible(address) external view returns (bool);\n    function action(address, uint256) external payable;\n}\n\ncontract PolicyContract {\n    Roles rc;\n    StorePolicy p; \n    constructor(address _spaddress, address _rcaddress) public {\n        p = StorePolicy(_spaddress);\n        rc = Roles(_rcaddress);\n    }\n\n    modifier onlyGovernmentOfficial() {\n        require(rc.getRole(tx.origin) == rc.governmentID(), \"Only government officials can access\");\n        _;\n    }\n\n    modifier onlyFarmer() {\n        require(rc.getRole(tx.origin) == rc.farmerRoleID(), \"Only farmers can access\");\n        _;\n    }\n\n    function checkEligibility(uint256 id) public view onlyFarmer returns(bool) {\n        address _address = p.contains(id);\n        if (_address != address(0)) {\n            return Policy(_address).isEligible(tx.origin);\n        } else {\n            return false;\n        }\n    }\n\n    function transferFunds(uint256 id, address _farmerAddress, uint256 currentTime) public payable onlyGovernmentOfficial {\n        address _address = p.contains(id);\n        if (_address != address(0) && Policy(_address).isEligible(_farmerAddress) == true) {\n            Policy(_address).action.value(msg.value)(_farmerAddress, currentTime);\n        } else {\n            tx.origin.transfer(msg.value);\n        }\n    }  \n\n    function viewNumPolicy() public view returns(uint256) {\n        return p.numPolicies();\n    }\n\n    function viewPolicyDetails(uint256 index) public view returns(uint256, string) {\n        return p.viewPolicy(index);\n    }\n}",
  "sourcePath": "/home/oindrila/Documents/smart_agriculture_react/contracts/PolicyContract.sol",
  "compiler": {
    "name": "solc",
    "version": "0.4.26+commit.4563c3fc.Emscripten.clang"
  },
  "schemaVersion": "3.4.5",
  "updatedAt": "2022-02-19T08:04:34.448Z",
  "networkType": "ethereum",
  "devdoc": {
    "methods": {}
  },
  "userdoc": {
    "methods": {}
  }
}