{
  "contractName": "Policy_1",
  "abi": [
    {
      "inputs": [
        {
          "name": "_fcAddress",
          "type": "address"
        },
        {
          "name": "_spaddress",
          "type": "address"
        }
      ],
      "payable": false,
      "stateMutability": "nonpayable",
      "type": "constructor"
    },
    {
      "constant": true,
      "inputs": [
        {
          "name": "_farmerAddress",
          "type": "address"
        }
      ],
      "name": "isEligible",
      "outputs": [
        {
          "name": "",
          "type": "bool"
        }
      ],
      "payable": false,
      "stateMutability": "view",
      "type": "function"
    },
    {
      "constant": false,
      "inputs": [
        {
          "name": "recipient",
          "type": "address"
        },
        {
          "name": "current",
          "type": "uint256"
        }
      ],
      "name": "action",
      "outputs": [],
      "payable": true,
      "stateMutability": "payable",
      "type": "function"
    }
  ],
  "bytecode": "0x6080604052617994600255673782dace9d90000060035562278d006004556040805190810160405280600781526020017f506f6c696379310000000000000000000000000000000000000000000000000081525060059080519060200190610068929190610294565b5034801561007557600080fd5b506040516040806108378339810180604052810190808051906020019092919080519060200190929190505050816000806101000a81548173ffffffffffffffffffffffffffffffffffffffff021916908373ffffffffffffffffffffffffffffffffffffffff16021790555080600160006101000a81548173ffffffffffffffffffffffffffffffffffffffff021916908373ffffffffffffffffffffffffffffffffffffffff160217905550600160009054906101000a900473ffffffffffffffffffffffffffffffffffffffff1673ffffffffffffffffffffffffffffffffffffffff16637f0754d16002543060056040518463ffffffff167c0100000000000000000000000000000000000000000000000000000000028152600401808481526020018373ffffffffffffffffffffffffffffffffffffffff1673ffffffffffffffffffffffffffffffffffffffff168152602001806020018281038252838181546001816001161561010002031660029004815260200191508054600181600116156101000203166002900480156102535780601f1061022857610100808354040283529160200191610253565b820191906000526020600020905b81548152906001019060200180831161023657829003601f168201915b5050945050505050600060405180830381600087803b15801561027557600080fd5b505af1158015610289573d6000803e3d6000fd5b505050505050610339565b828054600181600116156101000203166002900490600052602060002090601f016020900481019282601f106102d557805160ff1916838001178555610303565b82800160010185558215610303579182015b828111156103025782518255916020019190600101906102e7565b5b5090506103109190610314565b5090565b61033691905b8082111561033257600081600090555060010161031a565b5090565b90565b6104ef806103486000396000f30060806040526004361061004c576000357c0100000000000000000000000000000000000000000000000000000000900463ffffffff1680632ee610a51461005157806366e305fd14610091575b600080fd5b61008f600480360381019080803573ffffffffffffffffffffffffffffffffffffffff169060200190929190803590602001909291905050506100ec565b005b34801561009d57600080fd5b506100d2600480360381019080803573ffffffffffffffffffffffffffffffffffffffff169060200190929190505050610261565b604051808215151515815260200191505060405180910390f35b600454600660008473ffffffffffffffffffffffffffffffffffffffff1673ffffffffffffffffffffffffffffffffffffffff168152602001908152602001600020548203101515610215578173ffffffffffffffffffffffffffffffffffffffff166108fc6003549081150290604051600060405180830381858888f19350505050158015610180573d6000803e3d6000fd5b503273ffffffffffffffffffffffffffffffffffffffff166108fc60035434039081150290604051600060405180830381858888f193505050501580156101cb573d6000803e3d6000fd5b5080600660008473ffffffffffffffffffffffffffffffffffffffff1673ffffffffffffffffffffffffffffffffffffffff1681526020019081526020016000208190555061025d565b3273ffffffffffffffffffffffffffffffffffffffff166108fc349081150290604051600060405180830381858888f1935050505015801561025b573d6000803e3d6000fd5b505b5050565b600060608060606000806000806000809054906101000a900473ffffffffffffffffffffffffffffffffffffffff1673ffffffffffffffffffffffffffffffffffffffff1663e7609c168a6040518263ffffffff167c0100000000000000000000000000000000000000000000000000000000028152600401808273ffffffffffffffffffffffffffffffffffffffff1673ffffffffffffffffffffffffffffffffffffffff168152602001915050600060405180830381600087803b15801561032a57600080fd5b505af115801561033e573d6000803e3d6000fd5b505050506040513d6000823e3d601f19601f8201168201806040525060e081101561036857600080fd5b81019080805164010000000081111561038057600080fd5b8281019050602081018481111561039657600080fd5b81518560018202830111640100000000821117156103b357600080fd5b505092919060200180516401000000008111156103cf57600080fd5b828101905060208101848111156103e557600080fd5b815185600182028301116401000000008211171561040257600080fd5b5050929190602001805164010000000081111561041e57600080fd5b8281019050602081018481111561043457600080fd5b815185600182028301116401000000008211171561045157600080fd5b505092919060200180519060200190929190805190602001909291908051906020019092919080519060200190929190505050809750819850829950839a50849b50859c50869d5050505050505050600a8410156104b257600197506104b7565b600097505b505050505050509190505600a165627a7a72305820e3efe3defafa3660d02c750b05a926acd505f65d0a06ef78e24ee75c902f81b60029",
  "source": "// SPDX-License-Identifier: GPL-3.0\n\npragma solidity ^0.4.22;\nimport \"./FarmerContract.sol\";\nimport \"./StorePolicy.sol\";\n\ncontract Policy_1 {\n    FarmerContract fc;\n    StorePolicy sp;\n\n    // ID number of your policy\n    uint256 policyID = 31124;\n    uint256 policyTransferAmount = 4000000000000000000;\n    uint256 timeGap = 2592000;\n    string policyName = \"Policy1\";\n\n    mapping(address => uint256) timestamp;\n\n    constructor(address _fcAddress, address _spaddress) public {\n        fc = FarmerContract(_fcAddress);\n        sp = StorePolicy(_spaddress);\n        sp.insertInList(policyID, address(this), policyName);\n    }\n\n    // Code to check if farmer is eligible for the policy\n    function isEligible(address _farmerAddress) external view returns (bool) {\n        string memory _name;\n        string memory _stateOfResidence;\n        string memory _gender;\n        uint256 _landOwned;\n        int256 _latitude;\n        int256 _longitude;\n        bool isVerified;\n\n        (_name, _stateOfResidence, _gender, _landOwned, _latitude, _longitude, isVerified) = fc\n        .getFarmer(_farmerAddress);\n\n        if (_landOwned < 10) {\n            return true;\n        }\n        return false;\n    }\n\n    // Execution (Transfer of money)\n    function action(address recipient, uint256 current) external payable {\n        if (current-timestamp[recipient]>=timeGap) {\n            recipient.transfer(policyTransferAmount);\n            tx.origin.transfer(msg.value - policyTransferAmount);\n            timestamp[recipient] = current;\n        } else {\n            tx.origin.transfer(msg.value);\n        }\n    }\n}\n",
  "sourcePath": "D:\\7thSemester\\CS491\\smart_agriculture_react\\contracts\\Policy_1.sol",
  "compiler": {
    "name": "solc",
    "version": "0.4.26+commit.4563c3fc.Emscripten.clang"
  },
  "schemaVersion": "3.4.3",
  "updatedAt": "2022-02-09T11:48:00.765Z",
  "networkType": "ethereum",
  "devdoc": {
    "methods": {}
  },
  "userdoc": {
    "methods": {}
  }
}