{
  "contractName": "Policy_1",
  "abi": [
    {
      "inputs": [
        {
          "name": "_fcAddress",
          "type": "address"
        },
        {
          "name": "_rcaddress",
          "type": "address"
        }
      ],
      "payable": false,
      "stateMutability": "nonpayable",
      "type": "constructor"
    },
    {
      "constant": true,
      "inputs": [],
      "name": "description",
      "outputs": [
        {
          "name": "_description",
          "type": "string"
        },
        {
          "name": "_policyID",
          "type": "uint256"
        }
      ],
      "payable": false,
      "stateMutability": "view",
      "type": "function"
    },
    {
      "constant": false,
      "inputs": [],
      "name": "fund",
      "outputs": [],
      "payable": true,
      "stateMutability": "payable",
      "type": "function"
    },
    {
      "constant": false,
      "inputs": [
        {
          "name": "recipient",
          "type": "address"
        }
      ],
      "name": "action",
      "outputs": [],
      "payable": true,
      "stateMutability": "payable",
      "type": "function"
    }
  ],
  "bytecode": "0x6080604052617994600255606460035534801561001b57600080fd5b50604051604080610d098339810180604052810190808051906020019092919080519060200190929190505050806000806101000a81548173ffffffffffffffffffffffffffffffffffffffff021916908373ffffffffffffffffffffffffffffffffffffffff16021790555081600160006101000a81548173ffffffffffffffffffffffffffffffffffffffff021916908373ffffffffffffffffffffffffffffffffffffffff1602179055505050610c2f806100da6000396000f300608060405260043610610057576000357c0100000000000000000000000000000000000000000000000000000000900463ffffffff168063721b8e011461005c5780637284e41614610092578063b60d428814610129575b600080fd5b610090600480360381019080803573ffffffffffffffffffffffffffffffffffffffff169060200190929190505050610133565b005b34801561009e57600080fd5b506100a76103e7565b6040518080602001838152602001828103825284818151815260200191508051906020019080838360005b838110156100ed5780820151818401526020810190506100d2565b50505050905090810190601f16801561011a5780820380516001836020036101000a031916815260200191505b50935050505060405180910390f35b61013161074c565b005b6000809054906101000a900473ffffffffffffffffffffffffffffffffffffffff1673ffffffffffffffffffffffffffffffffffffffff166346fb5b9c6040518163ffffffff167c0100000000000000000000000000000000000000000000000000000000028152600401602060405180830381600087803b1580156101b857600080fd5b505af11580156101cc573d6000803e3d6000fd5b505050506040513d60208110156101e257600080fd5b81019080805190602001909291905050506000809054906101000a900473ffffffffffffffffffffffffffffffffffffffff1673ffffffffffffffffffffffffffffffffffffffff166344276733326040518263ffffffff167c0100000000000000000000000000000000000000000000000000000000028152600401808273ffffffffffffffffffffffffffffffffffffffff1673ffffffffffffffffffffffffffffffffffffffff168152602001915050602060405180830381600087803b1580156102af57600080fd5b505af11580156102c3573d6000803e3d6000fd5b505050506040513d60208110156102d957600080fd5b8101908080519060200190929190505050141515610385576040517f08c379a00000000000000000000000000000000000000000000000000000000081526004018080602001828103825260248152602001807f4f6e6c7920676f7665726e6d656e74206f6666696369616c732063616e20616381526020017f636573730000000000000000000000000000000000000000000000000000000081525060400191505060405180910390fd5b60011515610392826109a0565b151514156103e4578073ffffffffffffffffffffffffffffffffffffffff166108fc6003549081150290604051600060405180830381858888f193505050501580156103e2573d6000803e3d6000fd5b505b50565b606060008060009054906101000a900473ffffffffffffffffffffffffffffffffffffffff1673ffffffffffffffffffffffffffffffffffffffff1663b67ac8736040518163ffffffff167c0100000000000000000000000000000000000000000000000000000000028152600401602060405180830381600087803b15801561047057600080fd5b505af1158015610484573d6000803e3d6000fd5b505050506040513d602081101561049a57600080fd5b81019080805190602001909291905050506000809054906101000a900473ffffffffffffffffffffffffffffffffffffffff1673ffffffffffffffffffffffffffffffffffffffff166344276733326040518263ffffffff167c0100000000000000000000000000000000000000000000000000000000028152600401808273ffffffffffffffffffffffffffffffffffffffff1673ffffffffffffffffffffffffffffffffffffffff168152602001915050602060405180830381600087803b15801561056757600080fd5b505af115801561057b573d6000803e3d6000fd5b505050506040513d602081101561059157600080fd5b8101908080519060200190929190505050141515610617576040517f08c379a00000000000000000000000000000000000000000000000000000000081526004018080602001828103825260178152602001807f4f6e6c79206661726d6572732063616e2061636365737300000000000000000081525060200191505060405180910390fd5b60011515610624326109a0565b151514156106bc57600254608060405190810160405280604481526020017f596f752061726520656c696769626c6520666f72204b6973616e20796f6a616e81526020017f6120736368656d652c20796f752068617665206c616e64206c6573732074686181526020017f6e203130000000000000000000000000000000000000000000000000000000008152509091509150610748565b600254608060405190810160405280605481526020017f596f7520617265206e6f7420656c696769626c6520666f72204b6973616e207981526020017f6f6a616e6120736368656d652c20796f752068617665206c616e64206d6f726581526020017f207468616e206f7220657175616c20746f20313000000000000000000000000081525090915091505b9091565b6000809054906101000a900473ffffffffffffffffffffffffffffffffffffffff1673ffffffffffffffffffffffffffffffffffffffff166346fb5b9c6040518163ffffffff167c0100000000000000000000000000000000000000000000000000000000028152600401602060405180830381600087803b1580156107d157600080fd5b505af11580156107e5573d6000803e3d6000fd5b505050506040513d60208110156107fb57600080fd5b81019080805190602001909291905050506000809054906101000a900473ffffffffffffffffffffffffffffffffffffffff1673ffffffffffffffffffffffffffffffffffffffff166344276733326040518263ffffffff167c0100000000000000000000000000000000000000000000000000000000028152600401808273ffffffffffffffffffffffffffffffffffffffff1673ffffffffffffffffffffffffffffffffffffffff168152602001915050602060405180830381600087803b1580156108c857600080fd5b505af11580156108dc573d6000803e3d6000fd5b505050506040513d60208110156108f257600080fd5b810190808051906020019092919050505014151561099e576040517f08c379a00000000000000000000000000000000000000000000000000000000081526004018080602001828103825260248152602001807f4f6e6c7920676f7665726e6d656e74206f6666696369616c732063616e20616381526020017f636573730000000000000000000000000000000000000000000000000000000081525060400191505060405180910390fd5b565b60006060806060600080600080600160009054906101000a900473ffffffffffffffffffffffffffffffffffffffff1673ffffffffffffffffffffffffffffffffffffffff1663e7609c168a6040518263ffffffff167c0100000000000000000000000000000000000000000000000000000000028152600401808273ffffffffffffffffffffffffffffffffffffffff1673ffffffffffffffffffffffffffffffffffffffff168152602001915050600060405180830381600087803b158015610a6a57600080fd5b505af1158015610a7e573d6000803e3d6000fd5b505050506040513d6000823e3d601f19601f8201168201806040525060e0811015610aa857600080fd5b810190808051640100000000811115610ac057600080fd5b82810190506020810184811115610ad657600080fd5b8151856001820283011164010000000082111715610af357600080fd5b50509291906020018051640100000000811115610b0f57600080fd5b82810190506020810184811115610b2557600080fd5b8151856001820283011164010000000082111715610b4257600080fd5b50509291906020018051640100000000811115610b5e57600080fd5b82810190506020810184811115610b7457600080fd5b8151856001820283011164010000000082111715610b9157600080fd5b505092919060200180519060200190929190805190602001909291908051906020019092919080519060200190929190505050809750819850829950839a50849b50859c50869d5050505050505050600a841015610bf25760019750610bf7565b600097505b505050505050509190505600a165627a7a723058208c0d5f5bc3e6a8aeaaf90d6f9071fef355b0361e1359fc38b47c90a5fac51ff60029",
  "source": "// SPDX-License-Identifier: GPL-3.0\npragma solidity ^0.4.22;\nimport \"./FarmerContract.sol\";\nimport \"./Roles.sol\";\n\ncontract Policy_1 {\n    Roles rc;\n    FarmerContract fc;\n\n    // ID number of your policy\n    uint256 policyID = 31124;\n    uint256 policyTransferAmount = 100;\n\n    constructor(address _fcAddress, address _rcaddress) public {\n        rc = Roles(_rcaddress);\n        fc = FarmerContract(_fcAddress);\n    }\n\n    modifier onlyGovernmentOfficial() {\n        require(rc.getRole(tx.origin) == rc.governmentID(), \"Only government officials can access\");\n        _;\n    }\n\n    modifier onlyFarmer() {\n        require(rc.getRole(tx.origin) == rc.farmerRoleID(), \"Only farmers can access\");\n        _;\n    }\n\n    // Code to check if farmer is eligible for the policy\n    function isEligible(address _farmerAddress) private view returns (bool) {\n        string memory _name;\n        string memory _stateOfResidence;\n        string memory _gender;\n        uint256 _landOwned;\n        int256 _latitude;\n        int256 _longitude;\n        bool isVerified;\n\n        (_name, _stateOfResidence, _gender, _landOwned, _latitude, _longitude, isVerified) = fc\n        .getFarmer(_farmerAddress);\n\n        if (_landOwned < 10) return true;\n        return false;\n    }\n\n    // Description of policy (what should be shown on screen)\n    function description()\n    public\n    view\n    onlyFarmer\n    returns (string memory _description, uint256 _policyID) {\n        if (isEligible(tx.origin) == true) {\n            return (\"You are eligible for Kisan yojana scheme, you have land less than 10\", policyID);\n        } else {\n            return (\"You are not eligible for Kisan yojana scheme, you have land more than or equal to 10\", policyID);\n        }\n    }\n\n    // Fund (To fund the smart contract)\n    function fund() public payable onlyGovernmentOfficial {\n\n    }\n\n    // Execution (Transfer of money etc)\n    function action(address recipient) public payable onlyGovernmentOfficial {\n        if (isEligible(recipient) == true) {\n            recipient.transfer(policyTransferAmount);\n        }\n    }\n}\n",
  "sourcePath": "D:\\7thSemester\\CS491\\smart_agriculture_react\\contracts\\Policy_1.sol",
  "compiler": {
    "name": "solc",
    "version": "0.4.26+commit.4563c3fc.Emscripten.clang"
  },
  "schemaVersion": "3.4.3",
  "updatedAt": "2022-02-05T19:18:46.829Z",
  "networkType": "ethereum",
  "devdoc": {
    "methods": {}
  },
  "userdoc": {
    "methods": {}
  }
}