{
  "contractName": "Policy_1",
  "abi": [
    {
      "inputs": [
        {
          "name": "_fcAddress",
          "type": "address"
        },
        {
          "name": "_spaddress",
          "type": "address"
        }
      ],
      "payable": false,
      "stateMutability": "nonpayable",
      "type": "constructor"
    },
    {
      "constant": true,
      "inputs": [
        {
          "name": "_farmerAddress",
          "type": "address"
        }
      ],
      "name": "isEligible",
      "outputs": [
        {
          "name": "",
          "type": "bool"
        }
      ],
      "payable": false,
      "stateMutability": "view",
      "type": "function"
    },
    {
      "constant": false,
      "inputs": [
        {
          "name": "recipient",
          "type": "address"
        },
        {
          "name": "current",
          "type": "uint256"
        }
      ],
      "name": "action",
      "outputs": [],
      "payable": true,
      "stateMutability": "payable",
      "type": "function"
    }
  ],
  "bytecode": "0x6080604052617994600255673782dace9d90000060035562278d0060045534801561002957600080fd5b506040516040806106b68339810180604052810190808051906020019092919080519060200190929190505050816000806101000a81548173ffffffffffffffffffffffffffffffffffffffff021916908373ffffffffffffffffffffffffffffffffffffffff16021790555080600160006101000a81548173ffffffffffffffffffffffffffffffffffffffff021916908373ffffffffffffffffffffffffffffffffffffffff160217905550600160009054906101000a900473ffffffffffffffffffffffffffffffffffffffff1673ffffffffffffffffffffffffffffffffffffffff1663f2e3d070600254306040518363ffffffff167c0100000000000000000000000000000000000000000000000000000000028152600401808381526020018273ffffffffffffffffffffffffffffffffffffffff1673ffffffffffffffffffffffffffffffffffffffff16815260200192505050600060405180830381600087803b15801561019e57600080fd5b505af11580156101b2573d6000803e3d6000fd5b5050505050506104ef806101c76000396000f30060806040526004361061004c576000357c0100000000000000000000000000000000000000000000000000000000900463ffffffff1680632ee610a51461005157806366e305fd14610091575b600080fd5b61008f600480360381019080803573ffffffffffffffffffffffffffffffffffffffff169060200190929190803590602001909291905050506100ec565b005b34801561009d57600080fd5b506100d2600480360381019080803573ffffffffffffffffffffffffffffffffffffffff169060200190929190505050610261565b604051808215151515815260200191505060405180910390f35b600454600560008473ffffffffffffffffffffffffffffffffffffffff1673ffffffffffffffffffffffffffffffffffffffff168152602001908152602001600020548203101515610215578173ffffffffffffffffffffffffffffffffffffffff166108fc6003549081150290604051600060405180830381858888f19350505050158015610180573d6000803e3d6000fd5b503273ffffffffffffffffffffffffffffffffffffffff166108fc60035434039081150290604051600060405180830381858888f193505050501580156101cb573d6000803e3d6000fd5b5080600560008473ffffffffffffffffffffffffffffffffffffffff1673ffffffffffffffffffffffffffffffffffffffff1681526020019081526020016000208190555061025d565b3273ffffffffffffffffffffffffffffffffffffffff166108fc349081150290604051600060405180830381858888f1935050505015801561025b573d6000803e3d6000fd5b505b5050565b600060608060606000806000806000809054906101000a900473ffffffffffffffffffffffffffffffffffffffff1673ffffffffffffffffffffffffffffffffffffffff1663e7609c168a6040518263ffffffff167c0100000000000000000000000000000000000000000000000000000000028152600401808273ffffffffffffffffffffffffffffffffffffffff1673ffffffffffffffffffffffffffffffffffffffff168152602001915050600060405180830381600087803b15801561032a57600080fd5b505af115801561033e573d6000803e3d6000fd5b505050506040513d6000823e3d601f19601f8201168201806040525060e081101561036857600080fd5b81019080805164010000000081111561038057600080fd5b8281019050602081018481111561039657600080fd5b81518560018202830111640100000000821117156103b357600080fd5b505092919060200180516401000000008111156103cf57600080fd5b828101905060208101848111156103e557600080fd5b815185600182028301116401000000008211171561040257600080fd5b5050929190602001805164010000000081111561041e57600080fd5b8281019050602081018481111561043457600080fd5b815185600182028301116401000000008211171561045157600080fd5b505092919060200180519060200190929190805190602001909291908051906020019092919080519060200190929190505050809750819850829950839a50849b50859c50869d5050505050505050600a8410156104b257600197506104b7565b600097505b505050505050509190505600a165627a7a723058206a2d592e03f0414eaf4c6e1ec494a5fbd8a2df89753ab2d99c895728e3f42f900029",
  "source": "// SPDX-License-Identifier: GPL-3.0\n\npragma solidity ^0.4.22;\nimport \"./FarmerContract.sol\";\nimport \"./StorePolicy.sol\";\n\ncontract Policy_1 {\n    FarmerContract fc;\n    StorePolicy sp;\n\n    // ID number of your policy\n    uint256 policyID = 31124;\n    uint256 policyTransferAmount = 4000000000000000000;\n    uint256 timeGap = 2592000;\n\n    mapping(address => uint256) timestamp;\n\n    constructor(address _fcAddress, address _spaddress) public {\n        fc = FarmerContract(_fcAddress);\n        sp = StorePolicy(_spaddress);\n        sp.insertInList(policyID, address(this));\n    }\n\n    // Code to check if farmer is eligible for the policy\n    function isEligible(address _farmerAddress) external view returns (bool) {\n        string memory _name;\n        string memory _stateOfResidence;\n        string memory _gender;\n        uint256 _landOwned;\n        int256 _latitude;\n        int256 _longitude;\n        bool isVerified;\n\n        (_name, _stateOfResidence, _gender, _landOwned, _latitude, _longitude, isVerified) = fc\n        .getFarmer(_farmerAddress);\n\n        if (_landOwned < 10) {\n            return true;\n        }\n        return false;\n    }\n\n    // Execution (Transfer of money)\n    function action(address recipient, uint256 current) external payable {\n        if (current-timestamp[recipient]>=timeGap) {\n            recipient.transfer(policyTransferAmount);\n            tx.origin.transfer(msg.value - policyTransferAmount);\n            timestamp[recipient] = current;\n        } else {\n            tx.origin.transfer(msg.value);\n        }\n    }\n}\n",
  "sourcePath": "D:\\7thSemester\\CS491\\smart_agriculture_react\\contracts\\Policy_1.sol",
  "compiler": {
    "name": "solc",
    "version": "0.4.26+commit.4563c3fc.Emscripten.clang"
  },
  "schemaVersion": "3.4.3",
  "updatedAt": "2022-02-09T06:49:31.284Z",
  "networkType": "ethereum",
  "devdoc": {
    "methods": {}
  },
  "userdoc": {
    "methods": {}
  }
}