{
  "contractName": "Roles",
  "abi": [
    {
      "constant": true,
      "inputs": [],
      "name": "consumerRoleID",
      "outputs": [
        {
          "name": "",
          "type": "uint256"
        }
      ],
      "payable": false,
      "stateMutability": "view",
      "type": "function"
    },
    {
      "constant": true,
      "inputs": [],
      "name": "distributorRoleID",
      "outputs": [
        {
          "name": "",
          "type": "uint256"
        }
      ],
      "payable": false,
      "stateMutability": "view",
      "type": "function"
    },
    {
      "constant": true,
      "inputs": [],
      "name": "governmentID",
      "outputs": [
        {
          "name": "",
          "type": "uint256"
        }
      ],
      "payable": false,
      "stateMutability": "view",
      "type": "function"
    },
    {
      "constant": true,
      "inputs": [],
      "name": "farmerRoleID",
      "outputs": [
        {
          "name": "",
          "type": "uint256"
        }
      ],
      "payable": false,
      "stateMutability": "view",
      "type": "function"
    },
    {
      "constant": true,
      "inputs": [],
      "name": "coldStorageRoleID",
      "outputs": [
        {
          "name": "",
          "type": "uint256"
        }
      ],
      "payable": false,
      "stateMutability": "view",
      "type": "function"
    },
    {
      "constant": true,
      "inputs": [
        {
          "name": "",
          "type": "address"
        }
      ],
      "name": "role",
      "outputs": [
        {
          "name": "roleID",
          "type": "uint256"
        },
        {
          "name": "roleSet",
          "type": "bool"
        }
      ],
      "payable": false,
      "stateMutability": "view",
      "type": "function"
    },
    {
      "constant": true,
      "inputs": [],
      "name": "retailerRoleID",
      "outputs": [
        {
          "name": "",
          "type": "uint256"
        }
      ],
      "payable": false,
      "stateMutability": "view",
      "type": "function"
    },
    {
      "constant": false,
      "inputs": [
        {
          "name": "_address",
          "type": "address"
        },
        {
          "name": "_RoleID",
          "type": "uint256"
        }
      ],
      "name": "addRole",
      "outputs": [],
      "payable": false,
      "stateMutability": "nonpayable",
      "type": "function"
    },
    {
      "constant": true,
      "inputs": [
        {
          "name": "_address",
          "type": "address"
        }
      ],
      "name": "getRole",
      "outputs": [
        {
          "name": "",
          "type": "uint256"
        }
      ],
      "payable": false,
      "stateMutability": "view",
      "type": "function"
    },
    {
      "constant": false,
      "inputs": [
        {
          "name": "_address",
          "type": "address"
        }
      ],
      "name": "deleteRole",
      "outputs": [],
      "payable": false,
      "stateMutability": "nonpayable",
      "type": "function"
    }
  ],
  "bytecode": "0x608060405234801561001057600080fd5b506105a6806100206000396000f3006080604052600436106100a4576000357c0100000000000000000000000000000000000000000000000000000000900463ffffffff16806303553a2f146100a9578063121da33c146100d457806344276733146100ff57806346fb5b9c1461015657806354b025c5146101815780637fde1c8a146101c4578063b67ac87314610211578063bf4fd3691461023c578063d590f8c914610267578063f7b8d484146102c9575b600080fd5b3480156100b557600080fd5b506100be6102f4565b6040518082815260200191505060405180910390f35b3480156100e057600080fd5b506100e96102f9565b6040518082815260200191505060405180910390f35b34801561010b57600080fd5b50610140600480360381019080803573ffffffffffffffffffffffffffffffffffffffff1690602001909291905050506102fe565b6040518082815260200191505060405180910390f35b34801561016257600080fd5b5061016b6103ae565b6040518082815260200191505060405180910390f35b34801561018d57600080fd5b506101c2600480360381019080803573ffffffffffffffffffffffffffffffffffffffff1690602001909291905050506103b3565b005b3480156101d057600080fd5b5061020f600480360381019080803573ffffffffffffffffffffffffffffffffffffffff16906020019092919080359060200190929190505050610457565b005b34801561021d57600080fd5b5061022661053a565b6040518082815260200191505060405180910390f35b34801561024857600080fd5b5061025161053f565b6040518082815260200191505060405180910390f35b34801561027357600080fd5b506102a8600480360381019080803573ffffffffffffffffffffffffffffffffffffffff169060200190929190505050610544565b60405180838152602001821515151581526020019250505060405180910390f35b3480156102d557600080fd5b506102de610575565b6040518082815260200191505060405180910390f35b600481565b600281565b6000600115156000808473ffffffffffffffffffffffffffffffffffffffff1673ffffffffffffffffffffffffffffffffffffffff16815260200190815260200160002060010160009054906101000a900460ff16151514156103a4576000808373ffffffffffffffffffffffffffffffffffffffff1673ffffffffffffffffffffffffffffffffffffffff1681526020019081526020016000206000015490506103a9565b600090505b919050565b600681565b60008060008373ffffffffffffffffffffffffffffffffffffffff1673ffffffffffffffffffffffffffffffffffffffff16815260200190815260200160002060010160006101000a81548160ff02191690831515021790555060008060008373ffffffffffffffffffffffffffffffffffffffff1673ffffffffffffffffffffffffffffffffffffffff1681526020019081526020016000206000018190555050565b600015156000808473ffffffffffffffffffffffffffffffffffffffff1673ffffffffffffffffffffffffffffffffffffffff16815260200190815260200160002060010160009054906101000a900460ff1615151415610536576040805190810160405280828152602001600115158152506000808473ffffffffffffffffffffffffffffffffffffffff1673ffffffffffffffffffffffffffffffffffffffff1681526020019081526020016000206000820151816000015560208201518160010160006101000a81548160ff0219169083151502179055509050505b5050565b600181565b600581565b60006020528060005260406000206000915090508060000154908060010160009054906101000a900460ff16905082565b6003815600a165627a7a723058202b2efcefd249ab078c5911278e579fbede48fd5954c96c6f042ce7d0d322f70c0029",
  "source": "// SPDX-License-Identifier: GPL-3.0\r\n\r\npragma solidity ^0.4.22;\r\n\r\ncontract Roles {\r\n    uint256 public constant farmerRoleID = 1;\r\n    uint256 public constant distributorRoleID = 2;\r\n    uint256 public constant retailerRoleID = 3;\r\n    uint256 public constant consumerRoleID = 4;\r\n    uint256 public constant coldStorageRoleID = 5;\r\n    uint256 public constant governmentID = 6;\r\n\r\n    struct Role {\r\n        uint256 roleID;\r\n        bool roleSet;\r\n    }\r\n    \r\n    mapping(address => Role) public role;\r\n\r\n    function addRole(address _address, uint256 _RoleID) public {\r\n        if (role[_address].roleSet == false)\r\n            role[_address] = Role(_RoleID, true);\r\n    }\r\n\r\n    function getRole(address _address) public view returns (uint256) {\r\n        if (role[_address].roleSet == true) return role[_address].roleID;\r\n        else return 0;\r\n    }\r\n\r\n    function deleteRole(address _address) public {\r\n        role[_address].roleSet = false;\r\n        role[_address].roleID = 0;\r\n    }\r\n}\r\n",
  "sourcePath": "D:\\7thSemester\\CS491\\smart_agriculture_react\\contracts\\Roles.sol",
  "compiler": {
    "name": "solc",
    "version": "0.4.26+commit.4563c3fc.Emscripten.clang"
  },
  "schemaVersion": "3.4.3",
  "updatedAt": "2021-12-12T19:16:58.889Z",
  "networkType": "ethereum",
  "devdoc": {
    "methods": {}
  },
  "userdoc": {
    "methods": {}
  }
}