{
  "contractName": "StorePolicy",
  "abi": [
    {
      "constant": false,
      "inputs": [
        {
          "name": "id",
          "type": "uint256"
        },
        {
          "name": "_address",
          "type": "address"
        },
        {
          "name": "_name",
          "type": "string"
        }
      ],
      "name": "insertInList",
      "outputs": [],
      "payable": false,
      "stateMutability": "nonpayable",
      "type": "function"
    },
    {
      "constant": true,
      "inputs": [
        {
          "name": "id",
          "type": "uint256"
        }
      ],
      "name": "contains",
      "outputs": [
        {
          "name": "",
          "type": "address"
        }
      ],
      "payable": false,
      "stateMutability": "view",
      "type": "function"
    },
    {
      "constant": true,
      "inputs": [],
      "name": "numPolicies",
      "outputs": [
        {
          "name": "",
          "type": "uint256"
        }
      ],
      "payable": false,
      "stateMutability": "view",
      "type": "function"
    },
    {
      "constant": true,
      "inputs": [
        {
          "name": "index",
          "type": "uint256"
        }
      ],
      "name": "viewPolicy",
      "outputs": [
        {
          "name": "",
          "type": "uint256"
        },
        {
          "name": "",
          "type": "string"
        }
      ],
      "payable": false,
      "stateMutability": "view",
      "type": "function"
    }
  ],
  "bytecode": "0x608060405234801561001057600080fd5b506104c0806100206000396000f300608060405260043610610062576000357c0100000000000000000000000000000000000000000000000000000000900463ffffffff1680637f0754d11461006757806397e68911146100cc578063c34052e014610179578063eaa09684146101e6575b600080fd5b34801561007357600080fd5b506100ca60048036038101908080359060200190929190803573ffffffffffffffffffffffffffffffffffffffff169060200190929190803590602001908201803590602001919091929391929390505050610211565b005b3480156100d857600080fd5b506100f7600480360381019080803590602001909291905050506102b7565b6040518083815260200180602001828103825283818151815260200191508051906020019080838360005b8381101561013d578082015181840152602081019050610122565b50505050905090810190601f16801561016a5780820380516001836020036101000a031916815260200191505b50935050505060405180910390f35b34801561018557600080fd5b506101a4600480360381019080803590602001909291905050506103a6565b604051808273ffffffffffffffffffffffffffffffffffffffff1673ffffffffffffffffffffffffffffffffffffffff16815260200191505060405180910390f35b3480156101f257600080fd5b506101fb6103e2565b6040518082815260200191505060405180910390f35b8260008086815260200190815260200160002060006101000a81548173ffffffffffffffffffffffffffffffffffffffff021916908373ffffffffffffffffffffffffffffffffffffffff16021790555081816001600087815260200190815260200160002091906102849291906103ef565b50600284908060018154018082558091505090600182039060005260206000200160009091929091909150555050505050565b600060606002838154811015156102ca57fe5b9060005260206000200154600160006002868154811015156102e857fe5b90600052602060002001548152602001908152602001600020808054600181600116156101000203166002900480601f0160208091040260200160405190810160405280929190818152602001828054600181600116156101000203166002900480156103965780601f1061036b57610100808354040283529160200191610396565b820191906000526020600020905b81548152906001019060200180831161037957829003601f168201915b5050505050905091509150915091565b600080600083815260200190815260200160002060009054906101000a900473ffffffffffffffffffffffffffffffffffffffff169050919050565b6000600280549050905090565b828054600181600116156101000203166002900490600052602060002090601f016020900481019282601f1061043057803560ff191683800117855561045e565b8280016001018555821561045e579182015b8281111561045d578235825591602001919060010190610442565b5b50905061046b919061046f565b5090565b61049191905b8082111561048d576000816000905550600101610475565b5090565b905600a165627a7a7230582066fdab420a295365524964d50290061dfc605d41a6d76b4be66e83edb8597c920029",
  "source": "// SPDX-License-Identifier: GPL-3.0\r\n\r\npragma solidity ^0.4.22;\r\n\r\ncontract StorePolicy {\r\n    mapping(uint256 => address) policyDetails;\r\n    mapping(uint256 => string) policyName;\r\n    uint256[] policies;\r\n\r\n    function insertInList(uint256 id, address _address, string _name) external {\r\n        policyDetails[id] = _address;\r\n        policyName[id] = _name;\r\n        policies.push(id);\r\n    }\r\n\r\n    function contains(uint256 id) external view returns(address) {\r\n        return policyDetails[id];\r\n    }\r\n\r\n    function numPolicies() external view returns(uint256) {\r\n        return policies.length;\r\n    }\r\n\r\n    function viewPolicy(uint256 index) external view returns(uint256, string) {\r\n        return (policies[index], policyName[policies[index]]);\r\n    }\r\n}\r\n",
  "sourcePath": "D:\\7thSemester\\CS491\\smart_agriculture_react\\contracts\\StorePolicy.sol",
  "compiler": {
    "name": "solc",
    "version": "0.4.26+commit.4563c3fc.Emscripten.clang"
  },
  "schemaVersion": "3.4.3",
  "updatedAt": "2022-02-09T11:48:00.759Z",
  "networkType": "ethereum",
  "devdoc": {
    "methods": {}
  },
  "userdoc": {
    "methods": {}
  }
}