{
  "contractName": "SupplyChain",
  "abi": [
    {
      "constant": true,
      "inputs": [],
      "name": "rc",
      "outputs": [
        {
          "name": "",
          "type": "address"
        }
      ],
      "payable": false,
      "stateMutability": "view",
      "type": "function"
    },
    {
      "inputs": [
        {
          "name": "_address",
          "type": "address"
        }
      ],
      "payable": false,
      "stateMutability": "nonpayable",
      "type": "constructor"
    },
    {
      "constant": false,
      "inputs": [
        {
          "name": "_product",
          "type": "string"
        },
        {
          "name": "basePrice",
          "type": "uint256"
        },
        {
          "name": "profitDistributor",
          "type": "uint256"
        },
        {
          "name": "profitRetailer",
          "type": "uint256"
        }
      ],
      "name": "setPrice",
      "outputs": [],
      "payable": false,
      "stateMutability": "nonpayable",
      "type": "function"
    },
    {
      "constant": true,
      "inputs": [
        {
          "name": "id",
          "type": "string"
        }
      ],
      "name": "getItems",
      "outputs": [
        {
          "components": [
            {
              "name": "ownerID",
              "type": "address"
            },
            {
              "name": "farmerID",
              "type": "address"
            },
            {
              "name": "distributorID",
              "type": "address"
            },
            {
              "name": "retailerID",
              "type": "address"
            },
            {
              "name": "consumerID",
              "type": "address"
            },
            {
              "name": "productType",
              "type": "string"
            },
            {
              "name": "weight",
              "type": "uint256"
            },
            {
              "name": "parts",
              "type": "uint256"
            }
          ],
          "name": "",
          "type": "tuple"
        }
      ],
      "payable": false,
      "stateMutability": "view",
      "type": "function"
    },
    {
      "constant": true,
      "inputs": [
        {
          "name": "crop",
          "type": "string"
        }
      ],
      "name": "getSerialNumber",
      "outputs": [
        {
          "name": "",
          "type": "uint256"
        }
      ],
      "payable": false,
      "stateMutability": "view",
      "type": "function"
    },
    {
      "constant": true,
      "inputs": [
        {
          "name": "crop",
          "type": "string"
        }
      ],
      "name": "getCropPrices",
      "outputs": [
        {
          "components": [
            {
              "name": "serialNo",
              "type": "uint256"
            },
            {
              "name": "priceForDistributor",
              "type": "uint256"
            },
            {
              "name": "priceForRetailer",
              "type": "uint256"
            },
            {
              "name": "priceForConsumer",
              "type": "uint256"
            }
          ],
          "name": "",
          "type": "tuple"
        }
      ],
      "payable": false,
      "stateMutability": "view",
      "type": "function"
    },
    {
      "constant": false,
      "inputs": [
        {
          "name": "_ownerID",
          "type": "address"
        },
        {
          "name": "_farmerID",
          "type": "address"
        },
        {
          "name": "_distributorID",
          "type": "address"
        },
        {
          "name": "_retailerID",
          "type": "address"
        },
        {
          "name": "_consumerID",
          "type": "address"
        },
        {
          "name": "_productType",
          "type": "string"
        },
        {
          "name": "_weight",
          "type": "uint256"
        },
        {
          "name": "_productID",
          "type": "string"
        },
        {
          "name": "_parts",
          "type": "uint256"
        }
      ],
      "name": "insertItem",
      "outputs": [],
      "payable": false,
      "stateMutability": "nonpayable",
      "type": "function"
    },
    {
      "constant": false,
      "inputs": [
        {
          "name": "_productID",
          "type": "string"
        }
      ],
      "name": "deleteItem",
      "outputs": [],
      "payable": false,
      "stateMutability": "nonpayable",
      "type": "function"
    },
    {
      "constant": true,
      "inputs": [
        {
          "name": "_productName",
          "type": "string"
        },
        {
          "name": "stage",
          "type": "uint256"
        }
      ],
      "name": "getNumOwners",
      "outputs": [
        {
          "name": "",
          "type": "uint256"
        }
      ],
      "payable": false,
      "stateMutability": "view",
      "type": "function"
    },
    {
      "constant": true,
      "inputs": [
        {
          "name": "_productName",
          "type": "string"
        },
        {
          "name": "stage",
          "type": "uint256"
        },
        {
          "name": "index",
          "type": "uint256"
        }
      ],
      "name": "getOwnerAddresses",
      "outputs": [
        {
          "name": "",
          "type": "address"
        }
      ],
      "payable": false,
      "stateMutability": "view",
      "type": "function"
    },
    {
      "constant": true,
      "inputs": [
        {
          "name": "_productName",
          "type": "string"
        },
        {
          "name": "stage",
          "type": "uint256"
        },
        {
          "name": "_address",
          "type": "address"
        }
      ],
      "name": "getNumProductsPerOwner",
      "outputs": [
        {
          "name": "",
          "type": "uint256"
        }
      ],
      "payable": false,
      "stateMutability": "view",
      "type": "function"
    },
    {
      "constant": true,
      "inputs": [
        {
          "name": "_productName",
          "type": "string"
        },
        {
          "name": "stage",
          "type": "uint256"
        },
        {
          "name": "_address",
          "type": "address"
        },
        {
          "name": "_index",
          "type": "uint256"
        }
      ],
      "name": "getProductPerOwner",
      "outputs": [
        {
          "name": "",
          "type": "string"
        }
      ],
      "payable": false,
      "stateMutability": "view",
      "type": "function"
    },
    {
      "constant": true,
      "inputs": [
        {
          "name": "_productName",
          "type": "string"
        },
        {
          "name": "stage",
          "type": "uint256"
        },
        {
          "name": "_address",
          "type": "address"
        }
      ],
      "name": "getAllProductsPerOwner",
      "outputs": [
        {
          "name": "",
          "type": "string[]"
        }
      ],
      "payable": false,
      "stateMutability": "view",
      "type": "function"
    },
    {
      "constant": false,
      "inputs": [
        {
          "name": "_address",
          "type": "address"
        },
        {
          "name": "_id",
          "type": "string"
        },
        {
          "name": "_productName",
          "type": "string"
        },
        {
          "name": "stage",
          "type": "uint256"
        }
      ],
      "name": "insertNewId",
      "outputs": [],
      "payable": false,
      "stateMutability": "nonpayable",
      "type": "function"
    },
    {
      "constant": false,
      "inputs": [
        {
          "name": "_productName",
          "type": "string"
        },
        {
          "name": "_owner",
          "type": "address"
        },
        {
          "name": "stage",
          "type": "uint256"
        },
        {
          "name": "len",
          "type": "uint256"
        }
      ],
      "name": "deleteFromOwner",
      "outputs": [],
      "payable": false,
      "stateMutability": "nonpayable",
      "type": "function"
    },
    {
      "constant": false,
      "inputs": [
        {
          "name": "id",
          "type": "string"
        },
        {
          "name": "wt",
          "type": "uint256"
        }
      ],
      "name": "updateCurrentItem",
      "outputs": [],
      "payable": false,
      "stateMutability": "nonpayable",
      "type": "function"
    },
    {
      "constant": false,
      "inputs": [
        {
          "name": "stateOfResidence",
          "type": "string"
        },
        {
          "name": "_productType",
          "type": "string"
        },
        {
          "name": "newProductID",
          "type": "string"
        }
      ],
      "name": "insertInProductionList",
      "outputs": [],
      "payable": false,
      "stateMutability": "nonpayable",
      "type": "function"
    },
    {
      "constant": true,
      "inputs": [
        {
          "name": "state",
          "type": "string"
        },
        {
          "name": "crop",
          "type": "string"
        }
      ],
      "name": "monitorProductsCount",
      "outputs": [
        {
          "name": "",
          "type": "uint256"
        }
      ],
      "payable": false,
      "stateMutability": "view",
      "type": "function"
    },
    {
      "constant": true,
      "inputs": [
        {
          "name": "state",
          "type": "string"
        },
        {
          "name": "crop",
          "type": "string"
        },
        {
          "name": "index",
          "type": "uint256"
        }
      ],
      "name": "monitorProducts",
      "outputs": [
        {
          "name": "",
          "type": "string"
        }
      ],
      "payable": false,
      "stateMutability": "view",
      "type": "function"
    },
    {
      "constant": true,
      "inputs": [
        {
          "name": "state",
          "type": "string"
        },
        {
          "name": "crop",
          "type": "string"
        }
      ],
      "name": "monitorAllProducts",
      "outputs": [
        {
          "name": "",
          "type": "string[]"
        }
      ],
      "payable": false,
      "stateMutability": "view",
      "type": "function"
    },
    {
      "constant": true,
      "inputs": [
        {
          "name": "_productName",
          "type": "string"
        },
        {
          "name": "_weight",
          "type": "uint256"
        },
        {
          "name": "_owner",
          "type": "address"
        },
        {
          "name": "stage",
          "type": "uint256"
        }
      ],
      "name": "checkAvailability",
      "outputs": [
        {
          "name": "",
          "type": "uint256"
        }
      ],
      "payable": false,
      "stateMutability": "view",
      "type": "function"
    }
  ],
  "bytecode": "0x6080604052610900604051908101604052806040805190810160405280600881526020017f61726563616e757400000000000000000000000000000000000000000000000081525081526020016040805190810160405280600981526020017f61726861722f747572000000000000000000000000000000000000000000000081525081526020016040805190810160405280600581526020017f62616a726100000000000000000000000000000000000000000000000000000081525081526020016040805190810160405280600681526020017f62616e616e61000000000000000000000000000000000000000000000000000081525081526020016040805190810160405280600681526020017f6261726c6579000000000000000000000000000000000000000000000000000081525081526020016040805190810160405280600681526020017f6268696e6469000000000000000000000000000000000000000000000000000081525081526020016040805190810160405280600c81526020017f626c61636b20706570706572000000000000000000000000000000000000000081525081526020016040805190810160405280600981526020017f626c61636b6772616d000000000000000000000000000000000000000000000081525081526020016040805190810160405280600781526020017f6272696e6a616c0000000000000000000000000000000000000000000000000081525081526020016040805190810160405280600781526020017f636162626167650000000000000000000000000000000000000000000000000081525081526020016040805190810160405280600881526020017f63617264616d6f6d00000000000000000000000000000000000000000000000081525081526020016040805190810160405280600681526020017f636172726f74000000000000000000000000000000000000000000000000000081525081526020016040805190810160405280600981526020017f6361736865776e7574000000000000000000000000000000000000000000000081525081526020016040805190810160405280600b81526020017f636173746f72207365656400000000000000000000000000000000000000000081525081526020016040805190810160405280600881526020017f6368696c6c69657300000000000000000000000000000000000000000000000081525081526020016040805190810160405280600c81526020017f636974727573206672756974000000000000000000000000000000000000000081525081526020016040805190810160405280600781526020017f636f636f6e75740000000000000000000000000000000000000000000000000081525081526020016040805190810160405280600681526020017f636f66666565000000000000000000000000000000000000000000000000000081525081526020016040805190810160405280600981526020017f636f7269616e646572000000000000000000000000000000000000000000000081525081526020016040805190810160405280600681526020017f636f74746f6e000000000000000000000000000000000000000000000000000081525081526020016040805190810160405280600d81526020017f636f77706561286c6f626961290000000000000000000000000000000000000081525081526020016040805190810160405280600a81526020017f6472756d20737469636b0000000000000000000000000000000000000000000081525081526020016040805190810160405280600681526020017f6761726c6963000000000000000000000000000000000000000000000000000081525081526020016040805190810160405280600681526020017f67696e676572000000000000000000000000000000000000000000000000000081525081526020016040805190810160405280600481526020017f6772616d0000000000000000000000000000000000000000000000000000000081525081526020016040805190810160405280600681526020017f677261706573000000000000000000000000000000000000000000000000000081525081526020016040805190810160405280600981526020017f67726f756e646e7574000000000000000000000000000000000000000000000081525081526020016040805190810160405280600981526020017f677561722073656564000000000000000000000000000000000000000000000081525081526020016040805190810160405280600a81526020017f686f7273652d6772616d0000000000000000000000000000000000000000000081525081526020016040805190810160405280600a81526020017f6a61636b2066727569740000000000000000000000000000000000000000000081525081526020016040805190810160405280600581526020017f6a6f77617200000000000000000000000000000000000000000000000000000081525081526020016040805190810160405280600481526020017f6a7574650000000000000000000000000000000000000000000000000000000081525081526020016040805190810160405280600781526020017f6b6865736172690000000000000000000000000000000000000000000000000081525081526020016040805190810160405280600581526020017f6b6f72726100000000000000000000000000000000000000000000000000000081525081526020016040805190810160405280600681526020017f6c656e74696c000000000000000000000000000000000000000000000000000081525081526020016040805190810160405280600781526020017f6c696e736565640000000000000000000000000000000000000000000000000081525081526020016040805190810160405280600581526020017f6d61697a6500000000000000000000000000000000000000000000000000000081525081526020016040805190810160405280600581526020017f6d616e676f00000000000000000000000000000000000000000000000000000081525081526020016040805190810160405280600681526020017f6d61736f6f72000000000000000000000000000000000000000000000000000081525081526020016040805190810160405280600581526020017f6d6573746100000000000000000000000000000000000000000000000000000081525081526020016040805190810160405280600981526020017f6d6f74686265616e73000000000000000000000000000000000000000000000081525081526020016040805190810160405280600881526020017f6d756e676265616e00000000000000000000000000000000000000000000000081525081526020016040805190810160405280600a81526020017f6e6967657220736565640000000000000000000000000000000000000000000081525081526020016040805190810160405280600581526020017f6f6e696f6e00000000000000000000000000000000000000000000000000000081525081526020016040805190810160405280600681526020017f6f72616e6765000000000000000000000000000000000000000000000000000081525081526020016040805190810160405280600681526020017f706170617961000000000000000000000000000000000000000000000000000081525081526020016040805190810160405280600981526020017f70696e656170706c65000000000000000000000000000000000000000000000081525081526020016040805190810160405280600b81526020017f706f6d656772616e61746500000000000000000000000000000000000000000081525081526020016040805190810160405280600681526020017f706f7461746f000000000000000000000000000000000000000000000000000081525081526020016040805190810160405280600481526020017f726167690000000000000000000000000000000000000000000000000000000081525081526020016040805190810160405280601181526020017f726170657365656420266d75737461726400000000000000000000000000000081525081526020016040805190810160405280600681526020017f726564697368000000000000000000000000000000000000000000000000000081525081526020016040805190810160405280600481526020017f726963650000000000000000000000000000000000000000000000000000000081525081526020016040805190810160405280600681526020017f727562626572000000000000000000000000000000000000000000000000000081525081526020016040805190810160405280600981526020017f736166666c6f776572000000000000000000000000000000000000000000000081525081526020016040805190810160405280600581526020017f73616d616900000000000000000000000000000000000000000000000000000081525081526020016040805190810160405280600881526020017f73616e6e68616d7000000000000000000000000000000000000000000000000081525081526020016040805190810160405280600781526020017f736573616d756d0000000000000000000000000000000000000000000000000081525081526020016040805190810160405280600d81526020017f736d616c6c206d696c6c6574730000000000000000000000000000000000000081525081526020016040805190810160405280600881526020017f736f79616265616e00000000000000000000000000000000000000000000000081525081526020016040805190810160405280600981526020017f737567617263616e65000000000000000000000000000000000000000000000081525081526020016040805190810160405280600981526020017f73756e666c6f776572000000000000000000000000000000000000000000000081525081526020016040805190810160405280600c81526020017f737765657420706f7461746f000000000000000000000000000000000000000081525081526020016040805190810160405280600781526020017f746170696f63610000000000000000000000000000000000000000000000000081525081526020016040805190810160405280600381526020017f746561000000000000000000000000000000000000000000000000000000000081525081526020016040805190810160405280600781526020017f746f626163636f0000000000000000000000000000000000000000000000000081525081526020016040805190810160405280600681526020017f746f6d61746f000000000000000000000000000000000000000000000000000081525081526020016040805190810160405280600881526020017f7475726d6572696300000000000000000000000000000000000000000000000081525081526020016040805190810160405280600681526020017f7475726e6970000000000000000000000000000000000000000000000000000081525081526020016040805190810160405280600481526020017f757261640000000000000000000000000000000000000000000000000000000081525081526020016040805190810160405280600681526020017f766172616775000000000000000000000000000000000000000000000000000081525081526020016040805190810160405280600581526020017f77686561740000000000000000000000000000000000000000000000000000008152508152506001906048620010b992919062001207565b50348015620010c757600080fd5b50604051602080620040b28339810180604052620010e99190810190620013b0565b806000806101000a81548173ffffffffffffffffffffffffffffffffffffffff021916908373ffffffffffffffffffffffffffffffffffffffff1602179055506200114262001149640100000000026401000000009004565b50620013fc565b60008090505b60018054905081101562001204576001810160036001838154811015156200117357fe5b906000526020600020016040518082805460018160011615610100020316600290048015620011dc5780601f10620011b9576101008083540402835291820191620011dc565b820191906000526020600020905b815481529060010190602001808311620011c7575b505091505090815260200160405180910390206000018190555080806001019150506200114f565b50565b8280548282559060005260206000209081019282156200125b579160200282015b828111156200125a578251829080519060200190620012499291906200126e565b509160200191906001019062001228565b5b5090506200126a9190620012f5565b5090565b828054600181600116156101000203166002900490600052602060002090601f016020900481019282601f10620012b157805160ff1916838001178555620012e2565b82800160010185558215620012e2579182015b82811115620012e1578251825591602001919060010190620012c4565b5b509050620012f1919062001326565b5090565b6200132391905b808211156200131f57600081816200131591906200134e565b50600101620012fc565b5090565b90565b6200134b91905b80821115620013475760008160009055506001016200132d565b5090565b90565b50805460018160011615610100020316600290046000825580601f1062001376575062001397565b601f01602090049060005260206000209081019062001396919062001326565b5b50565b6000620013a88251620013dc565b905092915050565b600060208284031215620013c357600080fd5b6000620013d3848285016200139a565b91505092915050565b600073ffffffffffffffffffffffffffffffffffffffff82169050919050565b612ca6806200140c6000396000f300608060405260043610610112576000357c0100000000000000000000000000000000000000000000000000000000900463ffffffff1680630b58127d146101175780630dcc9dc51461014057806312f773321461017d578063187915ec146101a857806327ad2604146101e55780632882722c1461020e5780632d6e7b4b1461024b5780635f1a166d146102885780635f983bd0146102c55780636521f4371461030257806385ae08301461032b578063948c82601461036857806398d91c2c146103a5578063a6f04a7e146103ce578063bff84a55146103f7578063cb78b52714610434578063cddfe42114610471578063d27a69ff1461049a578063fb70f5e0146104d7578063fe54577314610514575b600080fd5b34801561012357600080fd5b5061013e6004803603610139919081019061214a565b61053d565b005b34801561014c57600080fd5b50610167600480360361016291908101906124d3565b6106dd565b6040516101749190612a65565b60405180910390f35b34801561018957600080fd5b5061019261086c565b60405161019f9190612a4a565b60405180910390f35b3480156101b457600080fd5b506101cf60048036036101ca9190810190612688565b610891565b6040516101dc9190612a0d565b60405180910390f35b3480156101f157600080fd5b5061020c6004803603610207919081019061204a565b6108f7565b005b34801561021a57600080fd5b50610235600480360361023091908101906125a6565b610b99565b6040516102429190612a28565b60405180910390f35b34801561025757600080fd5b50610272600480360361026d9190810190612552565b610ce4565b60405161027f9190612b04565b60405180910390f35b34801561029457600080fd5b506102af60048036036102aa91908101906125a6565b610d15565b6040516102bc9190612b04565b60405180910390f35b3480156102d157600080fd5b506102ec60048036036102e79190810190612426565b610d84565b6040516102f99190612ac7565b60405180910390f35b34801561030e57600080fd5b50610329600480360361032491908101906121e5565b610e32565b005b34801561033757600080fd5b50610352600480360361034d9190810190612426565b610f41565b60405161035f9190612b04565b60405180910390f35b34801561037457600080fd5b5061038f600480360361038a919081019061260d565b610f57565b60405161039c9190612a65565b60405180910390f35b3480156103b157600080fd5b506103cc60048036036103c7919081019061222a565b611073565b005b3480156103da57600080fd5b506103f560048036036103f091908101906126ef565b611173565b005b34801561040357600080fd5b5061041e60048036036104199190810190612467565b611448565b60405161042b9190612a28565b60405180910390f35b34801561044057600080fd5b5061045b60048036036104569190810190612426565b611606565b6040516104689190612ae2565b60405180910390f35b34801561047d57600080fd5b506104986004803603610493919081019061234e565b6118f1565b005b3480156104a657600080fd5b506104c160048036036104bc91908101906123a6565b611964565b6040516104ce9190612b04565b60405180910390f35b3480156104e357600080fd5b506104fe60048036036104f99190810190612467565b611a24565b60405161050b9190612b04565b60405180910390f35b34801561052057600080fd5b5061053b600480360361053691908101906122aa565b611b06565b005b600081600a61057d86868080601f016020809104026020016040519081016040528093929190818152602001838380828437820191505050505050610f41565b0201905060006105c085858080601f016020809104026020016040519081016040528093929190818152602001838380828437820191505050505050848a610d15565b141561064157600560008281526020019081526020016000206000018790806001815401808255809150509060018203906000526020600020016000909192909190916101000a81548173ffffffffffffffffffffffffffffffffffffffff021916908373ffffffffffffffffffffffffffffffffffffffff160217905550505b6005600082815260200190815260200160002060010160008873ffffffffffffffffffffffffffffffffffffffff1673ffffffffffffffffffffffffffffffffffffffff1681526020019081526020016000208686909180600181540180825580915050906001820390600052602060002001600090919293909192939091929091925091906106d2929190611d1e565b505050505050505050565b60606004846040518082805190602001908083835b60208310151561071757805182526020820191506020810190506020830392506106f2565b6001836020036101000a0380198251168184511680821785525050505050509050019150509081526020016040518091039020836040518082805190602001908083835b602083101515610780578051825260208201915060208101905060208303925061075b565b6001836020036101000a0380198251168184511680821785525050505050509050019150509081526020016040518091039020828154811015156107c057fe5b906000526020600020018054600181600116156101000203166002900480601f01602080910402602001604051908101604052809291908181526020018280546001816001161561010002031660029004801561085e5780601f106108335761010080835404028352916020019161085e565b820191906000526020600020905b81548152906001019060200180831161084157829003601f168201915b505050505090509392505050565b6000809054906101000a900473ffffffffffffffffffffffffffffffffffffffff1681565b60006005600084600a6108a388610f41565b02018152602001908152602001600020600001828154811015156108c357fe5b9060005260206000200160009054906101000a900473ffffffffffffffffffffffffffffffffffffffff1690509392505050565b8a6002848460405180838380828437820191505092505050908152602001604051809103902060000160006101000a81548173ffffffffffffffffffffffffffffffffffffffff021916908373ffffffffffffffffffffffffffffffffffffffff160217905550896002848460405180838380828437820191505092505050908152602001604051809103902060010160006101000a81548173ffffffffffffffffffffffffffffffffffffffff021916908373ffffffffffffffffffffffffffffffffffffffff160217905550886002848460405180838380828437820191505092505050908152602001604051809103902060020160006101000a81548173ffffffffffffffffffffffffffffffffffffffff021916908373ffffffffffffffffffffffffffffffffffffffff160217905550876002848460405180838380828437820191505092505050908152602001604051809103902060030160006101000a81548173ffffffffffffffffffffffffffffffffffffffff021916908373ffffffffffffffffffffffffffffffffffffffff160217905550866002848460405180838380828437820191505092505050908152602001604051809103902060040160006101000a81548173ffffffffffffffffffffffffffffffffffffffff021916908373ffffffffffffffffffffffffffffffffffffffff1602179055508585600285856040518083838082843782019150509250505090815260200160405180910390206005019190610b31929190611d1e565b508360028484604051808383808284378201915050925050509081526020016040518091039020600601819055508060028484604051808383808284378201915050925050509081526020016040518091039020600701819055505050505050505050505050565b60606005600084600a610bab88610f41565b0201815260200190815260200160002060010160008373ffffffffffffffffffffffffffffffffffffffff1673ffffffffffffffffffffffffffffffffffffffff168152602001908152602001600020805480602002602001604051908101604052809291908181526020016000905b82821015610cd7578382906000526020600020018054600181600116156101000203166002900480601f016020809104026020016040519081016040528092919081815260200182805460018160011615610100020316600290048015610cc35780601f10610c9857610100808354040283529160200191610cc3565b820191906000526020600020905b815481529060010190602001808311610ca657829003601f168201915b505050505081526020019060010190610c1b565b5050505090509392505050565b60006005600083600a610cf687610f41565b0201815260200190815260200160002060000180549050905092915050565b60006005600084600a610d2788610f41565b0201815260200190815260200160002060010160008373ffffffffffffffffffffffffffffffffffffffff1673ffffffffffffffffffffffffffffffffffffffff1681526020019081526020016000208054905090509392505050565b610d8c611d9e565b6003826040518082805190602001908083835b602083101515610dc45780518252602082019150602081019050602083039250610d9f565b6001836020036101000a0380198251168184511680821785525050505050509050019150509081526020016040518091039020608060405190810160405290816000820154815260200160018201548152602001600282015481526020016003820154815250509050919050565b60028282604051808383808284378201915050925050509081526020016040518091039020600080820160006101000a81549073ffffffffffffffffffffffffffffffffffffffff02191690556001820160006101000a81549073ffffffffffffffffffffffffffffffffffffffff02191690556002820160006101000a81549073ffffffffffffffffffffffffffffffffffffffff02191690556003820160006101000a81549073ffffffffffffffffffffffffffffffffffffffff02191690556004820160006101000a81549073ffffffffffffffffffffffffffffffffffffffff0219169055600582016000610f2b9190611dc7565b6006820160009055600782016000905550505050565b6000610f4c82610d84565b600001519050919050565b60606005600085600a610f6989610f41565b0201815260200190815260200160002060010160008473ffffffffffffffffffffffffffffffffffffffff1673ffffffffffffffffffffffffffffffffffffffff16815260200190815260200160002082815481101515610fc657fe5b906000526020600020018054600181600116156101000203166002900480601f0160208091040260200160405190810160405280929190818152602001828054600181600116156101000203166002900480156110645780601f1061103957610100808354040283529160200191611064565b820191906000526020600020905b81548152906001019060200180831161104757829003601f168201915b50505050509050949350505050565b60006005600084600a6110b78a8a8080601f016020809104026020016040519081016040528093929190818152602001838380828437820191505050505050610f41565b0201815260200190815260200160002060010160008573ffffffffffffffffffffffffffffffffffffffff1673ffffffffffffffffffffffffffffffffffffffff168152602001908152602001600020905081818181805490500391508161111f9190611e0f565b5060008180549050141561116b5761116a86868080601f0160208091040260200160405190810160405280939291908181526020018383808284378201915050505050508486611b96565b5b505050505050565b6000326000809054906101000a900473ffffffffffffffffffffffffffffffffffffffff1673ffffffffffffffffffffffffffffffffffffffff166346fb5b9c6040518163ffffffff167c0100000000000000000000000000000000000000000000000000000000028152600401602060405180830381600087803b1580156111fb57600080fd5b505af115801561120f573d6000803e3d6000fd5b505050506040513d601f19601f82011682018060405250611233919081019061276a565b806000809054906101000a900473ffffffffffffffffffffffffffffffffffffffff1673ffffffffffffffffffffffffffffffffffffffff166344276733846040518263ffffffff167c01000000000000000000000000000000000000000000000000000000000281526004016112aa9190612a0d565b602060405180830381600087803b1580156112c457600080fd5b505af11580156112d8573d6000803e3d6000fd5b505050506040513d601f19601f820116820180604052506112fc919081019061276a565b14151561133e576040517f08c379a000000000000000000000000000000000000000000000000000000000815260040161133590612aa7565b60405180910390fd5b86600061134a82610f41565b11151561138c576040517f08c379a000000000000000000000000000000000000000000000000000000000815260040161138390612a87565b60405180910390fd5b6003886040518082805190602001908083835b6020831015156113c4578051825260208201915060208101905060208303925061139f565b6001836020036101000a0380198251168184511680821785525050505050509050019150509081526020016040518091039020935086846001018190555060648660640185600101540281151561141757fe5b04846002018190555060648560640185600201540281151561143557fe5b0484600301819055505050505050505050565b60606004836040518082805190602001908083835b602083101515611482578051825260208201915060208101905060208303925061145d565b6001836020036101000a0380198251168184511680821785525050505050509050019150509081526020016040518091039020826040518082805190602001908083835b6020831015156114eb57805182526020820191506020810190506020830392506114c6565b6001836020036101000a0380198251168184511680821785525050505050509050019150509081526020016040518091039020805480602002602001604051908101604052809291908181526020016000905b828210156115fa578382906000526020600020018054600181600116156101000203166002900480601f0160208091040260200160405190810160405280929190818152602001828054600181600116156101000203166002900480156115e65780601f106115bb576101008083540402835291602001916115e6565b820191906000526020600020905b8154815290600101906020018083116115c957829003601f168201915b50505050508152602001906001019061153e565b50505050905092915050565b61160e611e3b565b6002826040518082805190602001908083835b6020831015156116465780518252602082019150602081019050602083039250611621565b6001836020036101000a038019825116818451168082178552505050505050905001915050908152602001604051809103902061010060405190810160405290816000820160009054906101000a900473ffffffffffffffffffffffffffffffffffffffff1673ffffffffffffffffffffffffffffffffffffffff1673ffffffffffffffffffffffffffffffffffffffff1681526020016001820160009054906101000a900473ffffffffffffffffffffffffffffffffffffffff1673ffffffffffffffffffffffffffffffffffffffff1673ffffffffffffffffffffffffffffffffffffffff1681526020016002820160009054906101000a900473ffffffffffffffffffffffffffffffffffffffff1673ffffffffffffffffffffffffffffffffffffffff1673ffffffffffffffffffffffffffffffffffffffff1681526020016003820160009054906101000a900473ffffffffffffffffffffffffffffffffffffffff1673ffffffffffffffffffffffffffffffffffffffff1673ffffffffffffffffffffffffffffffffffffffff1681526020016004820160009054906101000a900473ffffffffffffffffffffffffffffffffffffffff1673ffffffffffffffffffffffffffffffffffffffff1673ffffffffffffffffffffffffffffffffffffffff168152602001600582018054600181600116156101000203166002900480601f0160208091040260200160405190810160405280929190818152602001828054600181600116156101000203166002900480156118cd5780601f106118a2576101008083540402835291602001916118cd565b820191906000526020600020905b8154815290600101906020018083116118b057829003601f168201915b50505050508152602001600682015481526020016007820154815250509050919050565b8060028484604051808383808284378201915050925050509081526020016040518091039020600601600082825403925050819055506002838360405180838380828437820191505092505050908152602001604051809103902060070160008154809291906001019190505550505050565b600060606000806119a889898080601f0160208091040260200160405190810160405280939291908181526020018383808284378201915050505050508688610b99565b925060009150825190505b6000811180156119c257508682105b15611a00576119ea83600183038151811015156119db57fe5b90602001906020020151611606565b60c00151820191508080600190039150506119b3565b86821015611a115760009350611a18565b8083510393505b50505095945050505050565b60006004836040518082805190602001908083835b602083101515611a5e5780518252602082019150602081019050602083039250611a39565b6001836020036101000a0380198251168184511680821785525050505050509050019150509081526020016040518091039020826040518082805190602001908083835b602083101515611ac75780518252602082019150602081019050602083039250611aa2565b6001836020036101000a038019825116818451168082178552505050505050905001915050908152602001604051809103902080549050905092915050565b600486866040518083838082843782019150509250505090815260200160405180910390208484604051808383808284378201915050925050509081526020016040518091039020828290918060018154018082558091505090600182039060005260206000200160009091929390919293909192909192509190611b8c929190611d1e565b5050505050505050565b60008060006005600086600a611bab8a610f41565b020181526020019081526020016000206000019050600092505b8080549050831015611d16578373ffffffffffffffffffffffffffffffffffffffff168184815481101515611bf657fe5b9060005260206000200160009054906101000a900473ffffffffffffffffffffffffffffffffffffffff1673ffffffffffffffffffffffffffffffffffffffff161415611d09578291505b6001818054905003821015611cef578060018301815481101515611c6157fe5b9060005260206000200160009054906101000a900473ffffffffffffffffffffffffffffffffffffffff168183815481101515611c9a57fe5b9060005260206000200160006101000a81548173ffffffffffffffffffffffffffffffffffffffff021916908373ffffffffffffffffffffffffffffffffffffffff1602179055508180600101925050611c41565b80805480919060019003611d039190611eef565b50611d16565b8280600101935050611bc5565b505050505050565b828054600181600116156101000203166002900490600052602060002090601f016020900481019282601f10611d5f57803560ff1916838001178555611d8d565b82800160010185558215611d8d579182015b82811115611d8c578235825591602001919060010190611d71565b5b509050611d9a9190611f1b565b5090565b608060405190810160405280600081526020016000815260200160008152602001600081525090565b50805460018160011615610100020316600290046000825580601f10611ded5750611e0c565b601f016020900490600052602060002090810190611e0b9190611f1b565b5b50565b815481835581811115611e3657818360005260206000209182019101611e359190611f40565b5b505050565b61010060405190810160405280600073ffffffffffffffffffffffffffffffffffffffff168152602001600073ffffffffffffffffffffffffffffffffffffffff168152602001600073ffffffffffffffffffffffffffffffffffffffff168152602001600073ffffffffffffffffffffffffffffffffffffffff168152602001600073ffffffffffffffffffffffffffffffffffffffff1681526020016060815260200160008152602001600081525090565b815481835581811115611f1657818360005260206000209182019101611f159190611f1b565b5b505050565b611f3d91905b80821115611f39576000816000905550600101611f21565b5090565b90565b611f6991905b80821115611f655760008181611f5c9190611dc7565b50600101611f46565b5090565b90565b6000611f788235612bdd565b905092915050565b60008083601f8401121515611f9457600080fd5b8235905067ffffffffffffffff811115611fad57600080fd5b602083019150836001820283011115611fc557600080fd5b9250929050565b600082601f8301121515611fdf57600080fd5b8135611ff2611fed82612b4c565b612b1f565b9150808252602083016020830185838301111561200e57600080fd5b612019838284612c19565b50505092915050565b600061202e8235612bfd565b905092915050565b60006120428251612bfd565b905092915050565b60008060008060008060008060008060006101208c8e03121561206c57600080fd5b600061207a8e828f01611f6c565b9b5050602061208b8e828f01611f6c565b9a5050604061209c8e828f01611f6c565b99505060606120ad8e828f01611f6c565b98505060806120be8e828f01611f6c565b97505060a08c013567ffffffffffffffff8111156120db57600080fd5b6120e78e828f01611f80565b965096505060c06120fa8e828f01612022565b94505060e08c013567ffffffffffffffff81111561211757600080fd5b6121238e828f01611f80565b93509350506101006121378e828f01612022565b9150509295989b509295989b9093969950565b6000806000806000806080878903121561216357600080fd5b600061217189828a01611f6c565b965050602087013567ffffffffffffffff81111561218e57600080fd5b61219a89828a01611f80565b9550955050604087013567ffffffffffffffff8111156121b957600080fd5b6121c589828a01611f80565b935093505060606121d889828a01612022565b9150509295509295509295565b600080602083850312156121f857600080fd5b600083013567ffffffffffffffff81111561221257600080fd5b61221e85828601611f80565b92509250509250929050565b60008060008060006080868803121561224257600080fd5b600086013567ffffffffffffffff81111561225c57600080fd5b61226888828901611f80565b9550955050602061227b88828901611f6c565b935050604061228c88828901612022565b925050606061229d88828901612022565b9150509295509295909350565b600080600080600080606087890312156122c357600080fd5b600087013567ffffffffffffffff8111156122dd57600080fd5b6122e989828a01611f80565b9650965050602087013567ffffffffffffffff81111561230857600080fd5b61231489828a01611f80565b9450945050604087013567ffffffffffffffff81111561233357600080fd5b61233f89828a01611f80565b92509250509295509295509295565b60008060006040848603121561236357600080fd5b600084013567ffffffffffffffff81111561237d57600080fd5b61238986828701611f80565b9350935050602061239c86828701612022565b9150509250925092565b6000806000806000608086880312156123be57600080fd5b600086013567ffffffffffffffff8111156123d857600080fd5b6123e488828901611f80565b955095505060206123f788828901612022565b935050604061240888828901611f6c565b925050606061241988828901612022565b9150509295509295909350565b60006020828403121561243857600080fd5b600082013567ffffffffffffffff81111561245257600080fd5b61245e84828501611fcc565b91505092915050565b6000806040838503121561247a57600080fd5b600083013567ffffffffffffffff81111561249457600080fd5b6124a085828601611fcc565b925050602083013567ffffffffffffffff8111156124bd57600080fd5b6124c985828601611fcc565b9150509250929050565b6000806000606084860312156124e857600080fd5b600084013567ffffffffffffffff81111561250257600080fd5b61250e86828701611fcc565b935050602084013567ffffffffffffffff81111561252b57600080fd5b61253786828701611fcc565b925050604061254886828701612022565b9150509250925092565b6000806040838503121561256557600080fd5b600083013567ffffffffffffffff81111561257f57600080fd5b61258b85828601611fcc565b925050602061259c85828601612022565b9150509250929050565b6000806000606084860312156125bb57600080fd5b600084013567ffffffffffffffff8111156125d557600080fd5b6125e186828701611fcc565b93505060206125f286828701612022565b925050604061260386828701611f6c565b9150509250925092565b6000806000806080858703121561262357600080fd5b600085013567ffffffffffffffff81111561263d57600080fd5b61264987828801611fcc565b945050602061265a87828801612022565b935050604061266b87828801611f6c565b925050606061267c87828801612022565b91505092959194509250565b60008060006060848603121561269d57600080fd5b600084013567ffffffffffffffff8111156126b757600080fd5b6126c386828701611fcc565b93505060206126d486828701612022565b92505060406126e586828701612022565b9150509250925092565b6000806000806080858703121561270557600080fd5b600085013567ffffffffffffffff81111561271f57600080fd5b61272b87828801611fcc565b945050602061273c87828801612022565b935050604061274d87828801612022565b925050606061275e87828801612022565b91505092959194509250565b60006020828403121561277c57600080fd5b600061278a84828501612036565b91505092915050565b61279c81612bb3565b82525050565b60006127ad82612b85565b808452602084019350836020820285016127c685612b78565b60005b848110156127ff5783830388526127e1838351612855565b92506127ec82612ba6565b91506020880197506001810190506127c9565b508196508694505050505092915050565b61281981612c07565b82525050565b600061282a82612b9b565b80845261283e816020860160208601612c28565b61284781612c5b565b602085010191505092915050565b600061286082612b90565b808452612874816020860160208601612c28565b61287d81612c5b565b602085010191505092915050565b6000601a82527f43726f70206e6f7420616c6c6f77656420696e2073797374656d0000000000006020830152604082019050919050565b6000601a82527f526563656976657220726f6c6520697320696e636f72726563740000000000006020830152604082019050919050565b60808201600082015161290f60008501826129fe565b50602082015161292260208501826129fe565b50604082015161293560408501826129fe565b50606082015161294860608501826129fe565b50505050565b6000610100830160008301516129676000860182612793565b50602083015161297a6020860182612793565b50604083015161298d6040860182612793565b5060608301516129a06060860182612793565b5060808301516129b36080860182612793565b5060a083015184820360a08601526129cb8282612855565b91505060c08301516129e060c08601826129fe565b5060e08301516129f360e08601826129fe565b508091505092915050565b612a0781612bd3565b82525050565b6000602082019050612a226000830184612793565b92915050565b60006020820190508181036000830152612a4281846127a2565b905092915050565b6000602082019050612a5f6000830184612810565b92915050565b60006020820190508181036000830152612a7f818461281f565b905092915050565b60006020820190508181036000830152612aa08161288b565b9050919050565b60006020820190508181036000830152612ac0816128c2565b9050919050565b6000608082019050612adc60008301846128f9565b92915050565b60006020820190508181036000830152612afc818461294e565b905092915050565b6000602082019050612b1960008301846129fe565b92915050565b6000604051905081810181811067ffffffffffffffff82111715612b4257600080fd5b8060405250919050565b600067ffffffffffffffff821115612b6357600080fd5b601f19601f8301169050602081019050919050565b6000602082019050919050565b600081519050919050565b600081519050919050565b600081519050919050565b6000602082019050919050565b600073ffffffffffffffffffffffffffffffffffffffff82169050919050565b6000819050919050565b600073ffffffffffffffffffffffffffffffffffffffff82169050919050565b6000819050919050565b6000612c1282612bb3565b9050919050565b82818337600083830152505050565b60005b83811015612c46578082015181840152602081019050612c2b565b83811115612c55576000848401525b50505050565b6000601f19601f83011690509190505600a265627a7a723058209f03d603755ee3a5e58a29a19b6fcbb6f2cb7708e7727b3fd435d30137c810e16c6578706572696d656e74616cf50037",
  "source": "// SPDX-License-Identifier: GPL-3.0\npragma solidity ^0.4.22;\npragma experimental ABIEncoderV2;\n\nimport './Roles.sol';\nimport './HelperMethods.sol';\n\ncontract SupplyChain {\n    Roles public rc;\n    \n    string[] cropsAllowed = ['arecanut', 'arhar/tur', 'bajra', 'banana', 'barley', 'bhindi', 'black pepper', 'blackgram', 'brinjal', 'cabbage', 'cardamom', 'carrot', 'cashewnut', 'castor seed', 'chillies', 'citrus fruit', \n    'coconut', 'coffee', 'coriander', 'cotton', 'cowpea(lobia)', 'drum stick', 'garlic', 'ginger', 'gram', 'grapes', 'groundnut', 'guar seed', 'horse-gram', 'jack fruit', 'jowar', 'jute', 'khesari', 'korra', 'lentil',\n    'linseed', 'maize', 'mango', 'masoor', 'mesta', 'mothbeans', 'mungbean', 'niger seed', 'onion', 'orange', 'papaya', 'pineapple', 'pomegranate', 'potato', 'ragi', 'rapeseed &mustard', 'redish', 'rice', 'rubber',\n    'safflower', 'samai', 'sannhamp', 'sesamum', 'small millets', 'soyabean', 'sugarcane', 'sunflower', 'sweet potato', 'tapioca', 'tea', 'tobacco', 'tomato', 'turmeric', 'turnip', 'urad', 'varagu', 'wheat'];\n\n    struct Crop {\n        uint256 serialNo;\n        uint256 priceForDistributor;\n        uint256 priceForRetailer;\n        uint256 priceForConsumer;\n    }\n\n    struct Item {\n        address ownerID; \n        address farmerID; \n        address distributorID;  \n        address retailerID; \n        address consumerID;\n        \n        string  productType;\n        uint256 weight;\n        uint256 parts;\n    }\n\n    struct OwnerProduct {\n        address[] owners;\n        mapping (address=>string[]) perOwner;\n    }\n\n    mapping (string => Item) items;\n    mapping (string => Crop) cropPrices;\n\n    mapping(string => mapping(string => string[])) statewiseProduction;\n    mapping (uint256=>OwnerProduct) productAvailability;\n\n    modifier verifyReceiver(address _address, uint256 roleID) {\n        require(rc.getRole(_address) == roleID, \"Receiver role is incorrect\");\n        _;\n    }\n\n    modifier validProduct(string _productType) {\n        require(getSerialNumber(_productType) > 0, \"Crop not allowed in system\");\n        _;\n    }\n\n    function setPrice (string _product, uint256 basePrice, uint256 profitDistributor, uint256 profitRetailer) public\n    verifyReceiver(tx.origin, rc.governmentID())\n    validProduct(_product)\n    {\n        Crop storage crop = cropPrices[_product];\n        crop.priceForDistributor = basePrice;\n        crop.priceForRetailer = crop.priceForDistributor * (100 + profitDistributor) / 100;\n        crop.priceForConsumer = crop.priceForRetailer * (100 + profitRetailer) / 100;\n    }\n    \n    function removeFromArray(string _productName, uint256 stage, address _address) private {\n        uint256 i;\n        uint256 j;\n\n        address[] storage ownersArray = productAvailability[getSerialNumber(_productName) * 10 + stage].owners;\n        \n        for (i = 0; i < ownersArray.length; i++){\n            if (ownersArray[i] == _address) {\n                for (j = i; j < ownersArray.length - 1; j++) {\n                    ownersArray[j] = ownersArray[j+1];\n                }\n                ownersArray.length--;\n                break;\n            }\n        }\n    }\n    \n    function getItems(string id) public view returns(Item) {\n        return items[id];\n    }\n\n    function getSerialNumber(string crop) public view returns(uint256) {\n        return getCropPrices(crop).serialNo;\n    }\n    \n    function getCropPrices(string crop) public view returns(Crop) {\n        return cropPrices[crop];\n    }\n    \n    function insertItem(address _ownerID, address _farmerID, address _distributorID, address _retailerID, \n        address _consumerID, string  _productType, uint256 _weight, string _productID, uint256 _parts) external {\n        items[_productID].ownerID = _ownerID;\n        items[_productID].farmerID = _farmerID;\n        items[_productID].distributorID = _distributorID;\n        items[_productID].retailerID = _retailerID;\n        items[_productID].consumerID = _consumerID;\n        items[_productID].productType = _productType;\n        items[_productID].weight = _weight;\n        items[_productID].parts = _parts;\n    }\n    \n    function deleteItem(string _productID) external {\n        delete items[_productID];\n    }\n    \n    constructor(address _address) public {\n        rc = Roles(_address);        \n        setValidProducts();\n    }\n    \n    function setValidProducts() private {\n        for(uint256 i = 0; i < cropsAllowed.length; i++) {\n            cropPrices[cropsAllowed[i]].serialNo = i+1;\n        }\n    }\n\n    function getNumOwners (string _productName, uint256 stage) public view returns(uint256) {\n        return productAvailability[getSerialNumber(_productName) * 10 + stage].owners.length;\n    }\n\n    function getOwnerAddresses(string _productName, uint256 stage, uint256 index) public view returns(address) {\n        return productAvailability[getSerialNumber(_productName) * 10 + stage].owners[index];\n    }\n\n    function getNumProductsPerOwner(string _productName, uint256 stage, address _address) public view returns(uint256) {\n        return productAvailability[getSerialNumber(_productName) * 10 + stage].perOwner[_address].length;\n    }\n    \n    function getProductPerOwner(string _productName, uint256 stage, address _address, uint256 _index) public view returns(string) {\n        return productAvailability[getSerialNumber(_productName) * 10 + stage].perOwner[_address][_index];\n    }\n\n    function getAllProductsPerOwner(string _productName, uint256 stage, address _address) public view returns (string[]) {\n        return productAvailability[getSerialNumber(_productName) * 10 + stage].perOwner[_address];\n    }\n\n    function insertNewId(address _address, string _id, string _productName, uint256 stage) external {\n        uint256 serial = getSerialNumber(_productName)*10+stage;\n        if (getNumProductsPerOwner(_productName, stage, _address) == 0)\n        productAvailability[serial].owners.push(_address);\n        productAvailability[serial].perOwner[_address].push(_id);\n    }\n\n    function deleteFromOwner(string _productName, address _owner, uint256 stage, uint256 len) external {\n        string [] storage productArray = productAvailability[getSerialNumber(_productName) * 10 + stage].perOwner[_owner];\n        productArray.length -= len;\n        if (productArray.length == 0) {\n            removeFromArray(_productName,stage,_owner);\n        }\n    }\n\n    function updateCurrentItem(string id, uint256 wt) external {\n        items[id].weight -= wt;\n        items[id].parts++;\n    }\n\n    function insertInProductionList(string stateOfResidence, string _productType, string newProductID) external {\n        statewiseProduction[stateOfResidence][_productType].push(newProductID);\n    }\n\n    function monitorProductsCount(string state, string crop) public view returns (uint256) {\n        return statewiseProduction[state][crop].length;\n    }\n\n    function monitorProducts(string state, string crop, uint256 index) public view returns (string) {\n        return statewiseProduction[state][crop][index];\n    }\n\n    function monitorAllProducts(string state, string crop) public view returns (string[]) {\n        return statewiseProduction[state][crop];\n    }\n\n    function checkAvailability(string _productName, uint256 _weight, address _owner, uint256 stage) external view returns(uint256) {\n        string[] memory ids = getAllProductsPerOwner(_productName, stage, _owner);\n        uint256 weightPresent = 0;\n        for (uint256 i = ids.length ; i > 0 && weightPresent < _weight; i--) {\n            weightPresent = weightPresent + getItems(ids[i-1]).weight;\n        }\n        if (weightPresent < _weight) {\n            return 0;\n        } else {\n            return ids.length - i;\n        }\n    }\n}\n\n",
  "sourcePath": "/home/oindrila/Documents/smart_agriculture_react/contracts/SupplyChain.sol",
  "compiler": {
    "name": "solc",
    "version": "0.4.26+commit.4563c3fc.Emscripten.clang"
  },
  "schemaVersion": "3.4.5",
  "updatedAt": "2022-02-19T08:04:34.387Z",
  "networkType": "ethereum",
  "devdoc": {
    "methods": {}
  },
  "userdoc": {
    "methods": {}
  }
}