{
  "contractName": "SupplyChain",
  "abi": [
    {
      "constant": true,
      "inputs": [],
      "name": "rc",
      "outputs": [
        {
          "name": "",
          "type": "address"
        }
      ],
      "payable": false,
      "stateMutability": "view",
      "type": "function"
    },
    {
      "inputs": [
        {
          "name": "_address",
          "type": "address"
        }
      ],
      "payable": false,
      "stateMutability": "nonpayable",
      "type": "constructor"
    },
    {
      "constant": true,
      "inputs": [
        {
          "name": "productIDEnd",
          "type": "string"
        }
      ],
      "name": "getFullProductID",
      "outputs": [
        {
          "name": "",
          "type": "string"
        }
      ],
      "payable": false,
      "stateMutability": "view",
      "type": "function"
    },
    {
      "constant": false,
      "inputs": [
        {
          "name": "_productID",
          "type": "string"
        }
      ],
      "name": "removeFromArray",
      "outputs": [],
      "payable": false,
      "stateMutability": "nonpayable",
      "type": "function"
    },
    {
      "constant": false,
      "inputs": [
        {
          "name": "_productID",
          "type": "string"
        }
      ],
      "name": "pushInArray",
      "outputs": [],
      "payable": false,
      "stateMutability": "nonpayable",
      "type": "function"
    },
    {
      "constant": true,
      "inputs": [
        {
          "name": "id",
          "type": "string"
        }
      ],
      "name": "getItems",
      "outputs": [
        {
          "components": [
            {
              "name": "ownerID",
              "type": "address"
            },
            {
              "name": "farmerID",
              "type": "address"
            },
            {
              "name": "coldStorageId",
              "type": "address"
            },
            {
              "name": "distributorID",
              "type": "address"
            },
            {
              "name": "retailerID",
              "type": "address"
            },
            {
              "name": "consumerID",
              "type": "address"
            },
            {
              "name": "productType",
              "type": "string"
            },
            {
              "name": "weight",
              "type": "uint256"
            },
            {
              "name": "itemState",
              "type": "uint8"
            }
          ],
          "name": "",
          "type": "tuple"
        }
      ],
      "payable": false,
      "stateMutability": "view",
      "type": "function"
    },
    {
      "constant": true,
      "inputs": [
        {
          "name": "crop",
          "type": "string"
        }
      ],
      "name": "getCropPrices",
      "outputs": [
        {
          "components": [
            {
              "name": "priceForDistributor",
              "type": "uint256"
            },
            {
              "name": "priceForRetailer",
              "type": "uint256"
            },
            {
              "name": "priceForConsumer",
              "type": "uint256"
            },
            {
              "name": "present",
              "type": "bool"
            }
          ],
          "name": "",
          "type": "tuple"
        }
      ],
      "payable": false,
      "stateMutability": "view",
      "type": "function"
    },
    {
      "constant": false,
      "inputs": [
        {
          "name": "_ownerID",
          "type": "address"
        },
        {
          "name": "_farmerID",
          "type": "address"
        },
        {
          "name": "_coldStorageId",
          "type": "address"
        },
        {
          "name": "_distributorID",
          "type": "address"
        },
        {
          "name": "_retailerID",
          "type": "address"
        },
        {
          "name": "_consumerID",
          "type": "address"
        },
        {
          "name": "_productType",
          "type": "string"
        },
        {
          "name": "_weight",
          "type": "uint256"
        },
        {
          "name": "_itemState",
          "type": "uint8"
        },
        {
          "name": "_productID",
          "type": "string"
        }
      ],
      "name": "insertItem",
      "outputs": [],
      "payable": false,
      "stateMutability": "nonpayable",
      "type": "function"
    },
    {
      "constant": false,
      "inputs": [
        {
          "name": "_productID",
          "type": "string"
        }
      ],
      "name": "deleteItem",
      "outputs": [],
      "payable": false,
      "stateMutability": "nonpayable",
      "type": "function"
    },
    {
      "constant": false,
      "inputs": [
        {
          "name": "_product",
          "type": "string"
        },
        {
          "name": "basePrice",
          "type": "uint256"
        },
        {
          "name": "profitDistributor",
          "type": "uint256"
        },
        {
          "name": "profitRetailer",
          "type": "uint256"
        }
      ],
      "name": "setPrice",
      "outputs": [],
      "payable": false,
      "stateMutability": "nonpayable",
      "type": "function"
    },
    {
      "constant": false,
      "inputs": [
        {
          "name": "_productType",
          "type": "string"
        },
        {
          "name": "_weight",
          "type": "uint256"
        }
      ],
      "name": "plantItem",
      "outputs": [],
      "payable": false,
      "stateMutability": "nonpayable",
      "type": "function"
    }
  ],
  "bytecode": "0x6080604052610900604051908101604052806040805190810160405280600881526020017f61726563616e757400000000000000000000000000000000000000000000000081525081526020016040805190810160405280600981526020017f61726861722f747572000000000000000000000000000000000000000000000081525081526020016040805190810160405280600581526020017f62616a726100000000000000000000000000000000000000000000000000000081525081526020016040805190810160405280600681526020017f62616e616e61000000000000000000000000000000000000000000000000000081525081526020016040805190810160405280600681526020017f6261726c6579000000000000000000000000000000000000000000000000000081525081526020016040805190810160405280600681526020017f6268696e6469000000000000000000000000000000000000000000000000000081525081526020016040805190810160405280600c81526020017f626c61636b20706570706572000000000000000000000000000000000000000081525081526020016040805190810160405280600981526020017f626c61636b6772616d000000000000000000000000000000000000000000000081525081526020016040805190810160405280600781526020017f6272696e6a616c0000000000000000000000000000000000000000000000000081525081526020016040805190810160405280600781526020017f636162626167650000000000000000000000000000000000000000000000000081525081526020016040805190810160405280600881526020017f63617264616d6f6d00000000000000000000000000000000000000000000000081525081526020016040805190810160405280600681526020017f636172726f74000000000000000000000000000000000000000000000000000081525081526020016040805190810160405280600981526020017f6361736865776e7574000000000000000000000000000000000000000000000081525081526020016040805190810160405280600b81526020017f636173746f72207365656400000000000000000000000000000000000000000081525081526020016040805190810160405280600881526020017f6368696c6c69657300000000000000000000000000000000000000000000000081525081526020016040805190810160405280600c81526020017f636974727573206672756974000000000000000000000000000000000000000081525081526020016040805190810160405280600781526020017f636f636f6e75740000000000000000000000000000000000000000000000000081525081526020016040805190810160405280600681526020017f636f66666565000000000000000000000000000000000000000000000000000081525081526020016040805190810160405280600981526020017f636f7269616e646572000000000000000000000000000000000000000000000081525081526020016040805190810160405280600681526020017f636f74746f6e000000000000000000000000000000000000000000000000000081525081526020016040805190810160405280600d81526020017f636f77706561286c6f626961290000000000000000000000000000000000000081525081526020016040805190810160405280600a81526020017f6472756d20737469636b0000000000000000000000000000000000000000000081525081526020016040805190810160405280600681526020017f6761726c6963000000000000000000000000000000000000000000000000000081525081526020016040805190810160405280600681526020017f67696e676572000000000000000000000000000000000000000000000000000081525081526020016040805190810160405280600481526020017f6772616d0000000000000000000000000000000000000000000000000000000081525081526020016040805190810160405280600681526020017f677261706573000000000000000000000000000000000000000000000000000081525081526020016040805190810160405280600981526020017f67726f756e646e7574000000000000000000000000000000000000000000000081525081526020016040805190810160405280600981526020017f677561722073656564000000000000000000000000000000000000000000000081525081526020016040805190810160405280600a81526020017f686f7273652d6772616d0000000000000000000000000000000000000000000081525081526020016040805190810160405280600a81526020017f6a61636b2066727569740000000000000000000000000000000000000000000081525081526020016040805190810160405280600581526020017f6a6f77617200000000000000000000000000000000000000000000000000000081525081526020016040805190810160405280600481526020017f6a7574650000000000000000000000000000000000000000000000000000000081525081526020016040805190810160405280600781526020017f6b6865736172690000000000000000000000000000000000000000000000000081525081526020016040805190810160405280600581526020017f6b6f72726100000000000000000000000000000000000000000000000000000081525081526020016040805190810160405280600681526020017f6c656e74696c000000000000000000000000000000000000000000000000000081525081526020016040805190810160405280600781526020017f6c696e736565640000000000000000000000000000000000000000000000000081525081526020016040805190810160405280600581526020017f6d61697a6500000000000000000000000000000000000000000000000000000081525081526020016040805190810160405280600581526020017f6d616e676f00000000000000000000000000000000000000000000000000000081525081526020016040805190810160405280600681526020017f6d61736f6f72000000000000000000000000000000000000000000000000000081525081526020016040805190810160405280600581526020017f6d6573746100000000000000000000000000000000000000000000000000000081525081526020016040805190810160405280600981526020017f6d6f74686265616e73000000000000000000000000000000000000000000000081525081526020016040805190810160405280600881526020017f6d756e676265616e00000000000000000000000000000000000000000000000081525081526020016040805190810160405280600a81526020017f6e6967657220736565640000000000000000000000000000000000000000000081525081526020016040805190810160405280600581526020017f6f6e696f6e00000000000000000000000000000000000000000000000000000081525081526020016040805190810160405280600681526020017f6f72616e6765000000000000000000000000000000000000000000000000000081525081526020016040805190810160405280600681526020017f706170617961000000000000000000000000000000000000000000000000000081525081526020016040805190810160405280600981526020017f70696e656170706c65000000000000000000000000000000000000000000000081525081526020016040805190810160405280600b81526020017f706f6d656772616e61746500000000000000000000000000000000000000000081525081526020016040805190810160405280600681526020017f706f7461746f000000000000000000000000000000000000000000000000000081525081526020016040805190810160405280600481526020017f726167690000000000000000000000000000000000000000000000000000000081525081526020016040805190810160405280601181526020017f726170657365656420266d75737461726400000000000000000000000000000081525081526020016040805190810160405280600681526020017f726564697368000000000000000000000000000000000000000000000000000081525081526020016040805190810160405280600481526020017f726963650000000000000000000000000000000000000000000000000000000081525081526020016040805190810160405280600681526020017f727562626572000000000000000000000000000000000000000000000000000081525081526020016040805190810160405280600981526020017f736166666c6f776572000000000000000000000000000000000000000000000081525081526020016040805190810160405280600581526020017f73616d616900000000000000000000000000000000000000000000000000000081525081526020016040805190810160405280600881526020017f73616e6e68616d7000000000000000000000000000000000000000000000000081525081526020016040805190810160405280600781526020017f736573616d756d0000000000000000000000000000000000000000000000000081525081526020016040805190810160405280600d81526020017f736d616c6c206d696c6c6574730000000000000000000000000000000000000081525081526020016040805190810160405280600881526020017f736f79616265616e00000000000000000000000000000000000000000000000081525081526020016040805190810160405280600981526020017f737567617263616e65000000000000000000000000000000000000000000000081525081526020016040805190810160405280600981526020017f73756e666c6f776572000000000000000000000000000000000000000000000081525081526020016040805190810160405280600c81526020017f737765657420706f7461746f000000000000000000000000000000000000000081525081526020016040805190810160405280600781526020017f746170696f63610000000000000000000000000000000000000000000000000081525081526020016040805190810160405280600381526020017f746561000000000000000000000000000000000000000000000000000000000081525081526020016040805190810160405280600781526020017f746f626163636f0000000000000000000000000000000000000000000000000081525081526020016040805190810160405280600681526020017f746f6d61746f000000000000000000000000000000000000000000000000000081525081526020016040805190810160405280600881526020017f7475726d6572696300000000000000000000000000000000000000000000000081525081526020016040805190810160405280600681526020017f7475726e6970000000000000000000000000000000000000000000000000000081525081526020016040805190810160405280600481526020017f757261640000000000000000000000000000000000000000000000000000000081525081526020016040805190810160405280600681526020017f766172616775000000000000000000000000000000000000000000000000000081525081526020016040805190810160405280600581526020017f77686561740000000000000000000000000000000000000000000000000000008152508152506001906048620010b992919062001220565b50348015620010c757600080fd5b5060405160208062003f868339810180604052620010e99190810190620013c9565b6001600281905550806000806101000a81548173ffffffffffffffffffffffffffffffffffffffff021916908373ffffffffffffffffffffffffffffffffffffffff1602179055506200114a62001151640100000000026401000000009004565b5062001415565b60008090505b6001805490508110156200121d57600160046001838154811015156200117957fe5b906000526020600020016040518082805460018160011615610100020316600290048015620011e25780601f10620011bf576101008083540402835291820191620011e2565b820191906000526020600020905b815481529060010190602001808311620011cd575b5050915050908152602001604051809103902060030160006101000a81548160ff021916908315150217905550808060010191505062001157565b50565b82805482825590600052602060002090810192821562001274579160200282015b82811115620012735782518290805190602001906200126292919062001287565b509160200191906001019062001241565b5b5090506200128391906200130e565b5090565b828054600181600116156101000203166002900490600052602060002090601f016020900481019282601f10620012ca57805160ff1916838001178555620012fb565b82800160010185558215620012fb579182015b82811115620012fa578251825591602001919060010190620012dd565b5b5090506200130a91906200133f565b5090565b6200133c91905b808211156200133857600081816200132e919062001367565b5060010162001315565b5090565b90565b6200136491905b808211156200136057600081600090555060010162001346565b5090565b90565b50805460018160011615610100020316600290046000825580601f106200138f5750620013b0565b601f016020900490600052602060002090810190620013af91906200133f565b5b50565b6000620013c18251620013f5565b905092915050565b600060208284031215620013dc57600080fd5b6000620013ec84828501620013b3565b91505092915050565b600073ffffffffffffffffffffffffffffffffffffffff82169050919050565b612b6180620014256000396000f3006080604052600436106100a4576000357c0100000000000000000000000000000000000000000000000000000000900463ffffffff1680630830fef6146100a957806312f77332146100d257806326468153146100fd5780634be5aaf5146101265780635f983bd0146101635780636521f437146101a05780636e9c6fb2146101c9578063a6f04a7e146101f2578063b8616dfe1461021b578063cb78b52714610244575b600080fd5b3480156100b557600080fd5b506100d060048036036100cb9190810190612580565b610281565b005b3480156100de57600080fd5b506100e76109aa565b6040516100f491906128f8565b60405180910390f35b34801561010957600080fd5b50610124600480360361011f919081019061253f565b6109cf565b005b34801561013257600080fd5b5061014d6004803603610148919081019061253f565b610b47565b60405161015a9190612913565b60405180910390f35b34801561016f57600080fd5b5061018a6004803603610185919081019061253f565b610d63565b6040516101979190612975565b60405180910390f35b3480156101ac57600080fd5b506101c760048036036101c2919081019061253f565b610e22565b005b3480156101d557600080fd5b506101f060048036036101eb919081019061253f565b610fa9565b005b3480156101fe57600080fd5b50610219600480360361021491908101906125d4565b610feb565b005b34801561022757600080fd5b50610242600480360361023d9190810190612434565b611337565b005b34801561025057600080fd5b5061026b6004803603610266919081019061253f565b6118d6565b6040516102789190612990565b60405180910390f35b61028961203b565b6060326000809054906101000a900473ffffffffffffffffffffffffffffffffffffffff1673ffffffffffffffffffffffffffffffffffffffff1663b67ac8736040518163ffffffff167c0100000000000000000000000000000000000000000000000000000000028152600401602060405180830381600087803b15801561031157600080fd5b505af1158015610325573d6000803e3d6000fd5b505050506040513d601f19601f82011682018060405250610349919081019061264f565b806000809054906101000a900473ffffffffffffffffffffffffffffffffffffffff1673ffffffffffffffffffffffffffffffffffffffff166344276733846040518263ffffffff167c01000000000000000000000000000000000000000000000000000000000281526004016103c091906128dd565b602060405180830381600087803b1580156103da57600080fd5b505af11580156103ee573d6000803e3d6000fd5b505050506040513d601f19601f82011682018060405250610412919081019061264f565b141515610454576040517f08c379a000000000000000000000000000000000000000000000000000000000815260040161044b90612935565b60405180910390fd5b85600115156004826040518082805190602001908083835b602083101515610491578051825260208201915060208101905060208303925061046c565b6001836020036101000a038019825116818451168082178552505050505050905001915050908152602001604051809103902060030160009054906101000a900460ff161515141515610519576040517f08c379a000000000000000000000000000000000000000000000000000000000815260040161051090612955565b60405180910390fd5b61052286611c3a565b61052d600254611c3a565b6040516020018083805190602001908083835b6020831015156105655780518252602082019150602081019050602083039250610540565b6001836020036101000a038019825116818451168082178552505050505050905001807f2d00000000000000000000000000000000000000000000000000000000000000815250600101807f312d00000000000000000000000000000000000000000000000000000000000081525060020182805190602001908083835b60208310151561060857805182526020820191506020810190506020830392506105e3565b6001836020036101000a03801982511681845116808217855250505050505090500192505050604051602081830303815290604052935032856000019073ffffffffffffffffffffffffffffffffffffffff16908173ffffffffffffffffffffffffffffffffffffffff168152505032856020019073ffffffffffffffffffffffffffffffffffffffff16908173ffffffffffffffffffffffffffffffffffffffff1681525050868560c00181905250858560e0018181525050600185610100019060068111156106d557fe5b908160068111156106e257fe5b81525050846003856040518082805190602001908083835b60208310151561071f57805182526020820191506020810190506020830392506106fa565b6001836020036101000a038019825116818451168082178552505050505050905001915050908152602001604051809103902060008201518160000160006101000a81548173ffffffffffffffffffffffffffffffffffffffff021916908373ffffffffffffffffffffffffffffffffffffffff16021790555060208201518160010160006101000a81548173ffffffffffffffffffffffffffffffffffffffff021916908373ffffffffffffffffffffffffffffffffffffffff16021790555060408201518160020160006101000a81548173ffffffffffffffffffffffffffffffffffffffff021916908373ffffffffffffffffffffffffffffffffffffffff16021790555060608201518160030160006101000a81548173ffffffffffffffffffffffffffffffffffffffff021916908373ffffffffffffffffffffffffffffffffffffffff16021790555060808201518160040160006101000a81548173ffffffffffffffffffffffffffffffffffffffff021916908373ffffffffffffffffffffffffffffffffffffffff16021790555060a08201518160050160006101000a81548173ffffffffffffffffffffffffffffffffffffffff021916908373ffffffffffffffffffffffffffffffffffffffff16021790555060c0820151816006019080519060200190610918929190612117565b5060e082015181600701556101008201518160080160006101000a81548160ff0219169083600681111561094857fe5b0217905550905050600584908060018154018082558091505090600182039060005260206000200160009091929091909150908051906020019061098d929190612197565b505060026000815480929190600101919050555050505050505050565b6000809054906101000a900473ffffffffffffffffffffffffffffffffffffffff1681565b600080600091505b600580549050821015610b4257610a9f6005838154811015156109f657fe5b906000526020600020018054600181600116156101000203166002900480601f016020809104026020016040519081016040528092919081815260200182805460018160011615610100020316600290048015610a945780601f10610a6957610100808354040283529160200191610a94565b820191906000526020600020905b815481529060010190602001808311610a7757829003601f168201915b505050505084611d8f565b15610b35578190505b600160058054905003811015610b1a57600560018201815481101515610aca57fe5b90600052602060002001600582815481101515610ae357fe5b906000526020600020019080546001816001161561010002031660029004610b0c929190612217565b508080600101915050610aa8565b6005805480919060019003610b2f919061229e565b50610b42565b81806001019250506109d7565b505050565b606060008090505b600580549050811015610d4957610c7e610c78600583815481101515610b7157fe5b906000526020600020018054600181600116156101000203166002900480601f016020809104026020016040519081016040528092919081815260200182805460018160011615610100020316600290048015610c0f5780601f10610be457610100808354040283529160200191610c0f565b820191906000526020600020905b815481529060010190602001808311610bf257829003601f168201915b50505050508551600585815481101515610c2557fe5b9060005260206000200180546001816001161561010002031660029004905003600585815481101515610c5457fe5b90600052602060002001805460018160011615610100020316600290049050611f40565b84611d8f565b15610d3c57600581815481101515610c9257fe5b906000526020600020018054600181600116156101000203166002900480601f016020809104026020016040519081016040528092919081815260200182805460018160011615610100020316600290048015610d305780601f10610d0557610100808354040283529160200191610d30565b820191906000526020600020905b815481529060010190602001808311610d1357829003601f168201915b50505050509150610d5d565b8080600101915050610b4f565b602060405190810160405280600081525091505b50919050565b610d6b6122ca565b6004826040518082805190602001908083835b602083101515610da35780518252602082019150602081019050602083039250610d7e565b6001836020036101000a0380198251168184511680821785525050505050509050019150509081526020016040518091039020608060405190810160405290816000820154815260200160018201548152602001600282015481526020016003820160009054906101000a900460ff1615151515815250509050919050565b6003816040518082805190602001908083835b602083101515610e5a5780518252602082019150602081019050602083039250610e35565b6001836020036101000a0380198251168184511680821785525050505050509050019150509081526020016040518091039020600080820160006101000a81549073ffffffffffffffffffffffffffffffffffffffff02191690556001820160006101000a81549073ffffffffffffffffffffffffffffffffffffffff02191690556002820160006101000a81549073ffffffffffffffffffffffffffffffffffffffff02191690556003820160006101000a81549073ffffffffffffffffffffffffffffffffffffffff02191690556004820160006101000a81549073ffffffffffffffffffffffffffffffffffffffff02191690556005820160006101000a81549073ffffffffffffffffffffffffffffffffffffffff0219169055600682016000610f8891906122f5565b60078201600090556008820160006101000a81549060ff0219169055505050565b6005819080600181540180825580915050906001820390600052602060002001600090919290919091509080519060200190610fe6929190612197565b505050565b6000326000809054906101000a900473ffffffffffffffffffffffffffffffffffffffff1673ffffffffffffffffffffffffffffffffffffffff166346fb5b9c6040518163ffffffff167c0100000000000000000000000000000000000000000000000000000000028152600401602060405180830381600087803b15801561107357600080fd5b505af1158015611087573d6000803e3d6000fd5b505050506040513d601f19601f820116820180604052506110ab919081019061264f565b806000809054906101000a900473ffffffffffffffffffffffffffffffffffffffff1673ffffffffffffffffffffffffffffffffffffffff166344276733846040518263ffffffff167c010000000000000000000000000000000000000000000000000000000002815260040161112291906128dd565b602060405180830381600087803b15801561113c57600080fd5b505af1158015611150573d6000803e3d6000fd5b505050506040513d601f19601f82011682018060405250611174919081019061264f565b1415156111b6576040517f08c379a00000000000000000000000000000000000000000000000000000000081526004016111ad90612935565b60405180910390fd5b86600115156004826040518082805190602001908083835b6020831015156111f357805182526020820191506020810190506020830392506111ce565b6001836020036101000a038019825116818451168082178552505050505050905001915050908152602001604051809103902060030160009054906101000a900460ff16151514151561127b576040517f08c379a000000000000000000000000000000000000000000000000000000000815260040161127290612955565b60405180910390fd5b6004886040518082805190602001908083835b6020831015156112b3578051825260208201915060208101905060208303925061128e565b6001836020036101000a0380198251168184511680821785525050505050509050019150509081526020016040518091039020935086846000018190555060648660640185600001540281151561130657fe5b04846001018190555060648560640185600101540281151561132457fe5b0484600201819055505050505050505050565b896003826040518082805190602001908083835b602083101515611370578051825260208201915060208101905060208303925061134b565b6001836020036101000a038019825116818451168082178552505050505050905001915050908152602001604051809103902060000160006101000a81548173ffffffffffffffffffffffffffffffffffffffff021916908373ffffffffffffffffffffffffffffffffffffffff160217905550886003826040518082805190602001908083835b60208310151561141d57805182526020820191506020810190506020830392506113f8565b6001836020036101000a038019825116818451168082178552505050505050905001915050908152602001604051809103902060010160006101000a81548173ffffffffffffffffffffffffffffffffffffffff021916908373ffffffffffffffffffffffffffffffffffffffff160217905550876003826040518082805190602001908083835b6020831015156114ca57805182526020820191506020810190506020830392506114a5565b6001836020036101000a038019825116818451168082178552505050505050905001915050908152602001604051809103902060020160006101000a81548173ffffffffffffffffffffffffffffffffffffffff021916908373ffffffffffffffffffffffffffffffffffffffff160217905550866003826040518082805190602001908083835b6020831015156115775780518252602082019150602081019050602083039250611552565b6001836020036101000a038019825116818451168082178552505050505050905001915050908152602001604051809103902060030160006101000a81548173ffffffffffffffffffffffffffffffffffffffff021916908373ffffffffffffffffffffffffffffffffffffffff160217905550856003826040518082805190602001908083835b60208310151561162457805182526020820191506020810190506020830392506115ff565b6001836020036101000a038019825116818451168082178552505050505050905001915050908152602001604051809103902060040160006101000a81548173ffffffffffffffffffffffffffffffffffffffff021916908373ffffffffffffffffffffffffffffffffffffffff160217905550846003826040518082805190602001908083835b6020831015156116d157805182526020820191506020810190506020830392506116ac565b6001836020036101000a038019825116818451168082178552505050505050905001915050908152602001604051809103902060050160006101000a81548173ffffffffffffffffffffffffffffffffffffffff021916908373ffffffffffffffffffffffffffffffffffffffff160217905550836003826040518082805190602001908083835b60208310151561177e5780518252602082019150602081019050602083039250611759565b6001836020036101000a038019825116818451168082178552505050505050905001915050908152602001604051809103902060060190805190602001906117c7929190612197565b50826003826040518082805190602001908083835b60208310151561180157805182526020820191506020810190506020830392506117dc565b6001836020036101000a038019825116818451168082178552505050505050905001915050908152602001604051809103902060070181905550816003826040518082805190602001908083835b602083101515611874578051825260208201915060208101905060208303925061184f565b6001836020036101000a038019825116818451168082178552505050505050905001915050908152602001604051809103902060080160006101000a81548160ff021916908360068111156118c557fe5b021790555050505050505050505050565b6118de61203b565b6003826040518082805190602001908083835b60208310151561191657805182526020820191506020810190506020830392506118f1565b6001836020036101000a038019825116818451168082178552505050505050905001915050908152602001604051809103902061012060405190810160405290816000820160009054906101000a900473ffffffffffffffffffffffffffffffffffffffff1673ffffffffffffffffffffffffffffffffffffffff1673ffffffffffffffffffffffffffffffffffffffff1681526020016001820160009054906101000a900473ffffffffffffffffffffffffffffffffffffffff1673ffffffffffffffffffffffffffffffffffffffff1673ffffffffffffffffffffffffffffffffffffffff1681526020016002820160009054906101000a900473ffffffffffffffffffffffffffffffffffffffff1673ffffffffffffffffffffffffffffffffffffffff1673ffffffffffffffffffffffffffffffffffffffff1681526020016003820160009054906101000a900473ffffffffffffffffffffffffffffffffffffffff1673ffffffffffffffffffffffffffffffffffffffff1673ffffffffffffffffffffffffffffffffffffffff1681526020016004820160009054906101000a900473ffffffffffffffffffffffffffffffffffffffff1673ffffffffffffffffffffffffffffffffffffffff1673ffffffffffffffffffffffffffffffffffffffff1681526020016005820160009054906101000a900473ffffffffffffffffffffffffffffffffffffffff1673ffffffffffffffffffffffffffffffffffffffff1673ffffffffffffffffffffffffffffffffffffffff168152602001600682018054600181600116156101000203166002900480601f016020809104026020016040519081016040528092919081815260200182805460018160011615610100020316600290048015611bf35780601f10611bc857610100808354040283529160200191611bf3565b820191906000526020600020905b815481529060010190602001808311611bd657829003601f168201915b50505050508152602001600782015481526020016008820160009054906101000a900460ff166006811115611c2457fe5b6006811115611c2f57fe5b815250509050919050565b606060008060606000851415611c87576040805190810160405280600181526020017f30000000000000000000000000000000000000000000000000000000000000008152509350611d87565b8492505b600083141515611cb1578180600101925050600a83811515611ca957fe5b049250611c8b565b816040519080825280601f01601f191660200182016040528015611ce45781602001602082028038833980820191505090505b5090506001820392505b600085141515611d8357600a85811515611d0457fe5b066030017f010000000000000000000000000000000000000000000000000000000000000002818480600190039550815181101515611d3f57fe5b9060200101907effffffffffffffffffffffffffffffffffffffffffffffffffffffffffffff1916908160001a905350600a85811515611d7b57fe5b049450611cee565b8093505b505050919050565b6000816040516020018082805190602001908083835b602083101515611dca5780518252602082019150602081019050602083039250611da5565b6001836020036101000a0380198251168184511680821785525050505050509050019150506040516020818303038152906040526040518082805190602001908083835b602083101515611e335780518252602082019150602081019050602083039250611e0e565b6001836020036101000a038019825116818451168082178552505050505050905001915050604051809103902060001916836040516020018082805190602001908083835b602083101515611e9d5780518252602082019150602081019050602083039250611e78565b6001836020036101000a0380198251168184511680821785525050505050509050019150506040516020818303038152906040526040518082805190602001908083835b602083101515611f065780518252602082019150602081019050602083039250611ee1565b6001836020036101000a03801982511681845116808217855250505050505090500191505060405180910390206000191614905092915050565b60608060008484036040519080825280601f01601f191660200182016040528015611f7a5781602001602082028038833980820191505090505b5091508490505b8381101561202f578581815181101515611f9757fe5b9060200101517f010000000000000000000000000000000000000000000000000000000000000090047f01000000000000000000000000000000000000000000000000000000000000000282868303815181101515611ff257fe5b9060200101907effffffffffffffffffffffffffffffffffffffffffffffffffffffffffffff1916908160001a9053508080600101915050611f81565b81925050509392505050565b61012060405190810160405280600073ffffffffffffffffffffffffffffffffffffffff168152602001600073ffffffffffffffffffffffffffffffffffffffff168152602001600073ffffffffffffffffffffffffffffffffffffffff168152602001600073ffffffffffffffffffffffffffffffffffffffff168152602001600073ffffffffffffffffffffffffffffffffffffffff168152602001600073ffffffffffffffffffffffffffffffffffffffff16815260200160608152602001600081526020016000600681111561211157fe5b81525090565b828054600181600116156101000203166002900490600052602060002090601f016020900481019282601f1061215857805160ff1916838001178555612186565b82800160010185558215612186579182015b8281111561218557825182559160200191906001019061216a565b5b509050612193919061233d565b5090565b828054600181600116156101000203166002900490600052602060002090601f016020900481019282601f106121d857805160ff1916838001178555612206565b82800160010185558215612206579182015b828111156122055782518255916020019190600101906121ea565b5b509050612213919061233d565b5090565b828054600181600116156101000203166002900490600052602060002090601f016020900481019282601f10612250578054855561228d565b8280016001018555821561228d57600052602060002091601f016020900482015b8281111561228c578254825591600101919060010190612271565b5b50905061229a919061233d565b5090565b8154818355818111156122c5578183600052602060002091820191016122c49190612362565b5b505050565b6080604051908101604052806000815260200160008152602001600081526020016000151581525090565b50805460018160011615610100020316600290046000825580601f1061231b575061233a565b601f016020900490600052602060002090810190612339919061233d565b5b50565b61235f91905b8082111561235b576000816000905550600101612343565b5090565b90565b61238b91905b80821115612387576000818161237e91906122f5565b50600101612368565b5090565b90565b600061239a8235612a6d565b905092915050565b60006123ae8235612a8d565b905092915050565b600082601f83011215156123c957600080fd5b81356123dc6123d7826129df565b6129b2565b915080825260208301602083018583830111156123f857600080fd5b612403838284612ad4565b50505092915050565b60006124188235612aa6565b905092915050565b600061242c8251612aa6565b905092915050565b6000806000806000806000806000806101408b8d03121561245457600080fd5b60006124628d828e0161238e565b9a505060206124738d828e0161238e565b99505060406124848d828e0161238e565b98505060606124958d828e0161238e565b97505060806124a68d828e0161238e565b96505060a06124b78d828e0161238e565b95505060c08b013567ffffffffffffffff8111156124d457600080fd5b6124e08d828e016123b6565b94505060e06124f18d828e0161240c565b9350506101006125038d828e016123a2565b9250506101208b013567ffffffffffffffff81111561252157600080fd5b61252d8d828e016123b6565b9150509295989b9194979a5092959850565b60006020828403121561255157600080fd5b600082013567ffffffffffffffff81111561256b57600080fd5b612577848285016123b6565b91505092915050565b6000806040838503121561259357600080fd5b600083013567ffffffffffffffff8111156125ad57600080fd5b6125b9858286016123b6565b92505060206125ca8582860161240c565b9150509250929050565b600080600080608085870312156125ea57600080fd5b600085013567ffffffffffffffff81111561260457600080fd5b612610878288016123b6565b94505060206126218782880161240c565b93505060406126328782880161240c565b92505060606126438782880161240c565b91505092959194509250565b60006020828403121561266157600080fd5b600061266f84828501612420565b91505092915050565b61268181612a21565b82525050565b61269081612a41565b82525050565b61269f81612ab0565b82525050565b6126ae81612ac2565b82525050565b60006126bf82612a16565b8084526126d3816020860160208601612ae3565b6126dc81612b16565b602085010191505092915050565b60006126f582612a0b565b808452612709816020860160208601612ae3565b61271281612b16565b602085010191505092915050565b6000601a82527f526563656976657220726f6c6520697320696e636f72726563740000000000006020830152604082019050919050565b6000602a82527f546869732070726f64756374206973206e6f7420616c6c6f77656420696e207460208301527f6869732073797374656d000000000000000000000000000000000000000000006040830152606082019050919050565b6080820160008201516127ca60008501826128ce565b5060208201516127dd60208501826128ce565b5060408201516127f060408501826128ce565b5060608201516128036060850182612687565b50505050565b6000610120830160008301516128226000860182612678565b5060208301516128356020860182612678565b5060408301516128486040860182612678565b50606083015161285b6060860182612678565b50608083015161286e6080860182612678565b5060a083015161288160a0860182612678565b5060c083015184820360c086015261289982826126ea565b91505060e08301516128ae60e08601826128ce565b506101008301516128c36101008601826126a5565b508091505092915050565b6128d781612a63565b82525050565b60006020820190506128f26000830184612678565b92915050565b600060208201905061290d6000830184612696565b92915050565b6000602082019050818103600083015261292d81846126b4565b905092915050565b6000602082019050818103600083015261294e81612720565b9050919050565b6000602082019050818103600083015261296e81612757565b9050919050565b600060808201905061298a60008301846127b4565b92915050565b600060208201905081810360008301526129aa8184612809565b905092915050565b6000604051905081810181811067ffffffffffffffff821117156129d557600080fd5b8060405250919050565b600067ffffffffffffffff8211156129f657600080fd5b601f19601f8301169050602081019050919050565b600081519050919050565b600081519050919050565b600073ffffffffffffffffffffffffffffffffffffffff82169050919050565b60008115159050919050565b6000600782101515612a5b57fe5b819050919050565b6000819050919050565b600073ffffffffffffffffffffffffffffffffffffffff82169050919050565b6000600782101515612a9e57600080fd5b819050919050565b6000819050919050565b6000612abb82612a21565b9050919050565b6000612acd82612a4d565b9050919050565b82818337600083830152505050565b60005b83811015612b01578082015181840152602081019050612ae6565b83811115612b10576000848401525b50505050565b6000601f19601f83011690509190505600a265627a7a72305820004593c6be158e12c387ca2114ac7f56c62ac74f4b39c5187253cb3073b36d736c6578706572696d656e74616cf50037",
  "source": "// SPDX-License-Identifier: GPL-3.0\r\npragma solidity ^0.4.22;\r\npragma experimental ABIEncoderV2;\r\n\r\nimport './Roles.sol';\r\nimport './HelperMethods.sol';\r\n\r\ncontract SupplyChain {\r\n    Roles public rc;\r\n    \r\n    string[] cropsAllowed = ['arecanut', 'arhar/tur', 'bajra', 'banana', 'barley', 'bhindi', 'black pepper', 'blackgram', 'brinjal', 'cabbage', 'cardamom', 'carrot', 'cashewnut', 'castor seed', 'chillies', 'citrus fruit', \r\n    'coconut', 'coffee', 'coriander', 'cotton', 'cowpea(lobia)', 'drum stick', 'garlic', 'ginger', 'gram', 'grapes', 'groundnut', 'guar seed', 'horse-gram', 'jack fruit', 'jowar', 'jute', 'khesari', 'korra', 'lentil',\r\n    'linseed', 'maize', 'mango', 'masoor', 'mesta', 'mothbeans', 'mungbean', 'niger seed', 'onion', 'orange', 'papaya', 'pineapple', 'pomegranate', 'potato', 'ragi', 'rapeseed &mustard', 'redish', 'rice', 'rubber',\r\n    'safflower', 'samai', 'sannhamp', 'sesamum', 'small millets', 'soyabean', 'sugarcane', 'sunflower', 'sweet potato', 'tapioca', 'tea', 'tobacco', 'tomato', 'turmeric', 'turnip', 'urad', 'varagu', 'wheat'];\r\n    \r\n    enum State {\r\n        None,\r\n        Planted, \r\n        Harvested, \r\n        Stored,\r\n        SoldToDistributor,\r\n        SoldToRetailer,\r\n        SoldToConsumer \r\n        }\r\n        \r\n    struct Crop {\r\n        uint256 priceForDistributor;\r\n        uint256 priceForRetailer;\r\n        uint256 priceForConsumer;\r\n        bool present;\r\n    }\r\n        \r\n    struct Item {\r\n        address ownerID; \r\n        address farmerID; \r\n        address coldStorageId;\r\n        address distributorID;  \r\n        address retailerID; \r\n        address consumerID;\r\n        \r\n        string  productType;\r\n        uint256 weight;\r\n        State   itemState;  // Product State as represented in the enum above\r\n    }\r\n        \r\n    uint256 productID;\r\n    mapping (string => Item) items;\r\n    mapping (string => Crop) cropPrices;\r\n    string[] productIDs;\r\n    \r\n    modifier verifyReceiver(address _address, uint256 roleID) {\r\n        require(rc.getRole(_address) == roleID, \"Receiver role is incorrect\");\r\n        _;\r\n    }\r\n    \r\n    modifier validProduct(string _productType) {\r\n        require(cropPrices[_productType].present == true, \"This product is not allowed in this system\");\r\n        _;\r\n    }\r\n    \r\n    function getFullProductID(string productIDEnd) public view returns(string) {\r\n        for (uint256 i = 0; i < productIDs.length; i++) {\r\n            if (HelperMethods.compareStrings(HelperMethods.substring(productIDs[i], bytes(productIDs[i]).length - bytes(productIDEnd).length, bytes(productIDs[i]).length), productIDEnd)) {\r\n                return productIDs[i];\r\n            }\r\n        }\r\n        return \"\";\r\n    }\r\n    \r\n    function removeFromArray(string _productID) public {\r\n        uint256 i;\r\n        uint256 j;\r\n        \r\n        for (i = 0; i < productIDs.length; i++){\r\n            if (HelperMethods.compareStrings(productIDs[i], _productID)) {\r\n                for (j = i; j < productIDs.length - 1; j++) {\r\n                    productIDs[j] = productIDs[j+1];\r\n                }\r\n                productIDs.length--;\r\n                break;\r\n            }\r\n        }\r\n    }\r\n    \r\n    function pushInArray(string _productID) public {\r\n        productIDs.push(_productID);\r\n    }\r\n    \r\n    function getItems(string id) public view returns(Item) {\r\n        return items[id];\r\n    }\r\n    \r\n    function getCropPrices(string crop) public view returns(Crop) {\r\n        return cropPrices[crop];\r\n    }\r\n    \r\n    function insertItem(address _ownerID, address _farmerID, address _coldStorageId, address _distributorID, address _retailerID, \r\n    address _consumerID, string  _productType, uint256 _weight, State _itemState, string _productID) public {\r\n        items[_productID].ownerID = _ownerID;\r\n        items[_productID].farmerID = _farmerID;\r\n        items[_productID].coldStorageId = _coldStorageId;\r\n        items[_productID].distributorID = _distributorID;\r\n        items[_productID].retailerID = _retailerID;\r\n        items[_productID].consumerID = _consumerID;\r\n        items[_productID].productType = _productType;\r\n        items[_productID].weight = _weight;\r\n        items[_productID].itemState = _itemState;\r\n    }\r\n    \r\n    function deleteItem(string _productID) public {\r\n        delete items[_productID];\r\n    }\r\n    \r\n    constructor(address _address) public {\r\n        productID = 1;\r\n        rc = Roles(_address);\r\n        \r\n        setValidProducts();\r\n    }\r\n    \r\n    function setValidProducts() private {\r\n        for(uint256 i = 0; i < cropsAllowed.length; i++) {\r\n            cropPrices[cropsAllowed[i]].present = true;\r\n        }\r\n    }\r\n    \r\n    function setPrice (string _product, uint256 basePrice, uint256 profitDistributor, uint256 profitRetailer) public\r\n    verifyReceiver(tx.origin, rc.governmentID())\r\n    validProduct(_product)\r\n    {\r\n        Crop storage crop = cropPrices[_product];\r\n        crop.priceForDistributor = basePrice;\r\n        crop.priceForRetailer = crop.priceForDistributor * (100 + profitDistributor) / 100;\r\n        crop.priceForConsumer = crop.priceForRetailer * (100 + profitRetailer) / 100;\r\n    }\r\n    \r\n    function plantItem (\r\n        string _productType,\r\n        uint256 _weight\r\n    ) public \r\n    verifyReceiver(tx.origin, rc.farmerRoleID()) \r\n    validProduct(_productType)\r\n    {\r\n        Item memory newItem;\r\n        string memory newProductID = string(abi.encodePacked(HelperMethods.integerToString(_weight), \"-\", \"1-\", HelperMethods.integerToString(productID)));\r\n        newItem.ownerID = tx.origin;\r\n        newItem.farmerID = tx.origin;\r\n        newItem.productType = _productType;\r\n        newItem.weight = _weight;\r\n        newItem.itemState = State.Planted;\r\n        \r\n        items[newProductID] = newItem;\r\n        productIDs.push(newProductID);\r\n        productID++;\r\n    }\r\n}\r\n\r\n",
  "sourcePath": "D:\\7thSemester\\CS491\\smart_agriculture_react\\contracts\\SupplyChain.sol",
  "compiler": {
    "name": "solc",
    "version": "0.4.26+commit.4563c3fc.Emscripten.clang"
  },
  "schemaVersion": "3.4.3",
  "updatedAt": "2021-12-15T14:40:53.383Z",
  "networkType": "ethereum",
  "devdoc": {
    "methods": {}
  },
  "userdoc": {
    "methods": {}
  }
}