{
  "contractName": "SupplyChain2",
  "abi": [
    {
      "inputs": [
        {
          "name": "_rcaddress",
          "type": "address"
        },
        {
          "name": "_scaddress",
          "type": "address"
        },
        {
          "name": "_cscAddress",
          "type": "address"
        }
      ],
      "payable": false,
      "stateMutability": "nonpayable",
      "type": "constructor"
    },
    {
      "anonymous": false,
      "inputs": [
        {
          "indexed": false,
          "name": "",
          "type": "string"
        }
      ],
      "name": "ProductIDGeneratedFarmer",
      "type": "event"
    },
    {
      "anonymous": false,
      "inputs": [
        {
          "indexed": false,
          "name": "",
          "type": "string[]"
        }
      ],
      "name": "ProductIDGeneratedDistributor",
      "type": "event"
    },
    {
      "anonymous": false,
      "inputs": [
        {
          "indexed": false,
          "name": "",
          "type": "string[]"
        }
      ],
      "name": "ProductIDGeneratedRetailer",
      "type": "event"
    },
    {
      "anonymous": false,
      "inputs": [
        {
          "indexed": false,
          "name": "",
          "type": "string[]"
        }
      ],
      "name": "ProductIDGeneratedConsumer",
      "type": "event"
    },
    {
      "constant": false,
      "inputs": [
        {
          "name": "_productType",
          "type": "string"
        },
        {
          "name": "_weight",
          "type": "uint256"
        }
      ],
      "name": "harvestItem",
      "outputs": [],
      "payable": false,
      "stateMutability": "nonpayable",
      "type": "function"
    },
    {
      "constant": false,
      "inputs": [
        {
          "name": "_productName",
          "type": "string"
        },
        {
          "name": "_weight",
          "type": "uint256"
        },
        {
          "name": "_farmerId",
          "type": "address"
        }
      ],
      "name": "buyFromFarmer",
      "outputs": [],
      "payable": true,
      "stateMutability": "payable",
      "type": "function"
    },
    {
      "constant": false,
      "inputs": [
        {
          "name": "_productName",
          "type": "string"
        },
        {
          "name": "_weight",
          "type": "uint256"
        },
        {
          "name": "_distributorId",
          "type": "address"
        }
      ],
      "name": "buyFromDistributor",
      "outputs": [],
      "payable": true,
      "stateMutability": "payable",
      "type": "function"
    },
    {
      "constant": false,
      "inputs": [
        {
          "name": "_productName",
          "type": "string"
        },
        {
          "name": "_weight",
          "type": "uint256"
        },
        {
          "name": "_retailerId",
          "type": "address"
        }
      ],
      "name": "buyFromRetailer",
      "outputs": [],
      "payable": true,
      "stateMutability": "payable",
      "type": "function"
    }
  ],
  "bytecode": "0x60806040523480156200001157600080fd5b50604051606080620047e083398101806040526200003391908101906200011c565b826000806101000a81548173ffffffffffffffffffffffffffffffffffffffff021916908373ffffffffffffffffffffffffffffffffffffffff16021790555081600160006101000a81548173ffffffffffffffffffffffffffffffffffffffff021916908373ffffffffffffffffffffffffffffffffffffffff16021790555080600260006101000a81548173ffffffffffffffffffffffffffffffffffffffff021916908373ffffffffffffffffffffffffffffffffffffffff160217905550600160038190555050505062000192565b600062000114825162000172565b905092915050565b6000806000606084860312156200013257600080fd5b6000620001428682870162000106565b9350506020620001558682870162000106565b9250506040620001688682870162000106565b9150509250925092565b600073ffffffffffffffffffffffffffffffffffffffff82169050919050565b61463e80620001a26000396000f300608060405260043610610062576000357c0100000000000000000000000000000000000000000000000000000000900463ffffffff1680632738ad43146100675780636d893a7e14610083578063bed654bf1461009f578063f893d45a146100c8575b600080fd5b610081600480360361007c9190810190613a97565b6100e4565b005b61009d60048036036100989190810190613a97565b6106ee565b005b3480156100ab57600080fd5b506100c660048036036100c19190810190613a43565b610cf8565b005b6100e260048036036100dd9190810190613a97565b61119b565b005b6100ec613661565b6000326000809054906101000a900473ffffffffffffffffffffffffffffffffffffffff1673ffffffffffffffffffffffffffffffffffffffff166303553a2f6040518163ffffffff167c0100000000000000000000000000000000000000000000000000000000028152600401602060405180830381600087803b15801561017457600080fd5b505af1158015610188573d6000803e3d6000fd5b505050506040513d601f19601f820116820180604052506101ac9190810190613b68565b806000809054906101000a900473ffffffffffffffffffffffffffffffffffffffff1673ffffffffffffffffffffffffffffffffffffffff166344276733846040518263ffffffff167c01000000000000000000000000000000000000000000000000000000000281526004016102239190613dd8565b602060405180830381600087803b15801561023d57600080fd5b505af1158015610251573d6000803e3d6000fd5b505050506040513d601f19601f820116820180604052506102759190810190613b68565b1415156102b7576040517f08c379a00000000000000000000000000000000000000000000000000000000081526004016102ae906143ed565b60405180910390fd5b866000600160009054906101000a900473ffffffffffffffffffffffffffffffffffffffff1673ffffffffffffffffffffffffffffffffffffffff166385ae0830836040518263ffffffff167c010000000000000000000000000000000000000000000000000000000002815260040161033191906140b9565b602060405180830381600087803b15801561034b57600080fd5b505af115801561035f573d6000803e3d6000fd5b505050506040513d601f19601f820116820180604052506103839190810190613b68565b1115156103c5576040517f08c379a00000000000000000000000000000000000000000000000000000000081526004016103bc9061438d565b60405180910390fd5b600160009054906101000a900473ffffffffffffffffffffffffffffffffffffffff1673ffffffffffffffffffffffffffffffffffffffff16635f983bd0896040518263ffffffff167c010000000000000000000000000000000000000000000000000000000002815260040161043c91906140b9565b608060405180830381600087803b15801561045657600080fd5b505af115801561046a573d6000803e3d6000fd5b505050506040513d601f19601f8201168201806040525061048e9190810190613afe565b9450600085606001511115156104d9576040517f08c379a00000000000000000000000000000000000000000000000000000000081526004016104d09061440d565b60405180910390fd5b348786606001510211151515610524576040517f08c379a000000000000000000000000000000000000000000000000000000000815260040161051b906143cd565b60405180910390fd5b600160009054906101000a900473ffffffffffffffffffffffffffffffffffffffff1673ffffffffffffffffffffffffffffffffffffffff1663d27a69ff89898960036040518563ffffffff167c01000000000000000000000000000000000000000000000000000000000281526004016105a29493929190614311565b602060405180830381600087803b1580156105bc57600080fd5b505af11580156105d0573d6000803e3d6000fd5b505050506040513d601f19601f820116820180604052506105f49190810190613b68565b935060008411151561063b576040517f08c379a0000000000000000000000000000000000000000000000000000000008152600401610632906143ad565b60405180910390fd5b61064888888832886117a5565b8573ffffffffffffffffffffffffffffffffffffffff166108fc888760600151029081150290604051600060405180830381858888f19350505050158015610694573d6000803e3d6000fd5b503273ffffffffffffffffffffffffffffffffffffffff166108fc8887606001510234039081150290604051600060405180830381858888f193505050501580156106e3573d6000803e3d6000fd5b505050505050505050565b6106f6613661565b6000326000809054906101000a900473ffffffffffffffffffffffffffffffffffffffff1673ffffffffffffffffffffffffffffffffffffffff1663f7b8d4846040518163ffffffff167c0100000000000000000000000000000000000000000000000000000000028152600401602060405180830381600087803b15801561077e57600080fd5b505af1158015610792573d6000803e3d6000fd5b505050506040513d601f19601f820116820180604052506107b69190810190613b68565b806000809054906101000a900473ffffffffffffffffffffffffffffffffffffffff1673ffffffffffffffffffffffffffffffffffffffff166344276733846040518263ffffffff167c010000000000000000000000000000000000000000000000000000000002815260040161082d9190613dd8565b602060405180830381600087803b15801561084757600080fd5b505af115801561085b573d6000803e3d6000fd5b505050506040513d601f19601f8201168201806040525061087f9190810190613b68565b1415156108c1576040517f08c379a00000000000000000000000000000000000000000000000000000000081526004016108b8906143ed565b60405180910390fd5b866000600160009054906101000a900473ffffffffffffffffffffffffffffffffffffffff1673ffffffffffffffffffffffffffffffffffffffff166385ae0830836040518263ffffffff167c010000000000000000000000000000000000000000000000000000000002815260040161093b91906140b9565b602060405180830381600087803b15801561095557600080fd5b505af1158015610969573d6000803e3d6000fd5b505050506040513d601f19601f8201168201806040525061098d9190810190613b68565b1115156109cf576040517f08c379a00000000000000000000000000000000000000000000000000000000081526004016109c69061438d565b60405180910390fd5b600160009054906101000a900473ffffffffffffffffffffffffffffffffffffffff1673ffffffffffffffffffffffffffffffffffffffff16635f983bd0896040518263ffffffff167c0100000000000000000000000000000000000000000000000000000000028152600401610a4691906140b9565b608060405180830381600087803b158015610a6057600080fd5b505af1158015610a74573d6000803e3d6000fd5b505050506040513d601f19601f82011682018060405250610a989190810190613afe565b945060008560400151111515610ae3576040517f08c379a0000000000000000000000000000000000000000000000000000000008152600401610ada9061440d565b60405180910390fd5b348786604001510211151515610b2e576040517f08c379a0000000000000000000000000000000000000000000000000000000008152600401610b25906143cd565b60405180910390fd5b600160009054906101000a900473ffffffffffffffffffffffffffffffffffffffff1673ffffffffffffffffffffffffffffffffffffffff1663d27a69ff89898960026040518563ffffffff167c0100000000000000000000000000000000000000000000000000000000028152600401610bac94939291906142c5565b602060405180830381600087803b158015610bc657600080fd5b505af1158015610bda573d6000803e3d6000fd5b505050506040513d601f19601f82011682018060405250610bfe9190810190613b68565b9350600084111515610c45576040517f08c379a0000000000000000000000000000000000000000000000000000000008152600401610c3c906143ad565b60405180910390fd5b610c528888883288612179565b8573ffffffffffffffffffffffffffffffffffffffff166108fc888760400151029081150290604051600060405180830381858888f19350505050158015610c9e573d6000803e3d6000fd5b503273ffffffffffffffffffffffffffffffffffffffff166108fc8887604001510234039081150290604051600060405180830381858888f19350505050158015610ced573d6000803e3d6000fd5b505050505050505050565b6060326000809054906101000a900473ffffffffffffffffffffffffffffffffffffffff1673ffffffffffffffffffffffffffffffffffffffff1663b67ac8736040518163ffffffff167c0100000000000000000000000000000000000000000000000000000000028152600401602060405180830381600087803b158015610d8057600080fd5b505af1158015610d94573d6000803e3d6000fd5b505050506040513d601f19601f82011682018060405250610db89190810190613b68565b806000809054906101000a900473ffffffffffffffffffffffffffffffffffffffff1673ffffffffffffffffffffffffffffffffffffffff166344276733846040518263ffffffff167c0100000000000000000000000000000000000000000000000000000000028152600401610e2f9190613dd8565b602060405180830381600087803b158015610e4957600080fd5b505af1158015610e5d573d6000803e3d6000fd5b505050506040513d601f19601f82011682018060405250610e819190810190613b68565b141515610ec3576040517f08c379a0000000000000000000000000000000000000000000000000000000008152600401610eba906143ed565b60405180910390fd5b846000600160009054906101000a900473ffffffffffffffffffffffffffffffffffffffff1673ffffffffffffffffffffffffffffffffffffffff166385ae0830836040518263ffffffff167c0100000000000000000000000000000000000000000000000000000000028152600401610f3d91906140b9565b602060405180830381600087803b158015610f5757600080fd5b505af1158015610f6b573d6000803e3d6000fd5b505050506040513d601f19601f82011682018060405250610f8f9190810190613b68565b111515610fd1576040517f08c379a0000000000000000000000000000000000000000000000000000000008152600401610fc89061438d565b60405180910390fd5b610fdc600354612b47565b9350600160009054906101000a900473ffffffffffffffffffffffffffffffffffffffff1673ffffffffffffffffffffffffffffffffffffffff16630b58127d32868960016040518563ffffffff167c010000000000000000000000000000000000000000000000000000000002815260040161105c9493929190613f29565b600060405180830381600087803b15801561107657600080fd5b505af115801561108a573d6000803e3d6000fd5b50505050600160009054906101000a900473ffffffffffffffffffffffffffffffffffffffff1673ffffffffffffffffffffffffffffffffffffffff166327ad2604323260008060008c8c8c60016040518a63ffffffff167c010000000000000000000000000000000000000000000000000000000002815260040161111899989796959493929190613df3565b600060405180830381600087803b15801561113257600080fd5b505af1158015611146573d6000803e3d6000fd5b505050506003600081548092919060010191905055507f41d8ad268fec8e502c884f31a2ebc493717fcb0ee93f7c250bd368524d1fe6128460405161118b91906140b9565b60405180910390a1505050505050565b6111a3613661565b6000326000809054906101000a900473ffffffffffffffffffffffffffffffffffffffff1673ffffffffffffffffffffffffffffffffffffffff1663121da33c6040518163ffffffff167c0100000000000000000000000000000000000000000000000000000000028152600401602060405180830381600087803b15801561122b57600080fd5b505af115801561123f573d6000803e3d6000fd5b505050506040513d601f19601f820116820180604052506112639190810190613b68565b806000809054906101000a900473ffffffffffffffffffffffffffffffffffffffff1673ffffffffffffffffffffffffffffffffffffffff166344276733846040518263ffffffff167c01000000000000000000000000000000000000000000000000000000000281526004016112da9190613dd8565b602060405180830381600087803b1580156112f457600080fd5b505af1158015611308573d6000803e3d6000fd5b505050506040513d601f19601f8201168201806040525061132c9190810190613b68565b14151561136e576040517f08c379a0000000000000000000000000000000000000000000000000000000008152600401611365906143ed565b60405180910390fd5b866000600160009054906101000a900473ffffffffffffffffffffffffffffffffffffffff1673ffffffffffffffffffffffffffffffffffffffff166385ae0830836040518263ffffffff167c01000000000000000000000000000000000000000000000000000000000281526004016113e891906140b9565b602060405180830381600087803b15801561140257600080fd5b505af1158015611416573d6000803e3d6000fd5b505050506040513d601f19601f8201168201806040525061143a9190810190613b68565b11151561147c576040517f08c379a00000000000000000000000000000000000000000000000000000000081526004016114739061438d565b60405180910390fd5b600160009054906101000a900473ffffffffffffffffffffffffffffffffffffffff1673ffffffffffffffffffffffffffffffffffffffff16635f983bd0896040518263ffffffff167c01000000000000000000000000000000000000000000000000000000000281526004016114f391906140b9565b608060405180830381600087803b15801561150d57600080fd5b505af1158015611521573d6000803e3d6000fd5b505050506040513d601f19601f820116820180604052506115459190810190613afe565b945060008560200151111515611590576040517f08c379a00000000000000000000000000000000000000000000000000000000081526004016115879061440d565b60405180910390fd5b3487866020015102111515156115db576040517f08c379a00000000000000000000000000000000000000000000000000000000081526004016115d2906143cd565b60405180910390fd5b600160009054906101000a900473ffffffffffffffffffffffffffffffffffffffff1673ffffffffffffffffffffffffffffffffffffffff1663d27a69ff89898960016040518563ffffffff167c01000000000000000000000000000000000000000000000000000000000281526004016116599493929190614279565b602060405180830381600087803b15801561167357600080fd5b505af1158015611687573d6000803e3d6000fd5b505050506040513d601f19601f820116820180604052506116ab9190810190613b68565b93506000841115156116f2576040517f08c379a00000000000000000000000000000000000000000000000000000000081526004016116e9906143ad565b60405180910390fd5b6116ff8888883288612c9c565b8573ffffffffffffffffffffffffffffffffffffffff166108fc888760200151029081150290604051600060405180830381858888f1935050505015801561174b573d6000803e3d6000fd5b503273ffffffffffffffffffffffffffffffffffffffff166108fc8887602001510234039081150290604051600060405180830381858888f1935050505015801561179a573d6000803e3d6000fd5b505050505050505050565b6060600060608060006117b661368a565b6000600160009054906101000a900473ffffffffffffffffffffffffffffffffffffffff1673ffffffffffffffffffffffffffffffffffffffff16632882722c8d60038d6040518463ffffffff167c01000000000000000000000000000000000000000000000000000000000281526004016118349392919061423b565b600060405180830381600087803b15801561184e57600080fd5b505af1158015611862573d6000803e3d6000fd5b505050506040513d6000823e3d601f19601f8201168201806040525061188b9190810190613a02565b965060009550876040519080825280602002602001820160405280156118c557816020015b60608152602001906001900390816118b05790505b509350865192505b6000831180156118dc57508a86105b15611fbd57600160009054906101000a900473ffffffffffffffffffffffffffffffffffffffff1673ffffffffffffffffffffffffffffffffffffffff1663cb78b527886001860381518110151561193057fe5b906020019060200201516040518263ffffffff167c01000000000000000000000000000000000000000000000000000000000281526004016119729190614097565b600060405180830381600087803b15801561198c57600080fd5b505af11580156119a0573d6000803e3d6000fd5b505050506040513d6000823e3d601f19601f820116820180604052506119c99190810190613b27565b915086600184038151811015156119dc57fe5b906020019060200201516119f38360e00151612b47565b6040516020018083805190602001908083835b602083101515611a2b5780518252602082019150602081019050602083039250611a06565b6001836020036101000a038019825116818451168082178552505050505050905001807f2d0000000000000000000000000000000000000000000000000000000000000081525060010182805190602001908083835b602083101515611aa65780518252602082019150602081019050602083039250611a81565b6001836020036101000a038019825116818451168082178552505050505050905001925050506040516020818303038152906040529450848488516001868c010303815181101515611af457fe5b906020019060200201819052508a8260c001518701111515611d5f578160c0015186019550600160009054906101000a900473ffffffffffffffffffffffffffffffffffffffff1673ffffffffffffffffffffffffffffffffffffffff166327ad26048a8460200151856040015186606001518e8860a001518960c001518d60016040518a63ffffffff167c0100000000000000000000000000000000000000000000000000000000028152600401611bb599989796959493929190613e8e565b600060405180830381600087803b158015611bcf57600080fd5b505af1158015611be3573d6000803e3d6000fd5b50505050600160009054906101000a900473ffffffffffffffffffffffffffffffffffffffff1673ffffffffffffffffffffffffffffffffffffffff16630b58127d8a878f60046040518563ffffffff167c0100000000000000000000000000000000000000000000000000000000028152600401611c659493929190614022565b600060405180830381600087803b158015611c7f57600080fd5b505af1158015611c93573d6000803e3d6000fd5b50505050600160009054906101000a900473ffffffffffffffffffffffffffffffffffffffff1673ffffffffffffffffffffffffffffffffffffffff16636521f4378860018603815181101515611ce657fe5b906020019060200201516040518263ffffffff167c0100000000000000000000000000000000000000000000000000000000028152600401611d289190614097565b600060405180830381600087803b158015611d4257600080fd5b505af1158015611d56573d6000803e3d6000fd5b50505050611faf565b858b039050600160009054906101000a900473ffffffffffffffffffffffffffffffffffffffff1673ffffffffffffffffffffffffffffffffffffffff1663cddfe4218860018603815181101515611db357fe5b90602001906020020151836040518363ffffffff167c0100000000000000000000000000000000000000000000000000000000028152600401611df792919061435d565b600060405180830381600087803b158015611e1157600080fd5b505af1158015611e25573d6000803e3d6000fd5b50505050600160009054906101000a900473ffffffffffffffffffffffffffffffffffffffff1673ffffffffffffffffffffffffffffffffffffffff166327ad26048a8460200151856040015186606001518e8860a00151888d60016040518a63ffffffff167c0100000000000000000000000000000000000000000000000000000000028152600401611ec199989796959493929190613e8e565b600060405180830381600087803b158015611edb57600080fd5b505af1158015611eef573d6000803e3d6000fd5b50505050600160009054906101000a900473ffffffffffffffffffffffffffffffffffffffff1673ffffffffffffffffffffffffffffffffffffffff16630b58127d8a878f60046040518563ffffffff167c0100000000000000000000000000000000000000000000000000000000028152600401611f719493929190614022565b600060405180830381600087803b158015611f8b57600080fd5b505af1158015611f9f573d6000803e3d6000fd5b50505050808260c0015187010195505b8280600190039350506118cd565b8a86141561207d57600160009054906101000a900473ffffffffffffffffffffffffffffffffffffffff1673ffffffffffffffffffffffffffffffffffffffff166398d91c2c8d8c6003878c51036040518563ffffffff167c01000000000000000000000000000000000000000000000000000000000281526004016120469493929190614173565b600060405180830381600087803b15801561206057600080fd5b505af1158015612074573d6000803e3d6000fd5b50505050612134565b600160009054906101000a900473ffffffffffffffffffffffffffffffffffffffff1673ffffffffffffffffffffffffffffffffffffffff166398d91c2c8d8c60036001888d5103036040518563ffffffff167c01000000000000000000000000000000000000000000000000000000000281526004016121019493929190614173565b600060405180830381600087803b15801561211b57600080fd5b505af115801561212f573d6000803e3d6000fd5b505050505b7ffa7c56eedf33fa3599d1f0f1ce1894dc1648ed714f99f4a3318a364fc5d75cce846040516121639190614075565b60405180910390a1505050505050505050505050565b60606000606080600061218a61368a565b6000600160009054906101000a900473ffffffffffffffffffffffffffffffffffffffff1673ffffffffffffffffffffffffffffffffffffffff16632882722c8d60028d6040518463ffffffff167c0100000000000000000000000000000000000000000000000000000000028152600401612208939291906141fd565b600060405180830381600087803b15801561222257600080fd5b505af1158015612236573d6000803e3d6000fd5b505050506040513d6000823e3d601f19601f8201168201806040525061225f9190810190613a02565b9650600095508760405190808252806020026020018201604052801561229957816020015b60608152602001906001900390816122845790505b509350865192505b6000831180156122b057508a86105b1561298b57600160009054906101000a900473ffffffffffffffffffffffffffffffffffffffff1673ffffffffffffffffffffffffffffffffffffffff1663cb78b527886001860381518110151561230457fe5b906020019060200201516040518263ffffffff167c01000000000000000000000000000000000000000000000000000000000281526004016123469190614097565b600060405180830381600087803b15801561236057600080fd5b505af1158015612374573d6000803e3d6000fd5b505050506040513d6000823e3d601f19601f8201168201806040525061239d9190810190613b27565b915086600184038151811015156123b057fe5b906020019060200201516123c78360e00151612b47565b6040516020018083805190602001908083835b6020831015156123ff57805182526020820191506020810190506020830392506123da565b6001836020036101000a038019825116818451168082178552505050505050905001807f2d0000000000000000000000000000000000000000000000000000000000000081525060010182805190602001908083835b60208310151561247a5780518252602082019150602081019050602083039250612455565b6001836020036101000a038019825116818451168082178552505050505050905001925050506040516020818303038152906040529450848488516001868c0103038151811015156124c857fe5b906020019060200201819052508a8260c001518701111515612730578160c0015186019550600160009054906101000a900473ffffffffffffffffffffffffffffffffffffffff1673ffffffffffffffffffffffffffffffffffffffff166327ad26048a846020015185604001518d60008860a001518960c001518d60016040518a63ffffffff167c010000000000000000000000000000000000000000000000000000000002815260040161258699989796959493929190613e8e565b600060405180830381600087803b1580156125a057600080fd5b505af11580156125b4573d6000803e3d6000fd5b50505050600160009054906101000a900473ffffffffffffffffffffffffffffffffffffffff1673ffffffffffffffffffffffffffffffffffffffff16630b58127d8a878f60036040518563ffffffff167c01000000000000000000000000000000000000000000000000000000000281526004016126369493929190613fcf565b600060405180830381600087803b15801561265057600080fd5b505af1158015612664573d6000803e3d6000fd5b50505050600160009054906101000a900473ffffffffffffffffffffffffffffffffffffffff1673ffffffffffffffffffffffffffffffffffffffff16636521f43788600186038151811015156126b757fe5b906020019060200201516040518263ffffffff167c01000000000000000000000000000000000000000000000000000000000281526004016126f99190614097565b600060405180830381600087803b15801561271357600080fd5b505af1158015612727573d6000803e3d6000fd5b5050505061297d565b858b039050600160009054906101000a900473ffffffffffffffffffffffffffffffffffffffff1673ffffffffffffffffffffffffffffffffffffffff1663cddfe421886001860381518110151561278457fe5b90602001906020020151836040518363ffffffff167c01000000000000000000000000000000000000000000000000000000000281526004016127c892919061435d565b600060405180830381600087803b1580156127e257600080fd5b505af11580156127f6573d6000803e3d6000fd5b50505050600160009054906101000a900473ffffffffffffffffffffffffffffffffffffffff1673ffffffffffffffffffffffffffffffffffffffff166327ad26048a846020015185604001518d60008860a00151888d60016040518a63ffffffff167c010000000000000000000000000000000000000000000000000000000002815260040161288f99989796959493929190613e8e565b600060405180830381600087803b1580156128a957600080fd5b505af11580156128bd573d6000803e3d6000fd5b50505050600160009054906101000a900473ffffffffffffffffffffffffffffffffffffffff1673ffffffffffffffffffffffffffffffffffffffff16630b58127d8a878f60036040518563ffffffff167c010000000000000000000000000000000000000000000000000000000002815260040161293f9493929190613fcf565b600060405180830381600087803b15801561295957600080fd5b505af115801561296d573d6000803e3d6000fd5b50505050808260c0015187010195505b8280600190039350506122a1565b8a861415612a4b57600160009054906101000a900473ffffffffffffffffffffffffffffffffffffffff1673ffffffffffffffffffffffffffffffffffffffff166398d91c2c8d8c6002878c51036040518563ffffffff167c0100000000000000000000000000000000000000000000000000000000028152600401612a149493929190614127565b600060405180830381600087803b158015612a2e57600080fd5b505af1158015612a42573d6000803e3d6000fd5b50505050612b02565b600160009054906101000a900473ffffffffffffffffffffffffffffffffffffffff1673ffffffffffffffffffffffffffffffffffffffff166398d91c2c8d8c60026001888d5103036040518563ffffffff167c0100000000000000000000000000000000000000000000000000000000028152600401612acf9493929190614127565b600060405180830381600087803b158015612ae957600080fd5b505af1158015612afd573d6000803e3d6000fd5b505050505b7fc96d78efa23a38a9f968abe08f246f86d28734593ece229ec4a8408a046870e584604051612b319190614075565b60405180910390a1505050505050505050505050565b606060008060606000851415612b94576040805190810160405280600181526020017f30000000000000000000000000000000000000000000000000000000000000008152509350612c94565b8492505b600083141515612bbe578180600101925050600a83811515612bb657fe5b049250612b98565b816040519080825280601f01601f191660200182016040528015612bf15781602001602082028038833980820191505090505b5090506001820392505b600085141515612c9057600a85811515612c1157fe5b066030017f010000000000000000000000000000000000000000000000000000000000000002818480600190039550815181101515612c4c57fe5b9060200101907effffffffffffffffffffffffffffffffffffffffffffffffffffffffffffff1916908160001a905350600a85811515612c8857fe5b049450612bfb565b8093505b505050919050565b606060006060806000612cad61368a565b6000600160009054906101000a900473ffffffffffffffffffffffffffffffffffffffff1673ffffffffffffffffffffffffffffffffffffffff16632882722c8d60018d6040518463ffffffff167c0100000000000000000000000000000000000000000000000000000000028152600401612d2b939291906141bf565b600060405180830381600087803b158015612d4557600080fd5b505af1158015612d59573d6000803e3d6000fd5b505050506040513d6000823e3d601f19601f82011682018060405250612d829190810190613a02565b96506000955087604051908082528060200260200182016040528015612dbc57816020015b6060815260200190600190039081612da75790505b509350865192505b600083118015612dd357508a86105b156134a657600160009054906101000a900473ffffffffffffffffffffffffffffffffffffffff1673ffffffffffffffffffffffffffffffffffffffff1663cb78b5278860018603815181101515612e2757fe5b906020019060200201516040518263ffffffff167c0100000000000000000000000000000000000000000000000000000000028152600401612e699190614097565b600060405180830381600087803b158015612e8357600080fd5b505af1158015612e97573d6000803e3d6000fd5b505050506040513d6000823e3d601f19601f82011682018060405250612ec09190810190613b27565b91508660018403815181101515612ed357fe5b90602001906020020151612eea8360e00151612b47565b6040516020018083805190602001908083835b602083101515612f225780518252602082019150602081019050602083039250612efd565b6001836020036101000a038019825116818451168082178552505050505050905001807f2d0000000000000000000000000000000000000000000000000000000000000081525060010182805190602001908083835b602083101515612f9d5780518252602082019150602081019050602083039250612f78565b6001836020036101000a038019825116818451168082178552505050505050905001925050506040516020818303038152906040529450848488516001868c010303815181101515612feb57fe5b906020019060200201819052508a8260c00151870111151561324f578160c0015186019550600160009054906101000a900473ffffffffffffffffffffffffffffffffffffffff1673ffffffffffffffffffffffffffffffffffffffff166327ad26048a84602001518c6000808860a001518960c001518d60016040518a63ffffffff167c01000000000000000000000000000000000000000000000000000000000281526004016130a599989796959493929190613e8e565b600060405180830381600087803b1580156130bf57600080fd5b505af11580156130d3573d6000803e3d6000fd5b50505050600160009054906101000a900473ffffffffffffffffffffffffffffffffffffffff1673ffffffffffffffffffffffffffffffffffffffff16630b58127d8a878f60026040518563ffffffff167c01000000000000000000000000000000000000000000000000000000000281526004016131559493929190613f7c565b600060405180830381600087803b15801561316f57600080fd5b505af1158015613183573d6000803e3d6000fd5b50505050600160009054906101000a900473ffffffffffffffffffffffffffffffffffffffff1673ffffffffffffffffffffffffffffffffffffffff16636521f43788600186038151811015156131d657fe5b906020019060200201516040518263ffffffff167c01000000000000000000000000000000000000000000000000000000000281526004016132189190614097565b600060405180830381600087803b15801561323257600080fd5b505af1158015613246573d6000803e3d6000fd5b50505050613498565b858b039050600160009054906101000a900473ffffffffffffffffffffffffffffffffffffffff1673ffffffffffffffffffffffffffffffffffffffff1663cddfe42188600186038151811015156132a357fe5b90602001906020020151836040518363ffffffff167c01000000000000000000000000000000000000000000000000000000000281526004016132e792919061435d565b600060405180830381600087803b15801561330157600080fd5b505af1158015613315573d6000803e3d6000fd5b50505050600160009054906101000a900473ffffffffffffffffffffffffffffffffffffffff1673ffffffffffffffffffffffffffffffffffffffff166327ad26048a84602001518c6000808860a00151888d60016040518a63ffffffff167c01000000000000000000000000000000000000000000000000000000000281526004016133aa99989796959493929190613e8e565b600060405180830381600087803b1580156133c457600080fd5b505af11580156133d8573d6000803e3d6000fd5b50505050600160009054906101000a900473ffffffffffffffffffffffffffffffffffffffff1673ffffffffffffffffffffffffffffffffffffffff16630b58127d8a878f60026040518563ffffffff167c010000000000000000000000000000000000000000000000000000000002815260040161345a9493929190613f7c565b600060405180830381600087803b15801561347457600080fd5b505af1158015613488573d6000803e3d6000fd5b50505050808260c0015187010195505b828060019003935050612dc4565b8a86141561356657600160009054906101000a900473ffffffffffffffffffffffffffffffffffffffff1673ffffffffffffffffffffffffffffffffffffffff166398d91c2c8d8c6001878c51036040518563ffffffff167c010000000000000000000000000000000000000000000000000000000002815260040161352f94939291906140db565b600060405180830381600087803b15801561354957600080fd5b505af115801561355d573d6000803e3d6000fd5b5050505061361c565b600160009054906101000a900473ffffffffffffffffffffffffffffffffffffffff1673ffffffffffffffffffffffffffffffffffffffff166398d91c2c8d8c600180888d5103036040518563ffffffff167c01000000000000000000000000000000000000000000000000000000000281526004016135e994939291906140db565b600060405180830381600087803b15801561360357600080fd5b505af1158015613617573d6000803e3d6000fd5b505050505b7ff231044f4afaa1d0c90c928c59b56adc80f19a7985ea78a070ca5859f6f0eaa98460405161364b9190614075565b60405180910390a1505050505050505050505050565b608060405190810160405280600081526020016000815260200160008152602001600081525090565b61010060405190810160405280600073ffffffffffffffffffffffffffffffffffffffff168152602001600073ffffffffffffffffffffffffffffffffffffffff168152602001600073ffffffffffffffffffffffffffffffffffffffff168152602001600073ffffffffffffffffffffffffffffffffffffffff168152602001600073ffffffffffffffffffffffffffffffffffffffff1681526020016060815260200160008152602001600081525090565b600061374a823561453f565b905092915050565b600061375e825161453f565b905092915050565b600082601f830112151561377957600080fd5b815161378c6137878261445a565b61442d565b9150818183526020840193506020810190508360005b838110156137d257815186016137b888826137dc565b8452602084019350602083019250506001810190506137a2565b5050505092915050565b600082601f83011215156137ef57600080fd5b81516138026137fd82614482565b61442d565b9150808252602083016020830185838301111561381e57600080fd5b6138298382846145c0565b50505092915050565b600082601f830112151561384557600080fd5b8135613858613853826144ae565b61442d565b9150808252602083016020830185838301111561387457600080fd5b61387f8382846145b1565b50505092915050565b60006080828403121561389a57600080fd5b6138a4608061442d565b905060006138b4848285016139ee565b60008301525060206138c8848285016139ee565b60208301525060406138dc848285016139ee565b60408301525060606138f0848285016139ee565b60608301525092915050565b6000610100828403121561390f57600080fd5b61391a61010061442d565b9050600061392a84828501613752565b600083015250602061393e84828501613752565b602083015250604061395284828501613752565b604083015250606061396684828501613752565b606083015250608061397a84828501613752565b60808301525060a082015167ffffffffffffffff81111561399a57600080fd5b6139a6848285016137dc565b60a08301525060c06139ba848285016139ee565b60c08301525060e06139ce848285016139ee565b60e08301525092915050565b60006139e6823561455f565b905092915050565b60006139fa825161455f565b905092915050565b600060208284031215613a1457600080fd5b600082015167ffffffffffffffff811115613a2e57600080fd5b613a3a84828501613766565b91505092915050565b60008060408385031215613a5657600080fd5b600083013567ffffffffffffffff811115613a7057600080fd5b613a7c85828601613832565b9250506020613a8d858286016139da565b9150509250929050565b600080600060608486031215613aac57600080fd5b600084013567ffffffffffffffff811115613ac657600080fd5b613ad286828701613832565b9350506020613ae3868287016139da565b9250506040613af48682870161373e565b9150509250925092565b600060808284031215613b1057600080fd5b6000613b1e84828501613888565b91505092915050565b600060208284031215613b3957600080fd5b600082015167ffffffffffffffff811115613b5357600080fd5b613b5f848285016138fc565b91505092915050565b600060208284031215613b7a57600080fd5b6000613b88848285016139ee565b91505092915050565b613b9a81614515565b82525050565b6000613bab826144e7565b80845260208401935083602082028501613bc4856144da565b60005b84811015613bfd578383038852613bdf838351613c80565b9250613bea82614508565b9150602088019750600181019050613bc7565b508196508694505050505092915050565b613c1781614569565b82525050565b613c268161457b565b82525050565b613c358161458d565b82525050565b613c448161459f565b82525050565b6000613c55826144fd565b808452613c698160208601602086016145c0565b613c72816145f3565b602085010191505092915050565b6000613c8b826144f2565b808452613c9f8160208601602086016145c0565b613ca8816145f3565b602085010191505092915050565b6000601a82527f43726f70206e6f7420616c6c6f77656420696e2073797374656d0000000000006020830152604082019050919050565b6000600e82527f4c6f77206f6e2070726f647563740000000000000000000000000000000000006020830152604082019050919050565b6000600d82527f4c6f77206f6e20657468657273000000000000000000000000000000000000006020830152604082019050919050565b6000601a82527f526563656976657220726f6c6520697320696e636f72726563740000000000006020830152604082019050919050565b6000600d82527f5072696365206e6f7420736574000000000000000000000000000000000000006020830152604082019050919050565b613dd281614535565b82525050565b6000602082019050613ded6000830184613b91565b92915050565b600061012082019050613e09600083018c613b91565b613e16602083018b613b91565b613e23604083018a613b91565b613e306060830189613b91565b613e3d6080830188613b91565b81810360a0830152613e4f8187613c4a565b9050613e5e60c0830186613dc9565b81810360e0830152613e708185613c4a565b9050613e80610100830184613c0e565b9a9950505050505050505050565b600061012082019050613ea4600083018c613b91565b613eb1602083018b613b91565b613ebe604083018a613b91565b613ecb6060830189613b91565b613ed86080830188613b91565b81810360a0830152613eea8187613c80565b9050613ef960c0830186613dc9565b81810360e0830152613f0b8185613c4a565b9050613f1b610100830184613c0e565b9a9950505050505050505050565b6000608082019050613f3e6000830187613b91565b8181036020830152613f508186613c4a565b90508181036040830152613f648185613c4a565b9050613f736060830184613c0e565b95945050505050565b6000608082019050613f916000830187613b91565b8181036020830152613fa38186613c4a565b90508181036040830152613fb78185613c4a565b9050613fc66060830184613c1d565b95945050505050565b6000608082019050613fe46000830187613b91565b8181036020830152613ff68186613c4a565b9050818103604083015261400a8185613c4a565b90506140196060830184613c2c565b95945050505050565b60006080820190506140376000830187613b91565b81810360208301526140498186613c4a565b9050818103604083015261405d8185613c4a565b905061406c6060830184613c3b565b95945050505050565b6000602082019050818103600083015261408f8184613ba0565b905092915050565b600060208201905081810360008301526140b18184613c80565b905092915050565b600060208201905081810360008301526140d38184613c4a565b905092915050565b600060808201905081810360008301526140f58187613c4a565b90506141046020830186613b91565b6141116040830185613c0e565b61411e6060830184613dc9565b95945050505050565b600060808201905081810360008301526141418187613c4a565b90506141506020830186613b91565b61415d6040830185613c1d565b61416a6060830184613dc9565b95945050505050565b6000608082019050818103600083015261418d8187613c4a565b905061419c6020830186613b91565b6141a96040830185613c2c565b6141b66060830184613dc9565b95945050505050565b600060608201905081810360008301526141d98186613c4a565b90506141e86020830185613c0e565b6141f56040830184613b91565b949350505050565b600060608201905081810360008301526142178186613c4a565b90506142266020830185613c1d565b6142336040830184613b91565b949350505050565b600060608201905081810360008301526142558186613c4a565b90506142646020830185613c2c565b6142716040830184613b91565b949350505050565b600060808201905081810360008301526142938187613c4a565b90506142a26020830186613dc9565b6142af6040830185613b91565b6142bc6060830184613c0e565b95945050505050565b600060808201905081810360008301526142df8187613c4a565b90506142ee6020830186613dc9565b6142fb6040830185613b91565b6143086060830184613c1d565b95945050505050565b6000608082019050818103600083015261432b8187613c4a565b905061433a6020830186613dc9565b6143476040830185613b91565b6143546060830184613c2c565b95945050505050565b600060408201905081810360008301526143778185613c80565b90506143866020830184613dc9565b9392505050565b600060208201905081810360008301526143a681613cb6565b9050919050565b600060208201905081810360008301526143c681613ced565b9050919050565b600060208201905081810360008301526143e681613d24565b9050919050565b6000602082019050818103600083015261440681613d5b565b9050919050565b6000602082019050818103600083015261442681613d92565b9050919050565b6000604051905081810181811067ffffffffffffffff8211171561445057600080fd5b8060405250919050565b600067ffffffffffffffff82111561447157600080fd5b602082029050602081019050919050565b600067ffffffffffffffff82111561449957600080fd5b601f19601f8301169050602081019050919050565b600067ffffffffffffffff8211156144c557600080fd5b601f19601f8301169050602081019050919050565b6000602082019050919050565b600081519050919050565b600081519050919050565b600081519050919050565b6000602082019050919050565b600073ffffffffffffffffffffffffffffffffffffffff82169050919050565b6000819050919050565b600073ffffffffffffffffffffffffffffffffffffffff82169050919050565b6000819050919050565b600061457482614535565b9050919050565b600061458682614535565b9050919050565b600061459882614535565b9050919050565b60006145aa82614535565b9050919050565b82818337600083830152505050565b60005b838110156145de5780820151818401526020810190506145c3565b838111156145ed576000848401525b50505050565b6000601f19601f83011690509190505600a265627a7a72305820cd757710c52c0693bad4f002d5c0e49638d3b8a6b26cb673e97a3c4a31f86f5b6c6578706572696d656e74616cf50037",
  "source": "// SPDX-License-Identifier: GPL-3.0\r\npragma solidity ^0.4.22;\r\npragma experimental ABIEncoderV2;\r\n\r\nimport \"./Roles.sol\";\r\nimport './ColdStorageContract.sol';\r\nimport \"./SupplyChain.sol\";\r\nimport \"./HelperMethods.sol\";\r\n\r\ncontract SupplyChain2 {\r\n    Roles rc;\r\n    SupplyChain sc;\r\n    ColdStorageContract csc;\r\n\r\n    uint256 productID;\r\n    \r\n    event ProductIDGeneratedFarmer(string);\r\n    event ProductIDGeneratedDistributor(string[]);\r\n    event ProductIDGeneratedRetailer(string[]);\r\n    event ProductIDGeneratedConsumer(string[]);\r\n\r\n    constructor(address _rcaddress, address _scaddress, address _cscAddress) public {\r\n        rc = Roles(_rcaddress);\r\n        sc = SupplyChain(_scaddress);\r\n        csc = ColdStorageContract(_cscAddress);\r\n        productID = 1;\r\n    }\r\n    \r\n    modifier verifyReceiver(address _address, uint256 roleID) {\r\n        require(rc.getRole(_address) == roleID, \"Receiver role is incorrect\");\r\n        _;\r\n    }\r\n\r\n    modifier validProduct(string _productType) {\r\n        require(sc.getSerialNumber(_productType) > 0, \"Crop not allowed in system\");\r\n        _;\r\n    }\r\n\r\n    /*function addFirstItems(string newProductID, string _productType, uint256 _weight) private {\r\n        sc.insertNewId(tx.origin, newProductID, _productType, 1);\r\n        sc.insertItem(tx.origin, tx.origin,address(0),address(0),address(0), _productType, _weight, newProductID, 1);\r\n    }*/\r\n\r\n    function withdrawProductFromFarmer(string _productName, uint256 _weight, address _owner, address _receiver, uint256 sz) private {\r\n        string[] memory ids = sc.getAllProductsPerOwner(_productName, 1, _owner);\r\n        uint256 weightPresent = 0;\r\n        \r\n        string memory newId;\r\n        string[] memory newIds = new string[](sz);\r\n\r\n        for (uint256 i = ids.length; i > 0 && weightPresent < _weight; i--) {\r\n            SupplyChain.Item memory currentItem = sc.getItems(ids[i-1]);\r\n            newId = string(abi.encodePacked(ids[i-1],\"-\",HelperMethods.integerToString(currentItem.parts)));\r\n            newIds[sz + i - 1 - ids.length] = newId;\r\n             \r\n            if (weightPresent + currentItem.weight <= _weight) {\r\n                weightPresent = weightPresent + currentItem.weight;\r\n                sc.insertItem(_receiver, currentItem.farmerID, _receiver, address(0), address(0), currentItem.productType, currentItem.weight, newId, 1);\r\n                sc.insertNewId(_receiver, newId, _productName, 2);\r\n                sc.deleteItem(ids[i-1]);\r\n            } else {\r\n                uint256 wt = _weight - weightPresent;\r\n                sc.updateCurrentItem(ids[i-1],wt);\r\n                sc.insertItem(_receiver, currentItem.farmerID, _receiver, address(0), address(0), currentItem.productType, wt, newId, 1);\r\n                sc.insertNewId(_receiver, newId, _productName, 2);\r\n                weightPresent = weightPresent + currentItem.weight + wt;\r\n            }\r\n        }\r\n        \r\n        if (weightPresent == _weight) {\r\n            sc.deleteFromOwner(_productName, _owner, 1, ids.length-i);\r\n        } else {\r\n            sc.deleteFromOwner(_productName, _owner, 1, ids.length-i-1);\r\n        }\r\n\r\n        emit ProductIDGeneratedDistributor(newIds);\r\n    }\r\n\r\n    function withdrawProductFromDistributor(string _productName, uint256 _weight, address _owner, address _receiver, uint256 sz) private {\r\n        string[] memory ids = sc.getAllProductsPerOwner(_productName, 2, _owner);\r\n        uint256 weightPresent = 0;\r\n        \r\n        string memory newId;\r\n        string[] memory newIds = new string[](sz);\r\n\r\n        for (uint256 i = ids.length; i > 0 && weightPresent < _weight; i--) {\r\n            SupplyChain.Item memory currentItem = sc.getItems(ids[i-1]);\r\n            newId = string(abi.encodePacked(ids[i-1],\"-\",HelperMethods.integerToString(currentItem.parts)));\r\n            newIds[sz + i - 1 - ids.length] = newId;\r\n             \r\n            if (weightPresent + currentItem.weight <= _weight) {\r\n                weightPresent = weightPresent + currentItem.weight;\r\n                sc.insertItem(_receiver, currentItem.farmerID, currentItem.distributorID, _receiver, address(0), currentItem.productType, currentItem.weight, newId, 1);\r\n                sc.insertNewId(_receiver, newId, _productName, 3);\r\n                sc.deleteItem(ids[i-1]);\r\n            } else {\r\n                uint256 wt = _weight - weightPresent;\r\n                sc.updateCurrentItem(ids[i-1],wt);\r\n                sc.insertItem(_receiver, currentItem.farmerID, currentItem.distributorID, _receiver, address(0), currentItem.productType, wt, newId, 1);\r\n                sc.insertNewId(_receiver, newId, _productName, 3);\r\n                weightPresent = weightPresent + currentItem.weight + wt;\r\n            }\r\n        }\r\n        \r\n        if (weightPresent == _weight) {\r\n            sc.deleteFromOwner(_productName, _owner, 2, ids.length-i);\r\n        } else {\r\n            sc.deleteFromOwner(_productName, _owner, 2, ids.length-i-1);\r\n        }\r\n\r\n        emit ProductIDGeneratedRetailer(newIds);\r\n    }\r\n\r\n    function withdrawProductFromRetailer(string _productName, uint256 _weight, address _owner, address _receiver, uint256 sz) private {\r\n        string[] memory ids = sc.getAllProductsPerOwner(_productName, 3, _owner);\r\n        uint256 weightPresent = 0;\r\n        \r\n        string memory newId;\r\n        string[] memory newIds = new string[](sz);\r\n\r\n        for (uint256 i = ids.length; i > 0 && weightPresent < _weight; i--) {\r\n            SupplyChain.Item memory currentItem = sc.getItems(ids[i-1]);\r\n            newId = string(abi.encodePacked(ids[i-1],\"-\",HelperMethods.integerToString(currentItem.parts)));\r\n            newIds[sz + i - 1 - ids.length] = newId;\r\n             \r\n            if (weightPresent + currentItem.weight <= _weight) {\r\n                weightPresent = weightPresent + currentItem.weight;\r\n                sc.insertItem(_receiver, currentItem.farmerID, currentItem.distributorID, currentItem.retailerID, _receiver, currentItem.productType, currentItem.weight, newId, 1);\r\n                sc.insertNewId(_receiver, newId, _productName, 4);\r\n                sc.deleteItem(ids[i-1]);\r\n            } else {\r\n                uint256 wt = _weight - weightPresent;\r\n                sc.updateCurrentItem(ids[i-1],wt);\r\n                sc.insertItem(_receiver, currentItem.farmerID, currentItem.distributorID, currentItem.retailerID, _receiver, currentItem.productType, wt, newId, 1);\r\n                sc.insertNewId(_receiver, newId, _productName, 4);\r\n                weightPresent = weightPresent + currentItem.weight + wt;\r\n            }\r\n        }\r\n        \r\n        if (weightPresent == _weight) {\r\n            sc.deleteFromOwner(_productName, _owner, 3, ids.length-i);\r\n        } else {\r\n            sc.deleteFromOwner(_productName, _owner, 3, ids.length-i-1);\r\n        }\r\n\r\n        emit ProductIDGeneratedConsumer(newIds);\r\n    }\r\n\r\n    function harvestItem (\r\n        string _productType,\r\n        uint256 _weight\r\n    ) public\r\n    verifyReceiver(tx.origin, rc.farmerRoleID()) \r\n    validProduct(_productType)\r\n    {\r\n        string memory newProductID = HelperMethods.integerToString(productID);\r\n        sc.insertNewId(tx.origin, newProductID, _productType, 1);\r\n        sc.insertItem(tx.origin, tx.origin,address(0),address(0),address(0), _productType, _weight, newProductID, 1);\r\n        productID++;\r\n\r\n        emit ProductIDGeneratedFarmer(newProductID);\r\n    }\r\n\r\n    function buyFromFarmer(string _productName, uint256 _weight, address _farmerId)\r\n    public payable\r\n    verifyReceiver(tx.origin, rc.distributorRoleID())\r\n    validProduct(_productName) {\r\n        SupplyChain.Crop memory crop = sc.getCropPrices(_productName);        \r\n        require(crop.priceForDistributor > 0, \"Price not set\");\r\n        require(crop.priceForDistributor * _weight <= msg.value, \"Low on ethers\");\r\n\r\n        uint256 sz = sc.checkAvailability(_productName, _weight, _farmerId, 1);\r\n        \r\n        require(sz > 0, \"Low on product\");\r\n        withdrawProductFromFarmer(_productName, _weight, _farmerId, tx.origin, sz);\r\n    \r\n        _farmerId.transfer(crop.priceForDistributor*_weight);\r\n        tx.origin.transfer(msg.value - crop.priceForDistributor*_weight);\r\n    }\r\n\r\n    function buyFromDistributor(string _productName, uint256 _weight, address _distributorId)\r\n    public payable\r\n    verifyReceiver(tx.origin, rc.retailerRoleID())\r\n    validProduct(_productName) {\r\n        SupplyChain.Crop memory crop = sc.getCropPrices(_productName);        \r\n        require(crop.priceForRetailer > 0, \"Price not set\");\r\n        require(crop.priceForRetailer * _weight <= msg.value, \"Low on ethers\");\r\n\r\n        uint256 sz = sc.checkAvailability(_productName, _weight, _distributorId, 2);\r\n        \r\n        require(sz > 0, \"Low on product\");\r\n        withdrawProductFromDistributor(_productName, _weight, _distributorId, tx.origin, sz);\r\n        \r\n        _distributorId.transfer(crop.priceForRetailer*_weight);\r\n        tx.origin.transfer(msg.value - crop.priceForRetailer*_weight);\r\n    }\r\n\r\n    function buyFromRetailer(string _productName, uint256 _weight, address _retailerId)\r\n    public payable\r\n    verifyReceiver(tx.origin, rc.consumerRoleID())\r\n    validProduct(_productName) {\r\n        SupplyChain.Crop memory crop = sc.getCropPrices(_productName);        \r\n        require(crop.priceForConsumer > 0, \"Price not set\");\r\n        require(crop.priceForConsumer * _weight <= msg.value, \"Low on ethers\");\r\n\r\n        uint256 sz = sc.checkAvailability(_productName, _weight, _retailerId, 3);\r\n        \r\n        require(sz > 0, \"Low on product\");\r\n        withdrawProductFromRetailer(_productName, _weight, _retailerId, tx.origin, sz);\r\n        \r\n        _retailerId.transfer(crop.priceForConsumer*_weight);\r\n        tx.origin.transfer(msg.value - crop.priceForConsumer*_weight);\r\n    }\r\n    \r\n}",
  "sourcePath": "D:\\7thSemester\\CS491\\smart_agriculture_react\\contracts\\SupplyChain2.sol",
  "compiler": {
    "name": "solc",
    "version": "0.4.26+commit.4563c3fc.Emscripten.clang"
  },
  "schemaVersion": "3.4.3",
  "updatedAt": "2022-01-22T14:31:45.946Z",
  "networkType": "ethereum",
  "devdoc": {
    "methods": {}
  },
  "userdoc": {
    "methods": {}
  }
}