{
  "contractName": "SupplyChain2",
  "abi": [
    {
      "inputs": [
        {
          "name": "_rcaddress",
          "type": "address"
        },
        {
          "name": "_scaddress",
          "type": "address"
        },
        {
          "name": "_fcaddress",
          "type": "address"
        }
      ],
      "payable": false,
      "stateMutability": "nonpayable",
      "type": "constructor"
    },
    {
      "anonymous": false,
      "inputs": [
        {
          "indexed": false,
          "name": "",
          "type": "string"
        }
      ],
      "name": "ProductIDGeneratedFarmer",
      "type": "event"
    },
    {
      "anonymous": false,
      "inputs": [
        {
          "indexed": false,
          "name": "",
          "type": "string[]"
        }
      ],
      "name": "ProductIDGeneratedDistributor",
      "type": "event"
    },
    {
      "anonymous": false,
      "inputs": [
        {
          "indexed": false,
          "name": "",
          "type": "string[]"
        }
      ],
      "name": "ProductIDGeneratedRetailer",
      "type": "event"
    },
    {
      "anonymous": false,
      "inputs": [
        {
          "indexed": false,
          "name": "",
          "type": "string[]"
        }
      ],
      "name": "ProductIDGeneratedConsumer",
      "type": "event"
    },
    {
      "constant": false,
      "inputs": [
        {
          "name": "_productType",
          "type": "string"
        },
        {
          "name": "_weight",
          "type": "uint256"
        }
      ],
      "name": "harvestItem",
      "outputs": [],
      "payable": false,
      "stateMutability": "nonpayable",
      "type": "function"
    },
    {
      "constant": false,
      "inputs": [
        {
          "name": "_productName",
          "type": "string"
        },
        {
          "name": "_weight",
          "type": "uint256"
        },
        {
          "name": "_farmerId",
          "type": "address"
        }
      ],
      "name": "buyFromFarmer",
      "outputs": [],
      "payable": true,
      "stateMutability": "payable",
      "type": "function"
    },
    {
      "constant": false,
      "inputs": [
        {
          "name": "_productName",
          "type": "string"
        },
        {
          "name": "_weight",
          "type": "uint256"
        },
        {
          "name": "_distributorId",
          "type": "address"
        }
      ],
      "name": "buyFromDistributor",
      "outputs": [],
      "payable": true,
      "stateMutability": "payable",
      "type": "function"
    },
    {
      "constant": false,
      "inputs": [
        {
          "name": "_productName",
          "type": "string"
        },
        {
          "name": "_weight",
          "type": "uint256"
        },
        {
          "name": "_retailerId",
          "type": "address"
        }
      ],
      "name": "buyFromRetailer",
      "outputs": [],
      "payable": true,
      "stateMutability": "payable",
      "type": "function"
    },
    {
      "constant": true,
      "inputs": [
        {
          "name": "state",
          "type": "string"
        },
        {
          "name": "crop",
          "type": "string"
        }
      ],
      "name": "monitorProductsCount",
      "outputs": [
        {
          "name": "",
          "type": "uint256"
        }
      ],
      "payable": false,
      "stateMutability": "view",
      "type": "function"
    },
    {
      "constant": true,
      "inputs": [
        {
          "name": "state",
          "type": "string"
        },
        {
          "name": "crop",
          "type": "string"
        },
        {
          "name": "index",
          "type": "uint256"
        }
      ],
      "name": "monitorProducts",
      "outputs": [
        {
          "name": "",
          "type": "string"
        }
      ],
      "payable": false,
      "stateMutability": "view",
      "type": "function"
    },
    {
      "constant": true,
      "inputs": [
        {
          "name": "state",
          "type": "string"
        },
        {
          "name": "crop",
          "type": "string"
        }
      ],
      "name": "monitorAllProducts",
      "outputs": [
        {
          "name": "",
          "type": "string[]"
        }
      ],
      "payable": false,
      "stateMutability": "view",
      "type": "function"
    }
  ],
  "bytecode": "0x60806040523480156200001157600080fd5b506040516060806200510c83398101806040526200003391908101906200011c565b826000806101000a81548173ffffffffffffffffffffffffffffffffffffffff021916908373ffffffffffffffffffffffffffffffffffffffff16021790555081600160006101000a81548173ffffffffffffffffffffffffffffffffffffffff021916908373ffffffffffffffffffffffffffffffffffffffff16021790555080600260006101000a81548173ffffffffffffffffffffffffffffffffffffffff021916908373ffffffffffffffffffffffffffffffffffffffff160217905550600160038190555050505062000192565b600062000114825162000172565b905092915050565b6000806000606084860312156200013257600080fd5b6000620001428682870162000106565b9350506020620001558682870162000106565b9250506040620001688682870162000106565b9150509250925092565b600073ffffffffffffffffffffffffffffffffffffffff82169050919050565b614f6a80620001a26000396000f300608060405260043610610083576000357c0100000000000000000000000000000000000000000000000000000000900463ffffffff1680630dcc9dc5146100885780632738ad43146100c55780636d893a7e146100e1578063bed654bf146100fd578063bff84a5514610126578063f893d45a14610163578063fb70f5e01461017f575b600080fd5b34801561009457600080fd5b506100af60048036036100aa91908101906142d5565b6101bc565b6040516100bc91906149ca565b60405180910390f35b6100df60048036036100da91908101906143a8565b61034b565b005b6100fb60048036036100f691908101906143a8565b610955565b005b34801561010957600080fd5b50610124600480360361011f9190810190614354565b610f5f565b005b34801561013257600080fd5b5061014d60048036036101489190810190614269565b6115e5565b60405161015a9190614986565b60405180910390f35b61017d600480360361017891908101906143a8565b6117a3565b005b34801561018b57600080fd5b506101a660048036036101a19190810190614269565b611dad565b6040516101b39190614d3e565b60405180910390f35b60606004846040518082805190602001908083835b6020831015156101f657805182526020820191506020810190506020830392506101d1565b6001836020036101000a0380198251168184511680821785525050505050509050019150509081526020016040518091039020836040518082805190602001908083835b60208310151561025f578051825260208201915060208101905060208303925061023a565b6001836020036101000a03801982511681845116808217855250505050505090500191505090815260200160405180910390208281548110151561029f57fe5b906000526020600020018054600181600116156101000203166002900480601f01602080910402602001604051908101604052809291908181526020018280546001816001161561010002031660029004801561033d5780601f106103125761010080835404028352916020019161033d565b820191906000526020600020905b81548152906001019060200180831161032057829003601f168201915b505050505090509392505050565b610353613d4b565b6000326000809054906101000a900473ffffffffffffffffffffffffffffffffffffffff1673ffffffffffffffffffffffffffffffffffffffff166303553a2f6040518163ffffffff167c0100000000000000000000000000000000000000000000000000000000028152600401602060405180830381600087803b1580156103db57600080fd5b505af11580156103ef573d6000803e3d6000fd5b505050506040513d601f19601f820116820180604052506104139190810190614479565b806000809054906101000a900473ffffffffffffffffffffffffffffffffffffffff1673ffffffffffffffffffffffffffffffffffffffff166344276733846040518263ffffffff167c010000000000000000000000000000000000000000000000000000000002815260040161048a91906146e9565b602060405180830381600087803b1580156104a457600080fd5b505af11580156104b8573d6000803e3d6000fd5b505050506040513d601f19601f820116820180604052506104dc9190810190614479565b14151561051e576040517f08c379a000000000000000000000000000000000000000000000000000000000815260040161051590614cfe565b60405180910390fd5b866000600160009054906101000a900473ffffffffffffffffffffffffffffffffffffffff1673ffffffffffffffffffffffffffffffffffffffff166385ae0830836040518263ffffffff167c010000000000000000000000000000000000000000000000000000000002815260040161059891906149ca565b602060405180830381600087803b1580156105b257600080fd5b505af11580156105c6573d6000803e3d6000fd5b505050506040513d601f19601f820116820180604052506105ea9190810190614479565b11151561062c576040517f08c379a000000000000000000000000000000000000000000000000000000000815260040161062390614c9e565b60405180910390fd5b600160009054906101000a900473ffffffffffffffffffffffffffffffffffffffff1673ffffffffffffffffffffffffffffffffffffffff16635f983bd0896040518263ffffffff167c01000000000000000000000000000000000000000000000000000000000281526004016106a391906149ca565b608060405180830381600087803b1580156106bd57600080fd5b505af11580156106d1573d6000803e3d6000fd5b505050506040513d601f19601f820116820180604052506106f5919081019061440f565b945060008560600151111515610740576040517f08c379a000000000000000000000000000000000000000000000000000000000815260040161073790614d1e565b60405180910390fd5b34878660600151021115151561078b576040517f08c379a000000000000000000000000000000000000000000000000000000000815260040161078290614cde565b60405180910390fd5b600160009054906101000a900473ffffffffffffffffffffffffffffffffffffffff1673ffffffffffffffffffffffffffffffffffffffff1663d27a69ff89898960036040518563ffffffff167c01000000000000000000000000000000000000000000000000000000000281526004016108099493929190614c22565b602060405180830381600087803b15801561082357600080fd5b505af1158015610837573d6000803e3d6000fd5b505050506040513d601f19601f8201168201806040525061085b9190810190614479565b93506000841115156108a2576040517f08c379a000000000000000000000000000000000000000000000000000000000815260040161089990614cbe565b60405180910390fd5b6108af8888883288611e8f565b8573ffffffffffffffffffffffffffffffffffffffff166108fc888760600151029081150290604051600060405180830381858888f193505050501580156108fb573d6000803e3d6000fd5b503273ffffffffffffffffffffffffffffffffffffffff166108fc8887606001510234039081150290604051600060405180830381858888f1935050505015801561094a573d6000803e3d6000fd5b505050505050505050565b61095d613d4b565b6000326000809054906101000a900473ffffffffffffffffffffffffffffffffffffffff1673ffffffffffffffffffffffffffffffffffffffff1663f7b8d4846040518163ffffffff167c0100000000000000000000000000000000000000000000000000000000028152600401602060405180830381600087803b1580156109e557600080fd5b505af11580156109f9573d6000803e3d6000fd5b505050506040513d601f19601f82011682018060405250610a1d9190810190614479565b806000809054906101000a900473ffffffffffffffffffffffffffffffffffffffff1673ffffffffffffffffffffffffffffffffffffffff166344276733846040518263ffffffff167c0100000000000000000000000000000000000000000000000000000000028152600401610a9491906146e9565b602060405180830381600087803b158015610aae57600080fd5b505af1158015610ac2573d6000803e3d6000fd5b505050506040513d601f19601f82011682018060405250610ae69190810190614479565b141515610b28576040517f08c379a0000000000000000000000000000000000000000000000000000000008152600401610b1f90614cfe565b60405180910390fd5b866000600160009054906101000a900473ffffffffffffffffffffffffffffffffffffffff1673ffffffffffffffffffffffffffffffffffffffff166385ae0830836040518263ffffffff167c0100000000000000000000000000000000000000000000000000000000028152600401610ba291906149ca565b602060405180830381600087803b158015610bbc57600080fd5b505af1158015610bd0573d6000803e3d6000fd5b505050506040513d601f19601f82011682018060405250610bf49190810190614479565b111515610c36576040517f08c379a0000000000000000000000000000000000000000000000000000000008152600401610c2d90614c9e565b60405180910390fd5b600160009054906101000a900473ffffffffffffffffffffffffffffffffffffffff1673ffffffffffffffffffffffffffffffffffffffff16635f983bd0896040518263ffffffff167c0100000000000000000000000000000000000000000000000000000000028152600401610cad91906149ca565b608060405180830381600087803b158015610cc757600080fd5b505af1158015610cdb573d6000803e3d6000fd5b505050506040513d601f19601f82011682018060405250610cff919081019061440f565b945060008560400151111515610d4a576040517f08c379a0000000000000000000000000000000000000000000000000000000008152600401610d4190614d1e565b60405180910390fd5b348786604001510211151515610d95576040517f08c379a0000000000000000000000000000000000000000000000000000000008152600401610d8c90614cde565b60405180910390fd5b600160009054906101000a900473ffffffffffffffffffffffffffffffffffffffff1673ffffffffffffffffffffffffffffffffffffffff1663d27a69ff89898960026040518563ffffffff167c0100000000000000000000000000000000000000000000000000000000028152600401610e139493929190614bd6565b602060405180830381600087803b158015610e2d57600080fd5b505af1158015610e41573d6000803e3d6000fd5b505050506040513d601f19601f82011682018060405250610e659190810190614479565b9350600084111515610eac576040517f08c379a0000000000000000000000000000000000000000000000000000000008152600401610ea390614cbe565b60405180910390fd5b610eb98888883288612863565b8573ffffffffffffffffffffffffffffffffffffffff166108fc888760400151029081150290604051600060405180830381858888f19350505050158015610f05573d6000803e3d6000fd5b503273ffffffffffffffffffffffffffffffffffffffff166108fc8887604001510234039081150290604051600060405180830381858888f19350505050158015610f54573d6000803e3d6000fd5b505050505050505050565b606080326000809054906101000a900473ffffffffffffffffffffffffffffffffffffffff1673ffffffffffffffffffffffffffffffffffffffff1663b67ac8736040518163ffffffff167c0100000000000000000000000000000000000000000000000000000000028152600401602060405180830381600087803b158015610fe857600080fd5b505af1158015610ffc573d6000803e3d6000fd5b505050506040513d601f19601f820116820180604052506110209190810190614479565b806000809054906101000a900473ffffffffffffffffffffffffffffffffffffffff1673ffffffffffffffffffffffffffffffffffffffff166344276733846040518263ffffffff167c010000000000000000000000000000000000000000000000000000000002815260040161109791906146e9565b602060405180830381600087803b1580156110b157600080fd5b505af11580156110c5573d6000803e3d6000fd5b505050506040513d601f19601f820116820180604052506110e99190810190614479565b14151561112b576040517f08c379a000000000000000000000000000000000000000000000000000000000815260040161112290614cfe565b60405180910390fd5b856000600160009054906101000a900473ffffffffffffffffffffffffffffffffffffffff1673ffffffffffffffffffffffffffffffffffffffff166385ae0830836040518263ffffffff167c01000000000000000000000000000000000000000000000000000000000281526004016111a591906149ca565b602060405180830381600087803b1580156111bf57600080fd5b505af11580156111d3573d6000803e3d6000fd5b505050506040513d601f19601f820116820180604052506111f79190810190614479565b111515611239576040517f08c379a000000000000000000000000000000000000000000000000000000000815260040161123090614c9e565b60405180910390fd5b611244600354613231565b9450600160009054906101000a900473ffffffffffffffffffffffffffffffffffffffff1673ffffffffffffffffffffffffffffffffffffffff16630b58127d32878a60016040518563ffffffff167c01000000000000000000000000000000000000000000000000000000000281526004016112c4949392919061483a565b600060405180830381600087803b1580156112de57600080fd5b505af11580156112f2573d6000803e3d6000fd5b50505050600160009054906101000a900473ffffffffffffffffffffffffffffffffffffffff1673ffffffffffffffffffffffffffffffffffffffff166327ad2604323260008060008d8d8d60016040518a63ffffffff167c010000000000000000000000000000000000000000000000000000000002815260040161138099989796959493929190614704565b600060405180830381600087803b15801561139a57600080fd5b505af11580156113ae573d6000803e3d6000fd5b50505050600360008154809291906001019190505550600260009054906101000a900473ffffffffffffffffffffffffffffffffffffffff1673ffffffffffffffffffffffffffffffffffffffff16631bab58f5326040518263ffffffff167c010000000000000000000000000000000000000000000000000000000002815260040161143b91906146e9565b600060405180830381600087803b15801561145557600080fd5b505af1158015611469573d6000803e3d6000fd5b505050506040513d6000823e3d601f19601f820116820180604052506114929190810190614228565b93506004846040518082805190602001908083835b6020831015156114cc57805182526020820191506020810190506020830392506114a7565b6001836020036101000a0380198251168184511680821785525050505050509050019150509081526020016040518091039020876040518082805190602001908083835b6020831015156115355780518252602082019150602081019050602083039250611510565b6001836020036101000a03801982511681845116808217855250505050505090500191505090815260200160405180910390208590806001815401808255809150509060018203906000526020600020016000909192909190915090805190602001906115a3929190613d74565b50507f41d8ad268fec8e502c884f31a2ebc493717fcb0ee93f7c250bd368524d1fe612856040516115d491906149ca565b60405180910390a150505050505050565b60606004836040518082805190602001908083835b60208310151561161f57805182526020820191506020810190506020830392506115fa565b6001836020036101000a0380198251168184511680821785525050505050509050019150509081526020016040518091039020826040518082805190602001908083835b6020831015156116885780518252602082019150602081019050602083039250611663565b6001836020036101000a0380198251168184511680821785525050505050509050019150509081526020016040518091039020805480602002602001604051908101604052809291908181526020016000905b82821015611797578382906000526020600020018054600181600116156101000203166002900480601f0160208091040260200160405190810160405280929190818152602001828054600181600116156101000203166002900480156117835780601f1061175857610100808354040283529160200191611783565b820191906000526020600020905b81548152906001019060200180831161176657829003601f168201915b5050505050815260200190600101906116db565b50505050905092915050565b6117ab613d4b565b6000326000809054906101000a900473ffffffffffffffffffffffffffffffffffffffff1673ffffffffffffffffffffffffffffffffffffffff1663121da33c6040518163ffffffff167c0100000000000000000000000000000000000000000000000000000000028152600401602060405180830381600087803b15801561183357600080fd5b505af1158015611847573d6000803e3d6000fd5b505050506040513d601f19601f8201168201806040525061186b9190810190614479565b806000809054906101000a900473ffffffffffffffffffffffffffffffffffffffff1673ffffffffffffffffffffffffffffffffffffffff166344276733846040518263ffffffff167c01000000000000000000000000000000000000000000000000000000000281526004016118e291906146e9565b602060405180830381600087803b1580156118fc57600080fd5b505af1158015611910573d6000803e3d6000fd5b505050506040513d601f19601f820116820180604052506119349190810190614479565b141515611976576040517f08c379a000000000000000000000000000000000000000000000000000000000815260040161196d90614cfe565b60405180910390fd5b866000600160009054906101000a900473ffffffffffffffffffffffffffffffffffffffff1673ffffffffffffffffffffffffffffffffffffffff166385ae0830836040518263ffffffff167c01000000000000000000000000000000000000000000000000000000000281526004016119f091906149ca565b602060405180830381600087803b158015611a0a57600080fd5b505af1158015611a1e573d6000803e3d6000fd5b505050506040513d601f19601f82011682018060405250611a429190810190614479565b111515611a84576040517f08c379a0000000000000000000000000000000000000000000000000000000008152600401611a7b90614c9e565b60405180910390fd5b600160009054906101000a900473ffffffffffffffffffffffffffffffffffffffff1673ffffffffffffffffffffffffffffffffffffffff16635f983bd0896040518263ffffffff167c0100000000000000000000000000000000000000000000000000000000028152600401611afb91906149ca565b608060405180830381600087803b158015611b1557600080fd5b505af1158015611b29573d6000803e3d6000fd5b505050506040513d601f19601f82011682018060405250611b4d919081019061440f565b945060008560200151111515611b98576040517f08c379a0000000000000000000000000000000000000000000000000000000008152600401611b8f90614d1e565b60405180910390fd5b348786602001510211151515611be3576040517f08c379a0000000000000000000000000000000000000000000000000000000008152600401611bda90614cde565b60405180910390fd5b600160009054906101000a900473ffffffffffffffffffffffffffffffffffffffff1673ffffffffffffffffffffffffffffffffffffffff1663d27a69ff89898960016040518563ffffffff167c0100000000000000000000000000000000000000000000000000000000028152600401611c619493929190614b8a565b602060405180830381600087803b158015611c7b57600080fd5b505af1158015611c8f573d6000803e3d6000fd5b505050506040513d601f19601f82011682018060405250611cb39190810190614479565b9350600084111515611cfa576040517f08c379a0000000000000000000000000000000000000000000000000000000008152600401611cf190614cbe565b60405180910390fd5b611d078888883288613386565b8573ffffffffffffffffffffffffffffffffffffffff166108fc888760200151029081150290604051600060405180830381858888f19350505050158015611d53573d6000803e3d6000fd5b503273ffffffffffffffffffffffffffffffffffffffff166108fc8887602001510234039081150290604051600060405180830381858888f19350505050158015611da2573d6000803e3d6000fd5b505050505050505050565b60006004836040518082805190602001908083835b602083101515611de75780518252602082019150602081019050602083039250611dc2565b6001836020036101000a0380198251168184511680821785525050505050509050019150509081526020016040518091039020826040518082805190602001908083835b602083101515611e505780518252602082019150602081019050602083039250611e2b565b6001836020036101000a038019825116818451168082178552505050505050905001915050908152602001604051809103902080549050905092915050565b606060006060806000611ea0613df4565b6000600160009054906101000a900473ffffffffffffffffffffffffffffffffffffffff1673ffffffffffffffffffffffffffffffffffffffff16632882722c8d60038d6040518463ffffffff167c0100000000000000000000000000000000000000000000000000000000028152600401611f1e93929190614b4c565b600060405180830381600087803b158015611f3857600080fd5b505af1158015611f4c573d6000803e3d6000fd5b505050506040513d6000823e3d601f19601f82011682018060405250611f7591908101906141e7565b96506000955087604051908082528060200260200182016040528015611faf57816020015b6060815260200190600190039081611f9a5790505b509350865192505b600083118015611fc657508a86105b156126a757600160009054906101000a900473ffffffffffffffffffffffffffffffffffffffff1673ffffffffffffffffffffffffffffffffffffffff1663cb78b527886001860381518110151561201a57fe5b906020019060200201516040518263ffffffff167c010000000000000000000000000000000000000000000000000000000002815260040161205c91906149a8565b600060405180830381600087803b15801561207657600080fd5b505af115801561208a573d6000803e3d6000fd5b505050506040513d6000823e3d601f19601f820116820180604052506120b39190810190614438565b915086600184038151811015156120c657fe5b906020019060200201516120dd8360e00151613231565b6040516020018083805190602001908083835b60208310151561211557805182526020820191506020810190506020830392506120f0565b6001836020036101000a038019825116818451168082178552505050505050905001807f2d0000000000000000000000000000000000000000000000000000000000000081525060010182805190602001908083835b602083101515612190578051825260208201915060208101905060208303925061216b565b6001836020036101000a038019825116818451168082178552505050505050905001925050506040516020818303038152906040529450848488516001868c0103038151811015156121de57fe5b906020019060200201819052508a8260c001518701111515612449578160c0015186019550600160009054906101000a900473ffffffffffffffffffffffffffffffffffffffff1673ffffffffffffffffffffffffffffffffffffffff166327ad26048a8460200151856040015186606001518e8860a001518960c001518d60016040518a63ffffffff167c010000000000000000000000000000000000000000000000000000000002815260040161229f9998979695949392919061479f565b600060405180830381600087803b1580156122b957600080fd5b505af11580156122cd573d6000803e3d6000fd5b50505050600160009054906101000a900473ffffffffffffffffffffffffffffffffffffffff1673ffffffffffffffffffffffffffffffffffffffff16630b58127d8a878f60046040518563ffffffff167c010000000000000000000000000000000000000000000000000000000002815260040161234f9493929190614933565b600060405180830381600087803b15801561236957600080fd5b505af115801561237d573d6000803e3d6000fd5b50505050600160009054906101000a900473ffffffffffffffffffffffffffffffffffffffff1673ffffffffffffffffffffffffffffffffffffffff16636521f43788600186038151811015156123d057fe5b906020019060200201516040518263ffffffff167c010000000000000000000000000000000000000000000000000000000002815260040161241291906149a8565b600060405180830381600087803b15801561242c57600080fd5b505af1158015612440573d6000803e3d6000fd5b50505050612699565b858b039050600160009054906101000a900473ffffffffffffffffffffffffffffffffffffffff1673ffffffffffffffffffffffffffffffffffffffff1663cddfe421886001860381518110151561249d57fe5b90602001906020020151836040518363ffffffff167c01000000000000000000000000000000000000000000000000000000000281526004016124e1929190614c6e565b600060405180830381600087803b1580156124fb57600080fd5b505af115801561250f573d6000803e3d6000fd5b50505050600160009054906101000a900473ffffffffffffffffffffffffffffffffffffffff1673ffffffffffffffffffffffffffffffffffffffff166327ad26048a8460200151856040015186606001518e8860a00151888d60016040518a63ffffffff167c01000000000000000000000000000000000000000000000000000000000281526004016125ab9998979695949392919061479f565b600060405180830381600087803b1580156125c557600080fd5b505af11580156125d9573d6000803e3d6000fd5b50505050600160009054906101000a900473ffffffffffffffffffffffffffffffffffffffff1673ffffffffffffffffffffffffffffffffffffffff16630b58127d8a878f60046040518563ffffffff167c010000000000000000000000000000000000000000000000000000000002815260040161265b9493929190614933565b600060405180830381600087803b15801561267557600080fd5b505af1158015612689573d6000803e3d6000fd5b50505050808260c0015187010195505b828060019003935050611fb7565b8a86141561276757600160009054906101000a900473ffffffffffffffffffffffffffffffffffffffff1673ffffffffffffffffffffffffffffffffffffffff166398d91c2c8d8c6003878c51036040518563ffffffff167c01000000000000000000000000000000000000000000000000000000000281526004016127309493929190614a84565b600060405180830381600087803b15801561274a57600080fd5b505af115801561275e573d6000803e3d6000fd5b5050505061281e565b600160009054906101000a900473ffffffffffffffffffffffffffffffffffffffff1673ffffffffffffffffffffffffffffffffffffffff166398d91c2c8d8c60036001888d5103036040518563ffffffff167c01000000000000000000000000000000000000000000000000000000000281526004016127eb9493929190614a84565b600060405180830381600087803b15801561280557600080fd5b505af1158015612819573d6000803e3d6000fd5b505050505b7ffa7c56eedf33fa3599d1f0f1ce1894dc1648ed714f99f4a3318a364fc5d75cce8460405161284d9190614986565b60405180910390a1505050505050505050505050565b606060006060806000612874613df4565b6000600160009054906101000a900473ffffffffffffffffffffffffffffffffffffffff1673ffffffffffffffffffffffffffffffffffffffff16632882722c8d60028d6040518463ffffffff167c01000000000000000000000000000000000000000000000000000000000281526004016128f293929190614b0e565b600060405180830381600087803b15801561290c57600080fd5b505af1158015612920573d6000803e3d6000fd5b505050506040513d6000823e3d601f19601f8201168201806040525061294991908101906141e7565b9650600095508760405190808252806020026020018201604052801561298357816020015b606081526020019060019003908161296e5790505b509350865192505b60008311801561299a57508a86105b1561307557600160009054906101000a900473ffffffffffffffffffffffffffffffffffffffff1673ffffffffffffffffffffffffffffffffffffffff1663cb78b52788600186038151811015156129ee57fe5b906020019060200201516040518263ffffffff167c0100000000000000000000000000000000000000000000000000000000028152600401612a3091906149a8565b600060405180830381600087803b158015612a4a57600080fd5b505af1158015612a5e573d6000803e3d6000fd5b505050506040513d6000823e3d601f19601f82011682018060405250612a879190810190614438565b91508660018403815181101515612a9a57fe5b90602001906020020151612ab18360e00151613231565b6040516020018083805190602001908083835b602083101515612ae95780518252602082019150602081019050602083039250612ac4565b6001836020036101000a038019825116818451168082178552505050505050905001807f2d0000000000000000000000000000000000000000000000000000000000000081525060010182805190602001908083835b602083101515612b645780518252602082019150602081019050602083039250612b3f565b6001836020036101000a038019825116818451168082178552505050505050905001925050506040516020818303038152906040529450848488516001868c010303815181101515612bb257fe5b906020019060200201819052508a8260c001518701111515612e1a578160c0015186019550600160009054906101000a900473ffffffffffffffffffffffffffffffffffffffff1673ffffffffffffffffffffffffffffffffffffffff166327ad26048a846020015185604001518d60008860a001518960c001518d60016040518a63ffffffff167c0100000000000000000000000000000000000000000000000000000000028152600401612c709998979695949392919061479f565b600060405180830381600087803b158015612c8a57600080fd5b505af1158015612c9e573d6000803e3d6000fd5b50505050600160009054906101000a900473ffffffffffffffffffffffffffffffffffffffff1673ffffffffffffffffffffffffffffffffffffffff16630b58127d8a878f60036040518563ffffffff167c0100000000000000000000000000000000000000000000000000000000028152600401612d2094939291906148e0565b600060405180830381600087803b158015612d3a57600080fd5b505af1158015612d4e573d6000803e3d6000fd5b50505050600160009054906101000a900473ffffffffffffffffffffffffffffffffffffffff1673ffffffffffffffffffffffffffffffffffffffff16636521f4378860018603815181101515612da157fe5b906020019060200201516040518263ffffffff167c0100000000000000000000000000000000000000000000000000000000028152600401612de391906149a8565b600060405180830381600087803b158015612dfd57600080fd5b505af1158015612e11573d6000803e3d6000fd5b50505050613067565b858b039050600160009054906101000a900473ffffffffffffffffffffffffffffffffffffffff1673ffffffffffffffffffffffffffffffffffffffff1663cddfe4218860018603815181101515612e6e57fe5b90602001906020020151836040518363ffffffff167c0100000000000000000000000000000000000000000000000000000000028152600401612eb2929190614c6e565b600060405180830381600087803b158015612ecc57600080fd5b505af1158015612ee0573d6000803e3d6000fd5b50505050600160009054906101000a900473ffffffffffffffffffffffffffffffffffffffff1673ffffffffffffffffffffffffffffffffffffffff166327ad26048a846020015185604001518d60008860a00151888d60016040518a63ffffffff167c0100000000000000000000000000000000000000000000000000000000028152600401612f799998979695949392919061479f565b600060405180830381600087803b158015612f9357600080fd5b505af1158015612fa7573d6000803e3d6000fd5b50505050600160009054906101000a900473ffffffffffffffffffffffffffffffffffffffff1673ffffffffffffffffffffffffffffffffffffffff16630b58127d8a878f60036040518563ffffffff167c010000000000000000000000000000000000000000000000000000000002815260040161302994939291906148e0565b600060405180830381600087803b15801561304357600080fd5b505af1158015613057573d6000803e3d6000fd5b50505050808260c0015187010195505b82806001900393505061298b565b8a86141561313557600160009054906101000a900473ffffffffffffffffffffffffffffffffffffffff1673ffffffffffffffffffffffffffffffffffffffff166398d91c2c8d8c6002878c51036040518563ffffffff167c01000000000000000000000000000000000000000000000000000000000281526004016130fe9493929190614a38565b600060405180830381600087803b15801561311857600080fd5b505af115801561312c573d6000803e3d6000fd5b505050506131ec565b600160009054906101000a900473ffffffffffffffffffffffffffffffffffffffff1673ffffffffffffffffffffffffffffffffffffffff166398d91c2c8d8c60026001888d5103036040518563ffffffff167c01000000000000000000000000000000000000000000000000000000000281526004016131b99493929190614a38565b600060405180830381600087803b1580156131d357600080fd5b505af11580156131e7573d6000803e3d6000fd5b505050505b7fc96d78efa23a38a9f968abe08f246f86d28734593ece229ec4a8408a046870e58460405161321b9190614986565b60405180910390a1505050505050505050505050565b60606000806060600085141561327e576040805190810160405280600181526020017f3000000000000000000000000000000000000000000000000000000000000000815250935061337e565b8492505b6000831415156132a8578180600101925050600a838115156132a057fe5b049250613282565b816040519080825280601f01601f1916602001820160405280156132db5781602001602082028038833980820191505090505b5090506001820392505b60008514151561337a57600a858115156132fb57fe5b066030017f01000000000000000000000000000000000000000000000000000000000000000281848060019003955081518110151561333657fe5b9060200101907effffffffffffffffffffffffffffffffffffffffffffffffffffffffffffff1916908160001a905350600a8581151561337257fe5b0494506132e5565b8093505b505050919050565b606060006060806000613397613df4565b6000600160009054906101000a900473ffffffffffffffffffffffffffffffffffffffff1673ffffffffffffffffffffffffffffffffffffffff16632882722c8d60018d6040518463ffffffff167c010000000000000000000000000000000000000000000000000000000002815260040161341593929190614ad0565b600060405180830381600087803b15801561342f57600080fd5b505af1158015613443573d6000803e3d6000fd5b505050506040513d6000823e3d601f19601f8201168201806040525061346c91908101906141e7565b965060009550876040519080825280602002602001820160405280156134a657816020015b60608152602001906001900390816134915790505b509350865192505b6000831180156134bd57508a86105b15613b9057600160009054906101000a900473ffffffffffffffffffffffffffffffffffffffff1673ffffffffffffffffffffffffffffffffffffffff1663cb78b527886001860381518110151561351157fe5b906020019060200201516040518263ffffffff167c010000000000000000000000000000000000000000000000000000000002815260040161355391906149a8565b600060405180830381600087803b15801561356d57600080fd5b505af1158015613581573d6000803e3d6000fd5b505050506040513d6000823e3d601f19601f820116820180604052506135aa9190810190614438565b915086600184038151811015156135bd57fe5b906020019060200201516135d48360e00151613231565b6040516020018083805190602001908083835b60208310151561360c57805182526020820191506020810190506020830392506135e7565b6001836020036101000a038019825116818451168082178552505050505050905001807f2d0000000000000000000000000000000000000000000000000000000000000081525060010182805190602001908083835b6020831015156136875780518252602082019150602081019050602083039250613662565b6001836020036101000a038019825116818451168082178552505050505050905001925050506040516020818303038152906040529450848488516001868c0103038151811015156136d557fe5b906020019060200201819052508a8260c001518701111515613939578160c0015186019550600160009054906101000a900473ffffffffffffffffffffffffffffffffffffffff1673ffffffffffffffffffffffffffffffffffffffff166327ad26048a84602001518c6000808860a001518960c001518d60016040518a63ffffffff167c010000000000000000000000000000000000000000000000000000000002815260040161378f9998979695949392919061479f565b600060405180830381600087803b1580156137a957600080fd5b505af11580156137bd573d6000803e3d6000fd5b50505050600160009054906101000a900473ffffffffffffffffffffffffffffffffffffffff1673ffffffffffffffffffffffffffffffffffffffff16630b58127d8a878f60026040518563ffffffff167c010000000000000000000000000000000000000000000000000000000002815260040161383f949392919061488d565b600060405180830381600087803b15801561385957600080fd5b505af115801561386d573d6000803e3d6000fd5b50505050600160009054906101000a900473ffffffffffffffffffffffffffffffffffffffff1673ffffffffffffffffffffffffffffffffffffffff16636521f43788600186038151811015156138c057fe5b906020019060200201516040518263ffffffff167c010000000000000000000000000000000000000000000000000000000002815260040161390291906149a8565b600060405180830381600087803b15801561391c57600080fd5b505af1158015613930573d6000803e3d6000fd5b50505050613b82565b858b039050600160009054906101000a900473ffffffffffffffffffffffffffffffffffffffff1673ffffffffffffffffffffffffffffffffffffffff1663cddfe421886001860381518110151561398d57fe5b90602001906020020151836040518363ffffffff167c01000000000000000000000000000000000000000000000000000000000281526004016139d1929190614c6e565b600060405180830381600087803b1580156139eb57600080fd5b505af11580156139ff573d6000803e3d6000fd5b50505050600160009054906101000a900473ffffffffffffffffffffffffffffffffffffffff1673ffffffffffffffffffffffffffffffffffffffff166327ad26048a84602001518c6000808860a00151888d60016040518a63ffffffff167c0100000000000000000000000000000000000000000000000000000000028152600401613a949998979695949392919061479f565b600060405180830381600087803b158015613aae57600080fd5b505af1158015613ac2573d6000803e3d6000fd5b50505050600160009054906101000a900473ffffffffffffffffffffffffffffffffffffffff1673ffffffffffffffffffffffffffffffffffffffff16630b58127d8a878f60026040518563ffffffff167c0100000000000000000000000000000000000000000000000000000000028152600401613b44949392919061488d565b600060405180830381600087803b158015613b5e57600080fd5b505af1158015613b72573d6000803e3d6000fd5b50505050808260c0015187010195505b8280600190039350506134ae565b8a861415613c5057600160009054906101000a900473ffffffffffffffffffffffffffffffffffffffff1673ffffffffffffffffffffffffffffffffffffffff166398d91c2c8d8c6001878c51036040518563ffffffff167c0100000000000000000000000000000000000000000000000000000000028152600401613c1994939291906149ec565b600060405180830381600087803b158015613c3357600080fd5b505af1158015613c47573d6000803e3d6000fd5b50505050613d06565b600160009054906101000a900473ffffffffffffffffffffffffffffffffffffffff1673ffffffffffffffffffffffffffffffffffffffff166398d91c2c8d8c600180888d5103036040518563ffffffff167c0100000000000000000000000000000000000000000000000000000000028152600401613cd394939291906149ec565b600060405180830381600087803b158015613ced57600080fd5b505af1158015613d01573d6000803e3d6000fd5b505050505b7ff231044f4afaa1d0c90c928c59b56adc80f19a7985ea78a070ca5859f6f0eaa984604051613d359190614986565b60405180910390a1505050505050505050505050565b608060405190810160405280600081526020016000815260200160008152602001600081525090565b828054600181600116156101000203166002900490600052602060002090601f016020900481019282601f10613db557805160ff1916838001178555613de3565b82800160010185558215613de3579182015b82811115613de2578251825591602001919060010190613dc7565b5b509050613df09190613ea8565b5090565b61010060405190810160405280600073ffffffffffffffffffffffffffffffffffffffff168152602001600073ffffffffffffffffffffffffffffffffffffffff168152602001600073ffffffffffffffffffffffffffffffffffffffff168152602001600073ffffffffffffffffffffffffffffffffffffffff168152602001600073ffffffffffffffffffffffffffffffffffffffff1681526020016060815260200160008152602001600081525090565b613eca91905b80821115613ec6576000816000905550600101613eae565b5090565b90565b6000613ed98235614e6b565b905092915050565b6000613eed8251614e6b565b905092915050565b600082601f8301121515613f0857600080fd5b8151613f1b613f1682614d86565b614d59565b9150818183526020840193506020810190508360005b83811015613f615781518601613f478882613f6b565b845260208401935060208301925050600181019050613f31565b5050505092915050565b600082601f8301121515613f7e57600080fd5b8151613f91613f8c82614dae565b614d59565b91508082526020830160208301858383011115613fad57600080fd5b613fb8838284614eec565b50505092915050565b600082601f8301121515613fd457600080fd5b8135613fe7613fe282614dda565b614d59565b9150808252602083016020830185838301111561400357600080fd5b61400e838284614edd565b50505092915050565b600082601f830112151561402a57600080fd5b815161403d61403882614dda565b614d59565b9150808252602083016020830185838301111561405957600080fd5b614064838284614eec565b50505092915050565b60006080828403121561407f57600080fd5b6140896080614d59565b90506000614099848285016141d3565b60008301525060206140ad848285016141d3565b60208301525060406140c1848285016141d3565b60408301525060606140d5848285016141d3565b60608301525092915050565b600061010082840312156140f457600080fd5b6140ff610100614d59565b9050600061410f84828501613ee1565b600083015250602061412384828501613ee1565b602083015250604061413784828501613ee1565b604083015250606061414b84828501613ee1565b606083015250608061415f84828501613ee1565b60808301525060a082015167ffffffffffffffff81111561417f57600080fd5b61418b84828501613f6b565b60a08301525060c061419f848285016141d3565b60c08301525060e06141b3848285016141d3565b60e08301525092915050565b60006141cb8235614e8b565b905092915050565b60006141df8251614e8b565b905092915050565b6000602082840312156141f957600080fd5b600082015167ffffffffffffffff81111561421357600080fd5b61421f84828501613ef5565b91505092915050565b60006020828403121561423a57600080fd5b600082015167ffffffffffffffff81111561425457600080fd5b61426084828501614017565b91505092915050565b6000806040838503121561427c57600080fd5b600083013567ffffffffffffffff81111561429657600080fd5b6142a285828601613fc1565b925050602083013567ffffffffffffffff8111156142bf57600080fd5b6142cb85828601613fc1565b9150509250929050565b6000806000606084860312156142ea57600080fd5b600084013567ffffffffffffffff81111561430457600080fd5b61431086828701613fc1565b935050602084013567ffffffffffffffff81111561432d57600080fd5b61433986828701613fc1565b925050604061434a868287016141bf565b9150509250925092565b6000806040838503121561436757600080fd5b600083013567ffffffffffffffff81111561438157600080fd5b61438d85828601613fc1565b925050602061439e858286016141bf565b9150509250929050565b6000806000606084860312156143bd57600080fd5b600084013567ffffffffffffffff8111156143d757600080fd5b6143e386828701613fc1565b93505060206143f4868287016141bf565b925050604061440586828701613ecd565b9150509250925092565b60006080828403121561442157600080fd5b600061442f8482850161406d565b91505092915050565b60006020828403121561444a57600080fd5b600082015167ffffffffffffffff81111561446457600080fd5b614470848285016140e1565b91505092915050565b60006020828403121561448b57600080fd5b6000614499848285016141d3565b91505092915050565b6144ab81614e41565b82525050565b60006144bc82614e13565b808452602084019350836020820285016144d585614e06565b60005b8481101561450e5783830388526144f0838351614591565b92506144fb82614e34565b91506020880197506001810190506144d8565b508196508694505050505092915050565b61452881614e95565b82525050565b61453781614ea7565b82525050565b61454681614eb9565b82525050565b61455581614ecb565b82525050565b600061456682614e29565b80845261457a816020860160208601614eec565b61458381614f1f565b602085010191505092915050565b600061459c82614e1e565b8084526145b0816020860160208601614eec565b6145b981614f1f565b602085010191505092915050565b6000601a82527f43726f70206e6f7420616c6c6f77656420696e2073797374656d0000000000006020830152604082019050919050565b6000600e82527f4c6f77206f6e2070726f647563740000000000000000000000000000000000006020830152604082019050919050565b6000600d82527f4c6f77206f6e20657468657273000000000000000000000000000000000000006020830152604082019050919050565b6000601a82527f526563656976657220726f6c6520697320696e636f72726563740000000000006020830152604082019050919050565b6000600d82527f5072696365206e6f7420736574000000000000000000000000000000000000006020830152604082019050919050565b6146e381614e61565b82525050565b60006020820190506146fe60008301846144a2565b92915050565b60006101208201905061471a600083018c6144a2565b614727602083018b6144a2565b614734604083018a6144a2565b61474160608301896144a2565b61474e60808301886144a2565b81810360a0830152614760818761455b565b905061476f60c08301866146da565b81810360e0830152614781818561455b565b905061479161010083018461451f565b9a9950505050505050505050565b6000610120820190506147b5600083018c6144a2565b6147c2602083018b6144a2565b6147cf604083018a6144a2565b6147dc60608301896144a2565b6147e960808301886144a2565b81810360a08301526147fb8187614591565b905061480a60c08301866146da565b81810360e083015261481c818561455b565b905061482c61010083018461451f565b9a9950505050505050505050565b600060808201905061484f60008301876144a2565b8181036020830152614861818661455b565b90508181036040830152614875818561455b565b9050614884606083018461451f565b95945050505050565b60006080820190506148a260008301876144a2565b81810360208301526148b4818661455b565b905081810360408301526148c8818561455b565b90506148d7606083018461452e565b95945050505050565b60006080820190506148f560008301876144a2565b8181036020830152614907818661455b565b9050818103604083015261491b818561455b565b905061492a606083018461453d565b95945050505050565b600060808201905061494860008301876144a2565b818103602083015261495a818661455b565b9050818103604083015261496e818561455b565b905061497d606083018461454c565b95945050505050565b600060208201905081810360008301526149a081846144b1565b905092915050565b600060208201905081810360008301526149c28184614591565b905092915050565b600060208201905081810360008301526149e4818461455b565b905092915050565b60006080820190508181036000830152614a06818761455b565b9050614a1560208301866144a2565b614a22604083018561451f565b614a2f60608301846146da565b95945050505050565b60006080820190508181036000830152614a52818761455b565b9050614a6160208301866144a2565b614a6e604083018561452e565b614a7b60608301846146da565b95945050505050565b60006080820190508181036000830152614a9e818761455b565b9050614aad60208301866144a2565b614aba604083018561453d565b614ac760608301846146da565b95945050505050565b60006060820190508181036000830152614aea818661455b565b9050614af9602083018561451f565b614b0660408301846144a2565b949350505050565b60006060820190508181036000830152614b28818661455b565b9050614b37602083018561452e565b614b4460408301846144a2565b949350505050565b60006060820190508181036000830152614b66818661455b565b9050614b75602083018561453d565b614b8260408301846144a2565b949350505050565b60006080820190508181036000830152614ba4818761455b565b9050614bb360208301866146da565b614bc060408301856144a2565b614bcd606083018461451f565b95945050505050565b60006080820190508181036000830152614bf0818761455b565b9050614bff60208301866146da565b614c0c60408301856144a2565b614c19606083018461452e565b95945050505050565b60006080820190508181036000830152614c3c818761455b565b9050614c4b60208301866146da565b614c5860408301856144a2565b614c65606083018461453d565b95945050505050565b60006040820190508181036000830152614c888185614591565b9050614c9760208301846146da565b9392505050565b60006020820190508181036000830152614cb7816145c7565b9050919050565b60006020820190508181036000830152614cd7816145fe565b9050919050565b60006020820190508181036000830152614cf781614635565b9050919050565b60006020820190508181036000830152614d178161466c565b9050919050565b60006020820190508181036000830152614d37816146a3565b9050919050565b6000602082019050614d5360008301846146da565b92915050565b6000604051905081810181811067ffffffffffffffff82111715614d7c57600080fd5b8060405250919050565b600067ffffffffffffffff821115614d9d57600080fd5b602082029050602081019050919050565b600067ffffffffffffffff821115614dc557600080fd5b601f19601f8301169050602081019050919050565b600067ffffffffffffffff821115614df157600080fd5b601f19601f8301169050602081019050919050565b6000602082019050919050565b600081519050919050565b600081519050919050565b600081519050919050565b6000602082019050919050565b600073ffffffffffffffffffffffffffffffffffffffff82169050919050565b6000819050919050565b600073ffffffffffffffffffffffffffffffffffffffff82169050919050565b6000819050919050565b6000614ea082614e61565b9050919050565b6000614eb282614e61565b9050919050565b6000614ec482614e61565b9050919050565b6000614ed682614e61565b9050919050565b82818337600083830152505050565b60005b83811015614f0a578082015181840152602081019050614eef565b83811115614f19576000848401525b50505050565b6000601f19601f83011690509190505600a265627a7a7230582054e43d2875296a8afbfc3a3600320b1265641424708af3802a29ef40d0a70fc46c6578706572696d656e74616cf50037",
  "source": "// SPDX-License-Identifier: GPL-3.0\r\npragma solidity ^0.4.22;\r\npragma experimental ABIEncoderV2;\r\n\r\nimport \"./Roles.sol\";\r\nimport './FarmerContract.sol';\r\nimport \"./SupplyChain.sol\";\r\nimport \"./HelperMethods.sol\";\r\n\r\ncontract SupplyChain2 {\r\n    Roles rc;\r\n    SupplyChain sc;\r\n    FarmerContract fc;\r\n\r\n    uint256 productID;\r\n\r\n    mapping(string => mapping(string => string[])) statewiseProduction;\r\n    \r\n    event ProductIDGeneratedFarmer(string);\r\n    event ProductIDGeneratedDistributor(string[]);\r\n    event ProductIDGeneratedRetailer(string[]);\r\n    event ProductIDGeneratedConsumer(string[]);\r\n\r\n    constructor(address _rcaddress, address _scaddress, address _fcaddress) public {\r\n        rc = Roles(_rcaddress);\r\n        sc = SupplyChain(_scaddress);\r\n        fc = FarmerContract(_fcaddress);\r\n        productID = 1;\r\n    }\r\n    \r\n    modifier verifyReceiver(address _address, uint256 roleID) {\r\n        require(rc.getRole(_address) == roleID, \"Receiver role is incorrect\");\r\n        _;\r\n    }\r\n\r\n    modifier validProduct(string _productType) {\r\n        require(sc.getSerialNumber(_productType) > 0, \"Crop not allowed in system\");\r\n        _;\r\n    }\r\n\r\n    /*function addFirstItems(string newProductID, string _productType, uint256 _weight) private {\r\n        sc.insertNewId(tx.origin, newProductID, _productType, 1);\r\n        sc.insertItem(tx.origin, tx.origin,address(0),address(0),address(0), _productType, _weight, newProductID, 1);\r\n    }*/\r\n\r\n    function withdrawProductFromFarmer(string _productName, uint256 _weight, address _owner, address _receiver, uint256 sz) private {\r\n        string[] memory ids = sc.getAllProductsPerOwner(_productName, 1, _owner);\r\n        uint256 weightPresent = 0;\r\n        \r\n        string memory newId;\r\n        string[] memory newIds = new string[](sz);\r\n\r\n        for (uint256 i = ids.length; i > 0 && weightPresent < _weight; i--) {\r\n            SupplyChain.Item memory currentItem = sc.getItems(ids[i-1]);\r\n            newId = string(abi.encodePacked(ids[i-1],\"-\",HelperMethods.integerToString(currentItem.parts)));\r\n            newIds[sz + i - 1 - ids.length] = newId;\r\n             \r\n            if (weightPresent + currentItem.weight <= _weight) {\r\n                weightPresent = weightPresent + currentItem.weight;\r\n                sc.insertItem(_receiver, currentItem.farmerID, _receiver, address(0), address(0), currentItem.productType, currentItem.weight, newId, 1);\r\n                sc.insertNewId(_receiver, newId, _productName, 2);\r\n                sc.deleteItem(ids[i-1]);\r\n            } else {\r\n                uint256 wt = _weight - weightPresent;\r\n                sc.updateCurrentItem(ids[i-1],wt);\r\n                sc.insertItem(_receiver, currentItem.farmerID, _receiver, address(0), address(0), currentItem.productType, wt, newId, 1);\r\n                sc.insertNewId(_receiver, newId, _productName, 2);\r\n                weightPresent = weightPresent + currentItem.weight + wt;\r\n            }\r\n        }\r\n        \r\n        if (weightPresent == _weight) {\r\n            sc.deleteFromOwner(_productName, _owner, 1, ids.length-i);\r\n        } else {\r\n            sc.deleteFromOwner(_productName, _owner, 1, ids.length-i-1);\r\n        }\r\n\r\n        emit ProductIDGeneratedDistributor(newIds);\r\n    }\r\n\r\n    function withdrawProductFromDistributor(string _productName, uint256 _weight, address _owner, address _receiver, uint256 sz) private {\r\n        string[] memory ids = sc.getAllProductsPerOwner(_productName, 2, _owner);\r\n        uint256 weightPresent = 0;\r\n        \r\n        string memory newId;\r\n        string[] memory newIds = new string[](sz);\r\n\r\n        for (uint256 i = ids.length; i > 0 && weightPresent < _weight; i--) {\r\n            SupplyChain.Item memory currentItem = sc.getItems(ids[i-1]);\r\n            newId = string(abi.encodePacked(ids[i-1],\"-\",HelperMethods.integerToString(currentItem.parts)));\r\n            newIds[sz + i - 1 - ids.length] = newId;\r\n             \r\n            if (weightPresent + currentItem.weight <= _weight) {\r\n                weightPresent = weightPresent + currentItem.weight;\r\n                sc.insertItem(_receiver, currentItem.farmerID, currentItem.distributorID, _receiver, address(0), currentItem.productType, currentItem.weight, newId, 1);\r\n                sc.insertNewId(_receiver, newId, _productName, 3);\r\n                sc.deleteItem(ids[i-1]);\r\n            } else {\r\n                uint256 wt = _weight - weightPresent;\r\n                sc.updateCurrentItem(ids[i-1],wt);\r\n                sc.insertItem(_receiver, currentItem.farmerID, currentItem.distributorID, _receiver, address(0), currentItem.productType, wt, newId, 1);\r\n                sc.insertNewId(_receiver, newId, _productName, 3);\r\n                weightPresent = weightPresent + currentItem.weight + wt;\r\n            }\r\n        }\r\n        \r\n        if (weightPresent == _weight) {\r\n            sc.deleteFromOwner(_productName, _owner, 2, ids.length-i);\r\n        } else {\r\n            sc.deleteFromOwner(_productName, _owner, 2, ids.length-i-1);\r\n        }\r\n\r\n        emit ProductIDGeneratedRetailer(newIds);\r\n    }\r\n\r\n    function withdrawProductFromRetailer(string _productName, uint256 _weight, address _owner, address _receiver, uint256 sz) private {\r\n        string[] memory ids = sc.getAllProductsPerOwner(_productName, 3, _owner);\r\n        uint256 weightPresent = 0;\r\n        \r\n        string memory newId;\r\n        string[] memory newIds = new string[](sz);\r\n\r\n        for (uint256 i = ids.length; i > 0 && weightPresent < _weight; i--) {\r\n            SupplyChain.Item memory currentItem = sc.getItems(ids[i-1]);\r\n            newId = string(abi.encodePacked(ids[i-1],\"-\",HelperMethods.integerToString(currentItem.parts)));\r\n            newIds[sz + i - 1 - ids.length] = newId;\r\n             \r\n            if (weightPresent + currentItem.weight <= _weight) {\r\n                weightPresent = weightPresent + currentItem.weight;\r\n                sc.insertItem(_receiver, currentItem.farmerID, currentItem.distributorID, currentItem.retailerID, _receiver, currentItem.productType, currentItem.weight, newId, 1);\r\n                sc.insertNewId(_receiver, newId, _productName, 4);\r\n                sc.deleteItem(ids[i-1]);\r\n            } else {\r\n                uint256 wt = _weight - weightPresent;\r\n                sc.updateCurrentItem(ids[i-1],wt);\r\n                sc.insertItem(_receiver, currentItem.farmerID, currentItem.distributorID, currentItem.retailerID, _receiver, currentItem.productType, wt, newId, 1);\r\n                sc.insertNewId(_receiver, newId, _productName, 4);\r\n                weightPresent = weightPresent + currentItem.weight + wt;\r\n            }\r\n        }\r\n        \r\n        if (weightPresent == _weight) {\r\n            sc.deleteFromOwner(_productName, _owner, 3, ids.length-i);\r\n        } else {\r\n            sc.deleteFromOwner(_productName, _owner, 3, ids.length-i-1);\r\n        }\r\n\r\n        emit ProductIDGeneratedConsumer(newIds);\r\n    }\r\n\r\n    function harvestItem (\r\n        string _productType,\r\n        uint256 _weight\r\n    ) public\r\n    verifyReceiver(tx.origin, rc.farmerRoleID()) \r\n    validProduct(_productType)\r\n    {\r\n        string memory newProductID = HelperMethods.integerToString(productID);\r\n        sc.insertNewId(tx.origin, newProductID, _productType, 1);\r\n        sc.insertItem(tx.origin, tx.origin,address(0),address(0),address(0), _productType, _weight, newProductID, 1);\r\n        productID++;\r\n        string memory stateOfResidence = fc.getState(tx.origin);\r\n        statewiseProduction[stateOfResidence][_productType].push(newProductID);\r\n\r\n        emit ProductIDGeneratedFarmer(newProductID);\r\n    }\r\n\r\n    function buyFromFarmer(string _productName, uint256 _weight, address _farmerId)\r\n    public payable\r\n    verifyReceiver(tx.origin, rc.distributorRoleID())\r\n    validProduct(_productName) {\r\n        SupplyChain.Crop memory crop = sc.getCropPrices(_productName);        \r\n        require(crop.priceForDistributor > 0, \"Price not set\");\r\n        require(crop.priceForDistributor * _weight <= msg.value, \"Low on ethers\");\r\n\r\n        uint256 sz = sc.checkAvailability(_productName, _weight, _farmerId, 1);\r\n        \r\n        require(sz > 0, \"Low on product\");\r\n        withdrawProductFromFarmer(_productName, _weight, _farmerId, tx.origin, sz);\r\n    \r\n        _farmerId.transfer(crop.priceForDistributor*_weight);\r\n        tx.origin.transfer(msg.value - crop.priceForDistributor*_weight);\r\n    }\r\n\r\n    function buyFromDistributor(string _productName, uint256 _weight, address _distributorId)\r\n    public payable\r\n    verifyReceiver(tx.origin, rc.retailerRoleID())\r\n    validProduct(_productName) {\r\n        SupplyChain.Crop memory crop = sc.getCropPrices(_productName);        \r\n        require(crop.priceForRetailer > 0, \"Price not set\");\r\n        require(crop.priceForRetailer * _weight <= msg.value, \"Low on ethers\");\r\n\r\n        uint256 sz = sc.checkAvailability(_productName, _weight, _distributorId, 2);\r\n        \r\n        require(sz > 0, \"Low on product\");\r\n        withdrawProductFromDistributor(_productName, _weight, _distributorId, tx.origin, sz);\r\n        \r\n        _distributorId.transfer(crop.priceForRetailer*_weight);\r\n        tx.origin.transfer(msg.value - crop.priceForRetailer*_weight);\r\n    }\r\n\r\n    function buyFromRetailer(string _productName, uint256 _weight, address _retailerId)\r\n    public payable\r\n    verifyReceiver(tx.origin, rc.consumerRoleID())\r\n    validProduct(_productName) {\r\n        SupplyChain.Crop memory crop = sc.getCropPrices(_productName);        \r\n        require(crop.priceForConsumer > 0, \"Price not set\");\r\n        require(crop.priceForConsumer * _weight <= msg.value, \"Low on ethers\");\r\n\r\n        uint256 sz = sc.checkAvailability(_productName, _weight, _retailerId, 3);\r\n        \r\n        require(sz > 0, \"Low on product\");\r\n        withdrawProductFromRetailer(_productName, _weight, _retailerId, tx.origin, sz);\r\n        \r\n        _retailerId.transfer(crop.priceForConsumer*_weight);\r\n        tx.origin.transfer(msg.value - crop.priceForConsumer*_weight);\r\n    }\r\n\r\n    function monitorProductsCount(string state, string crop) public view returns (uint256) {\r\n        return statewiseProduction[state][crop].length;\r\n    }\r\n\r\n    function monitorProducts(string state, string crop, uint256 index) public view returns (string) {\r\n        return statewiseProduction[state][crop][index];\r\n    }\r\n\r\n    function monitorAllProducts(string state, string crop) public view returns (string[]) {\r\n        return statewiseProduction[state][crop];\r\n    }\r\n    \r\n}",
  "sourcePath": "D:\\7thSemester\\CS491\\smart_agriculture_react\\contracts\\SupplyChain2.sol",
  "compiler": {
    "name": "solc",
    "version": "0.4.26+commit.4563c3fc.Emscripten.clang"
  },
  "schemaVersion": "3.4.3",
  "updatedAt": "2022-02-05T19:18:45.089Z",
  "networkType": "ethereum",
  "devdoc": {
    "methods": {}
  },
  "userdoc": {
    "methods": {}
  }
}