{
  "contractName": "SupplyChain2",
  "abi": [
    {
      "inputs": [
        {
          "name": "_rcaddress",
          "type": "address"
        },
        {
          "name": "_scaddress",
          "type": "address"
        },
        {
          "name": "_cscAddress",
          "type": "address"
        }
      ],
      "payable": false,
      "stateMutability": "nonpayable",
      "type": "constructor"
    },
    {
      "constant": false,
      "inputs": [
        {
          "name": "_productID",
          "type": "uint256"
        }
      ],
      "name": "harvestItem",
      "outputs": [],
      "payable": false,
      "stateMutability": "nonpayable",
      "type": "function"
    },
    {
      "constant": false,
      "inputs": [
        {
          "name": "_productID",
          "type": "uint256"
        },
        {
          "name": "_weight",
          "type": "uint256"
        },
        {
          "name": "_coldStorageId",
          "type": "address"
        }
      ],
      "name": "storeItem",
      "outputs": [],
      "payable": true,
      "stateMutability": "payable",
      "type": "function"
    },
    {
      "constant": false,
      "inputs": [
        {
          "name": "_productID",
          "type": "uint256"
        },
        {
          "name": "_weight",
          "type": "uint256"
        },
        {
          "name": "_farmerId",
          "type": "address"
        }
      ],
      "name": "sellToDistributor",
      "outputs": [],
      "payable": true,
      "stateMutability": "payable",
      "type": "function"
    },
    {
      "constant": false,
      "inputs": [
        {
          "name": "_productID",
          "type": "uint256"
        },
        {
          "name": "_weight",
          "type": "uint256"
        },
        {
          "name": "_distributorId",
          "type": "address"
        }
      ],
      "name": "sellToRetailer",
      "outputs": [],
      "payable": true,
      "stateMutability": "payable",
      "type": "function"
    },
    {
      "constant": false,
      "inputs": [
        {
          "name": "_productID",
          "type": "uint256"
        },
        {
          "name": "_weight",
          "type": "uint256"
        },
        {
          "name": "_retailerId",
          "type": "address"
        }
      ],
      "name": "sellToConsumer",
      "outputs": [],
      "payable": true,
      "stateMutability": "payable",
      "type": "function"
    }
  ],
  "bytecode": "0x60806040523480156200001157600080fd5b5060405160608062004b9f833981018060405262000033919081019062000114565b826000806101000a81548173ffffffffffffffffffffffffffffffffffffffff021916908373ffffffffffffffffffffffffffffffffffffffff16021790555081600160006101000a81548173ffffffffffffffffffffffffffffffffffffffff021916908373ffffffffffffffffffffffffffffffffffffffff16021790555080600260006101000a81548173ffffffffffffffffffffffffffffffffffffffff021916908373ffffffffffffffffffffffffffffffffffffffff1602179055505050506200018a565b60006200010c82516200016a565b905092915050565b6000806000606084860312156200012a57600080fd5b60006200013a86828701620000fe565b93505060206200014d86828701620000fe565b92505060406200016086828701620000fe565b9150509250925092565b600073ffffffffffffffffffffffffffffffffffffffff82169050919050565b614a05806200019a6000396000f30060806040526004361061006d576000357c0100000000000000000000000000000000000000000000000000000000900463ffffffff168063270a186314610072578063333d6a431461008e578063388e932a146100b75780634528b3cc146100d35780638c50bc65146100ef575b600080fd5b61008c600480360361008791908101906143a2565b61010b565b005b34801561009a57600080fd5b506100b560048036036100b09190810190614350565b610e42565b005b6100d160048036036100cc91908101906143a2565b6114db565b005b6100ed60048036036100e891908101906143a2565b61233a565b005b610109600480360361010491908101906143a2565b61307f565b005b6060610115613f12565b61011d613fee565b606080326000809054906101000a900473ffffffffffffffffffffffffffffffffffffffff1673ffffffffffffffffffffffffffffffffffffffff1663121da33c6040518163ffffffff167c0100000000000000000000000000000000000000000000000000000000028152600401602060405180830381600087803b1580156101a657600080fd5b505af11580156101ba573d6000803e3d6000fd5b505050506040513d601f19601f820116820180604052506101de9190810190614379565b806000809054906101000a900473ffffffffffffffffffffffffffffffffffffffff1673ffffffffffffffffffffffffffffffffffffffff166344276733846040518263ffffffff167c01000000000000000000000000000000000000000000000000000000000281526004016102559190614642565b602060405180830381600087803b15801561026f57600080fd5b505af1158015610283573d6000803e3d6000fd5b505050506040513d601f19601f820116820180604052506102a79190810190614379565b1415156102e9576040517f08c379a00000000000000000000000000000000000000000000000000000000081526004016102e0906147eb565b60405180910390fd5b600160009054906101000a900473ffffffffffffffffffffffffffffffffffffffff1673ffffffffffffffffffffffffffffffffffffffff16634be5aaf56103308c613dbd565b60405160200180807f2d322d000000000000000000000000000000000000000000000000000000000081525060030182805190602001908083835b602083101515610390578051825260208201915060208101905060208303925061036b565b6001836020036101000a0380198251168184511680821785525050505050509050019150506040516020818303038152906040526040518263ffffffff167c01000000000000000000000000000000000000000000000000000000000281526004016103fc9190614707565b600060405180830381600087803b15801561041657600080fd5b505af115801561042a573d6000803e3d6000fd5b505050506040513d6000823e3d601f19601f8201168201806040525061045391908101906142a5565b9650600160009054906101000a900473ffffffffffffffffffffffffffffffffffffffff1673ffffffffffffffffffffffffffffffffffffffff1663cb78b527886040518263ffffffff167c01000000000000000000000000000000000000000000000000000000000281526004016104cc9190614729565b600060405180830381600087803b1580156104e657600080fd5b505af11580156104fa573d6000803e3d6000fd5b505050506040513d6000823e3d601f19601f82011682018060405250610523919081019061430f565b95508773ffffffffffffffffffffffffffffffffffffffff16866000015173ffffffffffffffffffffffffffffffffffffffff16141515610599576040517f08c379a00000000000000000000000000000000000000000000000000000000081526004016105909061474b565b60405180910390fd5b8560e0015189111515156105e2576040517f08c379a00000000000000000000000000000000000000000000000000000000081526004016105d99061476b565b60405180910390fd5b600160009054906101000a900473ffffffffffffffffffffffffffffffffffffffff1673ffffffffffffffffffffffffffffffffffffffff16635f983bd08760c001516040518263ffffffff167c010000000000000000000000000000000000000000000000000000000002815260040161065d9190614707565b608060405180830381600087803b15801561067757600080fd5b505af115801561068b573d6000803e3d6000fd5b505050506040513d601f19601f820116820180604052506106af91908101906142e6565b9450600085600001511115156106fa576040517f08c379a00000000000000000000000000000000000000000000000000000000081526004016106f19061480b565b60405180910390fd5b34856000015111151515610743576040517f08c379a000000000000000000000000000000000000000000000000000000000815260040161073a9061478b565b60405180910390fd5b8773ffffffffffffffffffffffffffffffffffffffff166108fc86600001519081150290604051600060405180830381858888f1935050505015801561078d573d6000803e3d6000fd5b503273ffffffffffffffffffffffffffffffffffffffff166108fc866000015134039081150290604051600060405180830381858888f193505050501580156107da573d6000803e3d6000fd5b506107ea898760e0015103613dbd565b6107f38b613dbd565b6040516020018083805190602001908083835b60208310151561082b5780518252602082019150602081019050602083039250610806565b6001836020036101000a038019825116818451168082178552505050505050905001807f2d322d000000000000000000000000000000000000000000000000000000000081525060030182805190602001908083835b6020831015156108a65780518252602082019150602081019050602083039250610881565b6001836020036101000a0380198251168184511680821785525050505050509050019250505060405160208183030381529060405293506108e689613dbd565b6108ef8b613dbd565b6040516020018083805190602001908083835b6020831015156109275780518252602082019150602081019050602083039250610902565b6001836020036101000a038019825116818451168082178552505050505050905001807f2d342d000000000000000000000000000000000000000000000000000000000081525060030182805190602001908083835b6020831015156109a2578051825260208201915060208101905060208303925061097d565b6001836020036101000a038019825116818451168082178552505050505050905001925050506040516020818303038152906040529250600160009054906101000a900473ffffffffffffffffffffffffffffffffffffffff1673ffffffffffffffffffffffffffffffffffffffff166326468153886040518263ffffffff167c0100000000000000000000000000000000000000000000000000000000028152600401610a509190614729565b600060405180830381600087803b158015610a6a57600080fd5b505af1158015610a7e573d6000803e3d6000fd5b50505050600160009054906101000a900473ffffffffffffffffffffffffffffffffffffffff1673ffffffffffffffffffffffffffffffffffffffff16636e9c6fb2856040518263ffffffff167c0100000000000000000000000000000000000000000000000000000000028152600401610af99190614729565b600060405180830381600087803b158015610b1357600080fd5b505af1158015610b27573d6000803e3d6000fd5b50505050600160009054906101000a900473ffffffffffffffffffffffffffffffffffffffff1673ffffffffffffffffffffffffffffffffffffffff16636e9c6fb2846040518263ffffffff167c0100000000000000000000000000000000000000000000000000000000028152600401610ba29190614729565b600060405180830381600087803b158015610bbc57600080fd5b505af1158015610bd0573d6000803e3d6000fd5b50505050888660e00151038660e0018181525050600160009054906101000a900473ffffffffffffffffffffffffffffffffffffffff1673ffffffffffffffffffffffffffffffffffffffff1663b8616dfe87600001518860200151896040015160008060008d60c001518e60e0015160028e6040518b63ffffffff167c0100000000000000000000000000000000000000000000000000000000028152600401610c849a9998979695949392919061465d565b600060405180830381600087803b158015610c9e57600080fd5b505af1158015610cb2573d6000803e3d6000fd5b50505050888660e0018181525050600160009054906101000a900473ffffffffffffffffffffffffffffffffffffffff1673ffffffffffffffffffffffffffffffffffffffff1663b8616dfe3288602001518960400151326000808d60c001518e60e0015160048d6040518b63ffffffff167c0100000000000000000000000000000000000000000000000000000000028152600401610d5b9a9998979695949392919061465d565b600060405180830381600087803b158015610d7557600080fd5b505af1158015610d89573d6000803e3d6000fd5b50505050600160009054906101000a900473ffffffffffffffffffffffffffffffffffffffff1673ffffffffffffffffffffffffffffffffffffffff16636521f437886040518263ffffffff167c0100000000000000000000000000000000000000000000000000000000028152600401610e049190614729565b600060405180830381600087803b158015610e1e57600080fd5b505af1158015610e32573d6000803e3d6000fd5b5050505050505050505050505050565b6060610e4c613f12565b6060600160009054906101000a900473ffffffffffffffffffffffffffffffffffffffff1673ffffffffffffffffffffffffffffffffffffffff16634be5aaf5610e9586613dbd565b60405160200180807f2d312d000000000000000000000000000000000000000000000000000000000081525060030182805190602001908083835b602083101515610ef55780518252602082019150602081019050602083039250610ed0565b6001836020036101000a0380198251168184511680821785525050505050509050019150506040516020818303038152906040526040518263ffffffff167c0100000000000000000000000000000000000000000000000000000000028152600401610f619190614707565b600060405180830381600087803b158015610f7b57600080fd5b505af1158015610f8f573d6000803e3d6000fd5b505050506040513d6000823e3d601f19601f82011682018060405250610fb891908101906142a5565b9250600160009054906101000a900473ffffffffffffffffffffffffffffffffffffffff1673ffffffffffffffffffffffffffffffffffffffff1663cb78b527846040518263ffffffff167c01000000000000000000000000000000000000000000000000000000000281526004016110319190614729565b600060405180830381600087803b15801561104b57600080fd5b505af115801561105f573d6000803e3d6000fd5b505050506040513d6000823e3d601f19601f82011682018060405250611088919081019061430f565b91503273ffffffffffffffffffffffffffffffffffffffff16826000015173ffffffffffffffffffffffffffffffffffffffff161415156110fe576040517f08c379a00000000000000000000000000000000000000000000000000000000081526004016110f5906147cb565b60405180910390fd5b600160009054906101000a900473ffffffffffffffffffffffffffffffffffffffff1673ffffffffffffffffffffffffffffffffffffffff166326468153846040518263ffffffff167c01000000000000000000000000000000000000000000000000000000000281526004016111759190614729565b600060405180830381600087803b15801561118f57600080fd5b505af11580156111a3573d6000803e3d6000fd5b505050506111b48260e00151613dbd565b6111bd85613dbd565b6040516020018083805190602001908083835b6020831015156111f557805182526020820191506020810190506020830392506111d0565b6001836020036101000a038019825116818451168082178552505050505050905001807f2d322d000000000000000000000000000000000000000000000000000000000081525060030182805190602001908083835b602083101515611270578051825260208201915060208101905060208303925061124b565b6001836020036101000a038019825116818451168082178552505050505050905001925050506040516020818303038152906040529050600160009054906101000a900473ffffffffffffffffffffffffffffffffffffffff1673ffffffffffffffffffffffffffffffffffffffff16636e9c6fb2826040518263ffffffff167c010000000000000000000000000000000000000000000000000000000002815260040161131e9190614729565b600060405180830381600087803b15801561133857600080fd5b505af115801561134c573d6000803e3d6000fd5b50505050600160009054906101000a900473ffffffffffffffffffffffffffffffffffffffff1673ffffffffffffffffffffffffffffffffffffffff1663b8616dfe836000015184602001518560400151866060015187608001518860a001518960c001518a60e0015160028b6040518b63ffffffff167c01000000000000000000000000000000000000000000000000000000000281526004016113fa9a9998979695949392919061465d565b600060405180830381600087803b15801561141457600080fd5b505af1158015611428573d6000803e3d6000fd5b50505050600160009054906101000a900473ffffffffffffffffffffffffffffffffffffffff1673ffffffffffffffffffffffffffffffffffffffff16636521f437846040518263ffffffff167c01000000000000000000000000000000000000000000000000000000000281526004016114a39190614729565b600060405180830381600087803b1580156114bd57600080fd5b505af11580156114d1573d6000803e3d6000fd5b5050505050505050565b60606114e5613f12565b606080846000809054906101000a900473ffffffffffffffffffffffffffffffffffffffff1673ffffffffffffffffffffffffffffffffffffffff1663bf4fd3696040518163ffffffff167c0100000000000000000000000000000000000000000000000000000000028152600401602060405180830381600087803b15801561156e57600080fd5b505af1158015611582573d6000803e3d6000fd5b505050506040513d601f19601f820116820180604052506115a69190810190614379565b806000809054906101000a900473ffffffffffffffffffffffffffffffffffffffff1673ffffffffffffffffffffffffffffffffffffffff166344276733846040518263ffffffff167c010000000000000000000000000000000000000000000000000000000002815260040161161d9190614642565b602060405180830381600087803b15801561163757600080fd5b505af115801561164b573d6000803e3d6000fd5b505050506040513d601f19601f8201168201806040525061166f9190810190614379565b1415156116b1576040517f08c379a00000000000000000000000000000000000000000000000000000000081526004016116a8906147eb565b60405180910390fd5b600160009054906101000a900473ffffffffffffffffffffffffffffffffffffffff1673ffffffffffffffffffffffffffffffffffffffff16634be5aaf56116f88b613dbd565b60405160200180807f2d322d000000000000000000000000000000000000000000000000000000000081525060030182805190602001908083835b6020831015156117585780518252602082019150602081019050602083039250611733565b6001836020036101000a0380198251168184511680821785525050505050509050019150506040516020818303038152906040526040518263ffffffff167c01000000000000000000000000000000000000000000000000000000000281526004016117c49190614707565b600060405180830381600087803b1580156117de57600080fd5b505af11580156117f2573d6000803e3d6000fd5b505050506040513d6000823e3d601f19601f8201168201806040525061181b91908101906142a5565b9550600160009054906101000a900473ffffffffffffffffffffffffffffffffffffffff1673ffffffffffffffffffffffffffffffffffffffff1663cb78b527876040518263ffffffff167c01000000000000000000000000000000000000000000000000000000000281526004016118949190614729565b600060405180830381600087803b1580156118ae57600080fd5b505af11580156118c2573d6000803e3d6000fd5b505050506040513d6000823e3d601f19601f820116820180604052506118eb919081019061430f565b94503273ffffffffffffffffffffffffffffffffffffffff16856000015173ffffffffffffffffffffffffffffffffffffffff16141515611961576040517f08c379a0000000000000000000000000000000000000000000000000000000008152600401611958906147cb565b60405180910390fd5b8460e0015188111515156119aa576040517f08c379a00000000000000000000000000000000000000000000000000000000081526004016119a19061476b565b60405180910390fd5b600260009054906101000a900473ffffffffffffffffffffffffffffffffffffffff1673ffffffffffffffffffffffffffffffffffffffff1663ba778bf9886040518263ffffffff167c0100000000000000000000000000000000000000000000000000000000028152600401611a219190614642565b602060405180830381600087803b158015611a3b57600080fd5b505af1158015611a4f573d6000803e3d6000fd5b505050506040513d601f19601f82011682018060405250611a739190810190614379565b3410151515611ab7576040517f08c379a0000000000000000000000000000000000000000000000000000000008152600401611aae9061478b565b60405180910390fd5b611ac088613dbd565b611ac98a613dbd565b6040516020018083805190602001908083835b602083101515611b015780518252602082019150602081019050602083039250611adc565b6001836020036101000a038019825116818451168082178552505050505050905001807f2d332d000000000000000000000000000000000000000000000000000000000081525060030182805190602001908083835b602083101515611b7c5780518252602082019150602081019050602083039250611b57565b6001836020036101000a038019825116818451168082178552505050505050905001925050506040516020818303038152906040529350611bc2888660e0015103613dbd565b611bcb8a613dbd565b6040516020018083805190602001908083835b602083101515611c035780518252602082019150602081019050602083039250611bde565b6001836020036101000a038019825116818451168082178552505050505050905001807f2d322d000000000000000000000000000000000000000000000000000000000081525060030182805190602001908083835b602083101515611c7e5780518252602082019150602081019050602083039250611c59565b6001836020036101000a038019825116818451168082178552505050505050905001925050506040516020818303038152906040529250600160009054906101000a900473ffffffffffffffffffffffffffffffffffffffff1673ffffffffffffffffffffffffffffffffffffffff166326468153876040518263ffffffff167c0100000000000000000000000000000000000000000000000000000000028152600401611d2c9190614729565b600060405180830381600087803b158015611d4657600080fd5b505af1158015611d5a573d6000803e3d6000fd5b50505050600160009054906101000a900473ffffffffffffffffffffffffffffffffffffffff1673ffffffffffffffffffffffffffffffffffffffff16636e9c6fb2856040518263ffffffff167c0100000000000000000000000000000000000000000000000000000000028152600401611dd59190614729565b600060405180830381600087803b158015611def57600080fd5b505af1158015611e03573d6000803e3d6000fd5b50505050600160009054906101000a900473ffffffffffffffffffffffffffffffffffffffff1673ffffffffffffffffffffffffffffffffffffffff16636e9c6fb2846040518263ffffffff167c0100000000000000000000000000000000000000000000000000000000028152600401611e7e9190614729565b600060405180830381600087803b158015611e9857600080fd5b505af1158015611eac573d6000803e3d6000fd5b50505050878560e00151038560e0018181525050600160009054906101000a900473ffffffffffffffffffffffffffffffffffffffff1673ffffffffffffffffffffffffffffffffffffffff1663b8616dfe866000015187602001516000806000808c60c001518d60e0015160028d6040518b63ffffffff167c0100000000000000000000000000000000000000000000000000000000028152600401611f5c9a9998979695949392919061465d565b600060405180830381600087803b158015611f7657600080fd5b505af1158015611f8a573d6000803e3d6000fd5b50505050878560e0018181525050600160009054906101000a900473ffffffffffffffffffffffffffffffffffffffff1673ffffffffffffffffffffffffffffffffffffffff1663b8616dfe866000015187602001518a60008060008c60c001518d60e0015160038e6040518b63ffffffff167c01000000000000000000000000000000000000000000000000000000000281526004016120349a9998979695949392919061465d565b600060405180830381600087803b15801561204e57600080fd5b505af1158015612062573d6000803e3d6000fd5b50505050600160009054906101000a900473ffffffffffffffffffffffffffffffffffffffff1673ffffffffffffffffffffffffffffffffffffffff16636521f437876040518263ffffffff167c01000000000000000000000000000000000000000000000000000000000281526004016120dd9190614729565b600060405180830381600087803b1580156120f757600080fd5b505af115801561210b573d6000803e3d6000fd5b505050508673ffffffffffffffffffffffffffffffffffffffff166108fc600260009054906101000a900473ffffffffffffffffffffffffffffffffffffffff1673ffffffffffffffffffffffffffffffffffffffff1663ba778bf98a6040518263ffffffff167c01000000000000000000000000000000000000000000000000000000000281526004016121a09190614642565b602060405180830381600087803b1580156121ba57600080fd5b505af11580156121ce573d6000803e3d6000fd5b505050506040513d601f19601f820116820180604052506121f29190810190614379565b9081150290604051600060405180830381858888f1935050505015801561221d573d6000803e3d6000fd5b503273ffffffffffffffffffffffffffffffffffffffff166108fc600260009054906101000a900473ffffffffffffffffffffffffffffffffffffffff1673ffffffffffffffffffffffffffffffffffffffff1663ba778bf98a6040518263ffffffff167c01000000000000000000000000000000000000000000000000000000000281526004016122af9190614642565b602060405180830381600087803b1580156122c957600080fd5b505af11580156122dd573d6000803e3d6000fd5b505050506040513d601f19601f820116820180604052506123019190810190614379565b34039081150290604051600060405180830381858888f1935050505015801561232e573d6000803e3d6000fd5b50505050505050505050565b6060612344613f12565b61234c613fee565b606080326000809054906101000a900473ffffffffffffffffffffffffffffffffffffffff1673ffffffffffffffffffffffffffffffffffffffff166303553a2f6040518163ffffffff167c0100000000000000000000000000000000000000000000000000000000028152600401602060405180830381600087803b1580156123d557600080fd5b505af11580156123e9573d6000803e3d6000fd5b505050506040513d601f19601f8201168201806040525061240d9190810190614379565b806000809054906101000a900473ffffffffffffffffffffffffffffffffffffffff1673ffffffffffffffffffffffffffffffffffffffff166344276733846040518263ffffffff167c01000000000000000000000000000000000000000000000000000000000281526004016124849190614642565b602060405180830381600087803b15801561249e57600080fd5b505af11580156124b2573d6000803e3d6000fd5b505050506040513d601f19601f820116820180604052506124d69190810190614379565b141515612518576040517f08c379a000000000000000000000000000000000000000000000000000000000815260040161250f906147eb565b60405180910390fd5b600160009054906101000a900473ffffffffffffffffffffffffffffffffffffffff1673ffffffffffffffffffffffffffffffffffffffff16634be5aaf561255f8c613dbd565b60405160200180807f2d352d000000000000000000000000000000000000000000000000000000000081525060030182805190602001908083835b6020831015156125bf578051825260208201915060208101905060208303925061259a565b6001836020036101000a0380198251168184511680821785525050505050509050019150506040516020818303038152906040526040518263ffffffff167c010000000000000000000000000000000000000000000000000000000002815260040161262b9190614707565b600060405180830381600087803b15801561264557600080fd5b505af1158015612659573d6000803e3d6000fd5b505050506040513d6000823e3d601f19601f8201168201806040525061268291908101906142a5565b9650600160009054906101000a900473ffffffffffffffffffffffffffffffffffffffff1673ffffffffffffffffffffffffffffffffffffffff1663cb78b527886040518263ffffffff167c01000000000000000000000000000000000000000000000000000000000281526004016126fb9190614729565b600060405180830381600087803b15801561271557600080fd5b505af1158015612729573d6000803e3d6000fd5b505050506040513d6000823e3d601f19601f82011682018060405250612752919081019061430f565b95508773ffffffffffffffffffffffffffffffffffffffff16866000015173ffffffffffffffffffffffffffffffffffffffff161415156127c8576040517f08c379a00000000000000000000000000000000000000000000000000000000081526004016127bf906147ab565b60405180910390fd5b8560e001518911151515612811576040517f08c379a00000000000000000000000000000000000000000000000000000000081526004016128089061476b565b60405180910390fd5b600160009054906101000a900473ffffffffffffffffffffffffffffffffffffffff1673ffffffffffffffffffffffffffffffffffffffff16635f983bd08760c001516040518263ffffffff167c010000000000000000000000000000000000000000000000000000000002815260040161288c9190614707565b608060405180830381600087803b1580156128a657600080fd5b505af11580156128ba573d6000803e3d6000fd5b505050506040513d601f19601f820116820180604052506128de91908101906142e6565b945060008560400151111515612929576040517f08c379a00000000000000000000000000000000000000000000000000000000081526004016129209061480b565b60405180910390fd5b34856040015111151515612972576040517f08c379a00000000000000000000000000000000000000000000000000000000081526004016129699061478b565b60405180910390fd5b8773ffffffffffffffffffffffffffffffffffffffff166108fc86604001519081150290604051600060405180830381858888f193505050501580156129bc573d6000803e3d6000fd5b503273ffffffffffffffffffffffffffffffffffffffff166108fc866040015134039081150290604051600060405180830381858888f19350505050158015612a09573d6000803e3d6000fd5b50612a19898760e0015103613dbd565b612a228b613dbd565b6040516020018083805190602001908083835b602083101515612a5a5780518252602082019150602081019050602083039250612a35565b6001836020036101000a038019825116818451168082178552505050505050905001807f2d352d000000000000000000000000000000000000000000000000000000000081525060030182805190602001908083835b602083101515612ad55780518252602082019150602081019050602083039250612ab0565b6001836020036101000a038019825116818451168082178552505050505050905001925050506040516020818303038152906040529350612b1589613dbd565b612b1e8b613dbd565b6040516020018083805190602001908083835b602083101515612b565780518252602082019150602081019050602083039250612b31565b6001836020036101000a038019825116818451168082178552505050505050905001807f2d362d000000000000000000000000000000000000000000000000000000000081525060030182805190602001908083835b602083101515612bd15780518252602082019150602081019050602083039250612bac565b6001836020036101000a038019825116818451168082178552505050505050905001925050506040516020818303038152906040529250600160009054906101000a900473ffffffffffffffffffffffffffffffffffffffff1673ffffffffffffffffffffffffffffffffffffffff166326468153886040518263ffffffff167c0100000000000000000000000000000000000000000000000000000000028152600401612c7f9190614729565b600060405180830381600087803b158015612c9957600080fd5b505af1158015612cad573d6000803e3d6000fd5b50505050600160009054906101000a900473ffffffffffffffffffffffffffffffffffffffff1673ffffffffffffffffffffffffffffffffffffffff16636e9c6fb2856040518263ffffffff167c0100000000000000000000000000000000000000000000000000000000028152600401612d289190614729565b600060405180830381600087803b158015612d4257600080fd5b505af1158015612d56573d6000803e3d6000fd5b50505050600160009054906101000a900473ffffffffffffffffffffffffffffffffffffffff1673ffffffffffffffffffffffffffffffffffffffff16636e9c6fb2846040518263ffffffff167c0100000000000000000000000000000000000000000000000000000000028152600401612dd19190614729565b600060405180830381600087803b158015612deb57600080fd5b505af1158015612dff573d6000803e3d6000fd5b50505050888660e00151038660e0018181525050600160009054906101000a900473ffffffffffffffffffffffffffffffffffffffff1673ffffffffffffffffffffffffffffffffffffffff1663b8616dfe8760000151886020015189604001518a606001518b6080015160008d60c001518e60e0015160058e6040518b63ffffffff167c0100000000000000000000000000000000000000000000000000000000028152600401612eba9a9998979695949392919061465d565b600060405180830381600087803b158015612ed457600080fd5b505af1158015612ee8573d6000803e3d6000fd5b50505050888660e0018181525050600160009054906101000a900473ffffffffffffffffffffffffffffffffffffffff1673ffffffffffffffffffffffffffffffffffffffff1663b8616dfe32886020015189604001518a606001518b60800151328d60c001518e60e0015160068d6040518b63ffffffff167c0100000000000000000000000000000000000000000000000000000000028152600401612f989a9998979695949392919061465d565b600060405180830381600087803b158015612fb257600080fd5b505af1158015612fc6573d6000803e3d6000fd5b50505050600160009054906101000a900473ffffffffffffffffffffffffffffffffffffffff1673ffffffffffffffffffffffffffffffffffffffff16636521f437886040518263ffffffff167c01000000000000000000000000000000000000000000000000000000000281526004016130419190614729565b600060405180830381600087803b15801561305b57600080fd5b505af115801561306f573d6000803e3d6000fd5b5050505050505050505050505050565b6060613089613f12565b613091613fee565b606080326000809054906101000a900473ffffffffffffffffffffffffffffffffffffffff1673ffffffffffffffffffffffffffffffffffffffff1663f7b8d4846040518163ffffffff167c0100000000000000000000000000000000000000000000000000000000028152600401602060405180830381600087803b15801561311a57600080fd5b505af115801561312e573d6000803e3d6000fd5b505050506040513d601f19601f820116820180604052506131529190810190614379565b806000809054906101000a900473ffffffffffffffffffffffffffffffffffffffff1673ffffffffffffffffffffffffffffffffffffffff166344276733846040518263ffffffff167c01000000000000000000000000000000000000000000000000000000000281526004016131c99190614642565b602060405180830381600087803b1580156131e357600080fd5b505af11580156131f7573d6000803e3d6000fd5b505050506040513d601f19601f8201168201806040525061321b9190810190614379565b14151561325d576040517f08c379a0000000000000000000000000000000000000000000000000000000008152600401613254906147eb565b60405180910390fd5b600160009054906101000a900473ffffffffffffffffffffffffffffffffffffffff1673ffffffffffffffffffffffffffffffffffffffff16634be5aaf56132a48c613dbd565b60405160200180807f2d342d000000000000000000000000000000000000000000000000000000000081525060030182805190602001908083835b60208310151561330457805182526020820191506020810190506020830392506132df565b6001836020036101000a0380198251168184511680821785525050505050509050019150506040516020818303038152906040526040518263ffffffff167c01000000000000000000000000000000000000000000000000000000000281526004016133709190614707565b600060405180830381600087803b15801561338a57600080fd5b505af115801561339e573d6000803e3d6000fd5b505050506040513d6000823e3d601f19601f820116820180604052506133c791908101906142a5565b9650600160009054906101000a900473ffffffffffffffffffffffffffffffffffffffff1673ffffffffffffffffffffffffffffffffffffffff1663cb78b527886040518263ffffffff167c01000000000000000000000000000000000000000000000000000000000281526004016134409190614729565b600060405180830381600087803b15801561345a57600080fd5b505af115801561346e573d6000803e3d6000fd5b505050506040513d6000823e3d601f19601f82011682018060405250613497919081019061430f565b95508773ffffffffffffffffffffffffffffffffffffffff16866000015173ffffffffffffffffffffffffffffffffffffffff1614151561350d576040517f08c379a00000000000000000000000000000000000000000000000000000000081526004016135049061482b565b60405180910390fd5b8560e001518911151515613556576040517f08c379a000000000000000000000000000000000000000000000000000000000815260040161354d9061476b565b60405180910390fd5b600160009054906101000a900473ffffffffffffffffffffffffffffffffffffffff1673ffffffffffffffffffffffffffffffffffffffff16635f983bd08760c001516040518263ffffffff167c01000000000000000000000000000000000000000000000000000000000281526004016135d19190614707565b608060405180830381600087803b1580156135eb57600080fd5b505af11580156135ff573d6000803e3d6000fd5b505050506040513d601f19601f8201168201806040525061362391908101906142e6565b94506000856020015111151561366e576040517f08c379a00000000000000000000000000000000000000000000000000000000081526004016136659061480b565b60405180910390fd5b348560200151111515156136b7576040517f08c379a00000000000000000000000000000000000000000000000000000000081526004016136ae9061478b565b60405180910390fd5b8773ffffffffffffffffffffffffffffffffffffffff166108fc86602001519081150290604051600060405180830381858888f19350505050158015613701573d6000803e3d6000fd5b503273ffffffffffffffffffffffffffffffffffffffff166108fc866020015134039081150290604051600060405180830381858888f1935050505015801561374e573d6000803e3d6000fd5b5061375e898760e0015103613dbd565b6137678b613dbd565b6040516020018083805190602001908083835b60208310151561379f578051825260208201915060208101905060208303925061377a565b6001836020036101000a038019825116818451168082178552505050505050905001807f2d342d000000000000000000000000000000000000000000000000000000000081525060030182805190602001908083835b60208310151561381a57805182526020820191506020810190506020830392506137f5565b6001836020036101000a03801982511681845116808217855250505050505090500192505050604051602081830303815290604052935061385a89613dbd565b6138638b613dbd565b6040516020018083805190602001908083835b60208310151561389b5780518252602082019150602081019050602083039250613876565b6001836020036101000a038019825116818451168082178552505050505050905001807f2d352d000000000000000000000000000000000000000000000000000000000081525060030182805190602001908083835b60208310151561391657805182526020820191506020810190506020830392506138f1565b6001836020036101000a038019825116818451168082178552505050505050905001925050506040516020818303038152906040529250600160009054906101000a900473ffffffffffffffffffffffffffffffffffffffff1673ffffffffffffffffffffffffffffffffffffffff166326468153886040518263ffffffff167c01000000000000000000000000000000000000000000000000000000000281526004016139c49190614729565b600060405180830381600087803b1580156139de57600080fd5b505af11580156139f2573d6000803e3d6000fd5b50505050600160009054906101000a900473ffffffffffffffffffffffffffffffffffffffff1673ffffffffffffffffffffffffffffffffffffffff16636e9c6fb2856040518263ffffffff167c0100000000000000000000000000000000000000000000000000000000028152600401613a6d9190614729565b600060405180830381600087803b158015613a8757600080fd5b505af1158015613a9b573d6000803e3d6000fd5b50505050600160009054906101000a900473ffffffffffffffffffffffffffffffffffffffff1673ffffffffffffffffffffffffffffffffffffffff16636e9c6fb2846040518263ffffffff167c0100000000000000000000000000000000000000000000000000000000028152600401613b169190614729565b600060405180830381600087803b158015613b3057600080fd5b505af1158015613b44573d6000803e3d6000fd5b50505050888660e00151038660e0018181525050600160009054906101000a900473ffffffffffffffffffffffffffffffffffffffff1673ffffffffffffffffffffffffffffffffffffffff1663b8616dfe8760000151886020015189604001518a606001516000808d60c001518e60e0015160048e6040518b63ffffffff167c0100000000000000000000000000000000000000000000000000000000028152600401613bfb9a9998979695949392919061465d565b600060405180830381600087803b158015613c1557600080fd5b505af1158015613c29573d6000803e3d6000fd5b50505050888660e0018181525050600160009054906101000a900473ffffffffffffffffffffffffffffffffffffffff1673ffffffffffffffffffffffffffffffffffffffff1663b8616dfe32886020015189604001518a606001513260008d60c001518e60e0015160058d6040518b63ffffffff167c0100000000000000000000000000000000000000000000000000000000028152600401613cd69a9998979695949392919061465d565b600060405180830381600087803b158015613cf057600080fd5b505af1158015613d04573d6000803e3d6000fd5b50505050600160009054906101000a900473ffffffffffffffffffffffffffffffffffffffff1673ffffffffffffffffffffffffffffffffffffffff16636521f437886040518263ffffffff167c0100000000000000000000000000000000000000000000000000000000028152600401613d7f9190614729565b600060405180830381600087803b158015613d9957600080fd5b505af1158015613dad573d6000803e3d6000fd5b5050505050505050505050505050565b606060008060606000851415613e0a576040805190810160405280600181526020017f30000000000000000000000000000000000000000000000000000000000000008152509350613f0a565b8492505b600083141515613e34578180600101925050600a83811515613e2c57fe5b049250613e0e565b816040519080825280601f01601f191660200182016040528015613e675781602001602082028038833980820191505090505b5090506001820392505b600085141515613f0657600a85811515613e8757fe5b066030017f010000000000000000000000000000000000000000000000000000000000000002818480600190039550815181101515613ec257fe5b9060200101907effffffffffffffffffffffffffffffffffffffffffffffffffffffffffffff1916908160001a905350600a85811515613efe57fe5b049450613e71565b8093505b505050919050565b61012060405190810160405280600073ffffffffffffffffffffffffffffffffffffffff168152602001600073ffffffffffffffffffffffffffffffffffffffff168152602001600073ffffffffffffffffffffffffffffffffffffffff168152602001600073ffffffffffffffffffffffffffffffffffffffff168152602001600073ffffffffffffffffffffffffffffffffffffffff168152602001600073ffffffffffffffffffffffffffffffffffffffff168152602001606081526020016000815260200160006006811115613fe857fe5b81525090565b6080604051908101604052806000815260200160008152602001600081526020016000151581525090565b60006140258235614926565b905092915050565b60006140398251614926565b905092915050565b600061404d8251614946565b905092915050565b60006140618251614952565b905092915050565b600082601f830112151561407c57600080fd5b815161408f61408a82614878565b61484b565b915080825260208301602083018583830111156140ab57600080fd5b6140b6838284614987565b50505092915050565b600082601f83011215156140d257600080fd5b81516140e56140e0826148a4565b61484b565b9150808252602083016020830185838301111561410157600080fd5b61410c838284614987565b50505092915050565b60006080828403121561412757600080fd5b614131608061484b565b9050600061414184828501614291565b600083015250602061415584828501614291565b602083015250604061416984828501614291565b604083015250606061417d84828501614041565b60608301525092915050565b6000610120828403121561419c57600080fd5b6141a761012061484b565b905060006141b78482850161402d565b60008301525060206141cb8482850161402d565b60208301525060406141df8482850161402d565b60408301525060606141f38482850161402d565b60608301525060806142078482850161402d565b60808301525060a061421b8482850161402d565b60a08301525060c082015167ffffffffffffffff81111561423b57600080fd5b61424784828501614069565b60c08301525060e061425b84828501614291565b60e08301525061010061427084828501614055565b6101008301525092915050565b6000614289823561496b565b905092915050565b600061429d825161496b565b905092915050565b6000602082840312156142b757600080fd5b600082015167ffffffffffffffff8111156142d157600080fd5b6142dd848285016140bf565b91505092915050565b6000608082840312156142f857600080fd5b600061430684828501614115565b91505092915050565b60006020828403121561432157600080fd5b600082015167ffffffffffffffff81111561433b57600080fd5b61434784828501614189565b91505092915050565b60006020828403121561436257600080fd5b60006143708482850161427d565b91505092915050565b60006020828403121561438b57600080fd5b600061439984828501614291565b91505092915050565b6000806000606084860312156143b757600080fd5b60006143c58682870161427d565b93505060206143d68682870161427d565b92505060406143e786828701614019565b9150509250925092565b6143fa816148e6565b82525050565b61440981614975565b82525050565b600061441a826148db565b80845261442e816020860160208601614987565b614437816149ba565b602085010191505092915050565b6000614450826148d0565b808452614464816020860160208601614987565b61446d816149ba565b602085010191505092915050565b6000601282527f57726f6e67206f776e6572206661726d657200000000000000000000000000006020830152604082019050919050565b6000601782527f496e76616c6964207765696768742070726f76696465640000000000000000006020830152604082019050919050565b6000601382527f496e73756666696369656e7420657468657273000000000000000000000000006020830152604082019050919050565b6000601482527f57726f6e67206f776e65722072657461696c65720000000000000000000000006020830152604082019050919050565b6000601a82527f4f6e6c79206f776e6572206661726d65722063616e2063616c6c0000000000006020830152604082019050919050565b6000601a82527f526563656976657220726f6c6520697320696e636f72726563740000000000006020830152604082019050919050565b6000600d82527f5072696365206e6f7420736574000000000000000000000000000000000000006020830152604082019050919050565b6000601782527f57726f6e67206f776e6572206469737472696275746f720000000000000000006020830152604082019050919050565b61463c8161491c565b82525050565b600060208201905061465760008301846143f1565b92915050565b600061014082019050614673600083018d6143f1565b614680602083018c6143f1565b61468d604083018b6143f1565b61469a606083018a6143f1565b6146a760808301896143f1565b6146b460a08301886143f1565b81810360c08301526146c68187614445565b90506146d560e0830186614633565b6146e3610100830185614400565b8181036101208301526146f6818461440f565b90509b9a5050505050505050505050565b600060208201905081810360008301526147218184614445565b905092915050565b60006020820190508181036000830152614743818461440f565b905092915050565b600060208201905081810360008301526147648161447b565b9050919050565b60006020820190508181036000830152614784816144b2565b9050919050565b600060208201905081810360008301526147a4816144e9565b9050919050565b600060208201905081810360008301526147c481614520565b9050919050565b600060208201905081810360008301526147e481614557565b9050919050565b600060208201905081810360008301526148048161458e565b9050919050565b60006020820190508181036000830152614824816145c5565b9050919050565b60006020820190508181036000830152614844816145fc565b9050919050565b6000604051905081810181811067ffffffffffffffff8211171561486e57600080fd5b8060405250919050565b600067ffffffffffffffff82111561488f57600080fd5b601f19601f8301169050602081019050919050565b600067ffffffffffffffff8211156148bb57600080fd5b601f19601f8301169050602081019050919050565b600081519050919050565b600081519050919050565b600073ffffffffffffffffffffffffffffffffffffffff82169050919050565b600060078210151561491457fe5b819050919050565b6000819050919050565b600073ffffffffffffffffffffffffffffffffffffffff82169050919050565b60008115159050919050565b600060078210151561496357600080fd5b819050919050565b6000819050919050565b600061498082614906565b9050919050565b60005b838110156149a557808201518184015260208101905061498a565b838111156149b4576000848401525b50505050565b6000601f19601f83011690509190505600a265627a7a723058205744511f096f60d97c15319bb96aee34bcc958d024d0d5481d9d87400371b3816c6578706572696d656e74616cf50037",
  "source": "// SPDX-License-Identifier: GPL-3.0\r\npragma solidity ^0.4.22;\r\npragma experimental ABIEncoderV2;\r\n\r\nimport \"./Roles.sol\";\r\nimport './ColdStorageContract.sol';\r\nimport \"./SupplyChain.sol\";\r\nimport \"./HelperMethods.sol\";\r\n\r\ncontract SupplyChain2 {\r\n    Roles rc;\r\n    SupplyChain sc;\r\n    ColdStorageContract csc;\r\n    \r\n    constructor(address _rcaddress, address _scaddress, address _cscAddress) public {\r\n        rc = Roles(_rcaddress);\r\n        sc = SupplyChain(_scaddress);\r\n        csc = ColdStorageContract(_cscAddress);\r\n    }\r\n    \r\n    modifier verifyReceiver(address _address, uint256 roleID) {\r\n        require(rc.getRole(_address) == roleID, \"Receiver role is incorrect\");\r\n        _;\r\n    }\r\n    \r\n    function harvestItem (uint256 _productID) public \r\n    {\r\n        string memory productIDFull = sc.getFullProductID(string(abi.encodePacked(\"-1-\", HelperMethods.integerToString(_productID))));\r\n        \r\n        SupplyChain.Item memory plantedItem = sc.getItems(productIDFull);\r\n        require(plantedItem.ownerID == tx.origin, \"Only owner farmer can call\");\r\n        sc.removeFromArray(productIDFull);\r\n        string memory productIDHarvested = string(abi.encodePacked(HelperMethods.integerToString(plantedItem.weight), \"-2-\", HelperMethods.integerToString(_productID)));\r\n        sc.pushInArray(productIDHarvested);\r\n        \r\n        sc.insertItem(plantedItem.ownerID, plantedItem.farmerID, plantedItem.coldStorageId, plantedItem.distributorID, plantedItem.retailerID, \r\n        plantedItem.consumerID, plantedItem.productType, plantedItem.weight, SupplyChain.State.Harvested, productIDHarvested);\r\n        \r\n        sc.deleteItem(productIDFull);\r\n    }\r\n    \r\n    function storeItem (uint256 _productID, uint256 _weight, address _coldStorageId) public payable\r\n    verifyReceiver(_coldStorageId, rc.coldStorageRoleID())\r\n    {\r\n        string memory productIDFull = sc.getFullProductID(string(abi.encodePacked(\"-2-\", HelperMethods.integerToString(_productID))));\r\n        SupplyChain.Item memory harvestedItem = sc.getItems(productIDFull);\r\n        \r\n        require(harvestedItem.ownerID == tx.origin, \"Only owner farmer can call\");\r\n        require(_weight <= harvestedItem.weight, \"Invalid weight provided\");\r\n        require(msg.value >= csc.getColdStoragePrice(_coldStorageId), \"Insufficient ethers\");\r\n        \r\n        string memory productIDStored = string(abi.encodePacked(HelperMethods.integerToString(_weight), \"-3-\", HelperMethods.integerToString(_productID)));\r\n        string memory productIDHarvested = string(abi.encodePacked(HelperMethods.integerToString(harvestedItem.weight - _weight), \"-2-\", HelperMethods.integerToString(_productID)));\r\n        \r\n        sc.removeFromArray(productIDFull);\r\n        sc.pushInArray(productIDStored);\r\n        sc.pushInArray(productIDHarvested);\r\n        \r\n        harvestedItem.weight = harvestedItem.weight - _weight;\r\n        sc.insertItem(harvestedItem.ownerID, harvestedItem.farmerID, address(0), address(0), address(0), address(0), harvestedItem.productType, harvestedItem.weight, \r\n        SupplyChain.State.Harvested, productIDHarvested);\r\n        \r\n        harvestedItem.weight = _weight;\r\n        sc.insertItem(harvestedItem.ownerID, harvestedItem.farmerID, _coldStorageId, address(0), address(0), address(0), harvestedItem.productType, harvestedItem.weight, \r\n        SupplyChain.State.Stored, productIDStored);\r\n        \r\n        sc.deleteItem(productIDFull);\r\n        \r\n        _coldStorageId.transfer(csc.getColdStoragePrice(_coldStorageId));\r\n        tx.origin.transfer(msg.value - csc.getColdStoragePrice(_coldStorageId));\r\n    }\r\n    \r\n    function sellToDistributor (uint256 _productID, uint256 _weight, address _farmerId) public payable \r\n    verifyReceiver(tx.origin, rc.distributorRoleID())\r\n    {\r\n        string memory productIDFull = sc.getFullProductID(string(abi.encodePacked(\"-2-\", HelperMethods.integerToString(_productID))));\r\n        SupplyChain.Item memory harvestedItem = sc.getItems(productIDFull);\r\n        \r\n        require(harvestedItem.ownerID == _farmerId, \"Wrong owner farmer\");\r\n        require(_weight <= harvestedItem.weight, \"Invalid weight provided\");\r\n        \r\n        SupplyChain.Crop memory crop = sc.getCropPrices(harvestedItem.productType);\r\n        \r\n        require(crop.priceForDistributor > 0, \"Price not set\");\r\n        require(crop.priceForDistributor <= msg.value, \"Insufficient ethers\");\r\n        \r\n        _farmerId.transfer(crop.priceForDistributor);\r\n        tx.origin.transfer(msg.value - crop.priceForDistributor);\r\n        \r\n        string memory productIDHarvested = string(abi.encodePacked(HelperMethods.integerToString(harvestedItem.weight - _weight), \"-2-\", HelperMethods.integerToString(_productID)));\r\n        string memory productIDDistributor = string(abi.encodePacked(HelperMethods.integerToString(_weight), \"-4-\", HelperMethods.integerToString(_productID)));\r\n        \r\n        sc.removeFromArray(productIDFull);\r\n        sc.pushInArray(productIDHarvested);\r\n        sc.pushInArray(productIDDistributor);\r\n        \r\n        harvestedItem.weight = harvestedItem.weight - _weight;\r\n        sc.insertItem(harvestedItem.ownerID, harvestedItem.farmerID, harvestedItem.coldStorageId, address(0), address(0), address(0), harvestedItem.productType, harvestedItem.weight, \r\n        SupplyChain.State.Harvested, productIDHarvested);\r\n        \r\n        harvestedItem.weight = _weight;\r\n        sc.insertItem(tx.origin, harvestedItem.farmerID, harvestedItem.coldStorageId, tx.origin, address(0), address(0), harvestedItem.productType, harvestedItem.weight, \r\n        SupplyChain.State.SoldToDistributor, productIDDistributor);\r\n        \r\n        sc.deleteItem(productIDFull);\r\n    }\r\n    \r\n    function sellToRetailer (uint256 _productID, uint256 _weight, address _distributorId) public payable \r\n    verifyReceiver(tx.origin, rc.retailerRoleID())\r\n    {\r\n        string memory productIDFull = sc.getFullProductID(string(abi.encodePacked(\"-4-\", HelperMethods.integerToString(_productID))));\r\n        SupplyChain.Item memory distributedItem = sc.getItems(productIDFull);\r\n        \r\n        require(distributedItem.ownerID == _distributorId, \"Wrong owner distributor\");\r\n        require(_weight <= distributedItem.weight, \"Invalid weight provided\");\r\n        \r\n        SupplyChain.Crop memory crop = sc.getCropPrices(distributedItem.productType);\r\n        \r\n        require(crop.priceForRetailer > 0, \"Price not set\");\r\n        require(crop.priceForRetailer <= msg.value, \"Insufficient ethers\");\r\n        \r\n        _distributorId.transfer(crop.priceForRetailer);\r\n        tx.origin.transfer(msg.value - crop.priceForRetailer);\r\n        \r\n        string memory productIDDistributor = string(abi.encodePacked(HelperMethods.integerToString(distributedItem.weight - _weight), \"-4-\", HelperMethods.integerToString(_productID)));\r\n        string memory productIDRetailer = string(abi.encodePacked(HelperMethods.integerToString(_weight), \"-5-\", HelperMethods.integerToString(_productID)));\r\n        \r\n        sc.removeFromArray(productIDFull);\r\n        sc.pushInArray(productIDDistributor);\r\n        sc.pushInArray(productIDRetailer);\r\n        \r\n        distributedItem.weight = distributedItem.weight - _weight;\r\n        sc.insertItem(distributedItem.ownerID, distributedItem.farmerID, distributedItem.coldStorageId, distributedItem.distributorID, address(0), address(0), distributedItem.productType, distributedItem.weight, \r\n        SupplyChain.State.SoldToDistributor, productIDDistributor);\r\n        \r\n        distributedItem.weight = _weight;\r\n        sc.insertItem(tx.origin, distributedItem.farmerID, distributedItem.coldStorageId, distributedItem.distributorID, tx.origin, address(0), distributedItem.productType, distributedItem.weight, \r\n        SupplyChain.State.SoldToRetailer, productIDRetailer);\r\n        \r\n        sc.deleteItem(productIDFull);\r\n    }\r\n    \r\n    function sellToConsumer (uint256 _productID, uint256 _weight, address _retailerId) public payable \r\n    verifyReceiver(tx.origin, rc.consumerRoleID())\r\n    {\r\n        string memory productIDFull = sc.getFullProductID(string(abi.encodePacked(\"-5-\", HelperMethods.integerToString(_productID))));\r\n        SupplyChain.Item memory retailItem = sc.getItems(productIDFull);\r\n        \r\n        require(retailItem.ownerID == _retailerId, \"Wrong owner retailer\");\r\n        require(_weight <= retailItem.weight, \"Invalid weight provided\");\r\n        \r\n        SupplyChain.Crop memory crop = sc.getCropPrices(retailItem.productType);\r\n        \r\n        require(crop.priceForConsumer > 0, \"Price not set\");\r\n        require(crop.priceForConsumer <= msg.value, \"Insufficient ethers\");\r\n        \r\n        _retailerId.transfer(crop.priceForConsumer);\r\n        tx.origin.transfer(msg.value - crop.priceForConsumer);\r\n        \r\n        string memory productIDRetailer = string(abi.encodePacked(HelperMethods.integerToString(retailItem.weight - _weight), \"-5-\", HelperMethods.integerToString(_productID)));\r\n        string memory productIDConsumer = string(abi.encodePacked(HelperMethods.integerToString(_weight), \"-6-\", HelperMethods.integerToString(_productID)));\r\n        \r\n        sc.removeFromArray(productIDFull);\r\n        sc.pushInArray(productIDRetailer);\r\n        sc.pushInArray(productIDConsumer);\r\n        \r\n        retailItem.weight = retailItem.weight - _weight;\r\n        sc.insertItem(retailItem.ownerID, retailItem.farmerID, retailItem.coldStorageId, retailItem.distributorID, retailItem.retailerID, address(0), retailItem.productType, retailItem.weight, \r\n        SupplyChain.State.SoldToRetailer, productIDRetailer);\r\n        \r\n        retailItem.weight = _weight;\r\n        sc.insertItem(tx.origin, retailItem.farmerID, retailItem.coldStorageId, retailItem.distributorID, retailItem.retailerID, tx.origin, retailItem.productType, retailItem.weight, \r\n        SupplyChain.State.SoldToConsumer, productIDConsumer);\r\n        \r\n        sc.deleteItem(productIDFull);\r\n    }\r\n}",
  "sourcePath": "D:\\7thSemester\\CS491\\smart_agriculture_react\\contracts\\SupplyChain2.sol",
  "compiler": {
    "name": "solc",
    "version": "0.4.26+commit.4563c3fc.Emscripten.clang"
  },
  "schemaVersion": "3.4.3",
  "updatedAt": "2021-12-09T07:05:57.129Z",
  "networkType": "ethereum",
  "devdoc": {
    "methods": {}
  },
  "userdoc": {
    "methods": {}
  }
}