{
  "contractName": "SupplyChain",
  "abi": [
    {
      "constant": true,
      "inputs": [],
      "name": "rc",
      "outputs": [
        {
          "name": "",
          "type": "address"
        }
      ],
      "payable": false,
      "stateMutability": "view",
      "type": "function"
    },
    {
      "inputs": [
        {
          "name": "_address",
          "type": "address"
        }
      ],
      "payable": false,
      "stateMutability": "nonpayable",
      "type": "constructor"
    },
    {
      "constant": false,
      "inputs": [
        {
          "name": "_product",
          "type": "string"
        },
        {
          "name": "basePrice",
          "type": "uint256"
        },
        {
          "name": "profitDistributor",
          "type": "uint256"
        },
        {
          "name": "profitRetailer",
          "type": "uint256"
        }
      ],
      "name": "setPrice",
      "outputs": [],
      "payable": false,
      "stateMutability": "nonpayable",
      "type": "function"
    },
    {
      "constant": true,
      "inputs": [
        {
          "name": "id",
          "type": "string"
        }
      ],
      "name": "getItems",
      "outputs": [
        {
          "components": [
            {
              "name": "ownerID",
              "type": "address"
            },
            {
              "name": "farmerID",
              "type": "address"
            },
            {
              "name": "distributorID",
              "type": "address"
            },
            {
              "name": "retailerID",
              "type": "address"
            },
            {
              "name": "consumerID",
              "type": "address"
            },
            {
              "name": "productType",
              "type": "string"
            },
            {
              "name": "weight",
              "type": "uint256"
            },
            {
              "name": "parts",
              "type": "uint256"
            }
          ],
          "name": "",
          "type": "tuple"
        }
      ],
      "payable": false,
      "stateMutability": "view",
      "type": "function"
    },
    {
      "constant": true,
      "inputs": [
        {
          "name": "crop",
          "type": "string"
        }
      ],
      "name": "getSerialNumber",
      "outputs": [
        {
          "name": "",
          "type": "uint256"
        }
      ],
      "payable": false,
      "stateMutability": "view",
      "type": "function"
    },
    {
      "constant": true,
      "inputs": [
        {
          "name": "crop",
          "type": "string"
        }
      ],
      "name": "getCropPrices",
      "outputs": [
        {
          "components": [
            {
              "name": "serialNo",
              "type": "uint256"
            },
            {
              "name": "priceForDistributor",
              "type": "uint256"
            },
            {
              "name": "priceForRetailer",
              "type": "uint256"
            },
            {
              "name": "priceForConsumer",
              "type": "uint256"
            }
          ],
          "name": "",
          "type": "tuple"
        }
      ],
      "payable": false,
      "stateMutability": "view",
      "type": "function"
    },
    {
      "constant": false,
      "inputs": [
        {
          "name": "_ownerID",
          "type": "address"
        },
        {
          "name": "_farmerID",
          "type": "address"
        },
        {
          "name": "_distributorID",
          "type": "address"
        },
        {
          "name": "_retailerID",
          "type": "address"
        },
        {
          "name": "_consumerID",
          "type": "address"
        },
        {
          "name": "_productType",
          "type": "string"
        },
        {
          "name": "_weight",
          "type": "uint256"
        },
        {
          "name": "_productID",
          "type": "string"
        },
        {
          "name": "_parts",
          "type": "uint256"
        }
      ],
      "name": "insertItem",
      "outputs": [],
      "payable": false,
      "stateMutability": "nonpayable",
      "type": "function"
    },
    {
      "constant": false,
      "inputs": [
        {
          "name": "_productID",
          "type": "string"
        }
      ],
      "name": "deleteItem",
      "outputs": [],
      "payable": false,
      "stateMutability": "nonpayable",
      "type": "function"
    },
    {
      "constant": true,
      "inputs": [
        {
          "name": "_productName",
          "type": "string"
        },
        {
          "name": "stage",
          "type": "uint256"
        }
      ],
      "name": "getNumOwners",
      "outputs": [
        {
          "name": "",
          "type": "uint256"
        }
      ],
      "payable": false,
      "stateMutability": "view",
      "type": "function"
    },
    {
      "constant": true,
      "inputs": [
        {
          "name": "_productName",
          "type": "string"
        },
        {
          "name": "stage",
          "type": "uint256"
        },
        {
          "name": "index",
          "type": "uint256"
        }
      ],
      "name": "getOwnerAddresses",
      "outputs": [
        {
          "name": "",
          "type": "address"
        }
      ],
      "payable": false,
      "stateMutability": "view",
      "type": "function"
    },
    {
      "constant": true,
      "inputs": [
        {
          "name": "_productName",
          "type": "string"
        },
        {
          "name": "stage",
          "type": "uint256"
        },
        {
          "name": "_address",
          "type": "address"
        }
      ],
      "name": "getNumProductsPerOwner",
      "outputs": [
        {
          "name": "",
          "type": "uint256"
        }
      ],
      "payable": false,
      "stateMutability": "view",
      "type": "function"
    },
    {
      "constant": true,
      "inputs": [
        {
          "name": "_productName",
          "type": "string"
        },
        {
          "name": "stage",
          "type": "uint256"
        },
        {
          "name": "_address",
          "type": "address"
        },
        {
          "name": "_index",
          "type": "uint256"
        }
      ],
      "name": "getProductPerOwner",
      "outputs": [
        {
          "name": "",
          "type": "string"
        }
      ],
      "payable": false,
      "stateMutability": "view",
      "type": "function"
    },
    {
      "constant": true,
      "inputs": [
        {
          "name": "_productName",
          "type": "string"
        },
        {
          "name": "stage",
          "type": "uint256"
        },
        {
          "name": "_address",
          "type": "address"
        }
      ],
      "name": "getAllProductsPerOwner",
      "outputs": [
        {
          "name": "",
          "type": "string[]"
        }
      ],
      "payable": false,
      "stateMutability": "view",
      "type": "function"
    },
    {
      "constant": false,
      "inputs": [
        {
          "name": "_address",
          "type": "address"
        },
        {
          "name": "_id",
          "type": "string"
        },
        {
          "name": "_productName",
          "type": "string"
        },
        {
          "name": "stage",
          "type": "uint256"
        }
      ],
      "name": "insertNewId",
      "outputs": [],
      "payable": false,
      "stateMutability": "nonpayable",
      "type": "function"
    },
    {
      "constant": false,
      "inputs": [
        {
          "name": "_productName",
          "type": "string"
        },
        {
          "name": "_owner",
          "type": "address"
        },
        {
          "name": "stage",
          "type": "uint256"
        },
        {
          "name": "len",
          "type": "uint256"
        }
      ],
      "name": "deleteFromOwner",
      "outputs": [],
      "payable": false,
      "stateMutability": "nonpayable",
      "type": "function"
    },
    {
      "constant": false,
      "inputs": [
        {
          "name": "id",
          "type": "string"
        },
        {
          "name": "wt",
          "type": "uint256"
        }
      ],
      "name": "updateCurrentItem",
      "outputs": [],
      "payable": false,
      "stateMutability": "nonpayable",
      "type": "function"
    },
    {
      "constant": true,
      "inputs": [
        {
          "name": "_productName",
          "type": "string"
        },
        {
          "name": "_weight",
          "type": "uint256"
        },
        {
          "name": "_owner",
          "type": "address"
        },
        {
          "name": "stage",
          "type": "uint256"
        }
      ],
      "name": "checkAvailability",
      "outputs": [
        {
          "name": "",
          "type": "uint256"
        }
      ],
      "payable": false,
      "stateMutability": "view",
      "type": "function"
    }
  ],
  "bytecode": "0x6080604052610900604051908101604052806040805190810160405280600881526020017f61726563616e757400000000000000000000000000000000000000000000000081525081526020016040805190810160405280600981526020017f61726861722f747572000000000000000000000000000000000000000000000081525081526020016040805190810160405280600581526020017f62616a726100000000000000000000000000000000000000000000000000000081525081526020016040805190810160405280600681526020017f62616e616e61000000000000000000000000000000000000000000000000000081525081526020016040805190810160405280600681526020017f6261726c6579000000000000000000000000000000000000000000000000000081525081526020016040805190810160405280600681526020017f6268696e6469000000000000000000000000000000000000000000000000000081525081526020016040805190810160405280600c81526020017f626c61636b20706570706572000000000000000000000000000000000000000081525081526020016040805190810160405280600981526020017f626c61636b6772616d000000000000000000000000000000000000000000000081525081526020016040805190810160405280600781526020017f6272696e6a616c0000000000000000000000000000000000000000000000000081525081526020016040805190810160405280600781526020017f636162626167650000000000000000000000000000000000000000000000000081525081526020016040805190810160405280600881526020017f63617264616d6f6d00000000000000000000000000000000000000000000000081525081526020016040805190810160405280600681526020017f636172726f74000000000000000000000000000000000000000000000000000081525081526020016040805190810160405280600981526020017f6361736865776e7574000000000000000000000000000000000000000000000081525081526020016040805190810160405280600b81526020017f636173746f72207365656400000000000000000000000000000000000000000081525081526020016040805190810160405280600881526020017f6368696c6c69657300000000000000000000000000000000000000000000000081525081526020016040805190810160405280600c81526020017f636974727573206672756974000000000000000000000000000000000000000081525081526020016040805190810160405280600781526020017f636f636f6e75740000000000000000000000000000000000000000000000000081525081526020016040805190810160405280600681526020017f636f66666565000000000000000000000000000000000000000000000000000081525081526020016040805190810160405280600981526020017f636f7269616e646572000000000000000000000000000000000000000000000081525081526020016040805190810160405280600681526020017f636f74746f6e000000000000000000000000000000000000000000000000000081525081526020016040805190810160405280600d81526020017f636f77706561286c6f626961290000000000000000000000000000000000000081525081526020016040805190810160405280600a81526020017f6472756d20737469636b0000000000000000000000000000000000000000000081525081526020016040805190810160405280600681526020017f6761726c6963000000000000000000000000000000000000000000000000000081525081526020016040805190810160405280600681526020017f67696e676572000000000000000000000000000000000000000000000000000081525081526020016040805190810160405280600481526020017f6772616d0000000000000000000000000000000000000000000000000000000081525081526020016040805190810160405280600681526020017f677261706573000000000000000000000000000000000000000000000000000081525081526020016040805190810160405280600981526020017f67726f756e646e7574000000000000000000000000000000000000000000000081525081526020016040805190810160405280600981526020017f677561722073656564000000000000000000000000000000000000000000000081525081526020016040805190810160405280600a81526020017f686f7273652d6772616d0000000000000000000000000000000000000000000081525081526020016040805190810160405280600a81526020017f6a61636b2066727569740000000000000000000000000000000000000000000081525081526020016040805190810160405280600581526020017f6a6f77617200000000000000000000000000000000000000000000000000000081525081526020016040805190810160405280600481526020017f6a7574650000000000000000000000000000000000000000000000000000000081525081526020016040805190810160405280600781526020017f6b6865736172690000000000000000000000000000000000000000000000000081525081526020016040805190810160405280600581526020017f6b6f72726100000000000000000000000000000000000000000000000000000081525081526020016040805190810160405280600681526020017f6c656e74696c000000000000000000000000000000000000000000000000000081525081526020016040805190810160405280600781526020017f6c696e736565640000000000000000000000000000000000000000000000000081525081526020016040805190810160405280600581526020017f6d61697a6500000000000000000000000000000000000000000000000000000081525081526020016040805190810160405280600581526020017f6d616e676f00000000000000000000000000000000000000000000000000000081525081526020016040805190810160405280600681526020017f6d61736f6f72000000000000000000000000000000000000000000000000000081525081526020016040805190810160405280600581526020017f6d6573746100000000000000000000000000000000000000000000000000000081525081526020016040805190810160405280600981526020017f6d6f74686265616e73000000000000000000000000000000000000000000000081525081526020016040805190810160405280600881526020017f6d756e676265616e00000000000000000000000000000000000000000000000081525081526020016040805190810160405280600a81526020017f6e6967657220736565640000000000000000000000000000000000000000000081525081526020016040805190810160405280600581526020017f6f6e696f6e00000000000000000000000000000000000000000000000000000081525081526020016040805190810160405280600681526020017f6f72616e6765000000000000000000000000000000000000000000000000000081525081526020016040805190810160405280600681526020017f706170617961000000000000000000000000000000000000000000000000000081525081526020016040805190810160405280600981526020017f70696e656170706c65000000000000000000000000000000000000000000000081525081526020016040805190810160405280600b81526020017f706f6d656772616e61746500000000000000000000000000000000000000000081525081526020016040805190810160405280600681526020017f706f7461746f000000000000000000000000000000000000000000000000000081525081526020016040805190810160405280600481526020017f726167690000000000000000000000000000000000000000000000000000000081525081526020016040805190810160405280601181526020017f726170657365656420266d75737461726400000000000000000000000000000081525081526020016040805190810160405280600681526020017f726564697368000000000000000000000000000000000000000000000000000081525081526020016040805190810160405280600481526020017f726963650000000000000000000000000000000000000000000000000000000081525081526020016040805190810160405280600681526020017f727562626572000000000000000000000000000000000000000000000000000081525081526020016040805190810160405280600981526020017f736166666c6f776572000000000000000000000000000000000000000000000081525081526020016040805190810160405280600581526020017f73616d616900000000000000000000000000000000000000000000000000000081525081526020016040805190810160405280600881526020017f73616e6e68616d7000000000000000000000000000000000000000000000000081525081526020016040805190810160405280600781526020017f736573616d756d0000000000000000000000000000000000000000000000000081525081526020016040805190810160405280600d81526020017f736d616c6c206d696c6c6574730000000000000000000000000000000000000081525081526020016040805190810160405280600881526020017f736f79616265616e00000000000000000000000000000000000000000000000081525081526020016040805190810160405280600981526020017f737567617263616e65000000000000000000000000000000000000000000000081525081526020016040805190810160405280600981526020017f73756e666c6f776572000000000000000000000000000000000000000000000081525081526020016040805190810160405280600c81526020017f737765657420706f7461746f000000000000000000000000000000000000000081525081526020016040805190810160405280600781526020017f746170696f63610000000000000000000000000000000000000000000000000081525081526020016040805190810160405280600381526020017f746561000000000000000000000000000000000000000000000000000000000081525081526020016040805190810160405280600781526020017f746f626163636f0000000000000000000000000000000000000000000000000081525081526020016040805190810160405280600681526020017f746f6d61746f000000000000000000000000000000000000000000000000000081525081526020016040805190810160405280600881526020017f7475726d6572696300000000000000000000000000000000000000000000000081525081526020016040805190810160405280600681526020017f7475726e6970000000000000000000000000000000000000000000000000000081525081526020016040805190810160405280600481526020017f757261640000000000000000000000000000000000000000000000000000000081525081526020016040805190810160405280600681526020017f766172616775000000000000000000000000000000000000000000000000000081525081526020016040805190810160405280600581526020017f77686561740000000000000000000000000000000000000000000000000000008152508152506001906048620010b992919062001207565b50348015620010c757600080fd5b50604051602080620039588339810180604052620010e99190810190620013b0565b806000806101000a81548173ffffffffffffffffffffffffffffffffffffffff021916908373ffffffffffffffffffffffffffffffffffffffff1602179055506200114262001149640100000000026401000000009004565b50620013fc565b60008090505b60018054905081101562001204576001810160036001838154811015156200117357fe5b906000526020600020016040518082805460018160011615610100020316600290048015620011dc5780601f10620011b9576101008083540402835291820191620011dc565b820191906000526020600020905b815481529060010190602001808311620011c7575b505091505090815260200160405180910390206000018190555080806001019150506200114f565b50565b8280548282559060005260206000209081019282156200125b579160200282015b828111156200125a578251829080519060200190620012499291906200126e565b509160200191906001019062001228565b5b5090506200126a9190620012f5565b5090565b828054600181600116156101000203166002900490600052602060002090601f016020900481019282601f10620012b157805160ff1916838001178555620012e2565b82800160010185558215620012e2579182015b82811115620012e1578251825591602001919060010190620012c4565b5b509050620012f1919062001326565b5090565b6200132391905b808211156200131f57600081816200131591906200134e565b50600101620012fc565b5090565b90565b6200134b91905b80821115620013475760008160009055506001016200132d565b5090565b90565b50805460018160011615610100020316600290046000825580601f1062001376575062001397565b601f01602090049060005260206000209081019062001396919062001326565b5b50565b6000620013a88251620013dc565b905092915050565b600060208284031215620013c357600080fd5b6000620013d3848285016200139a565b91505092915050565b600073ffffffffffffffffffffffffffffffffffffffff82169050919050565b61254c806200140c6000396000f3006080604052600436106100e6576000357c0100000000000000000000000000000000000000000000000000000000900463ffffffff1680630b58127d146100eb57806312f7733214610114578063187915ec1461013f57806327ad26041461017c5780632882722c146101a55780632d6e7b4b146101e25780635f1a166d1461021f5780635f983bd01461025c5780636521f4371461029957806385ae0830146102c2578063948c8260146102ff57806398d91c2c1461033c578063a6f04a7e14610365578063cb78b5271461038e578063cddfe421146103cb578063d27a69ff146103f4575b600080fd5b3480156100f757600080fd5b50610112600480360361010d9190810190611b7f565b610431565b005b34801561012057600080fd5b506101296105d1565b60405161013691906122f0565b60405180910390f35b34801561014b57600080fd5b5061016660048036036101619190810190611f2e565b6105f6565b60405161017391906122b3565b60405180910390f35b34801561018857600080fd5b506101a3600480360361019e9190810190611a7f565b61065c565b005b3480156101b157600080fd5b506101cc60048036036101c79190810190611e4c565b6108fe565b6040516101d991906122ce565b60405180910390f35b3480156101ee57600080fd5b5061020960048036036102049190810190611df8565b610a49565b60405161021691906123aa565b60405180910390f35b34801561022b57600080fd5b5061024660048036036102419190810190611e4c565b610a7a565b60405161025391906123aa565b60405180910390f35b34801561026857600080fd5b50610283600480360361027e9190810190611db7565b610ae9565b604051610290919061236d565b60405180910390f35b3480156102a557600080fd5b506102c060048036036102bb9190810190611c1a565b610b97565b005b3480156102ce57600080fd5b506102e960048036036102e49190810190611db7565b610ca6565b6040516102f691906123aa565b60405180910390f35b34801561030b57600080fd5b5061032660048036036103219190810190611eb3565b610cbc565b604051610333919061230b565b60405180910390f35b34801561034857600080fd5b50610363600480360361035e9190810190611c5f565b610dd8565b005b34801561037157600080fd5b5061038c60048036036103879190810190611f95565b610ed8565b005b34801561039a57600080fd5b506103b560048036036103b09190810190611db7565b6111ad565b6040516103c29190612388565b60405180910390f35b3480156103d757600080fd5b506103f260048036036103ed9190810190611cdf565b611498565b005b34801561040057600080fd5b5061041b60048036036104169190810190611d37565b61150b565b60405161042891906123aa565b60405180910390f35b600081600a61047186868080601f016020809104026020016040519081016040528093929190818152602001838380828437820191505050505050610ca6565b0201905060006104b485858080601f016020809104026020016040519081016040528093929190818152602001838380828437820191505050505050848a610a7a565b141561053557600460008281526020019081526020016000206000018790806001815401808255809150509060018203906000526020600020016000909192909190916101000a81548173ffffffffffffffffffffffffffffffffffffffff021916908373ffffffffffffffffffffffffffffffffffffffff160217905550505b6004600082815260200190815260200160002060010160008873ffffffffffffffffffffffffffffffffffffffff1673ffffffffffffffffffffffffffffffffffffffff1681526020019081526020016000208686909180600181540180825580915050906001820390600052602060002001600090919293909192939091929091925091906105c6929190611753565b505050505050505050565b6000809054906101000a900473ffffffffffffffffffffffffffffffffffffffff1681565b60006004600084600a61060888610ca6565b020181526020019081526020016000206000018281548110151561062857fe5b9060005260206000200160009054906101000a900473ffffffffffffffffffffffffffffffffffffffff1690509392505050565b8a6002848460405180838380828437820191505092505050908152602001604051809103902060000160006101000a81548173ffffffffffffffffffffffffffffffffffffffff021916908373ffffffffffffffffffffffffffffffffffffffff160217905550896002848460405180838380828437820191505092505050908152602001604051809103902060010160006101000a81548173ffffffffffffffffffffffffffffffffffffffff021916908373ffffffffffffffffffffffffffffffffffffffff160217905550886002848460405180838380828437820191505092505050908152602001604051809103902060020160006101000a81548173ffffffffffffffffffffffffffffffffffffffff021916908373ffffffffffffffffffffffffffffffffffffffff160217905550876002848460405180838380828437820191505092505050908152602001604051809103902060030160006101000a81548173ffffffffffffffffffffffffffffffffffffffff021916908373ffffffffffffffffffffffffffffffffffffffff160217905550866002848460405180838380828437820191505092505050908152602001604051809103902060040160006101000a81548173ffffffffffffffffffffffffffffffffffffffff021916908373ffffffffffffffffffffffffffffffffffffffff1602179055508585600285856040518083838082843782019150509250505090815260200160405180910390206005019190610896929190611753565b508360028484604051808383808284378201915050925050509081526020016040518091039020600601819055508060028484604051808383808284378201915050925050509081526020016040518091039020600701819055505050505050505050505050565b60606004600084600a61091088610ca6565b0201815260200190815260200160002060010160008373ffffffffffffffffffffffffffffffffffffffff1673ffffffffffffffffffffffffffffffffffffffff168152602001908152602001600020805480602002602001604051908101604052809291908181526020016000905b82821015610a3c578382906000526020600020018054600181600116156101000203166002900480601f016020809104026020016040519081016040528092919081815260200182805460018160011615610100020316600290048015610a285780601f106109fd57610100808354040283529160200191610a28565b820191906000526020600020905b815481529060010190602001808311610a0b57829003601f168201915b505050505081526020019060010190610980565b5050505090509392505050565b60006004600083600a610a5b87610ca6565b0201815260200190815260200160002060000180549050905092915050565b60006004600084600a610a8c88610ca6565b0201815260200190815260200160002060010160008373ffffffffffffffffffffffffffffffffffffffff1673ffffffffffffffffffffffffffffffffffffffff1681526020019081526020016000208054905090509392505050565b610af16117d3565b6003826040518082805190602001908083835b602083101515610b295780518252602082019150602081019050602083039250610b04565b6001836020036101000a0380198251168184511680821785525050505050509050019150509081526020016040518091039020608060405190810160405290816000820154815260200160018201548152602001600282015481526020016003820154815250509050919050565b60028282604051808383808284378201915050925050509081526020016040518091039020600080820160006101000a81549073ffffffffffffffffffffffffffffffffffffffff02191690556001820160006101000a81549073ffffffffffffffffffffffffffffffffffffffff02191690556002820160006101000a81549073ffffffffffffffffffffffffffffffffffffffff02191690556003820160006101000a81549073ffffffffffffffffffffffffffffffffffffffff02191690556004820160006101000a81549073ffffffffffffffffffffffffffffffffffffffff0219169055600582016000610c9091906117fc565b6006820160009055600782016000905550505050565b6000610cb182610ae9565b600001519050919050565b60606004600085600a610cce89610ca6565b0201815260200190815260200160002060010160008473ffffffffffffffffffffffffffffffffffffffff1673ffffffffffffffffffffffffffffffffffffffff16815260200190815260200160002082815481101515610d2b57fe5b906000526020600020018054600181600116156101000203166002900480601f016020809104026020016040519081016040528092919081815260200182805460018160011615610100020316600290048015610dc95780601f10610d9e57610100808354040283529160200191610dc9565b820191906000526020600020905b815481529060010190602001808311610dac57829003601f168201915b50505050509050949350505050565b60006004600084600a610e1c8a8a8080601f016020809104026020016040519081016040528093929190818152602001838380828437820191505050505050610ca6565b0201815260200190815260200160002060010160008573ffffffffffffffffffffffffffffffffffffffff1673ffffffffffffffffffffffffffffffffffffffff1681526020019081526020016000209050818181818054905003915081610e849190611844565b50600081805490501415610ed057610ecf86868080601f01602080910402602001604051908101604052809392919081815260200183838082843782019150505050505084866115cb565b5b505050505050565b6000326000809054906101000a900473ffffffffffffffffffffffffffffffffffffffff1673ffffffffffffffffffffffffffffffffffffffff166346fb5b9c6040518163ffffffff167c0100000000000000000000000000000000000000000000000000000000028152600401602060405180830381600087803b158015610f6057600080fd5b505af1158015610f74573d6000803e3d6000fd5b505050506040513d601f19601f82011682018060405250610f989190810190612010565b806000809054906101000a900473ffffffffffffffffffffffffffffffffffffffff1673ffffffffffffffffffffffffffffffffffffffff166344276733846040518263ffffffff167c010000000000000000000000000000000000000000000000000000000002815260040161100f91906122b3565b602060405180830381600087803b15801561102957600080fd5b505af115801561103d573d6000803e3d6000fd5b505050506040513d601f19601f820116820180604052506110619190810190612010565b1415156110a3576040517f08c379a000000000000000000000000000000000000000000000000000000000815260040161109a9061234d565b60405180910390fd5b8660006110af82610ca6565b1115156110f1576040517f08c379a00000000000000000000000000000000000000000000000000000000081526004016110e89061232d565b60405180910390fd5b6003886040518082805190602001908083835b6020831015156111295780518252602082019150602081019050602083039250611104565b6001836020036101000a0380198251168184511680821785525050505050509050019150509081526020016040518091039020935086846001018190555060648660640185600101540281151561117c57fe5b04846002018190555060648560640185600201540281151561119a57fe5b0484600301819055505050505050505050565b6111b5611870565b6002826040518082805190602001908083835b6020831015156111ed57805182526020820191506020810190506020830392506111c8565b6001836020036101000a038019825116818451168082178552505050505050905001915050908152602001604051809103902061010060405190810160405290816000820160009054906101000a900473ffffffffffffffffffffffffffffffffffffffff1673ffffffffffffffffffffffffffffffffffffffff1673ffffffffffffffffffffffffffffffffffffffff1681526020016001820160009054906101000a900473ffffffffffffffffffffffffffffffffffffffff1673ffffffffffffffffffffffffffffffffffffffff1673ffffffffffffffffffffffffffffffffffffffff1681526020016002820160009054906101000a900473ffffffffffffffffffffffffffffffffffffffff1673ffffffffffffffffffffffffffffffffffffffff1673ffffffffffffffffffffffffffffffffffffffff1681526020016003820160009054906101000a900473ffffffffffffffffffffffffffffffffffffffff1673ffffffffffffffffffffffffffffffffffffffff1673ffffffffffffffffffffffffffffffffffffffff1681526020016004820160009054906101000a900473ffffffffffffffffffffffffffffffffffffffff1673ffffffffffffffffffffffffffffffffffffffff1673ffffffffffffffffffffffffffffffffffffffff168152602001600582018054600181600116156101000203166002900480601f0160208091040260200160405190810160405280929190818152602001828054600181600116156101000203166002900480156114745780601f1061144957610100808354040283529160200191611474565b820191906000526020600020905b81548152906001019060200180831161145757829003601f168201915b50505050508152602001600682015481526020016007820154815250509050919050565b8060028484604051808383808284378201915050925050509081526020016040518091039020600601600082825403925050819055506002838360405180838380828437820191505092505050908152602001604051809103902060070160008154809291906001019190505550505050565b6000606060008061154f89898080601f01602080910402602001604051908101604052809392919081815260200183838082843782019150505050505086886108fe565b925060009150825190505b60008111801561156957508682105b156115a757611591836001830381518110151561158257fe5b906020019060200201516111ad565b60c001518201915080806001900391505061155a565b868210156115b857600093506115bf565b8083510393505b50505095945050505050565b60008060006004600086600a6115e08a610ca6565b020181526020019081526020016000206000019050600092505b808054905083101561174b578373ffffffffffffffffffffffffffffffffffffffff16818481548110151561162b57fe5b9060005260206000200160009054906101000a900473ffffffffffffffffffffffffffffffffffffffff1673ffffffffffffffffffffffffffffffffffffffff16141561173e578291505b600181805490500382101561172457806001830181548110151561169657fe5b9060005260206000200160009054906101000a900473ffffffffffffffffffffffffffffffffffffffff1681838154811015156116cf57fe5b9060005260206000200160006101000a81548173ffffffffffffffffffffffffffffffffffffffff021916908373ffffffffffffffffffffffffffffffffffffffff1602179055508180600101925050611676565b808054809190600190036117389190611924565b5061174b565b82806001019350506115fa565b505050505050565b828054600181600116156101000203166002900490600052602060002090601f016020900481019282601f1061179457803560ff19168380011785556117c2565b828001600101855582156117c2579182015b828111156117c15782358255916020019190600101906117a6565b5b5090506117cf9190611950565b5090565b608060405190810160405280600081526020016000815260200160008152602001600081525090565b50805460018160011615610100020316600290046000825580601f106118225750611841565b601f0160209004906000526020600020908101906118409190611950565b5b50565b81548183558181111561186b5781836000526020600020918201910161186a9190611975565b5b505050565b61010060405190810160405280600073ffffffffffffffffffffffffffffffffffffffff168152602001600073ffffffffffffffffffffffffffffffffffffffff168152602001600073ffffffffffffffffffffffffffffffffffffffff168152602001600073ffffffffffffffffffffffffffffffffffffffff168152602001600073ffffffffffffffffffffffffffffffffffffffff1681526020016060815260200160008152602001600081525090565b81548183558181111561194b5781836000526020600020918201910161194a9190611950565b5b505050565b61197291905b8082111561196e576000816000905550600101611956565b5090565b90565b61199e91905b8082111561199a576000818161199191906117fc565b5060010161197b565b5090565b90565b60006119ad8235612483565b905092915050565b60008083601f84011215156119c957600080fd5b8235905067ffffffffffffffff8111156119e257600080fd5b6020830191508360018202830111156119fa57600080fd5b9250929050565b600082601f8301121515611a1457600080fd5b8135611a27611a22826123f2565b6123c5565b91508082526020830160208301858383011115611a4357600080fd5b611a4e8382846124bf565b50505092915050565b6000611a6382356124a3565b905092915050565b6000611a7782516124a3565b905092915050565b60008060008060008060008060008060006101208c8e031215611aa157600080fd5b6000611aaf8e828f016119a1565b9b50506020611ac08e828f016119a1565b9a50506040611ad18e828f016119a1565b9950506060611ae28e828f016119a1565b9850506080611af38e828f016119a1565b97505060a08c013567ffffffffffffffff811115611b1057600080fd5b611b1c8e828f016119b5565b965096505060c0611b2f8e828f01611a57565b94505060e08c013567ffffffffffffffff811115611b4c57600080fd5b611b588e828f016119b5565b9350935050610100611b6c8e828f01611a57565b9150509295989b509295989b9093969950565b60008060008060008060808789031215611b9857600080fd5b6000611ba689828a016119a1565b965050602087013567ffffffffffffffff811115611bc357600080fd5b611bcf89828a016119b5565b9550955050604087013567ffffffffffffffff811115611bee57600080fd5b611bfa89828a016119b5565b93509350506060611c0d89828a01611a57565b9150509295509295509295565b60008060208385031215611c2d57600080fd5b600083013567ffffffffffffffff811115611c4757600080fd5b611c53858286016119b5565b92509250509250929050565b600080600080600060808688031215611c7757600080fd5b600086013567ffffffffffffffff811115611c9157600080fd5b611c9d888289016119b5565b95509550506020611cb0888289016119a1565b9350506040611cc188828901611a57565b9250506060611cd288828901611a57565b9150509295509295909350565b600080600060408486031215611cf457600080fd5b600084013567ffffffffffffffff811115611d0e57600080fd5b611d1a868287016119b5565b93509350506020611d2d86828701611a57565b9150509250925092565b600080600080600060808688031215611d4f57600080fd5b600086013567ffffffffffffffff811115611d6957600080fd5b611d75888289016119b5565b95509550506020611d8888828901611a57565b9350506040611d99888289016119a1565b9250506060611daa88828901611a57565b9150509295509295909350565b600060208284031215611dc957600080fd5b600082013567ffffffffffffffff811115611de357600080fd5b611def84828501611a01565b91505092915050565b60008060408385031215611e0b57600080fd5b600083013567ffffffffffffffff811115611e2557600080fd5b611e3185828601611a01565b9250506020611e4285828601611a57565b9150509250929050565b600080600060608486031215611e6157600080fd5b600084013567ffffffffffffffff811115611e7b57600080fd5b611e8786828701611a01565b9350506020611e9886828701611a57565b9250506040611ea9868287016119a1565b9150509250925092565b60008060008060808587031215611ec957600080fd5b600085013567ffffffffffffffff811115611ee357600080fd5b611eef87828801611a01565b9450506020611f0087828801611a57565b9350506040611f11878288016119a1565b9250506060611f2287828801611a57565b91505092959194509250565b600080600060608486031215611f4357600080fd5b600084013567ffffffffffffffff811115611f5d57600080fd5b611f6986828701611a01565b9350506020611f7a86828701611a57565b9250506040611f8b86828701611a57565b9150509250925092565b60008060008060808587031215611fab57600080fd5b600085013567ffffffffffffffff811115611fc557600080fd5b611fd187828801611a01565b9450506020611fe287828801611a57565b9350506040611ff387828801611a57565b925050606061200487828801611a57565b91505092959194509250565b60006020828403121561202257600080fd5b600061203084828501611a6b565b91505092915050565b61204281612459565b82525050565b60006120538261242b565b8084526020840193508360208202850161206c8561241e565b60005b848110156120a55783830388526120878383516120fb565b92506120928261244c565b915060208801975060018101905061206f565b508196508694505050505092915050565b6120bf816124ad565b82525050565b60006120d082612441565b8084526120e48160208601602086016124ce565b6120ed81612501565b602085010191505092915050565b600061210682612436565b80845261211a8160208601602086016124ce565b61212381612501565b602085010191505092915050565b6000601a82527f43726f70206e6f7420616c6c6f77656420696e2073797374656d0000000000006020830152604082019050919050565b6000601a82527f526563656976657220726f6c6520697320696e636f72726563740000000000006020830152604082019050919050565b6080820160008201516121b560008501826122a4565b5060208201516121c860208501826122a4565b5060408201516121db60408501826122a4565b5060608201516121ee60608501826122a4565b50505050565b60006101008301600083015161220d6000860182612039565b5060208301516122206020860182612039565b5060408301516122336040860182612039565b5060608301516122466060860182612039565b5060808301516122596080860182612039565b5060a083015184820360a086015261227182826120fb565b91505060c083015161228660c08601826122a4565b5060e083015161229960e08601826122a4565b508091505092915050565b6122ad81612479565b82525050565b60006020820190506122c86000830184612039565b92915050565b600060208201905081810360008301526122e88184612048565b905092915050565b600060208201905061230560008301846120b6565b92915050565b6000602082019050818103600083015261232581846120c5565b905092915050565b6000602082019050818103600083015261234681612131565b9050919050565b6000602082019050818103600083015261236681612168565b9050919050565b6000608082019050612382600083018461219f565b92915050565b600060208201905081810360008301526123a281846121f4565b905092915050565b60006020820190506123bf60008301846122a4565b92915050565b6000604051905081810181811067ffffffffffffffff821117156123e857600080fd5b8060405250919050565b600067ffffffffffffffff82111561240957600080fd5b601f19601f8301169050602081019050919050565b6000602082019050919050565b600081519050919050565b600081519050919050565b600081519050919050565b6000602082019050919050565b600073ffffffffffffffffffffffffffffffffffffffff82169050919050565b6000819050919050565b600073ffffffffffffffffffffffffffffffffffffffff82169050919050565b6000819050919050565b60006124b882612459565b9050919050565b82818337600083830152505050565b60005b838110156124ec5780820151818401526020810190506124d1565b838111156124fb576000848401525b50505050565b6000601f19601f83011690509190505600a265627a7a72305820932c7130a25d3a627d6e23ec27b29ce4122d5a4b1e81b4b2e432dab32ed6356c6c6578706572696d656e74616cf50037",
  "source": "// SPDX-License-Identifier: GPL-3.0\r\npragma solidity ^0.4.22;\r\npragma experimental ABIEncoderV2;\r\n\r\nimport './Roles.sol';\r\nimport './HelperMethods.sol';\r\n\r\ncontract SupplyChain {\r\n    Roles public rc;\r\n    \r\n    string[] cropsAllowed = ['arecanut', 'arhar/tur', 'bajra', 'banana', 'barley', 'bhindi', 'black pepper', 'blackgram', 'brinjal', 'cabbage', 'cardamom', 'carrot', 'cashewnut', 'castor seed', 'chillies', 'citrus fruit', \r\n    'coconut', 'coffee', 'coriander', 'cotton', 'cowpea(lobia)', 'drum stick', 'garlic', 'ginger', 'gram', 'grapes', 'groundnut', 'guar seed', 'horse-gram', 'jack fruit', 'jowar', 'jute', 'khesari', 'korra', 'lentil',\r\n    'linseed', 'maize', 'mango', 'masoor', 'mesta', 'mothbeans', 'mungbean', 'niger seed', 'onion', 'orange', 'papaya', 'pineapple', 'pomegranate', 'potato', 'ragi', 'rapeseed &mustard', 'redish', 'rice', 'rubber',\r\n    'safflower', 'samai', 'sannhamp', 'sesamum', 'small millets', 'soyabean', 'sugarcane', 'sunflower', 'sweet potato', 'tapioca', 'tea', 'tobacco', 'tomato', 'turmeric', 'turnip', 'urad', 'varagu', 'wheat'];\r\n\r\n    struct Crop {\r\n        uint256 serialNo;\r\n        uint256 priceForDistributor;\r\n        uint256 priceForRetailer;\r\n        uint256 priceForConsumer;\r\n    }\r\n\r\n    struct Item {\r\n        address ownerID; \r\n        address farmerID; \r\n        address distributorID;  \r\n        address retailerID; \r\n        address consumerID;\r\n        \r\n        string  productType;\r\n        uint256 weight;\r\n        uint256 parts;\r\n    }\r\n\r\n    struct OwnerProduct {\r\n        address[] owners;\r\n        mapping (address=>string[]) perOwner;\r\n    }\r\n\r\n    mapping (string => Item) items;\r\n    mapping (string => Crop) cropPrices;\r\n\r\n    mapping (uint256=>OwnerProduct) productAvailability;\r\n\r\n    modifier verifyReceiver(address _address, uint256 roleID) {\r\n        require(rc.getRole(_address) == roleID, \"Receiver role is incorrect\");\r\n        _;\r\n    }\r\n\r\n    modifier validProduct(string _productType) {\r\n        require(getSerialNumber(_productType) > 0, \"Crop not allowed in system\");\r\n        _;\r\n    }\r\n\r\n    function setPrice (string _product, uint256 basePrice, uint256 profitDistributor, uint256 profitRetailer) public\r\n    verifyReceiver(tx.origin, rc.governmentID())\r\n    validProduct(_product)\r\n    {\r\n        Crop storage crop = cropPrices[_product];\r\n        crop.priceForDistributor = basePrice;\r\n        crop.priceForRetailer = crop.priceForDistributor * (100 + profitDistributor) / 100;\r\n        crop.priceForConsumer = crop.priceForRetailer * (100 + profitRetailer) / 100;\r\n    }\r\n    \r\n    function removeFromArray(string _productName, uint256 stage, address _address) private {\r\n        uint256 i;\r\n        uint256 j;\r\n\r\n        address[] storage ownersArray = productAvailability[getSerialNumber(_productName) * 10 + stage].owners;\r\n        \r\n        for (i = 0; i < ownersArray.length; i++){\r\n            if (ownersArray[i] == _address) {\r\n                for (j = i; j < ownersArray.length - 1; j++) {\r\n                    ownersArray[j] = ownersArray[j+1];\r\n                }\r\n                ownersArray.length--;\r\n                break;\r\n            }\r\n        }\r\n    }\r\n    \r\n    function getItems(string id) public view returns(Item) {\r\n        return items[id];\r\n    }\r\n\r\n    function getSerialNumber(string crop) public view returns(uint256) {\r\n        return getCropPrices(crop).serialNo;\r\n    }\r\n    \r\n    function getCropPrices(string crop) public view returns(Crop) {\r\n        return cropPrices[crop];\r\n    }\r\n    \r\n    function insertItem(address _ownerID, address _farmerID, address _distributorID, address _retailerID, \r\n        address _consumerID, string  _productType, uint256 _weight, string _productID, uint256 _parts) external {\r\n        items[_productID].ownerID = _ownerID;\r\n        items[_productID].farmerID = _farmerID;\r\n        items[_productID].distributorID = _distributorID;\r\n        items[_productID].retailerID = _retailerID;\r\n        items[_productID].consumerID = _consumerID;\r\n        items[_productID].productType = _productType;\r\n        items[_productID].weight = _weight;\r\n        items[_productID].parts = _parts;\r\n    }\r\n    \r\n    function deleteItem(string _productID) external {\r\n        delete items[_productID];\r\n    }\r\n    \r\n    constructor(address _address) public {\r\n        rc = Roles(_address);        \r\n        setValidProducts();\r\n    }\r\n    \r\n    function setValidProducts() private {\r\n        for(uint256 i = 0; i < cropsAllowed.length; i++) {\r\n            cropPrices[cropsAllowed[i]].serialNo = i+1;\r\n        }\r\n    }\r\n\r\n    function getNumOwners (string _productName, uint256 stage) public view returns(uint256) {\r\n        return productAvailability[getSerialNumber(_productName) * 10 + stage].owners.length;\r\n    }\r\n\r\n    function getOwnerAddresses(string _productName, uint256 stage, uint256 index) public view returns(address) {\r\n        return productAvailability[getSerialNumber(_productName) * 10 + stage].owners[index];\r\n    }\r\n\r\n    function getNumProductsPerOwner(string _productName, uint256 stage, address _address) public view returns(uint256) {\r\n        return productAvailability[getSerialNumber(_productName) * 10 + stage].perOwner[_address].length;\r\n    }\r\n    \r\n    function getProductPerOwner(string _productName, uint256 stage, address _address, uint256 _index) public view returns(string) {\r\n        return productAvailability[getSerialNumber(_productName) * 10 + stage].perOwner[_address][_index];\r\n    }\r\n\r\n    function getAllProductsPerOwner(string _productName, uint256 stage, address _address) public view returns (string[]) {\r\n        return productAvailability[getSerialNumber(_productName) * 10 + stage].perOwner[_address];\r\n    }\r\n\r\n    function insertNewId(address _address, string _id, string _productName, uint256 stage) external {\r\n        uint256 serial = getSerialNumber(_productName)*10+stage;\r\n        if (getNumProductsPerOwner(_productName, stage, _address) == 0)\r\n        productAvailability[serial].owners.push(_address);\r\n        productAvailability[serial].perOwner[_address].push(_id);\r\n    }\r\n\r\n    function deleteFromOwner(string _productName, address _owner, uint256 stage, uint256 len) external {\r\n        string [] storage productArray = productAvailability[getSerialNumber(_productName) * 10 + stage].perOwner[_owner];\r\n        productArray.length -= len;\r\n        if (productArray.length == 0) {\r\n            removeFromArray(_productName,stage,_owner);\r\n        }\r\n    }\r\n\r\n    function updateCurrentItem(string id, uint256 wt) external {\r\n        items[id].weight -= wt;\r\n        items[id].parts++;\r\n    }\r\n\r\n    function checkAvailability(string _productName, uint256 _weight, address _owner, uint256 stage) external view returns(uint256) {\r\n        string[] memory ids = getAllProductsPerOwner(_productName, stage, _owner);\r\n        uint256 weightPresent = 0;\r\n        for (uint256 i = ids.length ; i > 0 && weightPresent < _weight; i--) {\r\n            weightPresent = weightPresent + getItems(ids[i-1]).weight;\r\n        }\r\n        if (weightPresent < _weight) {\r\n            return 0;\r\n        } else {\r\n            return ids.length - i;\r\n        }\r\n    }\r\n}\r\n\r\n",
  "sourcePath": "D:\\7thSemester\\CS491\\smart_agriculture_react\\contracts\\SupplyChain.sol",
  "compiler": {
    "name": "solc",
    "version": "0.4.26+commit.4563c3fc.Emscripten.clang"
  },
  "schemaVersion": "3.4.3",
  "updatedAt": "2022-02-05T19:18:45.034Z",
  "networkType": "ethereum",
  "devdoc": {
    "methods": {}
  },
  "userdoc": {
    "methods": {}
  }
}