{
  "contractName": "SupplyChain2",
  "abi": [
    {
      "inputs": [
        {
          "name": "_rcaddress",
          "type": "address"
        },
        {
          "name": "_scaddress",
          "type": "address"
        },
        {
          "name": "_fcaddress",
          "type": "address"
        }
      ],
      "payable": false,
      "stateMutability": "nonpayable",
      "type": "constructor"
    },
    {
      "anonymous": false,
      "inputs": [
        {
          "indexed": false,
          "name": "",
          "type": "string"
        }
      ],
      "name": "ProductIDGeneratedFarmer",
      "type": "event"
    },
    {
      "anonymous": false,
      "inputs": [
        {
          "indexed": false,
          "name": "",
          "type": "string[]"
        }
      ],
      "name": "ProductIDGeneratedDistributor",
      "type": "event"
    },
    {
      "anonymous": false,
      "inputs": [
        {
          "indexed": false,
          "name": "",
          "type": "string[]"
        }
      ],
      "name": "ProductIDGeneratedRetailer",
      "type": "event"
    },
    {
      "anonymous": false,
      "inputs": [
        {
          "indexed": false,
          "name": "",
          "type": "string[]"
        }
      ],
      "name": "ProductIDGeneratedConsumer",
      "type": "event"
    },
    {
      "constant": false,
      "inputs": [
        {
          "name": "_productType",
          "type": "string"
        },
        {
          "name": "_weight",
          "type": "uint256"
        }
      ],
      "name": "harvestItem",
      "outputs": [],
      "payable": false,
      "stateMutability": "nonpayable",
      "type": "function"
    },
    {
      "constant": false,
      "inputs": [
        {
          "name": "_productName",
          "type": "string"
        },
        {
          "name": "_weight",
          "type": "uint256"
        },
        {
          "name": "_farmerId",
          "type": "address"
        }
      ],
      "name": "buyFromFarmer",
      "outputs": [],
      "payable": true,
      "stateMutability": "payable",
      "type": "function"
    },
    {
      "constant": false,
      "inputs": [
        {
          "name": "_productName",
          "type": "string"
        },
        {
          "name": "_weight",
          "type": "uint256"
        },
        {
          "name": "_distributorId",
          "type": "address"
        }
      ],
      "name": "buyFromDistributor",
      "outputs": [],
      "payable": true,
      "stateMutability": "payable",
      "type": "function"
    },
    {
      "constant": false,
      "inputs": [
        {
          "name": "_productName",
          "type": "string"
        },
        {
          "name": "_weight",
          "type": "uint256"
        },
        {
          "name": "_retailerId",
          "type": "address"
        }
      ],
      "name": "buyFromRetailer",
      "outputs": [],
      "payable": true,
      "stateMutability": "payable",
      "type": "function"
    }
  ],
  "bytecode": "0x60806040523480156200001157600080fd5b5060405160608062004a4283398101806040526200003391908101906200011c565b826000806101000a81548173ffffffffffffffffffffffffffffffffffffffff021916908373ffffffffffffffffffffffffffffffffffffffff16021790555081600160006101000a81548173ffffffffffffffffffffffffffffffffffffffff021916908373ffffffffffffffffffffffffffffffffffffffff16021790555080600260006101000a81548173ffffffffffffffffffffffffffffffffffffffff021916908373ffffffffffffffffffffffffffffffffffffffff160217905550600160038190555050505062000192565b600062000114825162000172565b905092915050565b6000806000606084860312156200013257600080fd5b6000620001428682870162000106565b9350506020620001558682870162000106565b9250506040620001688682870162000106565b9150509250925092565b600073ffffffffffffffffffffffffffffffffffffffff82169050919050565b6148a080620001a26000396000f300608060405260043610610062576000357c0100000000000000000000000000000000000000000000000000000000900463ffffffff1680632738ad43146100675780636d893a7e14610083578063bed654bf1461009f578063f893d45a146100c8575b600080fd5b610081600480360361007c9190810190613cad565b6100e4565b005b61009d60048036036100989190810190613cad565b6106ee565b005b3480156100ab57600080fd5b506100c660048036036100c19190810190613c59565b610cf8565b005b6100e260048036036100dd9190810190613cad565b61131a565b005b6100ec6137e0565b6000326000809054906101000a900473ffffffffffffffffffffffffffffffffffffffff1673ffffffffffffffffffffffffffffffffffffffff166303553a2f6040518163ffffffff167c0100000000000000000000000000000000000000000000000000000000028152600401602060405180830381600087803b15801561017457600080fd5b505af1158015610188573d6000803e3d6000fd5b505050506040513d601f19601f820116820180604052506101ac9190810190613d7e565b806000809054906101000a900473ffffffffffffffffffffffffffffffffffffffff1673ffffffffffffffffffffffffffffffffffffffff166344276733846040518263ffffffff167c01000000000000000000000000000000000000000000000000000000000281526004016102239190613fee565b602060405180830381600087803b15801561023d57600080fd5b505af1158015610251573d6000803e3d6000fd5b505050506040513d601f19601f820116820180604052506102759190810190613d7e565b1415156102b7576040517f08c379a00000000000000000000000000000000000000000000000000000000081526004016102ae9061464f565b60405180910390fd5b866000600160009054906101000a900473ffffffffffffffffffffffffffffffffffffffff1673ffffffffffffffffffffffffffffffffffffffff166385ae0830836040518263ffffffff167c010000000000000000000000000000000000000000000000000000000002815260040161033191906142cf565b602060405180830381600087803b15801561034b57600080fd5b505af115801561035f573d6000803e3d6000fd5b505050506040513d601f19601f820116820180604052506103839190810190613d7e565b1115156103c5576040517f08c379a00000000000000000000000000000000000000000000000000000000081526004016103bc906145ef565b60405180910390fd5b600160009054906101000a900473ffffffffffffffffffffffffffffffffffffffff1673ffffffffffffffffffffffffffffffffffffffff16635f983bd0896040518263ffffffff167c010000000000000000000000000000000000000000000000000000000002815260040161043c91906142cf565b608060405180830381600087803b15801561045657600080fd5b505af115801561046a573d6000803e3d6000fd5b505050506040513d601f19601f8201168201806040525061048e9190810190613d14565b9450600085606001511115156104d9576040517f08c379a00000000000000000000000000000000000000000000000000000000081526004016104d09061466f565b60405180910390fd5b348786606001510211151515610524576040517f08c379a000000000000000000000000000000000000000000000000000000000815260040161051b9061462f565b60405180910390fd5b600160009054906101000a900473ffffffffffffffffffffffffffffffffffffffff1673ffffffffffffffffffffffffffffffffffffffff1663d27a69ff89898960036040518563ffffffff167c01000000000000000000000000000000000000000000000000000000000281526004016105a29493929190614573565b602060405180830381600087803b1580156105bc57600080fd5b505af11580156105d0573d6000803e3d6000fd5b505050506040513d601f19601f820116820180604052506105f49190810190613d7e565b935060008411151561063b576040517f08c379a00000000000000000000000000000000000000000000000000000000081526004016106329061460f565b60405180910390fd5b6106488888883288611924565b8573ffffffffffffffffffffffffffffffffffffffff166108fc888760600151029081150290604051600060405180830381858888f19350505050158015610694573d6000803e3d6000fd5b503273ffffffffffffffffffffffffffffffffffffffff166108fc8887606001510234039081150290604051600060405180830381858888f193505050501580156106e3573d6000803e3d6000fd5b505050505050505050565b6106f66137e0565b6000326000809054906101000a900473ffffffffffffffffffffffffffffffffffffffff1673ffffffffffffffffffffffffffffffffffffffff1663f7b8d4846040518163ffffffff167c0100000000000000000000000000000000000000000000000000000000028152600401602060405180830381600087803b15801561077e57600080fd5b505af1158015610792573d6000803e3d6000fd5b505050506040513d601f19601f820116820180604052506107b69190810190613d7e565b806000809054906101000a900473ffffffffffffffffffffffffffffffffffffffff1673ffffffffffffffffffffffffffffffffffffffff166344276733846040518263ffffffff167c010000000000000000000000000000000000000000000000000000000002815260040161082d9190613fee565b602060405180830381600087803b15801561084757600080fd5b505af115801561085b573d6000803e3d6000fd5b505050506040513d601f19601f8201168201806040525061087f9190810190613d7e565b1415156108c1576040517f08c379a00000000000000000000000000000000000000000000000000000000081526004016108b89061464f565b60405180910390fd5b866000600160009054906101000a900473ffffffffffffffffffffffffffffffffffffffff1673ffffffffffffffffffffffffffffffffffffffff166385ae0830836040518263ffffffff167c010000000000000000000000000000000000000000000000000000000002815260040161093b91906142cf565b602060405180830381600087803b15801561095557600080fd5b505af1158015610969573d6000803e3d6000fd5b505050506040513d601f19601f8201168201806040525061098d9190810190613d7e565b1115156109cf576040517f08c379a00000000000000000000000000000000000000000000000000000000081526004016109c6906145ef565b60405180910390fd5b600160009054906101000a900473ffffffffffffffffffffffffffffffffffffffff1673ffffffffffffffffffffffffffffffffffffffff16635f983bd0896040518263ffffffff167c0100000000000000000000000000000000000000000000000000000000028152600401610a4691906142cf565b608060405180830381600087803b158015610a6057600080fd5b505af1158015610a74573d6000803e3d6000fd5b505050506040513d601f19601f82011682018060405250610a989190810190613d14565b945060008560400151111515610ae3576040517f08c379a0000000000000000000000000000000000000000000000000000000008152600401610ada9061466f565b60405180910390fd5b348786604001510211151515610b2e576040517f08c379a0000000000000000000000000000000000000000000000000000000008152600401610b259061462f565b60405180910390fd5b600160009054906101000a900473ffffffffffffffffffffffffffffffffffffffff1673ffffffffffffffffffffffffffffffffffffffff1663d27a69ff89898960026040518563ffffffff167c0100000000000000000000000000000000000000000000000000000000028152600401610bac9493929190614527565b602060405180830381600087803b158015610bc657600080fd5b505af1158015610bda573d6000803e3d6000fd5b505050506040513d601f19601f82011682018060405250610bfe9190810190613d7e565b9350600084111515610c45576040517f08c379a0000000000000000000000000000000000000000000000000000000008152600401610c3c9061460f565b60405180910390fd5b610c5288888832886122f8565b8573ffffffffffffffffffffffffffffffffffffffff166108fc888760400151029081150290604051600060405180830381858888f19350505050158015610c9e573d6000803e3d6000fd5b503273ffffffffffffffffffffffffffffffffffffffff166108fc8887604001510234039081150290604051600060405180830381858888f19350505050158015610ced573d6000803e3d6000fd5b505050505050505050565b606080326000809054906101000a900473ffffffffffffffffffffffffffffffffffffffff1673ffffffffffffffffffffffffffffffffffffffff1663b67ac8736040518163ffffffff167c0100000000000000000000000000000000000000000000000000000000028152600401602060405180830381600087803b158015610d8157600080fd5b505af1158015610d95573d6000803e3d6000fd5b505050506040513d601f19601f82011682018060405250610db99190810190613d7e565b806000809054906101000a900473ffffffffffffffffffffffffffffffffffffffff1673ffffffffffffffffffffffffffffffffffffffff166344276733846040518263ffffffff167c0100000000000000000000000000000000000000000000000000000000028152600401610e309190613fee565b602060405180830381600087803b158015610e4a57600080fd5b505af1158015610e5e573d6000803e3d6000fd5b505050506040513d601f19601f82011682018060405250610e829190810190613d7e565b141515610ec4576040517f08c379a0000000000000000000000000000000000000000000000000000000008152600401610ebb9061464f565b60405180910390fd5b856000600160009054906101000a900473ffffffffffffffffffffffffffffffffffffffff1673ffffffffffffffffffffffffffffffffffffffff166385ae0830836040518263ffffffff167c0100000000000000000000000000000000000000000000000000000000028152600401610f3e91906142cf565b602060405180830381600087803b158015610f5857600080fd5b505af1158015610f6c573d6000803e3d6000fd5b505050506040513d601f19601f82011682018060405250610f909190810190613d7e565b111515610fd2576040517f08c379a0000000000000000000000000000000000000000000000000000000008152600401610fc9906145ef565b60405180910390fd5b610fdd600354612cc6565b9450600160009054906101000a900473ffffffffffffffffffffffffffffffffffffffff1673ffffffffffffffffffffffffffffffffffffffff16630b58127d32878a60016040518563ffffffff167c010000000000000000000000000000000000000000000000000000000002815260040161105d949392919061413f565b600060405180830381600087803b15801561107757600080fd5b505af115801561108b573d6000803e3d6000fd5b50505050600160009054906101000a900473ffffffffffffffffffffffffffffffffffffffff1673ffffffffffffffffffffffffffffffffffffffff166327ad2604323260008060008d8d8d60016040518a63ffffffff167c010000000000000000000000000000000000000000000000000000000002815260040161111999989796959493929190614009565b600060405180830381600087803b15801561113357600080fd5b505af1158015611147573d6000803e3d6000fd5b50505050600360008154809291906001019190505550600260009054906101000a900473ffffffffffffffffffffffffffffffffffffffff1673ffffffffffffffffffffffffffffffffffffffff16631bab58f5326040518263ffffffff167c01000000000000000000000000000000000000000000000000000000000281526004016111d49190613fee565b600060405180830381600087803b1580156111ee57600080fd5b505af1158015611202573d6000803e3d6000fd5b505050506040513d6000823e3d601f19601f8201168201806040525061122b9190810190613c18565b9350600160009054906101000a900473ffffffffffffffffffffffffffffffffffffffff1673ffffffffffffffffffffffffffffffffffffffff1663fe5457738589886040518463ffffffff167c01000000000000000000000000000000000000000000000000000000000281526004016112a89392919061448f565b600060405180830381600087803b1580156112c257600080fd5b505af11580156112d6573d6000803e3d6000fd5b505050507f41d8ad268fec8e502c884f31a2ebc493717fcb0ee93f7c250bd368524d1fe6128560405161130991906142cf565b60405180910390a150505050505050565b6113226137e0565b6000326000809054906101000a900473ffffffffffffffffffffffffffffffffffffffff1673ffffffffffffffffffffffffffffffffffffffff1663121da33c6040518163ffffffff167c0100000000000000000000000000000000000000000000000000000000028152600401602060405180830381600087803b1580156113aa57600080fd5b505af11580156113be573d6000803e3d6000fd5b505050506040513d601f19601f820116820180604052506113e29190810190613d7e565b806000809054906101000a900473ffffffffffffffffffffffffffffffffffffffff1673ffffffffffffffffffffffffffffffffffffffff166344276733846040518263ffffffff167c01000000000000000000000000000000000000000000000000000000000281526004016114599190613fee565b602060405180830381600087803b15801561147357600080fd5b505af1158015611487573d6000803e3d6000fd5b505050506040513d601f19601f820116820180604052506114ab9190810190613d7e565b1415156114ed576040517f08c379a00000000000000000000000000000000000000000000000000000000081526004016114e49061464f565b60405180910390fd5b866000600160009054906101000a900473ffffffffffffffffffffffffffffffffffffffff1673ffffffffffffffffffffffffffffffffffffffff166385ae0830836040518263ffffffff167c010000000000000000000000000000000000000000000000000000000002815260040161156791906142cf565b602060405180830381600087803b15801561158157600080fd5b505af1158015611595573d6000803e3d6000fd5b505050506040513d601f19601f820116820180604052506115b99190810190613d7e565b1115156115fb576040517f08c379a00000000000000000000000000000000000000000000000000000000081526004016115f2906145ef565b60405180910390fd5b600160009054906101000a900473ffffffffffffffffffffffffffffffffffffffff1673ffffffffffffffffffffffffffffffffffffffff16635f983bd0896040518263ffffffff167c010000000000000000000000000000000000000000000000000000000002815260040161167291906142cf565b608060405180830381600087803b15801561168c57600080fd5b505af11580156116a0573d6000803e3d6000fd5b505050506040513d601f19601f820116820180604052506116c49190810190613d14565b94506000856020015111151561170f576040517f08c379a00000000000000000000000000000000000000000000000000000000081526004016117069061466f565b60405180910390fd5b34878660200151021115151561175a576040517f08c379a00000000000000000000000000000000000000000000000000000000081526004016117519061462f565b60405180910390fd5b600160009054906101000a900473ffffffffffffffffffffffffffffffffffffffff1673ffffffffffffffffffffffffffffffffffffffff1663d27a69ff89898960016040518563ffffffff167c01000000000000000000000000000000000000000000000000000000000281526004016117d894939291906144db565b602060405180830381600087803b1580156117f257600080fd5b505af1158015611806573d6000803e3d6000fd5b505050506040513d601f19601f8201168201806040525061182a9190810190613d7e565b9350600084111515611871576040517f08c379a00000000000000000000000000000000000000000000000000000000081526004016118689061460f565b60405180910390fd5b61187e8888883288612e1b565b8573ffffffffffffffffffffffffffffffffffffffff166108fc888760200151029081150290604051600060405180830381858888f193505050501580156118ca573d6000803e3d6000fd5b503273ffffffffffffffffffffffffffffffffffffffff166108fc8887602001510234039081150290604051600060405180830381858888f19350505050158015611919573d6000803e3d6000fd5b505050505050505050565b606060006060806000611935613809565b6000600160009054906101000a900473ffffffffffffffffffffffffffffffffffffffff1673ffffffffffffffffffffffffffffffffffffffff16632882722c8d60038d6040518463ffffffff167c01000000000000000000000000000000000000000000000000000000000281526004016119b393929190614451565b600060405180830381600087803b1580156119cd57600080fd5b505af11580156119e1573d6000803e3d6000fd5b505050506040513d6000823e3d601f19601f82011682018060405250611a0a9190810190613bd7565b96506000955087604051908082528060200260200182016040528015611a4457816020015b6060815260200190600190039081611a2f5790505b509350865192505b600083118015611a5b57508a86105b1561213c57600160009054906101000a900473ffffffffffffffffffffffffffffffffffffffff1673ffffffffffffffffffffffffffffffffffffffff1663cb78b5278860018603815181101515611aaf57fe5b906020019060200201516040518263ffffffff167c0100000000000000000000000000000000000000000000000000000000028152600401611af191906142ad565b600060405180830381600087803b158015611b0b57600080fd5b505af1158015611b1f573d6000803e3d6000fd5b505050506040513d6000823e3d601f19601f82011682018060405250611b489190810190613d3d565b91508660018403815181101515611b5b57fe5b90602001906020020151611b728360e00151612cc6565b6040516020018083805190602001908083835b602083101515611baa5780518252602082019150602081019050602083039250611b85565b6001836020036101000a038019825116818451168082178552505050505050905001807f2d0000000000000000000000000000000000000000000000000000000000000081525060010182805190602001908083835b602083101515611c255780518252602082019150602081019050602083039250611c00565b6001836020036101000a038019825116818451168082178552505050505050905001925050506040516020818303038152906040529450848488516001868c010303815181101515611c7357fe5b906020019060200201819052508a8260c001518701111515611ede578160c0015186019550600160009054906101000a900473ffffffffffffffffffffffffffffffffffffffff1673ffffffffffffffffffffffffffffffffffffffff166327ad26048a8460200151856040015186606001518e8860a001518960c001518d60016040518a63ffffffff167c0100000000000000000000000000000000000000000000000000000000028152600401611d34999897969594939291906140a4565b600060405180830381600087803b158015611d4e57600080fd5b505af1158015611d62573d6000803e3d6000fd5b50505050600160009054906101000a900473ffffffffffffffffffffffffffffffffffffffff1673ffffffffffffffffffffffffffffffffffffffff16630b58127d8a878f60046040518563ffffffff167c0100000000000000000000000000000000000000000000000000000000028152600401611de49493929190614238565b600060405180830381600087803b158015611dfe57600080fd5b505af1158015611e12573d6000803e3d6000fd5b50505050600160009054906101000a900473ffffffffffffffffffffffffffffffffffffffff1673ffffffffffffffffffffffffffffffffffffffff16636521f4378860018603815181101515611e6557fe5b906020019060200201516040518263ffffffff167c0100000000000000000000000000000000000000000000000000000000028152600401611ea791906142ad565b600060405180830381600087803b158015611ec157600080fd5b505af1158015611ed5573d6000803e3d6000fd5b5050505061212e565b858b039050600160009054906101000a900473ffffffffffffffffffffffffffffffffffffffff1673ffffffffffffffffffffffffffffffffffffffff1663cddfe4218860018603815181101515611f3257fe5b90602001906020020151836040518363ffffffff167c0100000000000000000000000000000000000000000000000000000000028152600401611f769291906145bf565b600060405180830381600087803b158015611f9057600080fd5b505af1158015611fa4573d6000803e3d6000fd5b50505050600160009054906101000a900473ffffffffffffffffffffffffffffffffffffffff1673ffffffffffffffffffffffffffffffffffffffff166327ad26048a8460200151856040015186606001518e8860a00151888d60016040518a63ffffffff167c0100000000000000000000000000000000000000000000000000000000028152600401612040999897969594939291906140a4565b600060405180830381600087803b15801561205a57600080fd5b505af115801561206e573d6000803e3d6000fd5b50505050600160009054906101000a900473ffffffffffffffffffffffffffffffffffffffff1673ffffffffffffffffffffffffffffffffffffffff16630b58127d8a878f60046040518563ffffffff167c01000000000000000000000000000000000000000000000000000000000281526004016120f09493929190614238565b600060405180830381600087803b15801561210a57600080fd5b505af115801561211e573d6000803e3d6000fd5b50505050808260c0015187010195505b828060019003935050611a4c565b8a8614156121fc57600160009054906101000a900473ffffffffffffffffffffffffffffffffffffffff1673ffffffffffffffffffffffffffffffffffffffff166398d91c2c8d8c6003878c51036040518563ffffffff167c01000000000000000000000000000000000000000000000000000000000281526004016121c59493929190614389565b600060405180830381600087803b1580156121df57600080fd5b505af11580156121f3573d6000803e3d6000fd5b505050506122b3565b600160009054906101000a900473ffffffffffffffffffffffffffffffffffffffff1673ffffffffffffffffffffffffffffffffffffffff166398d91c2c8d8c60036001888d5103036040518563ffffffff167c01000000000000000000000000000000000000000000000000000000000281526004016122809493929190614389565b600060405180830381600087803b15801561229a57600080fd5b505af11580156122ae573d6000803e3d6000fd5b505050505b7ffa7c56eedf33fa3599d1f0f1ce1894dc1648ed714f99f4a3318a364fc5d75cce846040516122e2919061428b565b60405180910390a1505050505050505050505050565b606060006060806000612309613809565b6000600160009054906101000a900473ffffffffffffffffffffffffffffffffffffffff1673ffffffffffffffffffffffffffffffffffffffff16632882722c8d60028d6040518463ffffffff167c010000000000000000000000000000000000000000000000000000000002815260040161238793929190614413565b600060405180830381600087803b1580156123a157600080fd5b505af11580156123b5573d6000803e3d6000fd5b505050506040513d6000823e3d601f19601f820116820180604052506123de9190810190613bd7565b9650600095508760405190808252806020026020018201604052801561241857816020015b60608152602001906001900390816124035790505b509350865192505b60008311801561242f57508a86105b15612b0a57600160009054906101000a900473ffffffffffffffffffffffffffffffffffffffff1673ffffffffffffffffffffffffffffffffffffffff1663cb78b527886001860381518110151561248357fe5b906020019060200201516040518263ffffffff167c01000000000000000000000000000000000000000000000000000000000281526004016124c591906142ad565b600060405180830381600087803b1580156124df57600080fd5b505af11580156124f3573d6000803e3d6000fd5b505050506040513d6000823e3d601f19601f8201168201806040525061251c9190810190613d3d565b9150866001840381518110151561252f57fe5b906020019060200201516125468360e00151612cc6565b6040516020018083805190602001908083835b60208310151561257e5780518252602082019150602081019050602083039250612559565b6001836020036101000a038019825116818451168082178552505050505050905001807f2d0000000000000000000000000000000000000000000000000000000000000081525060010182805190602001908083835b6020831015156125f957805182526020820191506020810190506020830392506125d4565b6001836020036101000a038019825116818451168082178552505050505050905001925050506040516020818303038152906040529450848488516001868c01030381518110151561264757fe5b906020019060200201819052508a8260c0015187011115156128af578160c0015186019550600160009054906101000a900473ffffffffffffffffffffffffffffffffffffffff1673ffffffffffffffffffffffffffffffffffffffff166327ad26048a846020015185604001518d60008860a001518960c001518d60016040518a63ffffffff167c0100000000000000000000000000000000000000000000000000000000028152600401612705999897969594939291906140a4565b600060405180830381600087803b15801561271f57600080fd5b505af1158015612733573d6000803e3d6000fd5b50505050600160009054906101000a900473ffffffffffffffffffffffffffffffffffffffff1673ffffffffffffffffffffffffffffffffffffffff16630b58127d8a878f60036040518563ffffffff167c01000000000000000000000000000000000000000000000000000000000281526004016127b594939291906141e5565b600060405180830381600087803b1580156127cf57600080fd5b505af11580156127e3573d6000803e3d6000fd5b50505050600160009054906101000a900473ffffffffffffffffffffffffffffffffffffffff1673ffffffffffffffffffffffffffffffffffffffff16636521f437886001860381518110151561283657fe5b906020019060200201516040518263ffffffff167c010000000000000000000000000000000000000000000000000000000002815260040161287891906142ad565b600060405180830381600087803b15801561289257600080fd5b505af11580156128a6573d6000803e3d6000fd5b50505050612afc565b858b039050600160009054906101000a900473ffffffffffffffffffffffffffffffffffffffff1673ffffffffffffffffffffffffffffffffffffffff1663cddfe421886001860381518110151561290357fe5b90602001906020020151836040518363ffffffff167c01000000000000000000000000000000000000000000000000000000000281526004016129479291906145bf565b600060405180830381600087803b15801561296157600080fd5b505af1158015612975573d6000803e3d6000fd5b50505050600160009054906101000a900473ffffffffffffffffffffffffffffffffffffffff1673ffffffffffffffffffffffffffffffffffffffff166327ad26048a846020015185604001518d60008860a00151888d60016040518a63ffffffff167c0100000000000000000000000000000000000000000000000000000000028152600401612a0e999897969594939291906140a4565b600060405180830381600087803b158015612a2857600080fd5b505af1158015612a3c573d6000803e3d6000fd5b50505050600160009054906101000a900473ffffffffffffffffffffffffffffffffffffffff1673ffffffffffffffffffffffffffffffffffffffff16630b58127d8a878f60036040518563ffffffff167c0100000000000000000000000000000000000000000000000000000000028152600401612abe94939291906141e5565b600060405180830381600087803b158015612ad857600080fd5b505af1158015612aec573d6000803e3d6000fd5b50505050808260c0015187010195505b828060019003935050612420565b8a861415612bca57600160009054906101000a900473ffffffffffffffffffffffffffffffffffffffff1673ffffffffffffffffffffffffffffffffffffffff166398d91c2c8d8c6002878c51036040518563ffffffff167c0100000000000000000000000000000000000000000000000000000000028152600401612b93949392919061433d565b600060405180830381600087803b158015612bad57600080fd5b505af1158015612bc1573d6000803e3d6000fd5b50505050612c81565b600160009054906101000a900473ffffffffffffffffffffffffffffffffffffffff1673ffffffffffffffffffffffffffffffffffffffff166398d91c2c8d8c60026001888d5103036040518563ffffffff167c0100000000000000000000000000000000000000000000000000000000028152600401612c4e949392919061433d565b600060405180830381600087803b158015612c6857600080fd5b505af1158015612c7c573d6000803e3d6000fd5b505050505b7fc96d78efa23a38a9f968abe08f246f86d28734593ece229ec4a8408a046870e584604051612cb0919061428b565b60405180910390a1505050505050505050505050565b606060008060606000851415612d13576040805190810160405280600181526020017f30000000000000000000000000000000000000000000000000000000000000008152509350612e13565b8492505b600083141515612d3d578180600101925050600a83811515612d3557fe5b049250612d17565b816040519080825280601f01601f191660200182016040528015612d705781602001602082028038833980820191505090505b5090506001820392505b600085141515612e0f57600a85811515612d9057fe5b066030017f010000000000000000000000000000000000000000000000000000000000000002818480600190039550815181101515612dcb57fe5b9060200101907effffffffffffffffffffffffffffffffffffffffffffffffffffffffffffff1916908160001a905350600a85811515612e0757fe5b049450612d7a565b8093505b505050919050565b606060006060806000612e2c613809565b6000600160009054906101000a900473ffffffffffffffffffffffffffffffffffffffff1673ffffffffffffffffffffffffffffffffffffffff16632882722c8d60018d6040518463ffffffff167c0100000000000000000000000000000000000000000000000000000000028152600401612eaa939291906143d5565b600060405180830381600087803b158015612ec457600080fd5b505af1158015612ed8573d6000803e3d6000fd5b505050506040513d6000823e3d601f19601f82011682018060405250612f019190810190613bd7565b96506000955087604051908082528060200260200182016040528015612f3b57816020015b6060815260200190600190039081612f265790505b509350865192505b600083118015612f5257508a86105b1561362557600160009054906101000a900473ffffffffffffffffffffffffffffffffffffffff1673ffffffffffffffffffffffffffffffffffffffff1663cb78b5278860018603815181101515612fa657fe5b906020019060200201516040518263ffffffff167c0100000000000000000000000000000000000000000000000000000000028152600401612fe891906142ad565b600060405180830381600087803b15801561300257600080fd5b505af1158015613016573d6000803e3d6000fd5b505050506040513d6000823e3d601f19601f8201168201806040525061303f9190810190613d3d565b9150866001840381518110151561305257fe5b906020019060200201516130698360e00151612cc6565b6040516020018083805190602001908083835b6020831015156130a1578051825260208201915060208101905060208303925061307c565b6001836020036101000a038019825116818451168082178552505050505050905001807f2d0000000000000000000000000000000000000000000000000000000000000081525060010182805190602001908083835b60208310151561311c57805182526020820191506020810190506020830392506130f7565b6001836020036101000a038019825116818451168082178552505050505050905001925050506040516020818303038152906040529450848488516001868c01030381518110151561316a57fe5b906020019060200201819052508a8260c0015187011115156133ce578160c0015186019550600160009054906101000a900473ffffffffffffffffffffffffffffffffffffffff1673ffffffffffffffffffffffffffffffffffffffff166327ad26048a84602001518c6000808860a001518960c001518d60016040518a63ffffffff167c0100000000000000000000000000000000000000000000000000000000028152600401613224999897969594939291906140a4565b600060405180830381600087803b15801561323e57600080fd5b505af1158015613252573d6000803e3d6000fd5b50505050600160009054906101000a900473ffffffffffffffffffffffffffffffffffffffff1673ffffffffffffffffffffffffffffffffffffffff16630b58127d8a878f60026040518563ffffffff167c01000000000000000000000000000000000000000000000000000000000281526004016132d49493929190614192565b600060405180830381600087803b1580156132ee57600080fd5b505af1158015613302573d6000803e3d6000fd5b50505050600160009054906101000a900473ffffffffffffffffffffffffffffffffffffffff1673ffffffffffffffffffffffffffffffffffffffff16636521f437886001860381518110151561335557fe5b906020019060200201516040518263ffffffff167c010000000000000000000000000000000000000000000000000000000002815260040161339791906142ad565b600060405180830381600087803b1580156133b157600080fd5b505af11580156133c5573d6000803e3d6000fd5b50505050613617565b858b039050600160009054906101000a900473ffffffffffffffffffffffffffffffffffffffff1673ffffffffffffffffffffffffffffffffffffffff1663cddfe421886001860381518110151561342257fe5b90602001906020020151836040518363ffffffff167c01000000000000000000000000000000000000000000000000000000000281526004016134669291906145bf565b600060405180830381600087803b15801561348057600080fd5b505af1158015613494573d6000803e3d6000fd5b50505050600160009054906101000a900473ffffffffffffffffffffffffffffffffffffffff1673ffffffffffffffffffffffffffffffffffffffff166327ad26048a84602001518c6000808860a00151888d60016040518a63ffffffff167c0100000000000000000000000000000000000000000000000000000000028152600401613529999897969594939291906140a4565b600060405180830381600087803b15801561354357600080fd5b505af1158015613557573d6000803e3d6000fd5b50505050600160009054906101000a900473ffffffffffffffffffffffffffffffffffffffff1673ffffffffffffffffffffffffffffffffffffffff16630b58127d8a878f60026040518563ffffffff167c01000000000000000000000000000000000000000000000000000000000281526004016135d99493929190614192565b600060405180830381600087803b1580156135f357600080fd5b505af1158015613607573d6000803e3d6000fd5b50505050808260c0015187010195505b828060019003935050612f43565b8a8614156136e557600160009054906101000a900473ffffffffffffffffffffffffffffffffffffffff1673ffffffffffffffffffffffffffffffffffffffff166398d91c2c8d8c6001878c51036040518563ffffffff167c01000000000000000000000000000000000000000000000000000000000281526004016136ae94939291906142f1565b600060405180830381600087803b1580156136c857600080fd5b505af11580156136dc573d6000803e3d6000fd5b5050505061379b565b600160009054906101000a900473ffffffffffffffffffffffffffffffffffffffff1673ffffffffffffffffffffffffffffffffffffffff166398d91c2c8d8c600180888d5103036040518563ffffffff167c010000000000000000000000000000000000000000000000000000000002815260040161376894939291906142f1565b600060405180830381600087803b15801561378257600080fd5b505af1158015613796573d6000803e3d6000fd5b505050505b7ff231044f4afaa1d0c90c928c59b56adc80f19a7985ea78a070ca5859f6f0eaa9846040516137ca919061428b565b60405180910390a1505050505050505050505050565b608060405190810160405280600081526020016000815260200160008152602001600081525090565b61010060405190810160405280600073ffffffffffffffffffffffffffffffffffffffff168152602001600073ffffffffffffffffffffffffffffffffffffffff168152602001600073ffffffffffffffffffffffffffffffffffffffff168152602001600073ffffffffffffffffffffffffffffffffffffffff168152602001600073ffffffffffffffffffffffffffffffffffffffff1681526020016060815260200160008152602001600081525090565b60006138c982356147a1565b905092915050565b60006138dd82516147a1565b905092915050565b600082601f83011215156138f857600080fd5b815161390b613906826146bc565b61468f565b9150818183526020840193506020810190508360005b838110156139515781518601613937888261395b565b845260208401935060208301925050600181019050613921565b5050505092915050565b600082601f830112151561396e57600080fd5b815161398161397c826146e4565b61468f565b9150808252602083016020830185838301111561399d57600080fd5b6139a8838284614822565b50505092915050565b600082601f83011215156139c457600080fd5b81356139d76139d282614710565b61468f565b915080825260208301602083018583830111156139f357600080fd5b6139fe838284614813565b50505092915050565b600082601f8301121515613a1a57600080fd5b8151613a2d613a2882614710565b61468f565b91508082526020830160208301858383011115613a4957600080fd5b613a54838284614822565b50505092915050565b600060808284031215613a6f57600080fd5b613a79608061468f565b90506000613a8984828501613bc3565b6000830152506020613a9d84828501613bc3565b6020830152506040613ab184828501613bc3565b6040830152506060613ac584828501613bc3565b60608301525092915050565b60006101008284031215613ae457600080fd5b613aef61010061468f565b90506000613aff848285016138d1565b6000830152506020613b13848285016138d1565b6020830152506040613b27848285016138d1565b6040830152506060613b3b848285016138d1565b6060830152506080613b4f848285016138d1565b60808301525060a082015167ffffffffffffffff811115613b6f57600080fd5b613b7b8482850161395b565b60a08301525060c0613b8f84828501613bc3565b60c08301525060e0613ba384828501613bc3565b60e08301525092915050565b6000613bbb82356147c1565b905092915050565b6000613bcf82516147c1565b905092915050565b600060208284031215613be957600080fd5b600082015167ffffffffffffffff811115613c0357600080fd5b613c0f848285016138e5565b91505092915050565b600060208284031215613c2a57600080fd5b600082015167ffffffffffffffff811115613c4457600080fd5b613c5084828501613a07565b91505092915050565b60008060408385031215613c6c57600080fd5b600083013567ffffffffffffffff811115613c8657600080fd5b613c92858286016139b1565b9250506020613ca385828601613baf565b9150509250929050565b600080600060608486031215613cc257600080fd5b600084013567ffffffffffffffff811115613cdc57600080fd5b613ce8868287016139b1565b9350506020613cf986828701613baf565b9250506040613d0a868287016138bd565b9150509250925092565b600060808284031215613d2657600080fd5b6000613d3484828501613a5d565b91505092915050565b600060208284031215613d4f57600080fd5b600082015167ffffffffffffffff811115613d6957600080fd5b613d7584828501613ad1565b91505092915050565b600060208284031215613d9057600080fd5b6000613d9e84828501613bc3565b91505092915050565b613db081614777565b82525050565b6000613dc182614749565b80845260208401935083602082028501613dda8561473c565b60005b84811015613e13578383038852613df5838351613e96565b9250613e008261476a565b9150602088019750600181019050613ddd565b508196508694505050505092915050565b613e2d816147cb565b82525050565b613e3c816147dd565b82525050565b613e4b816147ef565b82525050565b613e5a81614801565b82525050565b6000613e6b8261475f565b808452613e7f816020860160208601614822565b613e8881614855565b602085010191505092915050565b6000613ea182614754565b808452613eb5816020860160208601614822565b613ebe81614855565b602085010191505092915050565b6000601a82527f43726f70206e6f7420616c6c6f77656420696e2073797374656d0000000000006020830152604082019050919050565b6000600e82527f4c6f77206f6e2070726f647563740000000000000000000000000000000000006020830152604082019050919050565b6000600d82527f4c6f77206f6e20657468657273000000000000000000000000000000000000006020830152604082019050919050565b6000601a82527f526563656976657220726f6c6520697320696e636f72726563740000000000006020830152604082019050919050565b6000600d82527f5072696365206e6f7420736574000000000000000000000000000000000000006020830152604082019050919050565b613fe881614797565b82525050565b60006020820190506140036000830184613da7565b92915050565b60006101208201905061401f600083018c613da7565b61402c602083018b613da7565b614039604083018a613da7565b6140466060830189613da7565b6140536080830188613da7565b81810360a08301526140658187613e60565b905061407460c0830186613fdf565b81810360e08301526140868185613e60565b9050614096610100830184613e24565b9a9950505050505050505050565b6000610120820190506140ba600083018c613da7565b6140c7602083018b613da7565b6140d4604083018a613da7565b6140e16060830189613da7565b6140ee6080830188613da7565b81810360a08301526141008187613e96565b905061410f60c0830186613fdf565b81810360e08301526141218185613e60565b9050614131610100830184613e24565b9a9950505050505050505050565b60006080820190506141546000830187613da7565b81810360208301526141668186613e60565b9050818103604083015261417a8185613e60565b90506141896060830184613e24565b95945050505050565b60006080820190506141a76000830187613da7565b81810360208301526141b98186613e60565b905081810360408301526141cd8185613e60565b90506141dc6060830184613e33565b95945050505050565b60006080820190506141fa6000830187613da7565b818103602083015261420c8186613e60565b905081810360408301526142208185613e60565b905061422f6060830184613e42565b95945050505050565b600060808201905061424d6000830187613da7565b818103602083015261425f8186613e60565b905081810360408301526142738185613e60565b90506142826060830184613e51565b95945050505050565b600060208201905081810360008301526142a58184613db6565b905092915050565b600060208201905081810360008301526142c78184613e96565b905092915050565b600060208201905081810360008301526142e98184613e60565b905092915050565b6000608082019050818103600083015261430b8187613e60565b905061431a6020830186613da7565b6143276040830185613e24565b6143346060830184613fdf565b95945050505050565b600060808201905081810360008301526143578187613e60565b90506143666020830186613da7565b6143736040830185613e33565b6143806060830184613fdf565b95945050505050565b600060808201905081810360008301526143a38187613e60565b90506143b26020830186613da7565b6143bf6040830185613e42565b6143cc6060830184613fdf565b95945050505050565b600060608201905081810360008301526143ef8186613e60565b90506143fe6020830185613e24565b61440b6040830184613da7565b949350505050565b6000606082019050818103600083015261442d8186613e60565b905061443c6020830185613e33565b6144496040830184613da7565b949350505050565b6000606082019050818103600083015261446b8186613e60565b905061447a6020830185613e42565b6144876040830184613da7565b949350505050565b600060608201905081810360008301526144a98186613e60565b905081810360208301526144bd8185613e60565b905081810360408301526144d18184613e60565b9050949350505050565b600060808201905081810360008301526144f58187613e60565b90506145046020830186613fdf565b6145116040830185613da7565b61451e6060830184613e24565b95945050505050565b600060808201905081810360008301526145418187613e60565b90506145506020830186613fdf565b61455d6040830185613da7565b61456a6060830184613e33565b95945050505050565b6000608082019050818103600083015261458d8187613e60565b905061459c6020830186613fdf565b6145a96040830185613da7565b6145b66060830184613e42565b95945050505050565b600060408201905081810360008301526145d98185613e96565b90506145e86020830184613fdf565b9392505050565b6000602082019050818103600083015261460881613ecc565b9050919050565b6000602082019050818103600083015261462881613f03565b9050919050565b6000602082019050818103600083015261464881613f3a565b9050919050565b6000602082019050818103600083015261466881613f71565b9050919050565b6000602082019050818103600083015261468881613fa8565b9050919050565b6000604051905081810181811067ffffffffffffffff821117156146b257600080fd5b8060405250919050565b600067ffffffffffffffff8211156146d357600080fd5b602082029050602081019050919050565b600067ffffffffffffffff8211156146fb57600080fd5b601f19601f8301169050602081019050919050565b600067ffffffffffffffff82111561472757600080fd5b601f19601f8301169050602081019050919050565b6000602082019050919050565b600081519050919050565b600081519050919050565b600081519050919050565b6000602082019050919050565b600073ffffffffffffffffffffffffffffffffffffffff82169050919050565b6000819050919050565b600073ffffffffffffffffffffffffffffffffffffffff82169050919050565b6000819050919050565b60006147d682614797565b9050919050565b60006147e882614797565b9050919050565b60006147fa82614797565b9050919050565b600061480c82614797565b9050919050565b82818337600083830152505050565b60005b83811015614840578082015181840152602081019050614825565b8381111561484f576000848401525b50505050565b6000601f19601f83011690509190505600a265627a7a7230582002bf29ea37bcb5d88de8be0e140668c28e19e4e6ed0c7b3c1a89f3c17bd080aa6c6578706572696d656e74616cf50037",
  "source": "// SPDX-License-Identifier: GPL-3.0\r\npragma solidity ^0.4.22;\r\npragma experimental ABIEncoderV2;\r\n\r\nimport \"./Roles.sol\";\r\nimport './FarmerContract.sol';\r\nimport \"./SupplyChain.sol\";\r\nimport \"./HelperMethods.sol\";\r\n\r\ncontract SupplyChain2 {\r\n    Roles rc;\r\n    SupplyChain sc;\r\n    FarmerContract fc;\r\n\r\n    uint256 productID;\r\n    \r\n    event ProductIDGeneratedFarmer(string);\r\n    event ProductIDGeneratedDistributor(string[]);\r\n    event ProductIDGeneratedRetailer(string[]);\r\n    event ProductIDGeneratedConsumer(string[]);\r\n\r\n    constructor(address _rcaddress, address _scaddress, address _fcaddress) public {\r\n        rc = Roles(_rcaddress);\r\n        sc = SupplyChain(_scaddress);\r\n        fc = FarmerContract(_fcaddress);\r\n        productID = 1;\r\n    }\r\n    \r\n    modifier verifyReceiver(address _address, uint256 roleID) {\r\n        require(rc.getRole(_address) == roleID, \"Receiver role is incorrect\");\r\n        _;\r\n    }\r\n\r\n    modifier validProduct(string _productType) {\r\n        require(sc.getSerialNumber(_productType) > 0, \"Crop not allowed in system\");\r\n        _;\r\n    }\r\n\r\n    function withdrawProductFromFarmer(string _productName, uint256 _weight, address _owner, address _receiver, uint256 sz) private {\r\n        string[] memory ids = sc.getAllProductsPerOwner(_productName, 1, _owner);\r\n        uint256 weightPresent = 0;\r\n        \r\n        string memory newId;\r\n        string[] memory newIds = new string[](sz);\r\n\r\n        for (uint256 i = ids.length; i > 0 && weightPresent < _weight; i--) {\r\n            SupplyChain.Item memory currentItem = sc.getItems(ids[i-1]);\r\n            newId = string(abi.encodePacked(ids[i-1],\"-\",HelperMethods.integerToString(currentItem.parts)));\r\n            newIds[sz + i - 1 - ids.length] = newId;\r\n             \r\n            if (weightPresent + currentItem.weight <= _weight) {\r\n                weightPresent = weightPresent + currentItem.weight;\r\n                sc.insertItem(_receiver, currentItem.farmerID, _receiver, address(0), address(0), currentItem.productType, currentItem.weight, newId, 1);\r\n                sc.insertNewId(_receiver, newId, _productName, 2);\r\n                sc.deleteItem(ids[i-1]);\r\n            } else {\r\n                uint256 wt = _weight - weightPresent;\r\n                sc.updateCurrentItem(ids[i-1],wt);\r\n                sc.insertItem(_receiver, currentItem.farmerID, _receiver, address(0), address(0), currentItem.productType, wt, newId, 1);\r\n                sc.insertNewId(_receiver, newId, _productName, 2);\r\n                weightPresent = weightPresent + currentItem.weight + wt;\r\n            }\r\n        }\r\n        \r\n        if (weightPresent == _weight) {\r\n            sc.deleteFromOwner(_productName, _owner, 1, ids.length-i);\r\n        } else {\r\n            sc.deleteFromOwner(_productName, _owner, 1, ids.length-i-1);\r\n        }\r\n\r\n        emit ProductIDGeneratedDistributor(newIds);\r\n    }\r\n\r\n    function withdrawProductFromDistributor(string _productName, uint256 _weight, address _owner, address _receiver, uint256 sz) private {\r\n        string[] memory ids = sc.getAllProductsPerOwner(_productName, 2, _owner);\r\n        uint256 weightPresent = 0;\r\n        \r\n        string memory newId;\r\n        string[] memory newIds = new string[](sz);\r\n\r\n        for (uint256 i = ids.length; i > 0 && weightPresent < _weight; i--) {\r\n            SupplyChain.Item memory currentItem = sc.getItems(ids[i-1]);\r\n            newId = string(abi.encodePacked(ids[i-1],\"-\",HelperMethods.integerToString(currentItem.parts)));\r\n            newIds[sz + i - 1 - ids.length] = newId;\r\n             \r\n            if (weightPresent + currentItem.weight <= _weight) {\r\n                weightPresent = weightPresent + currentItem.weight;\r\n                sc.insertItem(_receiver, currentItem.farmerID, currentItem.distributorID, _receiver, address(0), currentItem.productType, currentItem.weight, newId, 1);\r\n                sc.insertNewId(_receiver, newId, _productName, 3);\r\n                sc.deleteItem(ids[i-1]);\r\n            } else {\r\n                uint256 wt = _weight - weightPresent;\r\n                sc.updateCurrentItem(ids[i-1],wt);\r\n                sc.insertItem(_receiver, currentItem.farmerID, currentItem.distributorID, _receiver, address(0), currentItem.productType, wt, newId, 1);\r\n                sc.insertNewId(_receiver, newId, _productName, 3);\r\n                weightPresent = weightPresent + currentItem.weight + wt;\r\n            }\r\n        }\r\n        \r\n        if (weightPresent == _weight) {\r\n            sc.deleteFromOwner(_productName, _owner, 2, ids.length-i);\r\n        } else {\r\n            sc.deleteFromOwner(_productName, _owner, 2, ids.length-i-1);\r\n        }\r\n\r\n        emit ProductIDGeneratedRetailer(newIds);\r\n    }\r\n\r\n    function withdrawProductFromRetailer(string _productName, uint256 _weight, address _owner, address _receiver, uint256 sz) private {\r\n        string[] memory ids = sc.getAllProductsPerOwner(_productName, 3, _owner);\r\n        uint256 weightPresent = 0;\r\n        \r\n        string memory newId;\r\n        string[] memory newIds = new string[](sz);\r\n\r\n        for (uint256 i = ids.length; i > 0 && weightPresent < _weight; i--) {\r\n            SupplyChain.Item memory currentItem = sc.getItems(ids[i-1]);\r\n            newId = string(abi.encodePacked(ids[i-1],\"-\",HelperMethods.integerToString(currentItem.parts)));\r\n            newIds[sz + i - 1 - ids.length] = newId;\r\n             \r\n            if (weightPresent + currentItem.weight <= _weight) {\r\n                weightPresent = weightPresent + currentItem.weight;\r\n                sc.insertItem(_receiver, currentItem.farmerID, currentItem.distributorID, currentItem.retailerID, _receiver, currentItem.productType, currentItem.weight, newId, 1);\r\n                sc.insertNewId(_receiver, newId, _productName, 4);\r\n                sc.deleteItem(ids[i-1]);\r\n            } else {\r\n                uint256 wt = _weight - weightPresent;\r\n                sc.updateCurrentItem(ids[i-1],wt);\r\n                sc.insertItem(_receiver, currentItem.farmerID, currentItem.distributorID, currentItem.retailerID, _receiver, currentItem.productType, wt, newId, 1);\r\n                sc.insertNewId(_receiver, newId, _productName, 4);\r\n                weightPresent = weightPresent + currentItem.weight + wt;\r\n            }\r\n        }\r\n        \r\n        if (weightPresent == _weight) {\r\n            sc.deleteFromOwner(_productName, _owner, 3, ids.length-i);\r\n        } else {\r\n            sc.deleteFromOwner(_productName, _owner, 3, ids.length-i-1);\r\n        }\r\n\r\n        emit ProductIDGeneratedConsumer(newIds);\r\n    }\r\n\r\n    function harvestItem (\r\n        string _productType,\r\n        uint256 _weight\r\n    ) public\r\n    verifyReceiver(tx.origin, rc.farmerRoleID()) \r\n    validProduct(_productType)\r\n    {\r\n        string memory newProductID = HelperMethods.integerToString(productID);\r\n        sc.insertNewId(tx.origin, newProductID, _productType, 1);\r\n        sc.insertItem(tx.origin, tx.origin,address(0),address(0),address(0), _productType, _weight, newProductID, 1);\r\n        productID++;\r\n\r\n        string memory stateOfResidence = fc.getState(tx.origin);\r\n        sc.insertInProductionList(stateOfResidence, _productType, newProductID);\r\n\r\n        emit ProductIDGeneratedFarmer(newProductID);\r\n    }\r\n\r\n    function buyFromFarmer(string _productName, uint256 _weight, address _farmerId)\r\n    public payable\r\n    verifyReceiver(tx.origin, rc.distributorRoleID())\r\n    validProduct(_productName) {\r\n        SupplyChain.Crop memory crop = sc.getCropPrices(_productName);        \r\n        require(crop.priceForDistributor > 0, \"Price not set\");\r\n        require(crop.priceForDistributor * _weight <= msg.value, \"Low on ethers\");\r\n\r\n        uint256 sz = sc.checkAvailability(_productName, _weight, _farmerId, 1);\r\n        \r\n        require(sz > 0, \"Low on product\");\r\n        withdrawProductFromFarmer(_productName, _weight, _farmerId, tx.origin, sz);\r\n    \r\n        _farmerId.transfer(crop.priceForDistributor*_weight);\r\n        tx.origin.transfer(msg.value - crop.priceForDistributor*_weight);\r\n    }\r\n\r\n    function buyFromDistributor(string _productName, uint256 _weight, address _distributorId)\r\n    public payable\r\n    verifyReceiver(tx.origin, rc.retailerRoleID())\r\n    validProduct(_productName) {\r\n        SupplyChain.Crop memory crop = sc.getCropPrices(_productName);        \r\n        require(crop.priceForRetailer > 0, \"Price not set\");\r\n        require(crop.priceForRetailer * _weight <= msg.value, \"Low on ethers\");\r\n\r\n        uint256 sz = sc.checkAvailability(_productName, _weight, _distributorId, 2);\r\n        \r\n        require(sz > 0, \"Low on product\");\r\n        withdrawProductFromDistributor(_productName, _weight, _distributorId, tx.origin, sz);\r\n        \r\n        _distributorId.transfer(crop.priceForRetailer*_weight);\r\n        tx.origin.transfer(msg.value - crop.priceForRetailer*_weight);\r\n    }\r\n\r\n    function buyFromRetailer(string _productName, uint256 _weight, address _retailerId)\r\n    public payable\r\n    verifyReceiver(tx.origin, rc.consumerRoleID())\r\n    validProduct(_productName) {\r\n        SupplyChain.Crop memory crop = sc.getCropPrices(_productName);        \r\n        require(crop.priceForConsumer > 0, \"Price not set\");\r\n        require(crop.priceForConsumer * _weight <= msg.value, \"Low on ethers\");\r\n\r\n        uint256 sz = sc.checkAvailability(_productName, _weight, _retailerId, 3);\r\n        \r\n        require(sz > 0, \"Low on product\");\r\n        withdrawProductFromRetailer(_productName, _weight, _retailerId, tx.origin, sz);\r\n        \r\n        _retailerId.transfer(crop.priceForConsumer*_weight);\r\n        tx.origin.transfer(msg.value - crop.priceForConsumer*_weight);\r\n    }\r\n    \r\n}",
  "sourcePath": "D:\\7thSemester\\CS491\\smart_agriculture_react\\contracts\\SupplyChain2.sol",
  "compiler": {
    "name": "solc",
    "version": "0.4.26+commit.4563c3fc.Emscripten.clang"
  },
  "schemaVersion": "3.4.3",
  "updatedAt": "2022-02-09T11:47:58.856Z",
  "networkType": "ethereum",
  "devdoc": {
    "methods": {}
  },
  "userdoc": {
    "methods": {}
  }
}